:040000000DEF00F010
:04000800BAEF33F028
:10001800FF0080EF29F0D60E096EFF0E0A6EA2ECE3
:100028002EF0C7EF00F0D80E096EFE0E0A6EA2EC95
:100038002EF009EF01F0E90E096EFD0E0A6EA2EC32
:100048002EF009EF01F01E0E096EFE0E0A6EA2ECEC
:100058002EF009EF01F0110E096EFE0E0A6EA2ECE9
:100068002EF009EF01F0040E096EFE0E0A6EA2ECE6
:100078002EF009EF01F0DB0E096EFD0E0A6EA2EC00
:100088002EF009EF01F0540E096EFD0E0A6EA2EC77
:100098002EF009EF01F0A10E096EFE0E0A6EA2EC19
:1000A8002EF009EF01F0420E096EFD0E0A6EA2EC69
:1000B8002EF0050120EE02F08051D9268151DA2276
:1000C800DE50DE10D8A46BEF00F06DEF00F072EF99
:1000D80000F0BA6B000EB96F7DEF00F020EE06F06D
:1000E8008051D9268151DA22DF50826F8251B96F4F
:1000F800BA6BB9C51FF5BAC520F5216A226AF1ECB9
:1001080025F009EF01F0750E096EFD0E0A6EA2ECDE
:100118002EF009EF01F0940E096EFD0E0A6EA2ECA6
:100128002EF009EF01F0970E096EFE0E0A6EA2EC92
:100138002EF009EF01F0CD0E096EFD0E0A6EA2EC4D
:100148002EF009EF01F08D0E096EFE0E0A6EA2EC7C
:100158002EF009EF01F0110E096EFF0E0A6EA2ECE7
:100168002EF0050120EE01F08051D9268151DA22C6
:10017800DF50826F82511F6E206A216A226AF1EC79
:1001880025F009EF01F0050120EE01F08051D92694
:100198008151DA22DF50010AD8B417EF00F0030AC0
:1001A800D8B41FEF00F0010AD8B42FEF00F0070A07
:1001B800D8B43FEF00F0010AD8B447EF00F0030AC3
:1001C800D8B44FEF00F0010AD8B457EF00F00F0A87
:1001D800D8B487EF00F0010AD8B48FEF00F0030A13
:1001E800D8B497EF00F0010AD8B49FEF00F0070ADF
:1001F800D8B4A7EF00F0020AD8B427EF00F0010A3C
:10020800D8B437EF00F0AFEF00F0BC0E096EFF0E68
:100218000A6EA2EC2EF0050120EE02F08051D926DC
:100228008151DA22DEC482F5DDC483F582C51FF56B
:1002380083C520F5216A226AF1EC25F088EC34F0B8
:1002480094EF08F0E0EC34F0D6EF08F020EE02F07E
:100258008051D9268151DA22010EDB5009E1080EBE
:10026800DE5CD8A03AEF01F03CEF01F014EF02F0A9
:1002780020EE08F08051D9268151DA22DF50826FB2
:1002880082C583F5846B856B866B85C586F584C5C9
:1002980085F583C584F5836B20EE07F08051D92658
:1002A8008151DA22DF50876F87C588F5896B8A6BA1
:1002B8008B6B89C58BF588C58AF5896B886B20EEB1
:1002C80006F08051D9268151DA22DF508C6F8CC517
:1002D8008DF58E6B8F6B906B8DC590F58F6B8E6BDC
:1002E8008D6B88518D11916F89518E11926F8A5142
:1002F8008F11936F8B519011946F83519111956F5A
:1003080084519211966F85519311976F865194116C
:10031800986F20EE09F08051D9268151DA22DF50FA
:10032800996F995195119A6F96519B6F97519C6F40
:1003380098519D6F20EE0CF08051D9268151DA2218
:10034800DF50826F82C583F5846B856B866B85C5AC
:1003580086F584C585F583C584F5836B20EE0BF09F
:100368008051D9268151DA22DF50876F87C588F5F9
:10037800896B8A6B8B6B89C58BF588C58AF5896B08
:10038800886B20EE0AF08051D9268151DA22DF509D
:100398008C6F8CC58DF58E6B8F6B906B8DC590F5C2
:1003A8008F6B8E6B8D6B88518D11916F89518E116A
:1003B800926F8A518F11936F8B519011946F835163
:1003C8009111956F84519211966F85519311976F82
:1003D80086519411986F20EE0DF08051D9268151E5
:1003E800DA22DF50996F995195119E6F96519F6F40
:1003F8009751A06F9851A16F9AC52FF59BC530F5FD
:100408009CC531F59DC532F59EC533F59FC534F5BC
:10041800A0C535F5A1C536F59BEC20F0D6EF08F060
:10042800ACEC32F0D6EF08F020EE02F08051D9267D
:100438008151DA22050EDE18DE10D8A426EF02F06C
:1004480028EF02F0D6EF08F020EE06F08051D9260A
:100458008151DA22DF50E86F20EE09F08051D92669
:100468008151DA22DF50826F82C583F5846B856BF8
:10047800866B85C586F584C585F583C584F5836B4C
:1004880020EE08F08051D9268151DA22DF50876F9B
:1004980087C588F5896B8A6B8B6B89C58BF588C591
:1004A8008AF5896B886B20EE07F08051D926815137
:1004B800DA22DF508C6F8CC58DF58E6B8F6B906B4D
:1004C8008DC590F58F6B8E6B8D6B88518D11916FEB
:1004D80089518E11926F8A518F11936F8B519011A0
:1004E800946F83519111956F84519211966F855134
:1004F8009311976F86519411986F20EE0AF08051EE
:10050800D9268151DA22DF50996F99519511D86F08
:100518009651D96F9751DA6F9851DB6F0601BE512A
:10052800D8A499EF02F09BEF02F006EF06F0010E57
:10053800BE6F77EC34F006017051065C126E715193
:100548000758136E72510858146E73510958156E76
:10055800E80E166E030E176E000E186E000E196E5A
:10056800E2EC28F012C5A2F513C5A3F514C5A4F54D
:1005780015C5A5F5AA0E0501DC6F140EDD6F000E7A
:10058800DE6F000EDF6FDC51DD11DE11DF11D8A444
:10059800D0EF02F0D2EF02F0DAEF02F0010EDC6FDA
:1005A800000EDD6F000EDE6F000EDF6FE1C606F590
:1005B800E2C607F5086A096ADCC50AF5DDC50BF568
:1005C800DEC50CF5DFC50DF524EC2CF0F40E062481
:1005D800126E010E0720136E000E0820146E000E16
:1005E8000920156EE80E166E030E176E000E186EB3
:1005F800000E196EE2EC28F012C5A6F513C5A7F592
:1006080014C5A8F515C5A9F5BBEC34F006C5B6F5B3
:1006180007C5B7F5D8C51FF5D9C520F5DAC521F541
:10062800DBC522F5A2C523F5A3C524F5A4C525F588
:10063800A5C526F5A6C527F5A7C528F5A8C529F592
:10064800A9C52AF5000E2B6E0501E851B8EC11F08A
:10065800E90E066E050E076ECAEC29F029EC31F09A
:1006680006C5CCF507C5CDF508C5CEF509C5CFF546
:10067800650E096EFD0E0A6EA2EC2EF00501E8511A
:100688001F6E206A216A226AF1EC25F0660E096E57
:10069800FF0E0A6EA2EC2EF00501CFBF58EF03F053
:1006A80056EF03F07CEF03F0FA0E096EFF0E0A6EA8
:1006B800A2EC2EF0CCC582F5CDC583F5CEC584F568
:1006C800CFC585F50501821F831F841F851F822BD7
:1006D800000E83238423852382C51FF583C520F557
:1006E80084C521F585C522F5F1EC25F086EF03F0E8
:1006F800CCC51FF5CDC520F5CEC521F5CFC522F552
:10070800F1EC25F0DB0E096EFF0E0A6EA2EC2EF05E
:10071800B6C51FF5B7C520F5000E20BEFF0E216E29
:10072800226EF1EC25F0F40E096EFF0E0A6EA2ECB3
:100738002EF0F1C51FF5F2C520F5216A226AF1EC09
:1007480025F05F0E096EFF0E0A6EA2EC2EF0050171
:10075800ED511F6E206A216A226AF1EC25F0580ECD
:10076800096EFF0E0A6EA2EC2EF00501F0511F6E05
:10077800206A216A226AF1EC25F088EC34F0050140
:10078800E851D8B4CAEF03F0CCEF03F0E1EF03F07F
:10079800010E0601BD6F030E206EE80E1F6EDCC54C
:1007A80021F5DDC522F5DEC523F5DFC524F5F6EC18
:1007B80017F01FC5E1F620C5E2F6E1C606F5E2C668
:1007C80007F55DEC32F0010E126E000E136E000E8E
:1007D800146E000E156E55EC2EF012C5D4F513C527
:1007E800D5F514C5D6F515C5D7F50501D451D511DC
:1007F800D611D711D8A403EF04F005EF04F00DEFDC
:1008080004F0010ED46F000ED56F000ED66F000EE7
:10081800D76FD751D61108E1D505D8A016EF04F047
:1008280018EF04F020EF04F0FF0ED46F000ED56F20
:10083800000ED66F000ED76FD4C582F5D5C583F5E7
:10084800D6C584F5D7C585F50E0ED890823783377F
:1008580084378537E82E29EF04F00F0E8225126EB3
:10086800000E8321136E000E8421146E000E852164
:10087800156E1F0E166E000E176E000E186E000E07
:10088800196EE2EC28F012C5AAF513C5ABF514C52C
:10089800ACF515C5ADF5AAC506F5ABC507F5ACC5EC
:1008A80008F5ADC509F50A0E0A6E000E0B6E000EAE
:1008B8000C6E000E0D6E24EC2CF006C5BCF507C5B9
:1008C800BDF508C5BEF509C5BFF506019A51050174
:1008D800826F06019B510501836F846B856BF40E53
:1008E8008225126E010E8321136E000E8421146E70
:1008F800000E8521156EE80E166E030E176E000E9B
:10090800186E000E196EE2EC28F012C5C0F513C57A
:10091800C1F514C5C2F515C5C3F5000E0501C86FAC
:10092800000EC96F000ECA6F000ECB6FBB6B0601BD
:10093800BC51D8B4A2EF04F0A4EF04F0DAEF04F04D
:1009480068510501C05D060169510501C1590601DB
:100958006A510501C25906016B510501C359D8A056
:10096800B8EF04F0BAEF04F0C4EF04F068C6C8F5B5
:1009780069C6C9F56AC6CAF56BC6CBF5D8EF04F0E7
:10098800C0510601685D0501C86FC151060169596A
:100998000501C96FC25106016A590501CA6FC351E1
:1009A80006016B590501CB6F010EBB6FC8C506F573
:1009B800C9C507F5CAC508F5CBC509F5BBC50AF50C
:1009C800BCC50BF5BDC50CF5BEC50DF5BFC50EF50F
:1009D80099EC32F077EC34F006C582F507C583F55B
:1009E80008C584F509C585F565EC34F006500501A0
:1009F800825DD06F07508359D16F08508459D26FE8
:100A080009508559D36FD351D2110BE1610ED05DD6
:100A1800EA0ED159D8A013EF05F015EF05F01DEF38
:100A280005F0600ED06FEA0ED16F000ED26F000E87
:100A3800D36FE851D8B423EF05F025EF05F036EF72
:100A480005F0D8C568F6D9C569F6DAC56AF6DBC512
:100A58006BF6010E0601BC6FD0C59AF6D1C59BF6A0
:100A680038EF05F00601BC6B850E096EFD0E0A6EA7
:100A7800A2EC2EF00501E8511F6E206A216A226A55
:100A8800F1EC25F0E00E096EFF0E0A6EA2EC2EF0D6
:100A9800D8C51FF5D9C520F5DAC521F5DBC522F57E
:100AA800F1EC25F0AA0E096EFF0E0A6EA2EC2EF0EC
:100AB800D0C51FF5D1C520F5D2C521F5D3C522F57E
:100AC800F1EC25F06D0E096EFF0E0A6EA2EC2EF009
:100AD800C8C51FF5C9C520F5CAC521F5CBC522F57E
:100AE800F1EC25F0B60E096EFF0E0A6EA2EC2EF0A0
:100AF800BCC51FF5BDC520F5BEC521F5BFC522F58E
:100B0800F1EC25F0CF0E096EFE0E0A6EA2EC2EF067
:100B180053EC34F006C51FF507C520F508C521F5C7
:100B280009C522F5F1EC25F0090E096EFF0E0A6ED3
:100B3800A2EC2EF0E1C61FF5E2C620F5216A226A72
:100B4800F1EC25F088EC34F00501E851D8A4AFEFBA
:100B580005F0B1EF05F0B9EF05F00E0E096EFA0ECB
:100B68000A6EA2EC2EF088EC34F0E1C606F5E2C677
:100B780007F5086A096ADCC50AF5DDC50BF5DEC5A7
:100B88000CF5DFC50DF524EC2CF0F40E0624126EDE
:100B9800010E0720136E000E0820146E000E0920A7
:100BA800156EE80E166E030E176E000E186E000E08
:100BB800196EE2EC28F012C5C4F513C5C5F514C5C5
:100BC800C6F515C5C7F50501E851D8B4EEEF05F02F
:100BD800F0EF05F006EF06F0C451D825066EC551B2
:100BE800D921076EC651DA21086EC751DB21096E7B
:100BF800C4C50AF5C5C50BF5C6C50CF5C7C50DF5C1
:100C080006EC33F0EBEC33F0D6EF08F05AEC2AF0B0
:100C1800D6EF08F07CEC2EF0D6EF08F020EE02F0CC
:100C28008051D9268151DA22080EDE18DE10D8A4A8
:100C380020EF06F022EF06F016EF07F020EE07F09F
:100C48008051D9268151DA22DF50826F20EE06F0DA
:100C58008051D9268151DA22DF50836F8251F36F98
:100C680083C5F4F520EE09F08051D9268151DA22A6
:100C7800DF50826F20EE08F08051D9268151DA22A8
:100C8800DF50836F8251F56F83C5F6F520EE0BF0C8
:100C98008051D9268151DA22DF50826F20EE0AF086
:100CA8008051D9268151DA22DF50836F8251F76F44
:100CB80083C5F8F520EE0DF08051D9268151DA224E
:100CC800DF50826F20EE0CF08051D9268151DA2254
:100CD800DF50836F8251F96F83C5FAF5F30E066E04
:100CE800050E076EF9EC34F00501B86FD00E096EE9
:100CF800FC0E0A6EA2EC2EF0F3C51FF5F4C520F524
:100D0800216A226AF1EC25F0FC0E096EFF0E0A6ECC
:100D1800A2EC2EF0F5C51FF5F6C520F5216A226A6A
:100D2800F1EC25F0A40E096EFF0E0A6EA2EC2EF06F
:100D3800F7C51FF5F8C520F5216A226AF1EC25F000
:100D4800FC0E096EFF0E0A6EA2EC2EF0F9C51FF517
:100D5800FAC520F5216A226AF1EC25F00501B8519F
:100D6800D8B4B9EF06F0BBEF06F0C3EF06F0F70E04
:100D7800096EFD0E0A6EA2EC2EF0C9EF06F0680EA1
:100D8800096EFA0E0A6EA2EC2EF088EC34F0E00E32
:100D9800066E050E076E1EEC32F0F80E096EFC0E9C
:100DA8000A6EA2EC2EF0E0C51FF5E1C520F5216A18
:100DB800226AF1EC25F0FC0E096EFF0E0A6EA2EC19
:100DC8002EF0E2C51FF5E3C520F5216A226AF1EC91
:100DD80025F0A40E096EFF0E0A6EA2EC2EF0E4C5F3
:100DE8001FF5E5C520F5216A226AF1EC25F0FC0E15
:100DF800096EFF0E0A6EA2EC2EF0E6C51FF5E7C5D8
:100E080020F5216A226AF1EC25F0EF0E096EFF0E3B
:100E18000A6EA2EC2EF088EC34F0030E45EC33F0A9
:100E2800D6EF08F0020E36EC33F0D6EF08F020EEDD
:100E380002F08051D9268151DA22080EDE18DE1020
:100E4800D8A429EF07F02BEF07F048EF08F020EEC1
:100E580008F08051D9268151DA22DF50826F82C58D
:100E680083F5846B856B866B85C586F584C585F5AA
:100E780083C584F5836B20EE07F08051D926815114
:100E8800DA22DF50876F87C588F5896B8A6B8B6B91
:100E980089C58BF588C58AF5896B886B20EE06F0C5
:100EA8008051D9268151DA22DF508C6F8CC58DF59F
:100EB8008E6B8F6B906B8DC590F58F6B8E6B8D6B7A
:100EC80088518D11916F89518E11926F8A518F11AE
:100ED800936F8B519011946F83519111956F845139
:100EE8009211966F85519311976F86519411986F4F
:100EF80020EE09F08051D9268151DA22DF50996F0E
:100F080099519511AE6F9651AF6F9751B06F985137
:100F1800B16F20EE0CF08051D9268151DA22DF50D2
:100F2800826F82C583F5846B856B866B85C586F574
:100F380084C585F583C584F5836B20EE0BF080515D
:100F4800D9268151DA22DF50876F87C588F5896BEA
:100F58008A6B8B6B89C58BF588C58AF5896B886B1D
:100F680020EE0AF08051D9268151DA22DF508C6FA9
:100F78008CC58DF58E6B8F6B906B8DC590F58F6BD7
:100F88008E6B8D6B88518D11916F89518E11926F77
:100F98008A518F11936F8B519011946F83519111D6
:100FA800956F84519211966F85519311976F865161
:100FB8009411986F20EE0DF08051D9268151DA22D4
:100FC800DF50996F99519511B26F9651B36F975140
:100FD800B46F9851B56F350E096EFC0E0A6EA2EC0F
:100FE8002EF0AEC51FF5AFC520F5B0C521F5B1C5CA
:100FF80022F5F1EC25F05A0E096EFE0E0A6EA2ECEF
:101008002EF0B2C51FF5B3C520F5B4C521F5B5C599
:1010180022F5F1EC25F0920E096EFB0E0A6EA2EC99
:101028002EF088EC34F07B0E096EFC0E0A6EA2ECF2
:101038002EF05CEC34F006C51FF507C520F508C591
:1010480021F509C522F5F1EC25F05A0E096EFE0EC0
:101058000A6EA2EC2EF053EC34F006C51FF507C556
:1010680020F508C521F509C522F5F1EC25F0EF0EAC
:10107800096EFF0E0A6EA2EC2EF088EC34F00F0E0B
:1010880045EC33F0D6EF08F0020E36EC33F0D6EF2D
:1010980008F07AEC2DF0D6EF08F020EE02F080513F
:1010A800D9268151DA22DE04DE10D8A45EEF08F0DA
:1010B80060EF08F06EEF08F020EE06F08051D926B8
:1010C8008151DA22DF50F2EC31F0050E45EC33F0B5
:1010D800D6EF08F0020E36EC33F0D6EF08F0FF003A
:1010E800D6EF08F0010E0601BF6FD6EF08F0EDEC61
:1010F80030F00009D8B483EF08F086EF08F0010E4D
:1011080087EF08F0000E27EC33F0D6EF08F0C1ECBB
:1011180021F0D6EF08F0030E36EC33F0D6EF08F0E6
:10112800050120EE01F08051D9268151DA22DF50E5
:10113800010AD8B426EF01F0030AD8B40AEF06F082
:10114800010AD8B412EF06F0070AD8B44DEF08F038
:10115800010AD8B451EF08F0030AD8B473EF08F0C5
:10116800010AD8B476EF08F00F0AD8B47BEF08F07C
:10117800010AD8B48BEF08F0030AD8B4D6EF08F008
:10118800010AD8B42AEF01F0070AD8B418EF02F020
:10119800020AD8B40EEF06F0010AD8B41BEF07F024
:1011A8008FEF08F012002DEF09F081EC33F0000901
:1011B800D8A4E1EF08F0E3EF08F0ECEF08F006013F
:1011C800AE51D8B4EAEF08F0ECEF08F0BCEF0DF040
:1011D8000601AE6B010EB16F77EC34F006C588F7E7
:1011E80007C589F708C58AF709C58BF7020E0601F6
:1011F800B26FBCEF0DF05950D8A405EF09F007EF16
:1012080009F00FEF09F0B051D8B40DEF09F00FEF66
:1012180009F013EF09F00601B26BBCEF0DF088C7B7
:101228000AF589C70BF58AC70CF58BC70DF512ECC3
:101238002AF00D500C100BE1B80E0A5C0B0E0B587F
:10124800D8A029EF09F02BEF09F0BCEF0DF00FEF54
:1012580009F00601B251396E3A6A3A50000AD8B418
:1012680038EF09F00FEF09F03950000AD8B4D9EF78
:1012780008F0010AD8B4FAEF08F0030AD8B4FFEF6F
:1012880008F00FEF09F05950D8B44DEF09F04FEFBF
:1012980009F0DEEF0DF0596AAF51D8B456EF09F0F6
:1012A80058EF09F0BEEF09F0AD51D8A45EEF09F090
:1012B80060EF09F0BEEF09F08AC688F68BC689F69A
:1012C800856B000E846FEA0E096EFB0E0A6EC8EC81
:1012D8002EF01CC61FF51DC620F51EC621F51FC61B
:1012E80022F535EC24F0F10E096EFF0E0A6EC8ECFB
:1012F8002EF018C61FF519C620F51AC621F51BC60B
:1013080022F535EC24F0350E096EFF0E0A6EC8EC96
:101318002EF040C61FF541C620F542C621F543C64A
:1013280022F535EC24F02E0E096EFF0E0A6EC8EC7D
:101338002EF03CC61FF53DC620F53EC621F53FC63A
:1013480022F535EC24F0E50E096EFF0E0A6EC8ECA6
:101358002EF07EC61FF57FC620F5216A226A35EC7D
:1013680024F08FEC34F0FDEC34F0010E0601B06F80
:10137800DEEF0DF0AD51D8B4C4EF09F0C6EF09F0B7
:1013880026EF0AF0960E066E050E076EECEC2CF0B2
:1013980096C586F697C587F686C68AF687C68BF6FB
:1013A8008AC688F68BC689F69CC528F69DC529F697
:1013B8009EC52AF69FC52BF628C630F629C631F6F3
:1013C8002AC632F62BC633F698C52CF699C52DF6E3
:1013D8009AC52EF69BC52FF628C690F729C691F711
:1013E8002AC692F72BC693F72CC68CF72DC68DF715
:1013F8002EC68EF72FC68FF7000E0601386F000E27
:10140800396F000E3A6F000E3B6FAC6B000E406FE9
:10141800000E416F000E426F000E436F000E3C6FCE
:10142800000E3D6F000E3E6F000E3F6F816B000E89
:10143800806F7F6B000E7E6F0601856B000E846FD8
:10144800B7EF09F0AB51D8A42CEF0AF02EEF0AF051
:1014580030EF0AF0E0EC27F07AC686F67BC687F60E
:1014680006018A51865D396E8B5187593A6E000E96
:1014780039243B6E040E3A203C6EFF0E3B140501E6
:10148800646F030E3C14656F20C67FF521C680F596
:1014980022C681F523C682F524C683F525C684F5C0
:1014A80026C685F527C686F5E90E645D030E6559DF
:1014B800D8A061EF0AF063EF0AF07DEF0AF0DFECE5
:1014C80033F00009D8B46BEF0AF06DEF0AF07DEF46
:1014D8000AF071EC32F006C58AF607C58BF645ECC2
:1014E80031F006C528F607C529F608C52AF609C544
:1014F8002BF630C61CF631C61DF632C61EF633C6AC
:101508001FF67FC518F680C519F681C51AF682C57B
:101518001BF62CC680F72DC681F72EC682F72FC67C
:1015280083F783C514F684C515F685C516F686C5F2
:1015380017F6070180510601145D406F07018151BC
:1015480006011559416F0701825106011659426F6C
:101558000701835106011759436F1C51185D3C6FF1
:101568001D5119593D6F1E511A593E6F1F511B5974
:101578003F6F8AC606F58BC607F586C608F587C687
:1015880009F587EC27F006C580F607C581F6060140
:101598008A51865D396E8B5187593A6E000E39240F
:1015A8003B6E040E3A203C6EFF0E3B147E6F030E1A
:1015B8003C147F6F8AC688F68BC689F67FC590F77C
:1015C80080C591F781C592F782C593F783C58CF7DB
:1015D80084C58DF785C58EF786C58FF7A30E096E6E
:1015E800FD0E0A6EC8EC2EF0E5C61FF5E6C620F51E
:1015F800216A226A35EC24F0FC0E096EFB0E0A6E95
:10160800C8EC2EF01CC61FF51DC620F51EC621F518
:101618001FC622F535EC24F0F10E096EFF0E0A6E96
:10162800C8EC2EF018C61FF519C620F51AC621F504
:101638001BC622F535EC24F0BD0E096EFE0E0A6EAF
:10164800C8EC2EF038C61FF539C620F53AC621F584
:101658003BC622F535EC24F0F90E096EFE0E0A6E33
:10166800C8EC2EF00601AC511F6E206A216A226A6E
:1016780035EC24F0360E096EFF0E0A6EC8EC2EF01B
:1016880040C61FF541C620F542C621F543C622F5DE
:1016980035EC24F02E0E096EFF0E0A6EC8EC2EF003
:1016A8003CC61FF53DC620F53EC621F53FC622F5CE
:1016B80035EC24F0800E096EFF0E0A6EC8EC2EF091
:1016C80080C61FF581C620F5216A226A35EC24F010
:1016D800E50E096EFF0E0A6EC8EC2EF07EC61FF5E9
:1016E8007FC620F5216A226A35EC24F08FEC34F0AD
:1016F80020EF0AF07EC660F57FC661F50501626BD2
:10170800636B60C539F561C53AF5D89039363A3614
:10171800170E39248C6F000E3A208D6FAA0E876F32
:10172800550E886F810E896F8D518A6F8CC58BF528
:10173800ECEC34F0396E050E3960A5EF0BF0A7EF2D
:101748000BF0A9EF0BF0DEEF0DF0EFEC34F006C56F
:1017580082F607C583F682C606F583C607F589C5EE
:1017680008F500EC2EF006C582F607C583F682C69A
:1017780006F583C607F58AC508F500EC2EF006C500
:1017880082F607C583F682C606F583C607F58BC5BC
:1017980008F500EC2EF006C582F607C583F6870E1D
:1017A800076E050E086E050E096EC4EC31F0020EC8
:1017B8000601B06FDEEF0DF00501A06B660EA025E7
:1017C800D96EDA6A050EDA223BC6DFF4A02B660E64
:1017D800A025D96EDA6A050EDA223AC6DFF4A02B04
:1017E800660EA025D96EDA6A050EDA2239C6DFF44C
:1017F800A02B660EA025D96EDA6A050EDA2238C645
:10180800DFF4A02B660EA025D96EDA6A050EDA225F
:10181800ACC6DFF4A02B660EA025D96EDA6A050ED9
:10182800DA2206017E51396E7F513A6E3B6A3C6A74
:10183800190E24EF0CF0D8903C323B323A32393250
:10184800E82E1FEF0CF03950DF6E0501A02B660E55
:10185800A025D96EDA6A050EDA2206017E51396EA4
:101868007F513A6E3B6A3C6A110E40EF0CF0D890FB
:101878003C323B323A323932E82E3BEF0CF03950E9
:10188800DF6E0501A02B660EA025D96EDA6A050E5B
:10189800DA2206017F51DF6E0501A02B660EA02516
:1018A800D96EDA6A050EDA227EC6DFF4A02B660E40
:1018B800A025D96EDA6A050EDA2243C6DFF4A02B1A
:1018C800660EA025D96EDA6A050EDA2242C6DFF462
:1018D800A02B660EA025D96EDA6A050EDA2241C65B
:1018E800DFF4A02B660EA025D96EDA6A050EDA227F
:1018F80040C6DFF4A02B660EA025D96EDA6A050E65
:10190800DA223FC6DFF4A02B660EA025D96EDA6A6C
:10191800050EDA223EC6DFF4A02B660EA025D96E8E
:10192800DA6A050EDA223DC6DFF4A02B660EA02582
:10193800D96EDA6A050EDA223CC6DFF4A02B660EF1
:10194800A025D96EDA6A050EDA2206018151DF6E0A
:101958000501A02B660EA025D96EDA6A050EDA22DB
:1019680080C6DFF4A02B660EA025D96EDA6A050EB4
:10197800DA2237C6DFF4A02B660EA025D96EDA6A04
:10198800050EDA2236C6DFF4A02B660EA025D96E26
:10199800DA6A050EDA2235C6DFF4A02B660EA0251A
:1019A800D96EDA6A050EDA2234C6DFF4A02BECEC25
:1019B80034F0396E170E3960E4EF0CF0E6EF0CF0F6
:1019C800E8EF0CF0DEEF0DF00501946B160E946550
:1019D800F0EF0CF0F2EF0CF0F4EF0CF00AEF0DF072
:1019E80082C606F583C607F5660E9425D96EDA6AAF
:1019F800050EDA22DF50086E00EC2EF006C582F6DE
:101A080007C583F60501942BEAEF0CF0660E076E06
:101A1800050E086E170E096EC4EC31F006017E51F2
:101A28007F11D8B41AEF0DF01CEF0DF020EF0DF078
:101A3800030EB06FDEEF0DF0040EB06FDEEF0DF0A9
:101A48008651881907E187518919D8A42EEF0DF01E
:101A580030EF0DF032EF0DF020EF0DF088C60FF5E6
:101A680089C610F5900E116E050E126EAEEC30F0B0
:101A780084C606F585C607F592C508F593C509F528
:101A88008E0E0A6E050E0B6E90EC33F0ECEC34F013
:101A9800396E020E396053EF0DF055EF0DF057EF28
:101AA8000DF0DEEF0DF00501956B010E95655FEF0A
:101AB8000DF061EF0DF063EF0DF079EF0DF082C6D8
:101AC80006F583C607F58E0E9525D96EDA6A050EDA
:101AD800DA22DF50086E00EC2EF006C582F607C544
:101AE80083F60501952B59EF0DF08E0E076E050E46
:101AF800086E020E096EC4EC31F0010E060188254D
:101B0800396E000E89213A6EFF0E3914886F030E64
:101B18003A14896F844B852BDEEF0DF08351050154
:101B28007D6F82C67EF5ECEC34F0396E020E3960BA
:101B3800A0EF0DF0A2EF0DF0A4EF0DF0DEEF0DF029
:101B48007D0E076E050E086E020E096EC4EC31F0AC
:101B580006017E517F11D8A4B4EF0DF0B7EF0DF058
:101B6800010EB8EF0DF0000EAF6FB06BDEEF0DF0A9
:101B78000601B051396E3A6A3A50000AD8B4C7EF34
:101B88000DF0B9EF0DF03950000AD8B447EF09F05D
:101B9800010AD8B47EEF0BF0030AD8B4E0EF0BF0DB
:101BA800010AD8B424EF0DF0070AD8B492EF0DF06B
:101BB800B9EF0DF01200F0C4C4F7F0A8E6EF0DF08D
:101BC800E9EF0DF0010EEAEF0DF0000E0701D66FF8
:101BD800F068D651D8B4F3EF0DF0F6EF0DF0010E22
:101BE800F7EF0DF0000E0601E76F63EC33F0070125
:101BF800D16BC0760400110E0601E96F3C0EE86F48
:101C0800CB0EE82EFED7E82FFCD7E92FFAD707012D
:101C1800D12B090ED16513EF0EF015EF0EF0FDEF85
:101C28000DF0C0960BEC31F0D1EC32F06F0E096E6E
:101C3800FB0E0A6EA2EC2EF088EC34F0A60E066EAF
:101C4800690E076EC0EC34F0ABEC34F054EC33F0B2
:101C5800E3EC34F04CEC30F060EC26F032EC21F0A0
:101C68002BEC30F0ADEC31F0A00E066E070E076ECF
:101C7800A7EC2DF06FEC2BF00701D651D8B447EF45
:101C88000EF04AEF0EF0010E4BEF0EF0000E17ECBF
:101C980033F00701D651D8A454EF0EF056EF0EF0EA
:101CA80058EF0EF048EC32F0D68CD68E2B0E096E1B
:101CB800FE0E0A6EA2EC2EF088EC34F0C088F7EC29
:101CC80034F077EC34F006C5D2F707C5D3F708C56A
:101CD800D4F709C5D5F7030E096EFC0E0A6EA2ECFF
:101CE8002EF0400E1F6E1F0E206E000E216E000E8D
:101CF800226EF1EC25F0ED0E096EFF0E0A6EA2ECD5
:101D08002EF088EC34F0B40E096EFB0E0A6EA2ECCD
:101D18002EF00701C4516DEC30F088EC34F0E80E79
:101D28000701C06F030EC16F000EC26F000EC36FB4
:101D3800E0EF0EF00400D2C70AF5D3C70BF5D4C7FD
:101D48000CF5D5C70DF512EC2AF00701C0510A5C55
:101D5800C1510B58C2510C58C3510D58D8A0B7EFF8
:101D68000EF0B9EF0EF0DEEF0EF0BF0E096EFD0EAD
:101D78000A6EA2EC2EF0D2C70AF5D3C70BF5D4C76A
:101D88000CF5D5C70DF512EC2AF00AC51FF50BC5E1
:101D980020F50CC521F50DC522F5F1EC25F088ECF0
:101DA80034F0E80E0701C027030EC123000EC2233A
:101DB800000EC3232CEC2EF0D2C70AF5D3C70BF5BF
:101DC800D4C70CF5D5C70DF512EC2AF00D500C1040
:101DD8000BE1400E0A5C1F0E0B58D8A0F6EF0EF070
:101DE800F8EF0EF09EEF0EF01CEC2DF0000178815C
:101DF80004002CEC2EF00601BB51D8A406EF0FF01E
:101E080008EF0FF0C1EF0FF0EDEC30F00009D8B497
:101E180010EF0FF012EF0FF0C1EF0FF077EC34F086
:101E28000601CF51065CD0510758D1510858D251FC
:101E38000958D8A022EF0FF024EF0FF0C1EF0FF0F0
:101E4800010E206EF40E1F6E84EC1EF01FC5C5F740
:101E580020C5C6F721C5C7F722C5C8F70701C55170
:101E6800C611C711C811D8B43CEF0FF03EEF0FF000
:101E78004EEF0FF0C551060164270701C651060150
:101E880065230701C751060166230701C8510601EA
:101E98006723BA2B77EC34F0E80E06240601CF6FDF
:101EA800030E0720D06F000E0820D16F000E092006
:101EB800D26F020EBA6563EF0FF065EF0FF0C1EF56
:101EC8000FF0BA51D8A46BEF0FF06DEF0FF078EF69
:101ED8000FF0000E0701C96F000ECA6F000ECB6F1E
:101EE800000ECC6F8FEF0FF064C612F565C613F5C0
:101EF80066C614F567C615F5BA51166E176A186ADC
:101F0800196AE2EC28F012C5C9F713C5CAF714C557
:101F1800CBF715C5CCF7C9C71FF5CAC720F5CBC77E
:101F280021F5CCC722F5BDEC23F0300E096EFD0E6D
:101F38000A6EA2EC2EF0C9C71FF5CAC720F5CBC799
:101F480021F5CCC722F5F1EC25F0B00E096EFF0E95
:101F58000A6EA2EC2EF0BBEC34F006C52FF507C5CF
:101F680030F5000E30BEFF0E316E326E59EC2CF09B
:101F780088EC34F0010E0601BB6FFCEC34F06EEC1B
:101F880034F006C51AF507C51BF508C51CF509C5C3
:101F98001DF50601C151D8A4D4EF0FF0D7EF0FF00B
:101FA800010ED8EF0FF0000E48EC1FF0EEEC2BF00E
:101FB8004AEC22F0A6EC19F0EDEC30F0CFEC34F05E
:101FC800D7EC08F0E6EC2AF09CEF11F0E751D8B412
:101FD800F0EF0FF0F2EF0FF004EF10F0EDEC30F04F
:101FE8000009D8A4FAEF0FF0FCEF0FF004EF10F09F
:101FF800F2EC34F034EC29F00601E76BFCEF0EF05C
:102008000601C051D8B40BEF10F00DEF10F01CEF23
:1020180010F077EC34F006C56CF607C56DF608C508
:102028006EF609C56FF6020E0601C16FFCEF0EF0E1
:10203800EDEC30F00009D8A424EF10F026EF10F0F2
:10204800FCEF0EF070C60AF571C60BF572C60CF5FA
:1020580073C60DF512EC2AF00D500DE1900E0A5CD6
:102068005F0E0B58010E0C58D8A03DEF10F03FEF53
:1020780010F0FCEF0EF0BC0E096EFC0E0A6EA2EC1E
:102088002EF0900E1F6E5F0E206E010E216E000E58
:10209800226EF1EC25F00B0E096EFD0E0A6EA2EC15
:1020A8002EF088EC34F034EC29F0FCEF0EF033EC31
:1020B80032F00009D8B463EF10F065EF10F06FEF5D
:1020C80010F0C7EC33F00009D8B46DEF10F06FEFE3
:1020D80010F079EF10F077EC34F006C56CF607C510
:1020E8006DF608C56EF609C56FF6EDEC30F000091F
:1020F800D8B481EF10F083EF10F087EF10F00601ED
:10210800BF6BFCEF0EF00601E751D8B48EEF10F06C
:1021180090EF10F0BEEF10F033EC32F00009D8B4B5
:1021280098EF10F09AEF10F0FCEF0EF0C7EC33F0D8
:102138000009D8A4A2EF10F0A4EF10F0FCEF0EF005
:102148001C0E096EFC0E0A6EA2EC2EF0DAEC34F0CE
:102158000009D8B4B2EF10F0B4EF10F0BAEF10F0F5
:10216800640E096EFC0E0A6EA2EC2EF088EC34F0B8
:10217800FCEF0FF0BF51D8A4C4EF10F0C6EF10F079
:10218800DEEF10F06CC60AF56DC60BF56EC60CF5E1
:102198006FC60DF512EC2AF00D500C100BE1200E55
:1021A8000A5C4E0E0B58D8A0DCEF10F0DEEF10F0F2
:1021B800FCEF0EF033EC32F00009D8B4E6EF10F083
:1021C800E8EF10F0FCEF0EF0C7EC33F00009D8A4EC
:1021D800F0EF10F0F2EF10F0FCEF0EF057EF10F008
:1021E80072EC33F00009D8B4FCEF10F0FEEF10F0F9
:1021F8003BEF11F0A70E096EFC0E0A6EA2EC2EF052
:1022080077EC34F006C51FF507C520F508C521F59C
:1022180009C522F5F1EC25F00A0E096EFF0E0A6ECB
:10222800A2EC2EF0E1C61FF5E2C620F5216A226A6B
:10223800F1EC25F06F0E096EFE0E0A6EA2EC2EF080
:102248000601BD51D8A42BEF11F02EEF11F0010EAD
:102258002FEF11F0000E1F6E206A216A226AF1EC3E
:1022680025F088EC34F01CEC2DF0FCEF0EF0EDECD2
:1022780030F00009D8A443EF11F045EF11F0FCEF5E
:102288000EF0E6EC34F00009D8A44DEF11F04FEF52
:1022980011F0FCEF0EF033EC32F00009D8B457EF30
:1022A80011F059EF11F0FCEF0EF008EC32F00009D4
:1022B800D8B461EF11F063EF11F0FCEF0EF0BFEC52
:1022C80032F00009D8A46BEF11F06DEF11F0FCEFBC
:1022D8000EF0010E126E000E136E000E146E000E3C
:1022E800156E55EC2EF012C5CDF713C5CEF714C5F3
:1022F800CFF715C5D0F70701D051CF1108E1CE05AA
:10230800D8A089EF11F08BEF11F093EF11F0FF0EC9
:10231800CD6F000ECE6F000ECF6F000ED06FCD5177
:102328009FEC33F0AFEC2BF0FBEC34F0FCEF0EF04D
:102338000601C151E86FE96BE951000AD8B4A7EF6B
:1023480011F0F4EF10F0E851000AD8B4F4EF10F0EF
:10235800010AD8B4EAEF0FF0030AD8B45BEF10F023
:10236800F4EF10F00DEF00F00501686F05016851FA
:10237800D8A4C1EF11F0C3EF11F0C5EF11F010EFC1
:1023880014F01F50235C2050245821502558225007
:102398002658D8A0D2EF11F0D4EF11F0DEEF11F0EB
:1023A8001FC579F520C57AF521C57BF522C57CF5D1
:1023B800EAEF11F023501F5C796F245020587A6F90
:1023C800255021587B6F265022587C6F27502810A3
:1023D80029102A10D8B4F3EF11F0F5EF11F054EFEB
:1023E80012F0060104510501795D606F060105517F
:1023F80005017A59616F0601065105017B59626F23
:102408000601075105017C59636F60C506F561C572
:1024180007F562C508F563C509F527C50AF528C596
:102428000BF529C50CF52AC50DF52BEC2BF006C5C7
:102438006DF507C56EF508C56FF509C570F527C5B3
:102448002CF528C52DF529C52EF52AC52FF5D890C8
:102458002F322E322D322C3205016D512C5C6E51EB
:102468002D586F512E582F50800A306E7051800AA7
:102478003058D8B042EF12F044EF12F04CEF12F09F
:1024880027506D5F28506E5B29506F5B2A50705B38
:102498006DC508F66EC509F66FC50AF670C50BF668
:1024A8000601A051D8A45BEF12F05DEF12F06BEFBC
:1024B80012F079C50CF67AC50DF67BC50EF67CC50B
:1024C8000FF6010EA06F010EA16F10EF14F02B5044
:1024D800D8A471EF12F073EF12F07EEF12F02750CC
:1024E800281029102A10D8A47CEF12F07EEF12F0E1
:1024F80088EF12F079C50CF67AC50DF67BC50EF695
:102508007CC50FF610EF14F00501795106010C5D3A
:1025180005017A5106010D5905017B5106010E5935
:1025280005017C5106010F59D8A09DEF12F09FEFCD
:1025380012F0A1EF12F07EEF12F00C510501795D57
:10254800696F06010D5105017A596A6F06010E512E
:1025580005017B596B6F06010F5105017C596C6FA2
:10256800060100510C5D01510D5902510E590351DC
:102578000F59D8A0C2EF12F0C4EF12F0CEEF12F04C
:1025880027C571F528C572F529C573F52AC574F5EF
:10259800E1EF12F00C51005D0501716F06010D515C
:1025A80001590501726F06010E5102590501736F39
:1025B80006010F5103590501746F0501715172111C
:1025C80073117411D8A4EBEF12F0EDEF12F0F5EFE0
:1025D80012F027C571F528C572F529C573F52AC506
:1025E80074F527C52CF528C52DF529C52EF52AC55E
:1025F8002FF5D8902F322E322D322C3227502C2402
:10260800306E28502D20316E29502E20326E2A50DF
:102618002F20336ED8903034346E3134356E3234E6
:10262800366E3334376E6951345C6A5135586B51A4
:1026380036586C513758D8B024EF13F026EF13F002
:1026480028EF13F07EEF12F069512C6E6A512D6E4F
:102658006B512E6E6C512F6E306A316A326A336A52
:10266800070ED8902C362D362E362F36303631368A
:1026780032363336E82E35EF13F02CC506F52DC566
:1026880007F52EC508F52FC509F530C50AF531C57A
:102698000BF532C50CF533C50DF571510E6E72513F
:1026A8000F6E7351106E7451116E126A136A146AA8
:1026B800156A45EC23F006C534F507C535F508C598
:1026C80036F509C537F50AC538F50BC539F50CC512
:1026D8003AF50DC53BF534C575F535C576F536C5FE
:1026E80077F537C578F5050178BF86EF13F078518F
:1026F8007711761109E16F0E755DD8A086EF13F09A
:1027080088EF13F098EF13F078BF96EF13F0785135
:102718007711761109E1940E755DD8A096EF13F044
:1027280098EF13F0BDEF13F006019C6B9D51D8A4F0
:10273800A0EF13F0A2EF13F07EEF12F09E51D8A491
:10274800A8EF13F0AAEF13F0AFEF13F0D86B800ED9
:10275800D76F7EEF12F0D5C606F5D6C607F5086A1C
:10276800096A4BEC2DF006C5D7F607C5D8F67EEFFB
:1027780012F0070E2C6ED7C606F5D8C607F5000E60
:1027880007BEFF0E086E096E75C50AF576C50BF50E
:1027980077C50CF578C50DF524EC2CF02C66D7EF31
:1027A80013F0DFEF13F0093409320832073206322A
:1027B8002C2ED2EF13F006C564F507C565F508C5DC
:1027C80066F509C567F564C506F565C507F566C507
:1027D80008F567C509F54BEC2DF006C5D7F607C512
:1027E800D8F6010E06019D6F010E9C6FD7C6D3F671
:1027F800D8C6D4F679C50CF67AC50DF67BC50EF6A3
:102808007CC50FF6020EA1610CEF14F00EEF14F068
:1028180010EF14F0020EA16F120077EC34F020EEE6
:102828001AF00C50D9260D50DA2206C5DEF407C579
:10283800DEF408C5DEF409C5DEF4D6EF15F0AA0EFD
:102848000E18D8A42AEF14F02CEF14F007EF16F0A6
:1028580020EE1EF00C50D9260D50DA22DF6A20EE49
:102868001FF00C50D9260D50DA22DF6A0CC5D9F4B6
:102878000DC5DAF4010EDF6E07EF16F0550E0E18CF
:10288800D8A449EF14F04BEF14F053EF14F00CC533
:10289800D9F40DC5DAF4020EDF6E07EF16F0AA0EB2
:1028A8000E18D8A45AEF14F05CEF14F064EF14F08B
:1028B8000CC5D9F40DC5DAF4010EDF6E07EF16F07A
:1028C8000CC5D9F40DC5DAF4DF6A07EF16F020EE6F
:1028D80001F00C50D9260D50DA220EC5DFF4EFECCA
:1028E80034F020EE16F00C50D9260D50DA2206C529
:1028F800DEF407C5DDF420EE16F00C50D9260D5095
:10290800DA22DEC406F5DDC407F50EC508F500ECCD
:102918002EF020EE16F00C50D9260D50DA2206C5FE
:10292800DEF407C5DDF40CC5D9F40DC5DAF4030EE1
:10293800DF6E07EF16F00E50106E0F6A20EE02F0F1
:102948000C50D9260D50DA220FC5DEF410C5DDF47F
:1029580020EE16F00C50D9260D50DA22DEC406F50A
:10296800DDC407F50EC508F500EC2EF020EE16F0D4
:102978000C50D9260D50DA2206C5DEF407C5DDF461
:102988000CC5D9F40DC5DAF4040EDF6E07EF16F0A6
:1029980020EE02F00C50D9260D50DA220E50DE122D
:1029A800000EDD1220EE16F00C50D9260D50DA225A
:1029B800DEC406F5DDC407F50EC508F500EC2EF0FB
:1029C80020EE16F00C50D9260D50DA2206C5DEF49A
:1029D80007C5DDF420EE04F00C50D9260D50DA229C
:1029E800DE6ADD6A20EE02F00C50D9260D50DA229C
:1029F800010EDB5009E1110EDE5CD8A006EF15F0E0
:102A080008EF15F018EF15F020EE1EF00C50D9263F
:102A18000D50DA22010EDF6E0CC506F50DC507F55F
:102A2800A7EC2DF007EF16F020EE02F00C50D92697
:102A38000D50DA22DE50DE10D8B425EF15F027EF5E
:102A480015F02BEF15F0050E136E2DEF15F0060E91
:102A5800136E0CC5D9F40DC5DAF413C5DFF407EF0E
:102A680016F020EE04F00C50D9260D50DA22DEC400
:102A78000FF5DDC410F50F500C24116E10500D2009
:102A8800126E060E1124D96E000E1220DA6E0EC5D3
:102A9800DFF420EE04F00C50D9260D50DA22DE2A9D
:102AA800000EDD2220EE16F00C50D9260D50DA2249
:102AB800DEC406F5DDC407F50EC508F500EC2EF0FA
:102AC80020EE16F00C50D9260D50DA2206C5DEF499
:102AD80007C5DDF420EE02F00C50D9260D50DA229D
:102AE80010EE04F00C50E1260D50E222DE50E65CB8
:102AF800DE50E658D8A083EF15F085EF15F007EF04
:102B080016F00CC5D9F40DC5DAF4060EDF6E07EF22
:102B180016F00E50106E0F6A20EE18F00C50D926E1
:102B28000D50DA220FC5DEF410C5DDF40CC5D9F45A
:102B38000DC5DAF4070EDF6E07EF16F020EE18F079
:102B48000C50D9260D50DA220E50DE12000EDD127E
:102B58000CC5D9F40DC5DAF4DF6A20EE16F00C5076
:102B6800D9260D50DA2210EE18F00C50E1260D503F
:102B7800E222DE50E61807E1DE50E618D8A4C7EFD7
:102B880015F0C9EF15F0CCEF15F0010E08EF16F0AF
:102B980020EE1FF00C50D9260D50DA22010EDF6E00
:102BA80007EF16F00CC5D9F40DC5DAF4DF500F6E37
:102BB800106A1050000AD8B4E4EF15F010EF15F0C1
:102BC8000F50000AD8B423EF14F0010AD8B442EF2A
:102BD80014F0030AD8B46BEF14F0010AD8B49FEFCD
:102BE80014F0070AD8B4CCEF14F0010AD8B435EFC2
:102BF80015F0030AD8B48DEF15F0010AD8B4A2EF86
:102C080015F010EF15F0000E1200110E0501746F8B
:102C1800020E756F000E766F000E776F7451751186
:102C280076117711D8A41BEF16F01DEF16F025EFDB
:102C380016F0010E746F000E756F000E766F000EA1
:102C4800776FC5C606F5C6C607F5086A096AE80EAD
:102C58000A6E030E0B6E000E0C6E000E0D6E24EC49
:102C68002CF006C56CF507C56DF508C56EF509C5E8
:102C78006FF5C9C606F5CAC607F5086A096AE80EF7
:102C88000A6E030E0B6E000E0C6E000E0D6E24EC19
:102C98002CF006C570F507C571F508C572F509C5AC
:102CA80073F505016C51705D6D5171596E51725912
:102CB8006F517359D8A063EF16F065EF16F06FEFF8
:102CC80016F070C560F571C561F572C562F573C51A
:102CD80063F577EF16F06CC560F56DC561F56EC5E7
:102CE80062F56FC563F574C52FF575C530F576C502
:102CF80031F577C532F5050ED8902F363036313696
:102D08003236E82E80EF16F02FC564F530C565F52C
:102D180031C566F532C567F5645160252F6E65517A
:102D28006121306E66516221316E67516321326EC6
:102D3800FF0E2F24126EFF0E3020136EFF0E31206F
:102D4800146EFF0E3220156E64C516F565C517F5AD
:102D580066C518F567C519F5E2EC28F012C568F5DF
:102D680013C569F514C56AF515C56BF505016851F4
:102D780069116A116B11D8A4C4EF16F0C6EF16F0EA
:102D8800CEEF16F0010E686F000E696F000E6A6FC5
:102D9800000E6B6F68C5DDF669C5DEF6DDC606F5A3
:102DA800DEC607F5086A096A74C50AF575C50BF524
:102DB80076C50CF577C50DF524EC2CF006C580F525
:102DC80007C581F508C582F509C583F50501805158
:102DD8006C252F6E81516D21306E82516E21316EBE
:102DE80083516F21326EFF0E2F24126EFF0E30209A
:102DF800136EFF0E3120146EFF0E3220156E80C543
:102E080016F581C517F582C518F583C519F5E2ECE5
:102E180028F012C578F513C579F514C57AF515C5E6
:102E28007BF50501805170252F6E81517121306E1F
:102E380082517221316E83517321326EFF0E2F241D
:102E4800126EFF0E3020136EFF0E3120146EFF0E2F
:102E58003220156E80C516F581C517F582C518F59F
:102E680083C519F5E2EC28F012C57CF513C57DF58C
:102E780014C57EF515C57FF505017B517A117911C9
:102E880009E1210E785DD8A04CEF17F04EEF17F04E
:102E980056EF17F0200E786F000E796F000E7A6FDC
:102EA800000E7B6F7F517E117D1109E1210E7C5D43
:102EB800D8A061EF17F063EF17F06BEF17F0200E53
:102EC8007C6F000E7D6F000E7E6F000E7F6F785155
:102ED80079117A117B11D8A474EF17F076EF17F0F7
:102EE8007EEF17F0010E786F000E796F000E7A6F83
:102EF800000E7B6F7C517D117E117F11D8A487EF66
:102F080017F089EF17F091EF17F0010E7C6F000EA4
:102F18007D6F000E7E6F000E7F6F78C5DBF679C57A
:102F2800DCF67CC5D9F67DC5DAF61E0E096EFD0EF7
:102F38000A6E3AEC2FF0DDC61FF5DEC620F5216AD1
:102F4800226A82EC25F0AB0E096EFE0E0A6E3AEC90
:102F58002FF0DDC606F5DEC607F5086A096A110E08
:102F68000A6E020E0B6E000E0C6E000E0D6E24EC37
:102F78002CF006C51FF507C520F508C521F509C5BC
:102F880022F582EC25F0E10E096EFE0E0A6E3AEC8F
:102F98002FF0DBC61FF5DCC620F5216A226A82EC19
:102FA80025F0C20E096EFF0E0A6E3AEC2FF0D9C654
:102FB8001FF5DAC620F5216A226A82EC25F07A0E1E
:102FC800096EFF0E0A6E3AEC2FF0200E1F6E000EEF
:102FD800206E000E216E000E226E82EC25F0A4EC0D
:102FE80034F012000601A051D8B4FDEF17F0FFEF3E
:102FF80017F013EF18F02150221023102410D8B422
:1030080008EF18F00AEF18F013EF18F01F5020100F
:10301800D8A411EF18F013EF18F019EF18F01FC526
:103028001FF520C520F5A5EF19F0CBC641F5CCC694
:1030380042F5CDC643F5CEC644F541504210431083
:103048004410D8A42AEF18F02CEF18F05AEF18F013
:103058001FC506F520C507F5086A096A21C50AF5DE
:1030680022C50BF523C50CF524C50DF524EC2CF071
:10307800F40E0624126E010E0720136E000E0820AF
:10308800146E000E0920156EE80E166E030E176EEC
:10309800000E186E000E196EE2EC28F012C541F50C
:1030A80013C542F514C543F515C544F544500DE163
:1030B800800E415C510E4258010E4358D8A067EF6C
:1030C80018F069EF18F0DFEF18F00CC606F50DC61A
:1030D80007F50EC608F50FC609F5800E0A6E510EE3
:1030E8000B6E010E0C6E000E0D6E2BEC2BF006C550
:1030F80029F507C52AF508C52BF509C52CF504C619
:1031080006F505C607F506C608F507C609F5800ED3
:103118000A6E510E0B6E010E0C6E000E0D6E2BEC2E
:103128002BF006C52DF507C52EF508C52FF509C5E1
:1031380030F529502D5C256E2A502E58266E2B50BE
:103148002F58276E2C503058286E800E2524066E76
:10315800510E2620076E010E2720086E000E28202B
:10316800096E800E0A6E510E0B6E010E0C6E000E6B
:103178000D6E2BEC2BF006C53DF507C53EF508C5D1
:103188003FF509C540F540503F1009E1100E3D5C80
:103198000E0E3E58D8B0D3EF18F0D5EF18F036EF32
:1031A80019F0800E3D26510E3E22010E3F22000EE0
:1031B800402236EF19F0060104510C5D316E0551BD
:1031C8000D59326E06510E59336E07510F59346E30
:1031D80031C506F532C507F533C508F534C509F517
:1031E80041C50AF542C50BF543C50CF544C50DF5B7
:1031F8002BEC2BF006C535F507C536F508C537F5B0
:1032080009C538F53550415C3D6E365042583E6E22
:10321800375043583F6E38504458406E445043101E
:103228000BE1110E415C0E0E4258D8A01EEF19F0AA
:1032380020EF19F036EF19F040503F1009E1100E59
:103248003D5C0E0E3E58D8B02CEF19F02EEF19F059
:1032580036EF19F041503D2642503E2243503F225E
:103268004450402221C525F522C526F523C527F55A
:1032780024C528F5D89028322732263225323DC574
:1032880006F53EC507F53FC508F540C509F5E80E42
:103298000A6E030E0B6E000E0C6E000E0D6E24EC03
:1032A8002CF025500624126E26500720136E275046
:1032B8000820146E28500920156E21C516F522C560
:1032C80017F523C518F524C519F5E2EC28F012C541
:1032D80039F513C53AF514C53BF515C53CF5395014
:1032E8003A103B103C10D8A47CEF19F07EEF19F08F
:1032F80086EF19F0010E396E000E3A6E000E3B6E25
:10330800000E3C6E1F50256E2050266E276A286AD4
:103318003950255C3A5026583B5027583C5028587D
:10332800D8B099EF19F09BEF19F0A1EF19F01FC56C
:1033380039F520C53AF53B6A3C6A39C51FF53AC5E7
:1033480020F5120098C70AF599C70BF59AC70CF52E
:103358009BC70DF512EC2AF00D500C1009E1110E67
:103368000A5C020E0B58D8B0BCEF19F0BEEF19F08A
:10337800C0EF19F025EF1BF077EC34F006C598F78D
:1033880007C599F708C59AF709C59BF70CEC34F0FF
:103398003CC562F53DC563F53EC564F53FC565F5B9
:1033A80006014C510501625D666F06014D5105012C
:1033B8006359676F06014E5105016459686F06012C
:1033C8004F5105016559696F62C54CF663C54DF6E5
:1033D80064C54EF665C54FF6665107019C27050181
:1033E800675107019D230501685107019E230501C7
:1033F800695107019F2366C53FF567C540F568C554
:1034080041F569C542F52BEC27F00601904B912B4D
:10341800915107E10A0E905DD8B015EF1AF017EF39
:103428001AF019EF1AF025EF1BF0916B000E906F50
:103438004CC66AF54DC66BF54EC66CF54FC66DF5B4
:103448009CC76EF59DC76FF59EC770F59FC771F550
:103458006AC550F66BC551F66CC552F66DC553F684
:10346800000E07019C6F000E9D6F000E9E6F000EF0
:103478009F6FC60E096EFE0E0A6EEEEC2EF0010E60
:10348800060148251F6E000E4921206E000E4A21B4
:10349800216E000E4B21226EA4EC24F0490E096E19
:1034A800FE0E0A6EEEEC2EF06EC51FF56FC520F508
:1034B80070C521F571C522F5A4EC24F0860E096EBD
:1034C800FF0E0A6EEEEC2EF06AC51FF56BC520F5EF
:1034D8006CC521F56DC522F5A4EC24F0A30E096E88
:1034E800FC0E0A6EEEEC2EF077EC34F006C51FF5F4
:1034F80007C520F508C521F509C522F5A4EC24F077
:1035080096EC34F0FF0E060194150501726F030E58
:10351800060195150501736F715108E17005D8A072
:1035280098EF1AF09AEF1AF0A6EF1AF0606961693D
:1035380072C506F573C507F5010E086EA0EC2AF0F2
:10354800B2EF1AF06EC560F56FC561F572C506F584
:1035580073C507F5000E086EA0EC2AF0010E0601EF
:103568004827000E49234A234B2392C606F593C6E3
:1035780007F560C508F561C509F572C547F573C556
:1035880048F5D89047364836000E47240A6E0A0E8A
:1035980048200B6E90EC33F0010E06019425476E1F
:1035A800000E9521486EFF0E4714946F030E4814C1
:1035B800956FE1EF1AF0C9EC26F07CEC31F0E80EDB
:1035C800085C030E0958D8B0ECEF1AF0EEEF1AF0C9
:1035D800DFEF1AF00601924B932BDF51925DE05119
:1035E8009359D8A0FAEF1AF0FCEF1AF025EF1BF068
:1035F800936B000E926F010EB46FE06B220EDF6FBB
:1036080044C694F745C695F746C696F747C697F752
:103618008EC68CF68FC68DF66AC544F66BC545F620
:103628006CC546F66DC547F694C68EF695C68FF6F8
:10363800020EB36122EF1BF024EF1BF025EF1BF005
:10364800B32B12000601A751D8A42DEF1BF02FEFC2
:103658001BF0D4EF1BF03C6A000E3B6EDBC606F590
:10366800DCC607F53B0E086E050E096EFAEC1FF076
:1036780006C533F507C534F508C535F509C536F56A
:103688000601DB513B5CDC513C58D8A04EEF1BF0E7
:1036980050EF1BF0D4EF1BF0C3512F6EC451306EA6
:1036A800316A326A2F50335C3050345831503558B3
:1036B80032503658D8A063EF1BF065EF1BF0D4EFFB
:1036C8001BF0010EA76F77EC34F006C56CF707C541
:1036D8006DF708C56EF709C56FF7010E0701682772
:1036E800000E69236A236B234B0E096EFB0E0A6ECC
:1036F8003AEC2FF033C51FF534C520F535C521F553
:1037080036C522F582EC25F0B40E096EFE0E0A6E5F
:103718003AEC2FF0C3C61FF5C4C620F5216A226A09
:1037280082EC25F0F10E096EFE0E0A6E3AEC2FF0CF
:103738003BC51FF53CC520F5216A226A82EC25F0BD
:10374800FC0E096EFF0E0A6E3AEC2FF0DBC61FF571
:10375800DCC620F5216A226A82EC25F0740E096E17
:10376800FF0E0A6E3AEC2FF0C5C61FF5C6C620F547
:10377800216A226A82EC25F0C70E096EFF0E0A6ED6
:103788003AEC2FF077EC34F006C51FF507C520F5A5
:1037980008C521F509C522F582EC25F0A4EC34F022
:1037A8000501FE51D8A4DBEF1BF0DDEF1BF072EF33
:1037B8001CF03E6A000E3D6ED9C606F5DAC607F55E
:1037C8003D0E086E050E096EFAEC1FF006C537F5BA
:1037D80007C538F508C539F509C53AF50601D951BF
:1037E8003D5CDA513E58D8A0FCEF1BF0FEEF1BF011
:1037F80072EF1CF0C7512F6EC851306E316A326AB1
:103808002F50375C305038583150395832503A5868
:10381800D8A011EF1CF013EF1CF072EF1CF0010E92
:103828000501FE6F250E096EFB0E0A6E3AEC2FF0AD
:1038380037C51FF538C520F539C521F53AC522F534
:1038480082EC25F0B40E096EFE0E0A6E3AEC2FF0EB
:10385800C7C61FF5C8C620F5216A226A82EC25F082
:10386800F10E096EFE0E0A6E3AEC2FF03DC51FF5FB
:103878003EC520F5216A226A82EC25F0FC0E096E0D
:10388800FF0E0A6E3AEC2FF0D9C61FF5DAC620F5FE
:10389800216A226A82EC25F0740E096EFF0E0A6E08
:1038A8003AEC2FF0C9C61FF5CAC620F5216A226A6C
:1038B80082EC25F0C70E096EFF0E0A6E3AEC2FF067
:1038C80077EC34F006C51FF507C520F508C521F5C6
:1038D80009C522F582EC25F0A4EC34F08FEC28F031
:1038E800120077EC34F006C537F507C538F508C57A
:1038F80039F509C53AF53B6A83EF1CF03B2A050EFA
:103908003B6089EF1CF08BEF1CF0A9EF1CF03B50DB
:10391800080D890EF324F66EF90EF420F76EF86A96
:10392800000EF8220900F550375C0900F5503858A8
:103938000900F55039580900F5503A58D8B0A7EFA2
:103948001CF0A9EF1CF082EF1CF00601E3513B18B4
:10395800D8B4B1EF1CF0B3EF1CF053EF1DF0E3291E
:10396800D8B4B9EF1CF0BBEF1CF0E7EF1CF05851CE
:10397800375C1F6E59513858206E5A513958216E8C
:103988005B513A58226EE351080D040EF326000EDF
:10399800F422890EF324F66EF90EF420F76EF86A15
:1039A800000EF8220900F5C423F50A00F5C424F531
:1039B800CAEC22F01F5006015427205055232150ED
:1039C80056232250572337C558F638C559F639C5F6
:1039D8005AF63AC55BF63BC5E3F6B10E096EFD0E25
:1039E8000A6E14EC2FF03B50080D060EF326000E5D
:1039F800F422890EF324F66EF90EF420F76EF86AB5
:103A0800000EF8220900F5C409F50A00F5C40AF504
:103A180014EC2FF0980E096EFF0E0A6E14EC2FF0BE
:103A28003B50080D040EF326000EF422890EF324F1
:103A3800F66EF90EF420F76EF86A000EF822090007
:103A4800F5C435F50900F5C436F535C51FF536C595
:103A580020F5216A226A13EC25F0A30E096EFC0EEC
:103A68000A6E14EC2FF037C51FF538C520F539C597
:103A780021F53AC522F513EC25F0430E096EFF0E29
:103A88000A6E14EC2FF054C61FF555C620F556C61D
:103A980021F557C622F513EC25F09DEC34F006010C
:103AA8005851375C1F6E59513858206E5A51395841
:103AB800216E5B513A58226E3B50080D040EF326D6
:103AC800000EF422890EF324F66EF90EF420F76E38
:103AD800F86A000EF8220900F5C423F50A00F5C4B7
:103AE80024F5CAEC22F0060154511F24316E5551B9
:103AF8002020326E56512120336E57512220346EC9
:103B08001200526E546A000E536E325009E1110EC3
:103B1800315CD8A092EF1DF094EF1DF096EF1DF0E8
:103B280083EF1EF0AA0E356E534A542A350E5324DD
:103B3800D96E050E5420DA6E550EDF6E534A542A9C
:103B4800350E5324D96E050E5420DA6E52C5DFF4B3
:103B5800534A542A350E5324D96E050E5420DA6E72
:103B68003250DF6E534A542A350E5324D96E050E4F
:103B78005420DA6E31C5DFF4534A542A4F6A000ED6
:103B88004E6ED9EF1DF04E502F24D96E4F50302075
:103B9800DA6E350E5324E16E050E5420E26EDFC452
:103BA800E7F4534A542A4E4A4F2A31504E5C325059
:103BB8004F58D8A0E2EF1DF0E4EF1DF0C7EF1DF05D
:103BC800370E0C6E050E0D6E030E31240E6E000EB0
:103BD80032200F6ED4EC2DF00CC54CF50DC54DF50B
:103BE800350E5324D96E050E5420DA6E4D50DF6E13
:103BF800534A542A350E5324D96E050E5420DA6ED2
:103C08004CC5DFF4534A542AECEC34F0336E346A72
:103C18005350335C54503458D8A015EF1EF017EFAA
:103C28001EF04DEF1EF0516A000E506E27EF1EF089
:103C3800350E5024D96E050E5120DA6EDF5061EC36
:103C480031F0504A512A5350505C54505158D8A022
:103C580030EF1EF032EF1EF01CEF1EF03C0E096E26
:103C6800FF0E0A6EC8EC2EF052500AEC30F0BC0E73
:103C7800096EFF0E0A6EC8EC2EF031C51FF532C56D
:103C880020F5216A226A35EC24F08FEC34F083EFBA
:103C98001EF006017C2908E17D29D8B456EF1EF0F4
:103CA80058EF1EF05AEF1EF07C4B7D2B380E096E34
:103CB800FE0E0A6EC8EC2EF052500AEC30F0200EC0
:103CC800096EFF0E0A6EC8EC2EF053C51FF554C5D9
:103CD80020F5216A226A35EC24F0270E096EFF0EC2
:103CE8000A6EC8EC2EF0ECEC34F0336E33501F6ED5
:103CF800206A216A226A35EC24F049EF1EF012008E
:103D08001F502010D8A48BEF1EF08DEF1EF091EFFE
:103D18001EF0010E206EF40E1F6EDD0E1F5C050EE8
:103D28002058D8A09AEF1EF09CEF1EF0A0EF1EF0CE
:103D3800050E206EDC0E1F6E1AC329F51BC32AF56B
:103D4800000EABBE010E2B6EAB9E03011A9F900EA8
:103D58001B6F100E1A6F196B186B77EC34F006C5D1
:103D68002EF507C52FF508C530F509C531F503014E
:103D78001A8FC0EF1EF004001F50236E2050246ECF
:103D8800256A266A2EC50AF52FC50BF530C50CF530
:103D980031C50DF512EC2AF023500A5C24500B585B
:103DA80025500C5826500D58D8A0DDEF1EF0DFEF37
:103DB8001EF0BFEF1EF003011A9F2EC50AF52FC58E
:103DC8000BF530C50CF531C50DF512EC2AF00AC516
:103DD80032F50BC533F50CC534F50DC535F518C3EB
:103DE8002CF519C32DF52D50236E2C50276E23C5A5
:103DF80028F503011A9F2AC51BF329C51AF32BB00E
:103E080002D0AB9E01D0AB8E325033103410351037
:103E1800D8A411EF1FF013EF1FF01DEF1FF0000ED5
:103E28001F6E000E206E000E216E000E226E47EFF0
:103E38001FF027C506F528C507F5086A096AE80EC0
:103E48000A6E030E0B6E000E0C6E000E0D6E24EC47
:103E58002CF006C512F507C513F508C514F509C5F4
:103E680015F532C516F533C517F534C518F535C53A
:103E780019F5E2EC28F012C51FF513C520F514C595
:103E880021F515C522F512001E6E1E50D8B44FEF4D
:103E98001FF051EF1FF0B1EF1FF00601AA51D8A48F
:103EA80058EF1FF05AEF1FF06DEF1FF0010EAA6FC9
:103EB800010EA96F77EC34F006C57CF707C57DF7CE
:103EC80008C57EF709C57FF70601A86BC086A7EF6E
:103ED8001FF07CC70AF57DC70BF57EC70CF57FC7B9
:103EE8000DF512EC2AF00D500C100BE1B80E0A5C1F
:103EF8000B0E0B58D8A083EF1FF085EF1FF0A7EF2C
:103F08001FF077EC34F006C57CF707C57DF708C5C8
:103F18007EF709C57FF70601A951D8B496EF1FF0BF
:103F280099EF1FF0010E9AEF1FF0000EA96FA9512B
:103F3800D8B4A1EF1FF0A3EF1FF0A6EF1FF0C086C3
:103F4800A7EF1FF0C0961AC578F71BC579F71CC5EF
:103F58007AF71DC57BF7F9EF1FF00601AA51D8B40F
:103F6800B8EF1FF0BAEF1FF0C5EF1FF0AA6BA96BEF
:103F78001AC578F71BC579F71CC57AF71DC57BF7F5
:103F8800C096070178511A180FE179511B180CE1F6
:103F98007A511C1809E17B511D18D8B4D6EF1FF0CF
:103FA800D8EF1FF0F9EF1FF01AC578F71BC579F79E
:103FB8001CC57AF71DC57BF71A501B101C101D1065
:103FC800D8B4E9EF1FF0EBEF1FF0F9EF1FF0010E87
:103FD8000601A86F77EC34F006C574F707C575F7C6
:103FE80008C576F709C577F7C0861200136A000E70
:103FF800126E76C61AF577C61BF51A501B10D8A490
:1040080008EF20F00AEF20F023EF20F00850091005
:10401800D8B411EF20F013EF20F019EF20F008C505
:10402800D9F409C5DAF4DE6ADD6A000E066E000E00
:10403800076E000E086E000E096E9AEF20F006C596
:1040480016F507C517F516501A5C17501B58D8B047
:1040580030EF20F032EF20F036EF20F01AC516F5D9
:104068001BC517F5000E0E6E000E0F6E000E106EBB
:10407800000E116E196A000E186E76EF20F01850B7
:104088000601785D0A6E195079590B6E1F0E0A26C3
:10409800000E0B221F0E0A140C6E0D6AD8900C34F9
:1040A800D96E0D34DA6E000ED926070EDA22DEC478
:1040B80014F5DDC415F514501510D8A466EF20F0DA
:1040C80068EF20F06AEF20F081EF20F014500E2600
:1040D80015500F22000E1022000E1122124A132A28
:1040E800184A192A1650185C17501958D8A07FEF8B
:1040F80020F081EF20F043EF20F008500910D8B4E9
:1041080088EF20F08AEF20F092EF20F008C5D9F46C
:1041180009C5DAF412C5DEF413C5DDF40EC506F5DB
:104128000FC507F510C508F511C509F512000601F8
:10413800AF51D8A4A2EF20F0A4EF20F0A6EF20F012
:1041480031EF21F018512F180DE1195130180AE1FB
:104158001A51311807E11B513218D8A4B6EF20F0D4
:10416800B8EF20F0CAEF20F0145133180FE11551C1
:1041780034180CE11651351809E117513618D8B41E
:10418800C8EF20F0CAEF20F014EF21F0D30E096E2B
:10419800FA0E0A6EC8EC2EF02FC51FF530C520F5B3
:1041A80031C521F532C522F535EC24F0360E096EFD
:1041B800FF0E0A6EC8EC2EF033C51FF534C520F586
:1041C80035C521F536C522F535EC24F0440E096EC7
:1041D800FE0E0A6EC8EC2EF018C61FF519C620F59B
:1041E8001AC621F51BC622F535EC24F0360E096EE9
:1041F800FF0E0A6EC8EC2EF014C61FF515C620F582
:1042080016C621F517C622F535EC24F04F0E096EB7
:10421800FE0E0A6EC8EC2EF08FEC34F031EF21F070
:1042280086C68AF687C68BF618C630F619C631F6E2
:104238001AC632F61BC633F614C62CF615C62DF66A
:1042480016C62EF617C62FF618C628F619C629F66A
:104258001AC62AF61BC62BF6AF6B12008BEC2CF095
:104268000601B26BB06B8B6B000E8A6F896B000E08
:10427800886FAF6B876B000E866F000E0701906F1B
:10428800000E916F000E926F000E936F000E8C6FF0
:10429800000E8D6F000E8E6F000E8F6F0601856BFE
:1042A800000E846F596AAB6B7B6B000E7A6F000E41
:1042B800246F000E256F000E266F000E276F000E6C
:1042C800206F000E216F000E226F000E236F000E6C
:1042D8001C6F000E1D6F000E1E6F000E1F6F000E6C
:1042E800186F000E196F000E1A6F000E1B6F000E6C
:1042F8000701806F000E816F000E826F000E836FC2
:10430800000E0601146F000E156F000E166F000EDA
:10431800176F0CEC34F03CC530F63DC531F63EC5A0
:1043280032F63FC533F66EEC34F006C52CF607C5F9
:104338002DF608C52EF609C52FF630C628F631C663
:1043480029F632C62AF633C62BF6000E0601406F50
:10435800000E416F000E426F000E436F000E3C6F5F
:10436800000E3D6F000E3E6F000E3F6F816B000E1A
:10437800806F7F6B000E7E6F120005016E6B000E62
:104388006D6F010E606F6D4B6E2B600E6D25D96ED3
:10439800050E6E21DA6E010EDF6E6D4B6E2B600E10
:1043A8006D25D96E050E6E21DA6EDF6A6D4B6E2BA8
:1043B800600E6D25D96E050E6E21DA6EDF6A6D4BC3
:1043C8006E2B600E6D25D96E050E6E21DA6E140EF9
:1043D800DF6E6D4B6E2B600E6D25D96E050E6E214E
:1043E800DA6EAA0EDF6E6D4B6E2B600E6D25D96EE0
:1043F800050E6E21DA6EDF6A6D4B6E2B600E6D2531
:10440800D96E050E6E21DA6E220EDF6E6D4B6E2BA5
:10441800600E6D25D96E050E6E21DA6E010EDF6E07
:104428006D4B6E2B600E6D25D96E050E6E21DA6E02
:10443800010EDF6E6D4B6E2B600E6D25D96E050E6D
:104448006E21DA6E010EDF6E6D4B6E2B600E6D25E0
:10445800D96E050E6E21DA6E0B0EDF6E6D4B6E2B6C
:10446800600E6D25D96E050E6E21DA6EB80EDF6E00
:104478006D4B6E2B600E2F6E050E306E6DC531F5CF
:104488006EC532F5890E85EC1DF012000601A751A4
:10449800D8B451EF22F053EF22F0C9EF22F06CC7E5
:1044A8000AF56DC70BF56EC70CF56FC70DF512EC65
:1044B8002AF00D500C100BE1300E0A5C750E0B58EB
:1044C800D8A069EF22F06BEF22F0C9EF22F00601C5
:1044D800A76B8FEC28F0FD0E096EFA0E0A6E3AEC07
:1044E8002FF0300E1F6E750E206E000E216E000E1E
:1044F800226E82EC25F0650E096EFE0E0A6E3AEC0D
:104508002FF00501FE51D8A48CEF22F08FEF22F096
:10451800010E90EF22F0000E1F6E206A216A226AB7
:1045280082EC25F0E90E096EFE0E0A6E3AEC2FF0C9
:104538000501FE51D8A4A3EF22F0A5EF22F0ABEFBE
:1045480022F0CC0E2F6EFF0E306EAFEF22F0190E58
:104558002F6EFF0E306E2FC509F530C50AF53AECFF
:104568002FF0A30E096EFC0E0A6E3AEC2FF077ECD2
:1045780034F006C51FF507C520F508C521F509C59E
:1045880022F582EC25F0A4EC34F012001FC512F5D8
:1045980020C513F521C514F522C515F5E80E166ECC
:1045A800030E176E000E186E000E196EE2EC28F05E
:1045B80012C529F513C52AF514C52BF515C52CF513
:1045C8001FC506F520C507F521C508F522C509F55B
:1045D800E80E0A6E030E0B6E000E0C6E000E0D6ECA
:1045E8002BEC2BF006C52DF507C52EF508C52FF5C4
:1045F80009C530F523C506F524C507F5086A096A13
:1046080029C50AF52AC50BF52BC50CF52CC50DF5E2
:1046180024EC2CF006C525F507C526F508C527F5B1
:1046280009C528F523C506F524C507F5086A096AEA
:104638002DC50AF52EC50BF52FC50CF530C50DF5A2
:1046480024EC2CF006C512F507C513F508C514F5BA
:1046580009C515F5E80E166E030E176E000E186ED6
:10466800000E196EE2EC28F0125025241F6E13502C
:104678002620206E14502720216E15502820226EE7
:10468800120021EE16F1070EDE6AE806FDE20E5072
:104698000F10101011101210131014101510D8B498
:1046A80058EF23F05AEF23F0ACEF23F0010E1E6E03
:1046B80068EF23F0D8900E360F36103611361236C2
:1046C8001336143615361E2A15AE6DEF23F06FEF2C
:1046D80023F05EEF23F0D8901636173618361936C1
:1046E8001A361B361C361D360E50065C0F500758FE
:1046F800105008581150095812500A5813500B58A6
:1047080014500C5815500D58D8A08DEF23F08FEF8A
:1047180023F0A0EF23F00E50065E0F50075A1050FA
:10472800085A1150095A12500A5A13500B5A145069
:104738000C5A15500D5A1680D8901532143213326F
:104748001232113210320F320E321E2E6FEF23F05A
:1047580016C506F517C507F518C508F519C509F5ED
:104768001AC50AF51BC50BF51CC50CF51DC50DF5BD
:1047780012001F50201021102210D8A4C6EF23F0D9
:10478800C8EF23F0CAEF23F034EF24F0000E126EC6
:104798008C0E136E3C0E146E000E156E1FC516F5AA
:1047A80020C517F521C518F522C519F5E2EC28F042
:1047B80012C523F513C524F514C525F515C526F529
:1047C800010E06019F6F26BEF5EF23F02650251037
:1047D800241009E16F0E235CD8A0F5EF23F0F7EF62
:1047E80023F025EF24F026BE07EF24F026502510ED
:1047F800241007E1940E235CD8B005EF24F007EFEE
:1048080024F025EF24F0010E9E6F23C5D5F624C5AC
:10481800D6F69D51D8A413EF24F015EF24F034EF09
:1048280024F023C506F524C507F525C508F526C5D2
:1048380009F54BEC2DF006C5D7F607C5D8F634EFC9
:1048480024F09E6BD66B800ED56F9D51D8A42FEFA8
:1048580024F031EF24F034EF24F0D86B800ED76FBA
:1048680012002E6A1F50201021102210D8A43FEFEA
:1048780024F041EF24F07CEF24F0300E60EC2FF0B0
:10488800A3EF24F0230E2E24D96EDA6A050EDA225D
:104898001FC506F520C507F521C508F522C509F588
:1048A8000A0E0A6E000E0B6E000E0C6E000E0D6ED8
:1048B8002BEC2BF00650300FDF6E2E2A1FC512F599
:1048C80020C513F521C514F522C515F50A0E166E77
:1048D800000E176E000E186E000E196EE2EC28F02E
:1048E80012C51FF513C520F514C521F515C522F508
:1048F8001F50201021102210D8B485EF24F087EF24
:1049080024F09BEF24F00A0E2E648DEF24F08FEF35
:1049180024F046EF24F09BEF24F02E06230E2E24DD
:10492800D96EDA6A050EDA22DF5060EC2FF02E50CD
:10493800D8A4A1EF24F0A3EF24F091EF24F0120003
:104948002E6A1F50201021102210D8A4AEEF24F098
:10495800B0EF24F0EBEF24F0300E82EC2FF012EFE2
:1049680025F0230E2E24D96EDA6A050EDA221FC529
:1049780006F520C507F521C508F522C509F50A0E73
:104988000A6E000E0B6E000E0C6E000E0D6E2BECF8
:104998002BF00650300FDF6E2E2A1FC512F520C5EA
:1049A80013F521C514F522C515F50A0E166E000E6D
:1049B800176E000E186E000E196EE2EC28F012C584
:1049C8001FF513C520F514C521F515C522F51F508F
:1049D800201021102210D8B4F4EF24F0F6EF24F0C0
:1049E8000AEF25F00A0E2E64FCEF24F0FEEF24F007
:1049F800B5EF24F00AEF25F02E06230E2E24D96EEB
:104A0800DA6A050EDA22DF5082EC2FF02E50D8A495
:104A180010EF25F012EF25F000EF25F012002E6AB6
:104A28001F50201021102210D8A41DEF25F01FEFD1
:104A380025F05AEF25F0300EA4EC2FF081EF25F089
:104A4800230E2E24D96EDA6A050EDA221FC506F562
:104A580020C507F521C508F522C509F50A0E0A6E15
:104A6800000E0B6E000E0C6E000E0D6E2BEC2BF074
:104A78000650300FDF6E2E2A1FC512F520C513F51C
:104A880021C514F522C515F50A0E166E000E176E0F
:104A9800000E186E000E196EE2EC28F012C51FF514
:104AA80013C520F514C521F515C522F51F50201092
:104AB80021102210D8B463EF25F065EF25F079EFC7
:104AC80025F00A0E2E646BEF25F06DEF25F024EF2C
:104AD80025F079EF25F02E06230E2E24D96EDA6AFA
:104AE800050EDA22DF50A4EC2FF02E50D8A47FEF69
:104AF80025F081EF25F06FEF25F012002E6A1F5088
:104B0800201021102210D8A48CEF25F08EEF25F06C
:104B1800C9EF25F0300EC6EC2FF0F0EF25F0230E8C
:104B28002E24D96EDA6A050EDA221FC506F520C5CD
:104B380007F521C508F522C509F50A0E0A6E000E0B
:104B48000B6E000E0C6E000E0D6E2BEC2BF006504B
:104B5800300FDF6E2E2A1FC512F520C513F521C5AB
:104B680014F522C515F50A0E166E000E176E000E06
:104B7800186E000E196EE2EC28F012C51FF513C569
:104B880020F514C521F515C522F51F502010211058
:104B98002210D8B4D2EF25F0D4EF25F0E8EF25F0B5
:104BA8000A0E2E64DAEF25F0DCEF25F093EF25F0FE
:104BB800E8EF25F02E06230E2E24D96EDA6A050EAC
:104BC800DA22DF50C6EC2FF02E50D8A4EEEF25F0F5
:104BD800F0EF25F0DEEF25F012002E6A1F502010AE
:104BE80021102210D8A4FBEF25F0FDEF25F038EFB7
:104BF80026F0300EE8EC2FF05FEF26F0230E2E247F
:104C0800D96EDA6A050EDA221FC506F520C507F542
:104C180021C508F522C509F50A0E0A6E000E0B6EAD
:104C2800000E0C6E000E0D6E2BEC2BF00650300FA4
:104C3800DF6E2E2A1FC512F520C513F521C514F500
:104C480022C515F50A0E166E000E176E000E186EA8
:104C5800000E196EE2EC28F012C51FF513C520F5F9
:104C680014C521F515C522F51F502010211022105A
:104C7800D8B441EF26F043EF26F057EF26F00A0E9E
:104C88002E6449EF26F04BEF26F002EF26F057EF9F
:104C980026F02E06230E2E24D96EDA6A050EDA22A5
:104CA800DF50E8EC2FF02E50D8A45DEF26F05FEF30
:104CB80026F04DEF26F012000601956B000E946F5A
:104CC800936B000E926F000E486F000E496F000E36
:104CD8004A6F000E4B6FB46B0CEC34F03CC550F6C9
:104CE8003DC551F63EC552F63FC553F650C64CF683
:104CF80051C64DF652C64EF653C64FF6000E070182
:104D08009C6F000E9D6F000E9E6F000E9F6F77ECDC
:104D180034F006C598F707C599F708C59AF709C585
:104D28009BF70601916B000E906F416A000E406E72
:104D3800000E4024D96E080E4120DA6EDF6A404A20
:104D4800412A415009E1800E405CD8A0AEEF26F020
:104D5800B0EF26F09CEF26F050C644F651C645F653
:104D680052C646F653C647F606018F6B000E8E6F85
:104D780050C694F751C695F752C696F753C697F79B
:104D88008D6B000E8C6FB36B1200CAEC34F0060109
:104D98008A51061807E18B510718D8A4D6EF26F0D8
:104DA800D8EF26F0DAEF26F02AEF27F08AC60FF5BB
:104DB8008BC610F5310E116E050E126EAEEC30F08A
:104DC80033500601282734502923000E2A23000EC9
:104DD8002B23010E8A252F6E000E8B21306EFF0EBD
:104DE8002F148A6F030E30148B6FAF51D8B4FFEFB6
:104DF80026F001EF27F02AEF27F0AF6B4D0E096E72
:104E0800FC0E0A6EC8EC2EF01CC61FF51DC620F558
:104E18001EC621F51FC622F535EC24F0F10E096EE9
:104E2800FF0E0A6EC8EC2EF018C61FF519C620F53D
:104E38001AC621F51BC622F535EC24F09E0E096E24
:104E4800FA0E0A6EC8EC2EF08FEC34F012003F50C8
:104E580006011027405011234150122342501323BA
:104E6800744B752BDD51745DDE517559D8B03FEF29
:104E780027F041EF27F043EF27F086EF27F0135193
:104E880006E11205D8B04BEF27F04DEF27F053EFAE
:104E980027F010C645F511C646F555EF27F04568C9
:104EA8004668D8907835D96E7935DA6E000ED926ED
:104EB800070EDA2245C5DEF446C5DDF4010E782575
:104EC800436E000E7921446E1F0E4314786F796B80
:104ED800775107E1200E765DD8B075EF27F077EFB0
:104EE80027F079EF27F0764B772B000E106F000E26
:104EF800116F000E126F000E136F756B000E746F3A
:104F080026EC1BF01200106A000E0F6E06C511F594
:104F180007C512F5CFEF27F011C50AF512C50BF535
:104F2800D8900B320A32D8900B320A32D8900B3212
:104F38000A320AC50CF50BC50DF511C50AF5070EA1
:104F48000A16010E0B6E0A2AACEF27F0D8900B3622
:104F58000A2EAAEF27F00B500E6E000E0C24D96E05
:104F6800080E0D20DA6EDF500E140009D8B4BFEF1A
:104F780027F0C1EF27F0C3EF27F00F4A102A010EE0
:104F880011240A6E000E12200B6EFF0E0A14116E09
:104F9800030E0B14126E0850111807E1095012186D
:104FA800D8A4D9EF27F0DBEF27F090EF27F00FC553
:104FB80006F510C507F512002F0E066E050E076ED2
:104FC800ECEC2CF02FC57AF630C57BF631C524F60B
:104FD80032C525F633C526F634C527F635C520F67D
:104FE80036C521F637C522F638C523F677EC34F0F6
:104FF80006C584F707C585F708C586F709C587F785
:10500800010E0601AB6FD00E096EFB0E0A6EC8ECDE
:105018002EF07AC61FF57BC620F5216A226A35EC88
:1050280024F00A0E096EFF0E0A6EC8EC2EF024C694
:105038001FF525C620F526C621F527C622F535EC2D
:1050480024F0010E096EFF0E0A6EC8EC2EF020C681
:105058001FF521C620F522C621F523C622F535EC19
:1050680024F08FEC34F01200ACA03DEF28F03FEFB5
:1050780028F060EF28F0B7A044EF28F046EF28F0BA
:1050880060EF28F0A1C203F5060198519911D8B430
:1050980050EF28F052EF28F060EF28F003C502F532
:1050A80002D860EF28F00500FA6E9851FD6E99510C
:1050B800FE6EFF6AFA501200ACA265EF28F067EFA7
:1050C80028F08EEF28F0B7A26CEF28F06EEF28F0EA
:1050D8008EEF28F05A50D8B474EF28F076EF28F005
:1050E80085EF28F0800E0601B825D96EDA6A080E19
:1050F800DA22DF500201A36F0601B8293F0BB86F0F
:105108005A065A50D8A48BEF28F08DEF28F08EEF6E
:1051180028F0AC921200010E0A6E0601A751D8A41D
:1051280098EF28F09AEF28F0A4EF28F00501FE5137
:10513800D8A4A1EF28F0A3EF28F0A4EF28F00A6A7A
:105148000A50D8A4AAEF28F0ADEF28F0010EAEEF70
:1051580028F0000E0B6E0601A551D8A4B6EF28F072
:10516800B8EF28F0C8EF28F00BC5A6F6010EA56F1A
:105178000B50D8B4C2EF28F0C4EF28F0E1EF28F0C4
:1051880085EC32F0E1EF28F0A6510B18D8B4CFEF38
:1051980028F0D1EF28F0E1EF28F00B50D8B4D7EF82
:1051A80028F0D9EF28F0DDEF28F085EC32F0DFEFBA
:1051B80028F048EC32F00BC5A6F61200000E1A6E65
:1051C800000E1B6E000E1C6E000E1D6E1650171082
:1051D80018101910D8B4F3EF28F0F5EF28F02BEFDA
:1051E80029F0010E1E6EFFEF28F0D89016361736FC
:1051F800183619361E2A19AE04EF29F006EF29F0E1
:10520800F9EF28F0D8901A361B361C361D36165082
:10521800125C175013581850145819501558D8A024
:1052280018EF29F01AEF29F023EF29F01650125E33
:105238001750135A1850145A1950155A1A80D890E2
:1052480019321832173216321E2E06EF29F01AC5F7
:1052580012F51BC513F51CC514F51DC515F512006F
:10526800C088F7EC34F00601C16BD7EC34F0920E2D
:10527800096EFC0E0A6EA2EC2EF077EC34F006C52F
:105288001FF507C520F508C521F509C522F5F1EC7C
:1052980025F0830E096EFE0E0A6EA2EC2EF0B6EC17
:1052A80034F006C51FF507C520F5216A226AF1EC1E
:1052B80025F0790E096EFE0E0A6EA2EC2EF0DAECDD
:1052C80034F00009D8A46BEF29F06DEF29F073EFE3
:1052D80029F0F70E2F6EFF0E306E77EF29F0E90EEA
:1052E8002F6EFF0E306E2FC509F530C50AF5A2ECFA
:1052F8002EF088EC34F01200EA0EF66E650EF76EAA
:10530800000EF86E01EEC3F210EE22F00900F5C4AB
:10531800EEF4E550E150FAE102EE00F212EE00F090
:10532800EE6AE550E150FCE1E250FAE102EE00F1EC
:1053380010EE00F1EE6AE550E150FCE1E250FAE1CE
:1053480002EE00F0C00EEE6AE806FDE101EE00F3A1
:10535800C00EEE6AE806FDE101EE00F2C30EEE6A49
:10536800E806FDE10501FE6BFD6BFC6B5A6A596AA4
:10537800586A576A566A556A0401080E5D6F000E2E
:105388005E6F000E5F6F0001DFEF0DF00650071033
:10539800D8A4D1EF29F0D3EF29F0D5EF29F011EFF8
:1053A8002AF006C5D9F407C5DAF4D5C6DEF4D6C6A0
:1053B800DDF420EE02F00650D9260750DA229FC607
:1053C800DFF420EE03F00650D9260750DA229EC6F5
:1053D800DFF420EE04F00650D9260750DA229DC6E5
:1053E800DFF420EE05F00650D9260750DA22D3C69E
:1053F800DEF4D4C6DDF420EE07F00650D9260750B7
:10540800DA229CC6DFF420EE08F00650D9260750B1
:10541800DA22D7C6DEF4D8C6DDF4120077EC34F011
:1054280006C516F507C517F508C518F509C519F510
:105438000A50165C0B5017580C5018580D50195834
:10544800D8B029EF2AF02BEF2AF04DEF2AF00A1CEA
:105458000E6E0B1C0F6E0C1C106E0D1C116E165070
:105468000E24126E17500F20136E18501020146E51
:1054780019501120156E010E12240A6E000E132009
:105488000B6E000E14200C6E000E15200D6E59EFD9
:105498002AF00A50165C0A6E0B5017580B6E0C5007
:1054A80018580C6E0D5019580D6E1200780E066EB5
:1054B800050E076E1EEC32F005017951606F78C554
:1054C80061F57B51626F7AC563F57D51646F7CC568
:1054D80065F57F51666F7EC567F55CEC34F006C5EF
:1054E80070F507C571F508C572F509C573F553EC74
:1054F80034F006C574F507C575F508C576F509C510
:1055080077F573C568F572C569F571C56AF570C533
:105518006BF577C56CF576C56DF575C56EF574C513
:105528006FF5600E2F6E050E306E326A100E316EFA
:10553800820E85EC1DF0120006C509F507C50AF5AF
:10554800D8900A320932D8900A320932D8900A32F1
:10555800093209C50CF50AC50DF506C509F5070E8A
:105568000916010E0A6E092ABCEF2AF0D8900A36ED
:10557800092EBAEF2AF00A500B6E0850D8B4C7EFBC
:105588002AF0C9EF2AF0D3EF2AF0000E0C24D96EC6
:10559800080E0D20DA6E0B50DF12E5EF2AF0000E30
:1055A8000C24D96E080E0D20DA6E000E0C24E16E64
:1055B800080E0D20E26EE750096E0B50FF0A091421
:1055C800DF6E1200A00E1A6E070E1B6EBCEC2CF0DC
:1055D8001CEF2BF0A00E0C6E070E0D6EFBC50EF522
:1055E80011EC14F00009D8B4FCEF2AF0FEEF2AF011
:1055F8001CEF2BF0010E0601C06F77EC34F006C5E6
:105608006CF607C56DF608C56EF609C56FF6C7ECEA
:1056180033F00009D8A413EF2BF015EF2BF01CEF93
:105628002BF0A00E0501806F070E816F0FEC00F0C4
:10563800FB0E066E050E076E8EEC30F00009D8A43E
:1056480028EF2BF02AEF2BF0EEEF2AF012000A5089
:105658000B100C100D10D8B434EF2BF036EF2BF0E4
:1056680066EF2BF0010E0E6E40EF2BF0D8900A3645
:105678000B360C360D360E2A0DAE45EF2BF047EFE4
:105688002BF03AEF2BF00A50065C0B5007580C50E1
:1056980008580D500958D8A054EF2BF056EF2BF0AE
:1056A8005EEF2BF00A50065E0B50075A0C50085A52
:1056B8000D50095AD8900D320C320B320A320E2E88
:1056C80047EF2BF006C506F507C507F508C508F529
:1056D80009C509F512000601796B000E786F776B22
:1056E800000E766F756B000E746F000E106F000E53
:1056F800116F000E126F000E136F346A000E336EB6
:10570800D8903334D96E3434DA6E000ED926070EA9
:10571800DA22DE6ADD6A334A342A345009E1200E7F
:10572800335CD8A09AEF2BF09CEF2BF084EF2BF092
:1057380009EC16F00601A76B0501FE6B000E0701C8
:10574800686F000E696F000E6A6F000E6B6F0601BE
:10575800A66BA56B120003011E9FAB96B6961A9F07
:105768009E0E1B6F0601E4050301196F186BB69EA8
:10577800AB8E800E1A6FD3EC33F0D69EF29E0001EA
:1057880078910300000000017881F6EC33F00009FD
:10579800D8B4D1EF2BF0D3EF2BF0D3EF2BF0C5EC2F
:1057A80034F0B6AEDAEF2BF0DCEF2BF0E6EF2BF0AF
:1057B800110E066E020E076E000E086E000E096EC0
:1057C80040EC34F003011A9FAB9EB69ED68EADEC2A
:1057D80033F012000601A351D8A4F5EF2BF0F7EF30
:1057E8002BF0F9EF2BF023EF2CF064C70AF565C70F
:1057F8000BF566C70CF567C70DF512EC2AF00D50CE
:105808000C100BE1100E0A5C270E0B58D8A00FEFF6
:105818002CF011EF2CF023EF2CF0E9EC34F006011A
:10582800A36BA251D8A41BEF2CF01DEF2CF021EF95
:105838002CF0020EA46F23EF2CF0010EA46F1200BF
:10584800000E0E6E000E0F6E000E106E000E116E22
:1058580006A031EF2CF033EF2CF03BEF2CF00A5080
:105868000E260B500F220C5010220D501122D890EA
:105878000A360B360C360D36D89009320832073204
:1058880006320650071008100910D8A44EEF2CF065
:1058980050EF2CF02CEF2CF00EC506F50FC507F5D0
:1058A80010C508F511C509F5120032BE60EF2CF0DD
:1058B8005EEF2CF080EF2CF02D0EE8EC2FF02FC5CA
:1058C80033F530C534F531C535F532C536F5331EF7
:1058D800341E351E361E332A000E34223522362257
:1058E80033C51FF534C520F535C521F536C522F574
:1058F800F1EC25F08AEF2CF02FC51FF530C520F507
:1059080031C521F532C522F5F1EC25F01200C30EA0
:105918000601E519066EA50EE619076E0701D751AF
:10592800061809E1D8510718D8B49DEF2CF09FEF5D
:105938002CF0A3EF2CF00601E66B000EE56F0601D4
:10594800E54BE62BE551E611D8A4ADEF2CF0AFEF0F
:105958002CF0B2EF2CF0E66B010EE56FC30EE519E3
:105968000701D76FA50E0601E6190701D86F1200C7
:105978001AC5D9F41BC5DAF4DF50D8B4C6EF2CF039
:10598800C8EF2CF0EBEF2CF020EE1AF01A50D926C5
:105998001B50DA22DEC40AF5DEC40BF5DEC40CF5B2
:1059A800DEC40DF512EC2AF00D500C100B1009E1B5
:1059B800640E0A5CD8A0E3EF2CF0E5EF2CF0EBEFD7
:1059C8002CF01AC506F51BC507F5A7EC2DF012003B
:1059D80006500710D8A4F3EF2CF0F5EF2CF0F7EFF2
:1059E8002CF01BEF2DF006C5D9F407C5DAF494C6E0
:1059F800DEF495C6DDF420EE02F00650D9260750F5
:105A0800DA2248C6DEF449C6DEF44AC6DEF44BC6DE
:105A1800DEF420EE06F00650D9260750DA2250C6EA
:105A2800DEF451C6DEF452C6DEF453C6DEF41200CC
:105A3800E0EC27F0F5EC34F0C09877EC34F006C5CC
:105A480070F607C571F608C572F609C573F6060142
:105A5800C06BBF6BBE6BB1EC34F0010E0601C16FB9
:105A6800FBEC34F0E40E096EFC0E0A6EA2EC2EF08C
:105A780077EC34F006C51FF507C520F508C521F5F4
:105A880009C522F5F1EC25F088EC34F0120009BEC6
:105A98005BEF2DF009500810071007E16F0E065C48
:105AA800D8B059EF2DF05BEF2DF060EF2DF0076ABD
:105AB8006F0E066E79EF2DF009BE6EEF2DF00950CE
:105AC8000810071009E1940E065CD8A06EEF2DF0BF
:105AD80070EF2DF075EF2DF0076A930E066E79EFD3
