:040000000DEF00F010
:0400080079EF31F06B
:10001800FF0084EF27F0D60E096EFF0E0A6EA0ECE3
:100028002CF0C7EF00F00A0E096EFF0E0A6EA0EC66
:100038002CF009EF01F01B0E096EFE0E0A6EA0EC03
:100048002CF009EF01F0500E096EFE0E0A6EA0ECBE
:100058002CF009EF01F0430E096EFE0E0A6EA0ECBB
:100068002CF009EF01F0360E096EFE0E0A6EA0ECB8
:100078002CF009EF01F00D0E096EFE0E0A6EA0ECD1
:100088002CF009EF01F0940E096EFD0E0A6EA0EC3B
:100098002CF009EF01F0D30E096EFE0E0A6EA0ECEB
:1000A8002CF009EF01F0820E096EFD0E0A6EA0EC2D
:1000B8002CF0050120EE02F08051D9268151DA2278
:1000C800DE50DE10D8A46BEF00F06DEF00F072EF99
:1000D80000F0BA6B000EB96F7DEF00F020EE06F06D
:1000E8008051D9268151DA22DF50826F8251B96F4F
:1000F800BA6BB9C51FF5BAC520F5216A226AF5ECB5
:1001080023F009EF01F0B50E096EFD0E0A6EA0ECA2
:100118002CF009EF01F0D40E096EFD0E0A6EA0EC6A
:100128002CF009EF01F0C90E096EFE0E0A6EA0EC64
:100138002CF009EF01F0FF0E096EFD0E0A6EA0EC1F
:100148002CF009EF01F0BF0E096EFE0E0A6EA0EC4E
:100158002CF009EF01F0430E096EFF0E0A6EA0ECB9
:100168002CF0050120EE01F08051D9268151DA22C8
:10017800DF50826F82511F6E206A216A226AF5EC75
:1001880023F009EF01F0050120EE01F08051D92696
:100198008151DA22DF50010AD8B417EF00F0030AC0
:1001A800D8B41FEF00F0010AD8B42FEF00F0070A07
:1001B800D8B43FEF00F0010AD8B447EF00F0030AC3
:1001C800D8B44FEF00F0010AD8B457EF00F00F0A87
:1001D800D8B487EF00F0010AD8B48FEF00F0030A13
:1001E800D8B497EF00F0010AD8B49FEF00F0070ADF
:1001F800D8B4A7EF00F0020AD8B427EF00F0010A3C
:10020800D8B437EF00F0AFEF00F0C10E096EFF0E63
:100218000A6EA0EC2CF0050120EE02F08051D926E0
:100228008151DA22DEC482F5DDC483F582C51FF56B
:1002380083C520F5216A226AF5EC23F03CEC32F004
:1002480094EF08F08DEC32F0D6EF08F020EE02F0D3
:100258008051D9268151DA22010EDB5009E1080EBE
:10026800DE5CD8A03AEF01F03CEF01F014EF02F0A9
:1002780020EE08F08051D9268151DA22DF50826FB2
:1002880082C583F5846B856B866B85C586F584C5C9
:1002980085F583C584F5836B20EE07F08051D92658
:1002A8008151DA22DF50876F87C588F5896B8A6BA1
:1002B8008B6B89C58BF588C58AF5896B886B20EEB1
:1002C80006F08051D9268151DA22DF508C6F8CC517
:1002D8008DF58E6B8F6B906B8DC590F58F6B8E6BDC
:1002E8008D6B88518D11916F89518E11926F8A5142
:1002F8008F11936F8B519011946F83519111956F5A
:1003080084519211966F85519311976F865194116C
:10031800986F20EE09F08051D9268151DA22DF50FA
:10032800996F995195119A6F96519B6F97519C6F40
:1003380098519D6F20EE0CF08051D9268151DA2218
:10034800DF50826F82C583F5846B856B866B85C5AC
:1003580086F584C585F583C584F5836B20EE0BF09F
:100368008051D9268151DA22DF50876F87C588F5F9
:10037800896B8A6B8B6B89C58BF588C58AF5896B08
:10038800886B20EE0AF08051D9268151DA22DF509D
:100398008C6F8CC58DF58E6B8F6B906B8DC590F5C2
:1003A8008F6B8E6B8D6B88518D11916F89518E116A
:1003B800926F8A518F11936F8B519011946F835163
:1003C8009111956F84519211966F85519311976F82
:1003D80086519411986F20EE0DF08051D9268151E5
:1003E800DA22DF50996F995195119E6F96519F6F40
:1003F8009751A06F9851A16F9AC52FF59BC530F5FD
:100408009CC531F59DC532F59EC533F59FC534F5BC
:10041800A0C535F5A1C536F58AEC1FF0D6EF08F072
:100428005BEC30F0D6EF08F020EE02F08051D926D0
:100438008151DA22050EDE18DE10D8A426EF02F06C
:1004480028EF02F0D6EF08F020EE06F08051D9260A
:100458008151DA22DF50E86F20EE09F08051D92669
:100468008151DA22DF50826F82C583F5846B856BF8
:10047800866B85C586F584C585F583C584F5836B4C
:1004880020EE08F08051D9268151DA22DF50876F9B
:1004980087C588F5896B8A6B8B6B89C58BF588C591
:1004A8008AF5896B886B20EE07F08051D926815137
:1004B800DA22DF508C6F8CC58DF58E6B8F6B906B4D
:1004C8008DC590F58F6B8E6B8D6B88518D11916FEB
:1004D80089518E11926F8A518F11936F8B519011A0
:1004E800946F83519111956F84519211966F855134
:1004F8009311976F86519411986F20EE0AF08051EE
:10050800D9268151DA22DF50996F99519511D86F08
:100518009651D96F9751DA6F9851DB6F0601BE512A
:10052800D8A499EF02F09BEF02F006EF06F0010E57
:10053800BE6F2BEC32F006017051065C126E7151E1
:100548000758136E72510858146E73510958156E76
:10055800E80E166E030E176E000E186E000E196E5A
:10056800E6EC26F012C5A2F513C5A3F514C5A4F54B
:1005780015C5A5F5AA0E0501DC6F140EDD6F000E7A
:10058800DE6F000EDF6FDC51DD11DE11DF11D8A444
:10059800D0EF02F0D2EF02F0DAEF02F0010EDC6FDA
:1005A800000EDD6F000EDE6F000EDF6FE1C606F590
:1005B800E2C607F5086A096ADCC50AF5DDC50BF568
:1005C800DEC50CF5DFC50DF528EC2AF0F40E06247F
:1005D800126E010E0720136E000E0820146E000E16
:1005E8000920156EE80E166E030E176E000E186EB3
:1005F800000E196EE6EC26F012C5A6F513C5A7F590
:1006080014C5A8F515C5A9F568EC32F006C5B6F508
:1006180007C5B7F5D8C51FF5D9C520F5DAC521F541
:10062800DBC522F5A2C523F5A3C524F5A4C525F588
:10063800A5C526F5A6C527F5A7C528F5A8C529F592
:10064800A9C52AF5000E2B6E0501E851B8EC11F08A
:10065800E90E066E050E076ECEEC27F0BEEC2EF006
:1006680006C5CCF507C5CDF508C5CEF509C5CFF546
:10067800A50E096EFD0E0A6EA0EC2CF00501E851DE
:100688001F6E206A216A226AF5EC23F0830E096E38
:10069800FF0E0A6EA0EC2CF00501CFBF58EF03F057
:1006A80056EF03F07CEF03F0FA0E096EFF0E0A6EA8
:1006B800A0EC2CF0CCC582F5CDC583F5CEC584F56C
:1006C800CFC585F50501821F831F841F851F822BD7
:1006D800000E83238423852382C51FF583C520F557
:1006E80084C521F585C522F5F5EC23F086EF03F0E6
:1006F800CCC51FF5CDC520F5CEC521F5CFC522F552
:10070800F5EC23F0DB0E096EFF0E0A6EA0EC2CF060
:10071800B6C51FF5B7C520F5000E20BEFF0E216E29
:10072800226EF5EC23F0F40E096EFF0E0A6EA0ECB3
:100738002CF0F1C51FF5F2C520F5216A226AF5EC07
:1007480023F07C0E096EFF0E0A6EA0EC2CF005015A
:10075800ED511F6E206A216A226AF5EC23F0750EAE
:10076800096EFF0E0A6EA0EC2CF00501F0511F6E09
:10077800206A216A226AF5EC23F03CEC32F005018C
:10078800E851D8B4CAEF03F0CCEF03F0E1EF03F07F
:10079800010E0601BD6F030E206EE80E1F6EDCC54C
:1007A80021F5DDC522F5DEC523F5DFC524F5F6EC18
:1007B80017F01FC5E1F620C5E2F6E1C606F5E2C668
:1007C80007F50CEC30F0010E126E000E136E000EE1
:1007D800146E000E156E53EC2CF012C5D4F513C52B
:1007E800D5F514C5D6F515C5D7F50501D451D511DC
:1007F800D611D711D8A403EF04F005EF04F00DEFDC
:1008080004F0010ED46F000ED56F000ED66F000EE7
:10081800D76FD751D61108E1D505D8A016EF04F047
:1008280018EF04F020EF04F0FF0ED46F000ED56F20
:10083800000ED66F000ED76FD4C582F5D5C583F5E7
:10084800D6C584F5D7C585F50E0ED890823783377F
:1008580084378537E82E29EF04F00F0E8225126EB3
:10086800000E8321136E000E8421146E000E852164
:10087800156E1F0E166E000E176E000E186E000E07
:10088800196EE6EC26F012C5AAF513C5ABF514C52A
:10089800ACF515C5ADF5AAC506F5ABC507F5ACC5EC
:1008A80008F5ADC509F50A0E0A6E000E0B6E000EAE
:1008B8000C6E000E0D6E28EC2AF006C5BCF507C5B7
:1008C800BDF508C5BEF509C5BFF506019A51050174
:1008D800826F06019B510501836F846B856BF40E53
:1008E8008225126E010E8321136E000E8421146E70
:1008F800000E8521156EE80E166E030E176E000E9B
:10090800186E000E196EE6EC26F012C5C0F513C578
:10091800C1F514C5C2F515C5C3F5000E0501C86FAC
:10092800000EC96F000ECA6F000ECB6FBB6B0601BD
:10093800BC51D8B4A2EF04F0A4EF04F0DAEF04F04D
:1009480068510501C05D060169510501C1590601DB
:100958006A510501C25906016B510501C359D8A056
:10096800B8EF04F0BAEF04F0C4EF04F068C6C8F5B5
:1009780069C6C9F56AC6CAF56BC6CBF5D8EF04F0E7
:10098800C0510601685D0501C86FC151060169596A
:100998000501C96FC25106016A590501CA6FC351E1
:1009A80006016B590501CB6F010EBB6FC8C506F573
:1009B800C9C507F5CAC508F5CBC509F5BBC50AF50C
:1009C800BCC50BF5BDC50CF5BEC50DF5BFC50EF50F
:1009D80048EC30F02BEC32F006C582F507C583F5FC
:1009E80008C584F509C585F519EC32F006500501EE
:1009F800825DD06F07508359D16F08508459D26FE8
:100A080009508559D36FD351D2110BE1610ED05DD6
:100A1800EA0ED159D8A013EF05F015EF05F01DEF38
:100A280005F0600ED06FEA0ED16F000ED26F000E87
:100A3800D36FE851D8B423EF05F025EF05F036EF72
:100A480005F0D8C568F6D9C569F6DAC56AF6DBC512
:100A58006BF6010E0601BC6FD0C59AF6D1C59BF6A0
:100A680038EF05F00601BC6BC50E096EFD0E0A6E67
:100A7800A0EC2CF00501E8511F6E206A216A226A59
:100A8800F5EC23F0E00E096EFF0E0A6EA0EC2CF0D8
:100A9800D8C51FF5D9C520F5DAC521F5DBC522F57E
:100AA800F5EC23F0AF0E096EFF0E0A6EA0EC2CF0E9
:100AB800D0C51FF5D1C520F5D2C521F5D3C522F57E
:100AC800F5EC23F08A0E096EFF0E0A6EA0EC2CF0EE
:100AD800C8C51FF5C9C520F5CAC521F5CBC522F57E
:100AE800F5EC23F0BB0E096EFF0E0A6EA0EC2CF09D
:100AF800BCC51FF5BDC520F5BEC521F5BFC522F58E
:100B0800F5EC23F0010E096EFF0E0A6EA0EC2CF036
:100B180007EC32F006C51FF507C520F508C521F515
:100B280009C522F5F5EC23F03B0E096EFF0E0A6E9F
:100B3800A0EC2CF0E1C61FF5E2C620F5216A226A76
:100B4800F5EC23F03CEC32F00501E851D8A4AFEF06
:100B580005F0B1EF05F0B9EF05F04E0E096EFA0E8B
:100B68000A6EA0EC2CF03CEC32F0E1C606F5E2C6C9
:100B780007F5086A096ADCC50AF5DDC50BF5DEC5A7
:100B88000CF5DFC50DF528EC2AF0F40E0624126EDC
:100B9800010E0720136E000E0820146E000E0920A7
:100BA800156EE80E166E030E176E000E186E000E08
:100BB800196EE6EC26F012C5C4F513C5C5F514C5C3
:100BC800C6F515C5C7F50501E851D8B4EEEF05F02F
:100BD800F0EF05F006EF06F0C451D825066EC551B2
:100BE800D921076EC651DA21086EC751DB21096E7B
:100BF800C4C50AF5C5C50BF5C6C50CF5C7C50DF5C1
:100C0800A4EC30F0AAEC31F0D6EF08F05EEC28F056
:100C1800D6EF08F07AEC2CF0D6EF08F020EE02F0D0
:100C28008051D9268151DA22080EDE18DE10D8A4A8
:100C380020EF06F022EF06F016EF07F020EE07F09F
:100C48008051D9268151DA22DF50826F20EE06F0DA
:100C58008051D9268151DA22DF50836F8251F36F98
:100C680083C5F4F520EE09F08051D9268151DA22A6
:100C7800DF50826F20EE08F08051D9268151DA22A8
:100C8800DF50836F8251F56F83C5F6F520EE0BF0C8
:100C98008051D9268151DA22DF50826F20EE0AF086
:100CA8008051D9268151DA22DF50836F8251F76F44
:100CB80083C5F8F520EE0DF08051D9268151DA224E
:100CC800DF50826F20EE0CF08051D9268151DA2254
:100CD800DF50836F8251F96F83C5FAF5F30E066E04
:100CE800050E076EA6EC32F00501B86F100E096EFE
:100CF800FD0E0A6EA0EC2CF0F3C51FF5F4C520F527
:100D0800216A226AF5EC23F0FC0E096EFF0E0A6ECA
:100D1800A0EC2CF0F5C51FF5F6C520F5216A226A6E
:100D2800F5EC23F0A90E096EFF0E0A6EA0EC2CF06C
:100D3800F7C51FF5F8C520F5216A226AF5EC23F0FE
:100D4800FC0E096EFF0E0A6EA0EC2CF0F9C51FF51B
:100D5800FAC520F5216A226AF5EC23F00501B8519D
:100D6800D8B4B9EF06F0BBEF06F0C3EF06F0290ED2
:100D7800096EFE0E0A6EA0EC2CF0C9EF06F0A80E64
:100D8800096EFA0E0A6EA0EC2CF03CEC32F0E00E84
:100D9800066E050E076ECDEC2FF0380E096EFD0EAF
:100DA8000A6EA0EC2CF0E0C51FF5E1C520F5216A1C
:100DB800226AF5EC23F0FC0E096EFF0E0A6EA0EC19
:100DC8002CF0E2C51FF5E3C520F5216A226AF5EC8F
:100DD80023F0A90E096EFF0E0A6EA0EC2CF0E4C5F4
:100DE8001FF5E5C520F5216A226AF5EC23F0FC0E13
:100DF800096EFF0E0A6EA0EC2CF0E6C51FF5E7C5DC
:100E080020F5216A226AF5EC23F0EF0E096EFF0E39
:100E18000A6EA0EC2CF03CEC32F0030E04EC31F03E
:100E2800D6EF08F0020EF5EC30F0D6EF08F020EE21
:100E380002F08051D9268151DA22080EDE18DE1020
:100E4800D8A429EF07F02BEF07F048EF08F020EEC1
:100E580008F08051D9268151DA22DF50826F82C58D
:100E680083F5846B856B866B85C586F584C585F5AA
:100E780083C584F5836B20EE07F08051D926815114
:100E8800DA22DF50876F87C588F5896B8A6B8B6B91
:100E980089C58BF588C58AF5896B886B20EE06F0C5
:100EA8008051D9268151DA22DF508C6F8CC58DF59F
:100EB8008E6B8F6B906B8DC590F58F6B8E6B8D6B7A
:100EC80088518D11916F89518E11926F8A518F11AE
:100ED800936F8B519011946F83519111956F845139
:100EE8009211966F85519311976F86519411986F4F
:100EF80020EE09F08051D9268151DA22DF50996F0E
:100F080099519511AE6F9651AF6F9751B06F985137
:100F1800B16F20EE0CF08051D9268151DA22DF50D2
:100F2800826F82C583F5846B856B866B85C586F574
:100F380084C585F583C584F5836B20EE0BF080515D
:100F4800D9268151DA22DF50876F87C588F5896BEA
:100F58008A6B8B6B89C58BF588C58AF5896B886B1D
:100F680020EE0AF08051D9268151DA22DF508C6FA9
:100F78008CC58DF58E6B8F6B906B8DC590F58F6BD7
:100F88008E6B8D6B88518D11916F89518E11926F77
:100F98008A518F11936F8B519011946F83519111D6
:100FA800956F84519211966F85519311976F865161
:100FB8009411986F20EE0DF08051D9268151DA22D4
:100FC800DF50996F99519511B26F9651B36F975140
:100FD800B46F9851B56F750E096EFC0E0A6EA0ECD1
:100FE8002CF0AEC51FF5AFC520F5B0C521F5B1C5CC
:100FF80022F5F5EC23F08C0E096EFE0E0A6EA0ECBD
:101008002CF0B2C51FF5B3C520F5B4C521F5B5C59B
:1010180022F5F5EC23F0D20E096EFB0E0A6EA0EC59
:101028002CF03CEC32F0BB0E096EFC0E0A6EA0EC04
:101038002CF010EC32F006C51FF507C520F508C5E1
:1010480021F509C522F5F5EC23F08C0E096EFE0E8C
:101058000A6EA0EC2CF007EC32F006C51FF507C5A8
:1010680020F508C521F509C522F5F5EC23F0EF0EAA
:10107800096EFF0E0A6EA0EC2CF03CEC32F00F0E5D
:1010880004EC31F0D6EF08F0020EF5EC30F0D6EFB4
:1010980008F04DEC2BF0D6EF08F020EE02F080516E
:1010A800D9268151DA22DE04DE10D8A45EEF08F0DA
:1010B80060EF08F06EEF08F020EE06F08051D926B8
:1010C8008151DA22DF50A1EC2FF0050E04EC31F04B
:1010D800D6EF08F0020EF5EC30F0D6EF08F0FF007E
:1010E800D6EF08F0010E0601BF6FD6EF08F082ECCC
:1010F8002EF00009D8B483EF08F086EF08F0010E4F
:1011080087EF08F0000EE6EC30F0D6EF08F0B0EC10
:1011180020F0D6EF08F0030EF5EC30F0D6EF08F02B
:10112800050120EE01F08051D9268151DA22DF50E5
:10113800010AD8B426EF01F0030AD8B40AEF06F082
:10114800010AD8B412EF06F0070AD8B44DEF08F038
:10115800010AD8B451EF08F0030AD8B473EF08F0C5
:10116800010AD8B476EF08F00F0AD8B47BEF08F07C
:10117800010AD8B48BEF08F0030AD8B4D6EF08F008
:10118800010AD8B42AEF01F0070AD8B418EF02F020
:10119800020AD8B40EEF06F0010AD8B41BEF07F024
:1011A8008FEF08F012002DEF09F040EC31F0000944
:1011B800D8A4E1EF08F0E3EF08F0ECEF08F006013F
:1011C800AE51D8B4EAEF08F0ECEF08F0BCEF0DF040
:1011D8000601AE6B010EB16F2BEC32F006C5C8F7F5
:1011E80007C5C9F708C5CAF709C5CBF7020E060136
:1011F800B26FBCEF0DF05950D8A405EF09F007EF16
:1012080009F00FEF09F0B051D8B40DEF09F00FEF66
:1012180009F013EF09F00601B26BBCEF0DF0C8C777
:101228000AF5C9C70BF5CAC70CF5CBC70DF516ECFF
:1012380028F00D500C100BE1B80E0A5C0B0E0B5881
:10124800D8A029EF09F02BEF09F0BCEF0DF00FEF54
:1012580009F00601B251396E3A6A3A50000AD8B418
:1012680038EF09F00FEF09F03950000AD8B4D9EF78
:1012780008F0010AD8B4FAEF08F0030AD8B4FFEF6F
:1012880008F00FEF09F05950D8B44DEF09F04FEFBF
:1012980009F0DEEF0DF0596AAF51D8B456EF09F0F6
:1012A80058EF09F0BEEF09F0AD51D8A45EEF09F090
:1012B80060EF09F0BEEF09F08AC688F68BC689F69A
:1012C800856B000E846F2A0E096EFC0E0A6EC6EC42
:1012D8002CF01CC61FF51DC620F51EC621F51FC61D
:1012E80022F5A8EC22F0F10E096EFF0E0A6EC6EC8C
:1012F8002CF018C61FF519C620F51AC621F51BC60D
:1013080022F5A8EC22F0670E096EFF0E0A6EC6ECF5
:101318002CF040C61FF541C620F542C621F543C64C
:1013280022F5A8EC22F0600E096EFF0E0A6EC6ECDC
:101338002CF03CC61FF53DC620F53EC621F53FC63C
:1013480022F5A8EC22F0E50E096EFF0E0A6EC6EC37
:101358002CF07EC61FF57FC620F5216A226AA8EC0C
:1013680022F043EC32F0AAEC32F0010E0601B06F25
:10137800DEEF0DF0AD51D8B4C4EF09F0C6EF09F0B7
:1013880026EF0AF0960E066E050E076EBFEC2AF0E1
:1013980096C586F697C587F686C68AF687C68BF6FB
:1013A8008AC688F68BC689F69CC528F69DC529F697
:1013B8009EC52AF69FC52BF628C630F629C631F6F3
:1013C8002AC632F62BC633F698C52CF699C52DF6E3
:1013D8009AC52EF69BC52FF628C6D0F729C6D1F791
:1013E8002AC6D2F72BC6D3F72CC6CCF72DC6CDF715
:1013F8002EC6CEF72FC6CFF7000E0601386F000EA7
:10140800396F000E3A6F000E3B6FAC6B000E406FE9
:10141800000E416F000E426F000E436F000E3C6FCE
:10142800000E3D6F000E3E6F000E3F6F816B000E89
:10143800806F7F6B000E7E6F0601856B000E846FD8
:10144800B7EF09F0AB51D8A42CEF0AF02EEF0AF051
:1014580030EF0AF0E4EC25F07AC686F67BC687F60C
:1014680006018A51865D396E8B5187593A6E000E96
:1014780039243B6E040E3A203C6EFF0E3B140501E6
:10148800646F030E3C14656F20C67FF521C680F596
:1014980022C681F523C682F524C683F525C684F5C0
:1014A80026C685F527C686F5E90E645D030E6559DF
:1014B800D8A061EF0AF063EF0AF07DEF0AF09EEC26
:1014C80031F00009D8B46BEF0AF06DEF0AF07DEF48
:1014D8000AF020EC30F006C58AF607C58BF6DAEC80
:1014E8002EF006C528F607C529F608C52AF609C547
:1014F8002BF630C61CF631C61DF632C61EF633C6AC
:101508001FF67FC518F680C519F681C51AF682C57B
:101518001BF62CC6C0F72DC6C1F72EC6C2F72FC6BC
:10152800C3F783C514F684C515F685C516F686C5B2
:1015380017F60701C0510601145D406F0701C1513C
:1015480006011559416F0701C25106011659426F2C
:101558000701C35106011759436F1C51185D3C6FB1
:101568001D5119593D6F1E511A593E6F1F511B5974
:101578003F6F8AC606F58BC607F586C608F587C687
:1015880009F58BEC25F006C580F607C581F606013E
:101598008A51865D396E8B5187593A6E000E39240F
:1015A8003B6E040E3A203C6EFF0E3B147E6F030E1A
:1015B8003C147F6F8AC688F68BC689F67FC5D0F73C
:1015C80080C5D1F781C5D2F782C5D3F783C5CCF7DB
:1015D80084C5CDF785C5CEF786C5CFF7E30E096E6E
:1015E800FD0E0A6EC6EC2CF0E6C61FF5E7C620F520
:1015F800216A226AA8EC22F03C0E096EFC0E0A6EE3
:10160800C6EC2CF01CC61FF51DC620F51EC621F51C
:101618001FC622F5A8EC22F0F10E096EFF0E0A6E25
:10162800C6EC2CF018C61FF519C620F51AC621F508
:101638001BC622F5A8EC22F0EF0E096EFE0E0A6E0C
:10164800C6EC2CF038C61FF539C620F53AC621F588
:101658003BC622F5A8EC22F02B0E096EFF0E0A6E8F
:10166800C6EC2CF00601AC511F6E206A216A226A72
:10167800A8EC22F0680E096EFF0E0A6EC6EC2CF07C
:1016880040C61FF541C620F542C621F543C622F5DE
:10169800A8EC22F0600E096EFF0E0A6EC6EC2CF064
:1016A8003CC61FF53DC620F53EC621F53FC622F5CE
:1016B800A8EC22F09D0E096EFF0E0A6EC6EC2CF007
:1016C80080C61FF581C620F5216A226AA8EC22F09F
:1016D800E50E096EFF0E0A6EC6EC2CF07EC61FF5ED
:1016E8007FC620F5216A226AA8EC22F043EC32F08A
:1016F80020EF0AF07EC660F57FC661F50501626BD2
:10170800636B60C539F561C53AF5D89039363A3614
:10171800170E39248C6F000E3A208D6FAA0E876F32
:10172800550E886F810E896F8D518A6F8CC58BF528
:1017380099EC32F0396E050E3960A5EF0BF0A7EF82
:101748000BF0A9EF0BF0DEEF0DF09CEC32F006C5C4
:1017580082F607C583F682C606F583C607F589C5EE
:1017680008F5D3EC2BF006C582F607C583F682C6CA
:1017780006F583C607F58AC508F5D3EC2BF006C530
:1017880082F607C583F682C606F583C607F58BC5BC
:1017980008F5D3EC2BF006C582F607C583F6870E4D
:1017A800076E050E086E050E096E73EC2FF0020E1B
:1017B8000601B06FDEEF0DF00501A06B660EA025E7
:1017C800D96EDA6A050EDA223BC6DFF4A02B660E64
:1017D800A025D96EDA6A050EDA223AC6DFF4A02B04
:1017E800660EA025D96EDA6A050EDA2239C6DFF44C
:1017F800A02B660EA025D96EDA6A050EDA2238C645
:10180800DFF4A02B660EA025D96EDA6A050EDA225F
:10181800ACC6DFF4A02B660EA025D96EDA6A050ED9
:10182800DA2206017E51396E7F513A6E3B6A3C6A74
:10183800190E24EF0CF0D8903C323B323A32393250
:10184800E82E1FEF0CF03950DF6E0501A02B660E55
:10185800A025D96EDA6A050EDA2206017E51396EA4
:101868007F513A6E3B6A3C6A110E40EF0CF0D890FB
:101878003C323B323A323932E82E3BEF0CF03950E9
:10188800DF6E0501A02B660EA025D96EDA6A050E5B
:10189800DA2206017F51DF6E0501A02B660EA02516
:1018A800D96EDA6A050EDA227EC6DFF4A02B660E40
:1018B800A025D96EDA6A050EDA2243C6DFF4A02B1A
:1018C800660EA025D96EDA6A050EDA2242C6DFF462
:1018D800A02B660EA025D96EDA6A050EDA2241C65B
:1018E800DFF4A02B660EA025D96EDA6A050EDA227F
:1018F80040C6DFF4A02B660EA025D96EDA6A050E65
:10190800DA223FC6DFF4A02B660EA025D96EDA6A6C
:10191800050EDA223EC6DFF4A02B660EA025D96E8E
:10192800DA6A050EDA223DC6DFF4A02B660EA02582
:10193800D96EDA6A050EDA223CC6DFF4A02B660EF1
:10194800A025D96EDA6A050EDA2206018151DF6E0A
:101958000501A02B660EA025D96EDA6A050EDA22DB
:1019680080C6DFF4A02B660EA025D96EDA6A050EB4
:10197800DA2237C6DFF4A02B660EA025D96EDA6A04
:10198800050EDA2236C6DFF4A02B660EA025D96E26
:10199800DA6A050EDA2235C6DFF4A02B660EA0251A
:1019A800D96EDA6A050EDA2234C6DFF4A02B99EC78
:1019B80032F0396E170E3960E4EF0CF0E6EF0CF0F8
:1019C800E8EF0CF0DEEF0DF00501946B160E946550
:1019D800F0EF0CF0F2EF0CF0F4EF0CF00AEF0DF072
:1019E80082C606F583C607F5660E9425D96EDA6AAF
:1019F800050EDA22DF50086ED3EC2BF006C582F60E
:101A080007C583F60501942BEAEF0CF0660E076E06
:101A1800050E086E170E096E73EC2FF006017E5145
:101A28007F11D8B41AEF0DF01CEF0DF020EF0DF078
:101A3800030EB06FDEEF0DF0040EB06FDEEF0DF0A9
:101A48008651881907E187518919D8A42EEF0DF01E
:101A580030EF0DF032EF0DF020EF0DF088C60FF5E6
:101A680089C610F5900E116E050E126E43EC2EF01D
:101A780084C606F585C607F592C508F593C509F528
:101A88008E0E0A6E050E0B6E4FEC31F099EC32F0AB
:101A9800396E020E396053EF0DF055EF0DF057EF28
:101AA8000DF0DEEF0DF00501956B010E95655FEF0A
:101AB8000DF061EF0DF063EF0DF079EF0DF082C6D8
:101AC80006F583C607F58E0E9525D96EDA6A050EDA
:101AD800DA22DF50086ED3EC2BF006C582F607C574
:101AE80083F60501952B59EF0DF08E0E076E050E46
:101AF800086E020E096E73EC2FF0010E06018825A0
:101B0800396E000E89213A6EFF0E3914886F030E64
:101B18003A14896F844B852BDEEF0DF08351050154
:101B28007D6F82C67EF599EC32F0396E020E39600F
:101B3800A0EF0DF0A2EF0DF0A4EF0DF0DEEF0DF029
:101B48007D0E076E050E086E020E096E73EC2FF0FF
:101B580006017E517F11D8A4B4EF0DF0B7EF0DF058
:101B6800010EB8EF0DF0000EAF6FB06BDEEF0DF0A9
:101B78000601B051396E3A6A3A50000AD8B4C7EF34
:101B88000DF0B9EF0DF03950000AD8B447EF09F05D
:101B9800010AD8B47EEF0BF0030AD8B4E0EF0BF0DB
:101BA800010AD8B424EF0DF0070AD8B492EF0DF06B
:101BB800B9EF0DF01200F0C484F8F0A8E6EF0DF0CC
:101BC800E9EF0DF0010EEAEF0DF0000E0801966F37
:101BD800F0689651D8B4F3EF0DF0F6EF0DF0010E62
:101BE800F7EF0DF0000E0601E86F22EC31F0080166
:101BF800916BC0760400110E0601EA6F3C0EE96F86
:101C0800CB0EE82EFED7E92FFCD7EA2FFAD708012A
:101C1800912B090E916513EF0EF015EF0EF0FDEF05
:101C28000DF0C096A0EC2EF080EC30F0AF0E096EEF
:101C3800FB0E0A6EA0EC2CF03CEC32F0000E066EA7
:101C4800650E076E6DEC32F058EC32F013EC31F0A3
:101C580090EC32F0D6EC30F064EC24F021EC20F07B
:101C6800E1EC2DF05CEC2FF0D80E066E070E076E37
:101C78007AEC2BF073EC29F008019651D8B447EFB1
:101C88000EF04AEF0EF0010E4BEF0EF0000EC6EC10
:101C980030F008019651D8A454EF0EF056EF0EF02C
:101CA80058EF0EF0F7EC2FF0D68CD68E5D0E096E3D
:101CB800FE0E0A6EA0EC2CF03CEC32F0C088A4ECCE
:101CC80032F02BEC32F006C592F807C593F808C538
:101CD80094F809C595F8430E096EFC0E0A6EA0EC3F
:101CE8002CF0400E1F6E1F0E206E000E216E000E8F
:101CF800226EF5EC23F0ED0E096EFF0E0A6EA0ECD5
:101D08002CF03CEC32F0F40E096EFB0E0A6EA0ECDF
:101D18002CF00801845102EC2EF03CEC32F0E80E75
:101D28000801806F030E816F000E826F000E836FB3
:101D3800E0EF0EF0040092C80AF593C80BF594C8BA
:101D48000CF595C80DF516EC28F0080180510A5CD1
:101D580081510B5882510C5883510D58D8A0B7EFB8
:101D68000EF0B9EF0EF0DEEF0EF0F10E096EFD0E7B
:101D78000A6EA0EC2CF092C80AF593C80BF594C82B
:101D88000CF595C80DF516EC28F00AC51FF50BC51E
:101D980020F50CC521F50DC522F5F5EC23F03CEC3A
:101DA80032F0E80E08018027030E8123000E8223FB
:101DB800000E83232AEC2CF092C80AF593C80BF581
:101DC80094C80CF595C80DF516EC28F00D500C10BC
:101DD8000BE1400E0A5C1F0E0B58D8A0F6EF0EF070
:101DE800F8EF0EF09EEF0EF0EFEC2AF0000178818C
:101DF80004002AEC2CF00601BB51D8A406EF0FF022
:101E080008EF0FF0C1EF0FF082EC2EF00009D8B404
:101E180010EF0FF012EF0FF0C1EF0FF02BEC32F0D4
:101E28000601CF51065CD0510758D1510858D251FC
:101E38000958D8A022EF0FF024EF0FF0C1EF0FF0F0
:101E4800010E206EF40E1F6E73EC1DF01FC585F891
:101E580020C586F821C587F822C588F8080185516C
:101E6800861187118811D8B43CEF0FF03EEF0FF0C0
:101E78004EEF0FF0855106016427080186510601CF
:101E88006523080187510601662308018851060168
:101E98006723BA2B2BEC32F0E80E06240601CF6F2D
:101EA800030E0720D06F000E0820D16F000E092006
:101EB800D26F020EBA6563EF0FF065EF0FF0C1EF56
:101EC8000FF0BA51D8A46BEF0FF06DEF0FF078EF69
:101ED8000FF0000E0801896F000E8A6F000E8B6FDD
:101EE800000E8C6F8FEF0FF064C612F565C613F500
:101EF80066C614F567C615F5BA51166E176A186ADC
:101F0800196AE6EC26F012C589F813C58AF814C5D3
:101F18008BF815C58CF889C81FF58AC820F58BC8B9
:101F280021F58CC822F530EC22F0700E096EFD0EFA
:101F38000A6EA0EC2CF089C81FF58AC820F58BC85A
:101F480021F58CC822F5F5EC23F0B50E096EFF0ECD
:101F58000A6EA0EC2CF068EC32F006C52FF507C528
:101F680030F5000E30BEFF0E316E326E5DEC2AF099
:101F78003CEC32F0010E0601BB6FA9EC32F022EC0A
:101F880032F006C51AF507C51BF508C51CF509C5C5
:101F98001DF50601C151D8A4D4EF0FF0D7EF0FF00B
:101FA800010ED8EF0FF0000E37EC1EF0F2EC29F01E
:101FB80038EC21F0A6EC19F082EC2EF07CEC32F033
:101FC800D7EC08F0EAEC28F09CEF11F0E851D8B40F
:101FD800F0EF0FF0F2EF0FF004EF10F082EC2EF0BC
:101FE8000009D8A4FAEF0FF0FCEF0FF004EF10F09F
:101FF8009FEC32F038EC27F00601E86BFCEF0EF0AE
:102008000601C051D8B40BEF10F00DEF10F01CEF23
:1020180010F02BEC32F006C56CF607C56DF608C556
:102028006EF609C56FF6020E0601C16FFCEF0EF0E1
:1020380082EC2EF00009D8A424EF10F026EF10F05F
:10204800FCEF0EF070C60AF571C60BF572C60CF5FA
:1020580073C60DF516EC28F00D500DE1900E0A5CD4
:102068005F0E0B58010E0C58D8A03DEF10F03FEF53
:1020780010F0FCEF0EF0FC0E096EFC0E0A6EA0ECE0
:102088002CF0900E1F6E5F0E206E010E216E000E5A
:10209800226EF5EC23F04B0E096EFD0E0A6EA0ECD5
:1020A8002CF03CEC32F038EC27F0FCEF0EF0E2ECD0
:1020B8002FF00009D8B463EF10F065EF10F06FEF60
:1020C80010F086EC31F00009D8B46DEF10F06FEF26
:1020D80010F079EF10F02BEC32F006C56CF607C55E
:1020E8006DF608C56EF609C56FF682EC2EF000098C
:1020F800D8B481EF10F083EF10F087EF10F00601ED
:10210800BF6BFCEF0EF00601E851D8B48EEF10F06B
:1021180090EF10F0BEEF10F0E2EC2FF00009D8B409
:1021280098EF10F09AEF10F0FCEF0EF086EC31F01B
:102138000009D8A4A2EF10F0A4EF10F0FCEF0EF005
:102148005C0E096EFC0E0A6EA0EC2CF087EC32F0E7
:102158000009D8B4B2EF10F0B4EF10F0BAEF10F0F5
:10216800A40E096EFC0E0A6EA0EC2CF03CEC32F0CA
:10217800FCEF0FF0BF51D8A4C4EF10F0C6EF10F079
:10218800DEEF10F06CC60AF56DC60BF56EC60CF5E1
:102198006FC60DF516EC28F00D500C100BE1200E53
:1021A8000A5C4E0E0B58D8A0DCEF10F0DEEF10F0F2
:1021B800FCEF0EF0E2EC2FF00009D8B4E6EF10F0D7
:1021C800E8EF10F0FCEF0EF086EC31F00009D8A42F
:1021D800F0EF10F0F2EF10F0FCEF0EF057EF10F008
:1021E80031EC31F00009D8B4FCEF10F0FEEF10F03C
:1021F8003BEF11F0E70E096EFC0E0A6EA0EC2CF016
:102208002BEC32F006C51FF507C520F508C521F5EA
:1022180009C522F5F5EC23F03C0E096EFF0E0A6E97
:10222800A0EC2CF0E1C61FF5E2C620F5216A226A6F
:10223800F5EC23F0A10E096EFE0E0A6EA0EC2CF050
:102248000601BD51D8A42BEF11F02EEF11F0010EAD
:102258002FEF11F0000E1F6E206A216A226AF5EC3A
:1022680023F03CEC32F0EFEC2AF0FCEF0EF082ECBD
:102278002EF00009D8A443EF11F045EF11F0FCEF60
:102288000EF093EC32F00009D8A44DEF11F04FEFA7
:1022980011F0FCEF0EF0E2EC2FF00009D8B457EF84
:1022A80011F059EF11F0FCEF0EF0B7EC2FF0000928
:1022B800D8B461EF11F063EF11F0FCEF0EF06EECA3
:1022C80030F00009D8A46BEF11F06DEF11F0FCEFBE
:1022D8000EF0010E126E000E136E000E146E000E3C
:1022E800156E53EC2CF012C58DF813C58EF814C575
:1022F8008FF815C590F8080190518F1108E18E05E7
:10230800D8A089EF11F08BEF11F093EF11F0FF0EC9
:102318008D6F000E8E6F000E8F6F000E906F8D51B7
:102328005EEC31F0B3EC29F0A8EC32F0FCEF0EF0E3
:102338000601C151E96FEA6BEA51000AD8B4A7EF68
:1023480011F0F4EF10F0E951000AD8B4F4EF10F0EE
:10235800010AD8B4EAEF0FF0030AD8B45BEF10F023
:10236800F4EF10F00DEF00F00501686F05016851FA
:10237800D8A4C1EF11F0C3EF11F0C5EF11F010EFC1
:1023880014F01F50235C2050245821502558225007
:102398002658D8A0D2EF11F0D4EF11F0DEEF11F0EB
:1023A8001FC579F520C57AF521C57BF522C57CF5D1
:1023B800EAEF11F023501F5C796F245020587A6F90
:1023C800255021587B6F265022587C6F27502810A3
:1023D80029102A10D8B4F3EF11F0F5EF11F054EFEB
:1023E80012F0060104510501795D606F060105517F
:1023F80005017A59616F0601065105017B59626F23
:102408000601075105017C59636F60C506F561C572
:1024180007F562C508F563C509F527C50AF528C596
:102428000BF529C50CF52AC50DF52FEC29F006C5C5
:102438006DF507C56EF508C56FF509C570F527C5B3
:102448002CF528C52DF529C52EF52AC52FF5D890C8
:102458002F322E322D322C3205016D512C5C6E51EB
:102468002D586F512E582F50800A306E7051800AA7
:102478003058D8B042EF12F044EF12F04CEF12F09F
:1024880027506D5F28506E5B29506F5B2A50705B38
:102498006DC508F66EC509F66FC50AF670C50BF668
:1024A8000601A051D8A45BEF12F05DEF12F06BEFBC
:1024B80012F079C50CF67AC50DF67BC50EF67CC50B
:1024C8000FF6010EA06F010EA16F10EF14F02B5044
:1024D800D8A471EF12F073EF12F07EEF12F02750CC
:1024E800281029102A10D8A47CEF12F07EEF12F0E1
:1024F80088EF12F079C50CF67AC50DF67BC50EF695
:102508007CC50FF610EF14F00501795106010C5D3A
:1025180005017A5106010D5905017B5106010E5935
:1025280005017C5106010F59D8A09DEF12F09FEFCD
:1025380012F0A1EF12F07EEF12F00C510501795D57
:10254800696F06010D5105017A596A6F06010E512E
:1025580005017B596B6F06010F5105017C596C6FA2
:10256800060100510C5D01510D5902510E590351DC
:102578000F59D8A0C2EF12F0C4EF12F0CEEF12F04C
:1025880027C571F528C572F529C573F52AC574F5EF
:10259800E1EF12F00C51005D0501716F06010D515C
:1025A80001590501726F06010E5102590501736F39
:1025B80006010F5103590501746F0501715172111C
:1025C80073117411D8A4EBEF12F0EDEF12F0F5EFE0
:1025D80012F027C571F528C572F529C573F52AC506
:1025E80074F527C52CF528C52DF529C52EF52AC55E
:1025F8002FF5D8902F322E322D322C3227502C2402
:10260800306E28502D20316E29502E20326E2A50DF
:102618002F20336ED8903034346E3134356E3234E6
:10262800366E3334376E6951345C6A5135586B51A4
:1026380036586C513758D8B024EF13F026EF13F002
:1026480028EF13F07EEF12F069512C6E6A512D6E4F
:102658006B512E6E6C512F6E306A316A326A336A52
:10266800070ED8902C362D362E362F36303631368A
:1026780032363336E82E35EF13F02CC506F52DC566
:1026880007F52EC508F52FC509F530C50AF531C57A
:102698000BF532C50CF533C50DF571510E6E72513F
:1026A8000F6E7351106E7451116E126A136A146AA8
:1026B800156AB8EC21F006C534F507C535F508C527
:1026C80036F509C537F50AC538F50BC539F50CC512
:1026D8003AF50DC53BF534C575F535C576F536C5FE
:1026E80077F537C578F5050178BF86EF13F078518F
:1026F8007711761109E16F0E755DD8A086EF13F09A
:1027080088EF13F098EF13F078BF96EF13F0785135
:102718007711761109E1940E755DD8A096EF13F044
:1027280098EF13F0BDEF13F006019C6B9D51D8A4F0
:10273800A0EF13F0A2EF13F07EEF12F09E51D8A491
:10274800A8EF13F0AAEF13F0AFEF13F0D86B800ED9
:10275800D76F7EEF12F0D5C606F5D6C607F5086A1C
:10276800096A1EEC2BF006C5D7F607C5D8F67EEF2A
:1027780012F0070E2C6ED7C606F5D8C607F5000E60
:1027880007BEFF0E086E096E75C50AF576C50BF50E
:1027980077C50CF578C50DF528EC2AF02C66D7EF2F
:1027A80013F0DFEF13F0093409320832073206322A
:1027B8002C2ED2EF13F006C564F507C565F508C5DC
:1027C80066F509C567F564C506F565C507F566C507
:1027D80008F567C509F51EEC2BF006C5D7F607C541
:1027E800D8F6010E06019D6F010E9C6FD7C6D3F671
:1027F800D8C6D4F679C50CF67AC50DF67BC50EF6A3
:102808007CC50FF6020EA1610CEF14F00EEF14F068
:1028180010EF14F0020EA16F12002BEC32F020EE34
:102828001AF00C50D9260D50DA2206C5DEF407C579
:10283800DEF408C5DEF409C5DEF4D6EF15F0AA0EFD
:102848000E18D8A42AEF14F02CEF14F007EF16F0A6
:1028580020EE1EF00C50D9260D50DA22DF6A20EE49
:102868001FF00C50D9260D50DA22DF6A0CC5D9F4B6
:102878000DC5DAF4010EDF6E07EF16F0550E0E18CF
:10288800D8A449EF14F04BEF14F053EF14F00CC533
:10289800D9F40DC5DAF4020EDF6E07EF16F0AA0EB2
:1028A8000E18D8A45AEF14F05CEF14F064EF14F08B
:1028B8000CC5D9F40DC5DAF4010EDF6E07EF16F07A
:1028C8000CC5D9F40DC5DAF4DF6A07EF16F020EE6F
:1028D80001F00C50D9260D50DA220EC5DFF49CEC1D
:1028E80032F020EE16F00C50D9260D50DA2206C52B
:1028F800DEF407C5DDF420EE16F00C50D9260D5095
:10290800DA22DEC406F5DDC407F50EC508F5D3ECFA
:102918002BF020EE16F00C50D9260D50DA2206C501
:10292800DEF407C5DDF40CC5D9F40DC5DAF4030EE1
:10293800DF6E07EF16F00E50106E0F6A20EE02F0F1
:102948000C50D9260D50DA220FC5DEF410C5DDF47F
:1029580020EE16F00C50D9260D50DA22DEC406F50A
:10296800DDC407F50EC508F5D3EC2BF020EE16F004
:102978000C50D9260D50DA2206C5DEF407C5DDF461
:102988000CC5D9F40DC5DAF4040EDF6E07EF16F0A6
:1029980020EE02F00C50D9260D50DA220E50DE122D
:1029A800000EDD1220EE16F00C50D9260D50DA225A
:1029B800DEC406F5DDC407F50EC508F5D3EC2BF02B
:1029C80020EE16F00C50D9260D50DA2206C5DEF49A
:1029D80007C5DDF420EE04F00C50D9260D50DA229C
:1029E800DE6ADD6A20EE02F00C50D9260D50DA229C
:1029F800010EDB5009E1110EDE5CD8A006EF15F0E0
:102A080008EF15F018EF15F020EE1EF00C50D9263F
:102A18000D50DA22010EDF6E0CC506F50DC507F55F
:102A28007AEC2BF007EF16F020EE02F00C50D926C6
:102A38000D50DA22DE50DE10D8B425EF15F027EF5E
:102A480015F02BEF15F0050E136E2DEF15F0060E91
:102A5800136E0CC5D9F40DC5DAF413C5DFF407EF0E
:102A680016F020EE04F00C50D9260D50DA22DEC400
:102A78000FF5DDC410F50F500C24116E10500D2009
:102A8800126E060E1124D96E000E1220DA6E0EC5D3
:102A9800DFF420EE04F00C50D9260D50DA22DE2A9D
:102AA800000EDD2220EE16F00C50D9260D50DA2249
:102AB800DEC406F5DDC407F50EC508F5D3EC2BF02A
:102AC80020EE16F00C50D9260D50DA2206C5DEF499
:102AD80007C5DDF420EE02F00C50D9260D50DA229D
:102AE80010EE04F00C50E1260D50E222DE50E65CB8
:102AF800DE50E658D8A083EF15F085EF15F007EF04
:102B080016F00CC5D9F40DC5DAF4060EDF6E07EF22
:102B180016F00E50106E0F6A20EE18F00C50D926E1
:102B28000D50DA220FC5DEF410C5DDF40CC5D9F45A
:102B38000DC5DAF4070EDF6E07EF16F020EE18F079
:102B48000C50D9260D50DA220E50DE12000EDD127E
:102B58000CC5D9F40DC5DAF4DF6A20EE16F00C5076
:102B6800D9260D50DA2210EE18F00C50E1260D503F
:102B7800E222DE50E61807E1DE50E618D8A4C7EFD7
:102B880015F0C9EF15F0CCEF15F0010E08EF16F0AF
:102B980020EE1FF00C50D9260D50DA22010EDF6E00
:102BA80007EF16F00CC5D9F40DC5DAF4DF500F6E37
:102BB800106A1050000AD8B4E4EF15F010EF15F0C1
:102BC8000F50000AD8B423EF14F0010AD8B442EF2A
:102BD80014F0030AD8B46BEF14F0010AD8B49FEFCD
:102BE80014F0070AD8B4CCEF14F0010AD8B435EFC2
:102BF80015F0030AD8B48DEF15F0010AD8B4A2EF86
:102C080015F010EF15F0000E1200110E0501746F8B
:102C1800020E756F000E766F000E776F7451751186
:102C280076117711D8A41BEF16F01DEF16F025EFDB
:102C380016F0010E746F000E756F000E766F000EA1
:102C4800776FC5C606F5C6C607F5086A096AE80EAD
:102C58000A6E030E0B6E000E0C6E000E0D6E28EC45
:102C68002AF006C56CF507C56DF508C56EF509C5EA
:102C78006FF5C9C606F5CAC607F5086A096AE80EF7
:102C88000A6E030E0B6E000E0C6E000E0D6E28EC15
:102C98002AF006C570F507C571F508C572F509C5AE
:102CA80073F505016C51705D6D5171596E51725912
:102CB8006F517359D8A063EF16F065EF16F06FEFF8
:102CC80016F070C560F571C561F572C562F573C51A
:102CD80063F577EF16F06CC560F56DC561F56EC5E7
:102CE80062F56FC563F574C52FF575C530F576C502
:102CF80031F577C532F5050ED8902F363036313696
:102D08003236E82E80EF16F02FC564F530C565F52C
:102D180031C566F532C567F5645160252F6E65517A
:102D28006121306E66516221316E67516321326EC6
:102D3800FF0E2F24126EFF0E3020136EFF0E31206F
:102D4800146EFF0E3220156E64C516F565C517F5AD
:102D580066C518F567C519F5E6EC26F012C568F5DD
:102D680013C569F514C56AF515C56BF505016851F4
:102D780069116A116B11D8A4C4EF16F0C6EF16F0EA
:102D8800CEEF16F0010E686F000E696F000E6A6FC5
:102D9800000E6B6F68C5DDF669C5DEF6DDC606F5A3
:102DA800DEC607F5086A096A74C50AF575C50BF524
:102DB80076C50CF577C50DF528EC2AF006C580F523
:102DC80007C581F508C582F509C583F50501805158
:102DD8006C252F6E81516D21306E82516E21316EBE
:102DE80083516F21326EFF0E2F24126EFF0E30209A
:102DF800136EFF0E3120146EFF0E3220156E80C543
:102E080016F581C517F582C518F583C519F5E6ECE1
:102E180026F012C578F513C579F514C57AF515C5E8
:102E28007BF50501805170252F6E81517121306E1F
:102E380082517221316E83517321326EFF0E2F241D
:102E4800126EFF0E3020136EFF0E3120146EFF0E2F
:102E58003220156E80C516F581C517F582C518F59F
:102E680083C519F5E6EC26F012C57CF513C57DF58A
:102E780014C57EF515C57FF505017B517A117911C9
:102E880009E1210E785DD8A04CEF17F04EEF17F04E
:102E980056EF17F0200E786F000E796F000E7A6FDC
:102EA800000E7B6F7F517E117D1109E1210E7C5D43
:102EB800D8A061EF17F063EF17F06BEF17F0200E53
:102EC8007C6F000E7D6F000E7E6F000E7F6F785155
:102ED80079117A117B11D8A474EF17F076EF17F0F7
:102EE8007EEF17F0010E786F000E796F000E7A6F83
:102EF800000E7B6F7C517D117E117F11D8A487EF66
:102F080017F089EF17F091EF17F0010E7C6F000EA4
:102F18007D6F000E7E6F000E7F6F78C5DBF679C57A
:102F2800DCF67CC5D9F67DC5DAF65E0E096EFD0EB7
:102F38000A6E12EC2DF0DDC61FF5DEC620F5216AFB
:102F4800226A86EC23F0DD0E096EFE0E0A6E12EC84
:102F58002DF0DDC606F5DEC607F5086A096A110E0A
:102F68000A6E020E0B6E000E0C6E000E0D6E28EC33
:102F78002AF006C51FF507C520F508C521F509C5BE
:102F880022F586EC23F0130E096EFF0E0A6E12EC82
:102F98002DF0DBC61FF5DCC620F5216A226A86EC17
:102FA80023F0C70E096EFF0E0A6E12EC2DF0D9C67B
:102FB8001FF5DAC620F5216A226A86EC23F0970EFF
:102FC800096EFF0E0A6E12EC2DF0200E1F6E000E19
:102FD800206E000E216E000E226E86EC23F051EC5E
:102FE80032F012000601A051D8B4FDEF17F0FFEF40
:102FF80017F013EF18F02150221023102410D8B422
:1030080008EF18F00AEF18F013EF18F01F5020100F
:10301800D8A411EF18F013EF18F019EF18F01FC526
:103028001FF520C520F5A5EF19F0CBC641F5CCC694
:1030380042F5CDC643F5CEC644F541504210431083
:103048004410D8A42AEF18F02CEF18F05AEF18F013
:103058001FC506F520C507F5086A096A21C50AF5DE
:1030680022C50BF523C50CF524C50DF528EC2AF06F
:10307800F40E0624126E010E0720136E000E0820AF
:10308800146E000E0920156EE80E166E030E176EEC
:10309800000E186E000E196EE6EC26F012C541F50A
:1030A80013C542F514C543F515C544F544500DE163
:1030B800800E415C510E4258010E4358D8A067EF6C
:1030C80018F069EF18F0DFEF18F00CC606F50DC61A
:1030D80007F50EC608F50FC609F5800E0A6E510EE3
:1030E8000B6E010E0C6E000E0D6E2FEC29F006C54E
:1030F80029F507C52AF508C52BF509C52CF504C619
:1031080006F505C607F506C608F507C609F5800ED3
:103118000A6E510E0B6E010E0C6E000E0D6E2FEC2A
:1031280029F006C52DF507C52EF508C52FF509C5E3
:1031380030F529502D5C256E2A502E58266E2B50BE
:103148002F58276E2C503058286E800E2524066E76
:10315800510E2620076E010E2720086E000E28202B
:10316800096E800E0A6E510E0B6E010E0C6E000E6B
:103178000D6E2FEC29F006C53DF507C53EF508C5CF
:103188003FF509C540F540503F1009E1100E3D5C80
:103198000E0E3E58D8B0D3EF18F0D5EF18F036EF32
:1031A80019F0800E3D26510E3E22010E3F22000EE0
:1031B800402236EF19F0060104510C5D316E0551BD
:1031C8000D59326E06510E59336E07510F59346E30
:1031D80031C506F532C507F533C508F534C509F517
:1031E80041C50AF542C50BF543C50CF544C50DF5B7
:1031F8002FEC29F006C535F507C536F508C537F5AE
:1032080009C538F53550415C3D6E365042583E6E22
:10321800375043583F6E38504458406E445043101E
:103228000BE1110E415C0E0E4258D8A01EEF19F0AA
:1032380020EF19F036EF19F040503F1009E1100E59
:103248003D5C0E0E3E58D8B02CEF19F02EEF19F059
:1032580036EF19F041503D2642503E2243503F225E
:103268004450402221C525F522C526F523C527F55A
:1032780024C528F5D89028322732263225323DC574
:1032880006F53EC507F53FC508F540C509F5E80E42
:103298000A6E030E0B6E000E0C6E000E0D6E28ECFF
:1032A8002AF025500624126E26500720136E275048
:1032B8000820146E28500920156E21C516F522C560
:1032C80017F523C518F524C519F5E6EC26F012C53F
:1032D80039F513C53AF514C53BF515C53CF5395014
:1032E8003A103B103C10D8A47CEF19F07EEF19F08F
:1032F80086EF19F0010E396E000E3A6E000E3B6E25
:10330800000E3C6E1F50256E2050266E276A286AD4
:103318003950255C3A5026583B5027583C5028587D
:10332800D8B099EF19F09BEF19F0A1EF19F01FC56C
:1033380039F520C53AF53B6A3C6A39C51FF53AC5E7
:1033480020F512004CC60AF54DC60BF54EC60CF515
:103358004FC60DF516EC28F00D500C1009E1110EB2
:103368000A5C020E0B58D8B0BCEF19F0BEEF19F08A
:10337800C0EF19F024EF1BF02BEC32F006C54CF629
:1033880007C54DF608C54EF609C54FF6C0EC31F035
:1033980010C562F511C563F512C564F513C565F569
:1033A800060154510501625D666F0601555105011C
:1033B8006359676F0601565105016459686F060124
:1033C800575105016559696F62C554F663C555F6CD
:1033D80064C556F665C557F66651060150270501BE
:1033E8006751060151230501685106015223050161
:1033F80069510601532366C53FF567C540F568C5A1
:1034080041F569C542F52FEC25F00601904B912B4B
:10341800915107E10A0E905DD8B015EF1AF017EF39
:103428001AF019EF1AF024EF1BF0916B000E906F51
:1034380054C66AF555C66BF556C66CF557C66DF594
:1034480050C66EF551C66FF552C670F553C671F584
:103458006AC558F66BC559F66CC55AF66DC55BF664
:10346800000E506F000E516F000E526F000E536F1A
:10347800F80E096EFE0E0A6EECEC2CF0010E060139
:1034880048251F6E000E4921206E000E4A21216E2C
:10349800000E4B21226E17EC23F07B0E096EFE0EF8
:1034A8000A6EECEC2CF06EC51FF56FC520F570C5E3
:1034B80021F571C522F517EC23F0A30E096EFF0E56
:1034C8000A6EECEC2CF06AC51FF56BC520F56CC5CF
:1034D80021F56DC522F517EC23F0E30E096EFC0EFD
:1034E8000A6EECEC2CF02BEC32F006C51FF507C584
:1034F80020F508C521F509C522F517EC23F04AEC9B
:1035080032F0FF0E060194150501726F030E0601D5
:1035180095150501736F715108E17005D8A097EFF3
:103528001AF099EF1AF0A5EF1AF06069616972C58F
:1035380006F573C507F5010E086EA4EC28F0B1EF87
:103548001AF06EC560F56FC561F572C506F573C5ED
:1035580007F5000E086EA4EC28F0010E06014827B6
:10356800000E49234A234B2392C606F593C607F556
:1035780060C508F561C509F572C547F573C548F515
:10358800D89047364836000E47240A6E0A0E48205F
:103598000B6E4FEC31F0010E06019425476E000EBC
:1035A8009521486EFF0E4714946F030E4814956FCB
:1035B800E0EF1AF0CDEC24F011EC2FF0E80E085CE7
:1035C800030E0958D8B0EBEF1AF0EDEF1AF0DEEF62
:1035D8001AF00601924B932BDF51925DE0519359FB
:1035E800D8A0F9EF1AF0FBEF1AF024EF1BF0936B59
:1035F800000E926F010EB46FE06B390EDF6F44C698
:10360800D4F745C6D5F746C6D6F747C6D7F78EC608
:103618008CF68FC68DF66AC544F66BC545F66CC543
:1036280046F66DC547F694C68EF695C68FF6020E19
:10363800B36121EF1BF023EF1BF024EF1BF0B32B3A
:1036480012000601A751D8A42CEF1BF02EEF1BF097
:10365800D3EF1BF03C6A000E3B6EDBC606F5DCC6FA
:1036680007F53B0E086E050E096EE9EC1EF006C55F
:1036780033F507C534F508C535F509C536F506012E
:10368800DB513B5CDC513C58D8A04DEF1BF04FEFB1
:103698001BF0D3EF1BF0C3512F6EC451306E316A4B
:1036A800326A2F50335C30503458315035583250CC
:1036B8003658D8A062EF1BF064EF1BF0D3EF1BF075
:1036C800010EA76F2BEC32F006C5ACF707C5ADF7B6
:1036D80008C5AEF709C5AFF7010E0701A827000E08
:1036E800A923AA23AB238B0E096EFB0E0A6E12ECDC
:1036F8002DF033C51FF534C520F535C521F536C580
:1037080022F586EC23F0E60E096EFE0E0A6E12EC28
:103718002DF0C3C61FF5C4C620F5216A226A86ECBF
:1037280023F0230E096EFF0E0A6E12EC2DF03BC536
:103738001FF53CC520F5216A226A86EC23F0FC0EB1
:10374800096EFF0E0A6E12EC2DF0DBC61FF5DCC603
:1037580020F5216A226A86EC23F0910E096EFF0E8D
:103768000A6E12EC2DF0C5C61FF5C6C620F5216AF3
:10377800226A86EC23F0CC0E096EFF0E0A6E12EC5C
:103788002DF02BEC32F006C51FF507C520F508C54E
:1037980021F509C522F586EC23F051EC32F005013C
:1037A800FE51D8A4DAEF1BF0DCEF1BF071EF1CF030
:1037B8003E6A000E3D6ED9C606F5DAC607F53D0E1F
:1037C800086E050E096EE9EC1EF006C537F507C54B
:1037D80038F508C539F509C53AF50601D9513D5CF2
:1037E800DA513E58D8A0FBEF1BF0FDEF1BF071EF4C
:1037F8001CF0C7512F6EC851306E316A326A2F5093
:10380800375C305038583150395832503A58D8A06F
:1038180010EF1CF012EF1CF071EF1CF0010E050107
:10382800FE6F650E096EFB0E0A6E12EC2DF037C5A1
:103838001FF538C520F539C521F53AC522F586ECBE
:1038480023F0E60E096EFE0E0A6E12EC2DF0C7C6C6
:103858001FF5C8C620F5216A226A86EC23F0230EDC
:10386800096EFF0E0A6E12EC2DF03DC51FF53EC520
:1038780020F5216A226A86EC23F0FC0E096EFF0E01
:103888000A6E12EC2DF0D9C61FF5DAC620F5216AAA
:10389800226A86EC23F0910E096EFF0E0A6E12EC76
:1038A8002DF0C9C61FF5CAC620F5216A226A86EC22
:1038B80023F0CC0E096EFF0E0A6E12EC2DF02BECE5
:1038C80032F006C51FF507C520F508C521F509C55D
:1038D80022F586EC23F051EC32F093EC26F012003E
:1038E800526E546A000E536E325009E1110E315C6B
:1038F800D8A081EF1CF083EF1CF085EF1CF072EF6D
:103908001DF0AA0E356E534A542A350E5324D96E2B
:10391800050E5420DA6E550EDF6E534A542A350EC2
:103928005324D96E050E5420DA6E52C5DFF4534A7B
:10393800542A350E5324D96E050E5420DA6E3250AF
:10394800DF6E534A542A350E5324D96E050E54207F
:10395800DA6E31C5DFF4534A542A4F6A000E4E6EB0
:10396800C8EF1CF04E502F24D96E4F503020DA6E1D
:10397800350E5324E16E050E5420E26EDFC4E7F4E1
:10398800534A542A4E4A4F2A31504E5C32504F58AF
:10399800D8A0D1EF1CF0D3EF1CF0B6EF1CF0370E17
:1039A8000C6E050E0D6E030E31240E6E000E3220C5
:1039B8000F6EA7EC2BF00CC54CF50DC54DF5350E6B
:1039C8005324D96E050E5420DA6E4D50DF6E534ADB
:1039D800542A350E5324D96E050E5420DA6E4CC580
:1039E800DFF4534A542A99EC32F0336E346A535058
:1039F800335C54503458D8A004EF1DF006EF1DF086
:103A08003CEF1DF0516A000E506E16EF1DF0350E9A
:103A18005024D96E050E5120DA6EDF50F6EC2EF0E8
:103A2800504A512A5350505C54505158D8A01FEF57
:103A38001DF021EF1DF00BEF1DF06E0E096EFF0E4D
:103A48000A6EC6EC2CF05250C0EC2DF0C10E096E77
:103A5800FF0E0A6EC6EC2CF031C51FF532C520F5F5
:103A6800216A226AA8EC22F043EC32F072EF1DF0D2
:103A780006017C2908E17D29D8B445EF1DF047EF00
:103A88001DF049EF1DF07C4B7D2B6A0E096EFE0E72
:103A98000A6EC6EC2CF05250C0EC2DF0520E096E96
:103AA800FF0E0A6EC6EC2CF053C51FF554C520F561
:103AB800216A226AA8EC22F0590E096EFF0E0A6EDE
:103AC800C6EC2CF099EC32F0336E33501F6E206A3E
:103AD800216A226AA8EC22F038EF1DF012001F506C
:103AE8002010D8A47AEF1DF07CEF1DF080EF1DF0B8
:103AF800010E206EF40E1F6EDD0E1F5C050E2058A1
:103B0800D8A089EF1DF08BEF1DF08FEF1DF0050E8B
:103B1800206EDC0E1F6E1AC329F51BC32AF5000E92
:103B2800ABBE010E2B6EAB9E03011A9F900E1B6F4E
:103B3800100E1A6F196B186B2BEC32F006C52EF5A8
:103B480007C52FF508C530F509C531F503011A8FEA
:103B5800AFEF1DF004001F50236E2050246E256A1D
:103B6800266A2EC50AF52FC50BF530C50CF531C5EB
:103B78000DF516EC28F023500A5C24500B582550FC
:103B88000C5826500D58D8A0CCEF1DF0CEEF1DF0E4
:103B9800AEEF1DF003011A9F2EC50AF52FC50BF5D0
:103BA80030C50CF531C50DF516EC28F00AC532F50F
:103BB8000BC533F50CC534F50DC535F518C32CF513
:103BC80019C32DF52D50236E2C50276E23C528F5CB
:103BD80003011A9F2AC51BF329C51AF32BB002D07B
:103BE800AB9E01D0AB8E3250331034103510D8A4B0
:103BF80000EF1EF002EF1EF00CEF1EF0000E1F6E1D
:103C0800000E206E000E216E000E226E36EF1EF0A2
:103C180027C506F528C507F5086A096AE80E0A6E79
:103C2800030E0B6E000E0C6E000E0D6E28EC2AF0C3
:103C380006C512F507C513F508C514F509C515F528
:103C480032C516F533C517F534C518F535C519F558
:103C5800E6EC26F012C51FF513C520F514C521F5AD
:103C680015C522F512001E6E1E50D8B43EEF1EF088
:103C780040EF1EF0A0EF1EF00601AA51D8A447EFAE
:103C88001EF049EF1EF05CEF1EF0010EAA6F010E48
:103C9800A96F2BEC32F006C5BCF707C5BDF708C500
:103CA800BEF709C5BFF70601A86BC08696EF1EF0E0
:103CB800BCC70AF5BDC70BF5BEC70CF5BFC70DF5E8
:103CC80016EC28F00D500C100BE1B80E0A5C0B0E28
:103CD8000B58D8A072EF1EF074EF1EF096EF1EF08E
:103CE8002BEC32F006C5BCF707C5BDF708C5BEF713
:103CF80009C5BFF70601A951D8B485EF1EF088EFB2
:103D08001EF0010E89EF1EF0000EA96FA951D8B45C
:103D180090EF1EF092EF1EF095EF1EF0C08696EF22
:103D28001EF0C0961AC5B8F71BC5B9F71CC5BAF777
:103D38001DC5BBF7E8EF1EF00601AA51D8B4A7EFDE
:103D48001EF0A9EF1EF0B4EF1EF0AA6BA96B1AC5FE
:103D5800B8F71BC5B9F71CC5BAF71DC5BBF7C096A0
:103D68000701B8511A180FE1B9511B180CE1BA51E3
:103D78001C1809E1BB511D18D8B4C5EF1EF0C7EFD8
:103D88001EF0E8EF1EF01AC5B8F71BC5B9F71CC539
:103D9800BAF71DC5BBF71A501B101C101D10D8B45C
:103DA800D8EF1EF0DAEF1EF0E8EF1EF0010E060164
:103DB800A86F2BEC32F006C5B4F707C5B5F708C5F0
:103DC800B6F709C5B7F7C0861200136A000E126E5F
:103DD80076C61AF577C61BF51A501B10D8A4F7EF4C
:103DE8001EF0F9EF1EF012EF1FF008500910D8B4BA
:103DF80000EF1FF002EF1FF008EF1FF008C5D9F41D
:103E080009C5DAF4DE6ADD6A000E066E000E076E7A
:103E1800000E086E000E096E89EF1FF006C516F534
:103E280007C517F516501A5C17501B58D8B01FEF66
:103E38001FF021EF1FF025EF1FF01AC516F51BC55F
:103E480017F5000E0E6E000E0F6E000E106E000EAF
:103E5800116E196A000E186E65EF1FF018500601F2
:103E6800785D0A6E195079590B6E1F0E0A26000EDE
:103E78000B221F0E0A140C6E0D6AD8900C34D96EE2
:103E88000D34DA6E000ED926070EDA22DEC414F5D8
:103E9800DDC415F514501510D8A455EF1FF057EFD1
:103EA8001FF059EF1FF070EF1FF014500E26155039
:103EB8000F22000E1022000E1122124A132A184A4D
:103EC800192A1650185C17501958D8A06EEF1FF011
:103ED80070EF1FF032EF1FF008500910D8B477EFD9
:103EE8001FF079EF1FF081EF1FF008C5D9F409C55D
:103EF800DAF412C5DEF413C5DDF40EC506F50FC5F8
:103F080007F510C508F511C509F512000601AF51EE
:103F1800D8A491EF1FF093EF1FF095EF1FF020EF5B
:103F280020F018512F180DE1195130180AE11A51D3
:103F3800311807E11B513218D8A4A5EF1FF0A7EFDD
:103F48001FF0B9EF1FF0145133180FE11551341851
:103F58000CE11651351809E117513618D8B4B7EFE6
:103F68001FF0B9EF1FF003EF20F0130E096EFB0EE0
:103F78000A6EC6EC2CF02FC51FF530C520F531C5EB
:103F880021F532C522F5A8EC22F0680E096EFF0E65
:103F98000A6EC6EC2CF033C51FF534C520F535C5BF
:103FA80021F536C522F5A8EC22F0760E096EFE0E34
:103FB8000A6EC6EC2CF018C61FF519C620F51AC6ED
:103FC80021F51BC622F5A8EC22F0680E096EFF0E3B
:103FD8000A6EC6EC2CF014C61FF515C620F516C6D9
:103FE80021F517C622F5A8EC22F0810E096EFE0E07
:103FF8000A6EC6EC2CF043EC32F020EF20F086C6B7
:104008008AF687C68BF618C630F619C631F61AC670
:1040180032F61BC633F614C62CF615C62DF616C690
:104028002EF617C62FF618C628F619C629F61AC688
:104038002AF61BC62BF6AF6B1200FFEC2BF006011D
:10404800B26BB06B8B6B000E8A6F896B000E886F3A
:10405800AF6B876B000E866F000E0701D06F000EE6
:10406800D16F000ED26F000ED36F000ECC6F000E12
:10407800CD6F000ECE6F000ECF6F0601856B000E60
:10408800846F596AAB6B7B6B000E7A6F000E246FDE
:10409800000E256F000E266F000E276F000E206F92
:1040A800000E216F000E226F000E236F000E1C6F92
:1040B800000E1D6F000E1E6F000E1F6F000E186F92
:1040C800000E196F000E1A6F000E1B6F000E07010D
:1040D800C06F000EC16F000EC26F000EC36F000EDE
:1040E8000601146F000E156F000E166F000E176F85
:1040F800C0EC31F010C530F611C531F612C532F6F4
:1041080013C533F622EC32F006C52CF607C52DF69A
:1041180008C52EF609C52FF630C628F631C629F689
:1041280032C62AF633C62BF6000E0601406F000E83
:10413800416F000E426F000E436F000E3C6F000E81
:104148003D6F000E3E6F000E3F6F816B000E806F5B
:104158007F6B000E7E6F120005016E6B000E6D6F97
:10416800010E606F6D4B6E2B600E6D25D96E050EBE
:104178006E21DA6E010EDF6E6D4B6E2B600E6D25B3
:10418800D96E050E6E21DA6EDF6A6D4B6E2B600EEE
:104198006D25D96E050E6E21DA6EDF6A6D4B6E2BBA
:1041A800600E6D25D96E050E6E21DA6E140EDF6E67
:1041B8006D4B6E2B600E6D25D96E050E6E21DA6E75
:1041C800AA0EDF6E6D4B6E2B600E6D25D96E050E37
:1041D8006E21DA6EDF6A6D4B6E2B600E6D25D96E1F
:1041E800050E6E21DA6E390EDF6E6D4B6E2B600E8A
:1041F8006D25D96E050E6E21DA6EDF6A6D4B6E2B5A
:10420800600E6D25D96E050E6E21DA6E010EDF6E19
:104218006D4B6E2B600E6D25D96E050E6E21DA6E14
:10422800010EDF6E6D4B6E2B600E6D25D96E050E7F
:104238006E21DA6E0B0EDF6E6D4B6E2B600E6D25E8
:10424800D96E050E6E21DA6EB80EDF6E6D4B6E2BD1
:10425800600E2F6E050E306E6DC531F56EC532F5E8
:10426800890E74EC1CF012000601A751D8B43FEF78
:1042780021F041EF21F0B7EF21F0ACC70AF5ADC747
:104288000BF5AEC70CF5AFC70DF516EC28F00D50C1
:104298000C100BE1300E0A5C750E0B58D8A057EFC6
:1042A80021F059EF21F0B7EF21F00601A76B93EC4D
:1042B80026F03D0E096EFB0E0A6E12EC2DF0300E44
:1042C8001F6E750E206E000E216E000E226E86EC9B
:1042D80023F0970E096EFE0E0A6E12EC2DF0050102
:1042E800FE51D8A47AEF21F07DEF21F0010E7EEF88
:1042F80021F0000E1F6E206A216A226A86EC23F0E4
:104308001B0E096EFF0E0A6E12EC2DF00501FE5110
:10431800D8A491EF21F093EF21F099EF21F0D10E7D
:104328002F6EFF0E306E9DEF21F04B0E2F6EFF0E9D
:10433800306E2FC509F530C50AF512EC2DF0E30EE5
:10434800096EFC0E0A6E12EC2DF02BEC32F006C54D
:104358001FF507C520F508C521F509C522F586EC26
:1043680023F051EC32F0120021EE16F1070EDE6A4E
:10437800E806FDE20E500F10101011101210131065
:1043880014101510D8B4CBEF21F0CDEF21F01FEFAA
:1043980022F0010E1E6EDBEF21F0D8900E360F369C
:1043A8001036113612361336143615361E2A15AE47
:1043B800E0EF21F0E2EF21F0D1EF21F0D8901636AE
:1043C8001736183619361A361B361C361D360E5057
:1043D800065C0F50075810500858115009581250D1
:1043E8000A5813500B5814500C5815500D58D8A093
:1043F80000EF22F002EF22F013EF22F00E50065EDB
:104408000F50075A1050085A1150095A12500A5A98
:1044180013500B5A14500C5A15500D5A1680D89038
:104428001532143213321232113210320F320E3268
:104438001E2EE2EF21F016C506F517C507F518C5BB
:1044480008F519C509F51AC50AF51BC50BF51CC5EC
:104458000CF51DC50DF512001F502010211022105B
:10446800D8A439EF22F03BEF22F03DEF22F0A7EF7E
:1044780022F0000E126E8C0E136E3C0E146E000E9F
:10448800156E1FC516F520C517F521C518F522C5E7
:1044980019F5E6EC26F012C523F513C524F514C565
:1044A80025F515C526F5010E06019F6F26BE68EF96
:1044B80022F026502510241009E16F0E235CD8A0A5
:1044C80068EF22F06AEF22F098EF22F026BE7AEF2A
:1044D80022F026502510241007E1940E235CD8B052
:1044E80078EF22F07AEF22F098EF22F0010E9E6F1B
:1044F80023C5D5F624C5D6F69D51D8A486EF22F05B
:1045080088EF22F0A7EF22F023C506F524C507F5AA
:1045180025C508F526C509F51EEC2BF006C5D7F606
:1045280007C5D8F6A7EF22F09E6BD66B800ED56F25
:104538009D51D8A4A2EF22F0A4EF22F0A7EF22F019
:10454800D86B800ED76F12002E6A1F5020102110D2
:104558002210D8A4B2EF22F0B4EF22F0EFEF22F04D
:10456800300E38EC2DF016EF23F0230E2E24D96EE2
:10457800DA6A050EDA221FC506F520C507F521C53A
:1045880008F522C509F50A0E0A6E000E0B6E000E1C
:104598000C6E000E0D6E2FEC29F00650300FDF6EFA
:1045A8002E2A1FC512F520C513F521C514F522C5FD
:1045B80015F50A0E166E000E176E000E186E000E18
:1045C800196EE6EC26F012C51FF513C520F514C5C3
:1045D80021F515C522F51F50201021102210D8B43E
:1045E800F8EF22F0FAEF22F00EEF23F00A0E2E6415
:1045F80000EF23F002EF23F0B9EF22F00EEF23F0E3
:104608002E06230E2E24D96EDA6A050EDA22DF5022
:1046180038EC2DF02E50D8A414EF23F016EF23F029
:1046280004EF23F012002E6A1F50201021102210D0
:10463800D8A421EF23F023EF23F05EEF23F0300E10
:104648005AEC2DF085EF23F0230E2E24D96EDA6A6A
:10465800050EDA221FC506F520C507F521C508F5A0
:1046680022C509F50A0E0A6E000E0B6E000E0C6EBE
:10467800000E0D6E2FEC29F00650300FDF6E2E2A3B
:104688001FC512F520C513F521C514F522C515F56A
:104698000A0E166E000E176E000E186E000E196EBA
:1046A800E6EC26F012C51FF513C520F514C521F553
:1046B80015C522F51F50201021102210D8B467EF1D
:1046C80023F069EF23F07DEF23F00A0E2E646FEFDD
:1046D80023F071EF23F028EF23F07DEF23F02E066F
:1046E800230E2E24D96EDA6A050EDA22DF505AEC30
:1046F8002DF02E50D8A483EF23F085EF23F073EF2D
:1047080023F012002E6A1F50201021102210D8A466
:1047180090EF23F092EF23F0CDEF23F0300E7CECF6
:104728002DF0F4EF23F0230E2E24D96EDA6A050E4D
:10473800DA221FC506F520C507F521C508F522C5EB
:1047480009F50A0E0A6E000E0B6E000E0C6E000EB6
:104758000D6E2FEC29F00650300FDF6E2E2A1FC584
:1047680012F520C513F521C514F522C515F50A0E55
:10477800166E000E176E000E186E000E196EE6EC1F
:1047880026F012C51FF513C520F514C521F515C56A
:1047980022F51F50201021102210D8B4D6EF23F094
:1047A800D8EF23F0ECEF23F00A0E2E64DEEF23F0AF
:1047B800E0EF23F097EF23F0ECEF23F02E06230E23
:1047C8002E24D96EDA6A050EDA22DF507CEC2DF041
:1047D8002E50D8A4F2EF23F0F4EF23F0E2EF23F009
:1047E80012002E6A1F50201021102210D8A4FFEFAB
:1047F80023F001EF24F03CEF24F0300E9EEC2DF076
:1048080063EF24F0230E2E24D96EDA6A050EDA221D
:104818001FC506F520C507F521C508F522C509F508
:104828000A0E0A6E000E0B6E000E0C6E000E0D6E58
:104838002FEC29F00650300FDF6E2E2A1FC512F517
:1048480020C513F521C514F522C515F50A0E166EF7
:10485800000E176E000E186E000E196EE6EC26F0AC
:1048680012C51FF513C520F514C521F515C522F588
:104878001F50201021102210D8B445EF24F047EF24
:1048880024F05BEF24F00A0E2E644DEF24F04FEF76
:1048980024F006EF24F05BEF24F02E06230E2E24DE
:1048A800D96EDA6A050EDA22DF509EEC2DF02E5012
:1048B800D8A461EF24F063EF24F051EF24F0120044
:1048C8000601956B000E946F936B000E926F000EAD
:1048D800486F000E496F000E4A6F000E4B6FB46BA5
:1048E800C0EC31F010C558F611C559F612C55AF684
:1048F80013C55BF658C654F659C655F65AC656F649
:104908005BC657F6000E0601506F000E516F000E81
:10491800526F000E536F2BEC32F006C54CF607C5EC
:104928004DF608C54EF609C54FF60601916B000E07
:10493800906F156A000E146E000E1424D96E080EBE
:104948001520DA6EDF6A144A152A155009E1800E1F
:10495800145CD8A0B2EF24F0B4EF24F0A0EF24F058
:1049680058C644F659C645F65AC646F65BC647F6D3
:1049780006018F6B000E8E6F58C6D4F759C6D5F74F
:104988005AC6D6F75BC6D7F78D6B000E8C6FB36B24
:10499800120077EC32F006018A51061807E18B51B4
:1049A8000718D8A4DAEF24F0DCEF24F0DEEF24F0C7
:1049B8002EEF25F08AC60FF58BC610F5310E116E55
:1049C800050E126E43EC2EF03350060128273450A2
:1049D8002923000E2A23000E2B23010E8A252F6E71
:1049E800000E8B21306EFF0E2F148A6F030E3014C9
:1049F8008B6FAF51D8B403EF25F005EF25F02EEFFC
:104A080025F0AF6B8D0E096EFC0E0A6EC6EC2CF00D
:104A18001CC61FF51DC620F51EC621F51FC622F5AA
:104A2800A8EC22F0F10E096EFF0E0A6EC6EC2CF00F
:104A380018C61FF519C620F51AC621F51BC622F59A
:104A4800A8EC22F0DE0E096EFA0E0A6EC6EC2CF007
:104A580043EC32F012003F5006011027405011235A
:104A68004150122342501323744B752BDD51745D52
:104A7800DE517559D8B043EF25F045EF25F047EFE3
:104A880025F08AEF25F0135106E11205D8B04FEF53
:104A980025F051EF25F057EF25F010C645F511C662
:104AA80046F559EF25F045684668D8907835D96EAF
:104AB8007935DA6E000ED926070EDA2245C5DEF4FE
:104AC80046C5DDF4010E7825436E000E7921446E4B
:104AD8001F0E4314786F796B775107E1200E765DCE
:104AE800D8B079EF25F07BEF25F07DEF25F0764BF8
:104AF800772B000E106F000E116F000E126F000E54
:104B0800136F756B000E746F25EC1BF01200106AA2
:104B1800000E0F6E06C511F507C512F5D3EF25F087
:104B280011C50AF512C50BF5D8900B320A32D89088
:104B38000B320A32D8900B320A320AC50CF50BC573
:104B48000DF511C50AF5070E0A16010E0B6E0A2A95
:104B5800B0EF25F0D8900B360A2EAEEF25F00B50AB
:104B68000E6E000E0C24D96E080E0D20DA6EDF5082
:104B78000E140009D8B4C3EF25F0C5EF25F0C7EF30
:104B880025F00F4A102A010E11240A6E000E122079
:104B98000B6EFF0E0A14116E030E0B14126E0850E2
:104BA800111807E109501218D8A4DDEF25F0DFEF3E
:104BB80025F094EF25F00FC506F510C507F512008E
:104BC8002F0E066E050E076EBFEC2AF02FC57AF67B
:104BD80030C57BF631C524F632C525F633C526F631
:104BE80034C527F635C520F636C521F637C522F671
:104BF80038C523F62BEC32F006C5C4F707C5C5F750
:104C080008C5C6F709C5C7F7010E0601AB6F100E38
:104C1800096EFC0E0A6EC6EC2CF07AC61FF57BC630
:104C280020F5216A226AA8EC22F03C0E096EFF0EDC
:104C38000A6EC6EC2CF024C61FF525C620F526C63C
:104C480021F527C622F5A8EC22F0330E096EFF0ED7
:104C58000A6EC6EC2CF020C61FF521C620F522C628
:104C680021F523C622F5A8EC22F043EC32F012001D
:104C7800ACA041EF26F043EF26F064EF26F0B7A092
:104C880048EF26F04AEF26F064EF26F0A1C203F5BC
:104C9800060198519911D8B454EF26F056EF26F032
:104CA80064EF26F003C502F502D864EF26F005008C
:104CB800FA6E9851FD6E9951FE6EFF6AFA50120015
:104CC800ACA269EF26F06BEF26F092EF26F0B7A2C0
:104CD80070EF26F072EF26F092EF26F05A50D8B413
:104CE80078EF26F07AEF26F089EF26F0400E0601DD
:104CF800B825D96EDA6A070EDA22DF500201A36FEF
:104D08000601B8293F0BB86F5A065A50D8A48FEF3E
:104D180026F091EF26F092EF26F0AC921200010EE9
:104D28000A6E0601A751D8A49CEF26F09EEF26F044
:104D3800A8EF26F00501FE51D8A4A5EF26F0A7EFAD
:104D480026F0A8EF26F00A6A0A50D8A4AEEF26F09B
:104D5800B1EF26F0010EB2EF26F0000E0B6E060141
:104D6800A551D8A4BAEF26F0BCEF26F0CCEF26F078
:104D78000BC5A6F6010EA56F0B50D8B4C6EF26F0EA
:104D8800C8EF26F0E5EF26F034EC30F0E5EF26F03A
:104D9800A6510B18D8B4D3EF26F0D5EF26F0E5EFDF
:104DA80026F00B50D8B4DBEF26F0DDEF26F0E1EF6C
:104DB80026F034EC30F0E3EF26F0F7EC2FF00BC5DB
:104DC800A6F61200000E1A6E000E1B6E000E1C6E68
:104DD800000E1D6E1650171018101910D8B4F7EFE2
:104DE80026F0F9EF26F02FEF27F0010E1E6E03EFE5
:104DF80027F0D89016361736183619361E2A19AEE7
:104E080008EF27F00AEF27F0FDEF26F0D8901A36C2
:104E18001B361C361D361650125C17501358185086
:104E2800145819501558D8A01CEF27F01EEF27F07A
:104E380027EF27F01650125E1750135A1850145ABD
:104E48001950155A1A80D89019321832173216325A
:104E58001E2E0AEF27F01AC512F51BC513F51CC53F
:104E680014F51DC515F51200C088A4EC32F0060132
:104E7800C16B84EC32F0D20E096EFC0E0A6EA0EC07
:104E88002CF02BEC32F006C51FF507C520F508C538
:104E980021F509C522F5F5EC23F0B50E096EFE0ED5
:104EA8000A6EA0EC2CF063EC32F006C51FF507C5BE
:104EB80020F5216A226AF5EC23F0AB0E096EFE0E8E
:104EC8000A6EA0EC2CF087EC32F00009D8A46FEF42
:104ED80027F071EF27F077EF27F0F70E2F6EFF0E10
:104EE800306E7BEF27F0E90E2F6EFF0E306E2FC568
:104EF80009F530C50AF5A0EC2CF03CEC32F01200B4
:104F08006A0EF66E610EF76E000EF86E01EEC3F2D1
:104F180010EE21F00900F5C4EEF4E550E150FAE195
:104F280002EE00F212EE00F0EE6AE550E150FCE10C
:104F3800E250FAE102EE00F110EE00F1EE6AE550FF
:104F4800E150FCE1E250FAE102EE00F0800EEE6A78
:104F5800E806FDE101EE00F3F80EEE6AE806FDE171
:104F680001EE00F2C30EEE6AE806FDE10501FE6BF4
:104F7800FD6BFC6B5A6A596A586A576A566A556AD1
:104F88000401080E5D6F000E5E6F000E5F6F00017A
:104F9800DFEF0DF006500710D8A4D5EF27F0D7EFB4
:104FA80027F0D9EF27F015EF28F006C5D9F407C583
:104FB800DAF4D5C6DEF4D6C6DDF420EE02F00650EB
:104FC800D9260750DA229FC6DFF420EE03F00650F8
:104FD800D9260750DA229EC6DFF420EE04F00650E8
:104FE800D9260750DA229DC6DFF420EE05F00650D8
:104FF800D9260750DA22D3C6DEF4D4C6DDF420EE73
:1050080007F00650D9260750DA229CC6DFF420EEB6
:1050180008F00650D9260750DA22D7C6DEF4D8C6DB
:10502800DDF412002BEC32F006C516F507C517F5AE
:1050380008C518F509C519F50A50165C0B5017581C
:105048000C5018580D501958D8B02DEF28F02FEFE4
:1050580028F051EF28F00A1C0E6E0B1C0F6E0C1C6A
:10506800106E0D1C116E16500E24126E17500F2064
:10507800136E18501020146E19501120156E010E61
:1050880012240A6E000E13200B6E000E14200C6EF4
:10509800000E15200D6E5DEF28F00A50165C0A6EA2
:1050A8000B5017580B6E0C5018580C6E0D501958A1
:1050B8000D6E1200780E066E050E076ECDEC2FF001
:1050C80005017951606F78C561F57B51626F7AC5CA
:1050D80063F57D51646F7CC565F57F51666F7EC54C
:1050E80067F510EC32F006C570F507C571F508C50F
:1050F80072F509C573F507EC32F006C574F507C5F6
:1051080075F508C576F509C577F573C568F572C5EF
:1051180069F571C56AF570C56BF577C56CF576C527
:105128006DF575C56EF574C56FF5600E2F6E050EBD
:10513800306E326A100E316E820E74EC1CF0120062
:1051480006C509F507C50AF5D8900A320932D8907C
:105158000A320932D8900A32093209C50CF50AC553
:105168000DF506C509F5070E0916010E0A6E092A7E
:10517800C0EF28F0D8900A36092EBEEF28F00A5062
:105188000B6E0850D8B4CBEF28F0CDEF28F0D7EF4E
:1051980028F0000E0C24D96E080E0D20DA6E0B5084
:1051A800DF12E9EF28F0000E0C24D96E080E0D204E
:1051B800DA6E000E0C24E16E080E0D20E26EE75048
:1051C800096E0B50FF0A0914DF6E1200D80E1A6E12
:1051D800070E1B6E8FEC2AF020EF29F0D80E0C6E0C
:1051E800070E0D6EFBC50EF511EC14F00009D8B4CE
:1051F80000EF29F002EF29F020EF29F0010E060157
:10520800C06F2BEC32F006C56CF607C56DF608C505
:105218006EF609C56FF686EC31F00009D8A417EFD1
:1052280029F019EF29F020EF29F0D80E0501806F39
:10523800070E816F0FEC00F0FB0E066E050E076E71
:1052480023EC2EF00009D8A42CEF29F02EEF29F03A
:10525800F2EF28F012000A500B100C100D10D8B401
:1052680038EF29F03AEF29F06AEF29F0010E0E6EB7
:1052780044EF29F0D8900A360B360C360D360E2A34
:105288000DAE49EF29F04BEF29F03EEF29F00A5017
:10529800065C0B5007580C5008580D500958D8A0F8
:1052A80058EF29F05AEF29F062EF29F00A50065E0C
:1052B8000B50075A0C50085A0D50095AD8900D3205
:1052C8000C320B320A320E2E4BEF29F006C506F5CA
:1052D80007C507F508C508F509C509F5120006014F
:1052E800796B000E786F776B000E766F756B000E1A
:1052F800746F000E106F000E116F000E126F000E0B
:10530800136F346A000E336ED8903334D96E343448
:10531800DA6E000ED926070EDA22DE6ADD6A334A13
:10532800342A345009E1200E335CD8A09EEF29F0CE
:10533800A0EF29F088EF29F009EC16F00601A76B19
:105348000501FE6B000E0701A86F000EA96F000E85
:10535800AA6F000EAB6F0601A66BA56B12000301C6
:105368001E9FAB96B6961A9F9E0E1B6F0601E3050D
:105378000301196F186BB69EAB8E800E1A6F92ECF4
:1053880031F0D69EF29E00017891030000000001E2
:105398007881B5EC31F00009D8B4D5EF29F0D7EF12
:1053A80029F0D7EF29F072EC32F0B6AEDEEF29F033
:1053B800E0EF29F0EAEF29F0110E066E020E076EF3
:1053C800000E086E000E096EF4EC31F003011A9F0E
:1053D800AB9EB69ED68E6CEC31F012000601A3513E
:1053E800D8A4F9EF29F0FBEF29F0FDEF29F027EF1A
:1053F8002AF0A4C70AF5A5C70BF5A6C70CF5A7C7D9
:105408000DF516EC28F00D500C100BE1100E0A5C8F
:10541800270E0B58D8A013EF2AF015EF2AF027EF24
:105428002AF096EC32F00601A36BA251D8A41FEF24
:105438002AF021EF2AF025EF2AF0020EA46F27EFB9
:105448002AF0010EA46F1200000E0E6E000E0F6EF1
:10545800000E106E000E116E06A035EF2AF037EF21
:105468002AF03FEF2AF00A500E260B500F220C505C
:1054780010220D501122D8900A360B360C360D36F4
:10548800D890093208320732063206500710081041
:105498000910D8A452EF2AF054EF2AF030EF2AF07E
:1054A8000EC506F50FC507F510C508F511C509F5B0
:1054B800120032BE64EF2AF062EF2AF084EF2AF07D
:1054C8002D0E9EEC2DF02FC533F530C534F531C5C2
:1054D80035F532C536F5331E341E351E361E332AD1
:1054E800000E34223522362233C51FF534C520F587
:1054F80035C521F536C522F5F5EC23F08EEF2AF0F7
:105508002FC51FF530C520F531C521F532C522F567
:10551800F5EC23F012001AC5D9F41BC5DAF4DF50F4
:10552800D8B499EF2AF09BEF2AF0BEEF2AF020EECC
:105538001AF01A50D9261B50DA22DEC40AF5DEC446
:105548000BF5DEC40CF5DEC40DF516EC28F00D5095
:105558000C100B1009E1640E0A5CD8A0B6EF2AF013
:10556800B8EF2AF0BEEF2AF01AC506F51BC507F5F5
:105578007AEC2BF0120006500710D8A4C6EF2AF0D8
:10558800C8EF2AF0CAEF2AF0EEEF2AF006C5D9F4E0
:1055980007C5DAF494C6DEF495C6DDF420EE02F011
:1055A8000650D9260750DA2248C6DEF449C6DEF48A
:1055B8004AC6DEF44BC6DEF420EE06F00650D926C5
:1055C8000750DA2258C6DEF459C6DEF45AC6DEF4AD
:1055D8005BC6DEF41200E4EC25F0A2EC32F0C098D1
:1055E8002BEC32F006C570F607C571F608C572F6E1
:1055F80009C573F60601C06BBF6BBE6B5EEC32F07B
:10560800010E0601C16FA8EC32F0240E096EFD0EE2
:105618000A6EA0EC2CF02BEC32F006C51FF507C57E
:1056280020F508C521F509C522F5F5EC23F03CEC79
:1056380032F0120009BE2EEF2BF0095008100710A7
:1056480007E16F0E065CD8B02CEF2BF02EEF2BF095
:1056580033EF2BF0076A6F0E066E4CEF2BF009BE86
:1056680041EF2BF009500810071009E1940E065C71
:10567800D8A041EF2BF043EF2BF048EF2BF0076A4F
:10568800930E066E4CEF2BF006C506F507C507F519
:105698001200FEEC31F006C568F507C569F508C5C6
:1056A8006AF509C56BF5D6EC31F00501606FE0ECE1
:1056B80031F00501616F8AEC32F00501626F45EC4B
:1056C8002FF00501636F6BC564F56AC565F569C59B
:1056D80066F568C567F5600E2F6E050E306E326A86
:1056E800080E316E840E74EC1CF0120006C5D9F455
:1056F80007C5DAF4DF6A20EE01F00650D926075014
:10570800DA22DF6A20EE02F00650D9260750DA22A4
:10571800DE6ADD6A20EE04F00650D9260750DA2248
:10572800DE6ADD6A20EE16F00650D9260750DA2226
:10573800DE6ADD6A20EE18F00650D9260750DA2214
:10574800DE6ADD6A12009CEC32F006C510F507C56A
:1057580011F5C1EF2BF010C506F511C507F50CC5FD
:10576800D9F40DC5DAF4DF50086ED3EC2BF006C57A
:1057780010F507C511F50C4A0D2A0E06D8A00F061C
:105788000E2806E10F28D8A4CCEF2BF0CEEF2BF093
:10579800AFEF2BF010C50CF511C50DF51200085030
:1057A800061A0B6A06A0DBEF2BF0DDEF2BF0EAEF11
:1057B8002BF0D89007300A6E0630096E010E0918D2
:1057C800066EA00E0A18076EF1EF2BF0D89007307E
:1057D800096E0630066E09C507F50B2A070E0B641D
:1057E800F8EF2BF0FAEF2BF0D6EF2BF006C506F505
:1057F80007C507F51200C30E0601E619066EA50EC9
:10580800E719076EE451061809E1E5510718D8B4FD
:1058180010EF2CF012EF2CF015EF2CF0E76B000EC8
:10582800E66FE64BE72BE651E711D8A41EEF2CF004
:1058380020EF2CF023EF2CF0E76B010EE66FC30E80
:10584800E619E46FA50EE719E56F120055505610DA
:10585800D8B431EF2CF033EF2CF052EF2CF00201DA
:10586800C5AF39EF2CF03BEF2CF052EF2CF0000EC7
:105878000501FC25D96E090EFD21DA6EDF50020103
:10588800B66F010E0501FC25066E000EFD21076EA0
:105898000650FC6FFD6B5506D8A056061200D7C6F9
:1058A80006F5D8C607F5000E07BEFF0E086E096E8E
:1058B80012C50AF513C50BF514C50CF515C50DF57C
:1058C80028EC2AF0080E6EEF2CF0D8900932083236
:1058D80007320632E82E69EF2CF006C512F507C527
:1058E80013F508C514F509C515F512006A0E066EFC
:1058F800050E076ECEEC27F005016B51606F6AC587
:1059080061F56CC562F56DC563F56EC564F57051DA
:10591800656F6FC566F571C567F57351686F72C5B8
:1059280069F5600E2F6E050E306E326A0A0E316E02
:105938008A0E74EC1CF0120009500A10D8A4A7EFC4
:105948002CF0A9EF2CF0B6EF2CF0C5EF2CF009C520
:10595800F6F40AC5F7F4F86A0800F5509EEC2DF045
:10596800094A0A2A09C5F6F40AC5F7F4F86A0800CC
:10597800F5500009D8A4C3EF2CF0C5EF2CF0ABEF1D
:105988002CF0120009500A10D8A4CDEF2CF0CFEF5C
:105998002CF0DCEF2CF0EBEF2CF009C5F6F40AC57F
:1059A800F7F4F86A0800F55038EC2DF0094A0A2A8D
:1059B80009C5F6F40AC5F7F4F86A0800F5500009B5
:1059C800D8A4E9EF2CF0EBEF2CF0D1EF2CF012007B
:1059D80009500A10D8A4F3EF2CF0F5EF2CF002EFE1
:1059E8002DF011EF2DF009C5F6F40AC5F7F4F86AA1
:1059F8000800F5505AEC2DF0094A0A2A09C5F6F4B0
:105A08000AC5F7F4F86A0800F5500009D8A40FEFA2
:105A18002DF011EF2DF0F7EF2CF0120009500A10BD
:105A2800D8A419EF2DF01BEF2DF028EF2DF037EF4C
:105A38002DF009C5F6F40AC5F7F4F86A0800F55020
:105A48007CEC2DF0094A0A2A09C5F6F40AC5F7F4D0
:105A5800F86A0800F5500009D8A435EF2DF037EFA3
:105A68002DF01DEF2DF01200086E5604D8A03FEF60
:105A78002DF041EF2DF046EF2DF0010E0601C26F1B
:105A880059EF2DF0000E5724D96E090E5820DA6E02
:105A980008C5DFF4010E5724066E000E5820076E65
:105AA8000650576E586A554A562A1200086E560410
:105AB800D8A061EF2DF063EF2DF068EF2DF0010E07
:105AC8000601C26F7BEF2DF0000E5724D96E090E28
:105AD8005820DA6E08C5DFF4010E5724066E000E52
