:040000000DEF00F010
:0400080066EF1BF094
:06001800FF00EFEF16F0FF
:10160000000057EF0BF004EC1BF00009D8A40BEF1F
:101610000BF00DEF0BF016EF0BF005019B51D8B45A
:1016200014EF0BF016EF0BF0F4EF0CF005019B6BD1
:10163000010E9D6FE6EC1BF006C570F507C571F550
:1016400008C572F509C573F5020E05019E6FF4EF2A
:101650000CF05850D8A42FEF0BF031EF0BF039EF0E
:101660000BF09C51D8B437EF0BF039EF0BF03DEF96
:101670000BF005019E6BF4EF0CF070C50AF571C517
:101680000BF572C50CF573C50DF526EC16F00D5073
:101690000C100BE1B80E0A5C0B0E0B58D8A053EFE0
:1016A0000BF055EF0BF0F4EF0CF039EF0BF00501F8
:1016B0009E51276E286A2850000AD8B462EF0BF0BA
:1016C00039EF0BF02750000AD8B403EF0BF0010AF2
:1016D000D8B424EF0BF0030AD8B429EF0BF039EF9C
:1016E0000BF05850D8B477EF0BF079EF0BF016EF02
:1016F0000DF0586A07EC1CF006C58AF507C58BF596
:101700000501896B000E886FA5EC1AF0010E05012A
:101710009C6F16EF0DF08C518A5D276E8D518B59A1
:10172000286EE80E2724066E030E2820076E030E8F
:10173000096EE80E086E91EC17F006C529F507C58D
:101740002AF52B6A2C6A030E2902F3C427F5F4C488
:1017500028F52A02F3502826040E27243B6E000E9B
:1017600028203C6EAA0E366E550E376E810E386EEE
:101770003C50396E3BC53AF527EC1CF0276E050E40
:101780002760C5EF0BF0C7EF0BF0C9EF0BF016EFBA
:101790000DF02AEC1CF006C556F507C557F556C5E1
:1017A00006F557C507F538C508F54DEC18F006C520
:1017B00056F507C557F556C506F557C507F539C59A
:1017C00008F54DEC18F006C556F507C557F556C592
:1017D00006F557C507F53AC508F54DEC18F006C5EE
:1017E00056F507C557F5360E076E050E086E050E41
:1017F000096EAAEC19F0020E05019C6F16EF0DF0B0
:101800008C518A5D276E8D518B59286EE80E2724E6
:10181000066E030E2820076E030E096EE80E086E92
:1018200091EC17F006C543F507C544F5456A466ACD
:1018300046C532F545C533F544C534F543C535F5E0
:1018400027EC1CF0276E040E276029EF0CF02BEF1D
:101850000CF02DEF0CF016EF0DF0416A56C506F5B1
:1018600057C507F5320E4124D96EDA6A050EDA2221
:10187000DF50086E4DEC18F006C556F507C557F554
:10188000412A030E416447EF0CF049EF0CF02EEFB4
:101890000CF0320E076E050E086E040E096EAAECEF
:1018A00019F04350441045104610D8B45AEF0CF0CC
:1018B0005CEF0CF061EF0CF0030E05019C6F16EF6E
:1018C0000DF0040E05019C6F16EF0DF08A518C1976
:1018D00007E18B518D19D8A470EF0CF072EF0CF06A
:1018E00074EF0CF061EF0CF08CC51FF58DC520F581
:1018F0003D0E216E050E226E79EC18F088C506F5B6
:1019000089C507F53FC508F540C509F52F0E0A6ED4
:10191000050E0B6E2DEC15F027EC1CF0276E030E58
:10192000276095EF0CF097EF0CF099EF0CF016EFA5
:101930000DF0426A020E4264A0EF0CF0A2EF0CF030
:10194000A4EF0CF0B9EF0CF056C506F557C507F536
:101950002F0E4224D96EDA6A050EDA22DF50086EA5
:101960004DEC18F006C556F507C557F5422A9AEF13
:101970000CF02F0E076E050E086E030E096EAAEC12
:1019800019F0010E05018C25066E000E8D21076EE3
:10199000030E096EE80E086E91EC17F006C58CF583
:1019A00007C58DF50501884B892B16EF0DF05750B3
:1019B0002D6E56C52EF527EC1CF0276E020E276003
:1019C000E4EF0CF0E6EF0CF0E8EF0CF016EF0DF0A2
:1019D0002D0E076E050E086E020E096EAAEC19F0A8
:1019E00005019C6B16EF0DF005019C51276E286ACE
:1019F0002850000AD8B4FFEF0CF0F0EF0CF027509D
:101A0000000AD8B471EF0BF0010AD8B48BEF0BF0D9
:101A1000030AD8B400EF0CF0010AD8B466EF0CF05A
:101A2000070AD8B4D7EF0CF0F0EF0CF01200E6EC98
:101A30001BF020EE12F00C50D9260D50DA2206C50C
:101A4000DEF407C5DEF408C5DEF409C5DEF4DCEF1C
:101A50000EF0AA0E0E18D8A430EF0DF032EF0DF0F4
:101A60000DEF0FF020EE16F00C50D9260D50DA22B3
:101A7000DF6A20EE17F00C50D9260D50DA22DF6A0B
:101A80000CC5D9F40DC5DAF4010EDF6E0DEF0FF0C1
:101A9000550E0E18D8A44FEF0DF051EF0DF059EF81
:101AA0000DF00CC5D9F40DC5DAF4020EDF6E0DEFA2
:101AB0000FF0AA0E0E18D8A460EF0DF062EF0DF033
:101AC0006AEF0DF00CC5D9F40DC5DAF4010EDF6E26
:101AD0000DEF0FF00CC5D9F40DC5DAF4DF6A0DEF88
:101AE0000FF020EE01F00C50D9260D50DA220EC571
:101AF000DFF42AEC1CF020EE0EF00C50D9260D502D
:101B0000DA2206C5DEF407C5DDF420EE0EF00C5037
:101B1000D9260D50DA22DEC406F5DDC407F50EC560
:101B200008F54DEC18F020EE0EF00C50D9260D50B3
:101B3000DA2206C5DEF407C5DDF40CC5D9F40DC5FF
:101B4000DAF4030EDF6E0DEF0FF00E50106E0F6A19
:101B500020EE02F00C50D9260D50DA220FC5DEF42B
:101B600010C5DDF420EE0EF00C50D9260D50DA220F
:101B7000DEC406F5DDC407F50EC508F54DEC18F01A
:101B800020EE0EF00C50D9260D50DA2206C5DEF4F8
:101B900007C5DDF40CC5D9F40DC5DAF4040EDF6E0B
:101BA0000DEF0FF020EE02F00C50D9260D50DA2286
:101BB0000E50DE12000EDD1220EE0EF00C50D92673
:101BC0000D50DA22DEC406F5DDC407F50EC508F5B2
:101BD0004DEC18F020EE0EF00C50D9260D50DA2204
:101BE00006C5DEF407C5DDF420EE04F00C50D9265E
:101BF0000D50DA22DE6ADD6A20EE02F00C50D926A2
:101C00000D50DA22010EDB5009E1090EDE5CD8A08E
:101C10000CEF0EF00EEF0EF01EEF0EF020EE16F0B1
:101C20000C50D9260D50DA22010EDF6E0CC506F5D8
:101C30000DC507F5F4EC17F00DEF0FF020EE02F0F4
:101C40000C50D9260D50DA22DE50DE10D8B42BEF1E
:101C50000EF02DEF0EF031EF0EF0050E136E33EF98
:101C60000EF0060E136E0CC5D9F40DC5DAF413C5CB
:101C7000DFF40DEF0FF020EE04F00C50D9260D50DC
:101C8000DA22DEC40FF5DDC410F50F500C24116EFE
:101C900010500D20126E060E1124D96E000E122067
:101CA000DA6E0EC5DFF420EE04F00C50D9260D508C
:101CB000DA22DE2A000EDD2220EE0EF00C50D926AC
:101CC0000D50DA22DEC406F5DDC407F50EC508F5B1
:101CD0004DEC18F020EE0EF00C50D9260D50DA2203
:101CE00006C5DEF407C5DDF420EE02F00C50D9265F
:101CF0000D50DA2210EE04F00C50E1260D50E222D5
:101D0000DE50E65CDE50E658D8A089EF0EF08BEF8F
:101D10000EF00DEF0FF00CC5D9F40DC5DAF4060E78
:101D2000DF6E0DEF0FF00E50106E0F6A20EE10F008
:101D30000C50D9260D50DA220FC5DEF410C5DDF4A3
:101D40000CC5D9F40DC5DAF4070EDF6E0DEF0FF0F8
:101D500020EE10F00C50D9260D50DA220E50DE1273
:101D6000000EDD120CC5D9F40DC5DAF4DF6A20EEE1
:101D70000EF00C50D9260D50DA2210EE10F00C5057
:101D8000E1260D50E222DE50E61807E1DE50E618AB
:101D9000D8A4CDEF0EF0CFEF0EF0D2EF0EF0010E83
:101DA0000EEF0FF020EE17F00C50D9260D50DA226E
:101DB000010EDF6E0DEF0FF00CC5D9F40DC5DAF48E
:101DC000DF500F6E106A1050000AD8B4EAEF0EF020
:101DD00016EF0EF00F50000AD8B429EF0DF0010AEB
:101DE000D8B448EF0DF0030AD8B471EF0DF0010A32
:101DF000D8B4A5EF0DF0070AD8B4D2EF0DF0010A60
:101E0000D8B43BEF0EF0030AD8B493EF0EF0010AFA
:101E1000D8B4A8EF0EF016EF0EF0000E1200F0A8E6
:101E200014EF0FF017EF0FF0010E18EF0FF0000E88
:101E3000556EF06858EC1AF058EC19F0280E066E42
:101E4000380E076EFDEC1BF0F7EC1BF0E6EC1AF019
:101E50001EEC1CF0C6EC1AF0F2EC18F04BEC1BF088
:101E6000B6EC1AF0A70E066E050E076EF4EC17F02E
:101E7000D6EC1AF05550D8B440EF0FF043EF0FF006
:101E8000010E44EF0FF0000E3DEC1BF05550D8A4AE
:101E90004CEF0FF04EEF0FF050EF0FF02EEC1AF06A
:101EA000D68CD68E80EC1AF000017881040031ECDB
:101EB0001CF00FEC14F026EC17F0CCEC18F073ECDF
:101EC00012F001EC0BF06EEC16F019EF10F0A551CA
:101ED000D8B46DEF0FF06FEF0FF07EEF0FF0E6EC80
:101EE0001BF006C580F507C581F508C582F509C553
:101EF00083F5020E0501A66F56EF0FF084C50AF5B3
:101F000085C50BF586C50CF587C50DF526EC16F0D5
:101F10000D500DE1900E0A5C5F0E0B58010E0C582F
:101F2000D8A095EF0FF097EF0FF056EF0FF010ECF1
:101F30001CF056EF0FF019EC1AF00009D8B4A3EF1B
:101F40000FF0A5EF0FF0AFEF0FF073EC1BF00009EF
:101F5000D8B4ADEF0FF0AFEF0FF0B9EF0FF0E6EC44
:101F60001BF006C580F507C581F508C582F509C5D2
:101F700083F50501A451D8A4C0EF0FF0C2EF0FF014
:101F8000DAEF0FF080C50AF581C50BF582C50CF5B7
:101F900083C50DF526EC16F00D500C100BE1200E4C
:101FA0000A5C4E0E0B58D8A0D8EF0FF0DAEF0FF006
:101FB00056EF0FF019EC1AF00009D8B4E2EF0FF069
:101FC000E4EF0FF056EF0FF073EC1BF00009D8A40C
:101FD000ECEF0FF0EEEF0FF056EF0FF097EF0FF082
:101FE000F5EC1AF00009D8B4F8EF0FF0FAEF0FF0A3
:101FF000FEEF0FF080EC1AF056EF0FF021EC1CF022
:102000000009D8A406EF10F008EF10F056EF0FF01B
:1020100019EC1AF00009D8B410EF10F012EF10F01C
:1020200056EF0FF0C096B2EC16F013EC1BF056EF23
:102030000FF00501A651DF6FE06BE051000AD8B444
:1020400024EF10F0F0EF0FF0DF51000AD8B4F0EFFA
:102050000FF0010AD8B467EF0FF0030AD8B49BEF72
:102060000FF0F0EF0FF00DEF00F0E2EF10F01BECCF
:102070001CF007EF11F017EC19F007EF11F020EE4C
:1020800002F04050D9264150DA22080EDE18DE1048
:10209000D8A44DEF10F04FEF10F0AAEF10F020EEA3
:1020A00007F04050D9264150DA22DF50426E20EE30
:1020B00006F04050D9264150DA22DF50436E42509C
:1020C000456E43C546F520EE09F04050D9264150F3
:1020D000DA22DF50426E20EE08F04050D9264150FF
:1020E000DA22DF50436E4250476E43C548F520EE7A
:1020F0000BF04050D9264150DA22DF50426E20EEDC
:102100000AF04050D9264150DA22DF50436E425047
:10211000496E43C54AF520EE0DF04050D926415096
:10212000DA22DF50426E20EE0CF04050D9264150AA
:10213000DA22DF50436E42504B6E43C54CF5450EDC
:10214000066E050E076E30EC1CF0030E2FEC1BF034
:1021500007EF11F0020E21EC1BF007EF11F0A3ECDA
:1021600018F007EF11F020EE02F04050D926415050
:10217000DA22DE04DE10D8A4C0EF10F0C2EF10F0B7
:10218000D0EF10F020EE06F04050D9264150DA2270
:10219000DF50EEEC19F0050E2FEC1BF007EF11F0FD
:1021A000020E21EC1BF007EF11F0FF0007EF11F01A
:1021B000010E0501A46F07EF11F0030E21EC1BF0D7
:1021C00007EF11F020EE01F04050D9264150DA22FD
:1021D000DF50010AD8B437EF10F0030AD8B43BEF50
:1021E00010F0010AD8B43FEF10F0070AD8B4AFEFEF
:1021F00010F0010AD8B4B3EF10F0030AD8B4D5EF49
:1022000010F0010AD8B4D8EF10F0DDEF10F0120092
:10221000386A000E376EDDEC1BF006C53DF507C5CC
:102220003EF508C53FF509C540F53D503E103F104D
:102230004010D8A41EEF11F020EF11F039EF11F08B
:1022400029502A10D8B427EF11F029EF11F02FEF01
:1022500011F029C5D9F42AC5DAF4DE6ADD6A000E68
:10226000276E000E286E000E296E000E2A6EC4EF37
:1022700011F027C539F528C53AF539502B6E3A507B
:102280002C6E2D6A2E6A2B503D5C2C503E582D50E2
:102290003F582E504058D8B050EF11F052EF11F087
:1022A00056EF11F03DC539F53EC53AF507EC1CF087
:1022B00006C52FF507C530F5000E336E000E346EDF
:1022C000000E356E000E366E3C6A000E3B6EA0EFBF
:1022D00011F03B502F5C2B6E3C5030582C6EE70EAB
:1022E0002B24066E030E2C20076E030E096EE80EDB
:1022F000086E91EC17F006C531F507C532F531C50A
:102300001FF532C520F5410E216E050E226E79ECC7
:1023100018F043504410D8A490EF11F092EF11F050
:1023200094EF11F0ABEF11F04350332644503422B8
:10233000000E3522000E3622374A382A3B4A3C2A04
:1023400039503B5C3A503C58D8A0A9EF11F0ABEFA4
:1023500011F069EF11F029502A10D8B4B2EF11F042
:10236000B4EF11F0BCEF11F029C5D9F42AC5DAF4A5
:1023700037C5DEF438C5DDF433C527F534C528F597
:1023800035C529F536C52AF51200276E2F6A000ECD
:102390002E6E155009E1090E145CD8A0D2EF11F091
:1023A000D4EF11F0D6EF11F072EF12F0AA0E186E02
:1023B0002E4A2F2A180E2E24D96E050E2F20DA6EE3
:1023C000550EDF6E2E4A2F2A180E2E24D96E050EBA
:1023D0002F20DA6E27C5DFF42E4A2F2A180E2E245E
:1023E000D96E050E2F20DA6E1550DF6E2E4A2F2A79
:1023F000180E2E24D96E050E2F20DA6E14C5DFF4C8
:102400002E4A2F2A2B6A000E2A6E19EF12F02A503C
:102410001224D96E2B501320DA6E180E2E24E16E82
:10242000050E2F20E26EDFC4E7F42E4A2F2A2A4A37
:102430002B2A14502A5C15502B58D8A022EF12F0EA
:1024400024EF12F007EF12F01A0E0C6E050E0D6E4F
:10245000030E14240E6E000E15200F6E21EC18F0E2
:102460000CC528F50DC529F5180E2E24D96E050EBC
:102470002F20DA6E2950DF6E2E4A2F2A180E2E24B6
:10248000D96E050E2F20DA6E28C5DFF42E4A2F2ACA
:1024900027EC1CF0166E176A2E50165C2F5017583A
:1024A000D8A055EF12F057EF12F072EF12F02D6A2C
:1024B000000E2C6E67EF12F0180E2C24D96E050E4C
:1024C0002D20DA6EDF5076EC19F02C4A2D2A2E5092
:1024D0002C5C2F502D58D8A070EF12F072EF12F034
:1024E0005CEF12F01200C7C50AF5C8C50BF5C9C5E7
:1024F0000CF5CAC50DF526EC16F00D500C1009E1CF
:10250000B80E0A5C0B0E0B58D8B089EF12F08BEFA7
:1025100012F08DEF12F007EF13F0E6EC1BF006C59A
:10252000C7F507C5C8F508C5C9F509C5CAF596ECCC
:102530001BF010C5D9F511C5DAF512C5DBF513C5C9
:10254000DCF50501C351D95DDD6FC451DA59DE6F89
:10255000D9C5C3F5DAC5C4F5DBC5C5F5DCC5C6F517
:10256000010E7427000E75237623772390C506F598
:1025700091C507F5030E096EE80E086E91EC17F091
:1025800006C5D7F507C5D8F58EC506F58FC507F57D
:10259000DDC508F5DEC509F5030E0501D703F3C453
:1025A000D5F5F4C4D6F5D803F350D627600ED5255B
:1025B0000A6E060ED6210B6E2DEC15F005018E4B22
:1025C0008F2B8F5109E13C0E8E5DD8A0EAEF12F0FF
:1025D000ECEF12F0F1EF12F08F6B000E8E6F010E28
:1025E0009F6F010E9025066E000E9121076E030E5F
:1025F000096EE80E086E91EC17F006C590F507C558
:1026000091F5DDC5D3F5DEC5D4F52DEC1CF0120037
:1026100005019851D8A40FEF13F011EF13F05AEF02
:1026200013F0526A000E516ECDC527F5CEC528F5C0
:10263000510E296E050E2A6E08EC11F027C549F5DA
:1026400028C54AF529C54BF52AC54CF50501CD51DC
:10265000515CCE515258D8A030EF13F032EF13F046
:102660005AEF13F0E151456EE251466E476A486AEF
:102670004550495C46504A5847504B5848504C5872
:10268000D8A045EF13F047EF13F05AEF13F0010E07
:10269000986FE6EC1BF006C568F507C569F508C537
:1026A0006AF509C56BF5010E05016427000E652367
:1026B000662367239751D8A460EF13F062EF13F0FD
:1026C0009AEF13F0546A000E536ECBC527F5CCC5B4
:1026D00028F5530E296E050E2A6E08EC11F027C559
:1026E0004DF528C54EF529C54FF52AC550F505010C
:1026F000CB51535CCC515458D8A081EF13F083EFE9
:1027000013F09AEF13F0E551456EE651466E476AB5
:10271000486A45504D5C46504E5847504F584850B7
:102720005058D8A096EF13F098EF13F09AEF13F0EB
:10273000010E976FD5EC15F0120020EE01F0065057
:10274000D9260750DA22DF500C6E0CC50DF50E6A43
:102750000F6A106A0FC510F50EC50FF50DC50EF501
:102760000D6A06C5D9F407C5DAF4DF50116E11C53C
:1027700012F5136A146A156A13C515F512C514F516
:10278000136A126A0D501210166E0E501310176E47
:102790000F501410186E10501510196E20EE02F024
:1027A0000650D9260750DA22DF501A6E1A5016103A
:1027B0001B6E17501C6E18501D6E19501E6E1BC5D7
:1027C0000CF51CC50DF51DC50EF51EC50FF50F0E3C
:1027D000EFEF13F0D8900F320E320D320C32E82E9C
:1027E000EAEF13F0FF0E0C14106E030E0D14116EB1
:1027F00008C5D9F409C5DAF410C5DEF411C5DDF455
:10280000FF0E1B140C6E3F0E1C140D6E0AC5D9F47E
:102810000BC5DAF40CC5DEF40DC5DDF412000501BC
:102820009A51D8A416EF14F018EF14F03DEF14F0FD
:10283000BFC50AF5C0C50BF5C1C50CF5C2C50DF580
:1028400026EC16F00D500C100BE1F40E0A5C010E94
:102850000B58D8A02EEF14F030EF14F07DEF14F0E9
:10286000E6EC1BF006C5BFF507C5C0F508C5C1F508
:1028700009C5C2F5C0767DEF14F0BFC50AF5C0C525
:102880000BF5C1C50CF5C2C50DF526EC16F00D50C3
:102890000C100B1009E1640E0A5CD8A052EF14F082
:1028A00054EF14F07DEF14F0E6EC1BF006C5BFF515
:1028B00007C5C0F508C5C1F509C5C2F5C076050153
:1028C0009951D8B466EF14F068EF14F069EF14F082
:1028D00099079951D8A46FEF14F071EF14F07DEFC0
:1028E00014F0C0969A6BE6EC1BF006C5BFF507C561
:1028F000C0F508C5C1F509C5C2F512001FC506F52A
:1029000020C507F5086A096AE80E0A6E030E0B6E09
:10291000000E0C6E000E0D6E5CEC17F006C512F585
:1029200007C513F508C514F509C515F5B80E166EDB
:102930000B0E176E000E186E000E196E83EC15F05C
:1029400012C521F513C522F514C523F515C524F5C7
:10295000245023100BE1E90E215C030E2258D8A06D
:10296000B4EF14F0B6EF14F0BEEF14F0E80E216EE1
:10297000030E226E000E236E000E246E21502210D4
:1029800023102410D8A4C7EF14F0C9EF14F0D1EF2E
:1029900014F0010E216E000E226E000E236E000E4A
:1029A000246E21C51FF522C520F51200ACA0DBEF77
:1029B00014F0DDEF14F0FEEF14F0B7A0E2EF14F026
:1029C000E4EF14F0FEEF14F0A1C203F50501D151BC
:1029D000D211D8B4EEEF14F0F0EF14F0FEEF14F0D3
:1029E00003C502F502D8FEEF14F00500FA6ED151CE
:1029F000FD6ED251FE6EFF6AFA501200ACA203EFD8
:102A000015F005EF15F02CEF15F0B7A20AEF15F051
:102A10000CEF15F02CEF15F05950D8B412EF15F05B
:102A200014EF15F023EF15F0000E0501A325D96E64
:102A3000DA6A060EDA22DF500201A36F0501A3292C
:102A40003F0BA36F59065950D8A429EF15F02BEF6F
:102A500015F02CEF15F0AC921200040E075CD8B004
:102A600034EF15F036EF15F03CEF15F006C510F514
:102A700007C511F53FEF15F0030E116E1068400EFB
:102A8000095CD8B046EF15F048EF15F04EEF15F0A1
:102A900008C512F509C513F551EF15F03F0E136E79
:102AA000126810500C6E11500D6E0E6A0F6A0E0EE9
:102AB000D8900C360D360E360F36E82E58EF15F03E
:102AC00012500C10146E13500D10156E000E0E10D7
:102AD000166E000E0F10176E0AC5D9F40BC5DAF486
:102AE00016C5DFF420EE01F00A50D9260B50DA2289
:102AF00015C5DFF420EE02F00A50D9260B50DA2279
:102B000014C5DFF41200000E1A6E000E1B6E000ECC
:102B10001C6E000E1D6E1650171018101910D8B428
:102B200094EF15F096EF15F0CCEF15F0010E1E6E38
:102B3000A0EF15F0D89016361736183619361E2A1B
:102B400019AEA5EF15F0A7EF15F09AEF15F0D89094
:102B50001A361B361C361D361650125C1750135889
:102B60001850145819501558D8A0B9EF15F0BBEFEC
:102B700015F0C4EF15F01650125E1750135A185086
:102B8000145A1950155A1A80D8901932183217321F
:102B900016321E2EA7EF15F01AC512F51BC513F538
:102BA0001CC514F51DC515F51200010E0A6E0501B0
:102BB0009851D8A4DEEF15F0E0EF15F0E9EF15F02D
:102BC0009751D8A4E6EF15F0E8EF15F0E9EF15F00E
:102BD0000A6A0A50D8A4EFEF15F0F2EF15F0010ED3
:102BE000F3EF15F0000E0B6E9551D8A4FAEF15F027
:102BF000FCEF15F00CEF16F00BC596F5010E956F76
:102C00000B50D8B406EF16F008EF16F025EF16F0CB
:102C10006CEC1AF025EF16F096510B18D8B413EFA0
:102C200016F015EF16F025EF16F00B50D8B41BEF89
:102C300016F01DEF16F021EF16F06CEC1AF023EFF2
:102C400016F02EEC1AF00BC596F51200E6EC1BF010
:102C500006C516F507C517F508C518F509C519F510
:102C60000A50165C0B5017580C5018580D50195834
:102C7000D8B03DEF16F03FEF16F061EF16F00A1CEA
:102C80000E6E0B1C0F6E0C1C106E0D1C116E165070
:102C90000E24126E17500F20136E18501020146E51
:102CA00019501120156E010E12240A6E000E132009
:102CB0000B6E000E14200C6E000E15200D6E6DEFC5
:102CC00016F00A50165C0A6E0B5017580B6E0C501B
:102CD00018580C6E0D5019580D6E1200A70E1A6E72
:102CE000050E1B6EC3EC17F0A3EF16F0A70E0C6ECB
:102CF000050E0D6E4DC50EF517EC0DF00009D8B49C
:102D000084EF16F086EF16F0A3EF16F0010E050122
:102D1000A56FE6EC1BF006C580F507C581F508C573
:102D200082F509C583F573EC1BF00009D8A49BEF6D
:102D300016F09DEF16F0A3EF16F0A70E406E050EED
:102D4000416E35EC10F04D0E066E050E076E38EC38
:102D500019F00009D8A4AFEF16F0B1EF16F076EF36
:102D600016F0120003011E9FAB96B6961A9F9E0E98
:102D70001B6F060E196F186BB69EAB8E800E1A6F06
:102D80007FEC1BF0D69EF29E0001789103000000BC
:102D9000000178818BEC1BF00009D8B4D2EF16F05B
:102DA000D4EF16F0D4EF16F002EC1CF0B6AEDBEF69
:102DB00016F0DDEF16F0E7EF16F0B80E066E0B0E0C
:102DC000076E000E086E000E096ECAEC1BF00301C0
:102DD0001A9FAB9EB69ED68E59EC1BF01200180EB1
:102DE000F66E380EF76E000EF86E01EEE1F110EEA1
:102DF00008F00900F5C4EEF4E550E150FAE101EE07
:102E000060F212EEB8F3EE6AE550E150FCE1E250F8
:102E1000FAE101EE00F2600EEE6AE806FDE101EE75
:102E200060F15F0EEE6AE806FDE15A6A596A586A77
:102E3000576A566A0401080E5D6F000E5E6F000E41
:102E40005F6F000EF86E00010FEF0FF00501935158
:102E5000D8A42DEF17F02FEF17F031EF17F05BEF3D
:102E600017F060C50AF561C50BF562C50CF563C5C1
:102E70000DF526EC16F00D500C100BE1100E0A5C4F
:102E8000270E0B58D8A047EF17F049EF17F05BEF6C
:102E900017F024EC1CF00501936B9251D8A453EF6A
:102EA00017F055EF17F059EF17F0020E946F5BEF24
:102EB00017F0010E946F1200000E0E6E000E0F6ED2
:102EC000000E106E000E116E06A069EF17F06BEF8A
:102ED00017F073EF17F00A500E260B500F220C500C
:102EE00010220D501122D8900A360B360C360D36B2
:102EF000D8900932083207320632065007100810FF
:102F00000910D8A486EF17F088EF17F064EF17F0D8
:102F10000EC506F50FC507F510C508F511C509F56D
:102F2000120008500910D8B498EF17F09AEF17F074
:102F3000BEEF17F0010E0A6EA2EF17F0D890083618
:102F400009360A2A09AEA7EF17F0A9EF17F09EEF8E
:102F500017F00850065C09500758D8A0B2EF17F0D8
:102F6000B4EF17F0B8EF17F00850065E0950075A93
:102F7000D890093208320A2EA9EF17F006C506F5D7
:102F800007C507F512001AC5D9F41BC5DAF4DF50DE
:102F9000D8B4CDEF17F0CFEF17F0F3EF17F020EE26
:102FA00012F01A50D9261B50DA22DEC40AF5DEC40C
:102FB0000BF5DEC40CF5DEC40DF526EC16F00D5055
:102FC0000C100BE1E80E0A5C030E0B58D8A0EBEFD7
:102FD00017F0EDEF17F0F3EF17F01AC506F51BC564
:102FE00007F5F4EC17F0120006C5D9F407C5DAF4BA
:102FF000DF6A20EE01F00650D9260750DA22DF6A98
:1030000020EE02F00650D9260750DA22DE6ADD6A89
:1030100020EE04F00650D9260750DA22DE6ADD6A77
:1030200020EE0EF00650D9260750DA22DE6ADD6A5D
:1030300020EE10F00650D9260750DA22DE6ADD6A4B
:1030400012002AEC1CF006C510F507C511F53BEF80
:1030500018F010C506F511C507F50CC5D9F40DC556
:10306000DAF4DF50086E4DEC18F006C510F507C510
:1030700011F50C4A0D2A0E06D8A00F060E2806E1FF
:103080000F28D8A446EF18F048EF18F029EF18F0F1
:1030900010C50CF511C50DF512000850061A0B6A83
:1030A00006A055EF18F057EF18F064EF18F0D8901D
:1030B00007300A6E0630096E010E0918066EA00E62
:1030C0000A18076E6BEF18F0D8900730096E0630BB
:1030D000066E09C507F50B2A070E0B6472EF18F090
:1030E00074EF18F050EF18F006C506F507C507F5A0
:1030F00012001FC506F520C507F5030E096EE80E80
:10310000086E91EC17F006C525F507C526F5030EE8
:103110002502F3C423F5F4C424F52602F350242633
:10312000600E2324066E060E2420076E21C508F5C6
:1031300022C509F5020E21240A6E000E22200B6E14
:103140009DEC13F01200D4EC1BF006C538F507C552
:1031500039F508C53AF509C53BF5ACEC1BF0306E06
:10316000B6EC1BF0316E18EC1CF0326ED8EC19F096
:10317000336E3BC534F53AC535F539C536F538C536
:1031800037F5300E126E050E136E156A080E146EAA
:10319000840EC5EC11F0120005019851D8B4D3EF9C
:1031A00018F0D5EF18F0F1EF18F068C50AF569C509
:1031B0000BF56AC50CF56BC50DF526EC16F00D5038
:1031C0000C100BE1300E0A5C750E0B58D8A0EBEF1B
:1031D00018F0EDEF18F0F1EF18F00501986BD5EC51
:1031E00015F012000501916B000E906F8F6B000EB1
:1031F0008E6F000E746F000E756F000E766F000EEE
:10320000776F9F6B96EC1BF010C5C3F511C5C4F525
:1032100012C5C5F513C5C6F5E6EC1BF006C5C7F526
:1032200007C5C8F508C5C9F509C5CAF51200380EA5
:10323000066E050E076E04EC1AF03950306E38C574
:1032400031F53B50326E3AC533F53D50346E3CC5D6
:1032500035F53F50366E3EC537F5300E126E050E11
:10326000136E156A080E146E820EC5EC11F0120072
:10327000086AD69E0501A051D8B441EF19F043EF7A
:1032800019F055EF19F0400EA125D96EDA6A060E35
:10329000DA2206C5E1F407C5E2F4DFC4E7F4A129A8
:1032A0001F0BA16FA007010E086ED68E08501200EA
:1032B00004011091C890100E0201116F04011093C7
:1032C000C8821183110E0201726FAB8FA00EAE6F18
:1032D000010EAF6FF00EAB17AB8BAB89AC8F596A99
:1032E0000501A36B5A6AAC80AC921200066E3F0EC9
:1032F00059647DEF19F07FEF19F081EF19F08FEF2E
:1033000019F0AC92000E5A24D96EDA6A060EDA224F
:1033100006C5DFF45A283F0B5A6E592AAC821200B8
:10332000A1EC1BF006C50EF507C50FF50501CF5141
:103330000E5C0C6ED0510F580D6E0EC5CFF50FC53B
:10334000D0F50C5078270D507923000E7A23000E0B
:103350007B2312000A6AB7EF19F00A500724D96ECE
:10336000000E0820DA6EDF5076EC19F00A2A0950B8
:103370000A5CD8A0BEEF19F0C0EF19F0ADEF19F05C
:103380001200016E200E0501A061C9EF19F0CBEF0C
:1033900019F0D7EF19F0400EA225D96EDA6A060EA1
:1033A000DA2201C5DFF4A2291F0BA26FA02B1200A5
:1033B000066A05019851D8B4E0EF19F0E2EF19F070
:1033C000E3EF19F006809751D8B4E9EF19F0EBEF6D
:1033D00019F0ECEF19F00682065012000C6E0CA0EA
:1033E000F4EF19F0F6EF19F0F8EF19F00501986B0A
:1033F0000CA2FDEF19F0FFEF19F001EF1AF0050133
:10340000976BD5EC15F0120006500710D8B40BEFEF
:103410001AF00DEF1AF018EF1AF021EEE1F106C5DF
:10342000E1F407C5E2F4070EDBC4E3F4E806FCE2CE
:103430001200066A5950D8A420EF1AF022EF1AF0B1
:103440002CEF1AF00201B2AF28EF1AF02AEF1AF0AF
:103450002CEF1AF0010E066E06501200C084BE84D6
:10346000010E0501936F010E926FE6EC1BF006C58D
:1034700060F507C561F508C562F509C563F5030E7A
:103480000501946F1200E3C51FF5E4C520F57EEC3D
:1034900014F01FC5CDF520C5CEF5E7C51FF5E8C56D
:1034A00020F57EEC14F01FC5CBF520C5CCF512003D
:1034B00004011097C8960099C698009BC69A00957B
:1034C000C6941095C8941099C898C096BE98BE9A94
:1034D000BE94C094C0881200C084BE94010E050141
:1034E000936F926BE6EC1BF006C560F507C561F5BE
:1034F00008C562F509C563F5040E0501946F120055
:10350000C098E6EC1BF006C584F507C585F508C52F
:1035100086F509C587F50501A56BA46B010EA66F9D
:1035200013EC1BF01200ABA698EF1AF09AEF1AF00A
:10353000A4EF1AF0B6A69FEF1AF0A1EF1AF0A4EFCD
:103540001AF0B696EFEC1BF01200010E05019A6F0F
:10355000C086050E996FE6EC1BF006C5BFF507C5E2
:10356000C0F508C5C1F509C5C2F5120005019A6B81
:10357000E6EC1BF006C5BFF507C5C0F508C5C1F5EB
:1035800009C5C2F50501996BC0961200A1EC1BF0AC
:1035900006C5CFF507C5D0F5000E0501786F000E02
:1035A000796F000E7A6F000E7B6F120043EC1AF0F9
:1035B0000501986B976B000E646F000E656F000E2F
:1035C000666F000E676F966B956B12000401109B7F
:1035D000C88A150E0201426F03011491156B176B17
:1035E000060E146F136B126B120005019D51D8B4B7
:1035F000FCEF1AF0FEEF1AF002EF1BF09D6B010ECC
:1036000003EF1BF0000E120005019F51D8B40BEF21
:103610001BF00DEF1BF011EF1BF09F6B010E12EF73
:103620001BF0000E120005019A6BC086E6EC1BF041
:1036300006C5BFF507C5C0F508C5C1F509C5C2F582
:103640001200306E30C531F5310E126E050E136E5C
:10365000156A010E146E8F0EC5EC11F01200306E5B
:1036600030C531F5310E126E050E136E156A010E5E
:10367000146E8E0EC5EC11F0120024EC1CF0050146
:10368000936B000E606F000E616F000E626F000E94
:10369000636F946B120005019E6B9C6B8D6B000E2B
:1036A0008C6F8B6B000E8A6F896B000E886F586A67
:1036B000120003011E9F010E206F1F6BF90E1D6F7C
:1036C000E00E1E6FB696AB861E8F1200FAC404F58C
:1036D000FBC405F5D6EC14F093EC1AF005C5FBF429
:1036E00004C5FAF4110005019C51D8A47AEF1BF02F
:1036F0007DEF1BF0010E7EEF1BF0000E12000201A9
:10370000B0A785EF1BF087EF1BF07FEF1BF0B19F99
:10371000AC86AC8912000201B1BF91EF1BF094EFAF
:103720001BF0010E95EF1BF0000E120090EC19F04B
:1037300078C510F579C511F57AC512F57BC513F575
:10374000120012C30AF513C30BF50B50086E0A5092
:10375000066E08C507F51200C0B4B1EF1BF0B4EF58
:103760001BF0010EB5EF1BF0000E1200BEB4BBEF54
:103770001BF0BEEF1BF0010EBFEF1BF0000E12009E
:10378000000E05017C6F000E7D6F000E7E6F000E37
:103790007F6F1200065005017C2707507D230850DB
:1037A0007E2309507F23120064C506F565C507F521
:1037B00066C508F567C509F5120074C506F575C537
:1037C00007F576C508F577C509F512007CC506F53D
:1037D0007DC507F57EC508F57FC509F51200010E08
:1037E00005017C27000E7D237E237F231200000E1F
:1037F000C0EC1BF059EC1BF0120006C5D1F507C553
:10380000D2F512000201AC99B19FAC96120090C59E
:1038100006F591C507F512003200140010270A00C2
:10382000C0880501A66B12000250C1EC19F012000D
:10383000050194511200010E586E1200030114810B
:103840001200050193511200C094BE941200595009
:103850004008120006680768120008EC13F0120016
:043860001200120040
:020000040030CA
:010000008C73
:04000200F7FFACFF59
:00000001FF
