:02000002B0004C
:1040000000400B0086D70B00000006000C000502E4
:08401000040139180000000052
:04401800DCC70B00F6
:1040200081F0004102E000BF83F0004330B54FEA69
:1040300041044FEA430594EA050F08BF90EA020FD6
:104040001FBF54EA000C55EA020C7FEA645C7FEA69
:10405000655C00F0E2804FEA5454D4EB5555B8BF8C
:104060006D420CDD2C4480EA020281EA030382EAFD
:10407000000083EA010180EA020281EA0303362D8F
:1040800088BF30BD11F0004F4FEA01314FF4801C62
:104090004CEA113102D0404261EB410113F0004F74
:1040A0004FEA03334CEA133302D0524263EB43032B
:1040B00094EA050F00F0A780A4F10104D5F1200EC9
:1040C0000DDB02FA0EFC22FA05F2801841F1000124
:1040D00003FA0EF2801843FA05F359410EE0A5F1F8
:1040E00020050EF1200E012A03FA0EFC28BF4CF029
:1040F000020C43FA05F3C01851EBE37101F00045DF
:1041000007D54FF0000EDCF1000C7EEB00006EEBEB
:104110000101B1F5801F1BD3B1F5001F0CD3490875
:104120005FEA30004FEA3C0C04F101044FEA4452CC
:1041300012F5800F80F09A80BCF1004F08BF5FEA53
:10414000500C50F1000041EB045141EA050130BD33
:104150005FEA4C0C404141EB0101013C28BFB1F545
:10416000801FE9D291F0000F04BF01460020B1FA90
:1041700081F308BF2033A3F10B03B3F120020CDA63
:104180000C3208DD02F1140CC2F10C0201FA0CF041
:1041900021FA02F10CE002F11402D8BFC2F1200CA6
:1041A00001FA02F120FA0CFCDCBF41EA0C0190405C
:1041B000E41AA2BF01EB0451294330BD6FEA0404A5
:1041C0001F3C1CDA0C340EDC04F11404C4F1200290
:1041D00020FA04F001FA02F340EA030021FA04F3A2
:1041E00045EA030130BDC4F10C04C4F1200220FAF9
:1041F00002F001FA04F340EA0300294630BD21FA37
:1042000004F0294630BD94F0000F83F4801306BFFC
:1042100081F480110134013D4EE77FEA645C18BFF0
:104220007FEA655C29D094EA050F08BF90EA020F87
:1042300005D054EA000C04BF1946104630BD91EA7F
:10424000030F1EBF0021002030BD5FEA545C05D182
:104250004000494128BF41F0004130BD14F58004C1
:104260003CBF01F5801130BD01F0004545F0FE4135
:1042700041F470014FF0000030BD7FEA645C1ABF6A
:10428000194610467FEA655C1CBF0B46024650EAA1
:10429000013406BF52EA033591EA030F41F40021CD
:1042A00030BD00BF90F0000F04BF0021704730B553
:1042B0004FF4806404F132044FF000054FF0000128
:1042C00050E700BF90F0000F04BF0021704730B5E9
:1042D0004FF4806404F1320410F0004548BF4042BE
:1042E0004FF000013EE700BF42004FEAE2014FEA13
:1042F00031014FEA02701FBF12F07F4393F07F4FEE
:1043000081F06051704732F07F4208BF704793F0F0
:104310007F4F04BF41F40021704730B54FF4607403
:1043200001F0004521F000411CE700BF50EA010206
:1043300008BF704730B54FF000050AE050EA0102AF
:1043400008BF704730B511F0004502D5404261EB1F
:1043500041014FF4806404F132045FEA915C3FF460
:10436000D8AE4FF003025FEADC0C18BF03325FEAFD
:10437000DC0C18BF033202EBDC02C2F1200300FAAE
:1043800003FC20FA02F001FA03FE40EA0E0021FAD3
:1043900002F11444BDE600BF70B54FF0FF0C4CF4C1
:1043A000E06C1CEA11541DBF1CEA135594EA0C0F73
:1043B00095EA0C0F00F0DEF82C4481EA030621EAAE
:1043C0004C5123EA4C5350EA013518BF52EA0335E9
:1043D00041F4801143F4801338D0A0FB02CE4FF09B
:1043E0000005E1FB02E506F00042E0FB03E54FF0CB
:1043F0000006E1FB03569CF0000F18BF4EF0010EC3
:10440000A4F1FF04B6F5007F64F5407404D25FEABE
:104410004E0E6D4146EB060642EAC62141EA555171
:104420004FEAC52040EA5E504FEACE2EB4F1FD0CB3
:1044300088BFBCF5E06F1ED8BEF1004F08BF5FEA31
:10444000500E50F1000041EB045170BD06F00046E3
:1044500046EA010140EA020081EA0301B4EB5C0490
:10446000C2BFD4EB0C0541EA045170BD41F4801188
:104470004FF0000E013C00F3AB8014F1360FDEBFAD
:10448000002001F0004170BDC4F10004203C35DA89
:104490000C341BDC04F11404C4F1200500FA05F30C
:1044A00020FA04F001FA05F240EA020001F00042AD
:1044B00021F0004110EBD37021FA04F642EB060123
:1044C0005EEA430E08BF20EAD37070BDC4F10C044D
:1044D000C4F1200500FA04F320FA05F001FA04F211
:1044E00040EA020001F0004110EBD37041F10001FD
:1044F0005EEA430E08BF20EAD37070BDC4F1200508
:1045000000FA05F24EEA020E20FA04F301FA05F26F
:1045100043EA020321FA04F001F0004121FA04F217
:1045200020EA020000EBD3705EEA430E08BF20EAE7
:10453000D37070BD94F0000F0FD101F00046400021
:1045400041EB010111F4801F08BF013CF7D041EAA3
:10455000060195F0000F18BF704703F000465200A7
:1045600043EB030313F4801F08BF013DF7D043EA78
:104570000603704794EA0C0F0CEA135518BF95EA2E
:104580000C0F0CD050EA410618BF52EA4306D1D1B5
:1045900081EA030101F000414FF0000070BD50EAD4
:1045A000410606BF1046194652EA430619D094EA5E
:1045B0000C0F02D150EA013613D195EA0C0F05D148
:1045C00052EA03361CBF104619460AD181EA03019C
:1045D00001F0004141F0FE4141F470014FF0000054
:1045E00070BD41F0FE4141F4780170BD70B54FF0EF
:1045F000FF0C4CF4E06C1CEA11541DBF1CEA13556F
:1046000094EA0C0F95EA0C0F00F0A7F8A4EB050450
:1046100081EA030E52EA03354FEA013100F0888047
:104620004FEA03334FF0805545EA131343EA126310
:104630004FEA022245EA111545EA10654FEA0026C5
:104640000EF000419D4208BF964244F1FD0404F57E
:10465000407402D25B084FEA3202B61A65EB0305DA
:104660005B084FEA32024FF480104FF4002CB6EB97
:10467000020E75EB030E22BFB61A754640EA0C0017
:104680005B084FEA3202B6EB020E75EB030E22BF57
:10469000B61A754640EA5C005B084FEA3202B6EB98
:1046A000020E75EB030E22BFB61A754640EA9C0057
:1046B0005B084FEA3202B6EB020E75EB030E22BF27
:1046C000B61A754640EADC0055EA060E18D04FEAE5
:1046D000051545EA16754FEA06164FEAC30343EA85
:1046E00052734FEAC2025FEA1C1CC0D111F4801F52
:1046F0000BD141EA00014FF000004FF0004CB6E74B
:1047000011F4801F04BF01430020B4F1FD0C88BFE9
:10471000BCF5E06F3FF6AFAEB5EB030C04BFB6EBF4
:10472000020C5FEA500C50F1000041EB045170BDE7
:104730000EF0004E4EEA113114EB5C04C2BFD4EB14
:104740000C0541EA045170BD41F480114FF0000E98
:10475000013C90E645EA060E8DE60CEA135594EA14
:104760000C0F08BF95EA0C0F3FF43BAF94EA0C0F17
:104770000AD150EA01347FF434AF95EA0C0F7FF48C
:1047800025AF104619462CE795EA0C0F06D152EAE0
:1047900003353FF4FDAE1046194622E750EA4106C4
:1047A00018BF52EA43067FF4C5AE50EA41047FF4D5
:1047B0000DAF52EA43057FF4EBAE12E74FF0FF3C3A
:1047C00006E000BF4FF0010C02E000BF4FF0010C0B
:1047D0004DF804CD4FEA410C7FEA6C5C4FEA430C84
:1047E00018BF7FEA6C5C1BD001B050EA410C0CBFD3
:1047F00052EA430C91EA030F02BF90EA020F002035
:10480000704710F1000F91EA030F58BF994208BF9B
:1048100090422CBFD8176FEAE37040F00100704758
:104820004FEA410C7FEA6C5C02D150EA013C07D1AF
:104830004FEA430C7FEA6C5CD6D152EA033CD3D0FA
:104840005DF8040B704700BF8446104662468C46F4
:104850001946634600E000BF01B5FFF7B7FF002827
:1048600048BF10F1000F01BD4DF808EDFFF7F4FF50
:104870000CBF012000205DF808FB00BF4DF808EDDB
:10488000FFF7EAFF34BF012000205DF808FB00BFFE
:104890004DF808EDFFF7E0FF94BF012000205DF820
:1048A00008FB00BF4DF808EDFFF7CEFF94BF0120D5
:1048B00000205DF808FB00BF4DF808EDFFF7C4FFCE
:1048C00034BF012000205DF808FB00BF4FEA410221
:1048D000B2F1E04324BFB3F5001CDCF1FE5C0DD95E
:1048E00001F0004C4FEAC0024CEA5070B2F1004FA8
:1048F00040EB830008BF20F00100704711F0804FAB
:1049000021D113F13872BCBF01F00040704741F46F
:1049100080114FEA5252C2F11802C2F1200C10FA73
:104920000CF320FA02F018BF40F001004FEAC12357
:104930004FEAD32303FA0CFC40EA0C0023FA02F3FB
:104940004FEA4303CCE77FEA625307D150EA0133D1
:104950001EBF4FF0FE4040F44000704701F00040A1
:1049600040F0FE4040F40000704700BF53B94AB920
:10497000002908BF00281CBF4FF0FF314FF0FF3067
:1049800000F0C6B9ADF1080C6DE904CE00F058F89E
:10499000DDF804E0DDE9022304B0704707EE900A79
:1049A000F5EEC07AF1EE10FA01D400F00BB8F1EE9A
:1049B000677A08B517EE900A00F004F8404261EB00
:1049C000410108BDD0B5FFF78FFC0C4B0022064615
:1049D0000F46FFF7E1FC00F09DF90446FFF762FC8B
:1049E000074B0022FFF7D8FC02460B4630463946FB
:1049F000FFF71AFB00F08EF92146D0BD0000F03D14
:104A00000000F041D0B50C4B002206460F46FFF7E0
:104A1000C3FC00F07FF90446FFF744FC074B00227B
:104A2000FFF7BAFC02460B4630463946FFF7FCFA60
:104A300000F070F92146D0BD0000F03D0000F041CB
:104A40002DE9F047089D04468E46002B4DD18A4241
:104A5000944669D9B2FA82F252B101FA02F3C2F174
:104A6000200120FA01F10CFA02FC41EA030E944005
:104A70004FEA1C48210CBEFBF8F61FFA8CF708FB26
:104A800016E341EA034306FB07F199420AD91CEBFE
:104A9000030306F1FF3080F01F81994240F21C8130
:104AA000023E63445B1AA4B2B3FBF8F008FB103378
:104AB00044EA034400FB07F7A7420AD91CEB0404AD
:104AC00000F1FF3380F00A81A74240F2078164447D
:104AD000023840EA0640E41B00261DB1D440002302
:104AE000C5E900433146BDE8F0878B4209D9002D66
:104AF00000F0EF800026C5E9000130463146BDE8F0
:104B0000F087B3FA83F6002E4AD18B4202D3824259
:104B100000F2F980841A61EB030301209E46002D08
:104B2000E0D0C5E9004EDDE702B9FFDEB2FA82F25D
:104B3000002A40F09280A1EB0C014FEA1C471FFABB
:104B40008CFE0126200CB1FBF7F307FB131140EAA2
:104B500001410EFB03F0884208D91CEB010103F16F
:104B6000FF3802D2884200F2CB804346091AA4B231
:104B7000B1FBF7F007FB101144EA01440EFB00FE05
:104B8000A64508D91CEB040400F1FF3102D2A6456A
:104B900000F2BB800846A4EB0E0440EA03409CE709
:104BA000C6F12007B34022FA07FC4CEA030C20FAB6
:104BB00007F401FA06F31C43F9404FEA1C4900FAD6
:104BC00006F3B1FBF9F8200C1FFA8CFE09FB181153
:104BD00040EA014108FB0EF0884202FA06F20BD9C6
:104BE0001CEB010108F1FF3A80F08880884240F216
:104BF0008580A8F102086144091AA4B2B1FBF9F05A
:104C000009FB101144EA014100FB0EFE8E4508D954
:104C10001CEB010100F1FF346CD28E456AD90238D9
:104C2000614440EA0840A0FB0294A1EB0E01A142BE
:104C3000C846A64656D353D05DB1B3EB080261EB2C
:104C40000E0101FA07F722FA06F3F1401F43C5E906
:104C5000007100263146BDE8F087C2F12003D8403C
:104C60000CFA02FC21FA03F3914001434FEA1C477E
:104C70001FFA8CFEB3FBF7F007FB10360B0C43EA70
:104C8000064300FB0EF69E4204FA02F408D91CEB20
:104C9000030300F1FF382FD29E422DD9023863441E
:104CA0009B1B89B2B3FBF7F607FB163341EA0341BE
:104CB00006FB0EF38B4208D91CEB010106F1FF380D
:104CC00016D28B4214D9023E6144C91A46EA004604
:104CD00038E72E46284605E70646E3E61846F8E696
:104CE0004B45A9D2B9EB020864EB0C0E0138A3E7DF
:104CF0004646EAE7204694E74046D1E7D0467BE7C0
:104D0000023B614432E7304609E76444023842E737
:104D1000704700BF4A0011D212F5001211D20DD512
:104D20006FF47873B3EB62520ED44FEAC12343F0B1
:104D3000004343EA505323FA02F070474FF000005B
:104D4000704750EA013002D14FF0FF3070474FF00A
:104D50000000704710F8012B11F8013B012A28BF11
:104D60009A42F7D0D01A7047034613F8012B002A55
:104D7000FBD1181A0138704738B5002200230446C9
:104D80000D46FFF77BFD28B920462946BDE838408F
:104D9000FFF738BE204605F10041FFF733FE4042E1
:104DA00061EB410138BD00BF09480A49884208B596
:104DB00005D0094A824202D0121A05F02FFC07489A
:104DC000074A0021121A05F051FC014808BD00BF36
:104DD0005C700320D8D40B00447203204872032077
:104DE000FCE7032070B5074E074C04F0B3F9A41B91
:104DF000A4080025AC4200D170BD56F8043B98478A
:104E00000135F7E784D40B00ACD40B0001F03EB9B8
:104E100008B501F099FDBDE8084004F053B902F06F
:104E200011BD02F00FBD02F015BD000008B5034A28
:104E300003490C2002F0C8FBFEE700BFF9710B002C
:104E4000F0C70B000078B0FA80F0400970470123EA
:104E50000370704770470000024A01231370024A32
:104E60001370704705D503202CD50320064B9FED0A
:104E7000077AD3ED006AF6EE007AE6EE877AFDEE69
:104E8000E77A17EE900A704700F4032000007A4496
:104E9000014B0120187070472CD5032010B5034B2F
:104EA0000360044602F006F8204610BDE4CC0B0077
:104EB00010B50446FFF7F2FF20464FF40C71FFF7E0
:104EC000B2FF204610BD436913B183690C30184707
:104ED000704713B500210446084602F005FA002386
:104EE000204601A9019302F017FA019C0CB101239D
:104EF00023710021012002F0F7F92CB1236820462C
:104F00009B6898470023237102B010BDB0F5FC6F79
:104F100010B511D21A4B191801F57C5182000C788A
:104F200000F5FC601A4444B903EB800382ED000AEB
:104F3000144A1A6001230B7010BD92ED007ADFED68
:104F4000127ADFED126A30EE470A03EB8003A0EE1F
:104F5000277A20EE000A93ED006A82ED007A60EE77
:104F6000277AE6EE267ADFED0A6AF4EE667AF1EE4B
:104F700010FA48BFF0EE667AC3ED007ADCE700BFB6
:104F8000587203200BD7233B0AD7A33C48E17A3F52
:104F900017B7D139012A02D1016000207047022AD7
:104FA00004BF0B680360F8E70368184707B580681B
:104FB00030B10023CDE900131A46022102F0B4F902
:104FC00003B05DF804FB37B505460C460021FFF73A
:104FD000EDFFA86830B10023CDE900431A46194619
:104FE00002F0A2F903B030BD70B50D4B86B01E784B
:104FF0000546144692B110460591FFF7B5FE059996
:105000008DF8086000233C22CDE900320346224699
:10501000284604F065FA284606B070BD1046EFE752
:1050200038B903200A4B10B50446036003F0ACF80E
:10503000214603F0F6FA04F07FFC04F06FFC2046F2
:10504000044B40F8043B03F075F9204610BD00BF47
:10505000CCCC0B00B4CC0B0010B50446FFF7E2FF3C
:1050600020462421FFF7DFFE204610BD10B58368DF
:10507000044613B1032201469847204610BD0000A4
:1050800038B50F4B0360836804469BB16FF0004155
:10509000FFF78CFFA068002102F06EF9237903F07E
:1050A000FF0513B102F018F9F8E7A068294602F0ED
:1050B0002BF9A56004F10C00FFF7D8FF204638BD9E
:1050C000A0CC0B0010B50446FFF7DAFF20461C21E8
:1050D000FFF7A9FE204610BD002340681A46194676
:1050E00002F010BB002340681A4602F0EBBA00221F
:1050F0004068114602F0FEBAF8B5037D05460F463A
:1051000016468BB10368DB6883B19A88012A06D002
:105110009B68F9E79B684BB19A88012AFAD12BB1B9
:105120009A89BA42F6D19E732846F8BD0A491020E2
:1051300005F0DCF9044668B11022002105F096FA6A
:10514000064B23600123A3802B69A360A781A6736C
:105150002C61E9E72875E7E760D00B001000030039
:10516000002002F079B810B504468AB008464FF026
:10517000200C0021CDE90023CDE902C10B4602AA93
:10518000216802F031FA0AB010BD0EB403B503ABCA
:105190001E2153F8042B0193FFF7E5FF02B05DF8E1
:1051A00004EB03B070470EB403B503AB282153F8EA
:1051B000042B0193FFF7D7FF02B05DF804EB03B0B7
:1051C00070470EB403B503AB322153F8042B01939F
:1051D000FFF7C9FF02B05DF804EB03B0704770B58C
:1051E0000E46144640F201614FF4DB7206F09EF960
:1051F000051E0BDB3146224606F0B6F90646284668
:1052000006F08CF9A31B5842584170BD0020FCE702
:1052100070B50E460021144606F088F9051E0BDB1A
:105220003146224606F096F90646284606F076F9FB
:10523000A31B5842584170BD0020FCE710B511492E
:10524000114840F64832FFF7CAFF10484FF4DB72AE
:1052500040F2016106F06AF9041E0CDB0C490422DD
:1052600006F082F90B4944F2E062204606F07CF930
:10527000204606F053F9034B0749DA880748FFF741
:1052800084FF10BD39B9032005C80B0015C80B00F9
:10529000ECCC0B005872032028C80B0058E6032002
:1052A00037B503F048FE2A4C054640F648322948F7
:1052B0002146FFF7ADFFE8B1E288B2F5B46F19D827
:1052C0002368BBB1AB4215D823492448FFF75DFFE3
:1052D0002348002106F02AF9051E1ADA0021214888
:1052E00044F2E06205F0C2F91F491C48FFF74DFF88
:1052F00003B030BD1D481E49B5FBF0F50023454302
:105300001648256023716371A371E371FFF73DFFB8
:10531000DEE7042200240DEB0201019406F01AF9E5
:1053200004280ED1134B019A9A420AD10D4944F236
:10533000E062284606F00EF944F2E064031B5C428A
:105340005C41284606F0EAF8002CC7D00A49CCE7B1
:1053500039B9032005C80B004AC80B0058E60320E2
:1053600015C80B005872032086C80B00805101003D
:1053700070C80B004C444D4CBBC80B0007B5074B25
:105380000093074B1B68019305F05AF80822694601
:10539000002001F051FF03B05DF804FB4C4143468F
:1053A00000F4032013B5002300240193009405F0BA
:1053B00047F808222046694601F036FF154B009A4F
:1053C000154C9A4221D1DDED017AF4EE677AF1EEC7
:1053D00010FA1AD1B6EE007AF4EEC77AF1EE10FAAE
:1053E00013DBB0EE007AF4EEC77AF1EE10FA0CD8C7
:1053F000C4ED007A2068FEF777FF02460B460748A7
:105400000749FFF7C2FE02B010BD064B2360FFF74D
:10541000B5FFEFE74C41434600F4032058E6032074
:10542000D8C80B00D7A3A03F1FB5094B0093094B69
:1054300093E8070004AB03E9070005F001F8102228
:105440006946202001F0F8FE05B05DF804FB00BFBE
:105450004746434C04F4032010B58AB004F0F0FF33
:10546000102206A9202001F0DFFE154B069A9A4271
:10547000144B1DD10AAA12E9070083E80700124C59
:105480006068FEF731FF0B46617B03910246217B8A
:10549000A0680291CDE90423FEF726FFDDE904238D
:1054A000CDE9000109490A48FFF76FFE0AB010BDB7
:1054B000084A07CA83E80700FFF7B6FFDFE700BF27
:1054C0004746434C04F4032000F40320E7C80B00D4
:1054D00058E60320BCC70B0038B54849B0FBF1F2D1
:1054E0000723141DB4FBF3F3C3EBC303E31A01FB5F
:1054F00012004FF49674B0FBF4F04FF4907404FB78
:1055000003043F4B2DED028B1A1902F57C52B0EECD
:10551000408A157835B92046FFF7F8FC0020BDEC2D
:10552000028B38BD03EB8402D2ED008ADFED357AC1
:1055300004F5FC6203EB820393ED000AB4EE670A04
:10554000F1EE10FA48BFB0EE670A05F01DF8B1EEB3
:10555000007AF0EE687AE0EE077A2B4BB6EE007A2E
:10556000F4EE477AF1EE10FA48BFF0EE477AF4EE27
:10557000C87AF1EE10FA07D4244AD2ED017AF4EE9B
:10558000C87AF1EE10FA25D51A680132204821496F
:105590001A600368DFED207A01EB830181ED008A58
:1055A0000133062193FBF1F501FB15331B49036021
:1055B0000B681848052BDCBF01330B60096800231A
:1055C000B1EE047A994207DDF0EC016A0133E6EEB0
:1055D000877AF7E70022D9E7062907D10B4B93ED2D
:1055E000027AB4EEE77AF1EE10FA04D4022A02DC71
:1055F000B0EE480A8FE7012091E700BF805101001B
:105600005872032017B7D1395472032000F40320D5
:1056100084D4032088D4032000000000A0D40320F9
:10562000F0B51F4C2DED028B27697B1C85B005461C
:105630000E46B0EE408A0DD1C4E9045604EB850055
:10564000D0ED067A37EE880A80ED060A05B0BDEC8B
:10565000028BF0BD8742F1D004EB8703029098697A
:10566000FEF742FE3A46CDE900010E490E48FFF72B
:105670008CFD002DE0D16369B342DDD0A06FFEF751
:1056800033FE0B46024609490748FFF77EFD6022BC
:10569000294604F1180004F0E9FF0023A367CBE7D3
:1056A00000F4032017C90B0058E6032039C90B008A
:1056B0000D49CA88B2F5B46F14D29FED0C7AF6EE9C
:1056C000007AE0EE077A501CC88040F2E730FCEE2A
:1056D000E77A043217EE903A9BB2834228BF034622
:1056E00021F81230704700BF39B903200000C842CA
:1056F00008B502490248FFF748FD08BD58C90B002C
:1057000058E6032007B50A4B01900021196001F00B
:105710007BFD084B186001F077FD074B019A18607C
:1057200006490748FFF731FD03B05DF804FB00BFF1
:1057300024D50320DCD4032028D503206AC90B001C
:1057400058E6032070B505463248FFF7DBFF2846D0
:1057500002F0CFFA284602F0BEFA2F49284602F09E
:105760006FFA0646E8B10121072004F018FE012176
:10577000042004F014FE0121032004F010FE274A47
:1057800053791BB92649CB6F0133CB670123537182
:10579000244A254813706FF00041FFF714FC0220E3
:1057A00070BD2249284602F04BFA0446B8B10121E7
:1057B000072004F0F4FD3146042004F0F0FD01213F
:1057C000032004F0ECFD154B17485E71154B0124C6
:1057D0006FF000411C70FFF7F6FB2046E0E714492C
:1057E000284602F02DFA88B12146072004F0D7FDA3
:1057F0002146042004F0D3FD2146032004F0CFFD10
:1058000009486FF00041FFF7D1FBE6E74FF0FF30AA
:10581000C6E700BF86C90B0094C90B00A8D40320BB
:1058200000F403202CD5032008D503209AC90B00CF
:1058300020CC0B001FB5134B134C9A7922B9D4F826
:1058400080200132C4F8802001229A711A7922B98D
:10585000D4F884200132C4F8842001221A71237BF9
:105860004BB10A49684602F094F96846FFF76AFFAF
:10587000684602F043F9637B13B1054B01221A70AD
:1058800004B010BDA8D4032000F4032094C90B0079
:105890002CD503202DE9F0472DED048B0C1E82B092
:1058A000814606DD03F02AFB40B947494748FFF728
:1058B0007AFC02B0BDEC048BBDE8F08703F03BFB43
:1058C0009FED439ADFF83481DFED428A3C260125C3
:1058D000B0FBF6F0061B3C2377195F43A9F10203E6
:1058E00033F8253007EE903AF8EE677AC7EE896A0A
:1058F000F5EEC06AF1EE10FA63D9DFED377A9FED6D
:10590000377A9FED378AA6EEA77AF7EE007A37EE60
:10591000277AC6EE877A9FED337A67EE887A9FED15
:10592000328A27EE877A27EE888AA7EE878A9FED4C
:105930002F7A38EE478A77EEC87A98ED008A27EEFC
:10594000888AB5EE408AF1EE10FA48BFB0EE688A58
:10595000DFED277AC8EE279A0021384603F09EFA39
:1059600000218246384603F0A1FA01465046B0EEC7
:10597000690AFFF755FED8ED1E7A77EEA97AB0EEE8
:10598000480A3846C8ED1E7AFFF7A6FD08B1FFF7B2
:1059900051FFB0EE480AFFF78BFEAC4205F1010360
:1059A0000DD1144BD8F878009862FEF79DFC224682
:1059B000CDE9000110490548FFF7E7FB79E71D46EF
:1059C00089E7B0EE688AC3E79FC90B0058E6032059
:1059D000000070420000000004E78CBBB81E853D4B
:1059E0007F6ABC3C3333B33E1F85EBBE96430B3D11
:1059F000E02DB03FA8D40320C1C90B0000F4032060
:105A000010B510B3184801F0D1F8E8B1174916489D
:105A10004FF4806201F07AF900281DDD0146134839
:105A2000FFF738FFFFF70AFC114C94F888305BB1A0
:105A30000D48211D01F096F930B100230D490E48A3
:105A400084F88830FFF7A1FB10BD084906484FF4E1
:105A5000806201F05DF9DFE7E6D0024607490648BB
:105A6000FFF7A1FBE0E700BF04D5032082C40320B9
:105A700000F40320FCC90B0058E60320EAC90B0020
:105A800010B504461948FFF73DFE204602F031F9F3
:105A9000204602F020F91649204602F0D1F868B1FC
:105AA000144A13792BB91449D1F884300133C1F861
:105AB0008430124B01201071187010BD104920461F
:105AC00002F0BEF840B10B4B002018710D4B18606E
:105AD0000A4B01221A70F0E70B49204602F0B0F899
:105AE0000028F0D14FF0FF30E7E700BF1ACA0B00E3
:105AF00026CB0B00A8D4032000F403202CD50320D0
:105B000020CC0B005472032052C90B0010B5084C76
:105B10000848FFF7F7FD0848211D01F023F920B1DF
:105B2000002384F88830012010BD4FF0FF30FBE7E0
:105B300000F4032028CA0B0004D50320F0B5044666
:105B40009DB02D48FFF7DEFD204602F0D2F82C2153
:105B5000204602F095F8051E4BDD2B46002221461B
:105B600001A802F091F86A1C214605A802F0ACF8E1
:105B700001A802F0BEF805A802F0BBF8039B53B9D8
:105B80004FF0FF3405A801F0B9FF01A801F0B6FFFE
:105B900020461DB0F0BD019F059D37B33846FFF785
:105BA000E3F806461DB32846FFF7DEF80446382220
:105BB00000210DEB020004F059FD4C23CDE909371B
:105BC0000D9403230D4C8DF838300023194660687E
:105BD00009AACDE90B6501F0B5FD01460028CFD13A
:105BE0002046FFF77FFA0124CCE73E46DAE72C4651
:105BF000DDE74FF0FF34CBE730CA0B000CE70320A2
:105C000010B50848084CFFF77DFD00231A461946D9
:105C1000606801F09FFD60680022022101F062FDD2
:105C2000012010BD38CA0B000CE7032038B504462C
:105C30001B48FFF767FD204602F05BF8206804F080
:105C4000D5FC51EC100BFEF741FE07EE900AF4EE86
:105C5000677AF1EE10FA1FD1B6EE007AF4EEC77A49
:105C6000F1EE10FA18D4B0EE007AF4EEC77AF1EE45
:105C700010FA11DC0B4D2860FFF780FB0A4B2868F7
:105C800001241C70FEF730FB02460B46074808490A
:105C9000FFF77BFA204638BD4FF0FF30FBE700BF2F
:105CA00042CA0B0000F403202CD5032058E6032041
:105CB0004DCA0B002DE9F0432DED028B04468BB04D
:105CC0006448FFF71FFD204602F013F82C21204600
:105CD00001F0D6FF00F1010907464A462C21204673
:105CE00001F0C0FF00F10108054642462C21204684
:105CF00001F0B8FF002F064603DB002D01DB002872
:105D00000ADA55485549FFF74EFA4FF0FF300BB00D
:105D1000BDEC028BBDE8F0833B460022214606A87D
:105D200001F0B2FF069804F061FC51EC100BFEF795
:105D3000CDFD08EE900A06A801F0E0FE2B464A468B
:105D4000214606A801F0A0FF069804F04FFC51EC94
:105D5000100BFEF7BBFD08EE100A06A801F0CEFE00
:105D600033464246214606A801F08EFF069804F00D
:105D700040FC054606A801F0C1FE721C214606A89B
:105D800001F0A2FF069804F034FC064606A801F0D4
:105D9000B5FEDFED337AF4EEE78AF1EE10FA4CD47B
:105DA000DFED307AF4EEE78AF1EE10FA45DCF7EE3B
:105DB000007AB4EEE78AF1EE10FA41D4DFED2A7AE8
:105DC000B4EEE78AF1EE10FA3ADC012D3BD8022E50
:105DD0003CD8264CC4ED018A84ED028A2573667393
:105DE000FFF722FB224A0123137084F8883018EE53
:105DF000900AFEF779FA02460B4618EE100ACDE932
:105E00000423CDE90256FEF76FFADDE90423CDE95C
:105E1000000111481749FFF7B8F9174800F0C6FE0E
:105E200008B9012073E71549134800F09BFF0028CB
:105E3000F7D0002384F88830F3E76FF0010066E7BD
:105E40006FF0020063E76FF0030060E76FF004009B
:105E50005DE700BF5FCA0B0058E6032069CA0B006C
:105E6000CDCCCC3D0000484300007A4400F4032030
:105E70002CD5032086CA0B0004D5032004F403208C
:105E800070B5664B1A798AB0002A40F0C4805B79FD
:105E9000002B40F0C080624B93F88930002B40F01B
:105EA000BA80604E01F0B0F93368002B29D15E4A08
:105EB0001268801A4EF65F22904240F2AC800133A5
:105EC0003360FFF7BBF9002304A8CDE90433ADF834
:105ED00018308DF81A3003F0EAF9FFF741F941F272
:105EE00088350446FFF73CF9001B61F10001A84228
:105EF00071F1000308D201F07DFC28B101F06AFCC9
:105F0000F0E7DCDD494AD3E701F074FC48480023A0
:105F10001A461946406801F0FDFB05AB04930023C7
:105F2000CDE906330893102302220124ADF8143082
:105F30001221032304A8ADF816308DF818208DF82F
:105F40002440FFF7D9F822460A21FFF7D5F8037D50
:105F50000546DBB10368DB6823B19A88042A57D071
:105F60009B68F9E73349102004F0C0FA0446002882
:105F70004CD01022002104F079FB2F4B2360042326
:105F8000A3802B69A3602D4BE3602C612C4B3268FE
:105F90002C492D482D4CFFF7F8F804A901A801F071
:105FA00029FD01F031F9214B1860294B02221A70AA
:105FB000019B13B39D88012D1FD19B890A2B09D109
:105FC00024492148FFF7E1F82846FFF719FD00238F
:105FD000237006E0122B10D11F491B48FFF7D5F89C
:105FE0002570019808B101F035FC089898B18468D3
:105FF0000C21FEF718FF2046F8E718491248FFF772
:10600000C4F80020FFF7FCFC0123E1E72875BDE799
:106010000A4ADA60BAE70AB070BD00BFA8D403200C
:1060200000F4032024D5032028D50320DCD403204A
:106030000CE7032060D00B0010000300005C260575
:1060400080510100B2CA0B0058E603202CD5032072
:10605000A4D40320CDCA0B00E7CA0B00FFCA0B0073
:1060600008B50748FFF743F840B101F0C3FB28B17A
:10607000044B02221A70044B01221A7008BD00BFA3
:106080000CE70320A4D403202CD503207FB503F014
:1060900053FC4FF4E13103F03DFCFFF761F8044697
:1060A000FFF75EF8001B61F10001B0F5FA5F71F1D6
:1060B000000307D203F040FC03F033FC10B901F0F9
:1060C00089FBEDE703F038FC03F02BFCBAEE000A85
:1060D00002F0F4FE5D4A5E495E485F4EFFF755F8F8
:1060E000FFF760F9FFF7B8F90121072004F046F93E
:1060F0000121042004F042F90121032004F03EF9BB
:106100000221122004F03AF95449684601F041FD99
:106110006846FFF717FB684601F0F0FC50484FF463
:10612000164100F035FD4F4A4F49504803F0AEF894
:106130004F4A50494D4803F0A9F84F4A4F494B4840
:1061400003F0A4F84E4A4F49484803F09FF84E4ADE
:106150004E49464803F09AF84D4A4E49434803F0E9
:1061600095F84D4A4D49414803F090F84C4A4D4945
:106170003E4803F08BF84C4A4C493C4803F086F803
:106180004B4B354800241C60FEF7A6FF21463248E1
:10619000FEF7A8FFFEF7E4FF44F620650446FEF78D
:1061A000DFFF001B61F10001A84271F1000306D27C
:1061B0003046FEF79CFF10B901F00CFBEFE72648D4
:1061C000FEF795FF01F00EFBFEF7CAFF47F23055D0
:1061D0000446FEF7C5FF001B61F10001A84271F102
:1061E000000305D201F006FB10B901F0F3FAF0E765
:1061F00001F000FB02F082FE10B901F0EBFAF9E7C2
:1062000002F07CFEFFF74CF802F095FE294AD2F826
:106210008C3083429FBF3C23B0FBF3F000FB033381
:10622000C2F88C30244B01221A7000F0EDFF234B92
:10623000186000F0E9FF224B22491860224B054804
:1062400002221A70FEF7A1FF04B070BD23CB0B0031
:1062500029CB0B0058E603200CE7032020CC0B00D1
:1062600004D5032086C90B0045570B0061920B0033
:106270001ACA0B00815A0B0042CA0B002D5C0B009E
:1062800041CB0B006D4E0B005FCA0B00B55C0B00E1
:106290004CCB0B00914E0B0028CA0B000D5B0B0082
:1062A00030CA0B003D5B0B0038CA0B00015C0B00D1
:1062B000A8D4032000F403202CD5032028D50320E4
:1062C000DCD4032056CB0B00A4D4032038B50468DB
:1062D00005467CB16368013B63605BB92368204677
:1062E0009B689847A368013BA3601BB923682046BD
:1062F000DB689847284638BD70B5D0E900531426AE
:10630000044606FB0356AE4204D0284601F0F6FBD5
:106310001435F8E7206801F09DFA204670BD37B5C6
:1063200004461546019100F0D1FE01990122204654
:1063300000F03AFE20463A2100F0EAFD012229460B
:10634000204603B0BDE8304000F02EBE37B504460D
:106350001546019100F0BAFE01990122204600F095
:1063600023FE20463A2100F0D3FD04492A46204668
:1063700003B0BDE8304000F00ABE00BFF9C90B0011
:106380002DE9F04FDFF85CA1BAF80660ADF56D7D40
:10639000002E00F08B8078237736B6FBF3F6B3B28D
:1063A00001930027C7EB0715BAF80640ED00ADB220
:1063B000641BA4B2782C4FF0000928BF7824C8468B
:1063C0000DF1140B1FFA89F39C4212D909EB050356
:1063D0000433C8F5B4710BEB08003AF81330354AB2
:1063E000013101F047FA8044B8F5B47F09F10109A1
:1063F000E8D300234FF400726CA960A80BF80830B2
:1064000000F074FD2C4B60937D227B2160A800F08E
:1064100068FE2A4A2A4960A8FFF781FFDAF80020BF
:10642000284960A8FFF792FF013727493C2260A85E
:10643000FFF78CFF25493A4660A8FFF787FF2449FC
:10644000324660A8FFF782FF22492A4660A8FFF77C
:106450007DFF2149224660A8FFF778FF60A800F081
:1064600035FE01221D4960A800F09EFD3A2160A87A
:1064700000F04EFD0122594660A800F095FD60A88D
:1064800000F054FD619A164903A8FEF7ADFD04A87B
:10649000FFF71CFF40F24C4002F068FD60A8FEF7D9
:1064A000FDFC019ABBB29A423FF67CAF0DF56D7DC3
:1064B000BDE8F08F65CB0B00E4CC0B0023CB0B00C9
:1064C0006ACB0B0073CB0B007BCB0B0087CB0B0095
:1064D0008DCB0B0099CB0B00A5CB0B00B1CB0B00E8
:1064E000B6CB0B0039B9032013B504468DED000A75
:1064F000019100F0EBFD01990122204600F054FDCE
:1065000020463A2100F004FD9DED000A204602B02D
:10651000BDE8104000F0FEBD70B52DED048B814844
:10652000ADF5167DFEF7E3FD014628BB7D487D4EA7
:10653000FEF7D8FDFEF714FE44F620650446FEF78C
:106540000FFE001B61F10001A84271F1000306D2A9
:106550003046FEF7CCFD10B901F03CF9EFE7714889
:10656000FEF7C5FD40B970497048FEF72AFE0DF5EB
:10657000167DBDEC048B70BD4FF4007216A90AA8FD
:1065800000F0B4FC6A4D6B4B0A937D227B210AA874
:10659000694C00F0A6FD694A69490AA8FFF7BFFEE9
:1065A0002A6868490AA8FFF7D1FED4F88420664912
:1065B0000AA8FFF7CBFEE26F64490AA8FFF7C6FE00
:1065C000D4F8802062490AA8FFF7C0FE95ED020AC0
:1065D00060490AA8FFF788FF94ED000A5E490AA8FF
:1065E000FFF782FF94ED010A5C490AA8FFF77CFFE0
:1065F00094ED020A5A490AA8FFF776FF227B59490F
:106600000AA8FFF7A3FE627B57490AA8FFF79EFE80
:1066100094F8882055490AA8FFF798FE54490AA81B
:1066200000F098FD04F118061825F2EE048AB6EE83
:10663000009AF6EC017AB0EE490AA7EEA80A03F038
:106640005DFF0AA8B0EE408A00F040FD88EE280AFF
:106650000AA800F05FFD013DEBD10AA800F066FC3E
:106660003049444E01A803F02BFD01A803F0A6FC1D
:10667000FDEEC07A404917EE902A0AA8FFF766FEA1
:10668000294601A802F088FC01A802F0DBFC3B4986
:106690000AA8FFF729FF01F00DFA394902460AA8B6
:1066A000FFF754FE284600F0D7FD00234FF47A721E
:1066B000FEF75CF9334902460AA8FFF747FE01A836
:1066C00002F07AFC0AA800F031FC0B9A2E4901A8CE
:1066D000FEF78AFC02A8FFF7F9FD0B9A2B49134835
:1066E000FEF753FDFFF74CFEF388B3F5B46F0ED3FE
:1066F00002F021FC264BB0FBF3F0584330602549F3
:106700000A4835717571B571F571FEF73EFDFEF7FA
:1067100095FD00230AA8C4E91F33C4F88430FEF7AE
:10672000BDFB24E70CE70320C5CB0B0058E6032094
:10673000A8D40320E4CC0B0000F4032023CB0B00EF
:106740006ACB0B00CFCB0B00D6CB0B00DECB0B0004
:10675000E6CB0B00EFCB0B00F4CB0B00FCCB0B001C
:1067600007CC0B0015CC0B0024CC0B0031CC0B005C
:106770003DCC0B0039B903204BCC0B0050CC0B00A7
:1067800058CC0B0060CC0B0067CC0B0072CC0B001C
:106790008051010080CC0B002DE9FF41122003F055
:1067A00017FE5B4E5B4DD0B93478002C79D100F0E8
:1067B0002BFD594A1368C31AB3F5967F71D9574B0D
:1067C00010601C71564B57481C6001242C70FEF75A
:1067D00099FF4FF4FA7002F0C9FB204605E0002152
:1067E000084600F031FF0028DED130704E4800F03E
:1067F000DDF910B10120FFF703F94C4C23787BB190
:106800004B49684601F0C5F96846FEF79BFF6846AC
:1068100001F074F9414A0023938001222A70237009
:10682000444C02F088FBD4F8903033B9424BB0FBB3
:10683000F3F202FB0333C4F89030D4F89030834273
:1068400009D801222A7003F5A83303F5C0738342E7
:10685000F9D9C4F890302B78002B56D000F0CAFF3D
:106860000646002840D13548DFF8D080FEF734FCDA
:1068700031463248FEF736FCFEF772FC44F62067DC
:106880000646FEF76DFC801B61F10001B84271F114
:10689000000308D24046FEF72AFC20B900F09AFF18
:1068A000EFE70120A1E72548FEF721FC00F09AFF61
:1068B000FEF756FC47F230570646FEF751FC801BA8
:1068C00061F10001B84271F1000305D200F092FFBE
:1068D00010B900F07FFFF0E700F08CFF00F094FCAF
:1068E000174B186000F076FF94F888303BB11549DB
:1068F0000D4800F037FA10B1002384F88830FEF715
:10690000F7FEFFF709FE00232B7004B0BDE8F0810D
:10691000D4D403202CD50320D8D40320A8D403201A
:10692000547203208ECC0B0004D5032005D5032020
:1069300020CC0B0000F40320805101000CE7032061
:1069400040E7032004F4032008B5FFF799FA084B49
:106950001B78012B06D9022B07D0BDE80840052083
:1069600002F004BBFFF77CFBF7E7FFF715FFF4E746
:10697000A4D403208842F8B504460D46164616D91D
:10698000904215D2A2F11406751AA1F114072C44F5
:10699000B7421CD02CB13146204601F02CF9337C93
:1069A0002374304601F0AAF8143E143CF0E70ED0F0
:1069B000B5420CD02CB12946204601F01CF92B7CA5
:1069C0002374284601F09AF814351434F0E7F8BD22
:1069D0002DE9F0410023C0E9003383604F689F42F6
:1069E00004460E4623DD4FF0140808FB07F000F0C4
:1069F00029FF0546D8B1D4E9001208FB0212FFF7BF
:106A0000B9FF206800F026FF2560A760D6E9007373
:106A100008FB0378B84508D03946284601F005F947
:106A20003B7C2B7414371435F4E77368636020469D
:106A3000BDE8F0812DE9F043424B434F002491B073
:106A40001C7003F045FC23462246022103F050FC53
:106A500003F03EFC0C212346224603F041FC3B4B55
:106A60003B4A9A60C3E90044032000F0DDFDCDE914
:106A70000344059402F060FF09AE804603A906A80E
:106A8000FFF7A6FFB94606A93046FFF7A1FF314B35
:106A900049F8043B0CAD31462846FFF799FF2A46DA
:106AA0001E21484601F0A0FE2846FFF725FC30468F
:106AB000FFF722FC284B3B6006A8C7F82080FFF7B1
:106AC0001BFC264B3B6002F037FF4FF4165102F0DF
:106AD00021FF01F059FB394601F05CFD03A8FFF7E7
:106AE0000BFC0121084600F0CFFB1D4B0C9395E8F1
:106AF00003001C4B1C4A1A6003F10C0286E80300D9
:106B000092E8030085E8030096E8030082E80300AA
:106B1000164A5A619A690F92154A9A6101221C71AC
:106B20009C6042F21071009203F10800114A019436
:106B30000E9400F0E1FB2846FEF798FA11B0BDE88C
:106B4000F08300BF38B90320E0D40320487203204B
:106B50000000FFFFB4CC0B0068CE0B00CCCC0B00C8
:106B6000594E0B0008D50320A0CC0B00954F0B000D
:106B7000A94F0B00D34E0B0070B5044D06460446DA
:106B80000FCD0FC42B682360304670BDC8C70B0003
:106B900010B50A200C46032103F0F0FB03F02CFC97
:106BA00021460022BDE8104003F016B908B50A20BE
:106BB00003F00EFC431E5842584108BD38B50D463F
:106BC00000F022FB044600F01FFB001BA8424FF020
:106BD0000A0007D203F0FCFB012808D0022002F0D3
:106BE000C5F9F0E703F0F4FB431E5842584138BDA5
:106BF000F8B50D46164600F007FB074603F0FCFB10
:106C000003681B699847044630B900F0FDFAC31BBE
:106C1000B342F3D3204606E003F0EEFB03685B6962
:106C2000984728700120F8BDF8B505461E460C4669
:106C30008F18BC4208D0214632462846FFF7D8FFBD
:106C400001340028F5D1F8BD0120FCE713B504227A
:106C50000C46C8230DEB0201FFF7E6FF10B1019BC4
:106C60001BBA236002B010BDF7B506460D461746A5
:106C700003F0C2FB03681B699847044628B103F080
:106C8000BBFB03685B699847F2E703F0B5FBAA21F9
:106C900003F0ACF803F0B0FB0368DB69984701A987
:106CA00030460194FFF7D2FF50B3019B8BB1B3F58F
:106CB000806F28D8BB4226D82746019CBC4208D901
:106CC000C823032269463046FFF7AEFF20B96FF0B4
:106CD0000304204603B0F0BD9DF801309DF800206C
:106CE0001B0243EA02439DF80220A91C1A439B0B96
:106CF00025F82730C2F30D0321F827300137DCE7F0
:106D00006FF00104E5E76FF00204E2E7FFF7ACBFC4
:106D100070B504460D46164603F06EFB03681B690A
:106D2000984728B103F068FB03685B699847F3E76D
:106D300003F062FBF02103F059F803F05DFB0368F8
:106D4000DB6998474FF4FA612046FFF737FF30B10F
:106D5000324629462046BDE87040FFF785BF6FF0F8
:106D6000090070BDF0B5074685B00D4603F044FB41
:106D700003681B699847044628B103F03DFB03688C
:106D80005B699847F2E703F037FBF02103F02EF838
:106D900003F032FB0368DB6998474FF4FA61384629
:106DA000FFF70CFF064600285CD0DFED326A95ED58
:106DB000006AF6EE007AB0EE677AA6EE267AC02177
:106DC0008DF80810D5ED016ABCEEC77A17EE102ACF
:106DD000B2EE047AE6EE877AC2F307218DF80A2034
:106DE0008DF80910FCEEE77A17EE903AC3F307220C
:106DF0008DF80C302B7A8DF80B20003B18BF012347
:106E00008DF80D306B7A8DF80E3002AA234612F8F9
:106E1000010B0134072C83EA0003F8D18DF80F3001
:106E200003F0EAFA036808220DEB0201DB689847D9
:106E300003F0E2FA0368DB69984700234FF4FA7223
:106E40000DF1070138468DF80730FFF7D1FE0446F3
:106E500058B19DF80730062B07D107490748FEF7C0
:106E600094F92646304605B0F0BD05490348FEF7C3
:106E70009AF9F7E70000C842F0CC0B0058E603206F
:106E800000CD0B0010B5054B0360037C04461BB915
:106E9000406808B100F0DEFC204610BD4CCD0B0070
:106EA00010B50446FFF7EEFF20461421FDF7BBFFA7
:106EB000204610BD10B5034B03600446FFF7E2FF08
:106EC000204610BD5CCD0B0010B50446FFF7F2FF65
:106ED00020463021FDF7A7FF204610BD00230122E8
:106EE000C3604361028380F82A307047C0E9011211
:106EF00008B50022C26001220274044A02604FF009
:106F0000FF32C262FFF7EAFF08BD00BF5CCD0B0095
:106F1000D0E9022310B593423FBF42685C1CC460B5
:106F2000D15424BF012380F82A3010BD10B5436925
:106F3000044643B100EB4303597E09B1FFF7E8FF74
:106F40006369013B6361D4E90210636888424FF0D2
:106F500000022ABF5B181A5403F8012C10BD70B54B
:106F60000446D0E9025066682D1A134630440A469A
:106F7000294600F087FC85422DBFE368A368E360E3
:106F8000C01836BF0123E06084F82A3070BD0EB40B
:106F900003B503AA52F8041B0192FFF7E0FF02B009
:106FA0005DF804EB03B070472DE9F84304460E4644
:106FB000174612B12221FFF7ABFFDFF80C81002545
:106FC000715D06EB0509002974D0D4E902329A42BA
:106FD00070D20B0634D501F0F003E02B05F1010966
:106FE0001DD116F8092002F0C003802B39D105F11C
:106FF000020916F8093003F0C000802831D103F0EF
:107000003F03920143EA013302F47C621A4392B2D5
:1070100041462046FFF7BBFF4D460135D0E701F062
:10702000E003C02B1DD116F8093003F0C002802AFE
:1070300017D1890101F4F86203F03F031A43E7E72F
:107040000D290AD807290CD9A1F10803052B08D866
:10705000DFE803F009231707111D222923D05C293B
:1070600021D0204604E05C212046FFF751FF622139
:10707000FFF74EFFD1E75C212046FFF749FF66216D
:10708000F6E75C212046FFF743FF6E21F0E75C2125
:107090002046FFF73DFF7221EAE75C212046FFF71B
:1070A00037FF7421E4E75C212046FFF731FF99F8B0
:1070B0000010DDE72FB120462221BDE8F843FFF79D
:1070C00027BFBDE8F88300BF32CD0B00426900EB5B
:1070D00042031A7E12B100221A7670472C21FFF764
:1070E00017BF73B5436901910133082B16460FD8BA
:1070F000FFF7ECFF4369019900EB43045A1C01259B
:107100004261A576E676FFF703FF284602B070BD20
:107110000020FBE737B5044610EE100AFDF7E4F84F
:10712000E56A002D02460B4608DBCDE9002307493E
:107130002A462046FFF72BFF03B030BD0449204606
:1071400003B0BDE83040FFF722BF00BF39CD0B00D0
:107150003ECD0B0013B504460191FFF7B7FF01992F
:107160000122FFF721FF3A212046FFF7D1FE636994
:107170000C33012204F813205B215D2202B0BDE82C
:107180001040FFF7AEBF000008B5024B1B689B68BC
:10719000019308BD6802030008B5024B1B68DB6859
:1071A000019308BD6802030008B5024B1B689B6889
:1071B000019308BD2C02030008B5024B1B68DB6875
:1071C000019308BD2C02030008B5024B1B681B6924
:1071D000019308BD2C02030008B5024B1B685B69D4
:1071E000019308BD2C02030008B5024B1B685B68C5
:1071F000019308BD1802030008B5024B1B68DB6849
:10720000019308BD1802030008B5024B1B685B69B7
:10721000019308BD1802030008B5024B1B689B6A66
:10722000019308BD1802030008B5024B1B685B6C94
:10723000019308BD1802030008B5024B1B689B6C44
:10724000019308BD1802030008B5024B1B689B6D33
:10725000019308BD1802030008B5024B1B68DB6DE3
:10726000019308BD1802030008B5024B1B685B6E52
:10727000019308BD1802030008B5024B1B685B6D43
:10728000019308BD3402030008B5024B1B685B6E16
:10729000019308BD3402030008B5024B1B681B684C
:1072A000019308BD8402030008B5024B1B685B68AC
:1072B000019308BD8402030008B5024B1B689B685C
:1072C000019308BD8402030008B5024B1B68DB680C
:1072D000019308BD8402030008B5024B1B68DB68FC
:1072E000019308BD4802030008B5024B1B68DB6927
:1072F000019308BD4802030008B5024B1B681B6AD6
:10730000019308BD4802030008B5024B1B685B6A85
:10731000019308BD4802030008B5024B1B689B6A35
:10732000019308BD4802030008B5024B1B68DB6AE5
:10733000019308BD4802030008B5024B1B685B6C53
:10734000019308BD4802030008B5024B1B689B6C03
:10735000019308BD4802030008B5024B1B68DB6CB3
:10736000019308BD4802030008B5024B1B685B6D22
:10737000019308BD4802030008B5024B1B681B6F50
:10738000019308BD4802030008B5024B1B685B6906
:10739000019308BD6402030008B5024B1B689B689B
:1073A000019308BD3C02030008B5024B1B68DB6873
:1073B000019308BD3C02030008B5024B1B681B6922
:1073C000019308BD3C02030008B5024B1B685B69D2
:1073D000019308BD3C02030008B5024B1B689B6982
:1073E000019308BD3C02030008B5024B1B68DB6932
:1073F000019308BD3C02030008B5024B1B681B6AE1
:10740000019308BD3C02030008B5024B1B689B6A50
:10741000019308BD3C02030008B5024B1B68DB6A00
:10742000019308BD3C02030008B5024B1B681B6BAF
:10743000019308BD3C02030008B5024B1B681B6C9E
:10744000019308BD3C02030008B5024B1B689B6911
:10745000019308BD2802030008B5024B1B68DB69D5
:10746000019308BD2802030008B5024B1B681B6A84
:10747000019308BD2802030008B5024B1B685B6A34
:10748000019308BD2802030008B5024B1B689B6AE4
:10749000019308BD2802030008B5024B1B68DB6A94
:1074A000019308BD2802030008B5024B1B681B6B43
:1074B000019308BD2802030008B5024B1B685B6BF3
:1074C000019308BD2802030008B5024B1B681B6C22
:1074D000019308BD2802030008B5024B1B689B6C92
:1074E000019308BD2802030008B5024B1B68DB6C42
:1074F000019308BD2802030008B5024B1B681B6DF1
:10750000019308BD2802030008B5024B1B68DB6924
:10751000019308BD3002030008B5024B1B681B6ACB
:10752000019308BD3002030008B5024B1B681B68BD
:10753000019308BD4C02030008B5024B1B685B6851
:10754000019308BD4C02030008B5024B1B689B6801
:10755000019308BD4C02030008B5024B1B681B6970
:10756000019308BD4C02030008B5024B1B685B6920
:10757000019308BD4C02030008B5024B1B689B69D0
:10758000019308BD4C02030008B5024B1B68DB6980
:10759000019308BD4C02030008B5024B1B681B6A2F
:1075A000019308BD4C02030008B5024B1B689B6A9F
:1075B000019308BD4C02030008B5024B1B685B6FCA
:1075C000019308BD7402030008B5024B1B685B6B96
:1075D000019308BD6002030008B5024B1B681B6DD8
:1075E000019308BD6002030008B5024B1B685B6D88
:1075F000019308BD6002030008B5024B1B68DB6EF7
:10760000019308BD6002030008B5024B1B681B6FA5
:10761000019308BD6002030008B5024B1B681B689C
:10762000019308BD2002030008B5024B1B685B688C
:10763000019308BD2002030008B5024B1B685B697B
:10764000019308BD2002030008B5024B1B689B6A2A
:10765000019308BD2002030008B5024B1B68DB6CD8
:10766000019308BD2002030008B5024B1B685B6D47
:10767000019308BD2002030008B5024B1B689B6DF7
:10768000019308BD2002030008B5034B1B68D3F823
:107690008830019308BD00002002030008B5034BA9
:1076A0001B68D3F89430019308BD0000200203004A
:1076B00008B5034B1B68D3F8A830019308BD000040
:1076C0002002030008B5024B1B685B68019308BDEC
:1076D0004002030008B5024B1B689B68019308BD7C
:1076E0004002030008B5024B1B68DB68019308BD2C
:1076F0004002030008B5024B1B681B69019308BDDB
:107700004002030008B5024B1B685B69019308BD8A
:107710004002030008B5024B1B689B69019308BD3A
:107720004002030008B5024B1B68DB69019308BDEA
:107730004002030008B5024B1B681B6A019308BD99
:107740004002030008B5024B1B689B6A019308BD09
:107750004002030008B5024B1B68DB6A019308BDB9
:107760004002030008B5024B1B681B6B019308BD68
:107770004002030008B5024B1B685B6B019308BD18
:107780004002030008B5024B1B681B6C019308BD47
:107790004002030008B5024B1B685B6C019308BDF7
:1077A0004002030008B5024B1B685B6D019308BDE6
:1077B0004002030008B5024B1B689B6D019308BD96
:1077C0004002030008B5024B1B685B68019308BDCB
:1077D0004402030008B5024B1B689B68019308BD77
:1077E0004402030008B5024B1B68DB68019308BD27
:1077F0004402030008B5024B1B685B69019308BD96
:107800004402030008B5024B1B681B6A019308BDC4
:107810004402030008B5024B1B681B6B019308BDB3
:107820004402030008B5024B1B68DB6B019308BDE3
:107830004402030008B5024B1B685B6C019308BD52
:107840004402030008B5024B1B681B68019308BD86
:107850001C02030008B5024B1B685B68019308BD5E
:107860001C02030008B5024B1B689B68019308BD0E
:107870001C02030008B5024B1B68DB69019308BDBD
:107880001C02030008B5024B1B685B6A019308BD2C
:107890001C02030008B5024B1B68DB6A019308BD9C
:1078A0001C02030008B5024B1B681B6B019308BD4B
:1078B0001C02030008B5024B1B68DB6B019308BD7B
:1078C0001C02030008B5024B1B681B6C019308BD2A
:1078D0001C02030008B5024B1B685B6C019308BDDA
:1078E0001C02030008B5024B1B68DB6C019308BD4A
:1078F0001C020300002240681146FFF71BBF002254
:1079000040681146FFF736BF40680022FFF72ABFE4
:107910004068002281F00101FFF704BF00234068A6
:107920001A461946FFF7F6BE002340681A46194664
:10793000FFF7E8BE002240681146FFF7DBBE0022D9
:1079400040681146FFF7C6BE406800220221FFF7DB
:10795000C9BE002340681A46FFF7B4BE024B03229B
:107960005A60024A1A60704730E603206CCD0B0063
:107970000B6803604B68436013B15A6801325A6068
:10798000704710B5044608462170FFF7BDFD00237F
:107990006360204610BD10B50446006818B1FFF7BB
:1079A00059FF0023236010BD38B50C460546FFF78C
:1079B000F2FF54B12088FFF745FF286028B12288E4
:1079C0002146BDE8384002F029BE38BD38B5B1F9CE
:1079D00004308380D1F80630C0F806304B894381EB
:1079E0000C460546FFF7D7FF236813B12B60002331
:1079F000236038BDF0B52B4D0B7D04468BB0084697
:107A0000AF1D002B36D00B681B79002B32D0264BD4
:107A10000493002202A90430CDE90222FFF748FEB8
:107A2000DDF80E30C5F8063000B2BDF81230ADF802
:107A30000C00A8800299BB802846FFF7B5FF02A87A
:107A4000FFF7A9FF00232360A380A37123814FF6D2
:107A5000FF736381B5F90430A380D5F80630C4F80C
:107A60000630BB88296863812046FFF79DFF2046CA
:107A70000BB0F0BD00262023CDE902360B4B00935E
:107A800002AA33460A493220FFF7A6FD064B0548F5
:107A900002964FF6F26202A9CDE90323FFF796FFA3
:107AA000CDE700BF38E603200000FFFFAFCD0B009D
:107AB000A8CD0B0010B5202488B0224600216846CE
:107AC00002F0D4FD00216846ADF80040FFF7D4FB7A
:107AD000019808B010BD0000054B02221A60054B4A
:107AE000054A9A600020C3E90000FFF79DBD00BF72
:107AF00044E6032038E603200000FFFF10B50446EB
:107B00000068FFF7A7FE204610BD10B504460068C8
:107B100008B1FFF79FFE0023C4E90133236010BDC5
:107B200038B504460D4600680131FFF79BFE10B1E1
:107B3000C4E90005012038BD10B50368044623B12F
:107B400043688B4201D3012010BD2046FFF7E8FFB8
:107B50000028F9D0A368002BF5D122681370F2E752
:107B600037B50D46114601920446FFF7E5FF019A2D
:107B700028B92046FFF7C9FF204603B030BDA260F8
:107B80002946206802F04AFD2268A3680021D154EA
:107B9000F2E7002313B5C0E90033044683600373A2
:107BA00041B108460191FDF7DFF8019902462046F0
:107BB000FFF7D6FF204602B010BD38B50546006875
:107BC0000C4670B16A688B689A4208D3096831B173
:107BD00002F099FDA368AB600023A36038BDFFF7F6
:107BE00039FE23682B6063686B60A368AB60002379
:107BF000C4E90033F1E710B50023C0E900330446BF
:107C000083600373FFF7D9FF204610BD884210B58B
:107C1000044605D00B682BB18A681946FFF7A0FF10
:107C2000204610BDFFF771FFFAE710B500230446A8
:107C3000C0E9003383600373FFF7E8FF204610BDFF
:107C400008B582683AB921B10878B0FA80F04009E5
:107C500000E0012008BD006809B90078F5E7FDF7EC
:107C600079F8F2E710B58368934206D90468A01842
:107C700002F032FD08B1001B10BD4FF0FF30FBE7F2
:107C80000022FFF7EFBF0000F8B59A420F461D46ED
:107C90000C4988BF13461446064684BF2C461D4631
:107CA000FFF777FFBB68A3420AD33968AB4294BFA2
:107CB000C4EB0302C4EB050221443046FFF750FF3A
:107CC0003046F8BD4ACE0B0010B504468B68FFF76E
:107CD000DBFF204610BD38B5046805463CB1013CC9
:107CE00014F8010F18B103F049FC2070F8E728469A
:107CF00038BD2DE9F0410668054606B38468F4B145
:107D0000B046474618F8010B02F080FC0028F8D175
:107D1000013C3444207802F079FC18B1A74201D824
:107D2000013CF7E7621CD21BBE42AA6003D239466F
:107D3000304602F073FC2A68AB680021D154284613
:107D4000BDE8F08110B54368013B0446436063B968
:107D500003689B689847A368013BA3602BB923681D
:107D60002046DB68BDE81040184710BD70B5D0E96B
:107D70000053044605EB0316AE4204D02846FFF735
:107D8000BDFE1035F8E72068FFF764FD204670BDA2
:107D900013B50B460246D0E900016C4684E80300A7
:107DA00093E8030082E8030094E8030083E80300FB
:107DB00002B010BD024800230360FFF7BDBA00BF48
:107DC00048E6032010B5044680680368DB689847DE
:107DD000E3681844E06010BDF8B506460D468F18FC
:107DE0000024BD420CD0336815F8011B9B68304657
:107DF0009847031E01DB1C44F3E7002C08BF1C4618
:107E00002046F8BD704710B510210446FDF70BF869
:107E1000204610BD13B50446084659B10191FCF740
:107E2000A3FF23680199DB680246204602B0BDE843
:107E30001040184702B010BD03689B68184730B562
:107E40008BB00023012A8DF8243098BF0A2209AC98
:107E50000D46B1FBF2F101FB125303F0FF03092BB6
:107E600094BF30333733DBB2AA4204F8013DEFD977
:107E70002146FFF7CFFF0BB030BD10B50446FFF72A
:107E8000C3F9E060236820465B699847002808DA58
:107E9000FFF7BAF9E368C01AA3689842F2D34FF02B
:107EA000FF3010BD2DE9F04107460C468E180D46F7
:107EB000B542A5EB040807D03846FFF7DEFF031EE6
:107EC00002DB05F8013BF3E74046BDE8F08170476F
:107ED000084611B10B685B681847704770477047D8
:107EE000704738B504460D4600682E2102F001FCAB
:107EF0002368C31A2B6023B1037803B101302368D0
:107F00002060184638BD10B504210446FCF78BFFED
:107F1000204610BD10B504210446FCF784FF20461E
:107F200010BDFFF719BA08B5FCF714FFB0FA80F0DE
:107F3000400908BD704710B50C4601F0FDFC8442B5
:107F400010D002F059FA844205D102F055FABDE88A
:107F5000104001F048BF2CB1236820465B68BDE8A3
:107F60001040184710BD13B5044608460191FCF7B0
:107F7000FBFE01990246204602B0BDE8104001F028
:107F8000C9BE13B5044608460191FCF7EDFE23680F
:107F90000199DB680246204602B0BDE81040184750
:107FA00007B503688DF80710DB6801220DF10701A2
:107FB000984703B05DF804FB2DE9F74FD0E9008442
:107FC0004FF0140A00930AFB04F4184BA410174650
:107FD0005C434546002C21DD66100AFB06F005EBEC
:107FE00000093A46B9F804B0285801915F4528BF06
:107FF0005A4602F0AEFB002801994FF001030BD165
:108000005F4503D1009A13703446E3E7FCD9A61B01
:1080100009F11405013EF7E7F9DBF5E7A5EB0805E3
:108020000248AD10684303B0BDE8F08FCDCCCCCC96
:108030007FB50369057E019103B3F9B1002600F114
:108040000C04039603A901A8FFF74BFF0146A8B152
:108050000DF10B03039A8DF80B602046FFF7ACFF80
:108060009DF80B3053B12368142404FB003408340A
:1080700034F9023C002BA8BFDDB2E3E7284604B088
:1080800070BD0EB4F0B58CB000AF07F144050446E6
:1080900055F8042B7A602B46202107F11000FD6073
:1080A000FFF7F0FB1F287A681AD900F1080323F0C4
:1080B00007036E46ADEB030D411C2B466846FD6081
:1080C000FFF7E0FB021E04DD23686946DB682046FB
:1080D0009847B5463037BD46BDE8F04003B070471D
:1080E0000028F7D023680246DB6807F1100120461C
:1080F0009847EFE710B5094C2378BFF35B8FDB0798
:1081000009D42046FCF79EFE28B12046FCF79FFECE
:10811000034802F065FA034810BD00BF50E6032093
:10812000DD7E0B005C70032010B5094C2378BFF393
:108130005B8FDB0709D42046FCF784FE28B120467C
:10814000FCF785FE034802F04BFA034810BD00BF60
:1081500054E60320357F0B006070032038B50025FE
:108160000446C0E90055C0E904558560856140F8C2
:10817000245FFFF7E1F8FFF7BDFFE061FFF7D4FFF1
:1081800025732062204638BD10B50A4C2378BFF312
:108190005B8FDB070CD42046FCF754FE40B1064849
:1081A000FFF7DCFF2046FCF752FE044802F018FA05
:1081B000014810BD4CE603205CE6032001870B005C
:1081C000024A034903480023FFF71EBAE5840B0067
:1081D00071840B00F1830B0000231A4619461846E0
:1081E000FFF712BA37B58D6804466846FFF7C0FB43
:1081F0006A462946204601F0ADFC01A8FEF766F864
:10820000204603B030BD37B5CD6804466846FFF759
:10821000AFFB6A462946204601F078FC01A8FEF72C
:1082200055F8204603B030BD37B50D6904466846A1
:10823000FFF79EFB6A462946204601F010FC01A884
:10824000FEF744F8204603B030BD000070B58AB098
:108250000D46014604A8FFF7C5FF144E04A801F01F
:1082600091FCE8B104A96846FFF7CDFF02983146BA
:10827000FFF759FE044610B12C1E18BF012401A8B7
:10828000FEF724F8002CE9D004A96846FFF7CCFFDC
:10829000684601F01AFC286001A8FEF717F8DDE730
:1082A00005A8FEF713F80AB070BD00BFF0CD0B00B3
:1082B00037B50C46204613491546FCF74BFD50B91F
:1082C00001F03AFB4FF4165101F024FB03B0BDE876
:1082D000304001F031BB0C492046FCF73BFD78B93A
:1082E0004FF4165301A928460193FFF7AFFF02F0A0
:1082F00083F8019901F074FD02F07EF803B030BDFF
:108300000020FBE7F5CD0B00FCCD0B0070B5D0E9EC
:1083100000531426044606FB0356AE4205D005F171
:108320000800FFF7F3FF1435F7E72068FFF792FA2C
:10833000204670BD10B504460C30FFF7E7FF20461D
:10834000FFF714FD204610BD10B5044B044640F85D
:10835000043BFFF7EFFF204610BD00BFB4CC0B007D
:1083600010B50446FFF7F0FF20462421FCF75BFD23
:10837000204610BD10B5034B03600446FFF7E4FF31
:10838000204610BD80CE0B0010B50446FFF7F2FF6B
:1083900020462421FCF747FD204610BD0A680260F4
:1083A0004A6842600022C0E9022210B502618C686E
:1083B0008460CC68C4600C698A60CA6004610A6128
:1083C00010BD0022C0E9002210B582600C68046074
:1083D0004C6844608C680A604A6084608A6010BDA2
:1083E00010B5036804461868FEF7BEFF204610BDAE
:1083F0002DE9F04F87B0804603931C4B5B68C3F3B5
:108400000803894616466BB9FFF7BEFE044600F125
:108410002403406A0593FFF784FD237B2BB105A855
:10842000FFF7DEFF07B0BDE8F08F01232373D4E927
:1084300000535FFA89F905EB830AAA4512D055F873
:10844000047B3146381DFFF7F3FD8145F5D33B68CA
:10845000039A0092D3F808B04A463346414638465C
:10846000D847EAE700232373D9E700BF00ED00E017
:108470002DE9F74F9B461A4B5B68C3F30803804610
:10848000894616466BB9FFF77FFE044600F12403C8
:10849000406A0193FFF745FD237B2BB101A8FFF74D
:1084A0009FFF03B0BDE8F08F01232373D4E900538D
:1084B000F6B205EB830A55450ED055F8047B5946B4
:1084C000381DFFF7B5FD8642F5D33B684A46DB68A9
:1084D000414638469847EEE700232373DEE700BFA6
:1084E00000ED00E02DE9F341164B5B68C3F3080390
:1084F00005460F461BBBFFF747FE00F12403044669
:10850000406A0193FFF70DFDD4E90063462406EBB2
:108510008308B04509D101A8FFF762FFA542B4BFA7
:108520000020012002B0BDE8F08156F8040B394666
:108530000430FFF77DFD8442A8BF0446E9E7002030
:10854000F0E700BF00ED00E0F8B5D0E901539D422F
:1085500004460E460DDB6F1C002F006804DDB900D9
:10856000FFF780F918B9F8BDFFF774F90020206013
:10857000A7602768626807EB85019200A2EB85027D
:10858000081D02F059F847F82560636801336360FD
:108590000120E8E737B500F124030446406A01935F
:1085A0000D46FFF7BEFCD4E9003203EB8202934292
:1085B00019460BD00968A94203F10403F7D101A8B9
:1085C000FFF70EFF0025284603B030BD29462046A0
:1085D000FFF7BAFF05460028F1D06368012B01D1EF
:1085E000FFF7EEFD01A8FFF7FBFEECE770B50446D0
:1085F000D0E900020B4600EB820282420FD0014616
:108600001D6851F8046BAE4207D1521A02F014F8FB
:108610006368013B6360012070BD0846EDE7002000
:10862000FAE71FB500F124030446406A0191039361
:10863000FFF777FC01A92046FFF7D8FF18B1636860
:108640000BB9FFF7C9FD03A8FFF7CAFE04B010BDC0
:1086500070B5D0E904561823044603FB0656AE4213
:1086600015D005F110012046FFF7C0FF63680BB974
:10867000FFF7B2FDE06929690368DB68984769691B
:1086800019B1206A0368DB6898471835E7E7D4E931
:108690000453182606FB0356AE4204D02846FFF7C3
:1086A0002DFA1835F8E70023636170BD73B50446F1
:1086B000FFF792FD04F12403606A0193FFF731FC98
:1086C0002046FFF7C5FF01A8FFF78AFE606A08B1E0
:1086D000FEF73AFED4E90453182606FB0356AE42D1
:1086E00004D02846FFF70AFA1835F8E72069FFF7A3
:1086F000B1F82068FFF7AEF8204602B070BD000068
:108700000148FFF7D3BF00BF5CE603208842F8B5FD
:1087100004460D46164615D9904214D2A2F114060D
:10872000751AA1F114072C44B7421AD01CB1314676
:108730002046FFF733FE06F10800FFF7E7FD143E81
:10874000143CF1E70DD0B5420BD01CB129462046B0
:10875000FFF724FE05F10800FFF7D8FD14351434A7
:10876000F1E7F8BD8842F8B504460D46164614D91F
:10877000904213D2A2F11006751AA1F110072C44F1
:10878000B74218D01CB131462046FFF734FA3046C4
:10879000FFF7B4F9103E103CF2E70CD0B5420AD016
:1087A0001CB129462046FFF726FA2846FFF7A6F90E
:1087B00010351034F2E7F8BD70B50E1E054611DD18
:1087C0003001FFF73FF8044658B1D5E9001201EB3C
:1087D0000212FFF7C7FF2868FFF73CF82C60AE6075
:1087E000012070BD0024F6E72DE9F04F904695B0CA
:1087F00000230391D8F804100A9346229942C0E955
:108800000033C0E90233C0E90433CDE9083304463C
:10881000027623DCD8E90057142303FB0757AF4245
:108820003BD029460BA8FFF7E6F90BA90FA8099E34
:10883000FFF7E1F9DDE9091399421BDA089B099A70
:1088400003EB061603EB0212314606F11000FFF7A8
:1088500089FFEEB9099B0133099311E008A8FFF7DE
:10886000ABFF0028D6D108A8FFF780FA204615B044
:10887000BDE8F08F013108A8FFF79EFF0028DDD189
:108880000FA8FFF73BF90BA8FFF738F91435C6E737
:108890000FA93046FFF7AFF9DCE70026CDE90B66FC
:1088A0000D964FF01409DDE908239E427CDA33016E
:1088B000D35806930BB90136F5E70023079309FB5C
:1088C00006F302930BAD07A906A8FFF70AFB824641
:1088D0000028F0D04FF000038DF817300146079ABA
:1088E0000DF117032846FFF767FB9DF817700190FD
:1088F000002F4AD1BDF81C30ADF84030CDE91177DA
:108900004FF6FF73CDF83CA0ADF842301397D5E990
:108910000132934217DB03F1010ABAF1000F30DD97
:1089200009FB0AF0FEF78EFF834660B3D5E900121B
:1089300009FB0212FFF7EAFE2868FEF78BFFC5F875
:1089400000B0C5F808A02B68019A09FB023A6A68D2
:10895000514609FB02320AF11400FFF7D7FEBAF1C3
:10896000000F03D00FA95046FFF718FD6B680133C5
:108970006B6011A8FFF7CAFC3FB10BA8FFF7C6FC5C
:1089800071E7BB46D8E70127F3E7019B2D6809FB98
:108990000355069B1B782BB9D8F80030029A134474
:1089A0001B7CEB8008358EE721682260626863607B
:1089B000A36809920A9A0A93E368A2600B9A0B9340
:1089C0002369E2600C9A0C93636922610D9A0D93FE
:1089D000039B089162612376CFE70000F0B504465F
:1089E00087B00D462646194668461746FDF7F0FF44
:1089F0000B4B46F8043B694603A8FDF7E9FF03AAC1
:108A000039463046FFF7F0FE03A8FDF775FC6846CF
:108A1000FDF772FC034B23602046256207B0F0BDD2
:108A2000B4CC0B0068CE0B00F0B50F4685B01D49E5
:108A30000A9C384616461D46FCF78CF9C0B9A4B10D
:108A4000294601A8FFF7BDFC1749242001F04EFD7F
:108A5000054630B101AB32462146FFF7BFFF134B4D
:108A60002B6001A8FDF748FC2C46204605B0F0BD60
:108A70000F493846FCF76EF990B9002CF5D029461D
:108A800001A8FFF79EFC0849242001F02FFD0546B0
:108A90000028E6D001AB32462146FFF79FFFE0E712
:108AA0000024E2E704CE0B0060D00B0080CE0B0068
:108AB00008CE0B00014B024A1A60704758E60320AB
:108AC00019CE0B002DE9F047089DD0F82090044600
:108AD0000E461746984600F02FFF81454CD02B7963
:108AE000190704D56A6954492046FFF7CAFAB8F154
:108AF000000F0DD05B212046FFF752FA4146204679
:108B0000FFF73FFA23684D49DB6802222046984769
:108B10002B79DA0723D5D5F808802F21404601F0BC
:108B20002CFE08B100F1010841462046FFF729FA62
:108B30002B799B0708D53A212046FFF731FAEA68DE
:108B40003F492046FFF79DFA2A79236812F0040F67
:108B5000DB6814BF3B493C490222204698472B79E9
:108B600058071DD529690B461A4613F8010B60B149
:108B7000202808D11946F7E7344801F014FB0028F3
:108B8000ADD0BDE8F0872828EED12368521ADB6803
:108B90002046984723682E49DB68042220469847E0
:108BA00000213846FEF728FD01462046FFF7E9F987
:108BB00023682549DB680222204698471EB13146CA
:108BC0002046FFF7DEF92B7913F0300F2CD0236805
:108BD0002049DB680222204698472B79D9060AD51E
:108BE00023681D49DB68072220469847AA691B496C
:108BF0002046FFF746FA2B799A0611D5DB0605D5F4
:108C000023681049DB6802222046984723681449EC
:108C1000DB6820460A229847E9692046FFF7B1F948
:108C20005D212046FFF7BCF923680E49DB6820462A
:108C30000222BDE8F04718471DCE0B0024CE0B00E2
:108C4000F9C90B0027CE0B002CCE0B0014E7032034
:108C50002ACE0B002FCE0B0032CE0B003ACE0B00EB
:108C60003DCE0B0048CE0B002DE9F0410446076ACB
:108C70000D46164600F060FE874207D0206A036862
:108C800032462946DB68BDE8F0411847034801F049
:108C90008AFA0028F2D0BDE8F08100BF14E7032073
:108CA0002DE9F04385B0D0F820900C9C05460F4686
:108CB00090461E4600F040FE814505D1494801F02E
:108CC00072FA002840F08A802B6A474A00924FF0DF
:108CD00000096846CDE902398DF8049000F07BFF69
:108CE00049464046FEF788FC4049804601226846D6
:108CF00001F000F84146FFF736F93FB13C49012247
:108D0000684600F0F7FF3946FFF72DF93EB13949C3
:108D10000122684600F0EEFF3146FFF724F923797F
:108D2000DF070ED5A6682F21304601F026FD00B1E1
:108D3000461C31490122684600F0DCFF3146FFF74E
:108D400012F923799E0707D52C490222684600F0C4
:108D5000D1FFE16800F04CFF2379580714D526694C
:108D600033461F4613F8012B2AB1202A01D11E4693
:108D7000F7E7282AF5D122490222684600F0BAFF17
:108D8000BA1B314600F0C6FF2379190707D51D49E4
:108D90000122684600F0AEFF616900F03BFF2379D5
:108DA000DA0607D518490422684600F0A3FFA16936
:108DB00000F01EFF23799B0607D51449062268465A
:108DC00000F098FFE169FFF7CEF8684600F0EDFE8D
:108DD000286A0F4903680222DB68984705B0BDE89E
:108DE000F08300BF14E70320E0CD0B004ACB0B005B
:108DF0005ECC0B0080D30B003FCD0B004BCE0B00A5
:108E00004ECE0B0026C80B0051CE0B0056CE0B00E9
:108E100048CE0B002DE9F041154ADFF86080D2E919
:108E20000063801943EB0101124BD3E90067D8E9D5
:108E30000023861941EB0707BB4208BFB2428CB042
:108E400013D003A96846CDE90067FEF74BFD089BE8
:108E5000094D03F26C7303AC08930FCC0FC50FCC14
:108E60000FC5C8E9006723682B600CB0BDE8F0812E
:108E7000B8E60320B0E6032088E60320C0E603201E
:108E800008B50020FEF7C6FC28B1FEF7B3FC80F061
:108E90000100C0B208BD0120FCE7000008B5FFF7E3
:108EA000B9FF014B986808BD88E6032008B5FFF7B5
:108EB000B1FF014BD86808BD88E60320FAEE087AB6
:108EC000B4EEE70AF1EE10FA08B511D4F2EE0C7A1E
:108ED000B4EEE70AF1EE10FA0ADCDFED067A60EE96
:108EE000277A17EE900AFBF759FD034BC3E90001FF
:108EF00008BD00BF00006145B8E6032010B50020A2
:108F0000FEF7A2F90446A0B9FEF786FB012810D1AE
:108F10002046FEF7B1FB60B9FFF7B2FF10B9FEF7CC
:108F200059FCF9E7FFF7ACFFBDE810400020FEF761
:108F30008BB9204610BD1FB5FFF7E0FF10220021BE
:108F4000684601F093FB00216846FEF78DF9009812
:108F500005B05DF804FB0000024B1A68024B1A6072
:108F6000704700BF6470032084E603200021FEF7F1
:108F700063BB0000014B00229A607047C8E60320E3
:108F8000006800F0CCBF10B50446016002710AB160
:108F9000FFF7F6FF204610BD13B50446019101F01E
:108FA00081FA019A01462046FFF7EDFF204602B004
:108FB00010BD006800F0BCBF10B5037904460BB1CA
:108FC000FFF7F7FF204610BD2DE9F041044686B0BB
:108FD0000D4617461E46FFF7D3FF00233622CDE984
:108FE0000123206805930A224FF0010801A9CDE969
:108FF000038200F076FF2068036829469B68984743
:109000002068414600F087FF054640B16FF09F059C
:109010002046FFF7CEFF284606B0BDE8F0810223C8
:109020002068029301A900F043FF0228EED12068D6
:1090300003685B6998473870206803685B699847E4
:109040003070E5E707B500238DF806308DF807305E
:109050000DF106020DF107030421FFF7B5FF60B91A
:109060009DF806209DF8073003EB022300EE103A2E
:10907000BAEECC0A03B05DF804FBBFEE000AF9E7D4
:10908000014B1860704700BF6C70032008B50B4B94
:1090900043B100F051FC03681B699847002801DDCB
:1090A000AFF30080064B43B101F0A6F903681B69DA
:1090B0009847002801DDAFF3008008BD00000000E4
:1090C0000000000008B5FFF7E1FFFEF79DF8014B37
:1090D000186008BD40E703200548064A064908B560
:1090E000121A01F09BFA054B054A1A6008BD00BF31
:1090F00000F403209CF40320C0D60B0098F4032056
:109100001E1C279A07B5002300931A466FF07701BB
:10911000FEF7C4FA03B05DF804FB000007B543880E
:109120000A2B08D0502B0BD1094B1B684BB103B055
:109130005DF804EB1847FFF7E5FF03B05DF804FBAB
:10914000002300931A466FF07701FEF7A7FAF4E7C1
:10915000DCE6032010B512480021FEF7BBFB114BE3
:109160001A68114B9A42114B0CBF012200221A704F
:1091700001D0FFF7B1FFFEF737F8044601F07EFAA1
:109180000B4B13B12046AFF3008000210848FEF7D7
:1091900049FBBDE8104007480021FEF775BA00BF43
:1091A00081900B0098F403201E1C279AD8E6032018
:1091B000000000001D910B0070470020704710B5A3
:1091C00010210446FBF72FFE204610BD08B5FFF71F
:1091D000F6FF08BD30B500224FF69C740260848013
:1091E0008D888C800C68858004600A6030BD10B565
:1091F00004460068FEF72EFB204610BD38B5C46853
:10920000F4B12378022B03D104F10C00FFF7EFFF38
:10921000656835B12846FBF729FF10212846FBF782
:1092200002FEA56835B12846FBF720FF102128462D
:10923000FBF7F9FD20461421BDE83840FBF7F3BDEC
:1092400038BD002242810C2202800A6882700A7AAC
:10925000C2704A6842604A7A02728A7A42727047E1
:1092600010B588B004466846FEF793FC694604A82A
:10927000FEF7DBFC04A8A047044604A8FEF73EFC6A
:109280006846FEF73BFC204608B010BD1FB5002322
:10929000CDE90201019210241A4669461846ADF83C
:1092A0000230ADF80040FEF78DFA04B010BD1FB5D6
:1092B000014601A8FFF7C5FF0021FEF7BBFA05B084
:1092C0005DF804FB0B6803604B68436013B15A6898
:1092D00001325A60704737B5044668460D46FFF7BD
:1092E000F1FF009B019A23606260002301A80193B3
:1092F0000093FCF7EBFF35B1281DFCF7E7FF0821D1
:109300002846FBF790FD204603B030BD826810B5BB
:109310000AB901F0EFF8BDE81040C368184708B576
:10932000006800F11001FFF7F1FF08BD826810B579
:109330000AB901F0DFF8BDE81040C368184708B566
:10934000006800F11001FFF7F1FF08BD38B50023F8
:109350000446036010200D46FBF761FD28B1012390
:10936000C0E90133024B0360C5602060204638BD70
:10937000E4CE0B007FB50546ADF804100026694623
:1093800002A80096FFF726FF1420FBF748FD0446CD
:1093900048B1022303700123C0E90166437002A9AA
:1093A0000C30FFF717FF2846214640F8044BFFF723
:1093B000CDFF02A8FFF71BFF6846FFF718FF2846FE
:1093C00004B070BD38B5002383608B6804460D4639
:1093D0002BB102229847EB68E360AB68A36020469C
:1093E00038BD0000F0B589B004686846FFF7F2FEAA
:1093F0004FF00203D4E84F2F002A03D1C4E8413FC5
:109400000029F7D125D104F10C0569462846FFF75C
:10941000E1FEBFF35B8F01236370002004F10803BA
:10942000BFF35B8F53E8006F43E80002002AF9D1D5
:10943000BFF35B8F6EB1FEF70FF978B12946304666
:10944000FFF764FF3046FBF711FE10213046FBF7B3
:10945000EAFC6846FFF7CBFE09B0F0BD314602A832
:10946000FFF7B0FFE068B4F9105008B101F054F90B
:1094700006901020ADF81C50FBF7D1FC0546E8B172
:10948000002787601820FBF7CAFC044688B1014614
:10949000876002A8FEF77CFC049BA268A360059B82
:1094A000049206A9E268E36004F110000592FFF758
:1094B00091FE084BEB60084B2C60AB6006A8FFF7F1
:1094C00096FE02A8FBF7D2FD002229460348FEF7CC
:1094D000CBF8B7E71F930B00B9950B00F39D0B007A
:1094E0002DE9F0438DB004469DF858800E4617468E
:1094F0009946FEF77FF940B96FF0D1012046FFF79A
:1095000039FF20460DB0BDE8F083149BCDF82890BC
:1095100014200025CDE9085507900B93FBF77FFC3D
:10952000014618B1C0E901550570457004A80391C2
:10953000FFF70CFF1F4B08930820FBF770FC054654
:1095400010B103A9FFF7BEFE07AB0093159A09956A
:109550005FFA88F339463046FEF754F9B8B9039BF1
:109560005B7803F0FF0293B94FF69C7305A903A83B
:109570000592ADF81830FFF735FF05A8FFF737FE65
:1095800005A80999FFF7A7FE06A8FCF79FFE03A907
:1095900005A8FFF797FE059B069A236062600023EB
:1095A00006A806930593FCF791FE04A8FCF78EFE2F
:1095B000A7E700BF7D960B00012AF8B5054603D149
:1095C0000B6803600020F8BD022A10D0032AF9D1ED
:1095D0000468002CF6D004F11000FFF708FE2046C6
:1095E000FBF744FD18212046FBF71DFCEAE7182095
:1095F0000E68FBF714FC044650B13146FFF7E2FE5B
:109600003069B6F9147008B101F086F82061A782BC
:109610002C60D7E738B5002383608B6804460D467D
:109620002BB102229847EB68E360AB68A360204649
:1096300038BD012A70B5044603D10B6803600020D1
:1096400070BD022A0CD0032AF9D10468002CF6D090
:109650002046FBF70BFD14212046FBF7E4FBEEE769
:1096600014200E68FBF7DBFB054620B13146FFF7FF
:10967000D1FF337C2B742560E1E70000F0B589B0A1
:1096800004460D4601A81146FFF725FEA4B124B2F9
:109690001DB1284601F040F8054601A803A903952D
:1096A000ADF81040FFF79EFE03A8FFF7A0FD02A84B
:1096B000FCF70CFE09B0F0BD019D0123D5E84F2F4A
:1096C000002A03D1C5E8413F0029F7D1EFD12B7320
:1096D000BFF35B8F6B702B1DBFF35B8F53E8006F85
:1096E00043E80042002AF9D1BFF35B8F002EDED0A1
:1096F0002046FDF7B1FF074660B105F10C01304689
:10970000FFF714FE3046FBF7B1FC10213046FBF7A3
:109710008AFBCCE7314603A8FFF77CFF2B7B8DF853
:109720001C301020FBF77BFB0546D0B1876014206E
:10973000FBF775FB044678B18760014603A8FEF786
:1097400027FB059BA268A360069B0592E268E36085
:109750009DF81C3006922374064BEB60064B2C6080
:10976000AB6003A8FBF782FC002229460348FDF703
:109770007BFFC7E73F930B0033960B00F39D0B0075
:10978000704710B518210446FBF74DFB204610BD6D
:10979000F0B5037D062B8DB00E4600F104074FF0A7
:1097A000000412D000F1080515F8011D0A22304608
:1097B000FEF745FBAF42044419D0002CF4D02E2113
:1097C0003046FEF739FB0444EEE72F236A4639465C
:1097D0000A208DF80040FDF7D7FD6846FBF7C4FA74
:1097E00033680246DB68694630469847044620469F
:1097F0000DB0F0BD10B5054B0446112240F8043BF6
:10980000002100F033FF204610BD00BF00CF0B0049
:109810000346074A10B543F8042B01F1100251F832
:10982000044B43F8044B9142F9D10A781A7010BDE9
:1098300000CF0B0010B59DF8084044EA032343EA2B
:10984000024242EA016104234160037510BD000039
:1098500007B5064B0360CB7800938B784A7809787C
:10986000FFF7E8FF03B05DF804FB00BF00CF0B007B
:10987000417470477047704708B50021007CFDF7C0
:109880007BFE40EAE07008BD08B50121007CFDF7D1
:1098900073FE40EAE07008BD08B5007CFDF764FE89
:1098A00020EAE07008BD08B5007CFDF755FE20EA0F
:1098B000E07008BD13B50446007C0191FDF754FE2D
:1098C0000028019901DC607C20B1207CFDF75CFE62
:1098D00020EAE07002B010BD007CFDF75DBE10B55F
:1098E00014210446FBF79FFA204610BD10B54FF433
:1098F0007A73044608460021C4E90113044B23602F
:109900000123207463741146FDF70EFE204610BD3E
:1099100014CF0B00007C0022FDF70EBE007CFDF78B
:1099200013BE007CFDF740BE10B514220446002192
:1099300000F09CFE204610BD10B50F4C88B003A867
:10994000FFF7F2FF2178BFF35B8F11F001010FD118
:1099500020460191FBF776FA019948B103AA07481E
:10996000FFF7C4FF2046FBF772FA054800F038FE07
:10997000024808B010BD00BFE0E60320E4E6032083
:1099800075980B0000F11003012213F8101C012937
:10999000184608D153F8041C02EB4102013A03F1C6
:1099A0001003F2D17047022904BF53F8041C521867
:1099B000F4E70EB4F0B588B000AF07F1340510211C
:1099C00055F8042B7A6004462B467818FD60FDF7A5
:1099D00059FF0F287A681AD900F1080323F007030A
:1099E0006E46ADEB030D411C2B466846FD60FDF74E
:1099F00049FF021E04DD236869469B68204698479C
:109A0000B5462037BD46BDE8F04003B0704700289A
:109A1000F7D0236802469B6807F11001204698475B
:109A2000EFE738B50B6803604D6843689D42044614
:109A300008D015B16B6801336B60606808B1FEF740
:109A400081F9656038BD07B503688DF807109B681C
:109A500001220DF10701984703B05DF804FB0B46A6
:109A60001146002210B5C0E90022044683600BB9FC
:109A7000204610BDFFF7D5FFFAE78368EBB11A78EF
:109A8000032A1AD8DFE802F00417021B05207047EA
:109A900002685B685268D05C2D2812D0A0F13003B8
:109AA000092B0ED974280ED066280CD0A0F16E03B5
:109AB00058425841704706207047002070470420E4
:109AC0007047032070470220704710B50446FFF727
:109AD000D4FF02280ED0C31EDBB2012B14D822689B
