:020000003E2898
:100008007E14803100308600003087002000101EEA
:100018000E280F2823282700131D13281428212809
:100028000130F2070030F33D73082000A100720888
:10003800A0000130F6002700131120001012111C37
:10004800262827283C2811108131B8218031013019
:10005800F5070A307502031C322833283C28F501BD
:100068007608031D382839283C2881319F218031A2
:100078007E1009003F28F001F101F201F301F401BB
:10008800F501F6012000A001A1017E1020009D28A5
:100098000B0D0B0D0139FC008B1320002108FB0010
:1000A8002008FA0022000C16A630890B59280032C5
:1000B8008830F7001330F80081313E218031003A52
:1000C800031D67286828712822000C127C0C031C69
:1000D8008B1303188B1700309C287B0881317821FB
:1000E80080317A08813178218031A53081317821B9
:1000F800803122000C10E830F7000330F80080311E
:10010800E5208031003A031D8A288B289328220095
:100118000C127C0C031C8B1303188B176F282200FE
:100128000C12F6017C0C031C8B1303188B1701307F
:1001380008008131B221803181311821803181312B
:10014800C32180318131BE21803181318E218031BE
:100158008131AB21803122008C1674080319B5282F
:10016800B628BE280130F4027408031DBC28BD2837
:10017800BE288C12700871040319C328C428C82823
:100188000130F0020030F13B76080319CC28CD2865
:10019800DF2870087104031DD228D328DF28803196
:1001A8004C208031003A031DDA28DB28DF2805308F
:1001B800F0000030F1005330890BE0280000AF2830
:1001C8003E28F901032920008C18EB28EC28FB288D
:1001D80000320032000020008C1CF328F428FB2891
:1001E8008C18F728F828F4280130F9070329533028
:1001F800890BFC2800000130F7020030F83B770833
:1002080078040319082909290F2908307902031CE1
:100218000E290F29E7280830790603191429162909
:10022800013017290030080023008C0121001D101F
:100238002200910125008C0126008C0122008C01EE
:1002480021000C108C140C150C128C1224008C013B
:1002580021000C1022000C1021008C140C15240015
:100268000C1121000C1222000C1221008C12220009
:100278008C1608004E2920008C1C432944294A2941
:100288008C1847294829442901305B295330890BA8
:100298004B2900000130F7020030F83B770A031DB4
:1002A8005929780A031D59295A293F29003008007D
:1002B800F70020008C18612962295D297708031D41
:1002C8006629692922000C146B2922000C100000F1
:1002D80020008C1C702971296C29000020008C18C2
:1002E8007629772972290800F800F901F81B7D2979
:1002F8007F2901308029003081315C218131031050
:10030800F80D0130F90708307902031C8C298D2972
:100318007A2908003F3020009B0530309B041B11D0
:100328009B1185309A00EE309900111021001114AC
:1003380020001B14080034302000A0001230A10057
:100348000130F6007830F40022008C1608002000F6
:100358001012210010160B178B170800603032009E
:10036800990003309F000800853020009A00EE3085
:100378009900080027001115121113110800080030
:020000040001F9
:08000E00EC3FFF3FFF3FFF3F05
:00000001FF
