:040000000DEF00F010
:04000800E2EF0BF028
:06001800FF0094EF0CF064
:101600000000B2EC0CF05FEC0CF0C8EC0CF0BEEC9F
:101610000CF0A4EC0CF0C3EC0CF0C0820750D8B472
:1016200014EF0BF016EF0BF020EF0BF0070607504E
:10163000D8A41DEF0BF01FEF0BF020EF0BF0C092C2
:1016400001500210D8B427EF0BF029EF0BF02CEF6C
:101650000BF00106D8A002060950D8B432EF0BF007
:1016600034EF0BF04AEF0BF001500210D8A43BEF1F
:101670000BF03DEF0BF04AEF0BF052EC0BF00009D2
:10168000D8A445EF0BF047EF0BF04AEF0BF0026ADE
:10169000050E016E530EE82EFED700000DEF0BF085
:1016A0000DEF00F0000ED6BE010E106ED69E03C5E3
:1016B0000EF504C50FF5BE88A60EE82EFED700D0A5
:1016C000130E0B6E880E0A6E39EC0CF00009D8A4CC
:1016D0006CEF0BF06EEF0BF077EF0BF0BE9810B0E5
:1016E00002D0D69E01D0D68E000E9FEF0BF00F5089
:1016F0007BEC0CF00E507BEC0CF0A50E7BEC0CF0B0
:10170000BE90030E0B6EE80E0A6EA0EC0BF0000903
:10171000D8A48DEF0BF08FEF0BF097EF0BF0BE9886
:1017200010B002D0D69E01D0D68E74EF0BF0BE98CA
:10173000096A10B002D0D69E01D0D68E010E1200DA
:101740000C6AC5EF0BF0CEB2A8EF0BF0AAEF0BF0CE
:10175000BEEF0BF000D000D00000CEA2B2EF0BF035
:10176000B4EF0BF0BEEF0BF0CEB2B9EF0BF0BBEF66
:101770000BF0B4EF0BF00C2AC5EF0BF0530EE82E74
:10178000FED700000A06D8A00B060A500B10D8B4EA
:10179000CCEF0BF0CEEF0BF0D6EF0BF0070E0C6496
:1017A000D4EF0BF0D6EF0BF0A3EF0BF0080E0C18F4
:1017B000D8B4DDEF0BF0E0EF0BF0010EE1EF0BF032
:1017C000000E1200B3AEE7EF0BF0E9EF0BF0FBEF0A
:1017D0000BF0040107A5EFEF0BF0F1EF0BF0FAEFC0
:1017E0000BF0054A062A05C503F506C504F5010EEA
:1017F000096E0795B39EB6A800EF0CF002EF0CF04F
:101800000FEF0CF0B698B8EC0CF0082A090E08643B
:101810000CEF0CF00EEF0CF00FEF0CF0086A11005B
:101820000B6ECEB216EF0CF018EF0CF011EF0CF0BF
:101830000B50D8A41EEF0CF022EF0CF00A6A0A2A13
:1018400023EF0CF00A6ABE500A18FE0B0A18BE6E8F
:101850000000CEA22EEF0CF030EF0CF029EF0CF0D0
:101860000000CEB236EF0CF038EF0CF031EF0CF098
:10187000120050EF0CF0CEA240EF0CF042EF0CF053
:101880004CEF0CF0CEB247EF0CF049EF0CF042EF0A
:101890000CF0010E5EEF0CF0530EE82EFED70000A8
:1018A0000A06D8A00B060A2806E10B28D8A45BEF8D
:1018B0000CF05DEF0CF03BEF0CF0000E1200040199
:1018C000006B106B0301F39F0001706B0401026B4E
:1018D000036BBE6AC06AC690C682C684C698C892A8
:1018E000016BC690BE90C682C6840195C698BE980C
:1018F000C892C08212000C6E0D6A0CBE82EF0CF012
:1019000085EF0CF0010E86EF0CF0000E10EC0CF0E1
:10191000D8900C360D2A070E0D6491EF0CF093EF62
:101920000CF07DEF0CF0120001EE01F1090EEE6AF1
:10193000E806FDE10401080E5D6F000E5E6F000E0B
:101940005F6F000101EF0BF00301149114931495E4
:10195000300E1413850E136FEE0E126FB698AB880F
:1019600014811200600E0001AD6F030EB16F120002
:10197000850E0301136FEE0E126F12000401058530
:10198000069507951200B39EA88ED68CD68E1200AF
:02199000120043
:020000040030CA
:09000000ECFFF7FFFFFFFFFFFF1B
:00000001FF
