:040000000DEF00F010
:04000800AEEF1FF048
:06001800FF00B1EF1AF039
:10160000000057EF0BF05AEC1FF00009D8A40BEFC5
:101610000BF00DEF0BF016EF0BF00501BC51D8B439
:1016200014EF0BF016EF0BF047EF0EF00501BC6B5B
:10163000010EBE6F3BEC20F006C578F507C579F5C5
:1016400008C57AF509C57BF5020E0501BF6F47EFA6
:101650000EF0BB51D8A42FEF0BF031EF0BF039EFA8
:101660000BF0BD51D8B437EF0BF039EF0BF03DEF75
:101670000BF00501BF6B47EF0EF078C50AF579C591
:101680000BF57AC50CF57BC50DF5DEEC19F00D50A8
:101690000C100BE1B80E0A5C0B0E0B58D8A053EFE0
:1016A0000BF055EF0BF047EF0EF039EF0BF00501A3
:1016B000BF51276E286A2850000AD8B462EF0BF099
:1016C00039EF0BF02750000AD8B403EF0BF0010AF2
:1016D000D8B424EF0BF0030AD8B429EF0BF039EF9C
:1016E0000BF0BB51D8B477EF0BF079EF0BF069EF4B
:1016F0000EF0BB6B5CEC20F006C5A4F507C5A5F5A4
:101700000501A651A45D276EA751A559286EE80EC4
:101710002724066E030E2820076E030E096EE80EBE
:10172000086E96EC1BF006C5CAF507C5CBF5EAECCA
:101730001FF010C5F4F511C5F5F512C5F6F513C582
:10174000F7F532EC20F006C5E3F507C5E4F508C56A
:10175000E5F509C5E6F5850E0501CA5D030ECB5911
:10176000D8A0B5EF0BF0B7EF0BF0D1EF0BF0D3EC47
:101770001FF00009D8B4BFEF0BF0C1EF0BF0D1EFB1
:101780000BF0AEEC1EF006C5A6F507C5A7F584EC78
:101790001DF006C56CF607C56DF608C56EF609C5E1
:1017A0006FF605016851F45D746F6951F559756FF5
:1017B0006A51F659766F6B51F759776F6451E35D53
:1017C000706F6551E459716F6651E559726F6751D9
:1017D000E659736F06016C510501F45D6C6F0601EB
:1017E0006D510501F5596D6F06016E510501F659F0
:1017F0006E6F06016F510501F7596F6FA6C50BF5A6
:10180000A7C50CF5A4C50DF5A5C50EF53EEC17F062
:101810000BC59EF50CC59FF50501A651A45D276E6D
:10182000A751A559286EE80E2724066E030E28201E
:10183000076E030E096EE80E086E96EC1BF006C5E7
:101840009CF507C59DF5F4C568F5F5C569F5F6C5C0
:101850006AF5F7C56BF5E3C564F5E4C565F5E5C55F
:1018600066F5E6C567F5F4C56CF6F5C56DF6F6C523
:101870006EF6F7C56FF60501A36B000EA26FFBECC9
:101880001EF0010E0501BD6F69EF0EF09CC5C6F597
:101890009DC5C7F5C86BC96B030EC603F3C427F516
:1018A000F4C428F5C703F3502826120E2724EC6F42
:1018B000000E2820ED6FAA0EE76F550EE86F810E1F
:1018C000E96FED51EA6FECC5EBF581EC20F0276E86
:1018D000050E27606EEF0CF070EF0CF072EF0CF05D
:1018E00069EF0EF084EC20F006C5A0F507C5A1F560
:1018F000A0C506F5A1C507F5E9C508F552EC1CF031
:1019000006C5A0F507C5A1F5A0C506F5A1C507F553
:10191000EAC508F552EC1CF006C5A0F507C5A1F50F
:10192000A0C506F5A1C507F5EBC508F552EC1CF0FE
:1019300006C5A0F507C5A1F5E70E076E050E086EF2
:10194000050E096ED5EC1DF0020E0501BD6F69EFA5
:101950000EF0F86BCC0EF825D96EDA6A050EDA2295
:1019600077C5DFF4F82BCC0EF825D96EDA6A050EB0
:10197000DA2276C5DFF4F82BCC0EF825D96EDA6AB8
:10198000050EDA2275C5DFF4F82BCC0EF825D96EDA
:10199000DA6A050EDA2274C5DFF4F82BCC0EF825CE
:1019A000D96EDA6A050EDA2273C5DFF4F82BCC0E95
:1019B000F825D96EDA6A050EDA2272C5DFF4F82B43
:1019C000CC0EF825D96EDA6A050EDA2271C5DFF47D
:1019D000F82BCC0EF825D96EDA6A050EDA2270C51E
:1019E000DFF4F82BCC0EF825D96EDA6A050EDA2270
:1019F0006FC5DFF4F82BCC0EF825D96EDA6A050E28
:101A0000DA226EC5DFF4F82BCC0EF825D96EDA6A2F
:101A1000050EDA226DC5DFF4F82BCC0EF825D96E51
:101A2000DA6A050EDA226CC5DFF4F82BCC0EF82545
:101A3000D96EDA6A050EDA229F51DF6EF82BCC0ED2
:101A4000F825D96EDA6A050EDA229EC5DFF4F82B86
:101A5000CC0EF825D96EDA6A050EDA229C51276E73
:101A60009D51286E296A2A6A190E3CEF0DF0D89014
:101A70002A32293228322732E82E37EF0DF027504C
:101A8000DF6EF82BCC0EF825D96EDA6A050EDA2255
:101A90009C51276E9D51286E296A2A6A110E56EFB5
:101AA0000DF0D8902A32293228322732E82E51EF11
:101AB0000DF02750DF6EF82BCC0EF825D96EDA6AC0
:101AC000050EDA229D51DF6EF82BCC0EF825D96E6B
:101AD000DA6A050EDA229CC5DFF4F82B81EC20F0DF
:101AE000276E120E276077EF0DF079EF0DF07BEF88
:101AF0000DF069EF0EF00501F26B110EF26583EF48
:101B00000DF085EF0DF087EF0DF09DEF0DF0A0C506
:101B100006F5A1C507F5CC0EF225D96EDA6A050ED9
:101B2000DA22DF50086E52EC1CF006C5A0F507C59E
:101B3000A1F50501F22B7DEF0DF0CC0E076E050E21
:101B4000086E120E096ED5EC1DF005019C519D1119
:101B5000D8B4ADEF0DF0AFEF0DF0B3EF0DF0030E15
:101B6000BD6F69EF0EF0040EBD6F69EF0EF0A4516A
:101B7000A61907E1A551A719D8A4C1EF0DF0C3EF2D
:101B80000DF0C5EF0DF0B3EF0DF0A6C51FF5A7C51D
:101B900020F5EE0E216E050E226E7EEC1CF0A2C525
:101BA00006F5A3C507F5F0C508F5F1C509F5E00E82
:101BB0000A6E050E0B6EF3EC17F081EC20F0276E29
:101BC000030E2760E6EF0DF0E8EF0DF0EAEF0DF001
:101BD00069EF0EF00501F36B020EF365F2EF0DF005
:101BE000F4EF0DF0F6EF0DF00CEF0EF0A0C506F5DA
:101BF000A1C507F5E00EF325D96EDA6A050EDA22E3
:101C0000DF50086E52EC1CF006C5A0F507C5A1F523
:101C10000501F32BECEF0DF0E00E076E050E086EDC
:101C2000030E096ED5EC1DF0010E0501A625066E0A
:101C3000000EA721076E030E096EE80E086E96ECE3
:101C40001BF006C5A6F507C5A7F50501A24BA32BFA
:101C500069EF0EF0A151DE6FA0C5DFF581EC20F039
:101C6000276E020E276037EF0EF039EF0EF03BEFD4
:101C70000EF069EF0EF0DE0E076E050E086E020E16
:101C8000096ED5EC1DF00501BD6B69EF0EF0050185
:101C9000BD51276E286A2850000AD8B452EF0EF0C2
:101CA00043EF0EF02750000AD8B471EF0BF0010A91
:101CB000D8B446EF0CF0030AD8B4A9EF0CF0010A2F
:101CC000D8B4B7EF0DF0070AD8B42AEF0EF043EFFF
:101CD0000EF012003BEC20F020EE12F00C50D92652
:101CE0000D50DA2206C5DEF407C5DEF408C5DEF4C1
:101CF00009C5DEF42FEF10F0AA0E0E18D8A483EF5A
:101D00000EF085EF0EF060EF10F020EE16F00C50A4
:101D1000D9260D50DA22DF6A20EE17F00C50D926B2
:101D20000D50DA22DF6A0CC5D9F40DC5DAF4010EC4
:101D3000DF6E60EF10F0550E0E18D8A4A2EF0EF073
:101D4000A4EF0EF0ACEF0EF00CC5D9F40DC5DAF42B
:101D5000020EDF6E60EF10F0AA0E0E18D8A4B3EFDB
:101D60000EF0B5EF0EF0BDEF0EF00CC5D9F40DC5B9
:101D7000DAF4010EDF6E60EF10F00CC5D9F40DC57A
:101D8000DAF4DF6A60EF10F020EE01F00C50D92693
:101D90000D50DA220EC5DFF484EC20F020EE0EF0B8
:101DA0000C50D9260D50DA2206C5DEF407C5DDF445
:101DB00020EE0EF00C50D9260D50DA22DEC406F5C6
:101DC000DDC407F50EC508F552EC1CF020EE0EF050
:101DD0000C50D9260D50DA2206C5DEF407C5DDF415
:101DE0000CC5D9F40DC5DAF4030EDF6E60EF10F008
:101DF0000E50106E0F6A20EE02F00C50D9260D50D6
:101E0000DA220FC5DEF410C5DDF420EE0EF00C5022
:101E1000D9260D50DA22DEC406F5DDC407F50EC55D
:101E200008F552EC1CF020EE0EF00C50D9260D50A7
:101E3000DA2206C5DEF407C5DDF40CC5D9F40DC5FC
:101E4000DAF4040EDF6E60EF10F020EE02F00C50BA
:101E5000D9260D50DA220E50DE12000EDD1220EED1
:101E60000EF00C50D9260D50DA22DEC406F5DDC482
:101E700007F50EC508F552EC1CF020EE0EF00C50E4
:101E8000D9260D50DA2206C5DEF407C5DDF420EEB2
:101E900004F00C50D9260D50DA22DE6ADD6A20EEFD
:101EA00002F00C50D9260D50DA22010EDB5009E168
:101EB000090EDE5CD8A05FEF0FF061EF0FF071EF5D
:101EC0000FF020EE16F00C50D9260D50DA22010E3C
:101ED000DF6E0CC506F50DC507F5F9EC1BF060EFDC
:101EE00010F020EE02F00C50D9260D50DA22DE5010
:101EF000DE10D8B47EEF0FF080EF0FF084EF0FF01C
:101F0000050E136E86EF0FF0060E136E0CC5D9F496
:101F10000DC5DAF413C5DFF460EF10F020EE04F025
:101F20000C50D9260D50DA22DEC40FF5DDC410F5B1
:101F30000F500C24116E10500D20126E060E11243D
:101F4000D96E000E1220DA6E0EC5DFF420EE04F01A
:101F50000C50D9260D50DA22DE2A000EDD2220EEAA
:101F60000EF00C50D9260D50DA22DEC406F5DDC481
:101F700007F50EC508F552EC1CF020EE0EF00C50E3
:101F8000D9260D50DA2206C5DEF407C5DDF420EEB1
:101F900002F00C50D9260D50DA2210EE04F00C504D
:101FA000E1260D50E222DE50E65CDE50E658D8A075
:101FB000DCEF0FF0DEEF0FF060EF10F00CC5D9F49E
:101FC0000DC5DAF4060EDF6E60EF10F00E50106EE5
:101FD0000F6A20EE10F00C50D9260D50DA220FC5F2
:101FE000DEF410C5DDF40CC5D9F40DC5DAF4070E26
:101FF000DF6E60EF10F020EE10F00C50D9260D507F
:10200000DA220E50DE12000EDD120CC5D9F40DC519
:10201000DAF4DF6A20EE0EF00C50D9260D50DA22E9
:1020200010EE10F00C50E1260D50E222DE50E618C2
:1020300007E1DE50E618D8A420EF10F022EF10F0F0
:1020400025EF10F0010E61EF10F020EE17F00C50AC
:10205000D9260D50DA22010EDF6E60EF10F00CC5AC
:10206000D9F40DC5DAF4DF500F6E106A1050000A73
:10207000D8B43DEF10F069EF0FF00F50000AD8B45C
:102080007CEF0EF0010AD8B49BEF0EF0030AD8B42F
:10209000C4EF0EF0010AD8B4F8EF0EF0070AD8B476
:1020A00025EF0FF0010AD8B48EEF0FF0030AD8B471
:1020B000E6EF0FF0010AD8B4FBEF0FF069EF0FF075
:1020C000000E1200F0A867EF10F06AEF10F0010E9A
:1020D0006BEF10F0000E0601986FF0689851D8B4BD
:1020E00074EF10F077EF10F0010E78EF10F0000EA3
:1020F0000501FF6F6FEC1EF02FEC1DF0E20E066E77
:10210000400E076E52EC20F04CEC20F03CEC1FF03F
:1021100078EC20F02CEC1FF09EEC18F095EC19F008
:102120001CEC1FF0700E066E060E076EF9EC1BF02D
:1021300028EC20F006019851D8B4A1EF10F0A4EFDC
:1021400010F0010EA5EF10F0000E0CEC1FF00601D0
:102150009851D8A4AEEF10F0B0EF10F0B2EF10F03D
:1021600084EC1EF0D68CD68ED6EC1EF00001788161
:1021700004008DEC20F0CFEC16F02BEC1BF0A8EC5B
:102180001CF0E5EC12F001EC0BF06CEC1AF0D6EF61
:1021900011F0FF51D8B4CFEF10F0D1EF10F0E3EF12
:1021A00010F010EC1DF00009D8A4D9EF10F0DBEF0F
:1021B00010F0E3EF10F087EC20F065EC20F0050163
:1021C000FF6BB8EF10F00501C451D8B4EAEF10F07E
:1021D000ECEF10F0FBEF10F03BEC20F006C590F5B3
:1021E00007C591F508C592F509C593F5020E0501DD
:1021F000C56FB8EF10F010EC1DF00009D8A403EF84
:1022000011F005EF11F0B8EF10F094C50AF595C57F
:102210000BF596C50CF597C50DF5DEEC19F00D50D4
:102220000DE1900E0A5C5F0E0B58010E0C58D8A001
:102230001CEF11F01EEF11F0B8EF10F065EC20F07C
:10224000B8EF10F05AEC1EF00009D8B42AEF11F0E4
:102250002CEF11F036EF11F0BBEC1FF00009D8B4F1
:1022600034EF11F036EF11F040EF11F03BEC20F0BD
:1022700006C590F507C591F508C592F509C593F512
:1022800010EC1DF00009D8B448EF11F04AEF11F03E
:102290004EEF11F00501C36BB8EF10F00501FF51CF
:1022A000D8B455EF11F057EF11F06DEF11F05AEC73
:1022B0001EF00009D8B45FEF11F061EF11F0B8EF34
:1022C00010F0BBEC1FF00009D8A469EF11F06BEF20
:1022D00011F0B8EF10F0DBEF10F0C351D8A473EF9A
:1022E00011F075EF11F08DEF11F090C50AF591C561
:1022F0000BF592C50CF593C50DF5DEEC19F00D50FC
:102300000C100BE1200E0A5C4E0E0B58D8A08BEF80
:1023100011F08DEF11F0B8EF10F05AEC1EF000093B
:10232000D8B495EF11F097EF11F0B8EF10F0BBECC7
:102330001FF00009D8A49FEF11F0A1EF11F0B8EF42
:1023400010F01EEF11F04BEC1FF00009D8B4ABEF0A
:1023500011F0ADEF11F0B1EF11F0D6EC1EF0B8EFC7
:1023600010F010EC1DF00009D8A4B9EF11F0BBEF8C
:1023700011F0B8EF10F07BEC20F00009D8A4C3EF07
:1023800011F0C5EF11F0B8EF10F05AEC1EF0000993
:10239000D8B4CDEF11F0CFEF11F0B8EF10F0C09638
:1023A000EEEC1AF069EC1FF0B8EF10F00501C55122
:1023B000F96FFA6BFA51000AD8B4E1EF11F0A3EF0C
:1023C00011F0F951000AD8B4A3EF11F0010AD8B402
:1023D000C9EF10F0030AD8B422EF11F0A3EF11F007
:1023E0000DEF00F0B2EF12F06DEC20F0E4EF12F020
:1023F000CFEC1CF0E4EF12F020EE02F0C851D92629
:10240000C951DA22080EDE18DE10D8A40AEF12F045
:102410000CEF12F067EF12F020EE07F0C851D9264A
:10242000C951DA22DF50CA6F20EE06F0C851D92612
:10243000C951DA22DF50CB6FCA51CD6FCBC5CEF573
:1024400020EE09F0C851D926C951DA22DF50CA6FEF
:1024500020EE08F0C851D926C951DA22DF50CB6FDF
:10246000CA51CF6FCBC5D0F520EE0BF0C851D9269D
:10247000C951DA22DF50CA6F20EE0AF0C851D926BE
:10248000C951DA22DF50CB6FCA51D16FCBC5D2F51B
:1024900020EE0DF0C851D926C951DA22DF50CA6F9B
:1024A00020EE0CF0C851D926C951DA22DF50CB6F8B
:1024B000CA51D36FCBC5D4F5CD0EC66F050EC76F0D
:1024C00068EC1DF0030E93EC1FF0E4EF12F0020E27
:1024D00085EC1FF0E4EF12F04CEC1DF0E4EF12F08D
:1024E00020EE02F0C851D926C951DA22DE04DE10EE
:1024F000D8A47DEF12F07FEF12F08DEF12F020EEF6
:1025000006F0C851D926C951DA22DF502FEC1EF04F
:10251000050E93EC1FF0E4EF12F0020E85EC1FF0B5
:10252000E4EF12F0FF00E4EF12F0010EC36FE4EFEE
:1025300012F010EC1DF00009D8B4A1EF12F0A4EFD6
:1025400012F0010EA5EF12F0000E77EC1FF0E4EF91
:1025500012F0CBEC15F0E4EF12F0030E85EC1FF057
:10256000E4EF12F0050120EE01F0C851D926C9515F
:10257000DA22DF50010AD8B4F4EF11F0030AD8B41C
:10258000F8EF11F0010AD8B4FCEF11F0070AD8B443
:102590006CEF12F0010AD8B470EF12F0030AD8B44D
:1025A00092EF12F0010AD8B495EF12F00F0AD8B4E6
:1025B00099EF12F0010AD8B4A9EF12F0030AD8B4C7
:1025C000E4EF12F0ADEF12F0120088C60AF589C6EA
:1025D0000BF58AC60CF58BC60DF5DEEC19F00D5027
:1025E0000C1009E1420E0A5C080E0B58D8B0FBEF44
:1025F00012F0FDEF12F0FFEF12F0C7EF13F03BEC1B
:1026000020F006C588F607C589F608C58AF609C50B
:102610008BF6EAEC1FF010C5D0F511C5D1F512C547
:10262000D2F513C5D3F50501FB51D05DCA6FFC513E
:10263000D159CB6FFD51D259CC6FFE51D359CD6FCB
:10264000D0C5FBF5D1C5FCF5D2C5FDF5D3C5FEF56A
:10265000AEC506F5AFC507F5030E096EE80E086EA8
:1026600096EC1BF006C5D4F507C5D5F50501CD518F
:10267000CC1109E1400ECB5DD8A041EF13F043EF40
:1026800013F050EF13F03F0ECF6FCE69D4C506F5AF
:10269000D5C507F5010E086E26EC1AF05CEF13F0B5
:1026A000CAC5CEF5CBC5CFF5D4C506F5D5C507F55A
:1026B000000E086E26EC1AF0010E05018427000EAC
:1026C000852386238723ACC506F5ADC507F5CEC5A2
:1026D00008F5CFC509F5030ED403F3C4C8F5F4C457
:1026E000C9F5D503F350C9277D0EC8250A6E070E1C
:1026F000C9210B6EF3EC17F0010E0501AE25066E35
:10270000000EAF21076E030E096EE80E086E96EC00
:102710001BF006C5AEF507C5AFF50501AC4BAD2BFB
:10272000D00EAC5D020EAD59D8A099EF13F09BEF1F
:1027300013F0C1EF13F0AD6B000EAC6F010EC16F63
:1027400080C57CF581C57DF582C57EF583C57FF5A5
:10275000AAC5A8F5ABC5A9F5D0C580F5D1C581F549
:10276000D2C582F5D3C583F5AEC5AAF5AFC5ABF525
:10277000020EC061BEEF13F0C0EF13F0C1EF13F013
:10278000C02BCEC5C6F5CFC5C7F58AEC20F0120028
:10279000386A000E376E32EC20F006C53DF507C5ED
:1027A0003EF508C53FF509C540F53D503E103F10C8
:1027B0004010D8A4DEEF13F0E0EF13F0F9EF13F0C0
:1027C00029502A10D8B4E7EF13F0E9EF13F0EFEF38
:1027D00013F029C5D9F42AC5DAF4DE6ADD6A000EE1
:1027E000276E000E286E000E296E000E2A6E84EFF2
:1027F00014F027C539F528C53AF539502B6E3A50F3
:102800002C6E2D6A2E6A2B503D5C2C503E582D505C
:102810003F582E504058D8B010EF14F012EF14F07B
:1028200016EF14F03DC539F53EC53AF55CEC20F0E5
:1028300006C52FF507C530F5000E336E000E346E59
:10284000000E356E000E366E3C6A000E3B6E60EF79
:1028500014F03B502F5C2B6E3C5030582C6EE70E22
:102860002B24066E030E2C20076E030E096EE80E55
:10287000086E96EC1BF006C531F507C532F531C57B
:102880001FF532C520F5410E216E050E226E7EEC3D
:102890001CF043504410D8A450EF14F052EF14F041
:1028A00054EF14F06BEF14F04350332644503422AD
:1028B000000E3522000E3622374A382A3B4A3C2A7F
:1028C00039503B5C3A503C58D8A069EF14F06BEF9C
:1028D00014F029EF14F029502A10D8B472EF14F034
:1028E00074EF14F07CEF14F029C5D9F42AC5DAF49A
:1028F00037C5DEF438C5DDF433C527F534C528F512
:1029000035C529F536C52AF512002F6E376A000E37
:10291000366E155009E1110E145CD8A092EF14F038
:1029200094EF14F096EF14F032EF15F0AA0E186E33
:10293000364A372A180E3624D96E050E3720DA6E3D
:10294000550EDF6E364A372A180E3624D96E050E1C
:102950003720DA6E2FC5DFF4364A372A180E3624B0
:10296000D96E050E3720DA6E1550DF6E364A372ADB
:10297000180E3624D96E050E3720DA6E14C5DFF432
:10298000364A372A336A000E326ED9EF14F03250CD
:102990001224D96E33501320DA6E180E3624E16EED
:1029A000050E3720E26EDFC4E7F4364A372A324A92
:1029B000332A1450325C15503358D8A0E2EF14F08B
:1029C000E4EF14F0C7EF14F01A0E0C6E050E0D6E46
:1029D000030E14240E6E000E15200F6E26EC1CF054
:1029E0000CC530F50DC531F5180E3624D96E050E1F
:1029F0003720DA6E3150DF6E364A372A180E362409
:102A0000D96E050E3720DA6E30C5DFF4364A372A24
:102A100081EC20F0166E176A3650165C3750175846
:102A2000D8A015EF15F017EF15F032EF15F0356A55
:102A3000000E346E27EF15F0180E3424D96E050EF3
:102A40003520DA6EDF50BBEC1DF0344A352A3650A3
:102A5000345C37503558D8A030EF15F032EF15F010
:102A60001CEF15F012000501B851D8A43AEF15F08B
:102A70003CEF15F083EF15F0526A000E516E9AC5C7
:102A800027F59BC528F5510E296E050E2A6EC8EC58
:102A900013F027C549F528C54AF529C54BF52AC5C0
:102AA0004CF505019A51515C9B515258D8A05BEFEF
:102AB00015F05DEF15F083EF15F006019051456EAE
:102AC0009151466E476A486A4550495C46504A589B
:102AD00047504B5848504C58D8A071EF15F073EF41
:102AE00015F083EF15F0010E0501B86F3BEC20F0F7
:102AF00006C564F607C565F608C566F609C567F636
:102B0000010E0501B66F0501B751D8A48AEF15F083
:102B10008CEF15F0C8EF15F0546A000E536E98C58F
:102B200027F599C528F5530E296E050E2A6EC8ECB7
:102B300013F027C54DF528C54EF529C54FF52AC513
:102B400050F505019851535C99515458D8A0ABEFFA
:102B500015F0ADEF15F0C8EF15F006019451456E74
:102B60009551466E476A486A45504D5C46504E58EE
:102B700047504F5848505058D8A0C1EF15F0C3EFF8
:102B800015F0C8EF15F0010E0501B76F010EB56F16
:102B900044EC19F01200476A000E466E010E386EC2
:102BA000464A472A380E4624D96E050E4720DA6E6B
:102BB000020EDF6E464A472A380E4624D96E050EAD
:102BC0004720DA6EDF6A464A472A380E4624D96E15
:102BD000050E4720DA6EDF6A464A472A380E462439
:102BE000D96E050E4720DA6E080EDF6E464A472A78
:102BF000380E4624D96E050E4720DA6E420EDF6E7F
:102C0000464A472A380E4624D96E050E4720DA6E0A
:102C1000020EDF6E464A472A380E4624D96E050E4C
:102C20004720DA6ED00EDF6E464A472A380E462419
:102C3000D96E050E4720DA6E180EDF6E464A472A17
:102C4000380E4624D96E050E4720DA6EDF6A464AF2
:102C5000472A380E4624D96E050E4720DA6E010E3B
:102C6000DF6E464A472A380E4624D96E050E4720A5
:102C7000DA6E010EDF6E464A472A380E4624D96EB8
:102C8000050E4720DA6E0B0EDF6E464A472A380ED5
:102C90004624D96E050E4720DA6EB80EDF6E464A1E
:102CA000472A380E126E050E136E46C514F547C539
:102CB00015F5890E85EC14F0120020EE01F0065097
:102CC000D9260750DA22DF500C6E0CC50DF50E6ABE
:102CD0000F6A106A0FC510F50EC50FF50DC50EF57C
:102CE0000D6A06C5D9F407C5DAF4DF50116E11C5B7
:102CF00012F5136A146A156A13C515F512C514F591
:102D0000136A126A0D501210166E0E501310176EC1
:102D10000F501410186E10501510196E20EE02F09E
:102D20000650D9260750DA22DF501A6E1A501610B4
:102D30001B6E17501C6E18501D6E19501E6E1BC551
:102D40000CF51CC50DF51DC50EF51EC50FF50F0EB6
:102D5000AFEF16F0D8900F320E320D320C32E82E53
:102D6000AAEF16F0FF0E0C14106E030E0D14116E68
:102D700008C5D9F409C5DAF410C5DEF411C5DDF4CF
:102D8000FF0E1B140C6E3F0E1C140D6E0AC5D9F4F9
:102D90000BC5DAF40CC5DEF40DC5DDF41200050137
:102DA000BA51D8A4D6EF16F0D8EF16F0FDEF16F012
:102DB00060C50AF561C50BF562C50CF563C50DF577
:102DC000DEEC19F00D500C100BE1F40E0A5C010E54
:102DD0000B58D8A0EEEF16F0F0EF16F03DEF17F01D
:102DE0003BEC20F006C560F507C561F508C562F546
:102DF00009C563F5C0763DEF17F060C50AF561C5FA
:102E00000BF562C50CF563C50DF5DEEC19F00D5040
:102E10000C100B1009E1640E0A5CD8A012EF17F039
:102E200014EF17F03DEF17F03BEC20F006C560F50E
:102E300007C561F508C562F509C563F5C0760501EA
:102E4000B951D8B426EF17F028EF17F029EF17F093
:102E5000B907B951D8A42FEF17F031EF17F03DEFB4
:102E600017F0C096BA6B3BEC20F006C560F507C5BD
:102E700061F508C562F509C563F51200156A000E13
:102E8000146E0BC516F50CC517F58AEF17F016C5AD
:102E90000FF517C510F5D89010320F32D8901032B8
:102EA0000F32D89010320F320FC511F510C512F540
:102EB00016C50FF5070E0F16010E106E0F2A63EFE1
:102EC00017F0D89010360F2E61EF17F01050136ED8
:102ED000000E1124D96E070E1220DA6EDF50131483
:102EE0000009D8B476EF17F078EF17F07AEF17F003
:102EF000144A152A010E1624066E000E1720076EBE
:102F0000030E096EE80E086E96EC1BF006C516F56A
:102F100007C517F50D50161807E10E501718D8A45D
:102F200094EF17F096EF17F047EF17F014C50BF575
:102F300015C50CF512001FC506F520C507F5086A72
:102F4000096AE80E0A6E030E0B6E000E0C6E000E80
:102F50000D6E61EC1BF006C512F507C513F508C52B
:102F600014F509C515F5420E166E080E176E000E03
:102F7000186E000E196EF2EC18F012C521F513C58B
:102F800022F514C523F515C524F5245023100BE1B3
:102F9000E90E215C030E2258D8A0D1EF17F0D3EF31
:102FA00017F0DBEF17F0E80E216E030E226E000E15
:102FB000236E000E246E2150221023102410D8A45A
:102FC000E4EF17F0E6EF17F0EEEF17F0010E216EC9
:102FD000000E226E000E236E000E246E21C51FF51A
:102FE00022C520F51200040E075CD8B0FAEF17F0E6
:102FF000FCEF17F002EF18F006C510F507C511F544
:1030000005EF18F0030E116E1068400E095CD8B081
:103010000CEF18F00EEF18F014EF18F008C512F5C9
:1030200009C513F517EF18F03F0E136E1268105014
:103030000C6E11500D6E0E6A0F6A0E0ED8900C3683
:103040000D360E360F36E82E1EEF18F012500C100B
:10305000146E13500D10156E000E0E10166E000E2D
:103060000F10176E0AC5D9F40BC5DAF416C5DFF4D4
:1030700020EE01F00A50D9260B50DA2215C5DFF4F4
:1030800020EE02F00A50D9260B50DA2214C5DFF4E4
:103090001200ACA04EEF18F050EF18F071EF18F0DE
:1030A000B7A055EF18F057EF18F071EF18F0A1C264
:1030B00003F506018E518F11D8B461EF18F063EF5C
:1030C00018F071EF18F003C502F502D871EF18F08F
:1030D0000500FA6E8E51FD6E8F51FE6EFF6AFA503A
:1030E0001200ACA276EF18F078EF18F09DEF18F010
:1030F000B7A27DEF18F07FEF18F09DEF18F0585051
:10310000D8B485EF18F087EF18F094EF18F0000EA0
:103110005924D96EDA6A060EDA22DF500201A36F53
:1031200059283F0B596E58065850D8A49AEF18F0FA
:103130009CEF18F09DEF18F0AC9212000501AF6BF8
:10314000000EAE6FAD6B000EAC6F000E846F000E04
:10315000856F000E866F000E876FC16BEAEC1FF063
:1031600010C5FBF511C5FCF512C5FDF513C5FEF53F
:103170003BEC20F006C588F607C589F608C58AF637
:1031800009C58BF6156A000E146E000E1424D96E54
:10319000070E1520DA6EDF6A144A152A155009E168
:1031A0007D0E145CD8A0D7EF18F0D9EF18F0C5EF5A
:1031B00018F0FBC580F5FCC581F5FDC582F5FEC59F
:1031C00083F50501AB6B000EAA6FFBC57CF5FCC552
:1031D0007DF5FDC57EF5FEC57FF5A96B000EA86FD8
:1031E000C06B1200000E1A6E000E1B6E000E1C6EDD
:1031F000000E1D6E1650171018101910D8B403EFDA
:1032000019F005EF19F03BEF19F0010E1E6E0FEFEC
:1032100019F0D89016361736183619361E2A19AEF8
:1032200014EF19F016EF19F009EF19F0D8901A36CB
:103230001B361C361D361650125C1750135818508A
:10324000145819501558D8A028EF19F02AEF19F082
:1032500033EF19F01650125E1750135A1850145AC3
:103260001950155A1A80D89019321832173216325E
:103270001E2E16EF19F01AC512F51BC513F51CC545
:1032800014F51DC515F51200010E0A6E0501B851A1
:10329000D8A44DEF19F04FEF19F058EF19F0B751CE
:1032A000D8A455EF19F057EF19F058EF19F00A6A42
:1032B0000A50D8A45EEF19F061EF19F0010E62EF29
:1032C00019F0000E0B6EB351D8A469EF19F06BEF33
:1032D00019F07BEF19F00BC5B4F5010EB36F0B506D
:1032E000D8B475EF19F077EF19F094EF19F0C2EC3C
:1032F0001EF094EF19F0B4510B18D8B482EF19F006
:1033000084EF19F094EF19F00B50D8B48AEF19F04C
:103310008CEF19F090EF19F0C2EC1EF092EF19F05B
:1033200084EC1EF00BC5B4F512000501BF6BBD6B3C
:10333000A76B000EA66FA56B000EA46FA36B000E0B
:10334000A26FBB6BEAEC1FF010C568F511C569F5FB
:1033500012C56AF513C56BF532EC20F006C564F5AD
:1033600007C565F508C566F509C567F568C56CF656
:1033700069C56DF66AC56EF66BC56FF6000E050180
:10338000746F000E756F000E766F000E776F000E73
:10339000706F000E716F000E726F000E736F000E73
:1033A0006C6F000E6D6F000E6E6F000E6F6F9F6B77
:1033B000000E9E6F9D6B000E9C6F12003BEC20F088
:1033C00006C516F507C517F508C518F509C519F599
:1033D0000A50165C0B5017580C5018580D501958BD
:1033E000D8B0F5EF19F0F7EF19F019EF1AF00A1C41
:1033F0000E6E0B1C0F6E0C1C106E0D1C116E1650F9
:103400000E24126E17500F20136E18501020146ED9
:1034100019501120156E010E12240A6E000E132091
:103420000B6E000E14200C6E000E15200D6E25EF95
:103430001AF00A50165C0A6E0B5017580B6E0C509F
:1034400018580C6E0D5019580D6E120006C509F56E
:1034500007C50AF5D8900A320932D8900A320932E3
:10346000D8900A32093209C50CF50AC50DF506C512
:1034700009F5070E0916010E0A6E092A42EF1AF025
:10348000D8900A36092E40EF1AF00A500B6E0850F9
:10349000D8B44DEF1AF04FEF1AF059EF1AF0000EB2
:1034A0000C24D96E070E0D20DA6E0B50DF126BEF75
:1034B0001AF0000E0C24D96E070E0D20DA6E000EE5
:1034C0000C24E16E070E0D20E26EE750096E0B50E2
:1034D000FF0A0914DF6E1200700E1A6E060E1B6EC4
:1034E000C8EC1BF0A2EF1AF0700E0C6E060E0D6EFB
:1034F00055C50EF56AEC0EF00009D8B482EF1AF04B
:1035000084EF1AF0A2EF1AF0010E0501C46F3BEC34
:1035100020F006C590F507C591F508C592F509C5D7
:1035200093F5BBEC1FF00009D8A499EF1AF09BEFBC
:103530001AF0A2EF1AF0700E0501C86F060EC96FDF
:10354000F2EC11F0550E066E050E076EF0EC1CF055
:103550000009D8A4AEEF1AF0B0EF1AF074EF1AF029
:103560001200C20EF66E400EF76E000EF86E01EEFF
:1035700090F210EE08F00900F5C4EEF4E550E150C9
:10358000FAE101EE7DF312EEB8F3EE6AE550E15098
:10359000FCE1E250FAE101EE00F37D0EEE6AE8068E
:1035A000FDE101EE00F2880EEE6AE806FDE101EEB3
:1035B00060F1660EEE6AE806FDE15A6A596A586AD9
:1035C000576A566A0401080E5D6F000E5E6F000EAA
:1035D0005F6F000EF86E000162EF10F003011E9F96
:1035E000AB96B6961A9F9E0E1B6F020E196F186B44
:1035F000B69EAB8E800E1A6FC7EC1FF0D69EF29E61
:10360000000178910300000000017881DFEC1FF0D9
:103610000009D8B40EEF1BF010EF1BF010EF1BF0F9
:1036200057EC20F0B6AE17EF1BF019EF1BF023EFAD
:103630001BF0210E066E040E076E000E086E000EC3
:10364000096E1EEC20F003011A9FAB9EB69ED68E2B
:10365000A1EC1FF012000501B151D8A432EF1BF00C
:1036600034EF1BF036EF1BF060EF1BF060C60AF57D
:1036700061C60BF562C60CF563C60DF5DEEC19F0FC
:103680000D500C100BE1100E0A5C270E0B58D8A041
:103690004CEF1BF04EEF1BF060EF1BF07EEC20F0C8
:1036A0000501B16BB051D8A458EF1BF05AEF1BF0D5
:1036B0005EEF1BF0020EB26F60EF1BF0010EB26FF7
:1036C0001200000E0E6E000E0F6E000E106E000E39
:1036D000116E06A06EEF1BF070EF1BF078EF1BF081
:1036E0000A500E260B500F220C5010220D501122A2
:1036F000D8900A360B360C360D36D890093208327F
:10370000073206320650071008100910D8A48BEFB4
:103710001BF08DEF1BF069EF1BF00EC506F50FC512
:1037200007F510C508F511C509F512000850091074
:10373000D8B49DEF1BF09FEF1BF0C3EF1BF0010E01
:103740000A6EA7EF1BF0D890083609360A2A09AE90
:10375000ACEF1BF0AEEF1BF0A3EF1BF00850065CC4
:1037600009500758D8A0B7EF1BF0B9EF1BF0BDEF19
:103770001BF00850065E0950075AD89009320832EB
:103780000A2EAEEF1BF006C506F507C507F51200B9
:103790001AC5D9F41BC5DAF4DF50D8B4D2EF1BF048
:1037A000D4EF1BF0F8EF1BF020EE12F01A50D926E0
:1037B0001B50DA22DEC40AF5DEC40BF5DEC40CF5BC
:1037C000DEC40DF5DEEC19F00D500C100BE1E80E27
:1037D0000A5C030E0B58D8A0F0EF1BF0F2EF1BF0C1
:1037E000F8EF1BF01AC506F51BC507F5F9EC1BF041
:1037F000120006C5D9F407C5DAF4DF6A20EE01F03D
:103800000650D9260750DA22DF6A20EE02F0065071
:10381000D9260750DA22DE6ADD6A20EE04F006506F
:10382000D9260750DA22DE6ADD6A20EE0EF0065055
:10383000D9260750DA22DE6ADD6A20EE10F0065043
:10384000D9260750DA22DE6ADD6A120084EC20F005
:1038500006C510F507C511F540EF1CF010C506F5BB
:1038600011C507F50CC5D9F40DC5DAF4DF50086EA3
:1038700052EC1CF006C510F507C511F50C4A0D2ACF
:103880000E06D8A00F060E2806E10F28D8A44BEF8D
:103890001CF04DEF1CF02EEF1CF010C50CF511C5FF
:1038A0000DF512000850061A0B6A06A05AEF1CF01C
:1038B0005CEF1CF069EF1CF0D89007300A6E063000
:1038C000096E010E0918066EA00E0A18076E70EF39
:1038D0001CF0D8900730096E0630066E09C507F552
:1038E0000B2A070E0B6477EF1CF079EF1CF055EFF5
:1038F0001CF006C506F507C507F512001FC506F53D
:1039000020C507F5030E096EE80E086E96EC1BF055
:1039100006C525F507C526F5030E2502F3C423F5D4
:10392000F4C424F52602F35024267D0E2324066ECB
:10393000070E2420076E21C508F522C509F5020EE1
:1039400021240A6E000E22200B6E5DEC16F0120090
:103950000501B851D8B4AFEF1CF0B1EF1CF0CEEFB9
:103960001CF064C60AF565C60BF566C60CF567C69D
:103970000DF5DEEC19F00D500DE1C00E0A5C270EBE
:103980000B58090E0C58D8A0C8EF1CF0CAEF1CF059
:10399000CEEF1CF00501B86B44EC19F01200400E9C
:1039A000066E050E076E45EC1EF04150386E40C5A0
:1039B00039F543503A6E42C53BF545503C6E44C51F
:1039C0003DF547503E6E46C53FF5380E126E050E6A
:1039D000136E156A080E146E820E85EC14F0120038
:1039E000086AD69E0501C251D8B4F9EF1CF0FBEF6E
:1039F0001CF00DEF1DF0400E5624D96EDA6A060E4B
:103A0000DA2206C5E1F407C5E2F4DFC4E7F456287C
:103A10001F0B566EC207010E086ED68E085012009C
:103A20000A6A0501FF51D8B418EF1DF01AEF1DF016
:103A30002DEF1DF03BEC20F009500BE1200E065C51
:103A4000BF0E0758020E0858D8B029EF1DF02BEF13
:103A50001DF02DEF1DF0010E0A6E0A501200040138
:103A60001091C890100E0201116F04011093C882CA
:103A70001183110E0201726FAB8FA00EAE6F010E9B
:103A8000AF6FF00EAB17AB8BAB89AC8F586A596A2E
:103A90005A6AAC80AC92120000EC20F0386E0AEC4E
:103AA00020F0396E75EC20F03A6E19EC1EF03B6E8A
:103AB00003EC1EF03C6E380E126E050E136E156A86
:103AC000050E146E840E85EC14F069EC20F01200E3
:103AD0000501C651C711D8A470EF1DF072EF1DF09B
:103AE00074EF1DF083EF1DF0C6C5D9F4C7C5DAF435
:103AF00011EE90F2070EDBC4E3F4E806FCE299EC69
:103B00001EF033EC15F01200020E0501C0618BEFC0
:103B10001DF08DEF1DF097EF1DF080C506F581C5F6
:103B200007F582C508F583C509F59FEF1DF07CC533
:103B300006F57DC507F57EC508F57FC509F51200B8
:103B4000F5EC1FF006C50EF507C50FF506018C5103
:103B50000E5C0C6E8D510F580D6E0EC58CF60FC598
:103B60008DF60C50050188270D508923000E8A23FD
:103B7000000E8B231200066E3F0E5864C2EF1DF03C
:103B8000C4EF1DF0C6EF1DF0D4EF1DF0AC92000E97
:103B90005A24D96EDA6A060EDA2206C5DFF45A28EC
:103BA0003F0B5A6E582AAC8212000A6AE2EF1DF0EF
:103BB0000A500724D96E000E0820DA6EDF50BBECE5
:103BC0001DF00A2A09500A5CD8A0E9EF1DF0EBEFBE
:103BD0001DF0D8EF1DF01200016E200E0501C2612C
:103BE000F4EF1DF0F6EF1DF002EF1EF0400E57242B
:103BF000D96EDA6A060EDA2201C5DFF457281F0BE8
:103C0000576EC22B1200066A0501B651D8B40BEFED
:103C10001EF00DEF1EF00EEF1EF00680B551D8B469
:103C200014EF1EF016EF1EF017EF1EF0068206507E
:103C30001200066A0501B851D8B421EF1EF023EF37
:103C40001EF024EF1EF00680B751D8B42AEF1EF004
:103C50002CEF1EF02DEF1EF00682065012000C6EA7
:103C60000CA035EF1EF037EF1EF039EF1EF0050106
:103C7000B86B0CA23EEF1EF040EF1EF042EF1EF0BC
:103C80000501B76B44EC19F0120006500710D8B4C8
:103C90004CEF1EF04EEF1EF059EF1EF021EE90F2A9
:103CA00006C5E1F407C5E2F4070EDBC4E3F4E80659
:103CB000FCE21200066A5850D8A461EF1EF063EFD0
:103CC0001EF06DEF1EF00201B2AF69EF1EF06BEF58
:103CD0001EF06DEF1EF0010E066E0650120004017C
:103CE0001097C8960099C698009BC69A0095C694EE
:103CF0001095C8941099C088C898C096BE98BE9A6E
:103D0000BE94C094C0881200C084BE84010E050118
:103D1000B16F010EB06F3BEC20F006C560F607C531
:103D200061F608C562F609C563F6030E0501B26FB8
:103D3000120092C61FF593C620F59BEC17F01FC525
:103D40009AF520C59BF596C61FF597C620F59BEC06
:103D500017F01FC598F520C599F51200020E050150
:103D6000C061B5EF1EF0B7EF1EF0BDEF1EF0AAC5A3
:103D700006F5ABC507F5C1EF1EF0A8C506F5A9C548
:103D800007F51200C084BE94010E0501B16FB06B3F
:103D90003BEC20F006C560F607C561F608C562F683
:103DA00009C563F6040E0501B26F1200C0983BEC22
:103DB00020F006C594F507C595F508C596F509C523
:103DC00097F50501C46BC36B010EC56F69EC1FF05D
:103DD0001200ABA6EEEF1EF0F0EF1EF0FAEF1EF0B1
:103DE000B6A6F5EF1EF0F7EF1EF0FAEF1EF0B6964E
:103DF00044EC20F01200010E0501BA6FC086050EDA
:103E0000B96F3BEC20F006C560F507C561F508C544
:103E100062F509C563F512007EEC20F00501B16B77
:103E2000000E0601606F000E616F000E626F000EE3
:103E3000636F0501B26B12000501BA6B3BEC20F019
:103E400006C560F507C561F508C562F509C563F5E6
:103E50000501B96BC0961200F5EC1FF006C58CF693
:103E600007C58DF6000E0501886F000E896F000EE4
:103E70008A6F000E8B6F12000401109BC88A150E0A
:103E80000201426F03011491156B176B060E146F3C
:103E9000136B126B12000501BE51D8B452EF1FF024
:103EA00054EF1FF058EF1FF0BE6B010E59EF1FF0DB
:103EB000000E12000501C151D8B461EF1FF063EF8D
:103EC0001FF067EF1FF0C16B010E68EF1FF0000ECF
:103ED00012000501BA6BC0863BEC20F006C560F508
:103EE00007C561F508C562F509C563F51200386EAE
:103EF00038C539F5390E126E050E136E156A010EAE
:103F0000146E880E85EC14F01200386E38C539F541
:103F1000390E126E050E136E156A010E146E8F0E99
:103F200085EC14F01200386E38C539F5390E126E72
:103F3000050E136E156A010E146E8E0E85EC14F0CC
:103F4000120003011E9F010E206F1F6BF90E1D6FE3
:103F5000E00E1E6FB696AB861E8F1200FAC404F5F3
:103F6000FBC405F549EC18F0E9EC1EF005C5FBF4BF
:103F700004C5FAF411000501BD51D8A4C2EF1FF029
:103F8000C5EF1FF0010EC6EF1FF0000E1200020178
:103F9000B0A7CDEF1FF0CFEF1FF0C7EF1FF0B19F1D
:103FA000AC86AC8912000501C051D8A4DAEF1FF02D
:103FB000DDEF1FF0010EDEEF1FF0000E1200020118
:103FC000B1BFE5EF1FF0E8EF1FF0010EE9EF1FF0C2
:103FD000000E1200A0EC1DF088C510F589C511F582
:103FE0008AC512F58BC513F5120012C30AF513C367
:103FF0000BF50B50086E0A50066E08C507F5120047
:10400000C0B405EF20F008EF20F0010E09EF20F01A
:10401000000E1200BEB40FEF20F012EF20F0010EE0
:1040200013EF20F0000E1200000E05018C6F000E41
:104030008D6F000E8E6F000E8F6F120006500501FF
:104040008C2707508D2308508E2309508F23120090
:1040500099EC1EF00501B86BB76BB66BB56BB46B22
:10406000B36B120084C506F585C507F586C508F54E
:1040700087C509F512008CC506F58DC507F58EC5F7
:1040800008F58FC509F51200010E05018C27000EF9
:104090008D238E238F231200000E14EC20F0A1EC50
:1040A0001FF0120006C58EF607C58FF6120002013A
:1040B000AC99B19FAC961200AEC506F5AFC507F539
:1040C00012008813100E9001B400C0880501C56B62
:1040D00012000501B66BB56B1200010E0501BB6F36
:1040E00012000250ECEC1DF012000501B25112005A
:1040F0000301148112000501B1511200C094BE9455
:1041000012005850400812000668076812000501A6
:0C411000BE6B120033EC15F01200120020
:020000040030CA
:010000008C73
:04000200F7FFACFF59
:00000001FF
