:040000000DEF00F010
:04000800AFEF1FF047
:06001800FF00A9EF1AF041
:10160000000057EF0BF05BEC1FF00009D8A40BEFC4
:101610000BF00DEF0BF016EF0BF00501BA51D8B43B
:1016200014EF0BF016EF0BF047EF0EF00501BA6B5D
:10163000010EBC6F3BEC20F006C578F507C579F5C7
:1016400008C57AF509C57BF5020E0501BD6F47EFA8
:101650000EF0B951D8A42FEF0BF031EF0BF039EFAA
:101660000BF0BB51D8B437EF0BF039EF0BF03DEF77
:101670000BF00501BD6B47EF0EF078C50AF579C593
:101680000BF57AC50CF57BC50DF5D6EC19F00D50B0
:101690000C100BE1B80E0A5C0B0E0B58D8A053EFE0
:1016A0000BF055EF0BF047EF0EF039EF0BF00501A3
:1016B000BD51276E286A2850000AD8B462EF0BF09B
:1016C00039EF0BF02750000AD8B403EF0BF0010AF2
:1016D000D8B424EF0BF0030AD8B429EF0BF039EF9C
:1016E0000BF0B951D8B477EF0BF079EF0BF069EF4D
:1016F0000EF0B96B5CEC20F006C5A4F507C5A5F5A6
:101700000501A651A45D276EA751A559286EE80EC4
:101710002724066E030E2820076E030E096EE80EBE
:10172000086E8EEC1BF006C5C8F507C5C9F5EBECD5
:101730001FF010C5F2F511C5F3F512C5F4F513C588
:10174000F5F532EC20F006C5E1F507C5E2F508C570
:10175000E3F509C5E4F5850E0501C85D030EC95919
:10176000D8A0B5EF0BF0B7EF0BF0D1EF0BF0D4EC46
:101770001FF00009D8B4BFEF0BF0C1EF0BF0D1EFB1
:101780000BF09DEC1EF006C5A6F507C5A7F589EC84
:101790001DF006C570F607C571F608C572F609C5D5
:1017A00073F605016851F25D746F6951F359756FF5
:1017B0006A51F459766F6B51F559776F6451E15D59
:1017C000706F6551E259716F6651E359726F6751DD
:1017D000E459736F060170510501F25D6C6F0601EB
:1017E00071510501F3596D6F060172510501F459EC
:1017F0006E6F060173510501F5596F6FA6C50BF5A4
:10180000A7C50CF5A4C50DF5A5C50EF536EC17F06A
:101810000BC59EF50CC59FF50501A651A45D276E6D
:10182000A751A559286EE80E2724066E030E28201E
:10183000076E030E096EE80E086E8EEC1BF006C5EF
:101840009CF507C59DF5F2C568F5F3C569F5F4C5C6
:101850006AF5F5C56BF5E1C564F5E2C565F5E3C567
:1018600066F5E4C567F5F2C570F6F3C571F6F4C523
:1018700072F6F5C573F60501A36B000EA26FFCECC2
:101880001EF0010E0501BB6F69EF0EF09CC5C4F59B
:101890009DC5C5F5C66BC76B030EC403F3C427F51E
:1018A000F4C428F5C503F3502826120E2724EA6F46
:1018B000000E2820EB6FAA0EE56F550EE66F810E25
:1018C000E76FEB51E86FEAC5E9F57DEC20F0276E94
:1018D000050E27606EEF0CF070EF0CF072EF0CF05D
:1018E00069EF0EF080EC20F006C5A0F507C5A1F564
:1018F000A0C506F5A1C507F5E7C508F54AEC1CF03B
:1019000006C5A0F507C5A1F5A0C506F5A1C507F553
:10191000E8C508F54AEC1CF006C5A0F507C5A1F519
:10192000A0C506F5A1C507F5E9C508F54AEC1CF008
:1019300006C5A0F507C5A1F5E50E076E050E086EF4
:10194000050E096EDAEC1DF0020E0501BB6F69EFA2
:101950000EF0F66BCA0EF625D96EDA6A050EDA229B
:1019600077C5DFF4F62BCA0EF625D96EDA6A050EB6
:10197000DA2276C5DFF4F62BCA0EF625D96EDA6ABE
:10198000050EDA2275C5DFF4F62BCA0EF625D96EE0
:10199000DA6A050EDA2274C5DFF4F62BCA0EF625D4
:1019A000D96EDA6A050EDA2273C5DFF4F62BCA0E99
:1019B000F625D96EDA6A050EDA2272C5DFF4F62B47
:1019C000CA0EF625D96EDA6A050EDA2271C5DFF481
:1019D000F62BCA0EF625D96EDA6A050EDA2270C524
:1019E000DFF4F62BCA0EF625D96EDA6A050EDA2276
:1019F0006FC5DFF4F62BCA0EF625D96EDA6A050E2E
:101A0000DA226EC5DFF4F62BCA0EF625D96EDA6A35
:101A1000050EDA226DC5DFF4F62BCA0EF625D96E57
:101A2000DA6A050EDA226CC5DFF4F62BCA0EF6254B
:101A3000D96EDA6A050EDA229F51DF6EF62BCA0ED6
:101A4000F625D96EDA6A050EDA229EC5DFF4F62B8A
:101A5000CA0EF625D96EDA6A050EDA229C51276E77
:101A60009D51286E296A2A6A190E3CEF0DF0D89014
:101A70002A32293228322732E82E37EF0DF027504C
:101A8000DF6EF62BCA0EF625D96EDA6A050EDA225B
:101A90009C51276E9D51286E296A2A6A110E56EFB5
:101AA0000DF0D8902A32293228322732E82E51EF11
:101AB0000DF02750DF6EF62BCA0EF625D96EDA6AC6
:101AC000050EDA229D51DF6EF62BCA0EF625D96E71
:101AD000DA6A050EDA229CC5DFF4F62B7DEC20F0E5
:101AE000276E120E276077EF0DF079EF0DF07BEF88
:101AF0000DF069EF0EF00501F06B110EF06583EF4C
:101B00000DF085EF0DF087EF0DF09DEF0DF0A0C506
:101B100006F5A1C507F5CA0EF025D96EDA6A050EDD
:101B2000DA22DF50086E4AEC1CF006C5A0F507C5A6
:101B3000A1F50501F02B7DEF0DF0CA0E076E050E25
:101B4000086E120E096EDAEC1DF005019C519D1114
:101B5000D8B4ADEF0DF0AFEF0DF0B3EF0DF0030E15
:101B6000BB6F69EF0EF0040EBB6F69EF0EF0A4516E
:101B7000A61907E1A551A719D8A4C1EF0DF0C3EF2D
:101B80000DF0C5EF0DF0B3EF0DF0A6C51FF5A7C51D
:101B900020F5EC0E216E050E226E76EC1CF0A2C52F
:101BA00006F5A3C507F5EEC508F5EFC509F5DE0E88
:101BB0000A6E050E0B6EEBEC17F07DEC20F0276E35
:101BC000030E2760E6EF0DF0E8EF0DF0EAEF0DF001
:101BD00069EF0EF00501F16B020EF165F2EF0DF009
:101BE000F4EF0DF0F6EF0DF00CEF0EF0A0C506F5DA
:101BF000A1C507F5DE0EF125D96EDA6A050EDA22E7
:101C0000DF50086E4AEC1CF006C5A0F507C5A1F52B
:101C10000501F12BECEF0DF0DE0E076E050E086EE0
:101C2000030E096EDAEC1DF0010E0501A625066E05
:101C3000000EA721076E030E096EE80E086E8EECEB
:101C40001BF006C5A6F507C5A7F50501A24BA32BFA
:101C500069EF0EF0A151DC6FA0C5DDF57DEC20F041
:101C6000276E020E276037EF0EF039EF0EF03BEFD4
:101C70000EF069EF0EF0DC0E076E050E086E020E18
:101C8000096EDAEC1DF00501BB6B69EF0EF0050182
:101C9000BB51276E286A2850000AD8B452EF0EF0C4
:101CA00043EF0EF02750000AD8B471EF0BF0010A91
:101CB000D8B446EF0CF0030AD8B4A9EF0CF0010A2F
:101CC000D8B4B7EF0DF0070AD8B42AEF0EF043EFFF
:101CD0000EF012003BEC20F020EE12F00C50D92652
:101CE0000D50DA2206C5DEF407C5DEF408C5DEF4C1
:101CF00009C5DEF42FEF10F0AA0E0E18D8A483EF5A
:101D00000EF085EF0EF060EF10F020EE16F00C50A4
:101D1000D9260D50DA22DF6A20EE17F00C50D926B2
:101D20000D50DA22DF6A0CC5D9F40DC5DAF4010EC4
:101D3000DF6E60EF10F0550E0E18D8A4A2EF0EF073
:101D4000A4EF0EF0ACEF0EF00CC5D9F40DC5DAF42B
:101D5000020EDF6E60EF10F0AA0E0E18D8A4B3EFDB
:101D60000EF0B5EF0EF0BDEF0EF00CC5D9F40DC5B9
:101D7000DAF4010EDF6E60EF10F00CC5D9F40DC57A
:101D8000DAF4DF6A60EF10F020EE01F00C50D92693
:101D90000D50DA220EC5DFF480EC20F020EE0EF0BC
:101DA0000C50D9260D50DA2206C5DEF407C5DDF445
:101DB00020EE0EF00C50D9260D50DA22DEC406F5C6
:101DC000DDC407F50EC508F54AEC1CF020EE0EF058
:101DD0000C50D9260D50DA2206C5DEF407C5DDF415
:101DE0000CC5D9F40DC5DAF4030EDF6E60EF10F008
:101DF0000E50106E0F6A20EE02F00C50D9260D50D6
:101E0000DA220FC5DEF410C5DDF420EE0EF00C5022
:101E1000D9260D50DA22DEC406F5DDC407F50EC55D
:101E200008F54AEC1CF020EE0EF00C50D9260D50AF
:101E3000DA2206C5DEF407C5DDF40CC5D9F40DC5FC
:101E4000DAF4040EDF6E60EF10F020EE02F00C50BA
:101E5000D9260D50DA220E50DE12000EDD1220EED1
:101E60000EF00C50D9260D50DA22DEC406F5DDC482
:101E700007F50EC508F54AEC1CF020EE0EF00C50EC
:101E8000D9260D50DA2206C5DEF407C5DDF420EEB2
:101E900004F00C50D9260D50DA22DE6ADD6A20EEFD
:101EA00002F00C50D9260D50DA22010EDB5009E168
:101EB000090EDE5CD8A05FEF0FF061EF0FF071EF5D
:101EC0000FF020EE16F00C50D9260D50DA22010E3C
:101ED000DF6E0CC506F50DC507F5F1EC1BF060EFE4
:101EE00010F020EE02F00C50D9260D50DA22DE5010
:101EF000DE10D8B47EEF0FF080EF0FF084EF0FF01C
:101F0000050E136E86EF0FF0060E136E0CC5D9F496
:101F10000DC5DAF413C5DFF460EF10F020EE04F025
:101F20000C50D9260D50DA22DEC40FF5DDC410F5B1
:101F30000F500C24116E10500D20126E060E11243D
:101F4000D96E000E1220DA6E0EC5DFF420EE04F01A
:101F50000C50D9260D50DA22DE2A000EDD2220EEAA
:101F60000EF00C50D9260D50DA22DEC406F5DDC481
:101F700007F50EC508F54AEC1CF020EE0EF00C50EB
:101F8000D9260D50DA2206C5DEF407C5DDF420EEB1
:101F900002F00C50D9260D50DA2210EE04F00C504D
:101FA000E1260D50E222DE50E65CDE50E658D8A075
:101FB000DCEF0FF0DEEF0FF060EF10F00CC5D9F49E
:101FC0000DC5DAF4060EDF6E60EF10F00E50106EE5
:101FD0000F6A20EE10F00C50D9260D50DA220FC5F2
:101FE000DEF410C5DDF40CC5D9F40DC5DAF4070E26
:101FF000DF6E60EF10F020EE10F00C50D9260D507F
:10200000DA220E50DE12000EDD120CC5D9F40DC519
:10201000DAF4DF6A20EE0EF00C50D9260D50DA22E9
:1020200010EE10F00C50E1260D50E222DE50E618C2
:1020300007E1DE50E618D8A420EF10F022EF10F0F0
:1020400025EF10F0010E61EF10F020EE17F00C50AC
:10205000D9260D50DA22010EDF6E60EF10F00CC5AC
:10206000D9F40DC5DAF4DF500F6E106A1050000A73
:10207000D8B43DEF10F069EF0FF00F50000AD8B45C
:102080007CEF0EF0010AD8B49BEF0EF0030AD8B42F
:10209000C4EF0EF0010AD8B4F8EF0EF0070AD8B476
:1020A00025EF0FF0010AD8B48EEF0FF0030AD8B471
:1020B000E6EF0FF0010AD8B4FBEF0FF069EF0FF075
:1020C000000E1200F0A867EF10F06AEF10F0010E9A
:1020D0006BEF10F0000E06019A6FF0689A51D8B4B9
:1020E00074EF10F077EF10F0010E78EF10F0000EA3
:1020F0000501FF6F5EEC1EF050EC1DF0DA0E066E6F
:10210000400E076E52EC20F04CEC20F03DEC1FF03E
:1021100074EC20F02DEC1FF096EC18F08DEC19F01B
:102120001DEC1FF0740E066E060E076EF1EC1BF030
:10213000D8EC1EF006019A51D8B4A1EF10F0A4EF2C
:1021400010F0010EA5EF10F0000E0DEC1FF00601CF
:102150009A51D8A4AEEF10F0B0EF10F0B2EF10F03B
:1021600073EC1EF0D68CD68EC5EC1EF00001788183
:10217000040089EC20F0C7EC16F023EC1BF0C9EC4E
:102180001CF0E5EC12F001EC0BF064EC1AF0D6EF69
:1021900011F0FF51D8B4CFEF10F0D1EF10F0E3EF12
:1021A00010F031EC1DF00009D8A4D9EF10F0DBEFEE
:1021B00010F0E3EF10F083EC20F065EC20F0050167
:1021C000FF6BB8EF10F00501C251D8B4EAEF10F080
:1021D000ECEF10F0FBEF10F03BEC20F006C590F5B3
:1021E00007C591F508C592F509C593F5020E0501DD
:1021F000C36FB8EF10F031EC1DF00009D8A403EF65
:1022000011F005EF11F0B8EF10F094C50AF595C57F
:102210000BF596C50CF597C50DF5D6EC19F00D50DC
:102220000DE1900E0A5C5F0E0B58010E0C58D8A001
:102230001CEF11F01EEF11F0B8EF10F065EC20F07C
:10224000B8EF10F049EC1EF00009D8B42AEF11F0F5
:102250002CEF11F036EF11F0BCEC1FF00009D8B4F0
:1022600034EF11F036EF11F040EF11F03BEC20F0BD
:1022700006C590F507C591F508C592F509C593F512
:1022800031EC1DF00009D8B448EF11F04AEF11F01D
:102290004EEF11F00501C16BB8EF10F00501FF51D1
:1022A000D8B455EF11F057EF11F06DEF11F049EC84
:1022B0001EF00009D8B45FEF11F061EF11F0B8EF34
:1022C00010F0BCEC1FF00009D8A469EF11F06BEF1F
:1022D00011F0B8EF10F0DBEF10F0C151D8A473EF9C
:1022E00011F075EF11F08DEF11F090C50AF591C561
:1022F0000BF592C50CF593C50DF5D6EC19F00D5004
:102300000C100BE1200E0A5C4E0E0B58D8A08BEF80
:1023100011F08DEF11F0B8EF10F049EC1EF000094C
:10232000D8B495EF11F097EF11F0B8EF10F0BCECC6
:102330001FF00009D8A49FEF11F0A1EF11F0B8EF42
:1023400010F01EEF11F04CEC1FF00009D8B4ABEF09
:1023500011F0ADEF11F0B1EF11F0C5EC1EF0B8EFD8
:1023600010F031EC1DF00009D8A4B9EF11F0BBEF6B
:1023700011F0B8EF10F077EC20F00009D8A4C3EF0B
:1023800011F0C5EF11F0B8EF10F049EC1EF00009A4
:10239000D8B4CDEF11F0CFEF11F0B8EF10F0C09638
:1023A000E6EC1AF06AEC1FF0B8EF10F00501C3512B
:1023B000F76FF86BF851000AD8B4E1EF11F0A3EF12
:1023C00011F0F751000AD8B4A3EF11F0010AD8B404
:1023D000C9EF10F0030AD8B422EF11F0A3EF11F007
:1023E0000DEF00F0B2EF12F069EC20F0E4EF12F024
:1023F000F0EC1CF0E4EF12F020EE02F0C651D9260A
:10240000C751DA22080EDE18DE10D8A40AEF12F047
:102410000CEF12F067EF12F020EE07F0C651D9264C
:10242000C751DA22DF50C86F20EE06F0C651D92618
:10243000C751DA22DF50C96FC851CB6FC9C5CCF57F
:1024400020EE09F0C651D926C751DA22DF50C86FF5
:1024500020EE08F0C651D926C751DA22DF50C96FE5
:10246000C851CD6FC9C5CEF520EE0BF0C651D926A7
:10247000C751DA22DF50C86F20EE0AF0C651D926C4
:10248000C751DA22DF50C96FC851CF6FC9C5D0F527
:1024900020EE0DF0C651D926C751DA22DF50C86FA1
:1024A00020EE0CF0C651D926C751DA22DF50C96F91
:1024B000C851D16FC9C5D2F5CB0EC46F050EC56F1B
:1024C0006DEC1DF0030E94EC1FF0E4EF12F0020E21
:1024D00086EC1FF0E4EF12F0A0EC1CF0E4EF12F039
:1024E00020EE02F0C651D926C751DA22DE04DE10F2
:1024F000D8A47DEF12F07FEF12F08DEF12F020EEF6
:1025000006F0C651D926C751DA22DF501EEC1EF064
:10251000050E94EC1FF0E4EF12F0020E86EC1FF0B3
:10252000E4EF12F0FF00E4EF12F0010EC16FE4EFF0
:1025300012F031EC1DF00009D8B4A1EF12F0A4EFB5
:1025400012F0010EA5EF12F0000E78EC1FF0E4EF90
:1025500012F0CDEC15F0E4EF12F0030E86EC1FF054
:10256000E4EF12F0050120EE01F0C651D926C75163
:10257000DA22DF50010AD8B4F4EF11F0030AD8B41C
:10258000F8EF11F0010AD8B4FCEF11F0070AD8B443
:102590006CEF12F0010AD8B470EF12F0030AD8B44D
:1025A00092EF12F0010AD8B495EF12F00F0AD8B4E6
:1025B00099EF12F0010AD8B4A9EF12F0030AD8B4C7
:1025C000E4EF12F0ADEF12F0120094C60AF595C6D2
:1025D0000BF596C60CF597C60DF5D6EC19F00D5017
:1025E0000C1009E1530E0A5C0A0E0B58D8B0FBEF31
:1025F00012F0FDEF12F0FFEF12F0C7EF13F03BEC1B
:1026000020F006C594F607C595F608C596F609C5E7
:1026100097F6EBEC1FF010C5CEF511C5CFF512C53E
:10262000D0F513C5D1F50501F951CE5DC86FFA514A
:10263000CF59C96FFB51D059CA6FFC51D159CB6FDB
:10264000CEC5F9F5CFC5FAF5D0C5FBF5D1C5FCF57A
:10265000AEC506F5AFC507F5030E096EE80E086EA8
:102660008EEC1BF006C5D2F507C5D3F50501CB519D
:10267000CA1109E1400EC95DD8A041EF13F043EF44
:1026800013F050EF13F03F0ECD6FCC69D2C506F5B5
:10269000D3C507F5010E086E1EEC1AF05CEF13F0BF
:1026A000C8C5CCF5C9C5CDF5D2C506F5D3C507F566
:1026B000000E086E1EEC1AF0010E05018427000EB4
:1026C000852386238723ACC506F5ADC507F5CCC5A4
:1026D00008F5CDC509F5030ED203F3C4C6F5F4C45D
:1026E000C7F5D303F350C7277D0EC6250A6E070E24
:1026F000C7210B6EEBEC17F0010E0501AE25066E3F
:10270000000EAF21076E030E096EE80E086E8EEC08
:102710001BF006C5AEF507C5AFF50501AC4BAD2BFB
:10272000D00EAC5D020EAD59D8A099EF13F09BEF1F
:1027300013F0C1EF13F0AD6B000EAC6F010EBF6F65
:1027400080C57CF581C57DF582C57EF583C57FF5A5
:10275000AAC5A8F5ABC5A9F5CEC580F5CFC581F54D
:10276000D0C582F5D1C583F5AEC5AAF5AFC5ABF529
:10277000020EBE61BEEF13F0C0EF13F0C1EF13F015
:10278000BE2BCCC5C4F5CDC5C5F586EC20F0120036
:10279000386A000E376E32EC20F006C53DF507C5ED
:1027A0003EF508C53FF509C540F53D503E103F10C8
:1027B0004010D8A4DEEF13F0E0EF13F0F9EF13F0C0
:1027C00029502A10D8B4E7EF13F0E9EF13F0EFEF38
:1027D00013F029C5D9F42AC5DAF4DE6ADD6A000EE1
:1027E000276E000E286E000E296E000E2A6E84EFF2
:1027F00014F027C539F528C53AF539502B6E3A50F3
:102800002C6E2D6A2E6A2B503D5C2C503E582D505C
:102810003F582E504058D8B010EF14F012EF14F07B
:1028200016EF14F03DC539F53EC53AF55CEC20F0E5
:1028300006C52FF507C530F5000E336E000E346E59
:10284000000E356E000E366E3C6A000E3B6E60EF79
:1028500014F03B502F5C2B6E3C5030582C6EE70E22
:102860002B24066E030E2C20076E030E096EE80E55
:10287000086E8EEC1BF006C531F507C532F531C583
:102880001FF532C520F5410E216E050E226E76EC45
:102890001CF043504410D8A450EF14F052EF14F041
:1028A00054EF14F06BEF14F04350332644503422AD
:1028B000000E3522000E3622374A382A3B4A3C2A7F
:1028C00039503B5C3A503C58D8A069EF14F06BEF9C
:1028D00014F029EF14F029502A10D8B472EF14F034
:1028E00074EF14F07CEF14F029C5D9F42AC5DAF49A
:1028F00037C5DEF438C5DDF433C527F534C528F512
:1029000035C529F536C52AF512002F6E376A000E37
:10291000366E155009E1110E145CD8A092EF14F038
:1029200094EF14F096EF14F032EF15F0AA0E186E33
:10293000364A372A180E3624D96E050E3720DA6E3D
:10294000550EDF6E364A372A180E3624D96E050E1C
:102950003720DA6E2FC5DFF4364A372A180E3624B0
:10296000D96E050E3720DA6E1550DF6E364A372ADB
:10297000180E3624D96E050E3720DA6E14C5DFF432
:10298000364A372A336A000E326ED9EF14F03250CD
:102990001224D96E33501320DA6E180E3624E16EED
:1029A000050E3720E26EDFC4E7F4364A372A324A92
:1029B000332A1450325C15503358D8A0E2EF14F08B
:1029C000E4EF14F0C7EF14F01A0E0C6E050E0D6E46
:1029D000030E14240E6E000E15200F6E1EEC1CF05C
:1029E0000CC530F50DC531F5180E3624D96E050E1F
:1029F0003720DA6E3150DF6E364A372A180E362409
:102A0000D96E050E3720DA6E30C5DFF4364A372A24
:102A10007DEC20F0166E176A3650165C375017584A
:102A2000D8A015EF15F017EF15F032EF15F0356A55
:102A3000000E346E27EF15F0180E3424D96E050EF3
:102A40003520DA6EDF50C0EC1DF0344A352A36509E
:102A5000345C37503558D8A030EF15F032EF15F010
:102A60001CEF15F012000501B651D8A43AEF15F08D
:102A70003CEF15F087EF15F0526A000E516E9AC5C3
:102A800027F59BC528F5510E296E050E2A6EC8EC58
:102A900013F027C549F528C54AF529C54BF52AC5C0
:102AA0004CF505019A51515C9B515258D8A05BEFEF
:102AB00015F05DEF15F087EF15F006018C51456EAE
:102AC0008D51466E476A486A4550495C46504A589F
:102AD00047504B5848504C58D8A071EF15F073EF41
:102AE00015F087EF15F0010E0501B66F3BEC20F0F5
:102AF00006C568F607C569F608C56AF609C56BF626
:102B0000010E06016427000E652366236723050175
:102B1000B551D8A48EEF15F090EF15F0CAEF15F06F
:102B2000546A000E536E98C527F599C528F5530EC3
:102B3000296E050E2A6EC8EC13F027C54DF528C581
:102B40004EF529C54FF52AC550F505019851535C3E
:102B500099515458D8A0AFEF15F0B1EF15F0CAEF66
:102B600015F006019051456E9151466E476A486ACC
:102B700045504D5C46504E5847504F58485050585D
:102B8000D8A0C5EF15F0C7EF15F0CAEF15F0010E8C
:102B90000501B56F3CEC19F01200466A000E456E57
:102BA000010E386E454A462A380E4524D96E050E68
:102BB0004620DA6E010EDF6E454A462A380E45245D
:102BC000D96E050E4620DA6EDF6A454A462A380E6F
:102BD0004524D96E050E4620DA6EDF6A454A462A3C
:102BE000380E4524D96E050E4620DA6E0A0EDF6EC9
:102BF000454A462A380E4524D96E050E4620DA6E1F
:102C0000530EDF6E454A462A380E4524D96E050E0E
:102C10004620DA6E020EDF6E454A462A380E4524FB
:102C2000D96E050E4620DA6ED00EDF6E454A462A72
:102C3000380E4524D96E050E4620DA6EDF6A454A05
:102C4000462A380E4524D96E050E4620DA6E010E4E
:102C5000DF6E454A462A380E4524D96E050E4620B9
:102C6000DA6E010EDF6E454A462A380E4524D96ECB
:102C7000050E4620DA6E0B0EDF6E454A462A380EE8
:102C80004524D96E050E4620DA6EB80EDF6E454A31
:102C9000462A380E126E050E136E45C514F546C54C
:102CA00015F5890E85EC14F0120020EE01F00650A7
:102CB000D9260750DA22DF500C6E0CC50DF50E6ACE
:102CC0000F6A106A0FC510F50EC50FF50DC50EF58C
:102CD0000D6A06C5D9F407C5DAF4DF50116E11C5C7
:102CE00012F5136A146A156A13C515F512C514F5A1
:102CF000136A126A0D501210166E0E501310176ED2
:102D00000F501410186E10501510196E20EE02F0AE
:102D10000650D9260750DA22DF501A6E1A501610C4
:102D20001B6E17501C6E18501D6E19501E6E1BC561
:102D30000CF51CC50DF51DC50EF51EC50FF50F0EC6
:102D4000A7EF16F0D8900F320E320D320C32E82E6B
:102D5000A2EF16F0FF0E0C14106E030E0D14116E80
:102D600008C5D9F409C5DAF410C5DEF411C5DDF4DF
:102D7000FF0E1B140C6E3F0E1C140D6E0AC5D9F409
:102D80000BC5DAF40CC5DEF40DC5DDF41200050147
:102D9000B851D8A4CEEF16F0D0EF16F0F5EF16F03C
:102DA00060C50AF561C50BF562C50CF563C50DF587
:102DB000D6EC19F00D500C100BE1F40E0A5C010E6C
:102DC0000B58D8A0E6EF16F0E8EF16F035EF17F045
:102DD0003BEC20F006C560F507C561F508C562F556
:102DE00009C563F5C07635EF17F060C50AF561C512
:102DF0000BF562C50CF563C50DF5D6EC19F00D5059
:102E00000C100B1009E1640E0A5CD8A00AEF17F051
:102E10000CEF17F035EF17F03BEC20F006C560F52E
:102E200007C561F508C562F509C563F5C0760501FA
:102E3000B751D8B41EEF17F020EF17F021EF17F0BD
:102E4000B707B751D8A427EF17F029EF17F035EFE0
:102E500017F0C096B86B3BEC20F006C560F507C5CF
:102E600061F508C562F509C563F51200156A000E23
:102E7000146E0BC516F50CC517F582EF17F016C5C5
:102E80000FF517C510F5D89010320F32D8901032C8
:102E90000F32D89010320F320FC511F510C512F550
:102EA00016C50FF5070E0F16010E106E0F2A5BEFF9
:102EB00017F0D89010360F2E59EF17F01050136EF0
:102EC000000E1124D96E070E1220DA6EDF50131493
:102ED0000009D8B46EEF17F070EF17F072EF17F02B
:102EE000144A152A010E1624066E000E1720076ECE
:102EF000030E096EE80E086E8EEC1BF006C516F583
:102F000007C517F50D50161807E10E501718D8A46D
:102F10008CEF17F08EEF17F03FEF17F014C50BF59D
:102F200015C50CF512001FC506F520C507F5086A82
:102F3000096AE80E0A6E030E0B6E000E0C6E000E90
:102F40000D6E59EC1BF006C512F507C513F508C543
:102F500014F509C515F5530E166E0A0E176E000E00
:102F6000186E000E196EEAEC18F012C521F513C5A3
:102F700022F514C523F515C524F5245023100BE1C3
:102F8000E90E215C030E2258D8A0C9EF17F0CBEF51
:102F900017F0D3EF17F0E80E216E030E226E000E2D
:102FA000236E000E246E2150221023102410D8A46A
:102FB000DCEF17F0DEEF17F0E6EF17F0010E216EF1
:102FC000000E226E000E236E000E246E21C51FF52A
:102FD00022C520F51200040E075CD8B0F2EF17F0FE
:102FE000F4EF17F0FAEF17F006C510F507C511F565
:102FF000FDEF17F0030E116E1068400E095CD8B09B
:1030000004EF18F006EF18F00CEF18F008C512F5F1
:1030100009C513F50FEF18F03F0E136E126810502C
:103020000C6E11500D6E0E6A0F6A0E0ED8900C3693
:103030000D360E360F36E82E16EF18F012500C1023
:10304000146E13500D10156E000E0E10166E000E3D
:103050000F10176E0AC5D9F40BC5DAF416C5DFF4E4
:1030600020EE01F00A50D9260B50DA2215C5DFF404
:1030700020EE02F00A50D9260B50DA2214C5DFF4F4
:103080001200ACA046EF18F048EF18F069EF18F006
:10309000B7A04DEF18F04FEF18F069EF18F0A1C28C
:1030A00003F50501FD51FE11D8B459EF18F05BEF9F
:1030B00018F069EF18F003C502F502D869EF18F0AF
:1030C0000500FA6EFD51FD6EFE51FE6EFF6AFA506C
:1030D0001200ACA26EEF18F070EF18F095EF18F038
:1030E000B7A275EF18F077EF18F095EF18F0585079
:1030F000D8B47DEF18F07FEF18F08CEF18F0000EC9
:103100005924D96EDA6A060EDA22DF500201A36F63
:1031100059283F0B596E58065850D8A492EF18F012
:1031200094EF18F095EF18F0AC9212000501AF6B18
:10313000000EAE6FAD6B000EAC6F000E846F000E14
:10314000856F000E866F000E876FBF6BEBEC1FF074
:1031500010C5F9F511C5FAF512C5FBF513C5FCF557
:103160003BEC20F006C594F607C595F608C596F623
:1031700009C597F6156A000E146E000E1424D96E58
:10318000070E1520DA6EDF6A144A152A155009E178
:103190007D0E145CD8A0CFEF18F0D1EF18F0BDEF82
:1031A00018F0F9C580F5FAC581F5FBC582F5FCC5B7
:1031B00083F50501AB6B000EAA6FF9C57CF5FAC566
:1031C0007DF5FBC57EF5FCC57FF5A96B000EA86FEC
:1031D000BE6B1200000E1A6E000E1B6E000E1C6EEF
:1031E000000E1D6E1650171018101910D8B4FBEFF2
:1031F00018F0FDEF18F033EF19F0010E1E6E07EF17
:1032000019F0D89016361736183619361E2A19AE08
:103210000CEF19F00EEF19F001EF19F0D8901A36F3
:103220001B361C361D361650125C1750135818509A
:10323000145819501558D8A020EF19F022EF19F0A2
:103240002BEF19F01650125E1750135A1850145ADB
:103250001950155A1A80D89019321832173216326E
:103260001E2E0EEF19F01AC512F51BC513F51CC55D
:1032700014F51DC515F51200010E0A6E0501B651B3
:10328000D8A445EF19F047EF19F050EF19F0B551F8
:10329000D8A44DEF19F04FEF19F050EF19F00A6A6A
:1032A0000A50D8A456EF19F059EF19F0010E5AEF51
:1032B00019F0000E0B6EB351D8A461EF19F063EF53
:1032C00019F073EF19F00BC5B4F5010EB36F0B5085
:1032D000D8B46DEF19F06FEF19F08CEF19F0B1EC75
:1032E0001EF08CEF19F0B4510B18D8B47AEF19F026
:1032F0007CEF19F08CEF19F00B50D8B482EF19F075
:1033000084EF19F088EF19F0B1EC1EF08AEF19F094
:1033100073EC1EF00BC5B4F512000501BD6BBB6B61
:10332000A76B000EA66FA56B000EA46FA36B000E1B
:10333000A26FB96BEBEC1FF010C568F511C569F50C
:1033400012C56AF513C56BF532EC20F006C564F5BD
:1033500007C565F508C566F509C567F568C570F662
:1033600069C571F66AC572F66BC573F6000E050184
:10337000746F000E756F000E766F000E776F000E83
:10338000706F000E716F000E726F000E736F000E83
:103390006C6F000E6D6F000E6E6F000E6F6F9F6B87
:1033A000000E9E6F9D6B000E9C6F12003BEC20F098
:1033B00006C516F507C517F508C518F509C519F5A9
:1033C0000A50165C0B5017580C5018580D501958CD
:1033D000D8B0EDEF19F0EFEF19F011EF1AF00A1C69
:1033E0000E6E0B1C0F6E0C1C106E0D1C116E165009
:1033F0000E24126E17500F20136E18501020146EEA
:1034000019501120156E010E12240A6E000E1320A1
:103410000B6E000E14200C6E000E15200D6E1DEFAD
:103420001AF00A50165C0A6E0B5017580B6E0C50AF
:1034300018580C6E0D5019580D6E120006C509F57E
:1034400007C50AF5D8900A320932D8900A320932F3
:10345000D8900A32093209C50CF50AC50DF506C522
:1034600009F5070E0916010E0A6E092A3AEF1AF03D
:10347000D8900A36092E38EF1AF00A500B6E085011
:10348000D8B445EF1AF047EF1AF051EF1AF0000EDA
:103490000C24D96E070E0D20DA6E0B50DF1263EF8D
:1034A0001AF0000E0C24D96E070E0D20DA6E000EF5
:1034B0000C24E16E070E0D20E26EE750096E0B50F2
:1034C000FF0A0914DF6E1200740E1A6E060E1B6ED0
:1034D000C0EC1BF09AEF1AF0740E0C6E060E0D6E17
:1034E00055C50EF56AEC0EF00009D8B47AEF1AF063
:1034F0007CEF1AF09AEF1AF0010E0501C26F3BEC57
:1035000020F006C590F507C591F508C592F509C5E7
:1035100093F5BCEC1FF00009D8A491EF1AF093EFDB
:103520001AF09AEF1AF0740E0501C66F060EC76FF7
:10353000F2EC11F0550E066E050E076E11EC1DF043
:103540000009D8A4A6EF1AF0A8EF1AF06CEF1AF051
:103550001200C20EF66E400EF76E000EF86E01EE0F
:103560008CF210EE08F00900F5C4EEF4E550E150DD
:10357000FAE101EE7DF312EEB8F3EE6AE550E150A8
:10358000FCE1E250FAE101EE00F37D0EEE6AE8069E
:10359000FDE101EE00F28C0EEE6AE806FDE101EEBF
:1035A00060F1640EEE6AE806FDE15A6A596A586AEB
:1035B000576A566A0401080E5D6F000E5E6F000EBA
:1035C0005F6F000EF86E000162EF10F003011E9FA6
:1035D000AB96B6961A9F9E0E1B6F050E196F186B51
:1035E000B69EAB8E800E1A6FC8EC1FF0D69EF29E70
:1035F000000178910300000000017881E0EC1FF0E9
:103600000009D8B406EF1BF008EF1BF008EF1BF021
:1036100057EC20F0B6AE0FEF1BF011EF1BF01BEFD5
:103620001BF0530E066E0A0E076E000E086E000E9B
:10363000096E1FEC20F003011A9FAB9EB69ED68E3A
:10364000A2EC1FF012000501B151D8A42AEF1BF023
:103650002CEF1BF02EEF1BF058EF1BF060C60AF5A5
:1036600061C60BF562C60CF563C60DF5D6EC19F014
:103670000D500C100BE1100E0A5C270E0B58D8A051
:1036800044EF1BF046EF1BF058EF1BF07AEC20F0F4
:103690000501B16BB051D8A450EF1BF052EF1BF0F5
:1036A00056EF1BF0020EB26F58EF1BF0010EB26F17
:1036B0001200000E0E6E000E0F6E000E106E000E49
:1036C000116E06A066EF1BF068EF1BF070EF1BF0A9
:1036D0000A500E260B500F220C5010220D501122B2
:1036E000D8900A360B360C360D36D890093208328F
:1036F000073206320650071008100910D8A483EFCD
:103700001BF085EF1BF061EF1BF00EC506F50FC532
:1037100007F510C508F511C509F512000850091084
:10372000D8B495EF1BF097EF1BF0BBEF1BF0010E29
:103730000A6E9FEF1BF0D890083609360A2A09AEA8
:10374000A4EF1BF0A6EF1BF09BEF1BF00850065CEC
:1037500009500758D8A0AFEF1BF0B1EF1BF0B5EF41
:103760001BF00850065E0950075AD89009320832FB
:103770000A2EA6EF1BF006C506F507C507F51200D1
:103780001AC5D9F41BC5DAF4DF50D8B4CAEF1BF060
:10379000CCEF1BF0F0EF1BF020EE12F01A50D92600
:1037A0001B50DA22DEC40AF5DEC40BF5DEC40CF5CC
:1037B000DEC40DF5D6EC19F00D500C100BE1E80E3F
:1037C0000A5C030E0B58D8A0E8EF1BF0EAEF1BF0E1
:1037D000F0EF1BF01AC506F51BC507F5F1EC1BF061
:1037E000120006C5D9F407C5DAF4DF6A20EE01F04D
:1037F0000650D9260750DA22DF6A20EE02F0065082
:10380000D9260750DA22DE6ADD6A20EE04F006507F
:10381000D9260750DA22DE6ADD6A20EE0EF0065065
:10382000D9260750DA22DE6ADD6A20EE10F0065053
:10383000D9260750DA22DE6ADD6A120080EC20F019
:1038400006C510F507C511F538EF1CF010C506F5D3
:1038500011C507F50CC5D9F40DC5DAF4DF50086EB3
:103860004AEC1CF006C510F507C511F50C4A0D2AE7
:103870000E06D8A00F060E2806E10F28D8A443EFA5
:103880001CF045EF1CF026EF1CF010C50CF511C51F
:103890000DF512000850061A0B6A06A052EF1CF034
:1038A00054EF1CF061EF1CF0D89007300A6E063020
:1038B000096E010E0918066EA00E0A18076E68EF51
:1038C0001CF0D8900730096E0630066E09C507F562
:1038D0000B2A070E0B646FEF1CF071EF1CF04DEF1D
:1038E0001CF006C506F507C507F512001FC506F54D
:1038F00020C507F5030E096EE80E086E8EEC1BF06E
:1039000006C525F507C526F5030E2502F3C423F5E4
:10391000F4C424F52602F35024267D0E2324066EDB
:10392000070E2420076E21C508F522C509F5020EF1
:1039300021240A6E000E22200B6E55EC16F01200A8
:1039400029EC20F006C540F507C541F508C542F54C
:1039500009C543F501EC20F0386E0BEC20F0396E10
:1039600071EC20F03A6E08EC1EF03B6E43C53CF55E
:1039700042C53DF541C53EF540C53FF5380E126ED6
:10398000050E136E156A080E146E840E85EC14F085
:1039900012000501B651D8B4D0EF1CF0D2EF1CF0E4
:1039A000EFEF1CF068C60AF569C60BF56AC60CF5A0
:1039B0006BC60DF5D6EC19F00D500DE1C00E0A5C8A
:1039C000270E0B58090E0C58D8A0E9EF1CF0EBEFAE
:1039D0001CF0EFEF1CF00501B66B3CEC19F0120087
:1039E000400E066E050E076E34EC1EF04150386E28
:1039F00040C539F543503A6E42C53BF545503C6EE3
:103A000044C53DF547503E6E46C53FF5380E126E33
:103A1000050E136E156A080E146E820E85EC14F0F6
:103A20001200086AD69E0501C051D8B41AEF1DF0E5
:103A30001CEF1DF02EEF1DF0400E5624D96EDA6AF1
:103A4000060EDA2206C5E1F407C5E2F4DFC4E7F4A6
:103A500056281F0B566EC007010E086ED68E0850F2
:103A600012000A6A0501FF51D8B439EF1DF03BEF8F
:103A70001DF04EEF1DF03BEC20F009500BE1C00EA5
:103A8000065C270E0758090E0858D8B04AEF1DF0FB
:103A90004CEF1DF04EEF1DF0010E0A6E0A501200A1
:103AA00004011091C890100E0201116F04011093CF
:103AB000C8821183110E0201726FAB8FA00EAE6F20
:103AC000010EAF6FF00EAB17AB8BAB89AC8F586AA2
:103AD000596A5A6AAC80AC9212000501C451C511F2
:103AE000D8A475EF1DF077EF1DF079EF1DF088EF8A
:103AF0001DF0C4C5D9F4C5C5DAF411EE8CF2070E79
:103B0000DBC4E3F4E806FCE288EC1EF033EC15F0CD
:103B10001200020E0501BE6190EF1DF092EF1DF044
:103B20009CEF1DF080C506F581C507F582C508F537
:103B300083C509F5A4EF1DF07CC506F57DC507F525
:103B40007EC508F57FC509F51200F6EC1FF006C525
:103B50000EF507C50FF5060198510E5C0C6E9951D4
:103B60000F580D6E0EC598F60FC599F60C5005014D
:103B700088270D508923000E8A23000E8B23120004
:103B8000066E3F0E5864C7EF1DF0C9EF1DF0CBEF76
:103B90001DF0D9EF1DF0AC92000E5A24D96EDA6AEE
:103BA000060EDA2206C5DFF45A283F0B5A6E582A51
:103BB000AC8212000A6AE7EF1DF00A500724D96EA2
:103BC000000E0820DA6EDF50C0EC1DF00A2A095002
:103BD0000A5CD8A0EEEF1DF0F0EF1DF0DDEF1DF058
:103BE0001200016E200E0501C061F9EF1DF0FBEF20
:103BF0001DF007EF1EF0400E5724D96EDA6A060E4C
:103C0000DA2201C5DFF457281F0B576EC02B1200B4
:103C1000066A0501B651D8B410EF1EF012EF1EF07F
:103C200013EF1EF00680B551D8B419EF1EF01BEF4C
:103C30001EF01CEF1EF00682065012000C6E0CA047
:103C400024EF1EF026EF1EF028EF1EF00501B66BE4
:103C50000CA22DEF1EF02FEF1EF031EF1EF005012C
:103C6000B56B3CEC19F0120006500710D8B43BEFCE
:103C70001EF03DEF1EF048EF1EF021EE8CF206C55F
:103C8000E1F407C5E2F4070EDBC4E3F4E806FCE266
:103C90001200066A5850D8A450EF1EF052EF1EF0E2
:103CA0005CEF1EF00201B2AF58EF1EF05AEF1EF0AB
:103CB0005CEF1EF0010E066E065012000401109714
:103CC000C8960099C698009BC69A0095C694109510
:103CD000C8941099C088C898C096BE98BE9ABE94E1
:103CE000C094C0881200C084BE84010E0501B16F6B
:103CF000010EB06F3BEC20F006C560F607C561F61B
:103D000008C562F609C563F6030E0501B26F12001D
:103D10008EC61FF58FC620F593EC17F01FC59AF5D8
:103D200020C59BF592C61FF593C620F593EC17F0BE
:103D30001FC598F520C599F51200020E0501BE6158
:103D4000A4EF1EF0A6EF1EF0ACEF1EF0AAC506F51C
:103D5000ABC507F5B0EF1EF0A8C506F5A9C507F578
:103D60001200C084BE94010E0501B16FB06B3BEC34
:103D700020F006C560F607C561F608C562F609C5FC
:103D800063F6040E0501B26F1200C0983BEC20F000
:103D900006C594F507C595F508C596F509C597F5C7
:103DA0000501C26BC16B010EC36F6AEC1FF01200FC
:103DB00088EC1EF00501B66BB56B000E0601646F52
:103DC000000E656F000E666F000E676F0501B46B25
:103DD000B36B1200ABA6EFEF1EF0F1EF1EF0FBEF9E
:103DE0001EF0B6A6F6EF1EF0F8EF1EF0FBEF1EF089
:103DF000B69644EC20F01200010E0501B86FC086A3
:103E0000050EB76F3BEC20F006C560F507C561F500
:103E100008C562F509C563F512007AEC20F00501CA
:103E2000B16B000E0601606F000E616F000E626FD5
:103E3000000E636F0501B26B12000501B86B3BEC1D
:103E400020F006C560F507C561F508C562F509C52E
:103E500063F50501B76BC0961200F6EC1FF006C5BE
:103E600098F607C599F6000E0501886F000E896F58
:103E7000000E8A6F000E8B6F12000401109BC88A1F
:103E8000150E0201426F03011491156B176B060E9C
:103E9000146F136B126B12000501BC51D8B453EFB1
:103EA0001FF055EF1FF059EF1FF0BC6B010E5AEFDA
:103EB0001FF0000E12000501BF51D8B462EF1FF0D1
:103EC00064EF1FF068EF1FF0BF6B010E69EF1FF08A
:103ED000000E12000501B86BC0863BEC20F006C551
:103EE00060F507C561F508C562F509C563F51200FF
:103EF000386E38C539F5390E126E050E136E156A17
:103F0000010E146E880E85EC14F01200386E38C560
:103F100039F5390E126E050E136E156A010E146E08
:103F20008F0E85EC14F01200386E38C539F5390E55
:103F3000126E050E136E156A010E146E8E0E85EC50
:103F400014F0120003011E9F010E206F1F6BF90E6B
:103F50001D6FE00E1E6FB696AB861E8F1200FAC460
:103F600004F5FBC405F541EC18F0EAEC1EF005C5BC
:103F7000FBF404C5FAF411000501BB51D8A4C3EF4A
:103F80001FF0C6EF1FF0010EC7EF1FF0000E12006A
:103F90000201B0A7CEEF1FF0D0EF1FF0C8EF1FF067
:103FA000B19FAC86AC8912000501BE51D8A4DBEFED
:103FB0001FF0DEEF1FF0010EDFEF1FF0000E12000A
:103FC0000201B1BFE6EF1FF0E9EF1FF0010EEAEFCB
:103FD0001FF0000E1200A5EC1DF088C510F589C574
:103FE00011F58AC512F58BC513F5120012C30AF537
:103FF00013C30BF50B50086E0A50066E08C507F583
:104000001200C0B406EF20F009EF20F0010E0AEF15
:1040100020F0000E1200BEB410EF20F013EF20F0DD
:10402000010E14EF20F0000E1200000E05018C6F3F
:10403000000E8D6F000E8E6F000E8F6F12000650F7
:1040400005018C2707508D2308508E2309508F239C
:10405000120064C606F565C607F566C608F567C6AC
:1040600009F5120084C506F585C507F586C508F56E
:1040700087C509F512008CC506F58DC507F58EC5F7
:1040800008F58FC509F51200010E05018C27000EF9
:104090008D238E238F231200000E15EC20F0A2EC4E
:1040A0001FF0120006C5FDF507C5FEF5120002015E
:1040B000AC99B19FAC961200AEC506F5AFC507F539
:1040C000120064002C01B004B400C0880501C36B69
:1040D0001200010E0501B96F12000250F1EC1DF043
:1040E00012000501B25112000301148112000501F2
:1040F000B1511200C094BE941200585040081200F2
:104100000668076812000501BC6B120033EC15F05D
:044110001200120087
:020000040030CA
:010000008C73
:04000200F7FFACFF59
:00000001FF
