:040000000DEF00F010
:0400080028EF1BF0D2
:06001800FF003FEF16F0AF
:10160000000060EF0BF0C6EC1AF00009D8A40BEF55
:101610000BF00DEF0BF016EF0BF00501BC51D8B439
:1016200014EF0BF016EF0BF011EF0DF00501BC6B92
:10163000010EBF6FA8EC1BF009C594F50AC595F51E
:101640000BC596F50CC597F5010E0501BD6F94C548
:1016500090F595C591F596C592F597C593F5020E4F
:10166000C06F11EF0DF0BE51D8B439EF0BF03BEF66
:101670000BF03FEF0BF0BD6BC06B11EF0DF094C59D
:101680000DF595C50EF596C50FF597C510F575ECDA
:1016900015F010500F100BE1B80E0D5C0B0E0E582C
:1016A000D8A055EF0BF057EF0BF011EF0DF005013F
:1016B000BD6BBB6BC06B11EF0DF0C06B11EF0DF08C
:1016C0000501C0512A6E2B6A2B50000AD8B46BEF6B
:1016D0000BF05DEF0BF02A50000AD8B403EF0BF0CB
:1016E000010AD8B42FEF0BF0030AD8B433EF0BF094
:1016F0005DEF0BF0BB51D8B480EF0BF082EF0BF035
:1017000033EF0DF0BD51D8B488EF0BF08AEF0BF03A
:1017100094EF0BF090C50DF591C50EF592C50FF540
:1017200093C510F575EC15F00501BD6BBB6BD2ECE4
:101730001BF009C5AAF50AC5ABF50501A96B000E9A
:10174000A86F56EC1AF0010E0501BE6F33EF0DF0D5
:10175000AC51AA5D2A6EAD51AB592B6EE80E2A240E
:10176000096E030E2B200A6E030E0C6EE80E0B6E34
:1017700019EC17F009C52CF50AC52DF52E6A2F6A4C
:10178000030E2C02F3C42AF5F4C42BF52D02F350FA
:101790002B26040E2A243E6E000E2B203F6EAA0E2E
:1017A000396E550E3A6E810E3B6E3F503C6E3EC513
:1017B0003DF5EFEC1BF02A6E050E2A60E2EF0BF010
:1017C000E4EF0BF0E6EF0BF033EF0DF0F2EC1BF073
:1017D00009C550F50AC551F550C509F551C50AF5B9
:1017E0003BC50BF5D5EC17F009C550F50AC551F509
:1017F00050C509F551C50AF53CC50BF5D5EC17F0F8
:1018000009C550F50AC551F550C509F551C50AF588
:101810003DC50BF5D5EC17F009C550F50AC551F5D6
:10182000390E0A6E050E0B6E050E0C6E57EC19F094
:10183000020E0501BE6F33EF0DF0AC51AA5D2A6EAA
:10184000AD51AB592B6EE80E2A24096E030E2B20E6
:101850000A6E030E0C6EE80E0B6E19EC17F009C53C
:1018600046F50AC547F5486A496A49C535F548C588
:1018700036F547C537F546C538F5EFEC1BF02A6E4F
:10188000040E2A6046EF0CF048EF0CF04AEF0CF023
:1018900033EF0DF0446A50C509F551C50AF5350E10
:1018A0004424D96EDA6A050EDA22DF500B6ED5ECCD
:1018B00017F009C550F50AC551F5442A030E4464D2
:1018C00064EF0CF066EF0CF04BEF0CF0350E0A6E87
:1018D000050E0B6E040E0C6E57EC19F046504710B7
:1018E00048104910D8B477EF0CF079EF0CF07EEF88
:1018F0000CF0030E0501BE6F33EF0DF0040E050171
:10190000BE6F33EF0DF0AA51AC1907E1AB51AD1921
:10191000D8A48DEF0CF08FEF0CF091EF0CF07EEF70
:101920000CF0ACC522F5ADC523F5400E246E050EB6
:10193000256E01EC18F0A8C509F5A9C50AF542C540
:101940000BF543C50CF5320E0D6E050E0E6E27EC31
:1019500014F0EFEC1BF02A6E030E2A60B2EF0CF0CD
:10196000B4EF0CF0B6EF0CF033EF0DF0456A020E59
:101970004564BDEF0CF0BFEF0CF0C1EF0CF0D6EFFB
:101980000CF050C509F551C50AF5320E4524D96E43
:10199000DA6A050EDA22DF500B6ED5EC17F009C5B6
:1019A00050F50AC551F5452AB7EF0CF0320E0A6E14
:1019B000050E0B6E030E0C6E57EC19F0010E0501AF
:1019C000AC25096E000EAD210A6E030E0C6EE80EFA
:1019D0000B6E19EC17F009C5ACF50AC5ADF505019C
:1019E000A84BA92B33EF0DF05150306E50C531F597
:1019F000EFEC1BF02A6E020E2A6001EF0DF003EFF0
:101A00000DF005EF0DF033EF0DF0300E0A6E050E00
:101A10000B6E020E0C6E57EC19F00501BE6B33EF26
:101A20000DF00501BE512A6E2B6A2B50000AD8B466
:101A30001CEF0DF00DEF0DF02A50000AD8B47AEF2C
:101A40000BF0010AD8B4A8EF0BF0030AD8B41DEFCD
:101A50000CF0010AD8B483EF0CF0070AD8B4F4EF05
:101A60000CF00DEF0DF01200A8EC1BF020EE12F0C0
:101A70000F50D9261050DA2209C5DEF40AC5DEF46B
:101A80000BC5DEF40CC5DEF4F9EF0EF0AA0E11184A
:101A9000D8A44DEF0DF04FEF0DF02AEF0FF020EE30
:101AA00016F00F50D9261050DA22DF6A20EE17F018
:101AB0000F50D9261050DA22DF6A0FC5D9F410C5AD
:101AC000DAF4010EDF6E2AEF0FF0550E1118D8A4CC
:101AD0006CEF0DF06EEF0DF076EF0DF00FC5D9F451
:101AE00010C5DAF4020EDF6E2AEF0FF0AA0E1118FD
:101AF000D8A47DEF0DF07FEF0DF087EF0DF00FC54F
:101B0000D9F410C5DAF4010EDF6E2AEF0FF00FC51D
:101B1000D9F410C5DAF4DF6A2AEF0FF020EE01F0F5
:101B20000F50D9261050DA2211C5DFF4F2EC1BF069
:101B300020EE0EF00F50D9261050DA2209C5DEF43F
:101B40000AC5DDF420EE0EF00F50D9261050DA222F
:101B5000DEC409F5DDC40AF511C50BF5D5EC17F0A7
:101B600020EE0EF00F50D9261050DA2209C5DEF40F
:101B70000AC5DDF40FC5D9F410C5DAF4030EDF6E23
:101B80002AEF0FF01150136E126A20EE02F00F5080
:101B9000D9261050DA2212C5DEF413C5DDF420EE8A
:101BA0000EF00F50D9261050DA22DEC409F5DDC43C
:101BB0000AF511C50BF5D5EC17F020EE0EF00F501D
:101BC000D9261050DA2209C5DEF40AC5DDF40FC5A6
:101BD000D9F410C5DAF4040EDF6E2AEF0FF020EE10
:101BE00002F00F50D9261050DA221150DE12000EEA
:101BF000DD1220EE0EF00F50D9261050DA22DEC48E
:101C000009F5DDC40AF511C50BF5D5EC17F020EE8A
:101C10000EF00F50D9261050DA2209C5DEF40AC59D
:101C2000DDF420EE04F00F50D9261050DA22DE6ADF
:101C3000DD6A20EE02F00F50D9261050DA22010E94
:101C4000DB5009E1090EDE5CD8A029EF0EF02BEF86
:101C50000EF03BEF0EF020EE16F00F50D92610508C
:101C6000DA22010EDF6E0FC509F510C50AF57CEC0E
:101C700017F02AEF0FF020EE02F00F50D926105087
:101C8000DA22DE50DE10D8B448EF0EF04AEF0EF044
:101C90004EEF0EF0050E166E50EF0EF0060E166E9D
:101CA0000FC5D9F410C5DAF416C5DFF42AEF0FF02A
:101CB00020EE04F00F50D9261050DA22DEC412F5BF
:101CC000DDC413F512500F24146E13501020156E3E
:101CD000060E1424D96E000E1520DA6E11C5DFF43D
:101CE00020EE04F00F50D9261050DA22DE2A000E22
:101CF000DD2220EE0EF00F50D9261050DA22DEC47D
:101D000009F5DDC40AF511C50BF5D5EC17F020EE89
:101D10000EF00F50D9261050DA2209C5DEF40AC59C
:101D2000DDF420EE02F00F50D9261050DA2210EE2A
:101D300004F00F50E1261050E222DE50E65CDE5047
:101D4000E658D8A0A6EF0EF0A8EF0EF02AEF0FF09D
:101D50000FC5D9F410C5DAF4060EDF6E2AEF0FF0C6
:101D60001150136E126A20EE10F00F50D926105049
:101D7000DA2212C5DEF413C5DDF40FC5D9F410C59F
:101D8000DAF4070EDF6E2AEF0FF020EE10F00F509E
:101D9000D9261050DA221150DE12000EDD120FC5C6
:101DA000D9F410C5DAF4DF6A20EE0EF00F50D92610
:101DB0001050DA2210EE10F00F50E1261050E222FF
:101DC000DE50E61807E1DE50E618D8A4EAEF0EF080
:101DD000ECEF0EF0EFEF0EF0010E2BEF0FF020EE18
:101DE00017F00F50D9261050DA22010EDF6E2AEFBD
:101DF0000FF00FC5D9F410C5DAF4DF50126E136A74
:101E00001350000AD8B407EF0FF033EF0EF0125062
:101E1000000AD8B446EF0DF0010AD8B465EF0DF012
:101E2000030AD8B48EEF0DF0010AD8B4C2EF0DF05A
:101E3000070AD8B4EFEF0DF0010AD8B458EF0EF04E
:101E4000030AD8B4B0EF0EF0010AD8B4C5EF0EF013
:101E500033EF0EF0000E1200D4EF0FF0DBEC1BF0AE
:101E6000F5EF0FF0C5EC18F0F5EF0FF020EE02F0F3
:101E70004350D9264450DA22080EDE18DE10D8A4CA
:101E800044EF0FF046EF0FF0A1EF0FF020EE07F058
:101E90004350D9264450DA22DF50456E20EE06F03A
:101EA0004350D9264450DA22DF50466E4550486EE2
:101EB00046C549F520EE09F04350D9264450DA22B0
:101EC000DF50456E20EE08F04350D9264450DA2208
:101ED000DF50466E45504A6E46C54BF520EE0BF07E
:101EE0004350D9264450DA22DF50456E20EE0AF0E6
:101EF0004350D9264450DA22DF50466E45504C6E8E
:101F000046C54DF520EE0DF04350D9264450DA2257
:101F1000DF50456E20EE0CF04350D9264450DA22B3
:101F2000DF50466E45504E6E46C54FF5480E096E61
:101F3000050E0A6EF8EC1BF0030EE3EC1AF0F5EF59
:101F40000FF0020ED5EC1AF0F5EF0FF02BEC18F0B5
:101F5000F5EF0FF020EE02F04350D9264450DA227C
:101F6000DE04DE10D8A4B7EF0FF0B9EF0FF0C7EF23
:101F70000FF020EE06F04350D9264450DA22DF500D
:101F8000B2EC19F0050EE3EC1AF0F5EF0FF0020ECB
:101F9000D5EC1AF0F5EF0FF0FF00F5EF0FF0030EA0
:101FA000D5EC1AF0F5EF0FF020EE01F04350D926F2
:101FB0004450DA22DF50010AD8B42EEF0FF0030AA2
:101FC000D8B432EF0FF0010AD8B436EF0FF0070A99
:101FD000D8B4A6EF0FF0010AD8B4AAEF0FF0030AA5
:101FE000D8B4CCEF0FF0CFEF0FF012002A6E326AA8
:101FF000000E316E185009E1090E175CD8A003EFEE
:1020000010F005EF10F007EF10F0A3EF10F0AA0E9C
:102010001B6E314A322A1B0E3124D96E050E322036
:10202000DA6E550EDF6E314A322A1B0E3124D96E1C
:10203000050E3220DA6E2AC5DFF4314A322A1B0E31
:102040003124D96E050E3220DA6E1850DF6E314A17
:10205000322A1B0E3124D96E050E3220DA6E17C5D6
:10206000DFF4314A322A2E6A000E2D6E4AEF10F04C
:102070002D501524D96E2E501620DA6E1B0E3124E9
:10208000E16E050E3220E26EDFC4E7F4314A322AF7
:102090002D4A2E2A17502D5C18502E58D8A053EFD9
:1020A00010F055EF10F038EF10F01D0E0F6E050E0A
:1020B000106E030E1724116E000E1820126EA9EC7C
:1020C00017F00FC52BF510C52CF51B0E3124D96E5A
:1020D000050E3220DA6E2C50DF6E314A322A1B0E8A
:1020E0003124D96E050E3220DA6E2BC5DFF4314A69
:1020F000322AEFEC1BF0196E1A6A3150195C32501B
:102100001A58D8A086EF10F088EF10F0A3EF10F067
:10211000306A000E2F6E98EF10F01B0E2F24D96E30
:10212000050E3020DA6EDF5023EC19F02F4A302AEA
:1021300031502F5C32503058D8A0A1EF10F0A3EFEF
:1021400010F08DEF10F01200F0A8A9EF10F0ACEF36
:1021500010F0010EADEF10F0000E0601496FF068AF
:102160001CEC1AF006EC19F0CE0E096E340E0A6E55
:10217000C8EC1BF0C2EC1BF0A8EC1AF0E6EC1BF06C
:1021800088EC1AF0A0EC18F06EEC19F078EC1AF06C
:10219000C30E096E050E0A6E7CEC17F098EC1AF06F
:1021A00006014951D8B4D7EF10F0DAEF10F0010E64
:1021B000DBEF10F0000EFFEC1AF006014951D8A435
:1021C000E4EF10F0E6EF10F0E8EF10F0F2EC19F0A9
:1021D000D68CD68EA8EC1BF0000178810400F9ECB7
:1021E0001BF060EC13F0AEEC16F07AEC18F04CEC4F
:1021F00011F001EC0BF0B7EC1AF00009D8B403EFC2
:1022000011F005EF11F007EF11F0F1EC1AF077EC97
:1022100016F0BDEC15F05750D8A411EF11F013EFE4
:1022200011F0EEEF10F054EC18F00009D8A41BEFF9
:1022300011F01DEF11F0EEEF10F0DDEC19F00009D8
:10224000D8B425EF11F027EF11F0EEEF10F0E9EC24
:102250001BF00009D8A42FEF11F031EF11F0EEEFD1
:1022600010F0C096C088FEEC15F00601486F0DEC2A
:102270001BF0A8EC1BF006014805D8A442EF11F0B2
:1022800044EF11F0EEEF10F0F1EC1AF0DFEC1BF080
:10229000EEEF10F00DEF00F0E3C50DF5E4C50EF51F
:1022A000E5C50FF5E6C510F575EC15F010500F10EB
:1022B00009E1E80E0D5C030E0E58D8B062EF11F084
:1022C00064EF11F066EF11F0E4EF11F0A8EC1BF0F1
:1022D00009C5E3F50AC5E4F50BC5E5F50CC5E6F55A
:1022E00058EC1BF013C542F614C543F615C544F669
:1022F00016C545F60501DF510601425D466F050131
:10230000E05106014359476F42C6DFF543C6E0F589
:1023100044C6E1F545C6E2F5010E05019827000E19
:1023200099239A239B23B0C509F5B1C50AF5030E7D
:102330000C6EE80E0B6E19EC17F009C540F60AC5D5
:1023400041F6AEC509F5AFC50AF546C60BF547C659
:102350000CF5030E06014003F3C44CF5F4C44DF52F
:102360004103F3504D264A0E4C240D6E060E4D20AF
:102370000E6E27EC14F00501AE4BAF2BD00EAE5D08
:10238000020EAF59D8A0C7EF11F0C9EF11F0CEEF90
:1023900011F0AF6B000EAE6F010EC16F010EB025D4
:1023A000096E000EB1210A6E030E0C6EE80E0B6E64
:1023B00019EC17F009C5B0F50AC5B1F546C64AF5DE
:1023C00047C64BF5F5EC1BF012009FEC1BF009C55E
:1023D0003EF50AC53FF50BC540F50CC541F53E502D
:1023E0003F1040104110D8A4F8EF11F0FAEF11F0AF
:1023F00004EF12F0000E2A6E000E2B6E000E2C6EF3
:10240000000E2D6E7CEF12F02AC53AF52BC53BF578
:102410003A502E6E3B502F6E306A316A2E503E5C21
:102420002F503F583050405831504158D8B01BEFD2
:1024300012F01DEF12F021EF12F03EC53AF53FC544
:102440003BF5D2EC1BF009C532F50AC533F5000E99
:10245000366E000E376E000E386E000E396E3D6A15
:10246000000E3C6E69EF12F03C50325C2E6E3D5017
:1024700033582F6EE70E2E24096E030E2F200A6E9E
:10248000030E0C6EE80E0B6E19EC17F009C534F54F
:102490000AC535F534C522F535C523F5420E246E3F
:1024A000050E256E01EC18F044504510D8A45BEFE2
:1024B00012F05DEF12F05FEF12F074EF12F0445083
:1024C000362645503722000E3822000E39223C4A6B
:1024D0003D2A3A503C5C3B503D58D8A072EF12F078
:1024E00074EF12F034EF12F036C52AF537C52BF52C
:1024F00038C52CF539C52DF5120020EE01F0095034
:10250000D9260A50DA22DF500F6E0FC510F5116A76
:10251000126A136A12C513F511C512F510C511F52B
:10252000106A09C5D9F40AC5DAF4DF50146E14C56F
:1025300015F5166A176A186A16C518F515C517F540
:10254000166A156A10501510196E115016101A6E71
:10255000125017101B6E135018101C6E20EE02F054
:102560000950D9260A50DA22DF501D6E1D5019106D
:102570001E6E1A501F6E1B50206E1C50216E1EC501
:102580000FF51FC510F520C511F521C512F50F0E69
:10259000CFEF12F0D8901232113210320F32E82EF3
:1025A000CAEF12F0FF0E0F14136E030E1014146E08
:1025B0000BC5D9F40CC5DAF413C5DEF414C5DDF48B
:1025C000FF0E1E140F6E3F0E1F14106E0DC5D9F4B2
:1025D0000EC5DAF40FC5DEF410C5DDF412000501F6
:1025E000B851D8A4F6EF12F0F8EF12F02FEF13F075
:1025F000E9C52AF5EAC52BF5E5EC11F02AC5F7F592
:102600002BC5F8F52CC5F9F52DC5FAF50501EF51E7
:10261000466EF051476E486A496A4650F75D47502A
:10262000F8594850F9594950FA59D8A01AEF13F0FF
:102630001CEF13F02FEF13F0010EB86FA8EC1BF096
:1026400009C588F50AC589F50BC58AF50CC58BF552
:10265000010E05018427000E852386238723B751A9
:10266000D8A435EF13F037EF13F05DEF13F0E7C5A3
:102670002AF5E8C52BF5E5EC11F02AC5FBF52BC5CD
:10268000FCF52CC5FDF52DC5FEF50501F351466E93
:10269000F451476E486A496A4650FB5D4750FC5901
:1026A0004850FD594950FE59D8A059EF13F05BEF3F
:1026B00013F05DEF13F0010EB76F24EC15F012006C
:1026C0000501BA51D8A467EF13F069EF13F08EEF4C
:1026D00013F0DBC50DF5DCC50EF5DDC50FF5DEC568
:1026E00010F575EC15F010500F100BE1F40E0D5CA9
:1026F000010E0E58D8A07FEF13F081EF13F0CEEF4C
:1027000013F0A8EC1BF009C5DBF50AC5DCF50BC519
:10271000DDF50CC5DEF5C076CEEF13F0DBC50DF5AB
:10272000DCC50EF5DDC50FF5DEC510F575EC15F051
:1027300010500F100E1009E1640E0D5CD8A0A3EF2D
:1027400013F0A5EF13F0CEEF13F0A8EC1BF009C5C2
:10275000DBF50AC5DCF50BC5DDF50CC5DEF5C0768D
:102760000501B951D8B4B7EF13F0B9EF13F0BAEFD0
:1027700013F0B907B951D8A4C0EF13F0C2EF13F0AA
:10278000CEEF13F0C096BA6BA8EC1BF009C5DBF5D1
:102790000AC5DCF50BC5DDF50CC5DEF5120022C55A
:1027A00009F523C50AF50B6A0C6AE80E0D6E030ED7
:1027B0000E6E000E0F6E000E106EE4EC16F009C5E2
:1027C00015F50AC516F50BC517F50CC518F5E80E75
:1027D000196E030E1A6E000E1B6E000E1C6ED2ECEC
:1027E00014F015C524F516C525F517C526F518C529
:1027F00027F5275026100BE1E90E245C030E25581F
:10280000D8A005EF14F007EF14F00FEF14F0E80E66
:10281000246E030E256E000E266E000E276E2450C9
:10282000251026102710D8A418EF14F01AEF14F072
:1028300022EF14F0010E246E000E256E000E266E9F
:10284000000E276E24C522F525C523F51200040EBF
:102850000A5CD8B02EEF14F030EF14F036EF14F01D
:1028600009C513F50AC514F539EF14F0030E146EFB
:102870001368400E0C5CD8B040EF14F042EF14F037
:1028800048EF14F00BC515F50CC516F54BEF14F019
:102890003F0E166E156813500F6E1450106E116AAD
:1028A000126A0E0ED8900F36103611361236E82EF8
:1028B00052EF14F015500F10176E16501010186EBE
:1028C000000E1110196E000E12101A6E0DC5D9F4FB
:1028D0000EC5DAF419C5DFF420EE01F00D50D9264B
:1028E0000E50DA2218C5DFF420EE02F00D50D92682
:1028F0000E50DA2217C5DFF41200ACA082EF14F0FC
:1029000084EF14F0A5EF14F0B7A089EF14F08BEF6B
:1029100014F0A5EF14F0A1C206F50501ED51EE117A
:10292000D8B495EF14F097EF14F0A5EF14F006C5A6
:1029300005F502D8A5EF14F00500FA6EED51FD6E15
:10294000EE51FE6EFF6AFA501200ACA2AAEF14F02C
:10295000ACEF14F0D1EF14F0B7A2B1EF14F0B3EF75
:1029600014F0D1EF14F05450D8B4B9EF14F0BBEF19
:1029700014F0C8EF14F0000E5524D96EDA6A060E72
:10298000DA22DF500201A36F55283F0B556E540623
:102990005450D8A4CEEF14F0D0EF14F0D1EF14F0CF
:1029A000AC921200000E1D6E000E1E6E000E1F6E09
:1029B000000E206E19501A101B101C10D8B4E3EF33
:1029C00014F0E5EF14F01BEF15F0010E216EEFEFA0
:1029D00014F0D89019361A361B361C36212A1CAE34
:1029E000F4EF14F0F6EF14F0E9EF14F0D8901D3680
:1029F0001E361F3620361950155C1A5016581B50BB
:102A000017581C501858D8A008EF15F00AEF15F009
:102A100013EF15F01950155E1A50165A1B50175A1D
:102A20001C50185A1D80D8901C321B321A32193291
:102A3000212EF6EF14F01DC515F51EC516F51FC5A0
:102A400017F520C518F51200010E0D6E0501B851DD
:102A5000D8A42DEF15F02FEF15F038EF15F0B75182
:102A6000D8A435EF15F037EF15F038EF15F00D6AF3
:102A70000D50D8A43EEF15F041EF15F0010E42EFD6
:102A800015F0000E0E6EB551D8A449EF15F04BEFBE
:102A900015F05BEF15F00EC5B6F5010EB56F0E50D3
:102AA000D8B455EF15F057EF15F074EF15F030EC82
:102AB0001AF074EF15F0B6510E18D8B462EF15F095
:102AC00064EF15F074EF15F00E50D8B46AEF15F0FE
:102AD0006CEF15F070EF15F030EC1AF072EF15F0A6
:102AE000F2EC19F00EC5B6F51200A8EC1BF009C502
:102AF00019F50AC51AF50BC51BF50CC51CF50D50CB
:102B0000195C0E501A580F501B5810501C58D8B052
:102B10008CEF15F08EEF15F0B0EF15F00D1C116E67
:102B20000E1C126E0F1C136E101C146E1950112403
:102B3000156E1A501220166E1B501320176E1C5063
:102B40001420186E010E15240D6E000E16200E6E48
:102B5000000E17200F6E000E1820106EBCEF15F03F
:102B60000D50195C0D6E0E501A580E6E0F501B58FA
:102B70000F6E10501C58106E12005750D8B4C3EF8F
:102B800015F0C5EF15F0FDEF15F0DDEC19F00009BB
:102B9000D8B4CDEF15F0CFEF15F0D9EF15F054EC18
:102BA00018F00009D8B4D7EF15F0D9EF15F0E3EF1E
:102BB00015F0A8EC1BF009C5A4F50AC5A5F50BC5D1
:102BC000A6F50CC5A7F5A4C50DF5A5C50EF5A6C5BA
:102BD0000FF5A7C510F575EC15F010500F100BE1AF
:102BE000F40E0D5C010E0E58D8A0F9EF15F0FBEFB6
:102BF00015F0FDEF15F0576AC08812000D6A030149
:102C00001E9FAB96B6961A9F9E0E1B6F020E196FF3
:102C1000186BB69EAB8E800E1A6F41EC1BF0D69EE1
:102C2000F29E0001789103000000000178814DECD4
:102C30001BF00009D8B41FEF16F021EF16F023EFB8
:102C400016F0010E0D6ECDEC1BF0B6AE2AEF16F0AD
:102C50002CEF16F036EF16F0E80E096E030E0A6E32
:102C6000000E0B6E000E0C6E8CEC1BF003011A9F15
:102C7000AB9EB69ED68E1BEC1BF00D501200AE0E16
:102C8000F66E370EF76E000EF86E01EEEFF110EEF5
:102C900008F00900F5C4EEF4E550E150FAE101EE68
:102CA0004AF212EEB8F3EE6AE550E150FCE1E25070
:102CB000FAE101EE00F2400EEE6AE806FDE101EEF7
:102CC00060F17B0EEE6AE806FDE101EE50F1080EC0
:102CD000EE6AE806FDE10401080E5D6F000E5E6F0E
:102CE000000E5F6F000EF86E0001A4EF10F0C30E2F
:102CF0001D6E050E1E6E4BEC17F09FEF16F0C30E07
:102D00000F6E050E106EF7C511F534EC0DF00009CD
:102D1000D8B48DEF16F08FEF16F09FEF16F035EC6C
:102D20001BF00009D8A497EF16F099EF16F09FEF6B
:102D300016F0C30E436E050E446E2CEC0FF0F70E2A
:102D4000096E050E0A6EE6EC18F00009D8A4ABEF88
:102D500016F0ADEF16F07FEF16F012000501B3513B
:102D6000D8A4B5EF16F0B7EF16F0B9EF16F0E3EF11
:102D700016F080C50DF581C50EF582C50FF583C52A
:102D800010F575EC15F010500F100BE1100E0D5CE6
:102D9000270E0E58D8A0CFEF16F0D1EF16F0E3EFC4
:102DA00016F0ECEC1BF00501B36BB251D8A4DBEFCD
:102DB00016F0DDEF16F0E1EF16F0020EB46FE3EF60
:102DC00016F0010EB46F1200000E116E000E126E9E
:102DD000000E136E000E146E09A0F1EF16F0F3EF63
:102DE00016F0FBEF16F00D5011260E5012220F5068
:102DF000132210501422D8900D360E360F3610368E
:102E0000D8900C320B320A32093209500A100B10DA
:102E10000C10D8A40EEF17F010EF17F0ECEF16F02F
:102E200011C509F512C50AF513C50BF514C50CF546
:102E300012000B500C10D8B420EF17F022EF17F04F
:102E400046EF17F0010E0D6E2AEF17F0D8900B36F3
:102E50000C360D2A0CAE2FEF17F031EF17F026EFDE
:102E600017F00B50095C0C500A58D8A03AEF17F035
:102E70003CEF17F040EF17F00B50095E0C500A5A68
:102E8000D8900C320B320D2E31EF17F009C509F531
:102E90000AC50AF512001DC5D9F41EC5DAF4DF50C3
:102EA000D8B455EF17F057EF17F07BEF17F020EE7F
:102EB00012F01D50D9261E50DA22DEC40DF5DEC4F4
:102EC0000EF5DEC40FF5DEC410F575EC15F01050EC
:102ED0000F100BE1E80E0D5C030E0E58D8A073EF37
:102EE00017F075EF17F07BEF17F01DC509F51EC53C
:102EF0000AF57CEC17F0120009C5D9F40AC5DAF41A
:102F0000DF6A20EE01F00950D9260A50DA22DF6A82
:102F100020EE02F00950D9260A50DA22DE6ADD6A74
:102F200020EE04F00950D9260A50DA22DE6ADD6A62
:102F300020EE0EF00950D9260A50DA22DE6ADD6A48
:102F400020EE10F00950D9260A50DA22DE6ADD6A36
:102F50001200F2EC1BF009C513F50AC514F5C3EF16
:102F600017F013C509F514C50AF50FC5D9F410C536
:102F7000DAF4DF500B6ED5EC17F009C513F50AC56E
:102F800014F50F4A102A1106D8A01206112806E1DE
:102F90001228D8A4CEEF17F0D0EF17F0B1EF17F04A
:102FA00013C50FF514C510F512000B50091A0E6A5F
:102FB00009A0DDEF17F0DFEF17F0ECEF17F0D89076
:102FC0000A300D6E09300C6E010E0C18096EA00E41
:102FD0000D180A6EF3EF17F0D8900A300C6E093016
:102FE000096E0CC50AF50E2A070E0E64FAEF17F0EB
:102FF000FCEF17F0D8EF17F009C509F50AC50AF577
:10300000120022C509F523C50AF5030E0C6EE80E61
:103010000B6E19EC17F009C528F50AC529F5030E42
:103020002802F3C426F5F4C427F52902F350272615
:103030004A0E2624096E060E27200A6E24C50BF5BB
:1030400025C50CF5020E24240D6E000E25200E6EF3
:103050007DEC12F0120096EC1BF009C53BF50AC599
:103060003CF50BC53DF50CC53EF56EEC1BF0336E23
:1030700078EC1BF0346EE3EC1BF0356E9CEC19F031
:10308000366E3EC537F53DC538F53CC539F53BC50F
:103090003AF5330E156E050E166E186A080E176E89
:1030A000840EF6EC0FF01200010E096E0501C051FE
:1030B000D8A45DEF18F05FEF18F078EF18F0BE516C
:1030C000D8A465EF18F067EF18F078EF18F0BB514F
:1030D000D8A46DEF18F06FEF18F078EF18F0BC512E
:1030E000D8A475EF18F077EF18F078EF18F0096AA8
:1030F000095012000501B851D8B481EF18F083EFE0
:1031000018F09FEF18F088C50DF589C50EF58AC532
:103110000FF58BC510F575EC15F010500F100BE185
:10312000300E0D5C750E0E58D8A099EF18F09BEF7D
:1031300018F09FEF18F00501B86B24EC15F01200A1
:103140000501B16B000EB06FAF6B000EAE6F000EDD
:10315000986F000E996F000E9A6F000E9B6FC16BF7
:1031600058EC1BF013C5DFF514C5E0F515C5E1F506
:1031700016C5E2F5A8EC1BF009C5E3F50AC5E4F5B0
:103180000BC5E5F50CC5E6F512003B0E096E050E04
:103190000A6EC8EC19F03C50336E3BC534F53E5016
:1031A000356E3DC536F54050376E3FC538F5425057
:1031B000396E41C53AF5330E156E050E166E186A56
:1031C000080E176E820EF6EC0FF012000B6AD69EF8
:1031D0000501C251D8B4EFEF18F0F1EF18F003EF8A
:1031E00019F0600E5224D96EDA6A050EDA2209C58A
:1031F000E1F40AC5E2F4DFC4E7F452281F0B526E73
:10320000C207010E0B6ED68E0B50120004011091F6
:10321000C890100E0201116F04011093C88211832F
:10322000110E0201726FAB8FA00EAE6F010EAF6F69
:10323000F00EAB17AB8BAB89AC8F546A556A566AEC
:10324000AC80AC921200096E3F0E54642AEF19F064
:103250002CEF19F02EEF19F03CEF19F0AC92000EA4
:103260005624D96EDA6A060EDA2209C5DFF456282A
:103270003F0B566E542AAC82120063EC1BF009C55A
:1032800011F50AC512F50501EB51115C0F6EEC51F9
:103290001258106E11C5EBF512C5ECF50F509C27B6
:1032A00010509D23000E9E23000E9F2312000D6AD6
:1032B00064EF19F00D500A24D96E000E0B20DA6E5F
:1032C000DF5023EC19F00D2A0C500D5CD8A06BEFE9
:1032D00019F06DEF19F05AEF19F012000501C06BEB
:1032E000BE6BAD6B000EAC6FAB6B000EAA6FA96B23
:1032F000000EA86FBB6BBD6B000E906F000E916F40
:10330000000E926F000E936F1200016E200E0501E9
:10331000C2618DEF19F08FEF19F09BEF19F0600E7D
:103320005324D96EDA6A050EDA2201C5DFF4532878
:103330001F0B536EC22B1200096A0501B851D8B495
:10334000A4EF19F0A6EF19F0A7EF19F00980B75113
:10335000D8B4ADEF19F0AFEF19F0B0EF19F0098262
:10336000095012000F6E0FA0B8EF19F0BAEF19F064
:10337000BCEF19F00501B86B0FA2C1EF19F0C3EF54
:1033800019F0C5EF19F00501B76B24EC15F0120028
:1033900009500A10D8B4CFEF19F0D1EF19F0DCEFD3
:1033A00019F021EEEFF109C5E1F40AC5E2F4070EC8
:1033B000DBC4E3F4E806FCE21200096A5450D8A426
:1033C000E4EF19F0E6EF19F0F0EF19F00201B2AFF7
:1033D000ECEF19F0EEEF19F0F0EF19F0010E096EB5
:1033E00009501200C084BE84010E0501B36F010EA6
:1033F000B26FA8EC1BF009C580F50AC581F50BC5B5
:1034000082F50CC583F5030E0501B46F1200F1C5FA
:1034100022F5F2C523F5CFEC13F022C5E9F523C55B
:10342000EAF5F5C522F5F6C523F5CFEC13F022C574
:10343000E7F523C5E8F5120004011097C896009936
:10344000C698009BC69A0095C6941095C89410998A
:10345000C898C096BE98BE9ABE94C094C088120008
:10346000C084BE94010E0501B36FB26BA8EC1BF0D3
:1034700009C580F50AC581F50BC582F50CC583F534
:10348000040E0501B46F1200ABA649EF1AF04BEF22
:103490001AF055EF1AF0B6A650EF1AF052EF1AF0E4
:1034A00055EF1AF0B696BAEC1BF01200010E0501AA
:1034B000BA6FC086050EB96FA8EC1BF009C5DBF525
:1034C0000AC5DCF50BC5DDF50CC5DEF512000550AF
:1034D00085EC19F0010E576EB1EC1BF001C5A4F597
:1034E00002C5A5F503C5A6F504C5A7F5C098120049
:1034F0000501BA6BA8EC1BF009C5DBF50AC5DCF5C4
:103500000BC5DDF50CC5DEF50501B96BC0961200E3
:1035100063EC1BF009C5EBF50AC5ECF5000E0501DF
:103520009C6F000E9D6F000E9E6F000E9F6F12002D
:1035300007EC1AF00501B86BB76B000E846F000E34
:10354000856F000E866F000E876FB66BB56B12002D
:103550000401109BC88A150E0201426F03011491E9
:10356000156B176B060E146F136B126B12000501AF
:10357000BF51D8B4BEEF1AF0C0EF1AF0C4EF1AF082
:10358000BF6B010EC5EF1AF0000E12000501C1510C
:10359000D8B4CDEF1AF0CFEF1AF0D3EF1AF0C16B19
:1035A000010ED4EF1AF0000E1200336E33C534F55D
:1035B000340E156E050E166E186A010E176E8F0EFC
:1035C000F6EC0FF01200336E33C534F5340E156E81
:1035D000050E166E186A010E176E8E0EF6EC0FF0C1
:1035E0001200010E576EA8EC1BF009C5A4F50AC520
:1035F000A5F50BC5A6F50CC5A7F5C0981200ECEC17
:103600001BF00501B36B000E806F000E816F000E82
:10361000826F000E836FB46B12000501BA6BC08617
:10362000A8EC1BF009C5DBF50AC5DCF50BC5DDF51B
:103630000CC5DEF5120003011E9F010E206F1F6BEB
:10364000F90E1D6FE00E1E6FB696AB861E8F120030
:10365000FAC407F5FBC408F57DEC14F044EC1AF04D
:1036600008C5FBF407C5FAF411000501BE51D8A442
:103670003CEF1BF03FEF1BF0010E40EF1BF0000E84
:1036800012000201B0A747EF1BF049EF1BF041EF1A
:103690001BF0B19FAC86AC8912000201B1BF53EFA1
:1036A0001BF056EF1BF0010E57EF1BF0000E12003F
:1036B0003DEC19F09CC513F59DC514F59EC515F597
:1036C0009FC516F5120012C30DF513C30EF50E506B
:1036D0000B6E0D50096E0BC50AF51200C0B473EFE6
:1036E0001BF076EF1BF0010E77EF1BF0000E1200BF
:1036F000BEB47DEF1BF080EF1BF0010E81EF1BF0DD
:10370000000E1200000E0501A06F000EA16F000E4A
:10371000A26F000EA36F120009500501A0270A50E6
:10372000A1230B50A2230C50A323120084C509F53A
:1037300085C50AF586C50BF587C50CF5120098C539
:1037400009F599C50AF59AC50BF59BC50CF512004C
:10375000A0C509F5A1C50AF5A2C50BF5A3C50CF5D1
:103760001200A0C501F5A1C502F5A2C503F5A3C5C8
:1037700004F51200010E0501A027000EA123A223CB
:10378000A3231200000E82EC1BF01BEC1BF01200B6
:1037900009C5EDF50AC5EEF512000201AC99B19F1D
:1037A000AC961200B0C509F5B1C50AF51200320099
:1037B000140010270A00010E0501BB6F1200010E54
:1037C0000501BC6F12000501B45112000301148100
:1037D00012000501B3511200C094BE94120054505F
:1037E0004008120009680A681200EFEC12F012009B
:0437F00012001200B1
:020000040030CA
:010000008C73
:04000200F7FFACFF59
:00000001FF
