:040000000DEF00F010
:04000800F8EF1AF003
:06001800FF00E1EF15F00E
:10160000000057EF0BF088EC1AF00009D8A40BEF9C
:101610000BF00DEF0BF016EF0BF00501B751D8B43E
:1016200014EF0BF016EF0BF0F4EF0CF00501B76BB5
:10163000010EB96F78EC1BF009C590F50AC591F55C
:101640000BC592F50CC593F5020E0501BA6FF4EFC8
:101650000CF05250D8A42FEF0BF031EF0BF039EF14
:101660000BF0B851D8B437EF0BF039EF0BF03DEF7A
:101670000BF00501BA6BF4EF0CF090C50DF591C5B8
:101680000EF592C50FF593C510F558EC15F01050F6
:101690000F100BE1B80E0D5C0B0E0E58D8A053EFD7
:1016A0000BF055EF0BF0F4EF0CF039EF0BF00501F8
:1016B000BA512A6E2B6A2B50000AD8B462EF0BF095
:1016C00039EF0BF02A50000AD8B403EF0BF0010AEF
:1016D000D8B424EF0BF0030AD8B429EF0BF039EF9C
:1016E0000BF05250D8B477EF0BF079EF0BF016EF08
:1016F0000DF0526AA2EC1BF009C5A6F50AC5A7F5C4
:101700000501A56B000EA46F18EC1AF0010E05017F
:10171000B86F16EF0DF0A851A65D2A6EA951A75912
:101720002B6EE80E2A24096E030E2B200A6E030E80
:101730000C6EE80E0B6EF2EC16F009C52CF50AC51E
:101740002DF52E6A2F6A030E2C02F3C42AF5F4C479
:101750002BF52D02F3502B26040E2A243E6E000E8C
:101760002B203F6EAA0E396E550E3A6E810E3B6EDF
:101770003F503C6E3EC53DF5BEEC1BF02A6E050E9B
:101780002A60C5EF0BF0C7EF0BF0C9EF0BF016EFB7
:101790000DF0C1EC1BF009C550F50AC551F550C557
:1017A00009F551C50AF53BC50BF5AEEC17F009C5B7
:1017B00050F50AC551F550C509F551C50AF53CC5A6
:1017C0000BF5AEEC17F009C550F50AC551F550C53B
:1017D00009F551C50AF53DC50BF5AEEC17F009C585
:1017E00050F50AC551F5390E0A6E050E0B6E050E41
:1017F0000C6E30EC19F0020E0501B86F16EF0DF00B
:10180000A851A65D2A6EA951A7592B6EE80E2A246D
:10181000096E030E2B200A6E030E0C6EE80E0B6E83
:10182000F2EC16F009C546F50AC547F5486A496A5B
:1018300049C535F548C536F547C537F546C538F5C8
:10184000BEEC1BF02A6E040E2A6029EF0CF02BEF81
:101850000CF02DEF0CF016EF0DF0446A50C509F5B1
:1018600051C50AF5350E4424D96EDA6A050EDA221E
:10187000DF500B6EAEEC17F009C550F50AC551F5F7
:10188000442A030E446447EF0CF049EF0CF02EEFAE
:101890000CF0350E0A6E050E0B6E040E0C6E30EC5D
:1018A00019F04650471048104910D8B45AEF0CF0C0
:1018B0005CEF0CF061EF0CF0030E0501B86F16EF52
:1018C0000DF0040E0501B86F16EF0DF0A651A81922
:1018D00007E1A751A919D8A470EF0CF072EF0CF032
:1018E00074EF0CF061EF0CF0A8C522F5A9C523F543
:1018F000400E246E050E256EDAEC17F0A4C509F52E
:10190000A5C50AF542C50BF543C50CF5320E0D6EA3
:10191000050E0E6E0AEC14F0BEEC1BF02A6E030EE0
:101920002A6095EF0CF097EF0CF099EF0CF016EFA2
:101930000DF0456A020E4564A0EF0CF0A2EF0CF02A
:10194000A4EF0CF0B9EF0CF050C509F551C50AF53C
:10195000320E4524D96EDA6A050EDA22DF500B6E9C
:10196000AEEC17F009C550F50AC551F5452A9AEFB6
:101970000CF0320E0A6E050E0B6E030E0C6E30EC80
:1019800019F0010E0501A825096E000EA9210A6EA5
:10199000030E0C6EE80E0B6EF2EC16F009C5A8F5FE
:1019A0000AC5A9F50501A44BA52B16EF0DF0515062
:1019B000306E50C531F5BEEC1BF02A6E020E2A6067
:1019C000E4EF0CF0E6EF0CF0E8EF0CF016EF0DF0A2
:1019D000300E0A6E050E0B6E020E0C6E30EC19F016
:1019E0000501B86B16EF0DF00501B8512A6E2B6A90
:1019F0002B50000AD8B4FFEF0CF0F0EF0CF02A5097
:101A0000000AD8B471EF0BF0010AD8B48BEF0BF0D9
:101A1000030AD8B400EF0CF0010AD8B466EF0CF05A
:101A2000070AD8B4D7EF0CF0F0EF0CF0120078EC06
:101A30001BF020EE12F00F50D9261050DA2209C503
:101A4000DEF40AC5DEF40BC5DEF40CC5DEF4DCEF13
:101A50000EF0AA0E1118D8A430EF0DF032EF0DF0F1
:101A60000DEF0FF020EE16F00F50D9261050DA22AD
:101A7000DF6A20EE17F00F50D9261050DA22DF6A05
:101A80000FC5D9F410C5DAF4010EDF6E0DEF0FF0BB
:101A9000550E1118D8A44FEF0DF051EF0DF059EF7E
:101AA0000DF00FC5D9F410C5DAF4020EDF6E0DEF9C
:101AB0000FF0AA0E1118D8A460EF0DF062EF0DF030
:101AC0006AEF0DF00FC5D9F410C5DAF4010EDF6E20
:101AD0000DEF0FF00FC5D9F410C5DAF4DF6A0DEF82
:101AE0000FF020EE01F00F50D9261050DA2211C568
:101AF000DFF4C1EC1BF020EE0EF00F50D926105091
:101B0000DA2209C5DEF40AC5DDF420EE0EF00F502E
:101B1000D9261050DA22DEC409F5DDC40AF511C554
:101B20000BF5AEEC17F020EE0EF00F50D92610504A
:101B3000DA2209C5DEF40AC5DDF40FC5D9F410C5F3
:101B4000DAF4030EDF6E0DEF0FF01150136E126A10
:101B500020EE02F00F50D9261050DA2212C5DEF422
:101B600013C5DDF420EE0EF00F50D9261050DA2206
:101B7000DEC409F5DDC40AF511C50BF5AEEC17F0AE
:101B800020EE0EF00F50D9261050DA2209C5DEF4EF
:101B90000AC5DDF40FC5D9F410C5DAF4040EDF6E02
:101BA0000DEF0FF020EE02F00F50D9261050DA2280
:101BB0001150DE12000EDD1220EE0EF00F50D9266D
:101BC0001050DA22DEC409F5DDC40AF511C50BF5A3
:101BD000AEEC17F020EE0EF00F50D9261050DA229E
:101BE00009C5DEF40AC5DDF420EE04F00F50D92655
:101BF0001050DA22DE6ADD6A20EE02F00F50D9269C
:101C00001050DA22010EDB5009E1090EDE5CD8A08B
:101C10000CEF0EF00EEF0EF01EEF0EF020EE16F0B1
:101C20000F50D9261050DA22010EDF6E0FC509F5CC
:101C300010C50AF555EC17F00DEF0FF020EE02F08D
:101C40000F50D9261050DA22DE50DE10D8B42BEF18
:101C50000EF02DEF0EF031EF0EF0050E166E33EF95
:101C60000EF0060E166E0FC5D9F410C5DAF416C5BF
:101C7000DFF40DEF0FF020EE04F00F50D9261050D6
:101C8000DA22DEC412F5DDC413F512500F24146EEF
:101C900013501020156E060E1424D96E000E152058
:101CA000DA6E11C5DFF420EE04F00F50D926105083
:101CB000DA22DE2A000EDD2220EE0EF00F50D926A9
:101CC0001050DA22DEC409F5DDC40AF511C50BF5A2
:101CD000AEEC17F020EE0EF00F50D9261050DA229D
:101CE00009C5DEF40AC5DDF420EE02F00F50D92656
:101CF0001050DA2210EE04F00F50E1261050E222CC
:101D0000DE50E65CDE50E658D8A089EF0EF08BEF8F
:101D10000EF00DEF0FF00FC5D9F410C5DAF4060E72
:101D2000DF6E0DEF0FF01150136E126A20EE10F0FF
:101D30000F50D9261050DA2212C5DEF413C5DDF497
:101D40000FC5D9F410C5DAF4070EDF6E0DEF0FF0F2
:101D500020EE10F00F50D9261050DA221150DE126A
:101D6000000EDD120FC5D9F410C5DAF4DF6A20EEDB
:101D70000EF00F50D9261050DA2210EE10F00F504E
:101D8000E1261050E222DE50E61807E1DE50E618A8
:101D9000D8A4CDEF0EF0CFEF0EF0D2EF0EF0010E83
:101DA0000EEF0FF020EE17F00F50D9261050DA2268
:101DB000010EDF6E0DEF0FF00FC5D9F410C5DAF488
:101DC000DF50126E136A1350000AD8B4EAEF0EF017
:101DD00016EF0EF01250000AD8B429EF0DF0010AE8
:101DE000D8B448EF0DF0030AD8B471EF0DF0010A32
:101DF000D8B4A5EF0DF0070AD8B4D2EF0DF0010A60
:101E0000D8B43BEF0EF0030AD8B493EF0EF0010AFA
:101E1000D8B4A8EF0EF016EF0EF0000E1200B7EFD8
:101E20000FF0B2EC1BF0D8EF0FF09EEC18F0D8EFEB
:101E30000FF020EE02F04350D9264450DA22080E6B
:101E4000DE18DE10D8A427EF0FF029EF0FF084EF93
:101E50000FF020EE07F04350D9264450DA22DF502D
:101E6000456E20EE06F04350D9264450DA22DF506A
:101E7000466E4550486E46C549F520EE09F0435080
:101E8000D9264450DA22DF50456E20EE08F0435048
:101E9000D9264450DA22DF50466E45504A6E46C578
:101EA0004BF520EE0BF04350D9264450DA22DF5098
:101EB000456E20EE0AF04350D9264450DA22DF5016
:101EC000466E45504C6E46C54DF520EE0DF0435024
:101ED000D9264450DA22DF50456E20EE0CF04350F4
:101EE000D9264450DA22DF50466E45504E6E46C524
:101EF0004FF5480E096E050E0A6EC7EC1BF0030E77
:101F0000A5EC1AF0D8EF0FF0020E97EC1AF0D8EF0C
:101F10000FF004EC18F0D8EF0FF020EE02F0435071
:101F2000D9264450DA22DE04DE10D8A49AEF0FF04E
:101F30009CEF0FF0AAEF0FF020EE06F04350D926E9
:101F40004450DA22DF5074EC19F0050EA5EC1AF0BB
:101F5000D8EF0FF0020E97EC1AF0D8EF0FF0FF0059
:101F6000D8EF0FF0030E97EC1AF0D8EF0FF020EE39
:101F700001F04350D9264450DA22DF50010AD8B488
:101F800011EF0FF0030AD8B415EF0FF0010AD8B41F
:101F900019EF0FF0070AD8B489EF0FF0010AD8B48F
:101FA0008DEF0FF0030AD8B4AFEF0FF0B2EF0FF0E0
:101FB00012002A6E326A000E316E185009E1090EC5
:101FC000175CD8A0E6EF0FF0E8EF0FF0EAEF0FF0A4
:101FD00086EF10F0AA0E1B6E314A322A1B0E3124F6
:101FE000D96E050E3220DA6E550EDF6E314A322A76
:101FF0001B0E3124D96E050E3220DA6E2AC5DFF4AD
:10200000314A322A1B0E3124D96E050E3220DA6E87
:102010001850DF6E314A322A1B0E3124D96E050E5C
:102020003220DA6E17C5DFF4314A322A2E6A000EEA
:102030002D6E2DEF10F02D501524D96E2E50162038
:10204000DA6E1B0E3124E16E050E3220E26EDFC423
:10205000E7F4314A322A2D4A2E2A17502D5C1850A7
:102060002E58D8A036EF10F038EF10F01BEF10F01C
:102070001D0E0F6E050E106E030E1724116E000E4E
:102080001820126E82EC17F00FC52BF510C52CF539
:102090001B0E3124D96E050E3220DA6E2C50DF6E05
:1020A000314A322A1B0E3124D96E050E3220DA6EE7
:1020B0002BC5DFF4314A322ABEEC1BF0196E1A6AC6
:1020C0003150195C32501A58D8A069EF10F06BEFFC
:1020D00010F086EF10F0306A000E2F6E7BEF10F0DC
:1020E0001B0E2F24D96E050E3020DA6EDF50FCEC6B
:1020F00018F02F4A302A31502F5C32503058D8A077
:1021000084EF10F086EF10F070EF10F01200F0A8DE
:102110008CEF10F08FEF10F0010E90EF10F0000E2A
:102120000501F36FF068DEEC19F0DFEC18F0520EE9
:10213000096E340E0A6E98EC1BF092EC1BF06AEC00
:102140001AF0B5EC1BF04AEC1AF079EC18F0DDEC63
:102150001AF03AEC1AF0BE0E096E050E0A6E55EC36
:1021600017F05AEC1AF00501F351D8B4BAEF10F099
:10217000BDEF10F0010EBEEF10F0000EC1EC1AF032
:102180000501F351D8A4C7EF10F0C9EF10F0CBEF61
:1021900010F0B4EC19F0D68CD68E78EC1BF0000160
:1021A00078810400C8EC1BF043EC13F087EC16F0C8
:1021B00053EC18F02FEC11F001EC0BF079EC1AF065
:1021C0000009D8B4E6EF10F0E8EF10F0EAEF10F0F5
:1021D000B3EC1AF019EC16F050EC16F05750D8A4E6
:1021E000F4EF10F0F6EF10F0D1EF10F02DEC18F046
:1021F0000009D8A4FEEF10F000EF11F0D1EF10F0BD
:102200009FEC19F00009D8B408EF11F00AEF11F0B3
:10221000D1EF10F0B8EC1BF00009D8A412EF11F0C8
:1022200014EF11F0D1EF10F0C096C098A0EC15F0AB
:102230000501F26FCFEC1AF078EC1BF00501F20506
:10224000D8A425EF11F027EF11F0D1EF10F0B3EC87
:102250001AF0ABEC1BF0D1EF10F00DEF00F0DEC583
:102260000DF5DFC50EF5E0C50FF5E1C510F558EC2D
:1022700015F010500F1009E1B80E0D5C0B0E0E5842
:10228000D8B045EF11F047EF11F049EF11F0C7EF6B
:1022900011F078EC1BF009C5DEF50AC5DFF50BC5BA
:1022A000E0F50CC5E1F528EC1BF013C542F614C5AA
:1022B00043F615C544F616C545F60501DA51060183
:1022C000425D466F0501DB5106014359476F42C627
:1022D000DAF543C6DBF544C6DCF545C6DDF5010E8F
:1022E00005019427000E952396239723ACC509F585
:1022F000ADC50AF5030E0C6EE80E0B6EF2EC16F08F
:1023000009C540F60AC541F6AAC509F5ABC50AF5E7
:1023100046C60BF547C60CF5030E06014003F3C491
:102320004CF5F4C44DF54103F3504D26480E4C24B2
:102330000D6E060E4D200E6E0AEC14F00501AA4B30
:10234000AB2BAB5109E1280EAA5DD8A0AAEF11F082
:10235000ACEF11F0B1EF11F0AB6B000EAA6F010EF4
:10236000BB6F010EAC25096E000EAD210A6E030E87
:102370000C6EE80E0B6EF2EC16F009C5ACF50AC552
:10238000ADF546C64AF547C64BF5C4EC1BF0120046
:102390006FEC1BF009C53EF50AC53FF50BC540F5CE
:1023A0000CC541F53E503F1040104110D8A4DBEF62
:1023B00011F0DDEF11F0E7EF11F0000E2A6E000EC4
:1023C0002B6E000E2C6E000E2D6E5FEF12F02AC5E4
:1023D0003AF52BC53BF53A502E6E3B502F6E306AC6
:1023E000316A2E503E5C2F503F583050405831508B
:1023F0004158D8B0FEEF11F000EF12F004EF12F0E8
:102400003EC53AF53FC53BF5A2EC1BF009C532F5D8
:102410000AC533F5000E366E000E376E000E386EAC
:10242000000E396E3D6A000E3C6E4CEF12F03C50CF
:10243000325C2E6E3D5033582F6EE70E2E24096EFF
:10244000030E2F200A6E030E0C6EE80E0B6EF2ECDC
:1024500016F009C534F50AC535F534C522F535C57C
:1024600023F5420E246E050E256EDAEC17F044506B
:102470004510D8A43EEF12F040EF12F042EF12F0F8
:1024800057EF12F04450362645503722000E3822BE
:10249000000E39223C4A3D2A3A503C5C3B503D58A4
:1024A000D8A055EF12F057EF12F017EF12F036C523
:1024B0002AF537C52BF538C52CF539C52DF5120091
:1024C00020EE01F00950D9260A50DA22DF500F6EB3
:1024D0000FC510F5116A126A136A12C513F511C5FA
:1024E00012F510C511F5106A09C5D9F40AC5DAF458
:1024F000DF50146E14C515F5166A176A186A16C5EA
:1025000018F515C517F5166A156A10501510196ECD
:10251000115016101A6E125017101B6E135018100F
:102520001C6E20EE02F00950D9260A50DA22DF5044
:102530001D6E1D5019101E6E1A501F6E1B50206EFE
:102540001C50216E1EC50FF51FC510F520C511F5D5
:1025500021C512F50F0EB2EF12F0D89012321132DF
:1025600010320F32E82EADEF12F0FF0E0F14136E83
:10257000030E1014146E0BC5D9F40CC5DAF413C590
:10258000DEF414C5DDF4FF0E1E140F6E3F0E1F1493
:10259000106E0DC5D9F40EC5DAF40FC5DEF410C502
:1025A000DDF412000501B451D8A4D9EF12F0DBEF2D
:1025B00012F012EF13F0E4C52AF5E5C52BF5C8ECCF
:1025C00011F02AC5EAF52BC5EBF52CC5ECF52DC5A8
:1025D000EDF50501F451466EF551476E486A496ABA
:1025E0004650EA5D4750EB594850EC594950ED5977
:1025F000D8A0FDEF12F0FFEF12F012EF13F0010E72
:10260000B46F78EC1BF009C588F50AC589F50BC5D0
:102610008AF50CC58BF5010E05018427000E852374
:1026200086238723B351D8A418EF13F01AEF13F0C1
:1026300040EF13F0E2C52AF5E3C52BF5C8EC11F025
:102640002AC5EEF52BC5EFF52CC5F0F52DC5F1F536
:102650000501F851466EF951476E486A496A46507D
:10266000EE5D4750EF594850F0594950F159D8A004
:102670003CEF13F03EEF13F040EF13F0010EB36F99
:1026800007EC15F012000501B651D8A44AEF13F07B
:102690004CEF13F071EF13F0D6C50DF5D7C50EF55D
:1026A000D8C50FF5D9C510F558EC15F010500F101E
:1026B0000BE1F40E0D5C010E0E58D8A062EF13F082
:1026C00064EF13F0B1EF13F078EC1BF009C5D6F509
:1026D0000AC5D7F50BC5D8F50CC5D9F5C076B1EF4D
:1026E00013F0D6C50DF5D7C50EF5D8C50FF5D9C56C
:1026F00010F558EC15F010500F100E1009E1640E93
:102700000D5CD8A086EF13F088EF13F0B1EF13F053
:1027100078EC1BF009C5D6F50AC5D7F50BC5D8F579
:102720000CC5D9F5C0760501B551D8B49AEF13F0B0
:102730009CEF13F09DEF13F0B507B551D8A4A3EFAC
:1027400013F0A5EF13F0B1EF13F0C096B66B78EC71
:102750001BF009C5D6F50AC5D7F50BC5D8F50CC5CC
:10276000D9F5120022C509F523C50AF50B6A0C6AD2
:10277000E80E0D6E030E0E6E000E0F6E000E106E44
:10278000BDEC16F009C515F50AC516F50BC517F50C
:102790000CC518F5B80E196E0B0E1A6E000E1B6ED6
:1027A000000E1C6EB5EC14F015C524F516C525F504
:1027B00017C526F518C527F5275026100BE1E90E99
:1027C000245C030E2558D8A0E8EF13F0EAEF13F0CD
:1027D000F2EF13F0E80E246E030E256E000E266E47
:1027E000000E276E2450251026102710D8A4FBEFCA
:1027F00013F0FDEF13F005EF14F0010E246E000E40
:10280000256E000E266E000E276E24C522F525C506
:1028100023F51200040E0A5CD8B011EF14F013EF88
:1028200014F019EF14F009C513F50AC514F51CEFDF
:1028300014F0030E146E1368400E0C5CD8B023EF36
:1028400014F025EF14F02BEF14F00BC515F50CC5A3
:1028500016F52EEF14F03F0E166E156813500F6E1E
:102860001450106E116A126A0E0ED8900F36103680
:1028700011361236E82E35EF14F015500F10176E82
:1028800016501010186E000E1110196E000E121056
:102890001A6E0DC5D9F40EC5DAF419C5DFF420EEB1
:1028A00001F00D50D9260E50DA2218C5DFF420EEC3
:1028B00002F00D50D9260E50DA2217C5DFF41200AF
:1028C000ACA065EF14F067EF14F088EF14F0B7A038
:1028D0006CEF14F06EEF14F088EF14F0A1C206F55F
:1028E0000501E851E911D8B478EF14F07AEF14F04B
:1028F00088EF14F006C505F502D888EF14F005003E
:10290000FA6EE851FD6EE951FE6EFF6AFA50120050
:10291000ACA28DEF14F08FEF14F0B4EF14F0B7A267
:1029200094EF14F096EF14F0B4EF14F05450D8B4C0
:102930009CEF14F09EEF14F0ABEF14F0000E552452
:10294000D96EDA6A060EDA22DF500201A36F55282B
:102950003F0B556E54065450D8A4B1EF14F0B3EFAA
:1029600014F0B4EF14F0AC921200000E1D6E000EC5
:102970001E6E000E1F6E000E206E19501A101B10D6
:102980001C10D8B4C6EF14F0C8EF14F0FEEF14F02A
:10299000010E216ED2EF14F0D89019361A361B367C
:1029A0001C36212A1CAED7EF14F0D9EF14F0CCEF6F
:1029B00014F0D8901D361E361F3620361950155C7F
:1029C0001A5016581B5017581C501858D8A0EBEF27
:1029D00014F0EDEF14F0F6EF14F01950155E1A50E4
:1029E000165A1B50175A1C50185A1D80D8901C326A
:1029F0001B321A321932212ED9EF14F01DC515F5EC
:102A00001EC516F51FC517F520C518F51200010ED5
:102A10000D6E0501B451D8A410EF15F012EF15F0AA
:102A20001BEF15F0B351D8A418EF15F01AEF15F0FD
:102A30001BEF15F00D6A0D50D8A421EF15F024EF0F
:102A400015F0010E25EF15F0000E0E6EB151D8A451
:102A50002CEF15F02EEF15F03EEF15F00EC5B2F588
:102A6000010EB16F0E50D8B438EF15F03AEF15F0F3
:102A700057EF15F0F2EC19F057EF15F0B2510E18B0
:102A8000D8B445EF15F047EF15F057EF15F00E509D
:102A9000D8B44DEF15F04FEF15F053EF15F0F2EC01
:102AA00019F055EF15F0B4EC19F00EC5B2F512009F
:102AB00078EC1BF009C519F50AC51AF50BC51BF50D
:102AC0000CC51CF50D50195C0E501A580F501B58B0
:102AD00010501C58D8B06FEF15F071EF15F093EF50
:102AE00015F00D1C116E0E1C126E0F1C136E101CB7
:102AF000146E19501124156E1A501220166E1B50A8
:102B00001320176E1C501420186E010E15240D6E24
:102B1000000E16200E6E000E17200F6E000E1820ED
:102B2000106E9FEF15F00D50195C0D6E0E501A5877
:102B30000E6E0F501B580F6E10501C58106E120066
:102B40000D6A03011E9FAB96B6961A9F9E0E1B6FD1
:102B5000060E196F186BB69EAB8E800E1A6F11ECB5
:102B60001BF0D69EF29E0001789103000000000148
:102B700078811DEC1BF00009D8B4C1EF15F0C3EF4C
:102B800015F0C5EF15F0010E0D6E9DEC1BF0B6AE05
:102B9000CCEF15F0CEEF15F0D8EF15F0B80E096EAA
:102BA0000B0E0A6E000E0B6E000E0C6E5CEC1BF032
:102BB00003011A9FAB9EB69ED68EEBEC1AF00D5019
:102BC00012004E0EF66E370EF76E000EF86E01EE26
:102BD000F4F110EE08F00900F5C4EEF4E550E15010
:102BE000FAE101EE48F212EEB8F3EE6AE550E15078
:102BF000FCE1E250FAE101EE00F2400EEE6AE80676
:102C0000FDE101EE60F1760EEE6AE806FDE101EE0F
:102C100050F1080EEE6AE806FDE10401080E5D6F52
:102C2000000E5E6F000E5F6F000EF86E000187EF02
:102C300010F0BE0E1D6E050E1E6E24EC17F041EF57
:102C400016F0BE0E0F6E050E106EEAC511F517ECEC
:102C50000DF00009D8B42FEF16F031EF16F041EF68
:102C600016F005EC1BF00009D8A439EF16F03BEF85
:102C700016F041EF16F0BE0E436E050E446E0FECDB
:102C80000FF0EA0E096E050E0A6EBFEC18F000098F
:102C9000D8A44DEF16F04FEF16F021EF16F012000A
:102CA0005750D8B456EF16F058EF16F086EF16F0DE
:102CB0009FEC19F00009D8A460EF16F062EF16F04F
:102CC0006CEF16F078EC1BF009C5A0F50AC5A1F56C
:102CD0000BC5A2F50CC5A3F5A0C50DF5A1C50EF554
:102CE000A2C50FF5A3C510F558EC15F010500F1044
:102CF0000BE1F40E0D5C010E0E58D8A082EF16F019
:102D000084EF16F086EF16F0576AC098120005019E
:102D1000AF51D8A48EEF16F090EF16F092EF16F0A8
:102D2000BCEF16F080C50DF581C50EF582C50FF517
:102D300083C510F558EC15F010500F100BE1100E74
:102D40000D5C270E0E58D8A0A8EF16F0AAEF16F0CB
:102D5000BCEF16F0BBEC1BF00501AF6BAE51D8A475
:102D6000B4EF16F0B6EF16F0BAEF16F0020EB06F31
:102D7000BCEF16F0010EB06F1200000E116E000EC7
:102D8000126E000E136E000E146E09A0CAEF16F03C
:102D9000CCEF16F0D4EF16F00D5011260E50122283
:102DA0000F50132210501422D8900D360E360F36C5
:102DB0001036D8900C320B320A32093209500A1000
:102DC0000B100C10D8A4E7EF16F0E9EF16F0C5EFE2
:102DD00016F011C509F512C50AF513C50BF514C592
:102DE0000CF512000B500C10D8B4F9EF16F0FBEFF5
:102DF00016F01FEF17F0010E0D6E03EF17F0D890CD
:102E00000B360C360D2A0CAE08EF17F00AEF17F050
:102E1000FFEF16F00B50095C0C500A58D8A013EFC6
:102E200017F015EF17F019EF17F00B50095E0C5063
:102E30000A5AD8900C320B320D2E0AEF17F009C542
:102E400009F50AC50AF512001DC5D9F41EC5DAF444
:102E5000DF50D8B42EEF17F030EF17F054EF17F023
:102E600020EE12F01D50D9261E50DA22DEC40DF5D8
:102E7000DEC40EF5DEC40FF5DEC410F558EC15F017
:102E800010500F100BE1E80E0D5C030E0E58D8A089
:102E90004CEF17F04EEF17F054EF17F01DC509F582
:102EA0001EC50AF555EC17F0120009C5D9F40AC57C
:102EB000DAF4DF6A20EE01F00950D9260A50DA224E
:102EC000DF6A20EE02F00950D9260A50DA22DE6AC3
:102ED000DD6A20EE04F00950D9260A50DA22DE6AB3
:102EE000DD6A20EE0EF00950D9260A50DA22DE6A99
:102EF000DD6A20EE10F00950D9260A50DA22DE6A87
:102F0000DD6A1200C1EC1BF009C513F50AC514F502
:102F10009CEF17F013C509F514C50AF50FC5D9F4D0
:102F200010C5DAF4DF500B6EAEEC17F009C513F5DF
:102F30000AC514F50F4A102A1106D8A01206112846
:102F400006E11228D8A4A7EF17F0A9EF17F08AEF2F
:102F500017F013C50FF514C510F512000B50091A20
:102F60000E6A09A0B6EF17F0B8EF17F0C5EF17F02B
:102F7000D8900A300D6E09300C6E010E0C18096ED7
:102F8000A00E0D180A6ECCEF17F0D8900A300C6E18
:102F90000930096E0CC50AF50E2A070E0E64D3EF30
:102FA00017F0D5EF17F0B1EF17F009C509F50AC50D
:102FB0000AF5120022C509F523C50AF5030E0C6EA9
:102FC000E80E0B6EF2EC16F009C528F50AC529F5D6
:102FD000030E2802F3C426F5F4C427F52902F350A2
:102FE0002726480E2624096E060E27200A6E24C5C1
:102FF0000BF525C50CF5020E24240D6E000E2520C0
:103000000E6E60EC12F0120066EC1BF009C53BF589
:103010000AC53CF50BC53DF50CC53EF53EEC1BF075
:10302000336E48EC1BF0346EAFEC1BF0356E5EEC8B
:1030300019F0366E3EC537F53DC538F53CC539F556
:103040003BC53AF5330E156E050E166E186A080E5E
:10305000176E840ED9EC0FF01200010E096E0501F7
:10306000BA51D8A436EF18F038EF18F051EF18F035
:10307000B851D8A43EEF18F040EF18F051EF18F017
:103080005250D8A446EF18F048EF18F051EF18F05E
:10309000B751D8A44EEF18F050EF18F051EF18F0D8
:1030A000096A095012000501B451D8B45AEF18F05A
:1030B0005CEF18F078EF18F088C50DF589C50EF5AE
:1030C0008AC50FF58BC510F558EC15F010500F1090
:1030D0000BE1300E0D5C750E0E58D8A072EF18F093
:1030E00074EF18F078EF18F00501B46B07EC15F0E9
:1030F00012000501AD6B000EAC6FAB6B000EAA6F3A
:10310000000E946F000E956F000E966F000E976F75
:10311000BB6B28EC1BF013C5DAF514C5DBF515C540
:10312000DCF516C5DDF578EC1BF009C5DEF50AC542
:10313000DFF50BC5E0F50CC5E1F512003B0E096E9D
:10314000050E0A6E8AEC19F03C50336E3BC534F51F
:103150003E50356E3DC536F54050376E3FC538F5AB
:103160004250396E41C53AF5330E156E050E166E96
:10317000186A080E176E820ED9EC0FF012000B6A57
:10318000D69E0501BC51D8B4C8EF18F0CAEF18F0AC
:10319000DCEF18F0600EBD25D96EDA6A050EDA2272
:1031A00009C5E1F40AC5E2F4DFC4E7F4BD291F0B49
:1031B000BD6FBC07010E0B6ED68E0B5012000401C2
:1031C0001091C890100E0201116F04011093C88273
:1031D0001183110E0201726FAB8FA00EAE6F010E44
:1031E000AF6FF00EAB17AB8BAB89AC8F546A556ADF
:1031F000566AAC80AC921200096E3F0E546403EF25
:1032000019F005EF19F007EF19F015EF19F0AC926E
:10321000000E5624D96EDA6A060EDA2209C5DFF4EA
:1032200056283F0B566E542AAC82120033EC1BF02A
:1032300009C511F50AC512F50501E651115C0F6EBD
:10324000E7511258106E11C5E6F512C5E7F50F509B
:10325000982710509923000E9A23000E9B231200EA
:103260000D6A3DEF19F00D500A24D96E000E0B20A7
:10327000DA6EDF50FCEC18F00D2A0C500D5CD8A073
:1032800044EF19F046EF19F033EF19F01200016E18
:10329000200E0501BC614FEF19F051EF19F05DEF01
:1032A00019F0600E5324D96EDA6A050EDA2201C5D0
:1032B000DFF453281F0B536EBC2B1200096A050163
:1032C000B451D8B466EF19F068EF19F069EF19F04E
:1032D0000980B351D8B46FEF19F071EF19F072EFA4
:1032E00019F00982095012000F6E0FA07AEF19F041
:1032F0007CEF19F07EEF19F00501B46B0FA283EF9C
:1033000019F085EF19F087EF19F00501B36B07ECA1
:1033100015F0120009500A10D8B491EF19F093EF8C
:1033200019F09EEF19F021EEF4F109C5E1F40AC598
:10333000E2F4070EDBC4E3F4E806FCE21200096ADB
:103340005450D8A4A6EF19F0A8EF19F0B2EF19F075
:103350000201B2AFAEEF19F0B0EF19F0B2EF19F011
:10336000010E096E09501200C084BE84010E0501D1
:10337000AF6F010EAE6F78EC1BF009C580F50AC582
:1033800081F50BC582F50CC583F5030E0501B06F01
:103390001200F6C522F5F7C523F5B2EC13F022C5ED
:1033A000E4F523C5E5F5FAC522F5FBC523F5B2EC36
:1033B00013F022C5E2F523C5E3F5120004011097CE
:1033C000C8960099C698009BC69A0095C694109519
:1033D000C8941099C898C096BE98BE9ABE94C094DE
:1033E000C0981200C084BE94010E0501AF6FAE6B91
:1033F00078EC1BF009C580F50AC581F50BC582F58F
:103400000CC583F5040E0501B06F1200ABA60BEFDF
:103410001AF00DEF1AF017EF1AF0B6A612EF1AF025
:1034200014EF1AF017EF1AF0B6968AEC1BF01200A0
:10343000010E0501B66FC086050EB56F78EC1BF066
:1034400009C5D6F50AC5D7F50BC5D8F50CC5D9F50C
:103450001200055047EC19F0010E576E81EC1BF07D
:1034600001C5A0F502C5A1F503C5A2F504C5A3F5E4
:10347000C08812000501B66B78EC1BF009C5D6F5C3
:103480000AC5D7F50BC5D8F50CC5D9F50501B56B3F
:10349000C096120033EC1BF009C5E6F50AC5E7F546
:1034A000000E0501986F000E996F000E9A6F000EC6
:1034B0009B6F1200C9EC19F00501B46BB36B000EE1
:1034C000846F000E856F000E866F000E876FB26BE3
:1034D000B16B12000401109BC88A150E0201426FE5
:1034E00003011491156B176B060E146F136B126B9F
:1034F00012000501B951D8B480EF1AF082EF1AF02A
:1035000086EF1AF0B96B010E87EF1AF0000E120069
:103510000501BB51D8B48FEF1AF091EF1AF095EF77
:103520001AF0BB6B010E96EF1AF0000E1200336E0C
:1035300033C534F5340E156E050E166E186A010E7D
:10354000176E8F0ED9EC0FF01200336E33C534F5C1
:10355000340E156E050E166E186A010E176E8E0E5D
:10356000D9EC0FF01200010E576E78EC1BF009C574
:10357000A0F50AC5A1F50BC5A2F50CC5A3F5C08839
:103580001200BBEC1BF00501AF6B000E806F000E4C
:10359000816F000E826F000E836FB06B1200050109
:1035A000B66BC08678EC1BF009C5D6F50AC5D7F511
:1035B0000BC5D8F50CC5D9F512000501BA6BB86B6F
:1035C000A96B000EA86FA76B000EA66FA56B000E6F
:1035D000A46F526A120003011E9F010E206F1F6B21
:1035E000F90E1D6FE00E1E6FB696AB861E8F120091
:1035F000FAC407F5FBC408F560EC14F006EC1AF009
:1036000008C5FBF407C5FAF411000501B851D8A4A8
:103610000CEF1BF00FEF1BF0010E10EF1BF0000E74
:1036200012000201B0A717EF1BF019EF1BF011EF0A
:103630001BF0B19FAC86AC8912000201B1BF23EF31
:103640001BF026EF1BF0010E27EF1BF0000E1200FF
:1036500016EC19F098C513F599C514F59AC515F52A
:103660009BC516F5120012C30DF513C30EF50E50CF
:103670000B6E0D50096E0BC50AF51200C0B443EF76
:103680001BF046EF1BF0010E47EF1BF0000E12007F
:10369000BEB44DEF1BF050EF1BF0010E51EF1BF0CD
:1036A000000E1200000E05019C6F000E9D6F000EB3
:1036B0009E6F000E9F6F1200095005019C270A5053
:1036C0009D230B509E230C509F23120084C509F5A7
:1036D00085C50AF586C50BF587C50CF5120094C59E
:1036E00009F595C50AF596C50BF597C50CF51200B9
:1036F0009CC509F59DC50AF59EC50BF59FC50CF542
:1037000012009CC501F59DC502F59EC503F59FC538
:1037100004F51200010E05019C27000E9D239E2337
:103720009F231200000E52EC1BF0EBEC1AF012007B
:1037300009C5E8F50AC5E9F512000201AC99B19F87
:10374000AC961200ACC509F5ADC50AF51200320001
:10375000140010270A00010E0501B76F12000501C1
:10376000B0511200010E526E1200030114811200BA
:103770000501AF511200C094BE941200545040088D
:10378000120009680A681200D2EC12F0120012004E
:02379000120025
:020000040030CA
:010000008C73
:04000200F7FFACFF59
:00000001FF
