:02000002B0004C
:1040000000400B0032E80B00000006000C00050227
:08401000040139180000000052
:04401800FCD10B00CC
:1040200081F0004102E000BF83F0004330B54FEA69
:1040300041044FEA430594EA050F08BF90EA020FD6
:104040001FBF54EA000C55EA020C7FEA645C7FEA69
:10405000655C00F0E2804FEA5454D4EB5555B8BF8C
:104060006D420CDD2C4480EA020281EA030382EAFD
:10407000000083EA010180EA020281EA0303362D8F
:1040800088BF30BD11F0004F4FEA01314FF4801C62
:104090004CEA113102D0404261EB410113F0004F74
:1040A0004FEA03334CEA133302D0524263EB43032B
:1040B00094EA050F00F0A780A4F10104D5F1200EC9
:1040C0000DDB02FA0EFC22FA05F2801841F1000124
:1040D00003FA0EF2801843FA05F359410EE0A5F1F8
:1040E00020050EF1200E012A03FA0EFC28BF4CF029
:1040F000020C43FA05F3C01851EBE37101F00045DF
:1041000007D54FF0000EDCF1000C7EEB00006EEBEB
:104110000101B1F5801F1BD3B1F5001F0CD3490875
:104120005FEA30004FEA3C0C04F101044FEA4452CC
:1041300012F5800F80F09A80BCF1004F08BF5FEA53
:10414000500C50F1000041EB045141EA050130BD33
:104150005FEA4C0C404141EB0101013C28BFB1F545
:10416000801FE9D291F0000F04BF01460020B1FA90
:1041700081F308BF2033A3F10B03B3F120020CDA63
:104180000C3208DD02F1140CC2F10C0201FA0CF041
:1041900021FA02F10CE002F11402D8BFC2F1200CA6
:1041A00001FA02F120FA0CFCDCBF41EA0C0190405C
:1041B000E41AA2BF01EB0451294330BD6FEA0404A5
:1041C0001F3C1CDA0C340EDC04F11404C4F1200290
:1041D00020FA04F001FA02F340EA030021FA04F3A2
:1041E00045EA030130BDC4F10C04C4F1200220FAF9
:1041F00002F001FA04F340EA0300294630BD21FA37
:1042000004F0294630BD94F0000F83F4801306BFFC
:1042100081F480110134013D4EE77FEA645C18BFF0
:104220007FEA655C29D094EA050F08BF90EA020F87
:1042300005D054EA000C04BF1946104630BD91EA7F
:10424000030F1EBF0021002030BD5FEA545C05D182
:104250004000494128BF41F0004130BD14F58004C1
:104260003CBF01F5801130BD01F0004545F0FE4135
:1042700041F470014FF0000030BD7FEA645C1ABF6A
:10428000194610467FEA655C1CBF0B46024650EAA1
:10429000013406BF52EA033591EA030F41F40021CD
:1042A00030BD00BF90F0000F04BF0021704730B553
:1042B0004FF4806404F132044FF000054FF0000128
:1042C00050E700BF90F0000F04BF0021704730B5E9
:1042D0004FF4806404F1320410F0004548BF4042BE
:1042E0004FF000013EE700BF42004FEAE2014FEA13
:1042F00031014FEA02701FBF12F07F4393F07F4FEE
:1043000081F06051704732F07F4208BF704793F0F0
:104310007F4F04BF41F40021704730B54FF4607403
:1043200001F0004521F000411CE700BF50EA010206
:1043300008BF704730B54FF000050AE050EA0102AF
:1043400008BF704730B511F0004502D5404261EB1F
:1043500041014FF4806404F132045FEA915C3FF460
:10436000D8AE4FF003025FEADC0C18BF03325FEAFD
:10437000DC0C18BF033202EBDC02C2F1200300FAAE
:1043800003FC20FA02F001FA03FE40EA0E0021FAD3
:1043900002F11444BDE600BF70B54FF0FF0C4CF4C1
:1043A000E06C1CEA11541DBF1CEA135594EA0C0F73
:1043B00095EA0C0F00F0DEF82C4481EA030621EAAE
:1043C0004C5123EA4C5350EA013518BF52EA0335E9
:1043D00041F4801143F4801338D0A0FB02CE4FF09B
:1043E0000005E1FB02E506F00042E0FB03E54FF0CB
:1043F0000006E1FB03569CF0000F18BF4EF0010EC3
:10440000A4F1FF04B6F5007F64F5407404D25FEABE
:104410004E0E6D4146EB060642EAC62141EA555171
:104420004FEAC52040EA5E504FEACE2EB4F1FD0CB3
:1044300088BFBCF5E06F1ED8BEF1004F08BF5FEA31
:10444000500E50F1000041EB045170BD06F00046E3
:1044500046EA010140EA020081EA0301B4EB5C0490
:10446000C2BFD4EB0C0541EA045170BD41F4801188
:104470004FF0000E013C00F3AB8014F1360FDEBFAD
:10448000002001F0004170BDC4F10004203C35DA89
:104490000C341BDC04F11404C4F1200500FA05F30C
:1044A00020FA04F001FA05F240EA020001F00042AD
:1044B00021F0004110EBD37021FA04F642EB060123
:1044C0005EEA430E08BF20EAD37070BDC4F10C044D
:1044D000C4F1200500FA04F320FA05F001FA04F211
:1044E00040EA020001F0004110EBD37041F10001FD
:1044F0005EEA430E08BF20EAD37070BDC4F1200508
:1045000000FA05F24EEA020E20FA04F301FA05F26F
:1045100043EA020321FA04F001F0004121FA04F217
:1045200020EA020000EBD3705EEA430E08BF20EAE7
:10453000D37070BD94F0000F0FD101F00046400021
:1045400041EB010111F4801F08BF013CF7D041EAA3
:10455000060195F0000F18BF704703F000465200A7
:1045600043EB030313F4801F08BF013DF7D043EA78
:104570000603704794EA0C0F0CEA135518BF95EA2E
:104580000C0F0CD050EA410618BF52EA4306D1D1B5
:1045900081EA030101F000414FF0000070BD50EAD4
:1045A000410606BF1046194652EA430619D094EA5E
:1045B0000C0F02D150EA013613D195EA0C0F05D148
:1045C00052EA03361CBF104619460AD181EA03019C
:1045D00001F0004141F0FE4141F470014FF0000054
:1045E00070BD41F0FE4141F4780170BD70B54FF0EF
:1045F000FF0C4CF4E06C1CEA11541DBF1CEA13556F
:1046000094EA0C0F95EA0C0F00F0A7F8A4EB050450
:1046100081EA030E52EA03354FEA013100F0888047
:104620004FEA03334FF0805545EA131343EA126310
:104630004FEA022245EA111545EA10654FEA0026C5
:104640000EF000419D4208BF964244F1FD0404F57E
:10465000407402D25B084FEA3202B61A65EB0305DA
:104660005B084FEA32024FF480104FF4002CB6EB97
:10467000020E75EB030E22BFB61A754640EA0C0017
:104680005B084FEA3202B6EB020E75EB030E22BF57
:10469000B61A754640EA5C005B084FEA3202B6EB98
:1046A000020E75EB030E22BFB61A754640EA9C0057
:1046B0005B084FEA3202B6EB020E75EB030E22BF27
:1046C000B61A754640EADC0055EA060E18D04FEAE5
:1046D000051545EA16754FEA06164FEAC30343EA85
:1046E00052734FEAC2025FEA1C1CC0D111F4801F52
:1046F0000BD141EA00014FF000004FF0004CB6E74B
:1047000011F4801F04BF01430020B4F1FD0C88BFE9
:10471000BCF5E06F3FF6AFAEB5EB030C04BFB6EBF4
:10472000020C5FEA500C50F1000041EB045170BDE7
:104730000EF0004E4EEA113114EB5C04C2BFD4EB14
:104740000C0541EA045170BD41F480114FF0000E98
:10475000013C90E645EA060E8DE60CEA135594EA14
:104760000C0F08BF95EA0C0F3FF43BAF94EA0C0F17
:104770000AD150EA01347FF434AF95EA0C0F7FF48C
:1047800025AF104619462CE795EA0C0F06D152EAE0
:1047900003353FF4FDAE1046194622E750EA4106C4
:1047A00018BF52EA43067FF4C5AE50EA41047FF4D5
:1047B0000DAF52EA43057FF4EBAE12E74FF0FF3C3A
:1047C00006E000BF4FF0010C02E000BF4FF0010C0B
:1047D0004DF804CD4FEA410C7FEA6C5C4FEA430C84
:1047E00018BF7FEA6C5C1BD001B050EA410C0CBFD3
:1047F00052EA430C91EA030F02BF90EA020F002035
:10480000704710F1000F91EA030F58BF994208BF9B
:1048100090422CBFD8176FEAE37040F00100704758
:104820004FEA410C7FEA6C5C02D150EA013C07D1AF
:104830004FEA430C7FEA6C5CD6D152EA033CD3D0FA
:104840005DF8040B704700BF8446104662468C46F4
:104850001946634600E000BF01B5FFF7B7FF002827
:1048600048BF10F1000F01BD4DF808EDFFF7F4FF50
:104870000CBF012000205DF808FB00BF4DF808EDDB
:10488000FFF7EAFF34BF012000205DF808FB00BFFE
:104890004DF808EDFFF7E0FF94BF012000205DF820
:1048A00008FB00BF4DF808EDFFF7CEFF94BF0120D5
:1048B00000205DF808FB00BF4DF808EDFFF7C4FFCE
:1048C00034BF012000205DF808FB00BF4FEA410221
:1048D000B2F1E04324BFB3F5001CDCF1FE5C0DD95E
:1048E00001F0004C4FEAC0024CEA5070B2F1004FA8
:1048F00040EB830008BF20F00100704711F0804FAB
:1049000021D113F13872BCBF01F00040704741F46F
:1049100080114FEA5252C2F11802C2F1200C10FA73
:104920000CF320FA02F018BF40F001004FEAC12357
:104930004FEAD32303FA0CFC40EA0C0023FA02F3FB
:104940004FEA4303CCE77FEA625307D150EA0133D1
:104950001EBF4FF0FE4040F44000704701F00040A1
:1049600040F0FE4040F40000704700BF53B94AB920
:10497000002908BF00281CBF4FF0FF314FF0FF3067
:1049800000F0C6B9ADF1080C6DE904CE00F058F89E
:10499000DDF804E0DDE9022304B0704707EE900A79
:1049A000F5EEC07AF1EE10FA01D400F00BB8F1EE9A
:1049B000677A08B517EE900A00F004F8404261EB00
:1049C000410108BDD0B5FFF78FFC0C4B0022064615
:1049D0000F46FFF7E1FC00F09DF90446FFF762FC8B
:1049E000074B0022FFF7D8FC02460B4630463946FB
:1049F000FFF71AFB00F08EF92146D0BD0000F03D14
:104A00000000F041D0B50C4B002206460F46FFF7E0
:104A1000C3FC00F07FF90446FFF744FC074B00227B
:104A2000FFF7BAFC02460B4630463946FFF7FCFA60
:104A300000F070F92146D0BD0000F03D0000F041CB
:104A40002DE9F047089D04468E46002B4DD18A4241
:104A5000944669D9B2FA82F252B101FA02F3C2F174
:104A6000200120FA01F10CFA02FC41EA030E944005
:104A70004FEA1C48210CBEFBF8F61FFA8CF708FB26
:104A800016E341EA034306FB07F199420AD91CEBFE
:104A9000030306F1FF3080F01F81994240F21C8130
:104AA000023E63445B1AA4B2B3FBF8F008FB103378
:104AB00044EA034400FB07F7A7420AD91CEB0404AD
:104AC00000F1FF3380F00A81A74240F2078164447D
:104AD000023840EA0640E41B00261DB1D440002302
:104AE000C5E900433146BDE8F0878B4209D9002D66
:104AF00000F0EF800026C5E9000130463146BDE8F0
:104B0000F087B3FA83F6002E4AD18B4202D3824259
:104B100000F2F980841A61EB030301209E46002D08
:104B2000E0D0C5E9004EDDE702B9FFDEB2FA82F25D
:104B3000002A40F09280A1EB0C014FEA1C471FFABB
:104B40008CFE0126200CB1FBF7F307FB131140EAA2
:104B500001410EFB03F0884208D91CEB010103F16F
:104B6000FF3802D2884200F2CB804346091AA4B231
:104B7000B1FBF7F007FB101144EA01440EFB00FE05
:104B8000A64508D91CEB040400F1FF3102D2A6456A
:104B900000F2BB800846A4EB0E0440EA03409CE709
:104BA000C6F12007B34022FA07FC4CEA030C20FAB6
:104BB00007F401FA06F31C43F9404FEA1C4900FAD6
:104BC00006F3B1FBF9F8200C1FFA8CFE09FB181153
:104BD00040EA014108FB0EF0884202FA06F20BD9C6
:104BE0001CEB010108F1FF3A80F08880884240F216
:104BF0008580A8F102086144091AA4B2B1FBF9F05A
:104C000009FB101144EA014100FB0EFE8E4508D954
:104C10001CEB010100F1FF346CD28E456AD90238D9
:104C2000614440EA0840A0FB0294A1EB0E01A142BE
:104C3000C846A64656D353D05DB1B3EB080261EB2C
:104C40000E0101FA07F722FA06F3F1401F43C5E906
:104C5000007100263146BDE8F087C2F12003D8403C
:104C60000CFA02FC21FA03F3914001434FEA1C477E
:104C70001FFA8CFEB3FBF7F007FB10360B0C43EA70
:104C8000064300FB0EF69E4204FA02F408D91CEB20
:104C9000030300F1FF382FD29E422DD9023863441E
:104CA0009B1B89B2B3FBF7F607FB163341EA0341BE
:104CB00006FB0EF38B4208D91CEB010106F1FF380D
:104CC00016D28B4214D9023E6144C91A46EA004604
:104CD00038E72E46284605E70646E3E61846F8E696
:104CE0004B45A9D2B9EB020864EB0C0E0138A3E7DF
:104CF0004646EAE7204694E74046D1E7D0467BE7C0
:104D0000023B614432E7304609E76444023842E737
:104D1000704700BF4A0011D212F5001211D20DD512
:104D20006FF47873B3EB62520ED44FEAC12343F0B1
:104D3000004343EA505323FA02F070474FF000005B
:104D4000704750EA013002D14FF0FF3070474FF00A
:104D50000000704710F8012B11F8013B012A28BF11
:104D60009A42F7D0D01A7047034613F8012B002A55
:104D7000FBD1181A0138704738B5002200230446C9
:104D80000D46FFF77BFD28B920462946BDE838408F
:104D9000FFF738BE204605F10041FFF733FE4042E1
:104DA00061EB410138BD00BF09480A49884208B596
:104DB00005D0094A824202D0121A06F0FFF80748CD
:104DC000074A0021121A06F021F9014808BD00BF68
:104DD0002C6D032068E50B00246F0320286F03204F
:104DE000FCE7032070B5074E074C04F091FEA41BAE
:104DF000A4080025AC4200D170BD56F8043B98478A
:104E00000135F7E714E50B003CE50B0001F022BC8F
:104E100008B502F069F9BDE8084004F031BE03F0BE
:104E200057BA03F055BA03F05BBA000008B5034A5D
:104E300003490C2003F020F9FEE700BFA97C0B001A
:104E400010D20B000078B0FA80F0400970470123BF
:104E50000370704770470000B5EEC00AF1EE10FA1B
:104E600029D9DFED167A9FED167A164BA0EE277A38
:104E7000F7EE007A37EE277AC0EE077A9FED120A36
:104E80009FED127A27EE800ADFED117A20EE077A85
:104E900060EE277AE7EE007A9FED0E7A77EEC77A1A
:104EA00030EE670AD3ED007A20EE270AB5EEC00A8D
:104EB000F1EE10FA01D59FED080A704704E78CBBAC
:104EC000B81E853D00F403207F6ABC3C3333B33EFB
:104ED0001F85EBBE96430B3D00000000024A0123F4
:104EE0001370024A1370704740C9032068C9032039
:104EF000064B9FED077AD3ED006AF6EE007AE6EEF8
:104F0000877AFDEEE77A17EE900A704700F40320E7
:104F100000007A44014B01201870704768C90320D3
:104F200010B5034B0360044602F024FD204610BD7B
:104F3000F4DD0B0010B50446FFF7F2FF20464FF4F6
:104F40000C71FFF770FF204610BD436913B18369F0
:104F50000C301847704713B500210446084602F08C
:104F600023FF0023204601A9019302F035FF019C95
:104F70000CB1012323710021012002F015FF2CB197
:104F8000236820469B6898470023237102B010BD18
:104F9000B0F5FC6F10B511D21A4B191801F57C5100
:104FA00082000C7800F5FC601A4444B903EB8003DE
:104FB00082ED000A144A1A6001230B7010BD92EDB5
:104FC000007ADFED127ADFED126A30EE470A03EB6A
:104FD0008003A0EE277A20EE000A93ED006A82EDAE
:104FE000007A60EE277AE6EE267ADFED0A6AF4EEC2
:104FF000667AF1EE10FA48BFF0EE667AC3ED007AF9
:10500000DCE700BF3C6F03200BD7233B0AD7A33C50
:1050100048E17A3F17B7D139012A02D10160002057
:105020007047022A04BF0B680360F8E7036818475B
:1050300007B5806830B10023CDE900131A4602217C
:1050400002F0D2FE03B05DF804FB37B505460C460E
:105050000021FFF7EDFFA86830B10023CDE9004340
:105060001A46194602F0C0FE03B030BD02460148A0
:1050700004F0DBBDFF9B0B000A4B10B50446036038
:1050800003F04EFD214603F098FF05F019F905F0F5
:1050900009F92046044B40F8043B03F017FE204674
:1050A00010BD00BFDCDD0B00C4DD0B0010B50446F5
:1050B000FFF7E2FF20462421FFF7B5FE204610BD92
:1050C00010B58368044613B1032201469847204671
:1050D00010BD000038B50F4B0360836804469BB1D8
:1050E0006FF00041FFF7A4FFA068002102F0A4FECA
:1050F000237903F0FF0513B102F04EFEF8E7A06834
:10510000294602F061FEA56004F10C00FFF7D8FF0C
:10511000204638BDB0DD0B0010B50446FFF7DAFFBE
:1051200020461C21FFF77FFE204610BD002340686B
:105130001A4603F015B800224068114603F028B85B
:1051400010B504468AB008464FF0200C0021CDE986
:105150000023CDE902C10B4602AA216802F094FFA8
:105160000AB010BD0EB403B503AB1E2153F8042BD7
:105170000193FFF7E5FF02B05DF804EB03B0704761
:1051800070B51B4B9B7A86B006460D463BB10B466D
:10519000184902461848FFF7E5FF06B070BD174BE7
:1051A00008461C7809B1FFF7DFFD00233C22CDE95A
:1051B00000328DF8084003462A46314604A804F020
:1051C00053FE059C7CB16368013B63605BB9236857
:1051D00020469B689847A368013BA3601BB92368DE
:1051E0002046DB68984706492B463246D2E700BF87
:1051F0002C6D032025D20B005CE603201CB6032097
:1052000036D20B000EB403B503AB282153F8042BA0
:105210000193FFF795FF02B05DF804EB03B0704710
:105220000EB403B503AB322153F8042B0193FFF7FF
:1052300087FF02B05DF804EB03B0704770B50E460F
:10524000144640F201614FF4DB7206F07BFE051E4E
:105250000BDB3146224606F093FE0646284606F052
:1052600069FEA31B5842584170BD0020FCE770B591
:105270000E460021144606F065FE051E0BDB314686
:10528000224606F073FE0646284606F053FEA31B90
:105290005842584170BD0020FCE7000010B511498C
:1052A00011484FF43672FFF7C9FF10484FF4DB7214
:1052B00040F2016106F046FE041E0CDB0C4904229C
:1052C00006F05EFE0B4944F2E062204606F058FE0E
:1052D000204606F02FFE034B0749DA880748FFF700
:1052E00041FF10BD1DB6032043D20B0053D20B006B
:1052F000FCDD0B003C6F032066D20B005CE6032054
:1053000037B504F0F7FA2A4C05464FF436722948AF
:105310002146FFF7ACFFE8B1E288B2F5B47F19D8B7
:105320002368BBB1AB4215D823492448FFF71AFFC5
:105330002348002106F006FE051E1ADA0021214846
:1053400044F2E06205F062FE1F491C48FFF70AFFC5
:1053500003B030BD1D481E49B5FBF0F500234543A1
:105360001648256023716371A371E371FFF7FAFE9C
:10537000DEE7042200240DEB0201019406F0F6FDA5
:1053800004280ED1134B019A9A420AD10D4944F2D6
:10539000E062284606F0EAFD44F2E064031B5C424A
:1053A0005C41284606F0C6FD002CC7D00A49CCE770
:1053B0001DB6032043D20B0088D20B005CE603200D
:1053C00053D20B003C6F0320C4D20B00805101006C
:1053D000AED20B004C444D4CF9D20B0007B5074B35
:1053E0000093074B1B68019305F0F6FC0822694601
:1053F000002002F079FC03B05DF804FB4C41434609
:1054000000F4032013B5002300240193009405F059
:10541000E3FC08222046694602F05EFC154B009A28
:10542000154C9A4221D1DDED017AF4EE677AF1EE66
:1054300010FA1AD1B6EE007AF4EEC77AF1EE10FA4D
:1054400013DBB0EE007AF4EEC77AF1EE10FA0CD866
:10545000C4ED007A2068FEF747FF02460B46074876
:105460000749FFF77FFE02B010BD064B2360FFF730
:10547000B5FFEFE74C41434600F403205CE6032010
:1054800016D30B00D7A3A03F1FB5094B0093094BC0
:1054900093E8070004AB03E9070005F09DFC102228
:1054A0006946202002F020FC05B05DF804FB00BF37
:1054B0004746434C04F4032010B58AB005F08CFC39
:1054C000102206A9202002F007FC154B069A9A42EA
:1054D000144B1DD10AAA12E9070083E80700124CF9
:1054E0006068FEF701FF0B46617B03910246217B5A
:1054F000A0680291CDE90423FEF7F6FEDDE904235E
:10550000CDE9000109490A48FFF72CFE0AB010BD99
:10551000084A07CA83E80700FFF7B6FFDFE700BFC6
:105520004746434C04F4032000F4032025D30B002A
:105530005CE60320D4D10B001FB5084A084B516923
:105540001069019302AB03C305F046FC0C2201A9CC
:10555000402002F0C9FB05B05DF804FB00F4032015
:105560005043495010B586B005F036FC0C220DEBC7
:105570000201402002F0B0FB039A0F4B0F4C9A42FD
:1055800004F110020FD104AB03CB20615160E38A18
:105590000193A38A0093228A638A09490948FFF785
:1055A000E1FD06B010BD0849CB6823610B6953606B
:1055B000FFF7C2FFEBE700BF5043495000F4032060
:1055C00055D30B005CE60320D4D10B0038B5484915
:1055D000B0FBF1F20723141DB4FBF3F3C3EBC303D9
:1055E000E31A01FB12004FF49674B0FBF4F04FF491
:1055F000907404FB03043F4B2DED028B1A1902F546
:105600007C52B0EE408A157835B92046FFF7C0FCD1
:105610000020BDEC028B38BD03EB8402D2ED008A82
:10562000DFED357A04F5FC6203EB820393ED000AAB
:10563000B4EE670AF1EE10FA48BFB0EE670A05F063
:105640006FFCB1EE007AF0EE687AE0EE077A2B4B51
:10565000B6EE007AF4EE477AF1EE10FA48BFF0EEBB
:10566000477AF4EEC87AF1EE10FA07D4244AD2ED64
:10567000017AF4EEC87AF1EE10FA25D51A680132F3
:10568000204821491A600368DFED207A01EB83018D
:1056900081ED008A0133062193FBF1F501FB1533FF
:1056A0001B4903600B681848052BDCBF01330B60F6
:1056B00009680023B1EE047A994207DDF0EC016A33
:1056C0000133E6EE877AF7E70022D9E7062907D10A
:1056D0000B4B93ED027AB4EEE77AF1EE10FA04D4B4
:1056E000022A02DCB0EE480A8FE7012091E700BFF2
:1056F000805101003C6F032017B7D139346F03206C
:1057000000F4032098C803209CC803200000000078
:10571000B4C80320F0B5204C2DED028BA7697B1C8B
:1057200085B005460E46B0EE408A0DD1C4E9065656
:1057300004EB8500D0ED087A37EE880A80ED080A80
:1057400005B0BDEC028BF0BD8742F1D004EB8703BE
:105750000290186AFEF7C8FD3A46CDE900010F49EC
:105760000F48FFF7FFFC002DE0D1E369B342DDD025
:10577000D4F88000FEF7B8FD0B46024609490848F8
:10578000FFF7F0FC6022294604F1200005F03EFC02
:105790000023C4F88030C9E700F403206FD30B0066
:1057A0005CE6032091D30B000D49CA88B2F5B47FA3
:1057B00014D29FED0C7AF6EE007AE0EE077A501CD8
:1057C000C88040F2E730FCEEE77A043217EE903AF8
:1057D0009BB2834228BF034621F81230704700BFB6
:1057E0001DB603200000C84208B502490248FFF771
:1057F000B9FC08BDB0D30B005CE603202DE9F043F3
:105800002DED028B0024244EDFF8A090B7B0254682
:10581000F6EC017A214AF6EE008AB2EE048AB0EE86
:10582000680A002C08BF4A4604ABA7EE880A5F1935
:10583000039205F02FFBC0EE087AC5F1C8080134C9
:1058400017EE900AFEF750FD039ACDE9000141469C
:10585000384602F055FD182C054401D0BB2DD7DD8C
:105860000F4BD3ED207AB0EE680AA7EE880A05F058
:1058700011FBC0EE087A17EE900AFEF735FD04AA78
:10588000CDE9000107490848FFF76CFC37B0BDECD3
:10589000028BBDE8F08300BF20F40320C2D30B00CD
:1058A00000F40320C8D30B005CE60320C3D30B0035
:1058B00070B50C4E0C4D06F11001284601F043FF67
:1058C000044640B100230949094886F88430FFF7AF
:1058D00049FC204670BD2A7806490548FFF792FC2E
:1058E000F7E700BF00F4032028C90320EDD30B0025
:1058F0005CE6032009D40B0010B586B004AC0F4859
:10590000214601F054FFB0B194E803000C4B83E84A
:1059100003000C4B0C4801221A709DF813300193C0
:105920009DF81230029100939DF810209DF81130DF
:105930000649FFF717FC06B010BD00BF28C90320B9
:10594000BCC80320B8C803205CE603202CD40B009D
:1059500007B50A4B01900021196002F0ADF9084B20
:10596000186002F0A9F9074B019A18600649074828
:10597000FFF7F8FB03B05DF804FB00BF60C903202C
:1059800000C9032064C9032065D40B005CE6032032
:1059900070B505463348FFF7DBFF284602F075FE79
:1059A000284602F064FE3049284602F015FE0646FD
:1059B000F8B10121072005F0D0F90121042005F0FC
:1059C000CCF90121032005F0C8F9284A53792BB9F5
:1059D0002749D1F888300133C1F888300123537149
:1059E000244A254813706FF00041FFF72EFB022078
:1059F00070BD2249284602F0EFFD0446B8B10121EE
:105A0000072005F0AAF93146042005F0A6F9012186
:105A1000032005F0A2F9154B17485E71154B0124C0
:105A20006FF000411C70FFF710FB2046E0E71449BF
:105A3000284602F0D1FD88B12146072005F08DF9F6
:105A40002146042005F089F92146032005F085F957
:105A500009486FF00041FFF7EBFAE6E74FF0FF303F
:105A6000C6E700BF81D40B008FD40B00D0C8032041
:105A700000F4032068C9032044C9032095D40B0017
:105A800028DC0B001FB5134B134C9A7922B9D4F8BC
:105A90008C200132C4F88C2001229A711A7922B923
:105AA000D4F890200132C4F8902001221A71237B8F
:105AB0004BB10A49684602F038FD6846FFF768FFB7
:105AC000684602F0E7FC637B13B1054B01221A70B4
:105AD00004B010BDD0C8032000F403208FD40B0005
:105AE00068C903202DE9F04F2DED068BADF5177D2C
:105AF0000C460790089203F0FDFE0026F025DDF825
:105B00001C80B0FBF5F0914FDFED919A9FED91AACB
:105B1000001B00FB0555B246B346B146A64262DA09
:105B2000B8F80230D7ED016A09EE103AB8EE490A2A
:105B3000013680EE260AFFF78FF9FB7AC6EEA97AC6
:105B4000B0EE408A67EE807AC7EE8A8AB3B118EE6B
:105B5000900AFEF7C9FBCDE9040118EE100AFEF722
:105B6000C3FBCDE902018DED019AB8F80030009336
:105B700079497A4823463246FFF7F4FADFED787A1E
:105B8000B4EE678AF1EE10FA4FF000012846A4BF88
:105B9000AB464FF0010903F04DFE00210990284665
:105BA00003F050FE099B0146B0EE680A1846FFF765
:105BB000B1FD6C4B93ED200A30EE280A284683EDA8
:105BC000200AB8F80230B0EE480A9A44FFF7FEFC0B
:105BD00008B1FFF757FFB0EE480AFFF7E5FDF035D3
:105BE00008F104089AE75F4DB9F1000F04D00123D2
:105BF00085F89430C5F898B0089B1E68089B5B68D0
:105C0000B24534BFA6EB0A0600269C4238BFA3EB80
:105C100004083B7B28BF4FF00008012B40F08C802C
:105C2000AEB3B8F1000F14BF4346234606EE903AD8
:105C300007EE906AF8EE666AF8EE677A97ED016A09
:105C400087EEA60A66EE866A80EE060AFFF704F97A
:105C50009FED3F7AC6EE877A9FED3E7A27EE800A67
:105C6000C0EE077A95ED207A37EE277A85ED207A17
:105C7000B8F1000F51D117EE900AFEF735FBCDE9D0
:105C8000006802460B4635483749FFF76BFA374B39
:105C9000D5F880009862FEF727FB354A354BB9F1FD
:105CA000000F08BF1346CDE90001029332492B488B
:105CB0002246FFF757FAFB7A4BB34F2C4FF0000503
:105CC000DFF8CC80D4BF274650272E46079B2B4AAF
:105CD00002330AA8002E08BF424633F82630C5F525
:105CE0000C71284402F00CFB0136B7420544EDD19B
:105CF000BC4207DD0AA8224AE31BC5F50C71284403
:105D000002F0FEFA1F4915480AAAFFF72BFA0DF513
:105D1000177DBDEC068BBDE8F08FB3EE087AC7EEB9
:105D2000876A194A1823013B92ED007A36EE877A8A
:105D3000A2EC017AF7D19EE7002EA8D013490748BC
:105D400043463246FFF70EFAA1E700BF2C6D032051
:105D500000007042E02DB03FADD40B005CE60320A4
:105D6000CDCCCC3D00F40320E7D40B00D0C80320F9
:105D7000E6DE0B009AD40B0073D50B00A9D40B0000
:105D80009ED50B00ADD50B0020F4032029D50B00C8
:105D9000AAD40B0013B5002904460192009108DD36
:105DA00003F08BFDDDE9001228B906490648FFF72C
:105DB00029FA02B010BD204602B0BDE81040FFF73E
:105DC00091BE00BFBFD50B005CE6032010B51422C6
:105DD0008AB000210DEB020005F018F917491848A8
:105DE00005AB4FF47A7201F023FC041E1FDBBDF8F3
:105DF00020300193079B0093124913480294DDE978
:105E00000523FFF7AFF974B10C4805AA2146FFF747
:105E1000C1FFFFF743FA0D4B93F884300BB1FFF746
:105E200047FD0AB010BD0A4B01221A70F3E7094979
:105E300005482246FFF7E6F9EDE700BFF6B8032074
:105E400028C90320E1D50B005CE6032000F4032001
:105E5000386F032012D60B0010B504461948FFF71F
:105E600077FD204602F011FC204602F000FC1649A6
:105E7000204602F0B1FB68B1144A13792BB91449DA
:105E8000D1F890300133C1F89030124B01201071DD
:105E9000187010BD1049204602F09EFB40B10B4B1C
:105EA000002018710D4B18600A4B01221A70F0E7A0
:105EB0000B49204602F090FB0028F0D14FF0FF3054
:105EC000E7E700BF26D60B0079D80B00D0C8032027
:105ED00000F4032068C9032028DC0B00346F032082
:105EE000AAD30B00084808B5FFF732FDFFF704FD01
:105EF000064B01221A70064B1B78002B14BF10466C
:105F00004FF0FF3008BD00BF34D60B0068C9032036
:105F1000B8C8032073B504462648FFF719FD20468C
:105F200002F0B3FB204602F0A2FB2349204602F018
:105F300053FBD8B101262148314601F068FC0546E3
:105F400008B1FFF7D9FC1E4B1E4A1F491F48012408
:105F50001C701A4B1B7800931D4B002D18BF134665
:105F60003246FFF7FFF80DB3204621E019492046DD
:105F700002F032FB0028DDD11749204602F02CFB4D
:105F800008B10226D7E71549204602F025FB002874
:105F9000F7D11349204602F01FFB08B10326CAE7D8
:105FA0001049204602F018FB0028F7D14FF0FF30CF
:105FB00002B070BD41D60B004DD60B0028C903209E
:105FC00068C903203DD60B0060D60B005CE60320B9
:105FD000D7DB0B009EDE0B0052D60B0057D60B0012
:105FE00059D60B005ED60B0008B50648FFF7B0FC8B
:105FF000054801F02CFC05490548FFF7B3F80120DE
:1060000008BD00BF87D60B0028C9032090D60B001F
:106010005CE6032008B50548FFF79AFCFFF748FC4B
:10602000002814BF01204FF0FF3008BDA4D60B009C
:10603000F0B504469DB02D48FFF78AFC204602F0DB
:1060400024FB2C21204602F0E7FA051E4BDD2B46EF
:106050000022214601A802F0E3FA6A1C214605A8A5
:1060600002F0FEFA01A802F010FB05A802F00DFBF9
:10607000039B53B94FF0FF3405A802F00BFA01A8B7
:1060800002F008FA20461DB0F0BD019F059D37B310
:106090003846FEF769FE06461DB32846FEF764FE45
:1060A0000446382200210DEB020004F0AFFF4C2320
:1060B000CDE909370D9403230D4C8DF838300023BA
:1060C0001946606809AACDE90B6502F089F8014616
:1060D0000028CFD12046FFF729F80124CCE73E461F
:1060E000DAE72C46DDE74FF0FF34CBE7ACD60B0008
:1060F0000CE7032010B50848084CFFF729FC0023E3
:106100001A461946606802F073F86068002202219E
:1061100002F036F8012010BDB4D60B000CE70320C6
:1061200038B504461B48FFF713FC204602F0ADFAD1
:10613000206804F027FF51EC100BFEF7C7FB07EEB9
:10614000900AF4EE677AF1EE10FA1FD1B6EE007AFB
:10615000F4EEC77AF1EE10FA18D4B0EE007AF4EE4D
:10616000C77AF1EE10FA11DC0B4D2860FFF736F913
:106170000A4B286801241C70FEF7B6F802460B464D
:1061800007480849FEF7EEFF204638BD4FF0FF30C4
:10619000FBE700BFBED60B0000F4032068C9032054
:1061A0005CE60320C9D60B002DE9F0432DED028BF0
:1061B00004468BB05C48FFF7CBFB204602F065FA43
:1061C0002C21204602F028FA00F1010907464A4630
:1061D0002C21204602F012FA00F101080546424641
:1061E0002C21204602F00AFA002F064603DB002D80
:1061F00001DB00280ADA4D484D49FFF703F84FF05C
:10620000FF300BB0BDEC028BBDE8F0833B460022B3
:10621000214606A802F004FA069804F0B3FE51ECF9
:10622000100BFEF753FB08EE900A06A802F032F9B5
:106230002B464A46214606A802F0F2F9069804F0D9
:10624000A1FE51EC100BFEF741FB08EE100A06A868
:1062500002F020F933464246214606A802F0E0F952
:10626000069804F092FE054606A802F013F9721C87
:10627000214606A802F0F4F9069804F086FE0646C8
:1062800006A802F007F9DFED2B7AF4EEE78AF1EECB
:1062900010FA3CD4DFED287AF4EEE78AF1EE10FA3A
:1062A00035DCF7EE007AB4EEE78AF1EE10FA31D47D
:1062B000DFED227AB4EEE78AF1EE10FA2ADC012D46
:1062C0002BD8022E2CD81E4BC3ED018A83ED028AF7
:1062D0001D735E73FFF7D8F81A4B01241C7018EE7B
:1062E000900AFEF701F802460B4618EE100ACDE9B7
:1062F0000423CDE90256FDF7F7FFDDE90423CDE9DC
:1063000000010A481049FEF72DFF204679E76FF09B
:10631000010076E76FF0020073E76FF0030070E7AB
:106320006FF004006DE700BFDBD60B005CE60320D6
:10633000E5D60B00CDCCCC3D0000484300007A44AC
:1063400000F4032068C9032002D70B002DE9F043B5
:10635000044687B04C48FFF7FBFA204602F095F957
:106360002C21204602F058F900F1010905464A4661
:106370002C21204602F042F9471C06463A462C21C1
:10638000204602F03BF9002D804603DB002E01DBA6
:10639000002808DA3D483E49FEF734FF4FF0FF3051
:1063A00007B0BDE8F0832B460022214602A802F088
:1063B00037F9029804F0EDFD054602A802F06AF8EC
:1063C00033464A46214602A802F02AF9029804F010
:1063D000E0FD064602A802F05DF843463A46214633
:1063E00002A802F01DF9029804F0D3FD074602A8A6
:1063F00002F050F808F10102214602A802F030F93B
:10640000029804F0C6FD804602A802F043F86A1E16
:106410004FF6E7539A422BD8721E9A422BD87A1E17
:106420009A422BD808F1FF329A422AD8194C1A48BE
:1064300002A901F057F925826682A782A4F8168086
:10644000FFF77AF8154A164910480123137084F8AB
:1064500084302A463346CDE90078FEF783FEFFF705
:1064600027FAFFF749FA94F8840080F0010097E7D3
:106470006FF0010094E76FF0020091E76FF0030006
:106480008EE76FF004008BE72ED70B005CE603204D
:106490003CD70B0000F4032028C9032068C903205F
:1064A0005DD70B0013B50C480C4CFFF751FA0C48A4
:1064B000694601F017F950B16B4603CB094A1061E8
:1064C0005161FFF739F80120207002B010BD01239F
:1064D00023704FF0FF30F8E77ED70B0068C9032028
:1064E00028C9032000F4032008B501F0E5FB064BA2
:1064F000186001F0BDFE054B0549064804221A70DC
:10650000FEF730FE08BD00BF40E70320CCC80320E3
:106510008CD70B005CE603202DE9F0472E482F4E68
:106520008CB0FEF708FE044658B101F0B1FE40B150
:1065300032782B4B002A4AD103221A70294B0122B0
:1065400046E0294D01F0B8FB2B68C01A41F28733B1
:10655000984227D901F0B0FB1F4B2860002211465A
:10656000586801F0F5FD811C06A803F015FE01F046
:10657000A3FB9DF81F709DF81E809DF81D909DF84F
:106580001CA0054601F084FE4FF47A72CDE903A009
:10659000B5FBF2F2CDE9018914491548009723466D
:1065A000FEF7E0FD3378A3B901F086FB114B98426A
:1065B0000FD9114A11490E48FEF724FE0121104857
:1065C00001F04AF90CB0BDE8F047FFF78DBF022299
:1065D0001A700CB0BDE8F0870CE70320FCC803205C
:1065E000CCC8032068C90320C4C80320BFD70B0050
:1065F0005CE603207F38010080380100F3D70B00F0
:1066000028C9032038B503F058F9F0B10F4C01F058
:1066100053FB2368C01AB0F5FA6F16D301F04CFB98
:106620000B4D206000232B7004240120013CFFF758
:10663000CDFB14F0FF0402D02B78002BF5D0FFF730
:10664000D3F8BDE83840FFF7D9B838BDC8C8032033
:10665000386F03202DE9F0432DED028B8C4C91B067
:1066600003F02EFE4FF4E13103F018FEA37AEBB1F4
:10667000002001F049FB0546002001F045FB401BCE
:1066800061F10001B0F5FA5F71F1000307D203F088
:1066900017FE03F00AFE10B901F0EAFDECE703F083
:1066A0000FFE03F002FEE08903F03EF9BAEE000AA5
:1066B00003F0D0F8774A78497848DFF8E891DFF8B6
:1066C0007482764FFEF74EFDFEF79CFEFEF7F4FE59
:1066D000FEF748FF0121072004F02EFB01210420D2
:1066E00004F02AFB0121032004F026FB02211220E2
:1066F00004F022FB6A490CA801F017FF0CA8FFF771
:1067000047F90CA801F0C6FE66484FF4164100F0A8
:106710001DFE65496548FEF7A9FC65496548FEF719
:10672000A5FC65496548FEF7A1FC65496548FEF78B
:106730009DFC65496548FEF799FC65496548FEF78B
:1067400095FC65496548FEF791FC65496548FEF78B
:106750008DFC65496548FEF789FC65496548FEF78B
:1067600085FC65496548FEF781FC65496548FEF78B
:106770007DFC65496548FEF779FC65496548FEF78B
:1067800075FC654B00221A60FEF7BAFD6349434869
:10679000FEF7E8FC01250CA9484601F08DF80246F9
:1067A000002858D19DF83030002B45D0DDED0D7A12
:1067B000DFED5B6ABDF838009DF83A60BDF83E1029
:1067C0000E9A9DF83B70A260F8EE677A012387EE7F
:1067D000A67A23709DF83C302373E1819DF8312027
:1067E000099284ED017ACDE9020617EE100ACDE98F
:1067F0000615CDE90473FDF777FD099ACDE900018F
:1068000048492648FEF7AEFC0123264F464E234D4D
:106810008DF82B300DF12B01384601F029F8814617
:10682000002800F0898028463146FEF7EBFC4FF443
:106830007A7003F079F8EDE76068FDF755FD029591
:106840000B46A17A019121890091024637491348EC
:10685000FEF788FCD8E705262B46414638460096C9
:10686000FEF7D0FC0135C82003F05EF8062D92D16A
:10687000A37A0393238902936068FDF735FD3246BE
:10688000CDE900012A490548FEF7BCFCBCE700BF82
:106890002C6D032076D80B007CD80B005CE603201F
:1068A00028DC0B0028C9032091590B0081D40B0070
:1068B000595E0B0026D60B0021610B00BED60B00E3
:1068C000F14E0B0094D80B00A9610B00DBD60B0036
:1068D000154F0B009FD80B004D630B002ED70B00FC
:1068E000A5640B007ED70B00E55E0B0034D60B00D1
:1068F000155F0B0041D60B00E95F0B0087D60B003C
:1069000015600B00A4D60B0031600B00ACD60B0059
:10691000F5600B00B4D60B00D0C80320A9D80B003B
:1069200000007A44CCD80B002FDA0B0041D90B00C1
:10693000CED90B00A4D90B009DF82B30464D474A09
:1069400047494848DFF85881474F484E002B0CBF55
:10695000012300232B70464B18BF1A46FEF702FC9A
:10696000A17A002955D04348258994ED018ACDF8B4
:106970002C9004220BA9FEF77AFC002842D03E4B53
:106980000B9A9A423ED907EE905AF8EE677A67EE74
:10699000887AFCEEE77A17EE904A01F08DF90B9BAE
:1069A000584003F0B2FF38EE088AFCEEC87A17EEC2
:1069B000900A411C404203F09EFF0B9B2F491A197D
:1069C0000244CDE9004027480C92FEF7CBFB0C981F
:1069D000002102F05FFF0CA904222648FEF72EFCDE
:1069E00001F06AF9C8F8000001F066F90323386085
:1069F00023491C483370FEF7B5FB11B0BDEC028B88
:106A0000BDE8F0831F4A204916480C92FEF7AAFB06
:106A1000DDE71E4C09910A460B46606801F0C0FB99
:106A200009992046FEF782FB01F02AFC184B01244D
:106A30001C7001F041F9C8F8000001F03DF9297817
:106A4000144B154A3860002908BF1A4605481349F7
:106A50003470FEF787FBD0E7FCC803202ED80B006C
:106A60005EDA0B005CE6032000C90320CCC80320DB
:106A70004ED80B0073DA0B007F85746786DA0B0043
:106A8000F6DA0B0080857467C4DA0B000CE703208C
:106A900068C9032062D80B0055D80B0048DB0B00F7
:106AA00064C9032070B5D0E900531426044606FBE0
:106AB0000356AE4204D0284601F0ECFC1435F8E74A
:106AC000206801F00DFC204670BD37B50446154620
:106AD000019101F05BF801990122204600F0C4FF0A
:106AE00020463A2100F074FF01222946204603B0D7
:106AF000BDE8304000F0B8BF37B5044615460191F7
:106B000001F044F801990122204600F0ADFF204633
:106B10003A2100F05DFF04492A46204603B0BDE853
:106B2000304000F094BF00BF23D60B002DE9F04F9A
:106B3000DFF860A1BAF80650ADF56B7D002D00F0CE
:106B40008A8078237735B5FBF3F5ABB20193002744
:106B5000C7EB0716BAF80640F600B6B2A41BA4B2FB
:106B6000782C4FF0000928BF7824C8460DF10C0B93
:106B70001FFA89F3A34212D209EB06030433C8F5C6
:106B8000B4710BEB08003AF81330354A013101F0CB
:106B9000B7FB8044B8F5B47F09F10109E8D30023BD
:106BA0004FF400726AA95EA80BF8083000F0FEFEF0
:106BB0002C4B5E937D227B215EA800F0F2FF2A4AD7
:106BC0002A495EA8FFF781FFDAF8002028495EA86D
:106BD000FFF792FF01372749F0225EA8FFF78CFFED
:106BE00025493A465EA8FFF787FF24492A465EA852
:106BF000FFF782FF224932465EA8FFF77DFF214959
:106C000022465EA8FFF778FF5EA800F0BFFF0122D2
:106C10001D495EA800F028FF3A215EA800F0D8FECA
:106C2000012259465EA800F01FFF5EA800F0DEFEBC
:106C30005F991648FEF7A4FA154B9B7A1BB940F2F0
:106C40004C4002F071FE5EA8FEF76AF9019ABBB2F1
:106C50009A423FF67DAF0DF56B7DBDE8F08F00BF2A
:106C600072DB0B00F4DD0B0076D80B0077DB0B003A
:106C700080DB0B0088DB0B0094DB0B009ADB0B0046
:106C8000A6DB0B00B2DB0B00BEDB0B00C3DB0B0093
:106C90002C6D03201DB6032013B504468DED000AAC
:106CA000019100F073FF01990122204600F0DCFE03
:106CB00020463A2100F08CFE9DED000A204602B0ED
:106CC000BDE8104000F086BFF0B59C4E2DED048B62
:106CD000B37AADF5177D6BBB9948FEF72CFA0446E5
:106CE00040BB01469648964FFEF720FA204601F039
:106CF0000BF844F620650446002001F005F8001B5F
:106D000061F10001A84271F1000306D23846FEF796
:106D100012FA10B901F0ACFAEEE78948FEF70BFA67
:106D200040B988498848FEF77BFA0DF5177DBDEC20
:106D3000048BF0BD4FF4007216A90AA800F036FECD
:106D4000824D834B0A937D227B210AA8814C00F05F
:106D500028FF814A81490AA8FFF7B7FE2A688049BF
:106D60000AA8FFF7C9FED4F890207E490AA8FFF7C9
:106D7000C3FED4F888207C490AA8FFF7BDFED4F8EA
:106D80008C207A490AA8FFF7B7FE95ED020A7849E8
:106D90000AA8FFF781FF94ED000A76490AA8FFF7D9
:106DA0007BFF94ED010A74490AA8FFF775FF94ED83
:106DB000020A72490AA8FFF76FFF227B70490AA8EE
:106DC000FFF79AFE627B6F490AA8FFF795FE228AB9
:106DD0006D490AA8FFF790FE628A6C490AA8FFF77E
:106DE0008BFEA28A6A490AA8FFF786FEE28A6949F1
:106DF0000AA8FFF781FE94F8842067490AA8FFF7E4
:106E00007BFE664B1B78CBB1654D6649AA780AA814
:106E1000FFF772FEEA7864490AA8FFF76DFE2A7848
:106E200062490AA8FFF768FE6A7861490AA8FFF775
:106E300063FE6A685F490AA8FFF75EFE5E495F4F1E
:106E40000AA800F0E7FE1825F2EE048AB6EE009AD2
:106E5000F7EC017AB0EE490AA7EEA80A04F01AF896
:106E60000AA8B0EE408A00F091FE88EE280A0AA82F
:106E700000F0B0FE013DEBD10AA800F0B7FDB37AF7
:106E8000002B4FD02A464E494E4D0AA8FFF734FE3C
:106E9000002101A802F05EFD01A802F0B1FD4A49FF
:106EA0000AA8FFF7F9FE01F0D2FA484902460AA8FB
:106EB000FFF722FE002000F027FF00234FF47A7234
:106EC000FDF754FD424902460AA8FFF715FE01A846
:106ED00002F050FD0AA800F089FD0B993D48FEF72D
:106EE0004FF9FFF723FEEB88B3F5B47F0FD302F021
:106EF00001FD394BB0FBF3F05843286000233749BC
:106F000011482B716B71AB71EB71FEF72BF9FEF72A
:106F1000C5F900230AA8C4E92233C4F89030FDF76C
:106F2000FFFF02E7064901A803F0A8FD01A803F04E
:106F300023FDFDEEC07A17EE902AA4E72C6D032006
:106F40000CE70320D2DB0B005CE60320D0C8032053
:106F5000F4DD0B0000F4032076D80B0077DB0B0088
:106F6000DCDB0B00E3DB0B00EBDB0B00F3DB0B00EC
:106F70004DD60B00FCDB0B0004DC0B000FDC0B0020
:106F80001DDC0B002CDC0B0039DC0B0048DC0B009B
:106F900055DC0B0064DC0B0071DC0B00B8C803206F
:106FA000BCC8032080DC0B008CDC0B009BDC0B00DE
:106FB000A4DC0B00AEDC0B00BDDC0B0020F40320D6
:106FC000CBDC0B001DB60320D0DC0B00D8DC0B00A3
:106FD000E0DC0B00E7DC0B0080510100F2DC0B0071
:106FE0007FB5334DAB7A1BBB02F067FC90B900F064
:106FF00063FE304B984259D92F49304A3048FEF74A
:1070000001F901212F4800F027FC04B0BDE87040D1
:10701000FFF76ABA02F06EFC2B4AD2F89C3083422A
:107020009FBFF023B0FBF3F000FB0333C2F89C30AA
:10703000264E0023337004240120013CFEF7C6FED7
:1070400014F0FF0402D03378002BF5D0204E214CF1
:1070500033787BB12049684601F067FA6846FEF74D
:1070600097FC684601F016FA1C4A0023938001221F
:1070700022703370144B93F884300BB1FEF718FC78
:10708000FEF73AFCFEF7B0FBFEF7B8FBFFF71CFE7D
:10709000FEF704F900232370AB7A2BB1104908489E
:1070A000FEF760F80021ADE70E49F8E704B070BDC7
:1070B0002C6D03207F38010000DD0B0080380100BB
:1070C0005CE6032028C9032000F40320386F032066
:1070D00040C9032068C9032028DC0B00D0C8032066
:1070E00046DD0B0078DD0B0008B500F0E5FD0C4B2C
:1070F000186001F0BDF80B4B1B78022B0AD006D9A3
:10710000032B0AD0BDE80840052002F00DBCFFF7B4
:1071100003FAF7E7FFF776FAF4E7FFF761FFF1E725
:1071200040E70320CCC803208842F8B504460D464A
:10713000164616D9904215D2A2F11406751AA1F17D
:1071400014072C44B7421CD02CB13146204601F024
:107150001EFA337C2374304601F09CF9143E143C33
:10716000F0E70ED0B5420CD02CB12946204601F0F4
:107170000EFA2B7C2374284601F08CF91435143454
:10718000F0E7F8BD2DE9F0410023C0E9003383604A
:107190004F689F4204460E4623DD4FF0140808FB5B
:1071A00007F001F095F80546D8B1D4E9001208FBC4
:1071B0000212FFF7B9FF206801F092F82560A7607E
:1071C000D6E9007308FB0378B84508D0394628464D
:1071D00001F0F7F93B7C2B7414371435F4E773682E
:1071E00063602046BDE8F0812DE9F043434B444FF6
:1071F000002491B01C7003F049FD23462246022171
:1072000003F054FD03F042FD0C212346224603F017
:1072100045FD3C4B3C4A9A60C3E90044032000F022
:1072200053FFCDE90344059403F04AF809AE8046C4
:1072300003A906A8FFF7A6FFB94606A93046FFF73F
:10724000A1FF324B49F8043B0CAD31462846FFF70D
:1072500099FF2A461E21484601F092FF2846FFF773
:1072600021FC3046FFF71EFC294B3B6006A8C7F8FF
:107270002080FFF717FC274B3B6003F021F84FF409
:10728000165103F00BF801F04BFC394601F04EFEAD
:1072900003A8FFF707FC0121084600F055FD1E4B2F
:1072A0001E4A1C701E4B0C9395E803001D4B1A6080
:1072B00003F10C0286E8030092E8030085E803006E
:1072C00096E8030082E80300174A5A619A690F9210
:1072D000164A9A6101221C719C6042F21071009260
:1072E00003F10800124A01940E9400F065FD28464F
:1072F000FDF7E6FE11B0BDE8F08300BF1CB6032029
:1073000004C90320286F03200000FFFFC4DD0B0029
:1073100004DF0B00DCDD0B0028C90320B0DD0B000F
:10732000DD4E0B0044C9032019500B002D500B00FB
:10733000574F0B0070B5044D064604460FCD0FC4E1
:107340002B682360304670BDE8D10B0010B50A20D1
:107350000C46022103F0F0FC03F01AFD2146002246
:10736000BDE8104003F0FCB908B503F011FD036857
:107370001B69984728B103F00BFD03685B699847C8
:10738000F3E708BDF8B50D46164600F095FC074634
:1073900003F0FEFC03681B699847044630B900F00F
:1073A0008BFCC31BB342F3D3204606E003F0F0FC92
:1073B00003685B69984728700120F8BD30B5024624
:1073C00001444AF201054FF6FF708A420FD012F8CD
:1073D000013B0824584000F00103400813B180EA43
:1073E000050398B2631E13F0FF04F4D1EDE730BD3E
:1073F00070B51D46AA234370552383702B0A037171
:107400000446C1704571002399B24E1D8D4214FA95
:1074100086F603D9D15C71700133F5E7E91C89B2B6
:10742000E01CFFF7CBFF030A7370AB1D14FA83F364
:1074300058702046FFF798FF03F0AAFC0368EA1D86
:1074400092B2611CDB68984703F0A2FC0368DB6919
:107450009847012070BD10B4DC1D172C03D85DF8CF
:10746000044BFFF7C5BF00205DF8044B70472DE9C2
:10747000F04387B0144680460E46994600F01CFC47
:107480000F9A002517188DF80B5000F015FC381ACC
:10749000002804DC6FF0010007B0BDE8F08305228E
:1074A0000DF10B014046FFF76DFF0028EDD0AA2D2E
:1074B0009DF80B50E9D1552DE7D100F0FDFB381AAE
:1074C000002801DC012202E000F0F6FB3A1A002558
:1074D00004AB591940460192FFF754FF0028D9D058
:1074E0000135032D019AF3D1BDF811707FBABDB2F9
:1074F000A9454ED32544A146A945019237D103A9F8
:107500004046FFF73FFF0028C4D0019A0DF10D015E
:107510004046FFF737FF0028BCD0BDF80C809DF82F
:1075200011308DF815309DF810909DF812308DF8BF
:10753000149098FA98F8032105A88DF816301FFAD0
:1075400088F8FFF73BFF4AF20102AC4219D014F869
:10755000013B584080B2082300F00101C0F34F0006
:1075600001B15040013B13F0FF03F5D1EDE749466F
:107570004046FFF707FF09F10109019A0028BBD136
:1075800088E7404508D10E9B86F8009000201F80B8
:1075900082E76FF006007FE76FF002007CE72DE9DD
:1075A000F04F85B005469DF838A0BDF840B00E46B6
:1075B0001746984604244FF0000943463A463146A0
:1075C0002846FFF748FF48B3129B01930DF10E03C5
:1075D00000930F9A8DF80D905B460DF10D01284632
:1075E000ADF80E90FFF743FFD0B99DF80D308F2B0B
:1075F0000AD1BDF80E300BB10F9B1B782B706FF0CA
:10760000050005B0BDE8F08F53450ED1119B002B4E
:10761000F7D0119ABDF80E301380F2E74FF0FF302B
:10762000013C14F0FF04C8D1EBE76FF00400F7E76A
:10763000F0B589B017464FF47A6204920DF11E023C
:10764000039240F6CA32264E02921D468122002342
:107650000C46009201961A460121ADF81E30FFF744
:107660009EFF002837D1BDF81E20112A31D9D6F847
:107670000E1009BAB1F57A7F2BD801EB4103123312
:10768000934226D18F4228D365B1B389B26870681E
:107690003668296136BA00BA12BA5BBA2E606860E1
:1076A000AA60AB810E4D0020A61C884205F103059F
:1076B00011D02B7CEA7B1B0243EA02436A7C1A430B
:1076C0009B0B24F82030C2F30D0326F82030013044
:1076D000EBE76FF0030009B0F0BD6FF00600FAE7CA
:1076E00069DA032030B58BB04FF47A7304930DF14F
:1076F0001E0303930823029308AB00250193822302
:107700000C4600932A462B460221ADF81E50FFF787
:1077100046FFB0B9BDF81E30082B10D1BDF820309F
:107720005BBA2380BDF822305BBA6380BDF8243099
:107730005BBAA380BDF826305BBAE38001200BB0B2
:1077400030BD2846FBE700B58BB00B888DF82130A3
:107750001A0A4B888DF820208DF823301A0A8B885E
:107760008DF822208DF825301A0ACB888DF8242038
:107770008DF827301A0A0023ADF81E304FF47A73C3
:1077800004930DF11E0303930223029307AB0193AD
:107790008E238DF82620009308AA08230321FFF7E3
:1077A000FEFEB0FA80F040090BB05DF804FB30B586
:1077B0008BB04FF47A7304930DF11E0303930823E7
:1077C000029308AB0025019384230C4600932A46BC
:1077D0002B460421ADF81E50FFF7E1FEA8B9BDF815
:1077E0001E30082B0FD19DF8203023709DF82130DA
:1077F00063709DF82230A3709DF82330E370099BDD
:107800001BBA636001200BB030BD2846FBE700B512
:1078100089B00023ADF81E304FF47A7304930DF154
:107820001E0303930223029307AB019301F00301AC
:107830008E238DF81810009306AA01230521FFF767
:10784000AEFEB0FA80F0400909B05DF804FB0023F9
:107850001A460621FFF7FFBD07B501238DF8071073
:107860000DF107020721FFF7C3FD03B05DF804FB2C
:1078700010B588B04FF47A7204920DF11E02039293
:107880000122029207AA0023019288220C4600924C
:1078900008211A46ADF81E30FFF781FE38B9BDF851
:1078A0001E30012B05D114B19DF81C30237008B097
:1078B00010BD6FF00300FAE710B58CB04FF47A7288
:1078C00004920DF11E0203920D22029208AA0023D7
:1078D000019289220C46009209211A46ADF81E3009
:1078E000FFF75DFE40BBBDF81E300D2B26D11CB34B
:1078F0009DF82030003B18BF012323709DF82130F4
:107900006370DDF822301BBA6360BDF826305BBAC5
:1079100023819DF82830003B18BF0123A3729DF8F6
:107920002930003B18BF0123E3729DF82A302373EE
:10793000BDF82B305BBAE3810CB010BD6FF00300D3
:10794000FAE7000010B5054B0360037C04461BB941
:10795000406808B100F0C4FC204610BD18DE0B00E2
:1079600010B50446FFF7EEFF20461421FDF75BFA41
:10797000204610BD10B5034B03600446FFF7E2FF3D
:10798000204610BD28DE0B0010B50446FFF7F2FFBD
:1079900020463021FDF747FA204610BD0023012282
:1079A000C3604361028380F82A307047C0E9011246
:1079B00008B50022C26001220274044A02604FF03E
:1079C000FF32C262FFF7EAFF08BD00BF28DE0B00EE
:1079D000D0E9022310B593423FBF42685C1CC460EB
:1079E000D15424BF012380F82A3010BD10B543695B
:1079F000044643B100EB4303597E09B1FFF7E8FFAA
:107A00006369013B6361D4E90210636888424FF007
:107A100000022ABF5B181A5403F8012C10BD70B580
:107A20000446D0E9025066682D1A134630440A46CF
:107A3000294600F06DFC85422DBFE368A368E36032
:107A4000C01836BF0123E06084F82A3070BD0EB440
:107A500003B503AA52F8041B0192FFF7E0FF02B03E
:107A60005DF804EB03B070472DE9F84304460E4679
:107A7000174612B12221FFF7ABFFDFF80C8100257A
:107A8000715D06EB0509002974D0D4E902329A42EF
:107A900070D20B0634D501F0F003E02B05F101099B
:107AA0001DD116F8092002F0C003802B39D105F151
:107AB000020916F8093003F0C000802831D103F024
:107AC0003F03920143EA013302F47C621A4392B20B
:107AD00041462046FFF7BBFF4D460135D0E701F098
:107AE000E003C02B1DD116F8093003F0C002802A34
:107AF00017D1890101F4F86203F03F031A43E7E765
:107B00000D290AD807290CD9A1F10803052B08D89B
:107B1000DFE803F009231707111D222923D05C2970
:107B200021D0204604E05C212046FFF751FF62216E
:107B3000FFF74EFFD1E75C212046FFF749FF6621A2
:107B4000F6E75C212046FFF743FF6E21F0E75C215A
:107B50002046FFF73DFF7221EAE75C212046FFF750
:107B600037FF7421E4E75C212046FFF731FF99F8E5
:107B70000010DDE72FB120462221BDE8F843FFF7D2
:107B800027BFBDE8F88300BF00DE0B00426900EBB1
:107B900042031A7E12B100221A7670472C21FFF799
:107BA00017BF73B5436901910133082B16460FD8EF
:107BB000FFF7ECFF4369019900EB43045A1C0125D0
:107BC0004261A576E676FFF703FF284602B070BD56
:107BD0000020FBE737B5044610EE100AFCF784FBE3
:107BE000E56A002D02460B4608DBCDE90023074974
:107BF0002A462046FFF72BFF03B030BD044920463C
:107C000003B0BDE83040FFF722BF00BF07DE0B0026
:107C10000CDE0B0013B504460191FFF7B7FF019985
:107C20000122FFF721FF3A212046FFF7D1FE6369C9
:107C30000C33012204F813205B215D2202B0BDE861
:107C40001040FFF7AEBF000008B5024B1B689B68F1
:107C5000019308BD6802030008B5024B1B68DB688E
:107C6000019308BD6802030008B5024B1B689B68BE
:107C7000019308BD2C02030008B5024B1B68DB68AA
:107C8000019308BD2C02030008B5024B1B681B6959
:107C9000019308BD2C02030008B5024B1B685B680A
:107CA000019308BD1802030008B5024B1B68DB688E
:107CB000019308BD1802030008B5024B1B685B69FD
:107CC000019308BD1802030008B5024B1B689B6AAC
:107CD000019308BD1802030008B5024B1B685B6CDA
:107CE000019308BD1802030008B5024B1B689B6C8A
:107CF000019308BD1802030008B5024B1B689B6D79
:107D0000019308BD1802030008B5024B1B68DB6D28
:107D1000019308BD1802030008B5024B1B685B6E97
:107D2000019308BD1802030008B5024B1B689B6E47
:107D3000019308BD1802030008B5024B1B685B6D78
:107D4000019308BD3402030008B5024B1B685B6E4B
:107D5000019308BD3402030008B5024B1B681B6881
:107D6000019308BD8402030008B5024B1B685B68E1
:107D7000019308BD8402030008B5024B1B689B6891
:107D8000019308BD8402030008B5024B1B68DB6841
:107D9000019308BD8402030008B5024B1B68DB6831
:107DA000019308BD4802030008B5024B1B68DB695C
:107DB000019308BD4802030008B5024B1B681B6A0B
:107DC000019308BD4802030008B5024B1B685B6ABB
:107DD000019308BD4802030008B5024B1B689B6A6B
:107DE000019308BD4802030008B5024B1B68DB6A1B
:107DF000019308BD4802030008B5024B1B685B6C89
:107E0000019308BD4802030008B5024B1B689B6C38
:107E1000019308BD4802030008B5024B1B68DB6CE8
:107E2000019308BD4802030008B5024B1B685B6D57
:107E3000019308BD4802030008B5024B1B681B6F85
:107E4000019308BD4802030008B5024B1B685B693B
:107E5000019308BD6402030008B5024B1B689B68D0
:107E6000019308BD3C02030008B5024B1B68DB68A8
:107E7000019308BD3C02030008B5024B1B681B6957
:107E8000019308BD3C02030008B5024B1B685B6907
:107E9000019308BD3C02030008B5024B1B689B69B7
:107EA000019308BD3C02030008B5024B1B68DB6967
:107EB000019308BD3C02030008B5024B1B681B6A16
:107EC000019308BD3C02030008B5024B1B689B6A86
:107ED000019308BD3C02030008B5024B1B68DB6A36
:107EE000019308BD3C02030008B5024B1B681B6CE4
:107EF000019308BD3C02030008B5024B1B689B6957
:107F0000019308BD2802030008B5024B1B68DB691A
:107F1000019308BD2802030008B5024B1B681B6AC9
:107F2000019308BD2802030008B5024B1B685B6A79
:107F3000019308BD2802030008B5024B1B689B6A29
:107F4000019308BD2802030008B5024B1B68DB6AD9
:107F5000019308BD2802030008B5024B1B681B6B88
:107F6000019308BD2802030008B5024B1B685B6B38
:107F7000019308BD2802030008B5024B1B681B6C67
:107F8000019308BD2802030008B5024B1B689B6CD7
:107F9000019308BD2802030008B5024B1B68DB6C87
:107FA000019308BD2802030008B5024B1B681B6D36
:107FB000019308BD2802030008B5024B1B68DB696A
:107FC000019308BD3002030008B5024B1B681B6A11
:107FD000019308BD3002030008B5024B1B681B6803
:107FE000019308BD4C02030008B5024B1B685B6897
:107FF000019308BD4C02030008B5024B1B689B6847
:10800000019308BD4C02030008B5024B1B681B69B5
:10801000019308BD4C02030008B5024B1B685B6965
:10802000019308BD4C02030008B5024B1B689B6915
:10803000019308BD4C02030008B5024B1B68DB69C5
:10804000019308BD4C02030008B5024B1B681B6A74
:10805000019308BD4C02030008B5024B1B689B6AE4
:10806000019308BD4C02030008B5024B1B685B6F0F
:10807000019308BD7402030008B5024B1B685B6BDB
:10808000019308BD6002030008B5024B1B685B6DDD
:10809000019308BD6002030008B5024B1B68DB6E4C
:1080A000019308BD6002030008B5024B1B681B6FFB
:1080B000019308BD6002030008B5024B1B681B68F2
:1080C000019308BD2002030008B5024B1B685B68E2
:1080D000019308BD2002030008B5024B1B685B69D1
:1080E000019308BD2002030008B5024B1B68DB6C3E
:1080F000019308BD2002030008B5024B1B685B6DAD
:10810000019308BD2002030008B5024B1B689B6D5C
:10811000019308BD2002030008B5024B1B68DB6D0C
:10812000019308BD2002030008B5034B1B68D3F878
:108130008830019308BD00002002030008B5034BFE
:108140001B68D3F89430019308BD0000200203009F
:1081500008B5024B1B681B68019308BD4002030071
:1081600008B5024B1B685B68019308BD4002030021
:1081700008B5024B1B689B68019308BD40020300D1
:1081800008B5024B1B68DB68019308BD4002030081
:1081900008B5024B1B681B69019308BD4002030030
:1081A00008B5024B1B685B69019308BD40020300E0
:1081B00008B5024B1B689B69019308BD4002030090
:1081C00008B5024B1B68DB69019308BD4002030040
:1081D00008B5024B1B681B6A019308BD40020300EF
:1081E00008B5024B1B689B6A019308BD400203005F
:1081F00008B5024B1B68DB6A019308BD400203000F
:1082000008B5024B1B681B6B019308BD40020300BD
:1082100008B5024B1B685B6B019308BD400203006D
:1082200008B5024B1B681B6C019308BD400203009C
:1082300008B5024B1B685B6C019308BD400203004C
:1082400008B5024B1B685B6D019308BD400203003B
:1082500008B5024B1B689B6D019308BD40020300EB
:1082600008B5024B1B685B68019308BD440203001C
:1082700008B5024B1B689B68019308BD44020300CC
:1082800008B5024B1B68DB68019308BD440203007C
:1082900008B5024B1B685B69019308BD44020300EB
:1082A00008B5024B1B681B6A019308BD440203001A
:1082B00008B5024B1B681B6B019308BD4402030009
:1082C00008B5024B1B68DB6B019308BD4402030039
:1082D00008B5024B1B681B68019308BD1C02030014
:1082E00008B5024B1B685B68019308BD1C020300C4
:1082F00008B5024B1B689B68019308BD1C02030074
:1083000008B5024B1B68DB69019308BD1C02030022
:1083100008B5024B1B685B6A019308BD1C02030091
:1083200008B5024B1B68DB6A019308BD1C02030001
:1083300008B5024B1B681B6B019308BD1C020300B0
:1083400008B5024B1B68DB6B019308BD1C020300E0
:1083500008B5024B1B681B6C019308BD1C0203008F
:1083600008B5024B1B685B6C019308BD1C0203003F
:1083700008B5024B1B68DB6C019308BD1C020300AF
:10838000002240681146FFF723BF002240681146D3
:10839000FFF73EBF40680022FFF732BF406800226F
:1083A00081F00101FFF70CBF002340681A4619460F
:1083B000FFF7FEBE002340681A461946FFF7F0BEDD
:1083C000002240681146FFF7E3BE002240681146D4
:1083D000FFF7CEBE406800220221FFF7D1BE002386
:1083E00040681A46FFF7BCBE024B03225A60024A9D
:1083F0001A60704734E6032038DE0B000B68036018
:108400004B68436013B15A6801325A60704738B5FF
:10841000046805467CB16368013B63605BB923680F
:1084200020469B689847A368013BA3601BB923685B
:108430002046DB689847284638BD10B504460846F4
:108440002170FFF7B9FD00236360204610BD10B511
:10845000202488B022460021684602F0D7FD002182
:108460006846ADF80040FFF767FC019808B010BD02
:10847000054B02221A60054B054A9A600020C3E9A9
:108480000000FFF721BE00BF48E603203CE60320C2
:108490000000FFFF10B504460068FFF721FF2046EB
:1084A00010BD10B50446006808B1FFF719FF00239E
:1084B000C4E90133236010BD38B504460D46006899
:1084C0000131FFF715FF10B1C4E90005012038BDE7
:1084D00010B50368044623B143688B4201D30120E1
:1084E00010BD2046FFF7E8FF0028F9D0A368002B55
:1084F000F5D122681370F2E737B50D4611460192A7
:108500000446FFF7E5FF019A28B92046FFF7C9FFA7
:10851000204603B030BDA2602946206802F04EFD1F
:108520002268A3680021D154F2E7002313B5C0E903
:10853000003304468360037341B108460191FCF7A0
:1085400013FC019902462046FFF7D6FF204602B0F1
:1085500010BD38B5054600680C4670B16A688B6876
:108560009A4208D3096831B102F0DBFDA368AB6021
:108570000023A36038BDFFF7B3FE23682B60636858
:108580006B60A368AB600023C4E90033F1E710B56A
:108590000023C0E90033044683600373FFF7D9FF6B
:1085A000204610BD884210B5044605D00B682BB19B
:1085B0008A681946FFF7A0FF204610BDFFF771FF3C
:1085C000FAE710B500230446C0E900338360037363
:1085D000FFF7E8FF204610BD08B582683AB921B11F
:1085E0000878B0FA80F0400900E0012008BD00687A
:1085F00009B90078F5E7FCF7ADFBF2E710B5836841
:10860000934206D90468A01802F074FD08B1001B5B
:1086100010BD4FF0FF30FBE70022FFF7EFBF000077
:10862000F8B59A420F461D460C4988BF13461446BA
:10863000064684BF2C461D46FFF777FFBB68A34262
:108640000AD33968AB4294BFC4EB0302C4EB050202
:1086500021443046FFF750FF3046F8BDE6DE0B0000
:1086600010B504468B68FFF7DBFF204610BD38B518
:10867000046805463CB1013C14F8010F18B103F041
:1086800089FC2070F8E7284638BD2DE9F0410668DE
:10869000054606B38468F4B1B046474618F8010BA6
:1086A00002F084FC0028F8D1013C3444207802F028
:1086B0007DFC18B1A74201D8013CF7E7621CD21B30
:1086C000BE42AA6003D23946304602F077FC2A68DF
:1086D000AB680021D1542846BDE8F08110B543684D
:1086E000013B0446436063B903689B689847A368ED
:1086F000013BA3602BB923682046DB68BDE810402E
:10870000184710BD70B5D0E90053044605EB0316B9
:10871000AE4204D02846FFF7BDFE1035F8E72068CA
:10872000FFF7DEFD204670BD13B50B460246D0E9CB
:1087300000016C4684E8030093E8030082E803002C
:1087400094E8030083E8030002B010BD0248002350
:108750000360FFF751BB00BF4CE6032010B5044691
:1087600080680368DB689847E3681844E06010BDE0
:10877000F8B506460D468F180024BD420CD033686C
:1087800015F8011B9B6830469847031E01DB1C440B
:10879000F3E7002C08BF1C462046F8BD704710B513
:1087A00010210446FCF73FFB204610BD13B50446DC
:1087B000084659B10191FCF7D7FA23680199DB68A3
:1087C0000246204602B0BDE81040184702B010BD76
:1087D00003689B68184730B58BB00023012A8DF8D9
:1087E000243098BF0A2209AC0D46B1FBF2F101FB1F
:1087F000125303F0FF03092B94BF30333733DBB23E
:10880000AA4204F8013DEFD92146FFF7CFFF0BB094
:1088100030BD10B50446FFF74FFAE06023682046EC
:108820005B699847002808DAFFF746FAE368C01A40
:10883000A3689842F2D34FF0FF3010BD2DE9F0410C
:1088400007460C468E180D46B542A5EB040807D026
:108850003846FFF7DEFF031E02DB05F8013BF3E7B6
:108860004046BDE8F0817047084611B10B685B686F
:108870001847704770477047704738B504460D4633
:1088800000682E2102F043FC2368C31A2B6023B139
:10889000037803B1013023682060184638BD10B555
:1088A00004210446FCF7BFFA204610BD10B5042190
:1088B0000446FCF7B8FA204610BDFFF7ADBA08B57C
:1088C000FCF748FAB0FA80F0400908BD704710B5CF
:1088D0000C4601F0F5FC844210D002F059FA8442B3
:1088E00005D102F055FABDE8104001F040BF2CB1AF
:1088F000236820465B68BDE81040184710BD13B5DB
:10890000044608460191FCF72FFA019902462046D9
:1089100002B0BDE8104001F0C1BE13B504460846E0
:108920000191FCF721FA23680199DB680246204691
:1089300002B0BDE81040184707B503688DF807106E
:10894000DB6801220DF10701984703B05DF804FBD5
:108950002DE9F74FD0E900844FF0140A00930AFB89
:1089600004F4184BA41017465C434546002C21DD47
:1089700066100AFB06F005EB00093A46B9F804B0A8
:10898000285801915F4528BF5A4602F0F0FB0028A5
:1089900001994FF001030BD15F4503D1009A137089
:1089A0003446E3E7FCD9A61B09F11405013EF7E7BD
:1089B000F9DBF5E7A5EB08050248AD10684303B005
:1089C000BDE8F08FCDCCCCCC7FB50369057E01919D
:1089D00003B3F9B1002600F10C04039603A901A822
:1089E000FFF74BFF0146A8B10DF10B03039A8DF879
:1089F0000B602046FFF7ACFF9DF80B3053B12368A6
:108A0000142404FB0034083434F9023C002BA8BFC2
:108A1000DDB2E3E7284604B070BD0EB4F0B58CB00B
:108A200000AF07F14405044655F8042B7A602B4645
:108A3000202107F11000FD60FFF76AFC1F287A680B
:108A40001AD900F1080323F007036E46ADEB030DBE
:108A5000411C2B466846FD60FFF75AFC021E04DDF0
:108A600023686946DB6820469847B5463037BD46DF
:108A7000BDE8F04003B070470028F7D023680246F5
:108A8000DB6807F1100120469847EFE710B5094C65
:108A90002378BFF35B8FDB0709D42046FCF7D2F9BC
:108AA00028B12046FCF7D3F9034802F065FA0348E1
:108AB00010BD00BF54E6032075880B003C6D0320F9
:108AC00010B5094C2378BFF35B8FDB0709D4204630
:108AD000FCF7B8F928B12046FCF7B9F9034802F0D1
:108AE0004BFA034810BD00BF58E60320CD880B00A9
:108AF000406D032038B500250446C0E90055C0E9A3
:108B000004558560856140F8245FFFF775F9FFF72C
:108B1000BDFFE061FFF7D4FF25732062204638BD1A
:108B200010B50A4C2378BFF35B8FDB070CD42046CB
:108B3000FCF788F940B10648FFF7DCFF2046FCF758
:108B400086F9044802F018FA014810BD50E60320E7
:108B500060E6032099900B00024A03490348002372
:108B6000FFF7A2BA7D8E0B00098E0B00898D0B00DA
:108B700000231A4619461846FFF796BA37B58D688E
:108B800004466846FFF73AFC6A462946204601F04B
:108B9000A5FC01A8FFF73BFC204603B030BD37B56C
:108BA000CD6804466846FFF729FC6A4629462046F8
:108BB00001F070FC01A8FFF72AFC204603B030BD8D
:108BC00037B50D6904466846FFF718FC6A46294622
:108BD000204601F008FC01A8FFF719FC204603B06D
:108BE00030BD000070B58AB00D46014604A8FFF7FD
:108BF000C5FF144E04A801F089FCE8B104A9684639
:108C0000FFF7CDFF02983146FFF759FE044610B139
:108C10002C1E18BF012401A8FFF7F9FB002CE9D096
:108C200004A96846FFF7CCFF684601F012FC2860F3
:108C300001A8FFF7ECFBDDE705A8FFF7E8FB0AB0AA
:108C400070BD00BF8CDE0B0037B50C4620461349C3
:108C50001546FCF77FF850B901F032FB4FF416517E
:108C600001F01CFB03B0BDE8304001F029BB0C490A
:108C70002046FCF76FF878B94FF4165301A928463F
:108C80000193FFF7AFFF02F083F8019901F06CFD4B
:108C900002F07EF803B030BD0020FBE791DE0B0050
:108CA00098DE0B0070B5D0E900531426044606FB8D
:108CB0000356AE4205D005F10800FFF7F3FF143567
:108CC000F7E72068FFF70CFB204670BD10B504469F
:108CD0000C30FFF7E7FF2046FFF714FD204610BDDC
:108CE00010B5044B044640F8043BFFF7EFFF204665
:108CF00010BD00BFC4DD0B0010B50446FFF7F0FF48
:108D000020462421FCF78FF8204610BD10B5034BF8
:108D100003600446FFF7E4FF204610BD1CDF0B0094
:108D200010B50446FFF7F2FF20462421FCF77BF83C
:108D3000204610BD0A6802604A6842600022C0E90D
:108D4000022210B502618C688460CC68C4600C6932
:108D50008A60CA6004610A6110BD0022C0E9002275
:108D600010B582600C6804604C6844608C680A60CE
:108D70004A6084608A6010BD10B5036804461868B4
:108D8000FFF752F8204610BD2DE9F04F87B080461E
:108D900003931C4B5B68C3F30803894616466BB903
:108DA000FFF7BEFE044600F12403406A0593FFF777
:108DB00084FD237B2BB105A8FFF7DEFF07B0BDE8DC
:108DC000F08F01232373D4E900535FFA89F905EB8F
:108DD000830AAA4512D055F8047B3146381DFFF7A7
:108DE000F3FD8145F5D33B68039A0092D3F808B0B0
:108DF0004A46334641463846D847EAE700232373BC
:108E0000D9E700BF00ED00E02DE9F74F9B461A4B74
:108E10005B68C3F308038046894616466BB9FFF7C3
:108E20007FFE044600F12403406A0193FFF745FDED
:108E3000237B2BB101A8FFF79FFF03B0BDE8F08FA4
:108E400001232373D4E90053F6B205EB830A554599
:108E50000ED055F8047B5946381DFFF7B5FD864204
:108E6000F5D33B684A46DB68414638469847EEE70B
:108E700000232373DEE700BF00ED00E02DE9F3419E
:108E8000164B5B68C3F3080305460F461BBBFFF791
:108E900047FE00F124030446406A0193FFF70DFDED
:108EA000D4E90063462406EB8308B04509D101A844
:108EB000FFF762FFA542B4BF0020012002B0BDE869
:108EC000F08156F8040B39460430FFF77DFD8442EB
:108ED000A8BF0446E9E70020F0E700BF00ED00E08E
:108EE000F8B5D0E901539D4204460E460DDB6F1CD8
:108EF000002F006804DDB900FFF7FAF918B9F8BDD2
:108F0000FFF7EEF900202060A7602768626807EB92
:108F100085019200A2EB8502081D02F05DF847F87A
:108F200025606368013363600120E8E737B500F12D
:108F300024030446406A01930D46FFF7BEFCD4E9C2
:108F4000003203EB8202934219460BD00968A94212
:108F500003F10403F7D101A8FFF70EFF002528460F
:108F600003B030BD29462046FFF7BAFF054600286A
:108F7000F1D06368012B01D1FFF7EEFD01A8FFF7E7
:108F8000FBFEECE770B50446D0E900020B4600EBAF
:108F9000820282420FD001461D6851F8046BAE4236
:108FA00007D1521A02F018F86368013B6360012090
:108FB00070BD0846EDE70020FAE71FB500F1240375
:108FC0000446406A01910393FFF777FC01A920460C
:108FD000FFF7D8FF18B163680BB9FFF7C9FD03A805
:108FE000FFF7CAFE04B010BD70B5D0E904561823CF
:108FF000044603FB0656AE4215D005F1100120468B
:10900000FFF7C0FF63680BB9FFF7B2FDE06929699C
:109010000368DB689847696919B1206A0368DB68EF
:1090200098471835E7E7D4E90453182606FB03569A
:10903000AE4204D02846FFF72DFA1835F8E7002392
:10904000636170BD73B50446FFF792FD04F124031C
:10905000606A0193FFF731FC2046FFF7C5FF01A8C6
:10906000FFF78AFE606A08B1FEF7CEFED4E904532A
:10907000182606FB0356AE4204D02846FFF70AFA2C
:109080001835F8E72069FFF72BF92068FFF728F972
:10909000204602B070BD00000148FFF7D3BF00BFFB
:1090A00060E603208842F8B504460D46164615D9F9
:1090B000904214D2A2F11406751AA1F114072C449F
:1090C000B7421AD01CB131462046FFF733FE06F1F5
:1090D0000800FFF7E7FD143E143CF1E70DD0B54260
:1090E0000BD01CB129462046FFF724FE05F10800ED
:1090F000FFF7D8FD14351434F1E7F8BD8842F8B510
:1091000004460D46164614D9904213D2A2F1100619
:10911000751AA1F110072C44B74218D01CB1314682
:109120002046FFF734FA3046FFF7B4F9103E103C02
:10913000F2E70CD0B5420AD01CB129462046FFF711
:1091400026FA2846FFF7A6F910351034F2E7F8BDE5
:1091500070B50E1E054611DD3001FFF7B9F8044663
:1091600058B1D5E9001201EB0212FFF7C7FF2868DA
:10917000FFF7B6F82C60AE60012070BD0024F6E762
:109180002DE9F04F904695B000230391D8F80410D4
:109190000A9346229942C0E90033C0E90233C0E98C
:1091A0000433CDE908330446027623DCD8E90057BE
:1091B000142303FB0757AF423BD029460BA8FFF708
:1091C000E6F90BA90FA8099EFFF7E1F9DDE90913FC
:1091D00099421BDA089B099A03EB061603EB02126D
:1091E000314606F11000FFF789FFEEB9099B013304
:1091F000099311E008A8FFF7ABFF0028D6D108A813
:10920000FFF780FA204615B0BDE8F08F013108A8BD
:10921000FFF79EFF0028DDD10FA8FFF73BF90BA851
:10922000FFF738F91435C6E70FA93046FFF7AFF955
:10923000DCE70026CDE90B660D964FF01409DDE959
:1092400008239E427CDA3301D35806930BB90136CA
:10925000F5E70023079309FB06F302930BAD07A97B
:1092600006A8FFF70AFB82460028F0D04FF0000363
:109270008DF817300146079A0DF117032846FFF7BE
:1092800067FB9DF817700190002F4AD1BDF81C3084
:10929000ADF84030CDE911774FF6FF73CDF83CA023
:1092A000ADF842301397D5E90132934217DB03F151
:1092B000010ABAF1000F30DD09FB0AF0FFF708F8E8
:1092C000834660B3D5E9001209FB0212FFF7EAFEFC
:1092D0002868FFF705F8C5F800B0C5F808A02B68A6
:1092E000019A09FB023A6A68514609FB02320AF107
:1092F0001400FFF7D7FEBAF1000F03D00FA95046B4
:10930000FFF718FD6B6801336B6011A8FFF7CAFC0B
:109310003FB10BA8FFF7C6FC71E7BB46D8E70127B2
:10932000F3E7019B2D6809FB0355069B1B782BB9BE
:10933000D8F80030029A13441B7CEB8008358EE786
:109340002168226062686360A36809920A9A0A939E
:10935000E368A2600B9A0B932369E2600C9A0C936A
:10936000636922610D9A0D93039B089162612376D4
:10937000CFE70000F0B5044687B00D4626461946F3
:1093800068461746FDF7FEFE0B4B46F8043B694660
:1093900003A8FDF7F7FE03AA39463046FFF7F0FEB3
:1093A00003A8FDF77FFB6846FDF77CFB034B2360BA
:1093B0002046256207B0F0BDC4DD0B0004DF0B00C2
:1093C000F0B50F4685B01D490A9C384616461D4625
:1093D000FBF7C0FCC0B9A4B1294601A8FFF7BDFC4A
:1093E0001749242001F04EFD054630B101AB32464D
:1093F0002146FFF7BFFF134B2B6001A8FDF752FB7F
:109400002C46204605B0F0BD0F493846FBF7A2FCBC
:1094100090B9002CF5D0294601A8FFF79EFC084919
:10942000242001F02FFD05460028E6D001AB32468E
:109430002146FFF79FFFE0E70024E2E7A0DE0B00F4
:10944000FCE00B001CDF0B00A4DE0B00014B024A0A
:109450001A6070475CE60320B5DE0B002DE9F0478B
:10946000089DD0F8209004460E461746984600F016
:1094700027FF81454CD02B79190704D56A695449D7
:109480002046FFF7CAFAB8F1000F0DD05B21204645
:10949000FFF752FA41462046FFF73FFA23684D494D
:1094A000DB680222204698472B79DA0723D5D5F8C6
:1094B00008802F21404601F06EFE08B100F101083E
:1094C00041462046FFF729FA2B799B0708D53A2118
:1094D0002046FFF731FAEA683F492046FFF79DFA38
:1094E0002A79236812F0040FDB6814BF3B493C491A
:1094F0000222204698472B7958071DD529690B462B
:109500001A4613F8010B60B1202808D11946F7E775
:10951000344801F026FB0028ADD0BDE8F0872828AC
:10952000EED12368521ADB682046984723682E49FB
:10953000DB6804222046984700213846FEF7ACFD40
:1095400001462046FFF7E9F923682549DB68022236
:10955000204698471EB131462046FFF7DEF92B79A9
:1095600013F0300F2CD023682049DB6802222046FC
:1095700098472B79D9060AD523681D49DB6807224D
:1095800020469847AA691B492046FFF746FA2B79DF
:109590009A0611D5DB0605D523681049DB6802223F
:1095A0002046984723681449DB6820460A229847DA
:1095B000E9692046FFF7B1F95D212046FFF7BCF9C4
:1095C00023680E49DB6820460222BDE8F0471847B1
:1095D000B9DE0B00C0DE0B0023D60B00C3DE0B0090
:1095E000C8DE0B0014E70320C6DE0B00CBDE0B0049
:1095F000CEDE0B00D6DE0B00D9DE0B00E4DE0B0066
:109600002DE9F0410446076A0D46164600F058FE63
:10961000874207D0206A036832462946DB68BDE8E6
:10962000F0411847034801F09CFA0028F2D0BDE849
:10963000F08100BF14E703202DE9F04385B0D0F896
:1096400020900C9C05460F4690461E4600F038FEC2
:10965000814505D1494801F084FA002840F08A800C
:109660002B6A474A00924FF000096846CDE902395B
:109670008DF8049000F073FF49464046FEF70CFD5C
:10968000404980460122684600F0F8FF4146FFF756
:1096900036F93FB13C490122684600F0EFFF3946F8
:1096A000FFF72DF93EB139490122684600F0E6FF87
:1096B0003146FFF724F92379DF070ED5A6682F215D
:1096C000304601F068FD00B1461C31490122684670
:1096D00000F0D4FF3146FFF712F923799E0707D532
:1096E0002C490222684600F0C9FFE16800F044FFFF
:1096F0002379580714D5266933461F4613F8012BE2
:109700002AB1202A01D11E46F7E7282AF5D122499D
:109710000222684600F0B2FFBA1B314600F0BEFFDD
:109720002379190707D51D490122684600F0A6FFD5
:10973000616900F033FF2379DA0607D5184904225E
:10974000684600F09BFFA16900F016FF23799B0695
:1097500007D514490622684600F090FFE169FFF73B
:10976000CEF8684600F0E5FE286A0F490368022239
:10977000DB68984705B0BDE8F08300BF14E703201D
:109780007CDE0B009DD80B00DEDC0B0016E40B002A
:109790000DDE0B00E7DE0B00EADE0B0084DA0B00C7
:1097A000EDDE0B00F2DE0B00E4DE0B002DE9F041F4
:1097B000154ADFF86080D2E90063801943EB0101AC
:1097C000124BD3E90067D8E90023861941EB07075C
:1097D000BB4208BFB2428CB013D003A96846CDE9A2
:1097E0000067FEF7C5FD089B094D03F26C7303ACDF
:1097F00008930FCC0FC50FCC0FC5C8E900672368CD
:109800002B600CB0BDE8F081B8E60320B0E6032081
:109810008CE60320C0E6032008B50020FEF748FDD3
:1098200028B1FEF735FD80F00100C0B208BD01206F
:10983000FCE7000008B5FFF7B9FF014B986808BDC9
:109840008CE6032008B5FFF7B1FF014BD86808BDCF
:109850008CE60320FAEE087AB4EEE70AF1EE10FA8D
:1098600008B511D4F2EE0C7AB4EEE70AF1EE10FA74
:109870000ADCDFED067A60EE277A17EE900AFBF736
:109880008DF8034BC3E9000108BD00BF000061452E
:10989000B8E603201FB502460B4668460021CDE915
:1098A0000023CDE90211FEF73FFA024610B9014646
:1098B000FEF732FC05B05DF804FB10B50020FEF7A2
:1098C0001BFA0446A0B9FEF7F7FB012810D1204689
:1098D000FEF71AFC60B9FFF79FFF10B9FEF7C8FC4E
:1098E000F9E7FFF799FFBDE810400020FEF704BA42
:1098F000204610BD1FB5FFF7E0FF1022002168468B
:1099000001F084FB00216846FEF706FA009805B0D6
:109910005DF804FB024B1A68024B1A60704700BFE7
:10992000446D032088E603200021FEF7D5BB00002C
:10993000014B00229A607047C8E60320006800F0DF
:10994000AEBF10B50446016002710AB1FFF7F6FF21
:10995000204610BD13B50446019101F06FFA019A3B
:1099600001462046FFF7EDFF204602B010BD00681B
:1099700000F09EBF10B5037904460BB1FFF7F7FF67
:10998000204610BD2DE9F041044686B00D4617462D
:109990001E46FFF7D3FF00233622CDE901232068BE
:1099A00005930A224FF0010801A9CDE9038200F0D6
:1099B00058FF2068036829469B68984720684146FD
:1099C00000F069FF054640B16FF09F052046FFF7A4
:1099D000CEFF284606B0BDE8F0810223206802933E
:1099E00001A900F025FF0228EED1206803685B6919
:1099F00098473870206803685B6998473070E5E7DE
:109A000007B500238DF806308DF807300DF10602FA
:109A10000DF107030421FFF7B5FF60B99DF806209B
:109A20009DF8073003EB022300EE103ABAEECC0AA1
:109A300003B05DF804FBBFEE000AF9E7014B1860C4
:109A4000704700BF4C6D032008B50B4B43B100F0CD
:109A500037FC03681B699847002801DDAFF30080DD
:109A6000064B43B101F094F903681B69984700283D
:109A700001DDAFF3008008BD000000000000000021
:109A800008B5FFF7E1FFFEF717F9014B186008BDB5
:109A900040E703200548064A064908B5121A01F0B6
:109AA0008DFA054B054A1A6008BD00BF00F403207B
:109AB000A8F4032060E70B00A4F403201E1C279ADF
:109AC00007B5002300931A466FF07701FEF736FBC7
:109AD00003B05DF804FB000007B543880A2B08D0EB
