:020000001928BD
:100008007E14803100308600003087002100101CEB
:100018000E280F2817282000101C1328142817282A
:1000280081313E2180317E1009001A28FA01FB0136
:10003800FC01FD012000A001A101A201A3017E1085
:100048002000E828A434003400340034003400349C
:1000580049340134003400340034003400340034AE
:1000680000340034003400340034003400340034E8
:1000780000340034003400340034003400340034D8
:1000880000340034003400340034003400340034C8
:10009800003400342834013410340134003400347E
:1000A80000340034F801F9016E28750878078400D7
:1000B8007608793D85000008F0002C3084008030F7
:1000C8008500013F8A00003F0A0080310130F807AF
:1000D8000030F93D7608F1007508F0008031C02045
:1000E80080317908803AF7007108803A7702031D59
:1000F8007F2870087802031C822883285928080062
:10010800013022008C003E3021008C00303023006A
:100118008C0024008C0125008C01373026008C00CF
:100128003F3027008C0001303C00A40002309000D2
:1001380014303D00900027009101920193010800BE
:10014800483023009F0090309D0026309E004430A8
:100158009B009C010030F0000030F1008131282123
:1001680080310030F0000030F10081311021803101
:100178002000A201A30108007108F4007008F30030
:10018800C9280130F0070030F13D7008840071087B
:1001980085001200031DD128D228C52873087002D3
:1001A800F0007408713BF1000800483465346C3481
:1001B8006C346F34203457346F3472346C34643494
:1001C80021340D340A3400348031F62080318B1705
:1001D8000B17D930F5008030F60080315620803179
:1001E800F4281928813133218031803184208031ED
:1001F8008031A42080318131032180310800200022
:1002080010100B144D30F0000130F1008131442101
:100218008131210010140800700871040319152990
:1002280016291B2971082000A1007008A0000800E9
:100238007C087D0403192129222927297D088A00A1
:100248007C080A00813108007008710403192D29FF
:100258002E2932297108FB007008FA000800603066
:10026800320099009B019D0107309F0020309E00BD
:100278009C0008002000101081311C2181310800E9
:100288007108FD007008FC000800700823009A003F
:040298000800080052
:020000040001F9
:08000E008F3FF33FFF3FFF3F6E
:00000001FF
