:040000000DEF00F010
:0400080065EF10F0A0
:06001800FF0062EF0FF093
:101600000000B3EC10F03850055C0601076F39504C
:101610000658086F5DEF0BF0085107E10A0E075DF1
:10162000D8B015EF0BF017EF0BF019EF0BF0010E20
:10163000496E4950D8B41FEF0BF021EF0BF031EF9A
:101640000CF0085109E10A0E075DD8A02AEF0BF053
:101650002CEF0BF031EF0CF0C0880CEC10F09EEC8E
:1016600010F005C528F506C529F507C52AF508C5F2
:101670002BF5496A010E426E31EF0CF028C509F5D1
:1016800029C50AF52AC50BF52BC50CF574EC0EF02F
:101690000C500B100BE1F40E095C010E0A58D8A097
:1016A00054EF0BF056EF0BF031EF0CF0C098426A9C
:1016B00031EF0CF0426A31EF0CF04250266E276A8F
:1016C0002750000AD8B467EF0BF05AEF0BF0265002
:1016D000000AD8B40CEF0BF0010AD8B43EEF0BF0BF
:1016E0005AEF0BF04050D8B478EF0BF07AEF0BF0D4
:1016F0004AEF0CF0406AB3EC10F005C536F506C5AC
:1017000037F5356A000E346E010E416E4AEF0CF06B
:101710003850365C266E39503758276E26C511F67C
:1017200027C512F60601136B146B0A6B000E096FC6
:1017300014C603F613C604F612C605F611C606F65D
:10174000040E0927000E0A2309510A11D8B4ABEF81
:101750000BF0ADEF0BF0BFEF0BF0BBEC10F0266E13
:10176000276A06010951265C0A512758D8B0BBEFF9
:101770000BF0BDEF0BF0BFEF0BF04AEF0CF0030ED8
:10178000066E060E076E040E086ED3EC0FF006010F
:101790001151121113111411D8B4D1EF0BF0D3EF72
:1017A0000BF0D7EF0BF0020E416E4AEF0CF0416ADE
:1017B0004AEF0CF03650381807E137503918D8A4E2
:1017C000E4EF0BF0E6EF0BF0E8EF0BF0D7EF0BF0E8
:1017D00038C51EF539C51FF50D0E206E060E216E9B
:1017E000EEEC0EF034C505F535C506F50FC607F568
:1017F00010C608F5000E096E060E0A6EBBEC0DF061
:1018000006010C6B000E0B6F030E0B27000E0C2352
:101810000B510C11D8B40FEF0CF011EF0CF023EFBB
:101820000CF0BBEC10F0266E276A06010B51265C0B
:101830000C512758D8B01FEF0CF021EF0CF023EF1C
:101840000CF04AEF0CF0000E066E060E076E030E4B
:10185000086ED3EC0FF0384A392A344A352A4AEF59
:101860000CF04150266E276A2750000AD8B43BEF8F
:101870000CF0D7EF0BF02650000AD8B472EF0BF043
:10188000010AD8B488EF0BF0030AD8B4DAEF0BF0F2
:10189000D7EF0BF0120020EE01F00550D9260650CC
:1018A000DA22DF500B6E0BC50CF50D6A0E6A0F6A5B
:1018B0000EC50FF50DC50EF50CC50DF50C6A05C569
:1018C000D9F406C5DAF4DF50106E10C511F5126AAE
:1018D000136A146A12C514F511C513F5126A116A58
:1018E0000C501110156E0D501210166E0E50131074
:1018F000176E0F501410186E20EE02F00550D92606
:101900000650DA22DF50196E195015101A6E165053
:101910001B6E17501C6E18501D6E1AC50BF51BC59B
:101920000CF51CC50DF51DC50EF50F0E9DEF0CF049
:10193000D8900E320D320C320B32E82E98EF0CF0AC
:10194000FF0E0B140F6E030E0C14106E07C5D9F4A6
:1019500008C5DAF40FC5DEF410C5DDF41AC50BF5C1
:101960001BC50CF51CC50DF51DC50EF5050EBEEF0E
:101970000CF0D8900E320D320C320B32E82EB9EF4B
:101980000CF0FF0E0B140F6E030E0C14106E09C535
:10199000D9F40AC5DAF40FC5DEF410C5DDF412007F
:1019A000F7C509F5F8C50AF5F9C50BF5FAC50CF543
:1019B00074EC0EF00C500B1009E1E80E095C030EFC
:1019C0000A58D8B0E6EF0CF0E8EF0CF0EAEF0CF0B4
:1019D0004DEF0DF09EEC10F005C5F7F506C5F8F5D6
:1019E00007C5F9F508C5FAF57FEC10F00FC521F52C
:1019F00010C522F511C523F512C524F50501F351D3
:101A0000215C1D6EF45122581E6E21C5F3F522C5CE
:101A1000F4F523C5F5F524C5F6F5010EA027000E53
:101A2000A123A223A3233CC505F53DC506F5086AFD
:101A3000190E076EBCEC0EF005C51FF506C520F5A6
:101A40003AC505F53BC506F51DC507F51EC508F5E4
:101A5000030E1F02F3C41BF5F4C41CF52002F3505F
:101A60001C26A40E1B24096E050E1C200A6EBBEC5E
:101A70000DF03A4A3B2A3B5009E10A0E3A5CD8A0E5
:101A800044EF0DF046EF0DF04BEF0DF03B6A000E0A
:101A90003A6E010E436E3C4A3D2A12003F50D8A4D4
:101AA00054EF0DF056EF0DF07BEF0DF0EFC509F59B
:101AB000F0C50AF5F1C50BF5F2C50CF574EC0EF0A6
:101AC0000C500B100BE1D00E095C070E0A58D8A081
:101AD0006CEF0DF06EEF0DF0BAEF0DF09EEC10F024
:101AE00005C5EFF506C5F0F507C5F1F508C5F2F532
:101AF000C076BAEF0DF0EFC509F5F0C50AF5F1C5EE
:101B00000BF5F2C50CF574EC0EF00C500B100A102E
:101B100009E1640E095CD8A090EF0DF092EF0DF092
:101B2000BAEF0DF09EEC10F005C5EFF506C5F0F527
:101B300007C5F1F508C5F2F5C0763E50D8B4A3EF5D
:101B40000DF0A5EF0DF0A6EF0DF03E063E50D8A427
:101B5000ACEF0DF0AEEF0DF0BAEF0DF0C0963F6AAE
:101B60009EEC10F005C5EFF506C5F0F507C5F1F5DB
:101B700008C5F2F51200040E065CD8B0C2EF0DF0F5
:101B8000C4EF0DF0CAEF0DF005C513F506C514F549
:101B9000CDEF0DF0030E146E1368040E085CD8B080
:101BA000D4EF0DF0D6EF0DF0DCEF0DF007C515F515
:101BB00008C516F5DFEF0DF0030E166E156815500B
:101BC0000B6E16500C6E0D6A0E6A040ED8900B3612
:101BD0000C360D360E36E82EE6EF0DF013500F6E74
:101BE0001450106E116A126A0E0ED8900F3610360D
:101BF00011361236E82EF5EF0DF00B500F10176E60
:101C00000C501010186E0D501110196E0E5012104D
:101C10001A6E09C5D9F40AC5DAF419C5DFF420EE45
:101C200001F00950D9260A50DA2218C5DFF420EE57
:101C300002F00950D9260A50DA2217C5DFF4120043
:101C4000ACA025EF0EF027EF0EF047EF0EF0B7A097
:101C50002CEF0EF02EEF0EF047EF0EF0A1C202F5C2
:101C600047504810D8B437EF0EF039EF0EF047EF79
:101C70000EF002C501F502D847EF0EF00500FA6E2E
:101C80004750FD6E4850FE6EFF6AFA501200ACA23B
:101C90004CEF0EF04EEF0EF073EF0EF0B7A253EFD5
:101CA0000EF055EF0EF073EF0EF04450D8B45BEF2A
:101CB0000EF05DEF0EF06AEF0EF0600E4524D96E67
:101CC000DA6A050EDA22DF500201A36F45283F0BC6
:101CD000456E44064450D8A470EF0EF072EF0EF03B
:101CE00073EF0EF0AC9212009EEC10F005C515F5E6
:101CF00006C516F507C517F508C518F50950155C92
:101D00000A5016580B5017580C501858D8B08BEF73
:101D10000EF08DEF0EF0AFEF0EF0091C0D6E0A1CE9
:101D20000E6E0B1C0F6E0C1C106E15500D24116ED8
:101D300016500E20126E17500F20136E18501020E0
:101D4000146E010E1124096E000E12200A6E000E90
:101D500013200B6E000E14200C6EBBEF0EF009501A
:101D6000155C096E0A5016580A6E0B5017580B6E08
:101D70000C5018580C6E120007500810D8B4C3EF5E
:101D80000EF0C5EF0EF0E9EF0EF0010E096ECDEF8B
:101D90000EF0D89007360836092A08AED2EF0EF0BA
:101DA000D4EF0EF0C9EF0EF00750055C085006584E
:101DB000D8A0DDEF0EF0DFEF0EF0E3EF0EF00750EE
:101DC000055E0850065AD89008320732092ED4EF23
:101DD0000EF005C505F506C506F512001EC505F58C
:101DE0001FC506F5086A190E076EBCEC0EF005C596
:101DF00024F506C525F5030E2402F3C422F5F4C428
:101E000023F52502F3502326A40E2224056E050E89
:101E10002320066E20C507F521C508F5020E2024F3
:101E2000096E000E21200A6E4BEC0CF0120057ECEC
:101E300010F083EC0FF0E40E056E200E066EAEEC93
:101E400010F0FCEC0FF01CEC10F0B8EC10F03AECD9
:101E500010F03DEC0FF02BEC10F049EC10F0D68CAC
:101E6000D68EC1EC10F04EEC0DF0D0EC0CF001EC85
:101E70000BF031EF0FF00DEF00F03D6A000E3C6EFD
:101E80003B6A000E3A6E000E0501A06F000EA16FB6
:101E9000000EA26F000EA36F436A7FEC10F00FC517
:101EA000F3F510C5F4F511C5F5F512C5F6F59EEC80
:101EB00010F005C5F7F506C5F8F507C5F9F508C52D
:101EC000FAF51200840EF66E210EF76E000EF86E13
:101ED0000900F5C449F501EE60F18F0EEE6AE806DF
:101EE000FDE101EE28F11F0EEE6AE806FDE10401B6
:101EF000080E5D6F000E5E6F000E5F6F000EF86ED5
:101F0000000117EF0FF004011091C890100E0201AC
:101F1000116F04011093C882110E0201726FAB8F12
:101F2000A00EAE6F010EAF6FF00EAB17AB8BAB898F
:101F3000AC8F446A456A466AAC80AC921200056E6A
:101F40003F0E4464A6EF0FF0A8EF0FF0AAEF0FF0DA
:101F5000B8EF0FF0AC92600E4624D96EDA6A050E27
:101F6000DA2205C5DFF446283F0B466E442AAC82D0
:101F700012008AEC10F005C50DF506C50EF5050139
:101F8000FB510D5C0B6EFC510E580C6E0DC5FBF534
:101F90000EC5FCF50B502C260C502D22000E2E22C7
:101FA000000E2F221200096AE0EF0FF009500624FC
:101FB000D96E000E0720DA6EDF509FEC0FF0092A71
:101FC0000850095CD8A0E7EF0FF0E9EF0FF0D6EF6B
:101FD0000FF01200ABA6EFEF0FF0F1EF0FF0FBEFF9
:101FE0000FF0B6A6F6EF0FF0F8EF0FF0FBEF0FF0E3
:101FF000B696A7EC10F01200000E95EC10F003015D
:102000001E9F010E206F1F6BF90E1D6FE00E1E6FDD
:10201000B696AB861E8F1200010E3F6EC086090E6B
:102020003E6E9EEC10F005C5EFF506C5F0F507C550
:10203000F1F508C5F2F512000401109BC88A150ECF
:102040000201426F03011491156B176B060E146F9A
:10205000136B126B1200426A416A396A000E386EC5
:10206000376A000E366E356A000E346E010E496E08
:10207000406A12008AEC10F005C5FBF506C5FCF5B8
:10208000000E2C6E000E2D6E000E2E6E000E2F6EAA
:1020900012003F6A9EEC10F005C5EFF506C5F0F59D
:1020A00007C5F1F508C5F2F53E6AC09612000401B5
:1020B0001097C8960099C698009BC69A1099C89820
:1020C000C096BE98BE9AC0981200FAC403F5FBC42D
:1020D00004F520EC0EF0EAEC0FF004C5FBF403C5A8
:1020E000FAF41100AA0E0118D8A479EF10F07BEFD2
:1020F00010F07EEF10F0C076BEEC10F01200B9ECDC
:102100000FF02CC50FF52DC510F52EC511F52FC5F7
:1021100012F5120012C309F513C30AF50A50076E2F
:102120000950056E07C506F51200000E306E000E50
:10213000316E000E326E000E336E120030C505F5A2
:1021400031C506F532C507F533C508F51200010E95
:102150003026000E312232223322120005C547F507
:1021600006C548F512003CC505F53DC506F512004B
:10217000030114811200445040081200010E406E09
:05218000120012000135
:020000040030CA
:010000008C73
:03000200F7FF9F66
:00000001FF
