:02000004085F93
:1050000000505F08FCFF5F0800000A002000050157
:08501000040101190000000079
:105018001348144908B5884205D0134A824202D081
:10502800124B121A98471248124A0021124B121AB0
:10503800984712481249884205D0124A824202D043
:105048000A4B121A984710481049884205D0104A4E
:10505800824202D0054B121A9847014808BD00BF8A
:10506800282D071074F55F08102F07102D0D11104B
:10507800102F0710F8AF0710A10E1110305B3F0278
:10508800B0505F08385B3F02385B3F02B8505F089A
:0C509800F4FF3F0219505F080000000008
:0850A400B414E07901000000E2
:0850B0009C505F087CF03F02F8
:1050B80081F0004102E000BF83F0004330B54FEAC1
:1050C80041044FEA430594EA050F08BF90EA020F2E
:1050D8001FBF54EA000C55EA020C7FEA645C7FEAC1
:1050E800655C00F0E2804FEA5454D4EB5555B8BFE4
:1050F8006D420CDD2C4480EA020281EA030382EA55
:10510800000083EA010180EA020281EA0303362DE6
:1051180088BF30BD11F0004F4FEA01314FF4801CB9
:105128004CEA113102D0404261EB410113F0004FCB
:105138004FEA03334CEA133302D0524263EB430382
:1051480094EA050F00F0A780A4F10104D5F1200E20
:105158000DDB02FA0EFC22FA05F2801841F100017B
:1051680003FA0EF2801843FA05F359410EE0A5F14F
:1051780020050EF1200E012A03FA0EFC28BF4CF080
:10518800020C43FA05F3C01851EBE37101F0004536
:1051980007D54FF0000EDCF1000C7EEB00006EEB43
:1051A8000101B1F5801F1BD3B1F5001F0CD34908CD
:1051B8005FEA30004FEA3C0C04F101044FEA445224
:1051C80012F5800F80F09A80BCF1004F08BF5FEAAB
:1051D800500C50F1000041EB045141EA050130BD8B
:1051E8005FEA4C0C404141EB0101013C28BFB1F59D
:1051F800801FE9D291F0000F04BF01460020B1FAE8
:1052080081F308BF2033A3F10B03B3F120020CDABA
:105218000C3208DD02F1140CC2F10C0201FA0CF098
:1052280021FA02F10CE002F11402D8BFC2F1200CFD
:1052380001FA02F120FA0CFCDCBF41EA0C019040B3
:10524800E41AA2BF01EB0451294330BD6FEA0404FC
:105258001F3C1CDA0C340EDC04F11404C4F12002E7
:1052680020FA04F001FA02F340EA030021FA04F3F9
:1052780045EA030130BDC4F10C04C4F1200220FA50
:1052880002F001FA04F340EA0300294630BD21FA8E
:1052980004F0294630BD94F0000F83F4801306BF54
:1052A80081F480110134013D4EE77FEA645C18BF48
:1052B8007FEA655C29D094EA050F08BF90EA020FDF
:1052C80005D054EA000C04BF1946104630BD91EAD7
:1052D800030F1EBF0021002030BD5FEA545C05D1DA
:1052E8004000494128BF41F0004130BD14F5800419
:1052F8003CBF01F5801130BD01F0004545F0FE418D
:1053080041F470014FF0000030BD7FEA645C1ABFC1
:10531800194610467FEA655C1CBF0B46024650EAF8
:10532800013406BF52EA033591EA030F41F4002124
:1053380030BD00BF90F0000F04BF0021704730B5AA
:105348004FF4806404F132044FF000054FF000017F
:1053580050E700BF90F0000F04BF0021704730B540
:105368004FF4806404F1320410F0004548BF404215
:105378004FF000013EE700BF42004FEAE2014FEA6A
:1053880031014FEA02701FBF12F07F4393F07F4F45
:1053980081F06051704732F07F4208BF704793F048
:1053A8007F4F04BF41F40021704730B54FF460745B
:1053B80001F0004521F000411CE700BF50EA01025E
:1053C80008BF704730B54FF000050AE050EA010207
:1053D80008BF704730B511F0004502D5404261EB77
:1053E80041014FF4806404F132045FEA915C3FF4B8
:1053F800D8AE4FF003025FEADC0C18BF03325FEA55
:10540800DC0C18BF033202EBDC02C2F1200300FA05
:1054180003FC20FA02F001FA03FE40EA0E0021FA2A
:1054280002F11444BDE600BF70B54FF0FF0C4CF418
:10543800E06C1CEA11541DBF1CEA135594EA0C0FCA
:1054480095EA0C0F00F0DEF82C4481EA030621EA05
:105458004C5123EA4C5350EA013518BF52EA033540
:1054680041F4801143F4801338D0A0FB02CE4FF0F2
:105478000005E1FB02E506F00042E0FB03E54FF022
:105488000006E1FB03569CF0000F18BF4EF0010E1A
:10549800A4F1FF04B6F5007F64F5407404D25FEA16
:1054A8004E0E6D4146EB060642EAC62141EA5551C9
:1054B8004FEAC52040EA5E504FEACE2EB4F1FD0C0B
:1054C80088BFBCF5E06F1ED8BEF1004F08BF5FEA89
:1054D800500E50F1000041EB045170BD06F000463B
:1054E80046EA010140EA020081EA0301B4EB5C04E8
:1054F800C2BFD4EB0C0541EA045170BD41F48011E0
:105508004FF0000E013C00F3AB8014F1360FDEBF04
:10551800002001F0004170BDC4F10004203C35DAE0
:105528000C341BDC04F11404C4F1200500FA05F363
:1055380020FA04F001FA05F240EA020001F0004204
:1055480021F0004110EBD37021FA04F642EB06017A
:105558005EEA430E08BF20EAD37070BDC4F10C04A4
:10556800C4F1200500FA04F320FA05F001FA04F268
:1055780040EA020001F0004110EBD37041F1000154
:105588005EEA430E08BF20EAD37070BDC4F120055F
:1055980000FA05F24EEA020E20FA04F301FA05F2C7
:1055A80043EA020321FA04F001F0004121FA04F26F
:1055B80020EA020000EBD3705EEA430E08BF20EA3F
:1055C800D37070BD94F0000F0FD101F00046400079
:1055D80041EB010111F4801F08BF013CF7D041EAFB
:1055E800060195F0000F18BF704703F000465200FF
:1055F80043EB030313F4801F08BF013DF7D043EAD0
:105608000603704794EA0C0F0CEA135518BF95EA85
:105618000C0F0CD050EA410618BF52EA4306D1D10C
:1056280081EA030101F000414FF0000070BD50EA2B
:10563800410606BF1046194652EA430619D094EAB5
:105648000C0F02D150EA013613D195EA0C0F05D19F
:1056580052EA03361CBF104619460AD181EA0301F3
:1056680001F0004141F0FE4141F470014FF00000AB
:1056780070BD41F0FE4141F4780170BD70B54FF046
:10568800FF0C4CF4E06C1CEA11541DBF1CEA1355C6
:1056980094EA0C0F95EA0C0F00F0A7F8A4EB0504A8
:1056A80081EA030E52EA03354FEA013100F088809F
:1056B8004FEA03334FF0805545EA131343EA126368
:1056C8004FEA022245EA111545EA10654FEA00261D
:1056D8000EF000419D4208BF964244F1FD0404F5D6
:1056E800407402D25B084FEA3202B61A65EB030532
:1056F8005B084FEA32024FF480104FF4002CB6EBEF
:10570800020E75EB030E22BFB61A754640EA0C006E
:105718005B084FEA3202B6EB020E75EB030E22BFAE
:10572800B61A754640EA5C005B084FEA3202B6EBEF
:10573800020E75EB030E22BFB61A754640EA9C00AE
:105748005B084FEA3202B6EB020E75EB030E22BF7E
:10575800B61A754640EADC0055EA060E18D04FEA3C
:10576800051545EA16754FEA06164FEAC30343EADC
:1057780052734FEAC2025FEA1C1CC0D111F4801FA9
:105788000BD141EA00014FF000004FF0004CB6E7A2
:1057980011F4801F04BF01430020B4F1FD0C88BF41
:1057A800BCF5E06F3FF6AFAEB5EB030C04BFB6EB4C
:1057B800020C5FEA500C50F1000041EB045170BD3F
:1057C8000EF0004E4EEA113114EB5C04C2BFD4EB6C
:1057D8000C0541EA045170BD41F480114FF0000EF0
:1057E800013C90E645EA060E8DE60CEA135594EA6C
:1057F8000C0F08BF95EA0C0F3FF43BAF94EA0C0F6F
:105808000AD150EA01347FF434AF95EA0C0F7FF4E3
:1058180025AF104619462CE795EA0C0F06D152EA37
:1058280003353FF4FDAE1046194622E750EA41061B
:1058380018BF52EA43067FF4C5AE50EA41047FF42C
:105848000DAF52EA43057FF4EBAE12E74FF0FF3C91
:1058580006E000BF4FF0010C02E000BF4FF0010C62
:105868004DF804CD4FEA410C7FEA6C5C4FEA430CDB
:1058780018BF7FEA6C5C1BD001B050EA410C0CBF2A
:1058880052EA430C91EA030F02BF90EA020F00208C
:10589800704710F1000F91EA030F58BF994208BFF3
:1058A80090422CBFD8176FEAE37040F001007047B0
:1058B8004FEA410C7FEA6C5C02D150EA013C07D107
:1058C8004FEA430C7FEA6C5CD6D152EA033CD3D052
:1058D8005DF8040B704700BF8446104662468C464C
:1058E8001946634600E000BF01B5FFF7B7FF00287F
:1058F80048BF10F1000F01BD4DF808EDFFF7F4FFA8
:105908000CBF012000205DF808FB00BF4DF808ED32
:10591800FFF7EAFF34BF012000205DF808FB00BF55
:105928004DF808EDFFF7E0FF94BF012000205DF877
:1059380008FB00BF4DF808EDFFF7CEFF94BF01202C
:1059480000205DF808FB00BF4DF808EDFFF7C4FF25
:1059580034BF012000205DF808FB00BF4FEA410278
:10596800B2F1E04324BFB3F5001CDCF1FE5C0DD9B5
:1059780001F0004C4FEAC0024CEA5070B2F1004FFF
:1059880040EB830008BF20F00100704711F0804F02
:1059980021D113F13872BCBF01F00040704741F4C7
:1059A80080114FEA5252C2F11802C2F1200C10FACB
:1059B8000CF320FA02F018BF40F001004FEAC123AF
:1059C8004FEAD32303FA0CFC40EA0C0023FA02F353
:1059D8004FEA4303CCE77FEA625307D150EA013329
:1059E8001EBF4FF0FE4040F44000704701F00040F9
:1059F80040F0FE4040F40000704700BF53B94AB978
:105A0800002908BF00281CBF4FF0FF314FF0FF30BE
:105A180000F0D4B9ADF1080C6DE904CE00F058F8E7
:105A2800DDF804E0DDE9022304B0704707EE900AD0
:105A3800F5EEC07AF1EE10FA01D400F00BB8F1EEF1
:105A4800677A08B517EE900A00F004F8404261EB57
:105A5800410108BDD0B5FFF78FFC00220B4B06466D
:105A68000F46FFF7E1FC00F0ABF90446FFF762FCD4
:105A78000022074BFFF7D8FC02460B463046394652
:105A8800FFF71AFB00F09CF92146D0BD0000F03D5D
:105A98000000F041D0B500220B4B06460F46FFF739
:105AA800C3FC00F08DF90446FFF744FC0022074BC5
:105AB800FFF7BAFC02460B4630463946FFF7FCFAB8
:105AC80000F07EF92146D0BD0000F03D0000F04115
:105AD8002DE9F04F099D04460F46002B48D18A4214
:105AE800944661D9B2FA82F343B1C3F120019F40D1
:105AF80002FA03FC9C4020FA01F10F434FEA1C41D3
:105B08001FFA8CFE220CB7FBF1F601FB167706FB99
:105B18000EF042EA0742904208D91CEB020206F155
:105B2800FF3702D2904200F237813E46121AA4B2E1
:105B3800B2FBF1F001FB102200FB0EFE44EA024426
:105B4800A64508D91CEB040400F1FF3202D2A64591
:105B580000F21C81104640EA0640A4EB0E04002621
:105B68001DB1DC400023C5E900433146BDE8F08F94
:105B78008B4209D9002D00F0FD800026C5E90001FF
:105B880030463146BDE8F08FB3FA83F6002E4BD18C
:105B98008B42C0F0F280824240F2EF803046002D06
:105BA800E3D0C5E90047E0E702B9FFDEB2FA82F3C5
:105BB800002B40F09D80891A4FEA124E97B20126B9
:105BC800200CB1FBFEF20EFB121140EA014107FB6B
:105BD80002F088420FD91CEB010102F1FF382CBFFB
:105BE8004FF001094FF00009884203D9B9F1000FBD
:105BF80000F0CF804246091AA4B2B1FBFEF00EFBBA
:105C0800101100FB07F744EA0144A74208D91CEB2E
:105C1800040400F1FF3102D2A74200F2B480084622
:105C2800E41B40EA02409BE7C6F12007B34001FAB3
:105C380006F422FA07FCF940B2404CEA030C20FAB9
:105C480007F34FEA1C491C431FFA8CFE00FA06F3BF
:105C5800200CB1FBF9F809FB181140EA014108FBD7
:105C68000EF088420FD91CEB010108F1FF3A2CBF56
:105C78004FF0010B4FF0000B884203D9BBF1000F26
:105C880000F08D80D046091AA4B2B1FBF9F009FBE7
:105C9800101100FB0EFE44EA01418E4507D91CEBAA
:105CA800010100F1FF3401D28E457FD8204640EA39
:105CB8000840A1EB0E01A0FB029841454C46C646A0
:105CC80002D306D14B4504D20138B9EB020468EB84
:105CD8000C0E002D70D01A1B61EB0E0122FA06F390
:105CE80001FA07F7F14000261F43C5E900713CE7B8
:105CF80002FA03FCC3F1200001FA03F221FA00F6CC
:105D08004FEA1C4E24FA00F11FFA8CF79C4011430D
:105D1800B6FBFEF00A0C0EFB106642EA064200FBD8
:105D280007F696420ED91CEB020200F1FF382CBF91
:105D38004FF001094FF00009964202D9B9F1000F5E
:105D480031D04046921B89B2B2FBFEF60EFB1622FA
:105D580041EA024106FB07F28A4207D91CEB01011E
:105D680006F1FF3801D28A4223D84646891A46EA04
:105D7800004625E72E462846F7E6841A61EB03031A
:105D880001201F460BE76444023849E7644402389F
:105D9800E1E6023A61442EE7023E6244C6E6A8F113
:105DA800020861446FE702386244CBE70238614475
:105DB8007DE7023E6144D9E72E46D6E6704700BF2C
:105DC8004A0011D212F5001211D20DD56FF4787372
:105DD800B3EB62520ED44FEAC12343F0004343EAC7
:105DE800505323FA02F070474FF00000704750EA12
:105DF800013002D14FF0FF3070474FF0000070477C
:105E080010F8012B11F8013B012A28BF9A42F7D05C
:105E1800D01A7047034613F8012B002AFBD1181A31
:105E28000138704738B50022002304460D46FFF7B5
:105E38006DFD28B920462946BDE83840FFF72ABE3F
:105E4800204605F10041FFF725FE404261EB410184
:105E580038BD00BF05F042B870B505F0B1F80025AF
:105E6800054E064CA41BA408AC4200D170BD56F8E0
:105E7800043B98470135F7E7CCFF3F02F4FF3F02A8
:105E880001F0E4BB08B502F0B1F8BDE8084005F040
:105E98004FB803F0EBBB03F0E9BB03F0F5BB000020
:105EA800744600B58DB02C22002101A806F04DFBE8
:105EB800054B04940193054B02937B46002101A8EE
:105EC800039303F0CDF9FEE72C000C0090F03F029D
:105ED800704770470123024A1370024A13707047D3
:105EE80098910710C0910710064B9FED077AD3EDE4
:105EF800006AF6EE007AE6EE877AFDEEE77A17EEAC
:105F0800900A704700B4071000007A440120014B42
:105F180018707047C091071010B50446024B036013
:105F280002F060FC204610BD70F83F0210B5044630
:105F3800FFF7F2FF20464FF40C71FFF7AEFF204643
:105F480010BD436913B183690C301847704713B506
:105F580000210446084602F00DFF0023204601A94F
:105F6800019302F031FF019C0CB101232371002140
:105F7800012002F0FFFE2CB1236820469B68984759
:105F88000023237102B010BDB0F5FC6F10B511D21B
:105F98001A4B8200191801F57C510C7800F5FC6049
:105FA8001A4444B982ED000A154A03EB80031A60CB
:105FB80001230B7010BD92ED007ADFED127A30EEFE
:105FC800470AA0EE277A20EE000A03EB800393ED40
:105FD800006ADFED0D6A60EE277AE6EE267ADFEDDD
:105FE8000B6AF4EE667AF1EE10FA48BFF0EE667AC4
:105FF80082ED007AC3ED007ADCE700BF282F071096
:106008000BD7233B0AD7A33C48E17A3F17B7D139CE
:10601800012A02D1016000207047022A04BF0B68E0
:106028000360F8E70368184707B5806830B10023B4
:10603800CDE900131A46022102F0D4FE03B05DF840
:1060480004FB37B505460C460021FFF7EDFFA868AD
:1060580030B100231A461946CDE9004302F0C2FECA
:1060680003B030BD70B50D4B054614461E7886B09A
:1060780092B110460591FFF7CDFE059900233C2209
:106088008DF80860CDE9003203462246284605F01F
:106098005DF9284606B070BD1046EFE70876071090
:1060A8000246014805F02CB85DBB3F0210B5044616
:1060B800094B036004F02AF8214604F073FA05F04E
:1060C8006FFB05F05FFB2046044B40F8043B04F0EF
:1060D800F3F8204610BD00BF58F83F0240F83F02D1
:1060E80010B50446FFF7E2FF20462421FFF7D5FE4E
:1060F800204610BD10B58368044613B1032201463B
:106108009847204610BD000038B50F4B0446036081
:1061180083689BB16FF00041FFF786FF0021A068FC
:1061280002F0A6FE237903F0FF0513B102F014FE76
:10613800F8E72946A06802F039FEA56004F10C00D2
:10614800FFF7D8FF204638BD2CF83F0210B50446AB
:10615800FFF7DAFF20461C21FFF79FFE204610BDFF
:10616800002340681A46194603F068B900234068BE
:106178001A4603F02BB900224068114603F050B9C3
:106188002DE9F0411E46037D054688461746A3B112
:106198000368DC68A4B1A388012B06D0A468F9E7DA
:1061A800A4686CB1A388012BFAD14CB1A3894345EB
:1061B800F6D1E37BB342F3D1A7732846BDE8F0815B
:1061C8000021102003F0D8F808B92875F5E7064B28
:1061D8000360012383802B69A0F80C808360877398
:1061E800C6732861E9E700BF1000030010B54FF03F
:1061F800200C0446084600218AB0CDE90023CDE9E9
:1062080002C10B4602AA216803F000F80AB010BDCB
:106218000EB403B503AB53F8042B1E210193FFF70B
:10622800E5FF02B05DF804EB03B070470EB403B5A8
:1062380003AB53F8042B28210193FFF7D7FF02B0D3
:106248005DF804EB03B070470EB403B503AB53F825
:10625800042B32210193FFF7C9FF02B05DF804EB6C
:1062680003B07047002002F069BD70B50E461446B1
:1062780040F201614FF4DB7207F0C4F8051E0BDB36
:106288003146224607F0DCF80646284607F0B2F801
:10629800A31B5842584170BD0020FCE770B50E465C
:1062A8000021144607F0AEF8051E0BDB31462246E6
:1062B80007F0BCF80646284607F09CF8A31B58428E
:1062C800584170BD0020FCE710B540F6483211492E
:1062D8001148FFF7CAFF4FF4DB7240F201610F4823
:1062E80007F090F8041E0CDB04220D4907F0A8F80B
:1062F80044F2E06220460B4907F0A2F8204607F076
:1063080079F8FFF7AFFF034B0749DA880748FFF72B
:106318007FFF10BD09760710A5F03F02B5F03F02D8
:1063280078F83F02282F0710C8F03F02B4AE0710D4
:1063380037B504F0A7FD04F08BFD2A4C054640F65E
:10634800483221462848FFF7A9FFE8B1E288B2F5AC
:10635800B46F19D82368BBB1AB4215D82349244878
:10636800FFF756FF0021234807F04CF8051E1ADAFC
:10637800002144F2E062204806F0E7F81F491C4873
:10638800FFF746FF03B030BD1D480023B5FBF0F50D
:1063980045431C491648256023716371A371E37155
:1063A800FFF736FFDEE7042200240DEB020101941B
:1063B80007F03CF804280ED1134B019A9A420AD1EF
:1063C80044F2E06228460C4907F030F844F2E064F1
:1063D800031B5C425C41284607F00CF8002CC7D030
:1063E8000A49CCE709760710A5F03F02EAF03F0218
:1063F800B4AE0710B5F03F02282F071026F13F0270
:106408008051010010F13F024C444D4C5BF13F02BA
:1064180007B5074B0093074B1B68019305F0C2FFB4
:1064280008226946002002F0FDFB03B05DF804FB7A
:106438004C41434600B4071013B5002300240193D0
:10644800009405F0AFFF08222046694602F0DCFB05
:10645800154B009A154C9A4221D1DDED017AF4EEE4
:10646800677AF1EE10FA1AD1B6EE007AF4EEC77A2E
:10647800F1EE10FA13DBB0EE007AF4EEC77AF1EE23
:1064880010FA0CD8C4ED007A2068FEF775FF0246B2
:106498000B4607480749FFF7BBFE02B010BD064B85
:1064A8002360FFF7B5FFEFE74C41434600B4071000
:1064B800B4AE071078F13F02D7A3A03F1FB5094B30
:1064C8000093094B93E8070004AB03E9070005F0C4
:1064D80069FF10226946202002F0A4FB05B05DF890
:1064E80004FB00BF4746434C04B4071010B58AB0FC
:1064F80005F058FF1022202006A902F085FB154B55
:10650800069A9A42144B1DD10AAA12E9070083E899
:106518000700124C6068FEF72FFF02460B46617BAE
:10652800A0680391217BCDE904230291FEF724FFA3
:10653800DDE90423CDE9000109490A48FFF768FEAF
:106548000AB010BD084A07CA83E80700FFF7B6FF7C
:10655800DFE700BF4746434C04B4071000B40710F8
:1065680087F13F02B4AE071054F03F021FB5084A46
:10657800084B51691069019302AB03C305F012FF80
:106588000C22402001A902F04DFB05B05DF804FB88
:1065980000B407105043495010B586B005F002FF0B
:1065A8000C2240200DEB020102F02EFB039A0F4B48
:1065B8000F4C9A4204F110020FD104AB03CB2061B7
:1065C8005160E38A228A0193A38A0A4900930A4800
:1065D800638AFFF71DFE06B010BD0849CB6823612A
:1065E8000B695360FFF7C2FFEBE700BF5043495008
:1065F80000B40710B7F13F02B4AE071054F03F02E1
:10660800484938B5B0FBF1F20723141DB4FBF3F386
:10661800C3EBC303E31A4FF4967401FB1200B0FBFB
:10662800F4F04FF490742DED028B04FB03043E4B01
:10663800B0EE408A1A1902F57C52157835B9204611
:10664800FFF7A2FC0020BDEC028B38BD03EB8402EF
:10665800D2ED008A04F5FC6203EB820393ED000A95
:10666800DFED327AB4EE670AF1EE10FA48BFB0EE09
:10667800670A05F0F5FEB1EE007AF0EE687AE0EE12
:10668800077AB6EE007AF4EE477AF1EE10FA48BFD0
:10669800F0EE477AF4EEC87AF1EE10FA244B07D4FC
:1066A800244AD2ED017AF4EEC87AF1EE10FA25D533
:1066B8001A680132204821491A600368DFED207A00
:1066C80001EB830181ED008A0621013393FBF1F58B
:1066D80001FB15331B4903600B68B1EE047A052BE7
:1066E800DCBF01330B60002309681448994207DDB9
:1066F800F0EC016A0133E6EE877AF7E70022D9E782
:10670800062907D10B4B93ED027AB4EEE77AF1EE46
:1067180010FA04D4022A02DCB0EE480A8FE70120FE
:1067280091E700BF80510100282F071017B7D13912
:106738001C2F071000B40710F4900710F8900710EA
:106748000000000010910710F0B52DED028B1F4CD2
:106758000546A7690E467B1CB0EE408A85B00DD170
:10676800C4E9065604EB8500D0ED087A37EE880AAE
:1067780080ED080A05B0BDEC028BF0BD8742F1D070
:10678800029004EB8703186AFEF7F6FD3A46CDE956
:1067980000010F490F48FFF73BFD002DE0D1E369E9
:1067A800B342DDD0D4F88000FEF7E6FD0B46024682
:1067B80009490848FFF72CFD6022294604F120000A
:1067C80005F0C3FE0023C4F88030C9E700B4071001
:1067D800D1F13F02B4AE0710F3F13F020D49CA8868
:1067E800B2F5B46F14D29FED0C7AF6EE007AE0EEB3
:1067F800077AFCEEE77A501C17EE903AC88040F210
:10680800E7309BB2834228BF0346043221F8123096
:10681800704700BF097607100000C84208B5024952
:106828000248FFF7F5FC08BD12F23F02B4AE0710AC
:1068380070B50C4E0C4D06F11001284601F031FFE1
:10684800044640B100230949094886F88430FFF717
:10685800DFFC204670BD2A7806490548FFF7E6FCAC
:10686800F7E700BF00B407108091071024F23F0239
:10687800B4AE071040F23F0210B586B004AC214612
:106888000E4801F042FFB0B194E8030001220C4B1E
:1068980083E803000B4B0C481A709DF813300291E3
:1068A80001939DF812309DF81020009307499DF838
:1068B8001130FFF7ADFC06B010BD00BF8091071086
:1068C8001891071014910710B4AE071063F23F0235
:1068D80007B50021094B0190196002F079F9084BBE
:1068E800186002F075F9074B019A186006490748C5
:1068F800FFF78EFC03B05DF804FB00BFB8910710EA
:1069080058910710BC9107109CF23F02B4AE0710D3
:1069180070B505463348FFF7DBFF284603F0BBF99F
:10692800284603F0AAF928462F4903F059F90646E4
:10693800F8B10121072005F03EFC0121042005F0F3
:106948003AFC0121032005F036FC284A53792BB97B
:106958002749D1F888300133C1F8883001235371B1
:10696800244A25486FF000411370FFF76AFB0220A4
:1069780070BD2846214903F033F90446B8B1012413
:106988000121072005F017FC3146042005F013FC0F
:106998000121032005F00FFC144B6FF000415E71DC
:1069A800144B15481C70FFF74CFB2046E0E72846BF
:1069B800134903F015F988B12146072005F0FBFBC0
:1069C8002146042005F0F7FB2146032005F0F3FBE0
:1069D8006FF000410848FFF727FBE6E74FF0FF306C
:1069E800C6E700BFB8F23F02C6F23F022491071083
:1069F80000B40710C09107109C910710CCF23F0219
:106A080035F73F021FB5134B134C9A7922B9D4F8C6
:106A18008C200132C4F88C2001229A711A7922B98B
:106A2800D4F890200132C4F8902001221A71237BF7
:106A38004BB10A49684603F07CF86846FFF768FFDF
:106A4800684603F02BF8637B13B10122044B1A70DC
:106A580004B010BD2491071000B40710C6F23F021D
:106A6800C09107102DE9F04F2DED048B0D1E044643
:106A780089B009DD04F006FA04F0C4F9069040B9BB
:106A880066496748FFF7D2FB09B0BDEC048BBDE847
:106A9800F08F04F0F7F904F0DBF93C234FF0000A1B
:106AA800B0FBF3F04FF00108D146DFED5E9A9FEDA1
:106AB8005E9A431B5D4E0793B4F802B0079B07EE3E
:106AC80090BAF8EE677AC7EEA96AF5EEC06A03EBEA
:106AD8000807F1EE10FA4FF03C0303FB07F740F20A
:106AE8009980DFED537A9FED537AA6EEA77AF7EEF9
:106AF800007A37EE277A9FED508AC6EE877A9FEDA7
:106B08004F7A67EE887A9FED4E8A27EE877A27EECE
:106B1800888AA7EE878A9FED4B7A38EE478A77EE08
:106B2800C87A96ED008A27EE888AB5EE408AF1EE9B
:106B380010FA48BFB0EE498ADFED437AC8EE278ADB
:106B480018EE900AFEF718FCCDE9040118EE100AB9
:106B5800FEF712FC23884246CDE90201CDF804B0C5
:106B68003A492F4800932B46FFF752FBDFED387A5E
:106B7800B4EE678AF1EE10FA069BA4BFBA469946AE
:106B880004F080F93A46002304F008F9834604F03B
:106B980079F93A46002304F00BF9B0EE680A014689
:106BA8005846FFF7D1FDD6ED207A77EEA87AB0EEF9
:106BB800480A3846C6ED207AFFF722FD08B1FFF7EC
:106BC80021FFB0EE480AFFF709FE454508F1010329
:106BD80004F104041CD1B9F1000F04D00123C6F854
:106BE80098A086F89430D6F880001A4B9862FEF781
:106BF800C3FB194A194BCDE90001B9F1000F08BFD1
:106C0800134617492A4606480293FFF701FB3BE75C
:106C1800984651E7B0EE498A8EE700BFE0F23F029E
:106C2800B4AE0710000070420000000000B4071066
:106C380004E78CBBB81E853D7F6ABC3C3333B33E4A
:106C48001F85EBBE96430B3DE02DB03F02F33F029C
:106C5800CDCCCC3D2491071092F93F02D1F23F02EE
:106C68003CF33F0208B5A8B94FF47A7211491248AB
:106C780001F09EFC021E13DD11460E48FFF7F2FEDE
:106C8800FFF722FB0D4B93F8843043B1BDE8084071
:106C9800FFF7CEBD084801F0E1FA0028E4D108BDAD
:106CA80003D10122064B1A70ECE706490648FFF7A4
:106CB800BDFAE7E7528107108091071000B407106A
:106CC800242F071067F33F02B4AE071010B504462F
:106CD8001948FFF7FDFD204602F0DDFF204602F0CF
:106CE800CCFF2046154902F07BFF68B1144A13799E
:106CF8002BB91449D1F890300133C1F890300120F4
:106D0800114B1071187010BD2046104902F068FF31
:106D180040B1002001220A4B18710D4B18600A4B34
:106D28001A70F0E720460B4902F05AFF0028F0D10C
:106D38004FF0FF30E7E700BF7BF33F0296F73F02D3
:106D48002491071000B40710C091071035F73F02CF
:106D58001C2F07100CF23F02084808B5FFF7B8FDD2
:106D6800FFF78AFD0122064B1A70064B1B78002B91
:106D780014BF10464FF0FF3008BD00BF89F33F0233
:106D8800C09107101491071073B504462648FFF701
:106D98009FFD204602F07FFF204602F06EFF20464E
:106DA800224902F01DFFD8B101263146204801F0E2
:106DB800DCFC054608B1FFF75FFD01241D4B1E4AA8
:106DC8001C701B4B1D491B781D4800931D4B002D43
:106DD80018BF13463246FFF71BFA0DB3204621E0D1
:106DE8002046194902F0FCFE0028DDD1204617494B
:106DF80002F0F6FE08B10226D7E72046144902F051
:106E0800EFFE0028F7D12046124902F0E9FE08B14A
:106E18000326CAE72046104902F0E2FE0028F7D10F
:106E28004FF0FF3002B070BD96F33F02A2F33F026D
:106E380080910710C091071092F33F02B3F33F020D
:106E4800B4AE0710E4F63F024AF93F02A7F33F0247
:106E580041F63F02ACF33F02B1F33F0208B50648E2
:106E6800FFF736FD054801F0A0FC05490548FFF786
:106E7800CFF9012008BD00BFDAF33F028091071067
:106E8800E3F33F02B4AE071008B50548FFF720FD4D
:106E9800FFF7CEFC002814BF01204FF0FF3008BDDB
:106EA800F7F33F02F0B504469DB02D48FFF710FDFB
:106EB800204602F0F0FE2C21204602F0B1FE051E0D
:106EC8004BDD2B460022214601A802F0ADFE2146EB
:106ED8006A1C05A802F0CAFE01A802F0DCFE05A89B
:106EE80002F0D9FE039B53B94FF0FF3405A802F016
:106EF800D5FD01A802F0D2FD20461DB0F0BD019FCE
:106F0800059D37B33846FEF785FF06461DB328466C
:106F1800FEF780FF0446382200210DEB020005F041
:106F280014FB4C23CDE9093703238DF838300023AF
:106F38000D940C4C1946606809AACDE90B6502F05E
:106F4800B5FA01460028CFD12046FFF70FF90124F2
:106F5800CCE73E46DAE72C46DDE74FF0FF34CBE7D7
:106F6800FFF33F026CAF071010B50848FFF7B0FCFD
:106F78000023074C1A461946606802F0A5FA6068B3
:106F88000022022102F03EFA012010BD07F43F0260
:106F98006CAF071038B504461C48FFF799FC20462B
:106FA80002F079FE206805F08DFA51EC100BFEF71F
:106FB800D5FC07EE900AF4EE677AF1EE10FA21D1CB
:106FC800B6EE007AF4EEC77AF1EE10FA1AD4B0EE03
:106FD800007AF4EEC77AF1EE10FA13DC01240C4DB6
:106FE8002860FFF715FAFFF73DF90A4B28681C706F
:106FF800FEF7C2F902460B4607480849FFF708F9A9
:10700800204638BD4FF0FF30FBE700BF11F43F02C8
:1070180000B40710C0910710B4AE07101CF43F026B
:107028002DE9F0432DED028B04468BB05D48FFF748
:107038004FFC204602F02FFE2C21204602F0F0FDE6
:1070480000F1010907464A462C21204602F0DAFDE4
:1070580000F10108054642462C21204602F0D2FDE7
:10706800002F064603DB002D01DB00280ADA4E4814
:107078004E49FFF7DBF84FF0FF300BB0BDEC028B49
:10708800BDE8F0833B460022214606A802F0CCFD6D
:10709800069805F017FA51EC100BFEF75FFC08EEA6
:1070A800900A06A802F0FAFC2B464A46214606A892
:1070B80002F0BAFD069805F005FA51EC100BFEF740
:1070C8004DFC08EE100A06A802F0E8FC33464246DA
:1070D800214606A802F0A8FD069805F0F6F905462F
:1070E80006A802F0DBFC721C214606A802F0BEFDD1
:1070F800069805F0EAF9064606A802F0CFFCDFED8F
:107108002C7AF4EEE78AF1EE10FA3ED4DFED297A14
:10711800F4EEE78AF1EE10FA37DCF7EE007AB4EE17
:10712800E78AF1EE10FA33D4DFED237AB4EEE78A7A
:10713800F1EE10FA2CDC012D2DD8022E2ED80124C8
:107148001E4BC3ED018A83ED028A1D735E73FFF740
:10715800B5F9FFF787F81A4B18EE900A1C70FEF77E
:107168000BF902460B4618EE100ACDE90423CDE9C7
:107178000256FEF701F9DDE90423CDE900010A48CA
:107188001049FFF745F8204677E76FF0010074E7EC
:107198006FF0020071E76FF003006EE76FF0040014
:1071A8006BE700BF2EF43F02B4AE071038F43F027D
:1071B800CDCCCC3D0000484300007A4400B4071011
:1071C800C091071055F43F022DE9F043044687B0FB
:1071D8004D48FFF77DFB204602F05DFD2C2120463F
:1071E80002F01EFD00F1010905464A462C21204601
:1071F80002F008FD471C06463A462C21204602F0BC
:1072080001FD002D804603DB002E01DB002808DA93
:107218003E483F49FFF70AF84FF0FF3007B0BDE896
:10722800F0832B460022214602A802F0FDFC0298BA
:1072380005F04FF9054602A802F030FC33464A46ED
:10724800214602A802F0F0FC029805F042F9064631
:1072580002A802F023FC43463A46214602A802F05F
:10726800E3FC029805F035F9074602A802F016FC7F
:1072780008F10102214602A802F0F8FC029805F084
:1072880028F9804602A802F009FC4FF6E7536A1E67
:107298009A422DD8721E9A422DD87A1E9A422DD81B
:1072A80008F1FF329A422CD81A4C02A91A4801F068
:1072B800C7F925826682A782A4F81680FFF756F9D7
:1072C800FEF7D0FF0123154A1549137084F884305E
:1072D8002A4633460D48CDE90078FEF799FFFFF7B7
:1072E800A7FAFFF7C9FA94F8840080F0010095E73F
:1072F8006FF0010092E76FF002008FE76FF0030074
:107308008CE76FF0040089E781F43F02B4AE071000
:107318008FF43F0200B4071080910710C091071046
:10732800B0F43F0213B50D48FFF7D2FA69460C488E
:1073380001F086F90B4C60B16B460B4A03CB106128
:107348005161FFF713F9FEF78DFF0120207002B09D
:1073580010BD01234FF0FF302370F8E7D1F43F024E
:1073680080910710C091071000B407102DE9F04173
:10737800994B8CB01A795B7902B933B1974998481F
:10738800FEF746FF0CB0BDE8F081964D95F89430B5
:1073980033B303F077FD03F035FD80B9002385F89A
:1073A8009430FEF75FFF90498D48FEF731FF95F85E
:1073B8009430ABB18D498A48FEF72AFFE2E703F023
:1073C80061FD03F045FD0028E8D0D5F89830002B82
:1073D800E4D08342E2D8C01AB0F5967FDED2E6E761
:1073E800834E01F0F5FB3368002B24D1814A1268E3
:1073F800801A4EF65F229042C4D901333360FEF7FB
:1074080063FF002306A8CDE90633ADF820308DF8D8
:10741800223003F086FE01F0DBFB41F28737044699
:1074280001F0D6FB001BB84208D802F0D9F828B101
:1074380002F0BAF8F4E7E0DD6F4AD8E702F0D0F8D6
:1074480000236E4F1A461946786802F005F801F0D5
:10745800BFFB44F61F68044601F0BAFB001B404519
:1074680006D83846FEF787FE10B102F09DF8F3E71C
:107478006248FEF780FEFA2003F020FD03F002FDCB
:1074880003F0C0FC58BB4FF4E14407AB069310234C
:107498000025ADF81C300323022201270C21ADF88A
:1074A8001E3006A82B46CDE908550A958DF82020F0
:1074B8008DF82C70FEF764FE2B463A460A21FEF73B
:1074C8005FFE037D054623B34FF47A77036867436D
:1074D800DB68C3B19A88042A7BD09B68F9E703F07C
:1074E800D1FC03F0B5FC0028CDD0D5F89C408442EF
:1074F800C9D9241A012C38BF0124B4F5E14F28BF9B
:107508004FF4E144C1E70021102001F035FF38BBFA
:1075180028754FF4E14332683949314800932346CE
:10752800FEF776FE06A903A802F0E0F901F050FB89
:107538000222314B334D1860334B1A70039BC3B191
:107548009C88012C3DD19B890A2B25D124482F49A1
:10755800FEF75EFE2046FFF785FB00232B7022E036
:107568002B4B0360042383802B69C0E90237286111
:10757800CFE71C462246BDF9103026491848FEF7C9
:1075880055FE00232B70336001F022FB194BA0F548
:107598006A406038186006E00C2BEBD11E49104891
:1075A800FEF736FE2C70039808B102F06DF80A98C1
:1075B80000283FF4E7AE8468002101F0EBFE204686
:1075C800F6E7042CD6D106481449FEF721FE002020
:1075D800C1E7DF609DE700BF24910710DFF43F0299
:1075E800B4AE071000B407100FF53F0240F53F0294
:1075F800B8910710BC910710589107106CAF07108D
:107608006CF53F02C09107102091071099F53F02D1
:10761800100003000AF63F02B3F53F02CBF53F0224
:1076280008B50748FEF7A7FD40B101F0D9FF28B11A
:107638000222044B1A700122034B1A7008BD00BFC6
:107648006CAF071020910710C09107107FB504F0A8
:10765800A7F84FF4E13104F091F801F0B9FA0446C3
:1076680001F0B6FA001BB0F5FA5F07D204F098F8FB
:1076780004F08BF810B901F097FFF1E7002404F04B
:107688008FF804F082F803F0FDFBBAEE000A03F06D
:1076980099FB654A65496648FEF7BAFDFEF7CCFED8
:1076A800FEF724FFFEF778FF0121072004F072FDA2
:1076B8000121042004F06EFD0121032004F06AFD7D
:1076C80002210C2004F066FD00211B2004F062FD5D
:1076D8005849684602F02DFA6846FFF719F96846D6
:1076E80002F0DCF94FF41641534800F0A9FD534964
:1076F8005348FEF7D5FC53495348FEF7D1FC53498C
:107708005348FEF7CDFC53495348FEF7C9FC53498B
:107718005348FEF7C5FC53495348FEF7C1FC53498B
:107728005348FEF7BDFC53495348FEF7B9FC53498B
:107738005348FEF7B5FC53495348FEF7B1FC53498B
:107748005348FEF7ADFC53495348FEF7A9FC53498B
:107758005348FEF7A5FC53495348FEF7A1FC534B89
:1077680053481C60FEF7FCFC21465148FEF7FEFC1E
:1077780001F02EFA44F61F6504464D4E01F028FA32
:10778800001BA84206D83046FEF7F5FC10B901F0F8
:107798000BFFF3E74648FEF7EEFC01F013FF01F09C
:1077A80017FA47F22F55044601F012FA001BA842B7
:1077B80005D801F015FF10B901F0F6FEF4E701F065
:1077C8000FFF03F05FFB03F01DFB10B901F0ECFEA7
:1077D800F7E703F057FB03F015FBFEF7A9FD03F0ED
:1077E80051FB03F035FB334AD2F8A03083429FBFE8
:1077F8003C23B0FBF3F000FB0333C2F8A0300122B6
:107808002D4B1A7001F0E4F92C4B186001F0E0F9E7
:1078180002222B4B2B4918602B4B05481A70FEF798
:10782800F7FC04B070BD00BF40F63F0243F63F02CC
:10783800B4AE071035F73F028091071099733F02E5
:10784800B8F23F0255773F027BF33F021D7A3F02B1
:1078580011F43F0271693F025BF63F02A97A3F02C9
:107868002EF43F0295693F0266F63F02517C3F02C3
:1078780081F43F02AD7D3F02D1F43F02E1773F0240
:1078880089F33F0211783F0296F33F02E5783F0201
:10789800DAF33F0211793F02F7F33F022D793F02F5
:1078A800FFF33F02F1793F0207F43F0224910710EA
:1078B8006CAF071000B40710C0910710BC910710F7
:1078C8005891071070F63F022091071038B50468E8
:1078D80005467CB16368013B63605BB92368204659
:1078E8009B689847A368013BA3601BB9236820469F
:1078F800DB689847284638BD70B51426D0E9005390
:10790800044606FB0356AE4204D0284602F0C6F8E9
:107918001435F8E7206801F0B7FE204670BD37B58A
:1079280004461546019101F069F8012220460199A3
:1079380000F0D2FF20463A2100F082FF01222946BA
:10794800204603B0BDE8304000F0C6BF37B5044656
:107958001546019101F052F801222046019900F0E4
:10796800BBFF20463A2100F06BFF2A462046034918
:1079780003B0BDE8304000F0A2BF00BF78F33F027B
:107988002DE9F04FDFF85CA1ADF56D7DBAF8066022
:10799800002E00F08B8078237736B6FBF3F60027AD
:1079A800B3B201934FF00009C7EB0715BAF80640C8
:1079B800ED00ADB2641BA4B2782C28BF7824C84669
:1079C8000DF1140B1FFA89F39C4212D909EB050338
:1079D800C8F5B47104330BEB08003AF81330354A94
:1079E800013101F06DFE8044B8F5B47F09F1010959
:1079F800E8D300234FF400726CA960A80BF8083094
:107A080000F00CFF2C4B7D227B2160A8609301F0D5
:107A180000F82A4A2A4960A8FFF781FFDAF800200F
:107A2800284960A8FFF792FF01373C22264960A841
:107A3800FFF78CFF3A46254960A8FFF787FF3246D3
:107A4800234960A8FFF782FF2A46224960A8FFF76A
:107A58007DFF2246204960A8FFF778FF60A800F064
:107A6800CDFF01221D4960A800F036FF3A2160A829
:107A780000F0E6FE0122594660A800F02DFF60A83C
:107A880000F0EDFE619A164903A8FEF7EBFA04A888
:107A9800FFF71CFF40F24C4003F010FA60A8FEF715
:107AA8003BFA019ABBB29A423FF67CAF0DF56D7D69
:107AB800BDE8F08F7FF63F0270F83F0240F63F02C4
:107AC80084F63F028DF63F0295F63F02A1F63F028B
:107AD800A7F63F02B3F63F02BFF63F02CBF63F02DE
:107AE800D0F63F020976071013B504468DED000A5B
:107AF800019100F083FF01222046019900F0ECFE7D
:107B080020463A2100F09CFE9DED000A204602B076
:107B1800BDE8104000F096BF70B52DED048B984875
:107B2800ADF5167DFEF727FB014608BB9448FEF726
:107B38001DFB01F04DF844F61F650446904E01F018
:107B480047F8001BA84206D83046FEF714FB10B9C8
:107B580001F02AFDF3E78A48FEF70DFB40B9894991
:107B68008948FEF771FB0DF5167DBDEC048B70BDE1
:107B78004FF4007216A90AA800F050FE834B7D222C
:107B88007B21834D0AA80A93824C00F042FF824A67
:107B980082490AA8FFF7C3FE2A6881490AA8FFF7A5
:107BA800D5FED4F890207F490AA8FFF7CFFED4F875
:107BB80088207D490AA8FFF7C9FED4F88C207B49A4
:107BC8000AA8FFF7C3FE95ED020A79490AA8FFF74C
:107BD8008BFF94ED000A77490AA8FFF785FF94ED1B
:107BE800010A75490AA8FFF77FFF94ED020A734955
:107BF8000AA8FFF779FF227B71490AA8FFF7A6FEBA
:107C0800627B70490AA8FFF7A1FE228A6E490AA87A
:107C1800FFF79CFE628A6D490AA8FFF797FEA28AC1
:107C28006B490AA8FFF792FEE28A6A490AA8FFF799
:107C38008DFE94F8842068490AA8FFF787FE674BF1
:107C48001B78CBB1664D6749AA780AA8FFF77EFE74
:107C5800EA7865490AA8FFF779FE2A7863490AA8ED
:107C6800FFF774FE6A7862490AA8FFF76FFE6A6830
:107C780060490AA8FFF76AFE5F490AA800F002FFF8
:107C88001825F2EE048AB6EE009A5C4EF6EC017AFC
:107C9800B0EE498AA7EEA88ABBFE488A0AA800F077
:107CA800ADFE88EE280A0AA800F0CCFE013DEDD111
:107CB8000AA800F0D4FD324901A804F0E9F801A8A7
:107CC80004F066F8FDEEC07A4D4917EE902A0AA82E
:107CD800FFF73CFE1B2004F09AFA07EE900A9FED8E
:107CE800490AF8EEE77A484987EE800A0AA8FFF7BA
:107CF800FBFE01F05BFE454902460AA8FFF726FE97
:107D0800284600F0ABFF00234FF47A72FDF776FEA9
:107D18003F4902460AA8FFF719FE0AA800F09FFD8E
:107D28000B9A3C4901A8FEF79DF93B4E02A8FFF7C4
:107D3800CDFD0B9A39491448FEF76AFAFFF720FE81
:107D4800F388B3F5B46F10D303F09CF803F080F810
:107D5800334B3449B0FBF3F0584330600A4835716F
:107D68007571B571F571FEF753FAFEF7ADFA002398
:107D78000AA8C4E92233C4F89030FEF7CDF8F2E639
:107D88006CAF0710DFF63F02B4AE071070F83F0281
:107D98002491071000B4071040F63F0284F63F0212
:107DA800E9F63F02F0F63F02F8F63F0200F73F021D
:107DB800A2F33F0209F73F0211F73F021CF73F0207
:107DC8002AF73F0239F73F0246F73F0255F73F02CD
:107DD80062F73F0271F73F027EF73F0214910710E6
:107DE800189107108DF73F0299F73F02A8F73F0255
:107DF800B1F73F02BBF73F02CAF73F0220B40710B2
:107E0800D8F73F02CDCC4C44DDF73F02E5F73F02FF
:107E1800EDF73F02F4F73F0209760710FFF73F023C
:107E2800805101000DF83F022DE9FF410C2004F0BC
:107E3800DBF95F4E5F4DD8B93478002C40F086806E
:107E480000F0C6FE5C4A1368C31AB3F5967F7DD965
:107E58005A4B10601C715A4B5A481C6001242C70F4
:107E6800FEF736FD4FF4FA7003F028F8204605E0D7
:107E78000021084601F02CFA0028DDD13070524864
:107E880000F0ECF9514B002862D01B786BB900F078
:107E98009FFE4F4C2368C01AB0F57A7F05D300F0D7
:107EA80097FE20600120FEF7DDFE4A4C23787BB167
:107EB8004949684601F03DFE6846FEF729FD6846D7
:107EC80001F0ECFD00233D4A938001222A702370C3
:107ED800424C02F0D7FF02F0BBFFD4F89C3033B914
:107EE8003F4BB0FBF3F202FB0333C4F89C30D4F8E9
:107EF8009C30834209D801222A7003F5A83303F580
:107F0800C0738342F9D9C4F89C302B78002B4BD02E
:107F180001F066FB0646D0BB3248FEF721F9314630
:107F28003048FEF723F900F053FE44F61F67064673
:107F3800DFF8B08000F04CFE801BB8420AD84046FB
:107F4800FEF719F930B901F02FFBF3E7012095E7A7
:107F58001870AAE72348FEF70EF901F033FB00F08A
:107F680037FE47F22F57064600F032FE801BB84214
:107F780005D801F035FB10B901F016FBF4E701F064
:107F88002FFB00F025FE184B186001F00DFB94F84C
:107F980084300BB1FEF74CFCFEF76EFCFEF73EFC9E
:107FA800FFF7BAFD00232B7004B0BDE8F08100BFD5
:107FB80050910710C0910710549107102491071091
:107FC8001C2F07101BF83F0280910710242F071061
:107FD800202F07109891071035F73F0200B40710BB
:107FE800805101006CAF0710D0AF071008B5FFF73C
:107FF800BDF9084B1B78012B06D9022B07D0BDE829
:108008000840052002F05ABFFFF70AFBF7E7FFF721
:108018000BFFF4E7209107108842F8B504460D4697
:10802800164616D9904215D2A2F11406751AA1F176
:1080380014072C44B7421CD02CB13146204601F01D
:10804800AAFD337C2374304601F028FD143E143C0D
:10805800F0E70ED0B5420CD02CB12946204601F0ED
:108068009AFD2B7C2374284601F018FD143514342E
:10807800F0E7F8BD00232DE9F041C0E90033836043
:108088004F6804469F420E4624DD4FF0140808FB53
:1080980007F001F0EBFA0546E0B1D4E9001208FB5D
:1080A8000212FFF7B9FF206801F0EEFA2560A76019
:1080B800D6E9007308FB0378B84509D03946284645
:1080C80001F083FD3B7C143505F8043C1437F3E7D5
:1080D800736863602046BDE8F08100002DE9F04335
:1080E8000024434B91B01C7003F0ECFF234622465A
:1080F800022104F003F803F0E5FF2021234622467D
:1081080003F0EEFF3B4B3C4AC3E900449A6003206E
:1081180001F0C2F8CDE90344059403F041FB374F61
:108128008046B94609AE03A906A8FFF7A3FF06A92A
:108138003046FFF79FFF324B0CAD49F8043B314600
:108148002846FFF797FF2A461E21484602F0CAFA3A
:108158002846FFF7D1FB3046FFF7CEFB294B06A890
:108168003B60C7F82080FFF7C7FB274B3B6003F055
:1081780017FB4FF4165103F001FB01F0C7FF394616
:1081880002F0CAF903A8FFF7B7FB0121084600F07F
:108198008FFD1E4B1E4A1C701E4B0C9395E8030066
:1081A8001D4B86E803001A6003F10C0292E80300F5
:1081B80085E8030096E8030082E80300174A1C716B
:1081C8005A619A699C600F92154A42F210719A613D
:1081D800012203F1080000920194124A0E9400F063
:1081E800D7FD2846FDF786FF11B0BDE8F08300BF34
:1081F80008760710102F07100000FFFF5C9107108A
:1082080040F83F02B0F93F0258F83F02809107104A
:108218002CF83F025D693F029C910710996A3F0262
:10822800AD6A3F02D7693F0270B504460646034D62
:108238000FCD0FC42B683046236070BD68F03F0235
:1082480010B50C460A20032103F0A4FF04F01AF825
:108258002146BDE81040002203F0F0BC08B50A2012
:1082680003F0C2FF431E5842584108BD08B504F048
:1082780009F803681B69984728B104F003F80368F4
:108288005B699847F3E708BD38B50D4600F0A0FCD8
:10829800044600F09DFC001BA8424FF00A0007D2DC
:1082A80003F0A2FF012808D0012002F007FEF0E742
:1082B80003F09AFF431E5842584138BDF8B50D46A1
:1082C800164600F085FC074603F0DCFF03681B69CF
:1082D8009847044630B900F07BFCC31BB342F3D384
:1082E800204606E003F0CEFF03685B6998472870D4
:1082F8000120F8BD024630B501444AF201054FF6A7
:10830800FF708A420FD0082412F8013B584000F051
:108318000103400813B180EA050398B2631E13F005
:10832800FF04F4D1EDE730BD38B50546FFF796FFF9
:10833800C0B9052403F0A6FFF02103F089FC03F07F
:10834800A1FF0368DB69984764212846FFF79CFF73
:1083580040B9013C14F0FF04ECD12846BDE8384090
:10836800FFF77CBF012038BD2DE9F84303F107086A
:10837800B8F1170F04460F4691461D4603D900264B
:108388003046BDE8F883FFF7CFFF06460028F6D051
:10839800AA2363705523A3702B0A23710023E77067
:1083A80065719AB2571DAA4214FA87F704D219F8D0
:1083B800032001337A70F4E7E91C89B2E01CFFF767
:1083C80099FF0635030A14FA85F57B706870204614
:1083D800FFF74CFF03F056FF03684246DB68611C59
:1083E800984703F04FFF0368DB699847C8E72DE912
:1083F800F04387B0144680460E469946002500F0A3
:10840800E7FB0F9A8DF80B50171800F0E1FB381AAC
:10841800002804DC6FF0010007B0BDE8F0830522F6
:1084280040460DF10B01FFF749FF0028EDD0AA2DBA
:108438009DF80B50E9D1552DE7D100F0C9FB381A4A
:10844800002801DC012202E000F0C2FB3A1A0025F4
:1084580004AB404659190192FFF730FF0028D9D0E4
:108468000135032D019AF3D1BDF811707FBABDB261
:10847800A9454ED3A1462544A945019237D1404686
:1084880003A9FFF71BFF0028C4D04046019A0DF14D
:108498000D01FFF713FF0028BCD09DF811309DF89F
:1084A80010908DF815309DF81230032105A88DF82D
:1084B80014908DF81630FFF71DFF4AF20102BDF83F
:1084C8000C8098FA98F81FFA88F8AC4219D014F87A
:1084D800013B5840082380B200F00101C0F34F006F
:1084E80001B15040013B13F0FF03F5D1EDE74946D8
:1084F8004046FFF7E3FE09F10109019A0028BBD1C4
:1085080088E7404508D10E9B86F8009000201F8020
:1085180082E76FF006007FE76FF002007CE72DE945
:10852800F04F05460E461746984604244FF00009BA
:1085380085B09DF838A0BDF840B043463A4631466C
:108548002846FFF711FF48B3129B284601930DF107
:108558000E0300930F9A5B460DF10D018DF80D90F7
:10856800ADF80E90FFF743FFD0B99DF80D308F2B73
:108578000AD1BDF80E300BB10F9B1B786FF00500C8
:108588002B7005B0BDE8F08F53450ED1119B002B21
:10859800F7D0BDF80E30119A1380F2E74FF0FF3094
:1085A800013C14F0FF04C8D1EBE76FF00400F7E7D3
:1085B80070B516464FF47A6288B004920DF11E0227
:1085C800039240F6BC320023029281221B4C0D46D6
:1085D800009201211A460194ADF81E30FFF79FFF63
:1085E80038BBBDF81E20032A21D9216809BAB1F584
:1085F8007A7F1CD801EB41030433934217D18E4292
:1086080019D32346AE1C884203F1030311D09A788C
:108618005C78120242EA0442DC781443920B25F893
:108628002020C4F30D0226F820200130EBE76FF07C
:10863800030008B070BD6FF00600FAE7C1A207108A
:108648004FF47A7330B58BB004930DF11E03039386
:108658000823029308AB0025019382230C4600935C
:108668002A462B460221ADF81E50FFF758FFB0B935
:10867800BDF81E30082B10D10120BDF820305BBAA0
:108688002380BDF822305BBA6380BDF824305BBA22
:10869800A380BDF826305BBAE3800BB030BD284616
:1086A800FBE700B50B888BB01A0A8DF821304B8890
:1086B8008DF820208DF823301A0A8B888DF8222017
:1086C8008DF825301A0ACB888DF824208DF82730AC
:1086D8001A0A0023ADF81E304FF47A7304930DF193
:1086E8001E0303930223029307AB01938E238DF895
:1086F800262000930321082308AAFFF710FFB0FAE9
:1087080080F040090BB05DF804FB4FF47A7330B584
:108718008BB004930DF11E0303930823029308AB57
:108728000025019384230C4600932A462B460421F6
:10873800ADF81E50FFF7F3FEA8B9BDF81E30082BA0
:108748000FD101209DF8203023709DF821306370EF
:108758009DF82230A3709DF82330E370099B1BBA63
:1087680063600BB030BD2846FBE7002300B589B035
:10877800ADF81E304FF47A7304930DF11E03039382
:108788000223029307AB01938E2301F003018DF8B6
:10879800181000930521012306AAFFF7C0FEB0FABE
:1087A80080F0400909B05DF804FB002306211A4651
:1087B800FFF7DABD10B5054B04460360037C1BB90F
:1087C800406808B100F060FF204610BD94F83F02F1
:1087D80010B50446FFF7EEFF20461421FDF75DFBB8
:1087E800204610BD10B50446024B0360FFF7E2FFB8
:1087F800204610BDA4F83F0210B50446FFF7F2FF6B
:1088080020463021FDF749FB204610BD00230122F8
:10881800C3604361028380F82A307047C0E90112BF
:108828000022C26001220274044A08B502604FF0B7
:10883800FF32C262FFF7EAFF08BD00BFA4F83F029B
:10884800D0E90223934228BF012310B53FBF4268F5
:108858005C1CC460D15428BF80F82A3010BD10B504
:108868004369044643B100EB4303597E09B1FFF75E
:10887800E7FF6369013B63610022D4E90210636882
:1088880088422ABF5B181A5403F8012C10BD70B532
:108898000446D0E9025066682D1A134630440A4649
:1088A800294600F01BFF854237BFA368E368E360F1
:1088B800012326BFC018E06084F82A3070BD0EB4CA
:1088C80003B503AA52F8041B0192FFF7E0FF02B0B8
:1088D8005DF804EB03B070472DE9F84304460E46F3
:1088E800174612B12221FFF7ABFF0025DFF80881F8
:1088F800715D06EB0509002974D0D4E902329A4269
:1089080070D20B0634D501F0F003E02B05F1010914
:108918001DD116F8092002F0C003802B39D105F1CA
:10892800020916F8093003F0C000802831D103F09D
:108938003F03920143EA013302F47C621A4392B284
:1089480041462046FFF7BBFF4D460135D0E701F011
:10895800E003C02B1DD116F8093003F0C002802AAD
:1089680017D1890101F4F86203F03F031A43E7E7DE
:108978000D290AD807290CD9A1F10803052B08D815
:10898800DFE803F009231707111D222923D05C29EA
:1089980021D0204604E05C212046FFF751FF6221E8
:1089A800FFF74EFFD1E75C212046FFF749FF66211C
:1089B800F6E75C212046FFF743FF6E21F0E75C21D4
:1089C8002046FFF73DFF7221EAE75C212046FFF7CA
:1089D80037FF7421E4E75C212046FFF731FF99F85F
:1089E8000010DDE72FB12046BDE8F8432221FFF74C
:1089F80027BFBDE8F88300BF7CF83F02426900EB5F
:108A080042031A7E12B100221A7670472C21FFF712
:108A180017BF73B5436916460133082B01910FD868
:108A28000125FFF7EBFF4369019900EB43045A1C4A
:108A38004261A576E676FFF703FF284602B070BDCF
:108A48000020FBE737B5044610EE100AFCF794FC4B
:108A5800E56A0246002D0B4608DBCDE900232046D7
:108A68002A460649FFF72BFF03B030BD20460449CC
:108A780003B0BDE83040FFF722BF00BF83F83F02D4
:108A880088F83F0213B504460191FFF7B7FF0122AA
:108A98000199FFF721FF3A212046FFF7D1FE012275
:108AA80063695B210C3304F813205D2202B0BDE832
:108AB8001040FFF7AEBF000009B504480068044B3A
:108AC80003441B689B68029309BD0000282D07100A
:108AD8005000000009B504480068044B03441B68B3
:108AE8005B69029309BD0000282D071050000000A3
:108AF80009B504480068044B03441B685B6802938B
:108B080009BD0000282D07101400000009B504480D
:108B18000068044B03441B689B68029309BD00006E
:108B2800282D07101400000009B504480068044BFC
:108B380003441B68DB68029309BD0000282D071059
:108B48001400000009B504480068044B03441B687E
:108B58001B69029309BD0000282D071014000000AE
:108B680009B504480068044B03441B685B69029319
:108B780009BD0000282D07101400000009B504489D
:108B88000068044B03441B681B6B029309BD00007B
:108B9800282D07101400000009B504480068044B8C
:108BA80003441B689B69029309BD0000282D071028
:108BB8005400000009B504480068044B03441B68CE
:108BC8005B68029309BD0000282D07100000000013
:108BD80009B504480068044B03441B685B690293A9
:108BE80009BD0000282D07100000000009B5044841
:108BF8000068044B03441B689B6A029309BD00008C
:108C0800282D07100000000009B504480068044B2F
:108C180003441B685B6C029309BD0000282D0710F4
:108C28000000000009B504480068044B03441B68B1
:108C38009B6C029309BD0000282D0710000000005E
:108C480009B504480068044B03441B689B6D0293F4
:108C580009BD0000282D07100000000009B50448D0
:108C68000068044B03441B68DB6D029309BD0000D8
:108C7800282D07100000000009B504480068044BBF
:108C880003441B685B6E029309BD0000282D071082
:108C98000000000009B504480068044B03441B6841
:108CA8005B6D029309BD0000282D07101C00000011
:108CB80009B504480068044B03441B685B6E0293C3
:108CC80009BD0000282D07101C00000009B5044844
:108CD8000068044B03441B681B68029309BD00002D
:108CE800282D07106400000009B504480068044BEB
:108CF80003441B685B68029309BD0000282D071018
:108D08006400000009B504480068044B03441B686C
:108D18009B68029309BD0000282D0710640000001D
:108D280009B504480068044B03441B68DB680293D8
:108D380009BD0000282D07106400000009B504488B
:108D48000068044B03441B681B68029309BD0000BC
:108D5800282D07107000000009B504480068044B6E
:108D680003441B68DB68029309BD0000282D071027
:108D78003000000009B504480068044B03441B6830
:108D8800DB69029309BD0000282D071030000000A0
:108D980009B504480068044B03441B681B6A029326
:108DA80009BD0000282D07103000000009B504484F
:108DB8000068044B03441B685B6A029309BD00000A
:108DC800282D07103000000009B504480068044B3E
:108DD80003441B689B6A029309BD0000282D0710F5
:108DE8003000000009B504480068044B03441B68C0
:108DF800DB6A029309BD0000282D0710300000002F
:108E080009B504480068044B03441B685B6C029373
:108E180009BD0000282D07103000000009B50448DE
:108E28000068044B03441B689B6C029309BD000057
:108E3800282D07103000000009B504480068044BCD
:108E480003441B68DB6C029309BD0000282D071042
:108E58003000000009B504480068044B03441B684F
:108E68005B6D029309BD0000282D0710300000003B
:108E780009B504480068044B03441B681B6F029340
:108E880009BD0000282D07103000000009B504486E
:108E98000068044B03441B685B69029309BD00002A
:108EA800282D07104C00000009B504480068044B41
:108EB80003441B689B68029309BD0000282D071016
:108EC8002400000009B504480068044B03441B68EB
:108ED800DB68029309BD0000282D0710240000005C
:108EE80009B504480068044B03441B681B690293D6
:108EF80009BD0000282D07102400000009B504480A
:108F08000068044B03441B685B69029309BD0000B9
:108F1800282D07102400000009B504480068044BF8
:108F280003441B689B69029309BD0000282D0710A4
:108F38002400000009B504480068044B03441B687A
:108F4800DB69029309BD0000282D071024000000EA
:108F580009B504480068044B03441B681B6A029364
:108F680009BD0000282D07102400000009B5044899
:108F78000068044B03441B689B6A029309BD000008
:108F8800282D07102400000009B504480068044B88
:108F980003441B68DB6A029309BD0000282D0710F3
:108FA8002400000009B504480068044B03441B680A
:108FB8001B6B029309BD0000282D07102400000038
:108FC80009B504480068044B03441B681B6C0293F2
:108FD80009BD0000282D07102400000009B5044829
:108FE8000068044B03441B681B6A029309BD000018
:108FF800282D07101000000009B504480068044B2C
:1090080003441B685B6A029309BD0000282D071002
:109018001000000009B504480068044B03441B68AD
:109028009B6A029309BD0000282D0710100000005C
:1090380009B504480068044B03441B68DB6A0293C3
:1090480009BD0000282D07101000000009B50448CC
:109058000068044B03441B681B6B029309BD0000A6
:10906800282D07101000000009B504480068044BBB
:1090780003441B685B6B029309BD0000282D071091
:109088001000000009B504480068044B03441B683D
:109098001B6C029309BD0000282D0710100000006A
:1090A80009B504480068044B03441B68DB69029354
:1090B80009BD0000282D07101800000009B5044854
:1090C8000068044B03441B681B6A029309BD000037
:1090D800282D07101800000009B504480068044B43
:1090E80003441B681B68029309BD0000282D071064
:1090F8003400000009B504480068044B03441B68A9
:109108005B68029309BD0000282D07103400000099
:1091180009B504480068044B03441B689B68029324
:1091280009BD0000282D07103400000009B50448C7
:109138000068044B03441B681B69029309BD0000C7
:10914800282D07103400000009B504480068044BB6
:1091580003441B685B69029309BD0000282D0710B2
:109168003400000009B504480068044B03441B6838
:109178009B69029309BD0000282D071034000000E8
:1091880009B504480068044B03441B68DB69029373
:1091980009BD0000282D07103400000009B5044857
:1091A8000068044B03441B681B6A029309BD000056
:1091B800282D07103400000009B504480068044B46
:1091C80003441B689B6A029309BD0000282D071001
:1091D8003400000009B504480068044B03441B68C8
:1091E8005B6F029309BD0000282D07105C0000008A
:1091F80009B504480068044B03441B681B6D0293BF
:1092080009BD0000282D07104800000009B50448D2
:109218000068044B03441B685B6D029309BD0000A2
:10922800282D07104800000009B504480068044BC1
:1092380003441B68DB6E029309BD0000282D07104C
:109248004800000009B504480068044B03441B6843
:109258001B6F029309BD0000282D0710480000006D
:1092680009B504480068044B03441B68D3F8D4309C
:10927800029309BD282D07104800000009B50448CD
:109288000068044B03441B681B68029309BD000077
:10929800282D07100800000009B504480068044B91
:1092A80003441B685B68029309BD0000282D071062
:1092B8000800000009B504480068044B03441B6813
:1092C8005B69029309BD0000282D07100800000003
:1092D80009B504480068044B03441B689B6A029361
:1092E80009BD0000282D07100800000009B5044832
:1092F8000068044B03441B68DB6C029309BD000043
:10930800282D07100800000009B504480068044B20
:1093180003441B685B6D029309BD0000282D0710EC
:109328000800000009B504480068044B03441B68A2
:109338009B6D029309BD0000282D0710080000004E
:1093480009B504480068044B03441B68D3F8883007
:10935800029309BD282D07100800000009B504482C
:109368000068044B03441B68D3F89430029309BD8A
:10937800282D07100800000009B504480068044BB0
:1093880003441B68D3F89830029309BD282D0710B1
:109398000800000009B504480068044B03441B6832
:1093A800D3F89C30029309BD282D0710080000004F
:1093B80009B504480068044B03441B68D3F8A83077
:1093C800029309BD282D07100800000009B50448BC
:1093D8000068044B03441B685B68029309BD0000E6
:1093E800282D07102800000009B504480068044B20
:1093F80003441B689B68029309BD0000282D0710D1
:109408002800000009B504480068044B03441B68A1
:10941800DB68029309BD0000282D07102800000012
:1094280009B504480068044B03441B681B69029390
:1094380009BD0000282D07102800000009B50448C0
:109448000068044B03441B685B69029309BD000074
:10945800282D07102800000009B504480068044BAF
:1094680003441B689B69029309BD0000282D07105F
:109478002800000009B504480068044B03441B6831
:10948800DB69029309BD0000282D071028000000A1
:1094980009B504480068044B03441B681B6A02931F
:1094A80009BD0000282D07102800000009B5044850
:1094B8000068044B03441B689B6A029309BD0000C3
:1094C800282D07102800000009B504480068044B3F
:1094D80003441B68DB6A029309BD0000282D0710AE
:1094E8002800000009B504480068044B03441B68C1
:1094F8001B6B029309BD0000282D071028000000EF
:1095080009B504480068044B03441B685B6B02936D
:1095180009BD0000282D07102800000009B50448DF
:109528000068044B03441B681B6C029309BD0000D0
:10953800282D07102800000009B504480068044BCE
:1095480003441B685B6C029309BD0000282D0710BB
:109558002800000009B504480068044B03441B6850
:109568005B6D029309BD0000282D0710280000003C
:1095780009B504480068044B03441B689B6D0293BB
:1095880009BD0000282D07102800000009B504486F
:109598000068044B03441B685B68029309BD000024
:1095A800282D07102C00000009B504480068044B5A
:1095B80003441B689B68029309BD0000282D07100F
:1095C8002C00000009B504480068044B03441B68DC
:1095D800DB68029309BD0000282D07102C0000004D
:1095E80009B504480068044B03441B685B6902938F
:1095F80009BD0000282D07102C00000009B50448FB
:109608000068044B03441B681B6A029309BD0000F1
:10961800282D07102C00000009B504480068044BE9
:1096280003441B681B6B029309BD0000282D07101B
:109638002C00000009B504480068044B03441B686B
:10964800DB6B029309BD0000282D07102C000000D9
:1096580009B504480068044B03441B685B6C02931B
:1096680009BD0000282D07102C00000009B504488A
:109678000068044B03441B681B68029309BD000083
:10968800282D07100400000009B504480068044BA1
:1096980003441B685B68029309BD0000282D07106E
:1096A8000400000009B504480068044B03441B6823
:1096B8009B68029309BD0000282D071004000000D4
:1096C80009B504480068044B03441B68DB6902932E
:1096D80009BD0000282D07100400000009B5044842
:1096E8000068044B03441B685B6A029309BD0000D1
:1096F800282D07100400000009B504480068044B31
:1097080003441B68DB6A029309BD0000282D07107B
:109718000400000009B504480068044B03441B68B2
:109728001B6B029309BD0000282D071004000000E0
:1097380009B504480068044B03441B68DB6B0293BB
:1097480009BD0000282D07100400000009B50448D1
:109758000068044B03441B681B6C029309BD00009E
:10976800282D07100400000009B504480068044BC0
:1097780003441B685B6C029309BD0000282D071089
:109788000400000009B504480068044B03441B6842
:10979800DB6C029309BD0000282D071004000000AF
:1097A80009B504480068044B03441B689B6D029389
:1097B80009BD0000282D07100400000009B5044861
:1097C8000068044B03441B68DB6D029309BD00006D
:1097D800282D071004000000002240681146FFF7FA
:1097E80057BE002240681146FFF78ABE0022406833
:1097F800FFF778BE0022406881F00101FFF73ABE0A
:10980800002340681A461946FFF726BE0023406821
:109818001A461946FFF712BE002240681146FFF7A4
:10982800FFBD002240681146FFF7DEBD002202217D
:109838004068FFF7E7BD002340681A46FFF7C6BD3A
:109848000322024B5A60024A1A60704780AE071022
:10985800B4F83F020B6803604B68436013B15A6861
:1098680001325A60704700000022024BC3E900220F
:109878009A60704788AE071010B5044608462170F4
:10988800FFF70EFC00232046636010BD10B50446A8
:10989800006818B1FFF7F8FE0023236010BD38B543
:1098A8000C460546FFF7F2FF54B12088FFF7DEFEAD
:1098B800286028B121462288BDE8384002F01EBE43
:1098C80038BD38B50C46B1F9043005468380D1F867
:1098D8000630C0F806304B894381FFF7D7FF23686D
:1098E80013B12B600023236038BD0000F0B52B4D69
:1098F8000B7D04468BB00846AF1D002B36D00B6895
:109908001B79002B32D00022254B02A90430049386
:10991800CDE90222FFF74CFDDDF80E3000B2C5F8A4
:109928000630BDF81230ADF80C00A8800299284620
:10993800BB80FFF7B4FF02A8FFF7A8FF002323604E
:10994800A380A37123814FF6FF736381B5F90430B7
:109958002046A380D5F806302968C4F80630BB88AD
:109968006381FFF79CFF20460BB0F0BD0026202343
:10997800CDE902360B4B02AA0093322033460A493E
:10998800FFF736FC4FF6F262054B044802A9CDE911
:1099980003230296FFF795FFCDE700BF94AE0710AB
:1099A8000000FFFFF7F83F02F0F83F0210B520244F
:1099B80088B022460021684602F0C7FD00216846AB
:1099C800ADF80040FFF766F9019808B010BD70B512
:1099D8000446D0E9005305EB0316AE4204D02846EE
:1099E80000F05CF81035F8E72068FFF74DFE2046D8
:1099F80070BD8842F8B504460D46164614D9904203
:109A080013D2A2F11006751AA1F110072C44B7421F
:109A180018D01CB13146204600F0BDF8304600F0A1
:109A28003DF8103E103CF2E70CD0B5420AD01CB10C
:109A38002946204600F0AFF8284600F02FF81035E8
:109A48001034F2E7F8BD70B50E1E054611DD300181
:109A5800FFF70CFE044658B1D5E9001201EB0212DB
:109A6800FFF7C7FF2868FFF70FFE01202C60AE60E4
:109A780070BD0024F6E7000002220020044B1A60A3
:109A8800044B054AC3E900009A60FFF705BC00BF14
:109A9800A0AE071094AE07100000FFFF10B50446F3
:109AA8000068FFF7F1FD204610BD10B504460068B8
:109AB80008B1FFF7E9FD0023C4E90133236010BDB5
:109AC80038B504460D4600680131FFF7EBFD10B1CB
:109AD800C4E90005012038BD10B50368044623B168
:109AE80043688B4201D3012010BD2046FFF7E8FFF1
:109AF8000028F9D0A368002BF5D122681370F2E78B
:109B080037B50D46114601920446FFF7E5FF019A65
:109B180028B92046FFF7C9FF204603B030BD2946C3
:109B2800A260206802F0EAFC00212268A368D154F0
:109B3800F2E7002313B50446C0E9003383600373DA
:109B480041B108460191FCF765F9019902462046A2
:109B5800FFF7D6FF204602B010BD38B505460068AD
:109B68000C4670B16A688B689A4208D3096831B1AB
:109B780002F039FDA368AB600023A36038BDFFF78E
:109B880083FD23682B6063686B60A368AB60002368
:109B9800C4E90033F1E7002310B50446C0E90033F7
:109BA80083600373FFF7D9FF204610BD884210B5C4
:109BB800044605D00B682BB18A681946FFF7A0FF49
:109BC800204610BDFFF771FFFAE7002310B50446E1
:109BD800C0E9003383600373FFF7E8FF204610BD38
:109BE80008B582683AB921B10878B0FA80F040091E
:109BF80000E0012008BD006809B90078F5E7FCF726
:109C0800FFF8F2E710B58368934206D90468A018F4
:109C180002F0D2FC08B1001B10BD4FF0FF30FBE78B
:109C28000022FFF7EFBF0000F8B51D469A4288BF33
:109C380013460F46144688BF2C460B4988BF1D465D
:109C48000646FFF776FFBB68A3420AD33968AB42E2
:109C580094BFC4EB0302C4EB050230462144FFF76E
:109C68004FFF3046F8BD00BF92F93F0210B50446D9
:109C78008B68FFF7D9FF204610BD38B50468054644
:109C88003CB1013C14F8010F18B103F0E3FB20705C
:109C9800F8E7284638BD2DE9F0410668054606B3C1
:109CA8008468F4B1B046474618F8010B02F01EFC70
:109CB8000028F8D1013C3444207802F017FC18B190
:109CC800A74201D8013CF7E7621CD21BBE42AA603A
:109CD80003D23946304602F011FC00212A68AB68ED
:109CE800D1542846BDE8F08110B543680446013BCD
:109CF800436063B903689B689847A368013BA36006
:109D08002BB923682046BDE81040DB68184710BD12
:109D180013B56C460B460246D0E9000184E80300FF
:109D280093E8030082E8030094E8030083E8030053
:109D380002B010BD002302480360FFF761B800BFFE
:109D4800A4AE071010B5044680680368DB6898471E
:109D5800E3681844E06010BDF8B506460D460024D7
:109D68008F18BD420CD0336830469B6815F8011B2C
:109D78009847031E01DB1C44F3E7002C08BF1C4670
:109D88002046F8BD704710B504461021FCF785F849
:109D9800204610BD13B50446084659B10191FCF799
:109DA80039F80246204623680199DB6802B0BDE80D
:109DB8001040184702B010BD03689B68184700237D
:109DC800012A98BF0A2230B58BB08DF8243009AC2F
:109DD8000D46B1FBF2F101FB125303F0FF03092B0F
:109DE80094BF30333733DBB2AA4204F8013DEFD9D0
:109DF8002146FFF7CFFF0BB030BD10B50446FEF784
:109E0800E7FEE060236820465B699847002808DA87
:109E1800FEF7DEFEE368C01AA3689842F2D34FF05B
:109E2800FF3010BD2DE9F04107460C460D468E184F
:109E3800B542A5EB040807D03846FFF7DEFF031E3E
:109E480002DB05F8013BF3E74046BDE8F0817047C7
:109E5800084611B10B685B68184770477047704730
:109E6800704738B504460D4600682E2102F0B1FB54
:109E78002368C31A2B6023B1037803B10130236828
:109E88002060184638BD10B504460421FCF705F8D3
:109E9800204610BD10B504460421FBF7FEFF2046FE
:109EA80010BDFEF7C9BF08B5FBF7AAFFB0FA80F0EE
:109EB800400908BD704710B50C4601F071FC84429A
:109EC80005D101F06DFCBDE8104001F05BBC02F06B
:109ED800D9F9844205D102F0D5F9BDE8104001F066
:109EE800B4BE2CB123682046BDE810405B68184713
:109EF80010BD13B5044608460191FBF78BFF0246D7
:109F08002046019902B0BDE8104001F035BE13B5F6
:109F1800044608460191FBF77DFF02462046236868
:109F28000199DB6802B0BDE81040184707B503681F
:109F38008DF807100122DB680DF10701984703B07F
:109F48005DF804FB2DE9F74F4FF0140AD0E90084BF
:109F5800174645460AFB04F40093174BA4105C43CC
:109F6800002C21DD66100AFB06F005EB0009B9F8A4
:109F780004B03A465F4528BF5A462858019102F076
:109F880058FB00284FF0010301990BD15F4503D11D
:109F9800009A13703446E3E7FCD9A61B09F11405AF
:109FA800013EF7E7F9DBF5E7A5EB08050248AD1038
:109FB800684303B0BDE8F08FCDCCCCCC7FB5036946
:109FC800057E019103B3F9B1002600F10C04039654
:109FD80003A901A8FFF745FF0146A8B10DF10B033E
:109FE8002046039A8DF80B60FFF7ACFF9DF80B3005
:109FF80053B12368142404FB0034B4F90630083440
:10A00800002BA8BFDDB2E3E7284604B070BD0EB44C
:10A01800F0B58CB000AF07F1440555F8042B0446A1
:10A028002B46202107F110007A60FD60FFF756FBF0
:10A038001F287A681AD900F1080323F007036E462F
:10A04800ADEB030D411C2B466846FD60FFF746FB50
:10A05800021E04DD236869462046DB689847B5463A
:10A068003037BD46BDE8F04003B070470028F7D050
:10A0780023680246DB68204607F110019847EFE79E
:10A0880010B5084CD4E88F3FDB0709D42046FFF70A
:10A0980087FB28B12046FFF791FB034802F00CFA32
:10A0A800024810BDACAE0710E5A83F022C2D0710E2
:10A0B80010B5084CD4E88F3FDB0709D42046FFF7DA
:10A0C8006FFB28B12046FFF779FB034802F0F4F94B
:10A0D800024810BDB0AE07103DA93F02302D071051
:10A0E80038B500250446C0E90055C0E90455856027
:10A0F800856140F8245FFEF783FEFFF7C1FFE0614A
:10A10800FFF7D6FF25732062204638BD10B50A4CEC
:10A11800D4E88F3FDB070CD42046FFF741FB40B162
:10A128000648FFF7DDFF2046FFF748FB044802F02A
:10A13800C3F9024810BD00BFA8AE0710B8AE07109B
:10A1480009B13F020023024A02490348FFF77AB8DF
:10A15800F1AE3F027DAE3F02FDAD3F0200231A463D
:10A1680019461846FFF76EB837B504468D68684635
:10A17800FFF770FB6A462946204601F01DFC01A83E
:10A18800FDF7A4FB204603B030BD37B50446CD68C3
:10A198006846FFF75FFB6A462946204601F0E8FB60
:10A1A80001A8FDF793FB204603B030BD37B5044640
:10A1B8000D696846FFF74EFB6A462946204601F0BE
:10A1C80080FB01A8FDF782FB204603B030BD0000EC
:10A1D80070B58AB00D46014604A8FFF7C5FF144EB6
:10A1E80004A801F001FCE8B1684604A9FFF7CDFF17
:10A1F80031460298FFF757FE044610B12C1E18BFCF
:10A20800012401A8FDF762FB002CE9D0684604A9E7
:10A21800FFF7CCFF684601F08AFB286001A8FDF72C
:10A2280055FBDDE705A8FDF751FB0AB070BD00BF7F
:10A2380038F93F0237B50C46134920461546FBF757
:10A24800DFFD50B901F0ACFA4FF4165101F096FA5F
:10A2580003B0BDE8304001F0A3BA20460B49FBF734
:10A26800CFFD78B94FF4165301A928460193FFF79B
:10A27800AFFF02F007F8019901F0E4FC02F002F8E0
:10A2880003B030BD0020FBE73DF93F0244F93F022F
:10A2980070B51426D0E90053044606FB0356AE42B7
:10A2A80005D005F10800FFF7F3FF1435F7E720683C
:10A2B800FFF7EAF9204670BD10B504460C30FFF7E9
:10A2C800E7FF2046FFF783FB204610BD10B5044684
:10A2D800034B40F8043BFFF7EFFF204610BD00BFDB
:10A2E80040F83F0210B50446FFF7F0FF204624214E
:10A2F800FBF7D3FD204610BD10B50446024B0360A2
:10A30800FFF7E4FF204610BDC8F93F0210B5044628
:10A31800FFF7F2FF20462421FBF7BFFD204610BDC2
:10A328000A6810B502604A6842600022C0E9022249
:10A3380002618C688A608460CC68CA60C4600C69F9
:10A348000A61046110BD0022C0E90022826010B5D4
:10A358000C680A6004604C684A6044608C688A60D3
:10A36800846010BD10B5044603681868FEF772FDD6
:10A37800204610BD2DE9F04F87B003931C4B804653
:10A388005B688946C3F3080316466BB9FFF7BEFE40
:10A39800044600F12403406A0593FFF782FD237BFE
:10A3A8002BB105A8FFF7DEFF07B0BDE8F08F01234A
:10A3B8005FFA89F92373D4E9005305EB830AAA45A8
:10A3C80012D055F8047B3146381DFFF7F7FD81455B
:10A3D800F5D3039A3B680092D3F808B04A4633464F
:10A3E80041463846D847EAE700232373D9E700BF38
:10A3F80000ED00E02DE9F74F9B461A4B80465B685D
:10A408008946C3F3080316466BB9FFF77FFE044677
:10A4180000F12403406A0193FFF743FD237B2BB12E
:10A4280001A8FFF79FFF03B0BDE8F08F0123F6B244
:10A438002373D4E9005305EB830A55450ED055F82C
:10A44800047B5946381DFFF7B9FD8642F5D33B68B2
:10A458004A4641463846DB689847EEE700232373AF
:10A46800DEE700BF00ED00E02DE9F341164B05469D
:10A478005B680F46C3F308031BBBFFF747FE0446A0
:10A4880000F12403406A0193FFF70BFDD4E9006350
:10A49800462406EB8308B04509D101A8FFF762FFFF
:10A4A800A542B4BF0020012002B0BDE8F08156F8F3
:10A4B800040B39460430FFF781FD8442A8BF0446E7
:10A4C800E9E70020F0E700BF00ED00E0F8B5D0E9CB
:10A4D80001539D4204460E460DDB6F1C002F006899
:10A4E80004DDB900FFF7DEF818B9F8BDFFF7CCF8BE
:10A4F80000202060A7602768626807EB850192004A
:10A50800A2EB8502081D02F006F847F8256063688B
:10A51800012001336360E8E737B5044600F12403FE
:10A52800406A01930D46FFF7BCFCD4E9003203EB07
:10A538008202934219460AD009680433A942F8D125
:10A5480001A8FFF70FFF0025284603B030BD2946B4
:10A558002046FFF7BBFF05460028F1D06368012BB2
:10A5680001D1FFF7EFFD01A8FFF7FCFEECE70B4672
:10A5780070B50446D0E9000200EB820282420FD097
:10A5880001461D6851F8046BAE4207D1521A01F01A
:10A59800C2FF01206368013B636070BD0846EDE7B8
:10A5A8000020FAE71FB5044600F12403406A019130
:10A5B8000393FFF776FC204601A9FFF7D8FF18B1EF
:10A5C80063680BB9FFF7CAFD03A8FFF7CBFE04B019
:10A5D80010BD182370B50446D0E9045603FB06568F
:10A5E800AE4215D0204605F11001FFF7C0FF6368A1
:10A5F8000BB9FFF7B3FDE06929690368DB68984781
:10A60800696919B1206A0368DB6898471835E7E774
:10A618001826D4E9045306FB0356AE4204D0284654
:10A62800FFF73CFA1835F8E70023636170BD73B58E
:10A638000446FFF793FD04F12403606A0193FFF7D2
:10A6480030FC2046FFF7C5FF01A8FFF78BFE606AC4
:10A6580008B1FEF7E3FBD4E90453182606FB0356BA
:10A66800AE4204D02846FFF719FA1835F8E72069F2
:10A67800FFF70AF82068FFF707F8204602B070BD18
:10A688000148FFF7D4BF00BFB8AE07108842F8B53D
:10A6980004460D46164615D9904214D2A2F1140666
:10A6A800751AA1F114072C44B7421AD01CB13146CF
:10A6B8002046FFF735FE06F10800FFF7E9FD143ED6
:10A6C800143CF1E70DD0B5420BD01CB12946204609
:10A6D800FFF726FE05F10800FFF7DAFD14351434FC
:10A6E800F1E7F8BD2DE9F04F90460023462295B0DA
:10A6F8000391D8F8041004469942C0E90033C0E930
:10A708000233C0E90433CDE9083302760A9323DC27
:10A71800D8E90057142303FB0757AF423BD029461B
:10A728000BA8FFF738FA0BA90FA8099EFFF733FA11
:10A73800DDE9091399421BDA089B099A03EB06160F
:10A74800314603EB021206F11000FFF752F9EEB999
:10A75800099B0133099311E008A8FFF774F9002851
:10A76800D6D108A8FFF733F9204615B0BDE8F08F19
:10A77800013108A8FFF767F90028DDD10FA8FFF716
:10A788008DF90BA8FFF78AF91435C6E730460FA9EB
:10A79800FFF701FADCE700264FF01409CDE90B6654
:10A7A8000D96DDE908239E427CDA3301D3580693DF
:10A7B8000BB90136F5E70023079309FB06F30BAD48
:10A7C800029307A906A8FFF74CFB82460028F0D0A1
:10A7D8004FF0000301468DF817302846079A0DF10F
:10A7E8001703FFF7AFFB9DF817700190002F4AD1B0
:10A7F800BDF81C30CDE91177ADF840304FF6FF7346
:10A80800CDF83CA0ADF842301397D5E90132934218
:10A8180017DB03F1010ABAF1000F30DD09FB0AF07A
:10A82800FEF724FF834660B3D5E9001209FB021244
:10A83800FFF72CFF2868FEF727FFC5F800B0C5F81A
:10A8480008A02B68019A09FB023A6A68514609FB7D
:10A8580002320AF11400FFF719FFBAF1000F03D012
:10A8680050460FA9FFF75CFD6B6801336B6011A8B8
:10A87800FFF70EFD3FB10BA8FFF70AFD71E7BB46D6
:10A88800D8E70127F3E7019B2D6809FB0355069BD1
:10A898001B782BB9D8F80030029A13441B7CEB8044
:10A8A80008358EE72168226062686360A3680992B0
:10A8B8000A9A0A93E368A2600B9A0B932369E260F1
:10A8C8000C9A0C93636922610D9A0D93039B08916E
:10A8D80062612376CFE70000F0B5044626461746A6
:10A8E80087B00D4668461946FDF7C4FB0B4B694611
:10A8F80046F8043B03A8FDF7BDFB394603AA3046DA
:10A90800FFF7F0FE03A8FCF7F7FF6846FCF7F4FF33
:10A918002046034B2562236007B0F0BD40F83F0294
:10A92800B0F93F02F0B50F4685B038461C491646C7
:10A938001D460A9CFBF764FAC0B9A4B1294601A8D0
:10A94800FFF701FD2420174901F082FD054630B1CB
:10A9580001AB32462146FFF7BFFF134B2B6001A81E
:10A96800FCF7CAFF2C46204605B0F0BD38460F4913
:10A97800FBF746FA90B9002CF5D0294601A8FFF755
:10A98800E2FC2420074901F063FD05460028E6D0D3
:10A998003246214601ABFFF79FFFE0E70024E2E7DC
:10A9A8004CF93F02A8FB3F02C8F93F0250F93F02A9
:10A9B800014B024A1A607047B4AE071061F93F02B2
:10A9C8002DE9F047089DD0F8209004460E4617461A
:10A9D800984600F0E5FE81454DD02B79190704D53E
:10A9E80020466A695449FFF712FBB8F1000F0DD0F1
:10A9F8005B212046FFF79AFA41462046FFF787FA7F
:10AA0800236802222046DB684C4998472B79DA07ED
:10AA180024D5D5F808802F21404601F01EFE08B144
:10AA280000F1010841462046FFF771FA2B799B0790
:10AA380008D53A212046FFF779FA2046EA684049C6
:10AA4800FFF7E5FA2A79236812F0040F20464FF041
:10AA58000202DB6814BF3B493B4998472B795807EA
:10AA68001DD529690B461A4613F8010B60B1202839
:10AA780008D11946F7E7354801F07DFA0028ACD02F
:10AA8800BDE8F0872828EED12368521A2046DB68F3
:10AA98009847236804222046DB682D4998470021FF
:10AAA8003846FEF7C1FB01462046FFF730FA236817
:10AAB80002222046DB68244998471EB131462046C9
:10AAC800FFF725FA2B7913F0300F2CD02368214992
