:040000000DEF00F010
:040008006DEF10F098
:06001800FF0019EF0FF0DC
:101600000000BBEC10F03850055C0501AB6F3950A1
:101610000658AC6F5DEF0BF0AC5107E10A0EAB5D05
:10162000D8B015EF0BF017EF0BF019EF0BF0010E20
:10163000496E4950D8B41FEF0BF021EF0BF031EF9A
:101640000CF0AC5109E10A0EAB5DD8A02AEF0BF00B
:101650002CEF0BF031EF0CF0C08814EC10F0A6EC7E
:1016600010F005C528F506C529F507C52AF508C5F2
:101670002BF5496A010E426E31EF0CF028C509F5D1
:1016800029C50AF52AC50BF52BC50CF575EC0EF02E
:101690000C500B100BE1F40E095C010E0A58D8A097
:1016A00054EF0BF056EF0BF031EF0CF0C098426A9C
:1016B00031EF0CF0426A31EF0CF04250266E276A8F
:1016C0002750000AD8B467EF0BF05AEF0BF0265002
:1016D000000AD8B40CEF0BF0010AD8B43EEF0BF0BF
:1016E0005AEF0BF04050D8B478EF0BF07AEF0BF0D4
:1016F0004AEF0CF0406ABBEC10F005C536F506C5A4
:1017000037F5356A000E346E010E416E4AEF0CF06B
:101710003850365C266E39503758276E26C5B5F5D9
:1017200027C5B6F50501B76BB86BAE6B000EAD6F94
:10173000B8C5A7F5B7C5A8F5B6C5A9F5B5C5AAF545
:10174000040EAD27000EAE23AD51AE11D8B4ABEFF1
:101750000BF0ADEF0BF0BFEF0BF0C3EC10F0266E0B
:10176000276A0501AD51265CAE512758D8B0BBEFB2
:101770000BF0BDEF0BF0BFEF0BF04AEF0CF0A70E34
:10178000066E050E076E040E086EDBEC0FF0050109
:10179000B551B611B711B811D8B4D1EF0BF0D3EFE2
:1017A0000BF0D7EF0BF0020E416E4AEF0CF0416ADE
:1017B0004AEF0CF03650381807E137503918D8A4E2
:1017C000E4EF0BF0E6EF0BF0E8EF0BF0D7EF0BF0E8
:1017D00038C51EF539C51FF5B10E206E050E216EF8
:1017E000EFEC0EF034C505F535C506F5B3C507F5C4
:1017F000B4C508F5A40E096E050E0A6EBCEC0DF01A
:101800000501B06B000EAF6F030EAF27000EB023C3
:10181000AF51B011D8B40FEF0CF011EF0CF023EF73
:101820000CF0C3EC10F0266E276A0501AF51265C60
:10183000B0512758D8B01FEF0CF021EF0CF023EF78
:101840000CF04AEF0CF0A40E066E050E076E030EA8
:10185000086EDBEC0FF0384A392A344A352A4AEF51
:101860000CF04150266E276A2750000AD8B43BEF8F
:101870000CF0D7EF0BF02650000AD8B472EF0BF043
:10188000010AD8B488EF0BF0030AD8B4DAEF0BF0F2
:10189000D7EF0BF0120020EE01F00550D9260650CC
:1018A000DA22DF500B6E0BC50CF50D6A0E6A0F6A5B
:1018B0000EC50FF50DC50EF50CC50DF50C6A05C569
:1018C000D9F406C5DAF4DF50106E10C511F5126AAE
:1018D000136A146A12C514F511C513F5126A116A58
:1018E0000C501110156E0D501210166E0E50131074
:1018F000176E0F501410186E20EE02F00550D92606
:101900000650DA22DF50196E195015101A6E165053
:101910001B6E17501C6E18501D6E1AC50BF51BC59B
:101920000CF51CC50DF51DC50EF50F0E9DEF0CF049
:10193000D8900E320D320C320B32E82E98EF0CF0AC
:10194000FF0E0B140F6E030E0C14106E07C5D9F4A6
:1019500008C5DAF40FC5DEF410C5DDF41AC50BF5C1
:101960001BC50CF51CC50DF51DC50EF5050EBEEF0E
:101970000CF0D8900E320D320C320B32E82EB9EF4B
:101980000CF0FF0E0B140F6E030E0C14106E09C535
:10199000D9F40AC5DAF40FC5DEF410C5DDF412007F
:1019A000C1C509F5C2C50AF5C3C50BF5C4C50CF51B
:1019B00075EC0EF00C500B1009E1E80E095C030EFB
:1019C0000A58D8B0E6EF0CF0E8EF0CF0EAEF0CF0B4
:1019D0004EEF0DF0A6EC10F005C5C1F506C5C2F539
:1019E00007C5C3F508C5C4F587EC10F00FC521F590
:1019F00010C522F511C523F512C524F50501BD5109
:101A0000215C1D6EBE5122581E6E21C5BDF522C53A
:101A1000BEF523C5BFF524C5C0F5010EA027000EF5
:101A2000A123A223A3233CC505F53DC506F5086AFD
:101A3000190E076EBDEC0EF005C51FF506C520F5A5
:101A40003AC505F53BC506F51DC507F51EC508F5E4
:101A50001FC51BF520C51CF5D8901B361C36D89029
:101A60001B361C36000E1B24096E060E1C200A6E47
:101A7000BCEC0DF03A4A3B2A3B5009E10A0E3A5CB5
:101A8000D8A045EF0DF047EF0DF04CEF0DF03B6A9D
:101A9000000E3A6E010E436E3C4A3D2A12003F5042
:101AA000D8A455EF0DF057EF0DF07CEF0DF0B9C550
:101AB00009F5BAC50AF5BBC50BF5BCC50CF575EC47
:101AC0000EF00C500B100BE1D00E095C070E0A58FB
:101AD000D8A06DEF0DF06FEF0DF0BBEF0DF0A6ECA1
:101AE00010F005C5B9F506C5BAF507C5BBF508C5BB
:101AF000BCF5C076BBEF0DF0B9C509F5BAC50AF55E
:101B0000BBC50BF5BCC50CF575EC0EF00C500B10FD
:101B10000A1009E1640E095CD8A091EF0DF093EF73
:101B20000DF0BBEF0DF0A6EC10F005C5B9F506C53C
:101B3000BAF507C5BBF508C5BCF5C0763E50D8B4AC
:101B4000A4EF0DF0A6EF0DF0A7EF0DF03E063E500E
:101B5000D8A4ADEF0DF0AFEF0DF0BBEF0DF0C096D8
:101B60003F6AA6EC10F005C5B9F506C5BAF507C57C
:101B7000BBF508C5BCF51200040E065CD8B0C3EF77
:101B80000DF0C5EF0DF0CBEF0DF005C513F506C553
:101B900014F5CEEF0DF0030E146E1368040E085CFE
:101BA000D8B0D5EF0DF0D7EF0DF0DDEF0DF007C594
:101BB00015F508C516F5E0EF0DF0030E166E156865
:101BC00015500B6E16500C6E0D6A0E6A040ED890EE
:101BD0000B360C360D360E36E82EE7EF0DF01350AF
:101BE0000F6E1450106E116A126A0E0ED8900F36D6
:101BF000103611361236E82EF6EF0DF00B500F109E
:101C0000176E0C501010186E0D501110196E0E50EA
:101C100012101A6E09C5D9F40AC5DAF419C5DFF431
:101C200020EE01F00950D9260A50DA2218C5DFF457
:101C300020EE02F00950D9260A50DA2217C5DFF447
:101C40001200ACA026EF0EF028EF0EF048EF0EF0D9
:101C5000B7A02DEF0EF02FEF0EF048EF0EF0A1C25F
:101C600002F547504810D8B438EF0EF03AEF0EF0B6
:101C700048EF0EF002C501F502D848EF0EF005005E
:101C8000FA6E4750FD6E4850FE6EFF6AFA50120021
:101C9000ACA24DEF0EF04FEF0EF074EF0EF0B7A2C6
:101CA00054EF0EF056EF0EF074EF0EF04450D8B42F
:101CB0005CEF0EF05EEF0EF06BEF0EF0600E452461
:101CC000D96EDA6A050EDA22DF500201A36F4528C9
:101CD0003F0B456E44064450D8A471EF0EF073EFED
:101CE0000EF074EF0EF0AC921200A6EC10F005C5E9
:101CF00015F506C516F507C517F508C518F50950F9
:101D0000155C0A5016580B5017580C501858D8B07C
:101D10008CEF0EF08EEF0EF0B0EF0EF0091C0D6E92
:101D20000A1C0E6E0B1C0F6E0C1C106E15500D2431
:101D3000116E16500E20126E17500F20136E185091
:101D40001020146E010E1124096E000E12200A6E6E
:101D5000000E13200B6E000E14200C6EBCEF0EF064
:101D60000950155C096E0A5016580A6E0B50175828
:101D70000B6E0C5018580C6E120007500810D8B497
:101D8000C4EF0EF0C6EF0EF0EAEF0EF0010E096E92
:101D9000CEEF0EF0D89007360836092A08AED3EFFA
:101DA0000EF0D5EF0EF0CAEF0EF00750055C0850AC
:101DB0000658D8A0DEEF0EF0E0EF0EF0E4EF0EF0E4
:101DC0000750055E0850065AD89008320732092E8F
:101DD000D5EF0EF005C505F506C506F512001EC5C2
:101DE00005F51FC506F5086A190E076EBDEC0EF065
:101DF00005C524F506C525F524C522F525C523F519
:101E0000D89022362336D89022362336000E22244C
:101E1000056E060E2320066E20C507F521C508F5C0
:101E2000020E2024096E000E21200A6E4BEC0CF0ED
:101E30001200940EF66E210EF76E000EF86E090079
:101E4000F5C449F501EE00F2640EEE6AE806FDE124
:101E500001EE60F1440EEE6AE806FDE101EE28F1C4
:101E60001F0EEE6AE806FDE10401080E5D6F000E2C
:101E70005E6F000E5F6F000EF86E000140EF0FF016
:101E80005FEC10F08BEC0FF0F40E056E200E066E7A
:101E9000B6EC10F004EC10F024EC10F0C0EC10F0F4
:101EA00042EC10F066EC0FF033EC10F051EC10F057
:101EB000D68CD68EC9EC10F04FEC0DF0D0EC0CF0B7
:101EC00001EC0BF05AEF0FF00DEF00F03D6A000E41
:101ED0003C6E3B6A000E3A6E000E0501A06F000ECC
:101EE000A16F000EA26F000EA36F436A87EC10F083
:101EF0000FC5BDF510C5BEF511C5BFF512C5C0F5BE
:101F0000A6EC10F005C5C1F506C5C2F507C5C3F5B9
:101F100008C5C4F5120004011091C890100E02010A
:101F2000116F04011093C882110E0201726FAB8F02
:101F3000A00EAE6F010EAF6FF00EAB17AB8BAB897F
:101F4000AC8F446A456A466AAC80AC921200056E5A
:101F50003F0E4464AEEF0FF0B0EF0FF0B2EF0FF0B2
:101F6000C0EF0FF0AC92600E4624D96EDA6A050E0F
:101F7000DA2205C5DFF446283F0B466E442AAC82C0
:101F8000120092EC10F005C50DF506C50EF5050121
:101F9000C5510D5C0B6EC6510E580C6E0DC5C5F5C6
:101FA0000EC5C6F50B502C260C502D22000E2E22ED
:101FB000000E2F221200096AE8EF0FF009500624E4
:101FC000D96E000E0720DA6EDF50A7EC0FF0092A59
:101FD0000850095CD8A0EFEF0FF0F1EF0FF0DEEF43
:101FE0000FF01200ABA6F7EF0FF0F9EF0FF003EFD1
:101FF00010F0B6A6FEEF0FF000EF10F003EF10F0B8
:10200000B696AFEC10F01200000E9DEC10F003013C
:102010001E9F010E206F1F6BF90E1D6FE00E1E6FCD
:10202000B696AB861E8F1200010E3F6EC086090E5B
:102030003E6EA6EC10F005C5B9F506C5BAF507C5A4
:10204000BBF508C5BCF512000401109BC88A150E2B
:102050000201426F03011491156B176B060E146F8A
:10206000136B126B1200426A416A396A000E386EB5
:10207000376A000E366E356A000E346E010E496EF8
:10208000406A120092EC10F005C5C5F506C5C6F50C
:10209000000E2C6E000E2D6E000E2E6E000E2F6E9A
:1020A00012003F6AA6EC10F005C5B9F506C5BAF5F1
:1020B00007C5BBF508C5BCF53E6AC0961200040111
:1020C0001097C8960099C698009BC69A1099C89810
:1020D000C096BE98BE9AC0981200FAC403F5FBC41D
:1020E00004F521EC0EF0F2EC0FF004C5FBF403C58F
:1020F000FAF41100AA0E0118D8A481EF10F083EFB2
:1021000010F086EF10F0C076C6EC10F01200C1ECB3
:102110000FF02CC50FF52DC510F52EC511F52FC5E7
:1021200012F5120012C309F513C30AF50A50076E1F
:102130000950056E07C506F51200000E306E000E40
:10214000316E000E326E000E336E120030C505F592
:1021500031C506F532C507F533C508F51200010E85
:102160003026000E312232223322120005C547F5F7
:1021700006C548F512003CC505F53DC506F512003B
:10218000030114811200445040081200010E406EF9
:05219000120012000125
:020000040030CA
:010000008C73
:03000200F7FF9F66
:00000001FF
