:02000004085F93
:1050000000505F08FCFF5F0800000A002000050157
:08501000040101190000000079
:105018001348144908B5884205D0134A824202D081
:10502800124B121A98471248124A0021124B121AB0
:10503800984712481249884205D0124A824202D043
:105048000A4B121A984710481049884205D0104A4E
:10505800824202D0054B121A9847014808BD00BF8A
:105068007835071084FA5F08703707102D0D111076
:1050780070370710F8AF0710A10E111020563F0225
:10508800B0505F0828563F0228563F02B8505F08C4
:0C509800F4FF3F0219505F080000000008
:0850A400A40FE07901000000F7
:0850B0009C505F08BCEC3F02BC
:1050B80081F0004102E000BF83F0004330B54FEAC1
:1050C80041044FEA430594EA050F08BF90EA020F2E
:1050D8001FBF54EA000C55EA020C7FEA645C7FEAC1
:1050E800655C00F0E2804FEA5454D4EB5555B8BFE4
:1050F8006D420CDD2C4480EA020281EA030382EA55
:10510800000083EA010180EA020281EA0303362DE6
:1051180088BF30BD11F0004F4FEA01314FF4801CB9
:105128004CEA113102D0404261EB410113F0004FCB
:105138004FEA03334CEA133302D0524263EB430382
:1051480094EA050F00F0A780A4F10104D5F1200E20
:105158000DDB02FA0EFC22FA05F2801841F100017B
:1051680003FA0EF2801843FA05F359410EE0A5F14F
:1051780020050EF1200E012A03FA0EFC28BF4CF080
:10518800020C43FA05F3C01851EBE37101F0004536
:1051980007D54FF0000EDCF1000C7EEB00006EEB43
:1051A8000101B1F5801F1BD3B1F5001F0CD34908CD
:1051B8005FEA30004FEA3C0C04F101044FEA445224
:1051C80012F5800F80F09A80BCF1004F08BF5FEAAB
:1051D800500C50F1000041EB045141EA050130BD8B
:1051E8005FEA4C0C404141EB0101013C28BFB1F59D
:1051F800801FE9D291F0000F04BF01460020B1FAE8
:1052080081F308BF2033A3F10B03B3F120020CDABA
:105218000C3208DD02F1140CC2F10C0201FA0CF098
:1052280021FA02F10CE002F11402D8BFC2F1200CFD
:1052380001FA02F120FA0CFCDCBF41EA0C019040B3
:10524800E41AA2BF01EB0451294330BD6FEA0404FC
:105258001F3C1CDA0C340EDC04F11404C4F12002E7
:1052680020FA04F001FA02F340EA030021FA04F3F9
:1052780045EA030130BDC4F10C04C4F1200220FA50
:1052880002F001FA04F340EA0300294630BD21FA8E
:1052980004F0294630BD94F0000F83F4801306BF54
:1052A80081F480110134013D4EE77FEA645C18BF48
:1052B8007FEA655C29D094EA050F08BF90EA020FDF
:1052C80005D054EA000C04BF1946104630BD91EAD7
:1052D800030F1EBF0021002030BD5FEA545C05D1DA
:1052E8004000494128BF41F0004130BD14F5800419
:1052F8003CBF01F5801130BD01F0004545F0FE418D
:1053080041F470014FF0000030BD7FEA645C1ABFC1
:10531800194610467FEA655C1CBF0B46024650EAF8
:10532800013406BF52EA033591EA030F41F4002124
:1053380030BD00BF90F0000F04BF0021704730B5AA
:105348004FF4806404F132044FF000054FF000017F
:1053580050E700BF90F0000F04BF0021704730B540
:105368004FF4806404F1320410F0004548BF404215
:105378004FF000013EE700BF42004FEAE2014FEA6A
:1053880031014FEA02701FBF12F07F4393F07F4F45
:1053980081F06051704732F07F4208BF704793F048
:1053A8007F4F04BF41F40021704730B54FF460745B
:1053B80001F0004521F000411CE700BF50EA01025E
:1053C80008BF704730B54FF000050AE050EA010207
:1053D80008BF704730B511F0004502D5404261EB77
:1053E80041014FF4806404F132045FEA915C3FF4B8
:1053F800D8AE4FF003025FEADC0C18BF03325FEA55
:10540800DC0C18BF033202EBDC02C2F1200300FA05
:1054180003FC20FA02F001FA03FE40EA0E0021FA2A
:1054280002F11444BDE600BF70B54FF0FF0C4CF418
:10543800E06C1CEA11541DBF1CEA135594EA0C0FCA
:1054480095EA0C0F00F0DEF82C4481EA030621EA05
:105458004C5123EA4C5350EA013518BF52EA033540
:1054680041F4801143F4801338D0A0FB02CE4FF0F2
:105478000005E1FB02E506F00042E0FB03E54FF022
:105488000006E1FB03569CF0000F18BF4EF0010E1A
:10549800A4F1FF04B6F5007F64F5407404D25FEA16
:1054A8004E0E6D4146EB060642EAC62141EA5551C9
:1054B8004FEAC52040EA5E504FEACE2EB4F1FD0C0B
:1054C80088BFBCF5E06F1ED8BEF1004F08BF5FEA89
:1054D800500E50F1000041EB045170BD06F000463B
:1054E80046EA010140EA020081EA0301B4EB5C04E8
:1054F800C2BFD4EB0C0541EA045170BD41F48011E0
:105508004FF0000E013C00F3AB8014F1360FDEBF04
:10551800002001F0004170BDC4F10004203C35DAE0
:105528000C341BDC04F11404C4F1200500FA05F363
:1055380020FA04F001FA05F240EA020001F0004204
:1055480021F0004110EBD37021FA04F642EB06017A
:105558005EEA430E08BF20EAD37070BDC4F10C04A4
:10556800C4F1200500FA04F320FA05F001FA04F268
:1055780040EA020001F0004110EBD37041F1000154
:105588005EEA430E08BF20EAD37070BDC4F120055F
:1055980000FA05F24EEA020E20FA04F301FA05F2C7
:1055A80043EA020321FA04F001F0004121FA04F26F
:1055B80020EA020000EBD3705EEA430E08BF20EA3F
:1055C800D37070BD94F0000F0FD101F00046400079
:1055D80041EB010111F4801F08BF013CF7D041EAFB
:1055E800060195F0000F18BF704703F000465200FF
:1055F80043EB030313F4801F08BF013DF7D043EAD0
:105608000603704794EA0C0F0CEA135518BF95EA85
:105618000C0F0CD050EA410618BF52EA4306D1D10C
:1056280081EA030101F000414FF0000070BD50EA2B
:10563800410606BF1046194652EA430619D094EAB5
:105648000C0F02D150EA013613D195EA0C0F05D19F
:1056580052EA03361CBF104619460AD181EA0301F3
:1056680001F0004141F0FE4141F470014FF00000AB
:1056780070BD41F0FE4141F4780170BD70B54FF046
:10568800FF0C4CF4E06C1CEA11541DBF1CEA1355C6
:1056980094EA0C0F95EA0C0F00F0A7F8A4EB0504A8
:1056A80081EA030E52EA03354FEA013100F088809F
:1056B8004FEA03334FF0805545EA131343EA126368
:1056C8004FEA022245EA111545EA10654FEA00261D
:1056D8000EF000419D4208BF964244F1FD0404F5D6
:1056E800407402D25B084FEA3202B61A65EB030532
:1056F8005B084FEA32024FF480104FF4002CB6EBEF
:10570800020E75EB030E22BFB61A754640EA0C006E
:105718005B084FEA3202B6EB020E75EB030E22BFAE
:10572800B61A754640EA5C005B084FEA3202B6EBEF
:10573800020E75EB030E22BFB61A754640EA9C00AE
:105748005B084FEA3202B6EB020E75EB030E22BF7E
:10575800B61A754640EADC0055EA060E18D04FEA3C
:10576800051545EA16754FEA06164FEAC30343EADC
:1057780052734FEAC2025FEA1C1CC0D111F4801FA9
:105788000BD141EA00014FF000004FF0004CB6E7A2
:1057980011F4801F04BF01430020B4F1FD0C88BF41
:1057A800BCF5E06F3FF6AFAEB5EB030C04BFB6EB4C
:1057B800020C5FEA500C50F1000041EB045170BD3F
:1057C8000EF0004E4EEA113114EB5C04C2BFD4EB6C
:1057D8000C0541EA045170BD41F480114FF0000EF0
:1057E800013C90E645EA060E8DE60CEA135594EA6C
:1057F8000C0F08BF95EA0C0F3FF43BAF94EA0C0F6F
:105808000AD150EA01347FF434AF95EA0C0F7FF4E3
:1058180025AF104619462CE795EA0C0F06D152EA37
:1058280003353FF4FDAE1046194622E750EA41061B
:1058380018BF52EA43067FF4C5AE50EA41047FF42C
:105848000DAF52EA43057FF4EBAE12E74FF0FF3C91
:1058580006E000BF4FF0010C02E000BF4FF0010C62
:105868004DF804CD4FEA410C7FEA6C5C4FEA430CDB
:1058780018BF7FEA6C5C1BD001B050EA410C0CBF2A
:1058880052EA430C91EA030F02BF90EA020F00208C
:10589800704710F1000F91EA030F58BF994208BFF3
:1058A80090422CBFD8176FEAE37040F001007047B0
:1058B8004FEA410C7FEA6C5C02D150EA013C07D107
:1058C8004FEA430C7FEA6C5CD6D152EA033CD3D052
:1058D8005DF8040B704700BF8446104662468C464C
:1058E8001946634600E000BF01B5FFF7B7FF00287F
:1058F80048BF10F1000F01BD4DF808EDFFF7F4FFA8
:105908000CBF012000205DF808FB00BF4DF808ED32
:10591800FFF7EAFF34BF012000205DF808FB00BF55
:105928004DF808EDFFF7E0FF94BF012000205DF877
:1059380008FB00BF4DF808EDFFF7CEFF94BF01202C
:1059480000205DF808FB00BF4DF808EDFFF7C4FF25
:1059580034BF012000205DF808FB00BF4FEA410278
:10596800B2F1E04324BFB3F5001CDCF1FE5C0DD9B5
:1059780001F0004C4FEAC0024CEA5070B2F1004FFF
:1059880040EB830008BF20F00100704711F0804F02
:1059980021D113F13872BCBF01F00040704741F4C7
:1059A80080114FEA5252C2F11802C2F1200C10FACB
:1059B8000CF320FA02F018BF40F001004FEAC123AF
:1059C8004FEAD32303FA0CFC40EA0C0023FA02F353
:1059D8004FEA4303CCE77FEA625307D150EA013329
:1059E8001EBF4FF0FE4040F44000704701F00040F9
:1059F80040F0FE4040F40000704700BF53B94AB978
:105A0800002908BF00281CBF4FF0FF314FF0FF30BE
:105A180000F0D4B9ADF1080C6DE904CE00F058F8E7
:105A2800DDF804E0DDE9022304B0704707EE900AD0
:105A3800F5EEC07AF1EE10FA01D400F00BB8F1EEF1
:105A4800677A08B517EE900A00F004F8404261EB57
:105A5800410108BDD0B5FFF78FFC00220B4B06466D
:105A68000F46FFF7E1FC00F0ABF90446FFF762FCD4
:105A78000022074BFFF7D8FC02460B463046394652
:105A8800FFF71AFB00F09CF92146D0BD0000F03D5D
:105A98000000F041D0B500220B4B06460F46FFF739
:105AA800C3FC00F08DF90446FFF744FC0022074BC5
:105AB800FFF7BAFC02460B4630463946FFF7FCFAB8
:105AC80000F07EF92146D0BD0000F03D0000F04115
:105AD8002DE9F04F099D04460F46002B48D18A4214
:105AE800944661D9B2FA82F343B1C3F120019F40D1
:105AF80002FA03FC9C4020FA01F10F434FEA1C41D3
:105B08001FFA8CFE220CB7FBF1F601FB167706FB99
:105B18000EF042EA0742904208D91CEB020206F155
:105B2800FF3702D2904200F237813E46121AA4B2E1
:105B3800B2FBF1F001FB102200FB0EFE44EA024426
:105B4800A64508D91CEB040400F1FF3202D2A64591
:105B580000F21C81104640EA0640A4EB0E04002621
:105B68001DB1DC400023C5E900433146BDE8F08F94
:105B78008B4209D9002D00F0FD800026C5E90001FF
:105B880030463146BDE8F08FB3FA83F6002E4BD18C
:105B98008B42C0F0F280824240F2EF803046002D06
:105BA800E3D0C5E90047E0E702B9FFDEB2FA82F3C5
:105BB800002B40F09D80891A4FEA124E97B20126B9
:105BC800200CB1FBFEF20EFB121140EA014107FB6B
:105BD80002F088420FD91CEB010102F1FF382CBFFB
:105BE8004FF001094FF00009884203D9B9F1000FBD
:105BF80000F0CF804246091AA4B2B1FBFEF00EFBBA
:105C0800101100FB07F744EA0144A74208D91CEB2E
:105C1800040400F1FF3102D2A74200F2B480084622
:105C2800E41B40EA02409BE7C6F12007B34001FAB3
:105C380006F422FA07FCF940B2404CEA030C20FAB9
:105C480007F34FEA1C491C431FFA8CFE00FA06F3BF
:105C5800200CB1FBF9F809FB181140EA014108FBD7
:105C68000EF088420FD91CEB010108F1FF3A2CBF56
:105C78004FF0010B4FF0000B884203D9BBF1000F26
:105C880000F08D80D046091AA4B2B1FBF9F009FBE7
:105C9800101100FB0EFE44EA01418E4507D91CEBAA
:105CA800010100F1FF3401D28E457FD8204640EA39
:105CB8000840A1EB0E01A0FB029841454C46C646A0
:105CC80002D306D14B4504D20138B9EB020468EB84
:105CD8000C0E002D70D01A1B61EB0E0122FA06F390
:105CE80001FA07F7F14000261F43C5E900713CE7B8
:105CF80002FA03FCC3F1200001FA03F221FA00F6CC
:105D08004FEA1C4E24FA00F11FFA8CF79C4011430D
:105D1800B6FBFEF00A0C0EFB106642EA064200FBD8
:105D280007F696420ED91CEB020200F1FF382CBF91
:105D38004FF001094FF00009964202D9B9F1000F5E
:105D480031D04046921B89B2B2FBFEF60EFB1622FA
:105D580041EA024106FB07F28A4207D91CEB01011E
:105D680006F1FF3801D28A4223D84646891A46EA04
:105D7800004625E72E462846F7E6841A61EB03031A
:105D880001201F460BE76444023849E7644402389F
:105D9800E1E6023A61442EE7023E6244C6E6A8F113
:105DA800020861446FE702386244CBE70238614475
:105DB8007DE7023E6144D9E72E46D6E6704700BF2C
:105DC8004A0011D212F5001211D20DD56FF4787372
:105DD800B3EB62520ED44FEAC12343F0004343EAC7
:105DE800505323FA02F070474FF00000704750EA12
:105DF800013002D14FF0FF3070474FF0000070477C
:105E080010F8012B11F8013B012A28BF9A42F7D05C
:105E1800D01A7047034613F8012B002AFBD1181A31
:105E28000138704738B50022002304460D46FFF7B5
:105E38006DFD28B920462946BDE83840FFF72ABE3F
:105E4800204605F10041FFF725FE404261EB410184
:105E580038BD00BF05F0BEB870B505F02DF90025B6
:105E6800054E064CA41BA408AC4200D170BD56F8E0
:105E7800043B98470135F7E7CCFF3F02F4FF3F02A8
:105E880001F03CBC08B502F085F9BDE8084005F012
:105E9800CBB803F0C5BC03F0C3BC03F0CFBC000013
:105EA800744600B58DB02C22002101A806F0B9FB7C
:105EB800054B04940193054B02937B46002101A8EE
:105EC800039303F0D1FAFEE72C000C00D0EC3F025C
:105ED80070477047B5EEC00AF1EE10FA29D9DFED28
:105EE800167A9FED167AA0EE277AF7EE007A37EE4B
:105EF800277AC0EE077A9FED120A9FED127A27EEF5
:105F0800800ADFED117A20EE077A60EE277AE7EE55
:105F1800007A9FED0E7A77EEC77A0D4B30EE670A5E
:105F2800D3ED007A20EE270AB5EEC00AF1EE10FA9A
:105F380001D59FED080A704704E78CBBB81E853D64
:105F48007F6ABC3C3333B33E1F85EBBE96430B3DA3
:105F580000B40710000000000123024A1370024A2F
:105F68001370704788910710B0910710064B9FED8A
:105F7800077AD3ED006AF6EE007AE6EE877AFDEE50
:105F8800E77A17EE900A704700B4071000007A44C9
:105F98000120014B18707047B091071010B50446E6
:105FA800024B036002F03EFD204610BDACF83F02F4
:105FB80010B50446FFF7F2FF20464FF40C71FFF7C7
:105FC8006CFF204610BD436913B183690C30184734
:105FD800704713B500210446084602F0EBFF002382
:105FE800204601A9019303F00FF8019C0CB101238D
:105FF80023710021012002F0DDFF2CB12368204627
:106008009B6898470023237102B010BDB0F5FC6F60
:1060180010B511D21A4B8200191801F57C510C7871
:1060280000F5FC601A4444B982ED000A154A03EBF6
:1060380080031A6001230B7010BD92ED007ADFED2A
:10604800127A30EE470AA0EE277A20EE000A03EB18
:10605800800393ED006ADFED0D6A60EE277AE6EEC5
:10606800267ADFED0B6AF4EE667AF1EE10FA48BF95
:10607800F0EE667A82ED007AC3ED007ADCE700BFC5
:10608800843707100BD7233B0AD7A33C48E17A3F54
:1060980017B7D139012A02D1016000207047022ABE
:1060A80004BF0B680360F8E70368184707B5806802
:1060B80030B10023CDE900131A46022102F0B2FFE5
:1060C80003B05DF804FB37B505460C460021FFF721
:1060D800EDFFA86830B100231A461946CDE9004300
:1060E80002F0A0FF03B030BD0246014805F075B8C4
:1060F80027B73F0210B50446094B036004F066F861
:10610800214604F0AFFA05F0ADFB05F09DFB2046F3
:10611800044B40F8043B04F02FF9204610BD00BFA3
:1061280094F83F027CF83F0210B50446FFF7E2FFFF
:1061380020462421FFF7B1FE204610BD10B5836824
:10614800044613B1032201469847204610BD0000BB
:1061580038B50F4B0446036083689BB16FF000416C
:10616800FFF7A4FF0021A06802F0A2FF237903F043
:10617800FF0513B102F010FFF8E72946A06802F006
:1061880035FFA56004F10C00FFF7D8FF204638BDA5
:1061980068F83F0210B50446FFF7DAFF20461C21D5
:1061A800FFF77BFE204610BD002340681A4603F027
:1061B800F5B900224068114603F01ABA10B54FF03D
:1061C800200C0446084600218AB0CDE90023CDE919
:1061D80002C10B4602AA216803F01CF90AB010BDDF
:1061E8000EB403B503AB53F8042B1E210193FFF73C
:1061F800E5FF02B05DF804EB03B0704770B51B4BC8
:1062080006469B7A0D4686B03BB102460B461849B6
:106218001848FFF7E5FF06B070BD174B08461C7815
:1062280009B1FFF7F7FD00233C228DF80840CDE9BE
:106238000032314603462A4604A805F0E9F8059CD1
:106248007CB16368013B63605BB9236820469B6847
:106258009847A368013BA3601BB923682046DB6805
:1062680098472B4632460549D2E700BF7C350710D0
:10627800E5EC3F02B0AE0710647E0710F6EC3F0273
:106288000EB403B503AB53F8042B28210193FFF791
:1062980095FF02B05DF804EB03B070470EB403B588
:1062A80003AB53F8042B32210193FFF787FF02B0A9
:1062B8005DF804EB03B07047002002F05FBE70B5D4
:1062C8000E46144640F201614FF4DB7207F042F9C2
:1062D800051E0BDB3146224607F05AF906462846CA
:1062E80007F030F9A31B5842584170BD0020FCE765
:1062F80070B50E460021144607F02CF9051E0BDB7D
:106308003146224607F03AF90646284607F01AF9B8
:10631800A31B5842584170BD0020FCE710B54FF44C
:10632800367211491148FFF7CAFF4FF4DB7240F289
:1063380001610F4807F00EF9041E0CDB04220D4919
:1063480007F026F944F2E06220460B4907F020F9ED
:10635800204607F0F7F8FFF7AFFF034B0749DA8845
:106368000748FFF73DFF10BD657E071003ED3F02AC
:1063780013ED3F02B4F83F028437071026ED3F02C1
:10638800B0AE071037B504F0F9FD04F0DDFD2A4C76
:1063980005464FF4367221462848FFF7A9FFE8B1B1
:1063A800E288B2F5B47F19D82368BBB1AB4215D8DF
:1063B80023492448FFF714FF0021234807F0CAF8AF
:1063C800051E1ADA002144F2E062204806F029F995
:1063D8001F491C48FFF704FF03B030BD1D480023C8
:1063E800B5FBF0F545431C491648256023716371D8
:1063F800A371E371FFF7F4FEDEE7042200240DEB3E
:106408000201019407F0BAF804280ED1134B019A3F
:106418009A420AD144F2E06228460C4907F0AEF8E5
:1064280044F2E064031B5C425C41284607F08AF8AA
:10643800002CC7D00A49CCE7657E071003ED3F0260
:1064480048ED3F02B0AE071013ED3F028437071046
:1064580084ED3F02805101006EED3F024C444D4CEB
:10646800B9ED3F0207B5074B0093074B1B68019333
:1064780006F004F808226946002002F0E5FC03B0A3
:106488005DF804FB4C41434600B4071013B50023E4
:1064980000240193009405F0F1FF08222046694684
:1064A80002F0C4FC154B009A154C9A4221D1DDED3F
:1064B800017AF4EE677AF1EE10FA1AD1B6EE007AA4
:1064C800F4EEC77AF1EE10FA13DBB0EE007AF4EED0
:1064D800C77AF1EE10FA0CD8C4ED007A2068FEF7FE
:1064E8004BFF02460B4607480749FFF779FE02B003
:1064F80010BD064B2360FFF7B5FFEFE74C4143465D
:1065080000B40710B0AE0710D6ED3F02D7A3A03FE6
:106518001FB5094B0093094B93E8070004AB03E947
:10652800070005F0ABFF10226946202002F08CFC22
:1065380005B05DF804FB00BF4746434C04B40710A0
:1065480010B58AB005F09AFF1022202006A902F0A3
:106558006DFC154B069A9A42144B1DD10AAA12E9F2
:10656800070083E80700124C6068FEF705FF024643
:106578000B46617BA0680391217BCDE9042302913E
:10658800FEF7FAFEDDE90423CDE9000109490A48CE
:10659800FFF726FE0AB010BD084A07CA83E80700BD
:1065A800FFF7B6FFDFE700BF4746434C04B40710C8
:1065B80000B40710E5ED3F02B0AE071094EC3F02BF
:1065C8001FB5084A084B51691069019302AB03C310
:1065D80005F054FF0C22402001A902F035FC05B05B
:1065E8005DF804FB00B407105043495010B586B05D
:1065F80005F044FF0C2240200DEB020102F016FCCE
:10660800039A0F4B0F4C9A4204F110020FD104ABBE
:1066180003CB20615160E38A228A0193A38A0A4945
:1066280000930A48638AFFF7DBFD06B010BD0849EE
:10663800CB6823610B695360FFF7C2FFEBE700BF2C
:106648005043495000B4071015EE3F02B0AE071092
:1066580094EC3F02484938B5B0FBF1F20723141D0A
:10666800B4FBF3F3C3EBC303E31A4FF4967401FBD3
:106678001200B0FBF4F04FF490742DED028B04FB84
:1066880003043E4BB0EE408A1A1902F57C52157885
:1066980035B92046FFF7BAFC0020BDEC028B38BDA7
:1066A80003EB8402D2ED008A04F5FC6203EB82035B
:1066B80093ED000ADFED327AB4EE670AF1EE10FAD4
:1066C80048BFB0EE670A05F037FFB1EE007AF0EE8A
:1066D800687AE0EE077AB6EE007AF4EE477AF1EEE1
:1066E80010FA48BFF0EE477AF4EEC87AF1EE10FAE5
:1066F800244B07D4244AD2ED017AF4EEC87AF1EE9D
:1067080010FA25D51A680132204821491A60036811
:10671800DFED207A01EB830181ED008A0621013348
:1067280093FBF1F501FB15331B4903600B68B1EED0
:10673800047A052BDCBF01330B6000230968144879
:10674800994207DDF0EC016A0133E6EE877AF7E754
:106758000022D9E7062907D10B4B93ED027AB4EE54
:10676800E77AF1EE10FA04D4022A02DCB0EE480A05
:106778008FE7012091E700BF80510100843707109F
:1067880017B7D1397C37071000B40710E09007100D
:10679800E490071000000000FC900710F0B52DED04
:1067A800028B1F4C0546A7690E467B1CB0EE408A3B
:1067B80085B00DD1C4E9065604EB8500D0ED087A02
:1067C80037EE880A80ED080A05B0BDEC028BF0BDF3
:1067D8008742F1D0029004EB8703186AFEF7CCFDDC
:1067E8003A46CDE900010F490F48FFF7F9FC002DA3
:1067F800E0D1E369B342DDD0D4F88000FEF7BCFDF8
:106808000B46024609490848FFF7EAFC6022294678
:1068180004F1200005F005FF0023C4F88030C9E723
:1068280000B407102FEE3F02B0AE071051EE3F0242
:106838000D49CA88B2F5B47F14D29FED0C7AF6EEF2
:10684800007AE0EE077AFCEEE77A501C17EE903AF1
:10685800C88040F2E7309BB2834228BF0346043227
:1068680021F81230704700BF657E07100000C8424B
:1068780008B502490248FFF7B3FC08BD70EE3F02B5
:10688800B0AE07102DE9F04300242DED028B25460C
:10689800224EDFF89C90B7B0B6EE008AB6EC017ACB
:1068A800F2EE048AF0EE487AE7EE287AFBFE677A81
:1068B8001B4AC7EEA87A002C08BF4A4604AB17EE5D
:1068C800900A5F190392FEF757FDC5F1C808CDE994
:1068D8000001039A4146384602F0CCFF0134182CD7
:1068E800054401D0BB2DD7DD0E4BD3ED207AA7EEA2
:1068F800A88ABBFE488AC8EE287A17EE900AFEF7E7
:106908003BFD04AACDE9000107490848FFF768FCE8
:1069180037B0BDEC028BBDE8F08300BF20B4071090
:1069280082EE3F0200B4071088EE3F02B0AE0710B7
:1069380083EE3F0270B50C4E0C4D06F1100128464F
:1069480001F059FF044640B100230949094886F877
:106958008430FFF745FC204670BD2A780649054873
:10696800FFF78EFCF7E700BF00B40710709107101F
:10697800ADEE3F02B0AE0710C9EE3F0210B586B0CB
:1069880004AC21460E4801F06AFFB0B194E8030058
:1069980001220C4B83E803000B4B0C481A709DF83E
:1069A8001330029101939DF812309DF81020009346
:1069B80007499DF81130FFF713FC06B010BD00BF62
:1069C800709107100491071000910710B0AE0710DE
:1069D800ECEE3F0207B50021094B0190196002F067
:1069E80009FA084B186002F005FA074B019A18607B
:1069F80006490748FFF7F4FB03B05DF804FB00BF46
:106A0800A891071048910710AC91071025EF3F0295
:106A1800B0AE071070B505463348FFF7DBFF2846D0
:106A280003F099F9284603F088F928462F4903F01E
:106A380037F90646F8B10121072005F03AFC012193
:106A4800042005F036FC0121032005F032FC284A19
:106A580053792BB92749D1F888300133C1F88830E8
:106A680001235371244A25486FF000411370FFF742
:106A78002AFB022070BD2846214903F011F904467B
:106A8800B8B101240121072005F013FC3146042088
:106A980005F00FFC0121032005F00BFC144B6FF0EF
:106AA80000415E71144B15481C70FFF70CFB204623
:106AB800E0E72846134903F0F3F888B12146072098
:106AC80005F0F7FB2146042005F0F3FB21460320DF
:106AD80005F0EFFB6FF000410848FFF7E7FAE6E73B
:106AE8004FF0FF30C6E700BF41EF3F024FEF3F02D4
:106AF8001891071000B40710B09107108C91071077
:106B080055EF3F02E3F63F021FB5134B134C9A793A
:106B180022B9D4F88C200132C4F88C2001229A7151
:106B28001A7922B9D4F890200132C4F890200122B1
:106B38001A71237B4BB10A49684603F05AF8684634
:106B4800FFF768FF684603F009F8637B13B1012279
:106B5800044B1A7004B010BD1891071000B4071048
:106B68004FEF3F02B09107102DE9F04F2DED048B48
:106B7800ADF5177D0C460992089004F0FFF904F072
:106B8800E3F9F0250026B0FBF5F0B246B1469FEDDB
:106B9800939ADFED939A001B00FB0555DDF82080E2
:106BA800904F0796A64266DAB8F802B0D7ED016AA8
:106BB80007EE90BAB8EE670A80EE260AFFF78AF960
:106BC800C6EE897A67EE807AFB7AB0EE408AC7EE25
:106BD800A98A0136B3B118EE900AFEF7CDFBCDE9CC
:106BE800040118EE100AFEF7C7FBCDE90201CDF843
:106BF80004B0B8F80030324600937B4923467B48FE
:106C0800FFF7EEFADFED7A7AB4EE678AF1EE10FA62
:106C1800079BA4BF2B464FF00109079304F0AEF978
:106C28002A46002304F01AF9834604F0A7F9002342
:106C38002A4604F01DF9B0EE680A01465846FFF7E7
:106C4800ADFD6C4B284693ED200A30EE280A83ED03
:106C5800200AB8F80230B0EE480A9A44FFF7FAFC66
:106C680008B1FFF751FFB0EE480AFFF7E1FDF03534
:106C780008F1040896E75F4DB9F1000F05D001232C
:106C880085F89430079BC5F89830099B1E68099BC6
:106C9800B2455B682CBF0026A6EB0A069C4238BFAB
:106CA800A3EB04083B7B28BF4FF00008012B40F002
:106CB8008B80AEB3B8F1000F14BF4346234607EEEE
:106CC800906A06EE903AF8EE677AF8EE666A97ED03
:106CD800016A87EEA60A80EE060AFFF7FBF866EE61
:106CE800866A9FED3E7AC6EE877A9FED3D7A27EE5B
:106CF800800AC0EE077A95ED207A37EE277A85ED7F
:106D0800207AB8F1000F50D117EE900AFEF734FB45
:106D1800CDE9006802460B4634483749FFF760FA68
:106D2800D5F88000354B9862FEF726FB344A354B80
:106D3800CDE90001B9F1000F08BF134632490293AB
:106D480022462A48FFF74CFAFB7A43B300254F2C1A
:106D5800D4BF274650272E46DFF8C480089B2B4A0D
:106D680002330AA8002E08BF424633F82630C5F57C
:106D78000C71284402F07EFD0136B7420544EDD17E
:106D8800BC4207DD0AA8224AE31BC5F50C7128445A
:106D980002F070FD1F4915480AAAFFF721FA0DF500
:106DA800177DBDEC048BBDE8F08FB3EE087A18238D
:106DB800C7EE876A184A92ED007A36EE877A013B69
:106DC800A2EC017AF7D19FE7002EA9D043463246BC
:106DD80012490648FFF704FAA2E700BF0000704214
:106DE800E02DB03F7C3507106DEF3F02B0AE0710C5
:106DF800CDCCCC3D00B40710A7EF3F021891071087
:106E08009EF93F025AEF3F0233F03F0269EF3F021B
:106E18005EF03F026DF03F0220B40710E9EF3F0239
:106E28006AEF3F0213B500290446019200910ADD7A
:106E380004F0A4F804F062F8DDE9001228B9064964
:106E48000648FFF71DFA02B010BD204602B0BDE8A3
:106E58001040FFF789BE00BF7FF03F02B0AE0710B9
:106E6800142210B58AB000210DEB020005F0D9FB01
:106E78004FF47A721649174805AB01F031FC041E2D
:106E88001FDBBDF8203014490193079B134800937A
:106E98000294DDE90523FFF7A3F974B121460C48F4
:106EA80005AAFFF7BFFFFFF739FA0D4B93F88430B7
:106EB8000BB1FFF73FFD0AB010BD0122094B1A7054
:106EC800F3E7224608490548FFF7DAF9EDE700BF7E
:106ED8003E81071070910710A1F03F02B0AE071075
:106EE80000B4071080370710D2F03F0210B50446EF
:106EF8001948FFF76FFD204602F02DFF204602F0EB
:106F08001CFF2046154902F0CBFE68B1144A1379DC
:106F18002BB91449D1F890300133C1F890300120D1
:106F2800114B1071187010BD2046104902F0B8FEC0
:106F380040B1002001220A4B18710D4B18600A4B12
:106F48001A70F0E720460B4902F0AAFE0028F0D19B
:106F58004FF0FF30E7E700BFE6F03F0244F73F029B
:106F68001891071000B40710B0910710E3F63F021C
:106F78007C3707106AEE3F02084808B5FFF72AFD7C
:106F8800FFF7FCFC0122064B1A70064B1B78002BFE
:106F980014BF10464FF0FF3008BD00BFF4F03F02A9
:106FA800B09107100091071073B504462648FFF703
:106FB80011FD204602F0CFFE204602F0BEFE20461C
:106FC800224902F06DFED8B101263146204801F071
:106FD80076FC054608B1FFF7D1FC01241D4B1E4A7B
:106FE8001C701B4B1D491B781D4800931D4B002D21
:106FF80018BF13463246FFF7F3F80DB3204621E0D9
:107008002046194902F04CFE0028DDD120461749D8
:1070180002F046FE08B10226D7E72046144902F0DE
:107028003FFE0028F7D12046124902F039FE08B188
:107038000326CAE72046104902F032FE0028F7D19D
:107048004FF0FF3002B070BD01F13F020DF13F0279
:1070580070910710B0910710FDF03F021EF13F023A
:10706800B0AE071092F63F0256F93F0212F13F0206
:1070780035F33F0217F13F021CF13F0208B50648FD
:10708800FFF7A8FC054801F03AFC05490548FFF759
:10709800A7F8012008BD00BF45F13F027091071015
:1070A8004EF13F02B0AE071008B50548FFF792FC55
:1070B800FFF740FC002814BF01204FF0FF3008BD47
:1070C80062F13F02F0B504469DB02D48FFF782FCFF
:1070D800204602F040FE2C21204602F001FE051E4B
:1070E8004BDD2B460022214601A802F0FDFD21467A
:1070F8006A1C05A802F01AFE01A802F02CFE05A8D9
:1071080002F029FE039B53B94FF0FF3405A802F0A3
:1071180025FD01A802F022FD20461DB0F0BD019F0B
:10712800059D37B33846FEF775FE06461DB328465B
:10713800FEF770FE0446382200210DEB020005F030
:1071480070FA4C23CDE9093703238DF83830002332
:107158000D940C4C1946606809AACDE90B6502F03C
:107168008DFA01460028CFD12046FFF71DF80124EB
:10717800CCE73E46DAE72C46DDE74FF0FF34CBE7B5
:107188006AF13F026CAF071010B50848FFF722FC00
:107198000023074C1A461946606802F07DFA6068B9
:1071A8000022022102F016FA012010BD72F13F02FE
:1071B8006CAF071038B504461C48FFF70BFC204697
:1071C80002F0C9FD206805F0E9F951EC100BFEF753
:1071D800C5FB07EE900AF4EE677AF1EE10FA21D1BA
:1071E800B6EE007AF4EEC77AF1EE10FA1AD4B0EEE1
:1071F800007AF4EEC77AF1EE10FA13DC01240C4D94
:107208002860FFF72FF9FFF757F80A4B28681C701A
:10721800FEF7B2F802460B4607480849FEF7E0FFBA
:10722800204638BD4FF0FF30FBE700BF7CF13F023E
:1072380000B40710B0910710B0AE071087F13F02F5
:107248002DE9F0432DED028B04468BB05D48FFF726
:10725800C1FB204602F07FFD2C21204602F040FDB4
:1072680000F1010907464A462C21204602F02AFD72
:1072780000F10108054642462C21204602F022FD75
:10728800002F064603DB002D01DB00280ADA4E48F2
:107298004E49FEF7F5FF4FF0FF300BB0BDEC028B07
:1072A800BDE8F0833B460022214606A802F01CFDFB
:1072B800069805F073F951EC100BFEF74FFB08EE3A
:1072C800900A06A802F04AFC2B464A46214606A820
:1072D80002F00AFD069805F061F951EC100BFEF773
:1072E8003DFB08EE100A06A802F038FC3346424679
:1072F800214606A802F0F8FC069805F052F9054662
:1073080006A802F02BFC721C214606A802F00EFD0E
:10731800069805F046F9064606A802F01FFCDFEDC0
:107328002C7AF4EEE78AF1EE10FA3ED4DFED297AF2
:10733800F4EEE78AF1EE10FA37DCF7EE007AB4EEF5
:10734800E78AF1EE10FA33D4DFED237AB4EEE78A58
:10735800F1EE10FA2CDC012D2DD8022E2ED80124A6
:107368001E4BC3ED018A83ED028A1D735E73FFF71E
:10737800CFF8FEF7A1FF1A4B18EE900A1C70FDF724
:10738800FBFF02460B4618EE100ACDE90423CDE9AF
:107398000256FDF7F1FFDDE90423CDE900010A48B3
:1073A8001049FEF71DFF204677E76FF0010074E7EC
:1073B8006FF0020071E76FF003006EE76FF00400F2
:1073C8006BE700BF99F13F02B0AE0710A3F13F028F
:1073D800CDCCCC3D0000484300007A4400B40710EF
:1073E800B0910710C0F13F022DE9F043044687B081
:1073F8004D48FFF7EFFA204602F0ADFC2C2120465D
:1074080002F06EFC00F1010905464A462C2120468F
:1074180002F058FC471C06463A462C21204602F04A
:1074280051FC002D804603DB002E01DB002808DA22
:107438003E483F49FEF724FF4FF0FF3007B0BDE854
:10744800F0832B460022214602A802F04DFC029848
:1074580005F0ABF8054602A802F080FB33464A4621
:10746800214602A802F040FC029805F09EF8064664
:1074780002A802F073FB43463A46214602A802F0EE
:1074880033FC029805F091F8074602A802F066FB63
:1074980008F10102214602A802F048FC029805F012
:1074A80084F8804602A802F059FB4FF6E7536A1E9B
:1074B8009A422DD8721E9A422DD87A1E9A422DD8F9
:1074C80008F1FF329A422CD81A4C02A91A4801F046
:1074D80061F925826682A782A4F81680FFF770F802
:1074E800FEF7EAFE0123154A1549137084F8843023
:1074F8002A4633460D48CDE90078FEF771FEFFF7BE
:1075080019FAFFF73BFA94F8840080F0010095E738
:107518006FF0010092E76FF002008FE76FF0030051
:107528008CE76FF0040089E7ECF13F02B0AE07107A
:10753800FAF13F0200B4071070910710B0910710DC
:107548001BF23F0213B50D48FFF744FA69460C4891
:1075580001F020F90B4C60B16B460B4A03CB10616C
:107568005161FFF72DF8FEF7A7FE0120207002B049
:1075780010BD01234FF0FF302370F8E73CF23F02C3
:1075880070910710B091071000B4071008B501F00A
:1075980031FC064B186002F0EFF80422044B054951
:1075A80005481A70FEF71CFE08BD00BFD0AF0710D3
:1075B800149107104AF23F02B0AE07102DE9F047C8
:1075C8002E488CB0FEF7F5FD2D4E044658B102F05A
:1075D800EFF840B132782B4B002A4AD103221A70B7
:1075E8000122294B46E001F005FC284D2B68C01A02
:1075F80041F28733984227D901F0FCFB00221F4B48
:1076080011462860586801F0BBFF811C06A804F0E9
:1076180095F801F0EFFB9DF81F7005469DF81E8058
:107628009DF81D909DF81CA002F0C2F84FF47A72E4
:10763800CDE903A02346B5FBF2F2CDE9018914494F
:1076480014480097FEF7CCFD3378A3B901F0D2FBBC
:10765800114B98420FD9114A11490E48FEF710FEF6
:107668000121104801F050F90CB0BDE8F047FFF7D0
:107678008DBF02221A700CB0BDE8F0876CAF0710FE
:107688004491071014910710B09107100C9107103E
:107698007DF23F02B0AE07107F380100803801004C
:1076A800B1F23F027091071038B503F067FC03F0A0
:1076B80025FCF0B101F09EFB0E4C2368C01AB0F512
:1076C800FA6F16D301F096FB0023206004240A4DBC
:1076D8002B700120013CFFF7C3FB14F0FF0402D01C
:1076E8002B78002BF5D0FFF7C3F8BDE83840FFF73B
:1076F800C9B838BD10910710803707102DE9F0433D
:107708002DED028B8C4C91B004F0ACF84FF4E131C4
:1077180004F096F8A37ABBB101F06CFB054601F0C2
:1077280069FB401BB0F5FA5F07D204F09BF804F040
:107738008EF810B902F020F8F1E704F093F804F09D
:1077480086F8E08903F036FC03F018FCBAEE000A6C
:1077580003F098FB794A7A497A48FEF741FDFEF72B
:1077680095FEFEF7EDFEFEF741FF0121072004F02C
:107778008FFD0121042004F08BFD0121032004F07A
:1077880087FD02210C2004F083FD00211B2004F05A
:107798007FFD6D490CA802F02CFA0CA8FFF73AF906
:1077A8000CA802F0DBF94FF41641684800F026FEF9
:1077B80067496848FEF798FC67496848FEF794FCF3
:1077C80067496848FEF790FC67496848FEF78CFCF3
:1077D80067496848FEF788FC67496848FEF784FCF3
:1077E80067496848FEF780FC67496848FEF77CFCF3
:1077F80067496848FEF778FC67496848FEF774FCF3
:1078080067496848FEF770FC67496848FEF76CFCF2
:1078180067496848FEF768FC67496848FEF764FCF2
:107828000022674B01251A60FEF7ACFD6549454803
:10783800FEF7D6FCDFF81491DFF8A081414F4846E7
:107848000CA901F091F80246002858D19DF8303073
:10785800002B45D0DDED0D7ADFED5B6AF8EE677A37
:10786800012387EEA67A0E9A2370BDF83E109DF884
:107878003C30BDF838009DF83A60A2609DF83B7036
:107888009DF8312084ED017A2373E181CDE9020668
:1078980017EE100A0992CDE90615CDE90473FDF734
:1078A8006BFD099ACDE9000148492648FEF798FC86
:1078B8000123264F464E234D8DF82B3038460DF1C7
:1078C8002B0101F02DF88146002800F08980284618
:1078D8003146FEF7D5FC4FF47A7003F06BFBEDE709
:1078E8006068FDF749FD02950B46A17A02460191B1
:1078F8002189144800913749FEF772FCD8E705261C
:107908002B46414638460096FEF7BAFC0135C8209A
:1079180003F050FB062D92D1A37A03932389029397
:107928006068FDF729FD3246CDE900012A4905487E
:10793800FEF7A6FCBCE700BF7C35071034F33F0216
:1079480037F33F02B0AE0710E3F63F02709107101D
:107958008D6F3F0241EF3F0265743F02E6F03F0240
:107968002D773F027CF13F02E5643F024FF33F026F
:10797800B9773F0299F13F0209653F025AF33F0286
:1079880061793F02ECF13F02BD7A3F023CF23F02CF
:10799800F1743F02F4F03F0221753F0201F13F020A
:1079A800F5753F0245F13F0221763F0262F13F0241
:1079B8003D763F026AF13F0201773F0272F13F02D2
:1079C8001891071064F33F0200007A4487F33F02DE
:1079D800EAF43F02FCF33F0289F43F025FF43F02FE
:1079E8009DF82B30474D002B0CBF012300232B7033
:1079F800454B464A464918BF1A464648FEF7F0FB2B
:107A0800A17ADFF84881444F444E002957D0042218
:107A180043480BA994ED018A2589CDF82C90FEF7EF
:107A280067FC002844D03F4B0B9A9A4240D907EE96
:107A3800905AF8EE677A67EE887AFCEEE77A17EEE6
:107A4800904A01F0D7F90B9B584004F0E8F938EE5A
:107A5800088AFCEEC87A17EE900A411C404204F0EE
:107A6800D4F90B9BCDE900401A1902442E49294844
:107A78000C92FEF7B5FB03F081FA00230C9A03F091
:107A880021FA0CA904222648FEF719FC01F0B2F9E4
:107A9800C8F8000001F0AEF90323386023491D48F7
:107AA8003370FEF79DFB11B0BDEC028BBDE8F0838F
:107AB8001F4A204917480C92FEF792FBDBE71E4C41
:107AC8000A460B466068099101F0A0FD2046012492
:107AD8000999FEF769FB01F05DFE184B1C7001F077
:107AE80089F9C8F8000001F085F92978144B154A7E
:107AF8003860002908BF1A46064813493470FEF753
:107B08006FFBD0E7449107100CF33F02ECF23F0201
:107B180019F53F02B0AE07104891071014910710ED
:107B28002EF53F027F85746741F53F02B1F53F02AC
:107B3800808574677FF53F026CAF0710B09107101E
:107B480020F33F0213F33F0203F63F02AC91071004
:107B580070B51426D0E90053044606FB0356AE421E
:107B680004D0284601F0FAFF1435F8E7206801F040
:107B780065FE204670BD37B504461546019101F0F3
:107B88005DF801222046019900F0C6FF20463A21FF
:107B980000F076FF01222946204603B0BDE83040B8
:107BA80000F0BABF37B504461546019101F046F812
:107BB80001222046019900F0AFFF20463A2100F04B
:107BC8005FFF2A462046034903B0BDE8304000F075
:107BD80096BF00BFE3F03F022DE9F04FDFF860A148
:107BE800ADF56B7DBAF80650002D00F08A80782339
:107BF8007735B5FBF3F50027ABB201934FF00009D9
:107C0800C7EB0716BAF80640F600B6B2A41BA4B232
:107C1800782C28BF7824C8460DF10C0B1FFA89F37D
:107C2800A34212D209EB0603C8F5B47104330BEB77
:107C380008003AF81330354A013101F01BFE804440
:107C4800B8F5B47F09F10109E8D300234FF40072B5
:107C58006AA95EA80BF8083000F000FF2C4B7D22C3
:107C68007B215EA85E9300F0F4FF2A4A2A495EA8A9
:107C7800FFF781FFDAF8002028495EA8FFF792FF96
:107C88000137F02226495EA8FFF78CFF3A462549BE
:107C98005EA8FFF787FF2A4623495EA8FFF782FF01
:107CA800324622495EA8FFF77DFF224620495EA89A
:107CB800FFF778FF5EA800F0C1FF01221D495EA80A
:107CC80000F02AFF3A215EA800F0DAFE01225946A8
:107CD8005EA800F021FF5EA800F0E1FE5F9916485B
:107CE800FEF78CFA154B9B7A1BB940F24C4003F017
:107CF80061F95EA8FEF752F9019ABBB29A423FF6C3
:107D08007DAF0DF56B7DBDE8F08F00BF2DF63F020E
:107D1800ACF83F0234F33F0232F63F023BF63F0233
:107D280043F63F024FF63F0255F63F0261F63F0227
:107D38006DF63F0279F63F027EF63F027C3507106A
:107D4800657E071013B504468DED000A019100F019
:107D580075FF01222046019900F0DEFE20463A21F7
:107D680000F08EFE9DED000A204602B0BDE81040EE
:107D780000F088BFF0B52DED048B984EADF5177D5A
:107D8800B37A33BB9648FEF714FA014608BB944809
:107D9800FEF70AFA01F02EF844F61F650446904FE4
:107DA80001F028F8001BA84206D83846FEF701FA69
:107DB80010B901F0E1FCF3E78948FEF7FAF940B998
:107DC80088498948FEF76AFA0DF5177DBDEC048BE2
:107DD800F0BD4FF4007216A90AA800F03FFE834BCD
:107DE8007D227B21824D0AA80A93824C00F031FF44
:107DF800814A82490AA8FFF7BEFE2A6880490AA874
:107E0800FFF7D0FED4F890207E490AA8FFF7CAFEF3
:107E1800D4F888207C490AA8FFF7C4FED4F88C203F
:107E28007A490AA8FFF7BEFE95ED020A78490AA822
:107E3800FFF788FF94ED000A76490AA8FFF782FF4A
:107E480094ED010A74490AA8FFF77CFF94ED020A31
:107E580072490AA8FFF776FF227B71490AA8FFF743
:107E6800A1FE627B6F490AA8FFF79CFE228A6E4931
:107E78000AA8FFF797FE628A6C490AA8FFF792FEE4
:107E8800A28A6B490AA8FFF78DFEE28A69490AA807
:107E9800FFF788FE94F8842067490AA8FFF782FE56
:107EA800664B1B78CBB1664D6649AA780AA8FFF7DE
:107EB80079FEEA7864490AA8FFF774FE2A786349CC
:107EC8000AA8FFF76FFE6A7861490AA8FFF76AFEF9
:107ED8006A6860490AA8FFF765FE5F490AA800F0CA
:107EE800F1FE1825F2EE048AB6EE009A5B4FF7EC25
:107EF800017AB0EE498AA7EEA88ABBFE488A0AA88A
:107F080000F09CFE88EE280A0AA800F0BBFE013D9E
:107F1800EDD10AA800F0C3FDB37A002B52D02A464F
:107F28004F490AA8FFF73EFE1B2004F0DBF907EED5
:107F3800900A9FED4C0AF8EEE77A4B4987EE800AE3
:107F48000AA8FFF7FFFE01F091FD484902460AA87A
:107F5800FFF728FE002000F093FF00234FF47A7209
:107F6800FDF74CFD424902460AA8FFF71BFE414DAA
:107F78000AA800F094FD0B993F48FEF73FF9FFF778
:107F88002BFEEB88B3F5B47F11D302F0F7FF02F0B4
:107F9800DBFF3A4B3A49B0FBF3F058430023286023
:107FA80011482B716B71AB71EB71FEF719F9FEF784
:107FB800B5F900230AA8C4E92233C4F89030FDF7C4
:107FC800EDFF01E7064901A803F0E0FF01A803F06F
:107FD8005DFFFDEEC07A17EE902AA1E77C35071009
:107FE8006CAF07108DF63F02B0AE0710ACF83F0239
:107FF8001891071000B4071034F33F0232F63F021D
:1080080097F63F029EF63F02A6F63F02AEF63F0203
:108018000DF13F02B7F63F02BFF63F02CAF63F0234
:10802800D8F63F02E7F63F02F4F63F0203F73F02B5
:1080380010F73F021FF73F022CF73F02009107108D
:10804800049107103BF73F0247F73F0256F73F02FC
:108058005FF73F0269F73F0278F73F0220B4071045
:1080680086F73F02CDCC4C448BF73F0293F73F0293
:108078009BF73F02657E0710A2F73F02805101007F
:10808800ADF73F027FB5354DAB7A3BBB02F076FFCB
:1080980002F034FF90B900F0ADFE314B98425BD945
:1080A8003049314A3148FEF7EBF80121304800F0F9
:1080B8002BFC04B0BDE87040FFF768BA02F05EFF21
:1080C80002F042FF2B4AD2F89C3083429FBFF02334
:1080D800B0FBF3F000FB0333C2F89C300023042408
:1080E800254E33700120013CFEF7BAFE14F0FF0460
:1080F80002D03378002BF5D0204E214C33787BB159
:108108002049684601F075FD6846FEF783FC68461D
:1081180001F024FD00231C4A938001222270337051
:10812800144B93F884300BB1FEF704FCFEF726FCE1
:10813800FEF79EFBFEF7A6FBFFF71CFEFEF7EEF828
:1081480000232370AB7A2BB110490848FEF748F892
:108158000021ABE70E49F8E704B070BD7C35071085
:108168007F380100BBF73F0280380100B0AE07102E
:108178007091071000B40710803707108891071016
:10818800B0910710E3F63F021891071001F83F027B
:1081980033F83F0208B500F02DFE0C4B186001F0D3
:1081A800EBFA0B4B1B78022B0AD006D9032B0AD00B
:1081B800BDE80840052002F0FDBEFFF7FFF9F7E72C
:1081C800FFF772FAF4E7FFF75DFFF1E7D0AF0710AA
:1081D800149107108842F8B504460D46164616D97C
:1081E800904215D2A2F11406751AA1F114072C4475
:1081F800B7421CD02CB13146204601F02CFD337C0F
:108208002374304601F0AAFC143E143CF0E70ED06B
:10821800B5420CD02CB12946204601F01CFD2B7C20
:108228002374284601F09AFC14351434F0E7F8BD9D
:1082380000232DE9F041C0E9003383604F6804460C
:108248009F420E4624DD4FF0140808FB07F001F0AA
:10825800E7FA0546E0B1D4E9001208FB0212FFF77D
:10826800B9FF206801F0EAFA2560A760D6E9007333
:1082780008FB0378B84509D03946284601F005FDC2
:108288003B7C143505F8043C1437F3E773686360E6
:108298002046BDE8F08100002DE9F0430024434B5F
:1082A80091B01C7003F08CFF23462246022103F094
:1082B800A3FF03F085FF20212346224603F08EFF0B
:1082C8003B4B3C4AC3E900449A60032001F0E8F8BC
:1082D800CDE90344059403F0C5FA374F8046B94603
:1082E80009AE03A906A8FFF7A3FF06A93046FFF7C2
:1082F8009FFF324B0CAD49F8043B31462846FFF747
:1083080097FF2A461E21484602F04CFA2846FFF7F6
:108318001FFC3046FFF71CFC294B06A83B60C7F83A
:108328002080FFF715FC274B3B6003F09BFA4FF4C6
:10833800165103F085FA01F049FF394602F04CF96D
:1083480003A8FFF705FC0121084600F0D1FD1E4BEC
:108358001E4A1C701E4B0C9395E803001D4B86E8C3
:1083680003001A6003F10C0292E8030085E8030099
:1083780096E8030082E80300174A1C715A619A695B
:108388009C600F92154A42F210719A61012203F122
:10839800080000920194124A0E9400F019FE284633
:1083A800FDF7CCFE11B0BDE8F08300BF647E071076
:1083B800703707100000FFFF4C9107107CF83F0250
:1083C800BCF93F0294F83F027091071068F83F0229
:1083D800D1643F028C9107100D663F0221663F026F
:1083E8004B653F0270B504460646034D0FCD0FC4DA
:1083F8002B683046236070BDA8EC3F0210B50C46D0
:108408000A20022103F044FF03F0A8FF2146BDE83B
:108418001040002203F074BC08B503F09FFF036806
:108428001B69984728B103F099FF03685B6998476F
:10843800F3E708BDF8B50D46164600F0DBFC074625
:1084480003F08CFF03681B699847044630B900F0B5
:10845800D1FCC31BB342F3D3204606E003F07EFFF2
:1084680003685B69984728700120F8BD024630B55B
:1084780001444AF201054FF6FF708A420FD00824E2
:1084880012F8013B584000F00103400813B180EA9C
:10849800050398B2631E13F0FF04F4D1EDE730BD75
:1084A80070B51D46AA234370552383702B0A0371A8
:1084B80004460023C170457199B24E1D8D4214FACD
:1084C80086F603D9D15C01337170F5E7E91C89B2EE
:1084D800E01CFFF7CBFF030A7370AB1D14FA83F39C
:1084E80058702046FFF798FF03F038FF0368EA1D2D
:1084F80092B2611CDB68984703F030FF0368DB69C0
:108508009847012070BD10B4DC1D172C03D85DF806
:10851800044BFFF7C5BF00205DF8044B70472DE9F9
:10852800F04387B0144680460E469946002500F071
:1085380061FC0F9A8DF80B50171800F05BFC381A85
:10854800002804DC6FF0010007B0BDE8F0830522C5
:1085580040460DF10B01FFF76DFF0028EDD0AA2D65
:108568009DF80B50E9D1552DE7D100F043FC381A9E
:10857800002801DC012202E000F03CFC3A1A002548
:1085880004AB404659190192FFF754FF0028D9D08F
:108598000135032D019AF3D1BDF811707FBABDB230
:1085A800A9454ED3A1462544A945019237D1404655
:1085B80003A9FFF73FFF0028C4D04046019A0DF1F8
:1085C8000D01FFF737FF0028BCD09DF811309DF84A
:1085D80010908DF815309DF81230032105A88DF8FC
:1085E80014908DF81630FFF741FF4AF20102BDF8EA
:1085F8000C8098FA98F81FFA88F8AC4219D014F849
:10860800013B5840082380B200F00101C0F34F003D
:1086180001B15040013B13F0FF03F5D1EDE74946A6
:108628004046FFF707FF09F10109019A0028BBD16D
:1086380088E7404508D10E9B86F8009000201F80EF
:1086480082E76FF006007FE76FF002007CE72DE914
:10865800F04F05460E461746984604244FF0000989
:1086680085B09DF838A0BDF840B043463A4631463B
:108678002846FFF748FF48B3129B284601930DF19F
:108688000E0300930F9A5B460DF10D018DF80D90C6
:10869800ADF80E90FFF743FFD0B99DF80D308F2B42
:1086A8000AD1BDF80E300BB10F9B1B786FF0050097
:1086B8002B7005B0BDE8F08F53450ED1119B002BF0
:1086C800F7D0BDF80E30119A1380F2E74FF0FF3063
:1086D800013C14F0FF04C8D1EBE76FF00400F7E7A2
:1086E800F0B517464FF47A6289B004920DF11E0274
:1086F800039240F6CA321D46029200238122244E7C
:108708000C46009201211A460196ADF81E30FFF77B
:108718009EFF002837D1BDF81E20112A31D9D6F87E
:108728000E1009BAB1F57A7F2BD801EB4103123349
:10873800934226D18F4228D365B1B389B268706855
:10874800366800BA36BA12BA5BBA2E606860AA6098
:10875800AB81296100200E4DA61C884205F1030556
:1087680011D02B7CEA7B1B0243EA02436A7C1A4342
:108778009B0B24F82030C2F30D0326F8203001307B
:10878800EBE76FF0030009B0F0BD6FF00600FAE701
:10879800B1A207104FF47A7330B58BB004930DF182
:1087A8001E0303930823029308AB00250193822339
:1087B8000C4600932A462B460221ADF81E50FFF7BF
:1087C80046FFB0B9BDF81E30082B10D10120BDF806
:1087D80020305BBA2380BDF822305BBA6380BDF8D5
:1087E80024305BBAA380BDF826305BBAE3800BB0B7
:1087F80030BD2846FBE700B50B888BB01A0A8DF808
:1088080021304B888DF820208DF823301A0A8B8868
:108818008DF822208DF825301A0ACB888DF824206F
:108828008DF827301A0A0023ADF81E304FF47A73FA
:1088380004930DF11E0303930223029307AB0193E4
:108848008E238DF8262000930321082308AAFFF71A
:10885800FEFEB0FA80F040090BB05DF804FB4FF45F
:108868007A7330B58BB004930DF11E03039308237C
:10887800029308AB0025019384230C4600932A46F3
:108888002B460421ADF81E50FFF7E1FEA8B9BDF84C
:108898001E30082B0FD101209DF8203023709DF841
:1088A800213063709DF82230A3709DF82330E37067
:1088B800099B1BBA63600BB030BD2846FBE7002359
:1088C80000B589B0ADF81E304FF47A7304930DF1FA
:1088D8001E0303930223029307AB01938E2301F037
:1088E80003018DF8181000930521012306AAFFF74C
:1088F800AEFEB0FA80F0400909B05DF804FB002331
:1089080006211A46FFF7FFBD07B501238DF80710AA
:108918000DF107020721FFF7C3FD03B05DF804FB63
:108928004FF47A7210B588B004920DF11E020392CA
:108938000122029207AA0023019288220C46009283
:1089480008211A46ADF81E30FFF781FE38B9BDF888
:108958001E30012B05D114B19DF81C30237008B0CE
:1089680010BD6FF00300FAE74FF47A7210B58CB0BF
:1089780004920DF11E0203920D22029208AA00230E
:10898800019289220C46009209211A46ADF81E3040
:10899800FFF75DFE40BBBDF81E300D2B26D11CB382
:1089A8009DF82030003B18BF012323709DF821302B
:1089B8006370DDF822301BBA6360BDF826305BBAFD
:1089C80023819DF82830003B18BF0123A3729DF82E
:1089D8002930003B18BF0123E3729DF82A30237326
:1089E800BDF82B305BBAE3810CB010BD6FF003000B
:1089F800FAE7000010B5054B04460360037C1BB979
:108A0800406808B100F01AFF204610BDD0F83F02B8
:108A180010B50446FFF7EEFF20461421FDF73DFA96
:108A2800204610BD10B50446024B0360FFF7E2FF75
:108A3800204610BDE0F83F0210B50446FFF7F2FFEC
:108A480020463021FDF729FA204610BD00230122D7
:108A5800C3604361028380F82A307047C0E901127D
:108A68000022C26001220274044A08B502604FF075
:108A7800FF32C262FFF7EAFF08BD00BFE0F83F021D
:108A8800D0E90223934228BF012310B53FBF4268B3
:108A98005C1CC460D15428BF80F82A3010BD10B5C2
:108AA8004369044643B100EB4303597E09B1FFF71C
:108AB800E7FF6369013B63610022D4E90210636840
:108AC80088422ABF5B181A5403F8012C10BD70B5F0
:108AD8000446D0E9025066682D1A134630440A4607
:108AE800294600F0D5FE854237BFA368E368E360F6
:108AF800012326BFC018E06084F82A3070BD0EB488
:108B080003B503AA52F8041B0192FFF7E0FF02B075
:108B18005DF804EB03B070472DE9F84304460E46B0
:108B2800174612B12221FFF7ABFF0025DFF80881B5
:108B3800715D06EB0509002974D0D4E902329A4226
:108B480070D20B0634D501F0F003E02B05F10109D2
:108B58001DD116F8092002F0C003802B39D105F188
:108B6800020916F8093003F0C000802831D103F05B
:108B78003F03920143EA013302F47C621A4392B242
:108B880041462046FFF7BBFF4D460135D0E701F0CF
:108B9800E003C02B1DD116F8093003F0C002802A6B
:108BA80017D1890101F4F86203F03F031A43E7E79C
:108BB8000D290AD807290CD9A1F10803052B08D8D3
:108BC800DFE803F009231707111D222923D05C29A8
:108BD80021D0204604E05C212046FFF751FF6221A6
:108BE800FFF74EFFD1E75C212046FFF749FF6621DA
:108BF800F6E75C212046FFF743FF6E21F0E75C2192
:108C08002046FFF73DFF7221EAE75C212046FFF787
:108C180037FF7421E4E75C212046FFF731FF99F81C
:108C28000010DDE72FB12046BDE8F8432221FFF709
:108C380027BFBDE8F88300BFB8F83F02426900EBE0
:108C480042031A7E12B100221A7670472C21FFF7D0
:108C580017BF73B5436916460133082B01910FD826
:108C68000125FFF7EBFF4369019900EB43045A1C08
:108C78004261A576E676FFF703FF284602B070BD8D
:108C88000020FBE737B5044610EE100AFCF774FB2A
:108C9800E56A0246002D0B4608DBCDE90023204695
:108CA8002A460649FFF72BFF03B030BD204604498A
:108CB80003B0BDE83040FFF722BF00BFBFF83F0256
:108CC800C4F83F0213B504460191FFF7B7FF01222C
:108CD8000199FFF721FF3A212046FFF7D1FE012233
:108CE80063695B210C3304F813205D2202B0BDE8F0
:108CF8001040FFF7AEBF000009B504480068044BF8
:108D080003441B689B68029309BD0000783507106F
:108D18005000000009B504480068044B03441B6870
:108D28005B69029309BD0000783507105000000008
:108D380009B504480068044B03441B685B68029348
:108D480009BD0000783507101400000009B5044873
:108D58000068044B03441B689B68029309BD00002C
:108D6800783507101400000009B504480068044B62
:108D780003441B68DB68029309BD000078350710BF
:108D88001400000009B504480068044B03441B683C
:108D98001B69029309BD0000783507101400000014
:108DA80009B504480068044B03441B681B6B029315
:108DB80009BD0000783507101400000009B5044803
:108DC8000068044B03441B689B69029309BD0000BB
:108DD800783507105400000009B504480068044BB2
:108DE80003441B685B68029309BD000078350710CF
:108DF8000000000009B504480068044B03441B68E0
:108E08005B69029309BD0000783507100000000077
:108E180009B504480068044B03441B689B6A029325
:108E280009BD0000783507100000000009B50448A6
:108E38000068044B03441B685B6C029309BD000087
:108E4800783507100000000009B504480068044B95
:108E580003441B689B6C029309BD0000783507101A
:108E68000000000009B504480068044B03441B686F
:108E78009B6D029309BD00007835071000000000C3
:108E880009B504480068044B03441B68DB6D029372
:108E980009BD0000783507100000000009B5044836
:108EA8000068044B03441B685B6E029309BD000015
:108EB800783507100000000009B504480068044B25
:108EC80003441B689B6E029309BD000078350710A8
:108ED8000000000009B504480068044B03441B68FF
:108EE8005B6D029309BD0000783507101C00000077
:108EF80009B504480068044B03441B685B6E029381
:108F080009BD0000783507101C00000009B50448A9
:108F18000068044B03441B681B68029309BD0000EA
:108F2800783507106400000009B504480068044B50
:108F380003441B685B68029309BD0000783507107D
:108F48006400000009B504480068044B03441B682A
:108F58009B68029309BD0000783507106400000083
:108F680009B504480068044B03441B68DB68029396
:108F780009BD0000783507106400000009B50448F1
:108F88000068044B03441B681B68029309BD00007A
:108F9800783507107000000009B504480068044BD4
:108FA80003441B68DB68029309BD0000783507108D
:108FB8003000000009B504480068044B03441B68EE
:108FC800DB69029309BD0000783507103000000006
:108FD80009B504480068044B03441B681B6A0293E4
:108FE80009BD0000783507103000000009B50448B5
:108FF8000068044B03441B685B6A029309BD0000C8
:10900800783507103000000009B504480068044BA3
:1090180003441B689B6A029309BD0000783507105A
:109028003000000009B504480068044B03441B687D
:10903800DB6A029309BD0000783507103000000094
:1090480009B504480068044B03441B685B6C029331
:1090580009BD0000783507103000000009B5044844
:109068000068044B03441B689B6C029309BD000015
:10907800783507103000000009B504480068044B33
:1090880003441B68DB6C029309BD000078350710A8
:109098003000000009B504480068044B03441B680D
:1090A8005B6D029309BD00007835071030000000A1
:1090B80009B504480068044B03441B681B6F0293FE
:1090C80009BD0000783507103000000009B50448D4
:1090D8000068044B03441B685B69029309BD0000E8
:1090E800783507104C00000009B504480068044BA7
:1090F80003441B689B68029309BD0000783507107C
:109108002400000009B504480068044B03441B68A8
:10911800DB68029309BD00007835071024000000C1
:1091280009B504480068044B03441B681B69029393
:1091380009BD0000783507102400000009B504486F
:109148000068044B03441B685B69029309BD000077
:10915800783507102400000009B504480068044B5E
:1091680003441B689B69029309BD0000783507100A
:109178002400000009B504480068044B03441B6838
:10918800DB69029309BD0000783507102400000050
:1091980009B504480068044B03441B681B6A029322
:1091A80009BD0000783507102400000009B50448FF
:1091B8000068044B03441B689B6A029309BD0000C6
:1091C800783507102400000009B504480068044BEE
:1091D80003441B68DB6A029309BD00007835071059
:1091E8002400000009B504480068044B03441B68C8
:1091F8001B6C029309BD000078350710240000009D
:1092080009B504480068044B03441B681B6A0293B1
:1092180009BD0000783507101000000009B50448A2
:109228000068044B03441B685B6A029309BD000095
:10923800783507101000000009B504480068044B91
:1092480003441B689B6A029309BD00007835071028
:109258001000000009B504480068044B03441B686B
:10926800DB6A029309BD0000783507101000000082
:1092780009B504480068044B03441B681B6B029340
:1092880009BD0000783507101000000009B5044832
:109298000068044B03441B685B6B029309BD000024
:1092A800783507101000000009B504480068044B21
:1092B80003441B681B6C029309BD00007835071036
:1092C8001000000009B504480068044B03441B68FB
:1092D800DB69029309BD000078350710180000000B
:1092E80009B504480068044B03441B681B6A0293D1
:1092F80009BD0000783507101800000009B50448BA
:109308000068044B03441B681B68029309BD0000F6
:10931800783507103400000009B504480068044B8C
:1093280003441B685B68029309BD00007835071089
:109338003400000009B504480068044B03441B6866
:109348009B68029309BD00007835071034000000BF
:1093580009B504480068044B03441B681B69029361
:1093680009BD0000783507103400000009B504482D
:109378000068044B03441B685B69029309BD000045
:10938800783507103400000009B504480068044B1C
:1093980003441B689B69029309BD000078350710D8
:1093A8003400000009B504480068044B03441B68F6
:1093B800DB69029309BD000078350710340000000E
:1093C80009B504480068044B03441B681B6A0293F0
:1093D80009BD0000783507103400000009B50448BD
:1093E8000068044B03441B689B6A029309BD000094
:1093F800783507103400000009B504480068044BAC
:1094080003441B685B6F029309BD000078350710A1
:109418005C00000009B504480068044B03441B685D
:109428005B6D029309BD0000783507104800000005
:1094380009B504480068044B03441B68DB6E0293BB
:1094480009BD0000783507104800000009B5044838
:109458000068044B03441B681B6F029309BD00009E
:10946800783507104800000009B504480068044B27
:1094780003441B68D3F8D430029309BD783507102C
:109488004800000009B504480068044B03441B6801
:109498001B68029309BD000078350710080000001A
:1094A80009B504480068044B03441B685B680293D1
:1094B80009BD0000783507100800000009B5044808
:1094C8000068044B03441B685B69029309BD0000F4
:1094D800783507100800000009B504480068044BF7
:1094E80003441B68DB6C029309BD00007835071044
:1094F8000800000009B504480068044B03441B68D1
:109508005B6D029309BD0000783507100800000064
:1095180009B504480068044B03441B689B6D02931B
:1095280009BD0000783507100800000009B5044897
:109538000068044B03441B68DB6D029309BD0000FF
:10954800783507100800000009B504480068044B86
:1095580003441B68D3F88830029309BD7835071097
:109568000800000009B504480068044B03441B6860
:10957800D3F89430029309BD78350710080000002D
:1095880009B504480068044B03441B681B68029330
:1095980009BD0000783507102800000009B5044807
:1095A8000068044B03441B685B68029309BD000014
:1095B800783507102800000009B504480068044BF6
:1095C80003441B689B68029309BD000078350710A7
:1095D8002800000009B504480068044B03441B68D0
:1095E800DB68029309BD00007835071028000000E9
:1095F80009B504480068044B03441B681B690293BF
:1096080009BD0000783507102800000009B5044896
:109618000068044B03441B685B69029309BD0000A2
:10962800783507102800000009B504480068044B85
:1096380003441B689B69029309BD00007835071035
:109648002800000009B504480068044B03441B685F
:10965800DB69029309BD0000783507102800000077
:1096680009B504480068044B03441B681B6A02934D
:1096780009BD0000783507102800000009B5044826
:109688000068044B03441B689B6A029309BD0000F1
:10969800783507102800000009B504480068044B15
:1096A80003441B68DB6A029309BD00007835071084
:1096B8002800000009B504480068044B03441B68EF
:1096C8001B6B029309BD00007835071028000000C5
:1096D80009B504480068044B03441B685B6B02939C
:1096E80009BD0000783507102800000009B50448B6
:1096F8000068044B03441B681B6C029309BD0000FF
:10970800783507102800000009B504480068044BA4
:1097180003441B685B6C029309BD00007835071091
:109728002800000009B504480068044B03441B687E
:109738005B6D029309BD0000783507102800000012
:1097480009B504480068044B03441B689B6D0293E9
:1097580009BD0000783507102800000009B5044845
:109768000068044B03441B685B68029309BD000052
:10977800783507102C00000009B504480068044B30
:1097880003441B689B68029309BD000078350710E5
:109798002C00000009B504480068044B03441B680A
:1097A800DB68029309BD0000783507102C00000023
:1097B80009B504480068044B03441B685B690293BD
:1097C80009BD0000783507102C00000009B50448D1
:1097D8000068044B03441B681B6A029309BD000020
:1097E800783507102C00000009B504480068044BC0
:1097F80003441B681B6B029309BD000078350710F2
:109808002C00000009B504480068044B03441B6899
:10981800DB6B029309BD0000783507102C000000AF
:1098280009B504480068044B03441B681B6802938D
:1098380009BD0000783507100400000009B5044888
:109848000068044B03441B685B68029309BD000071
:10985800783507100400000009B504480068044B77
:1098680003441B689B68029309BD00007835071004
:109878000400000009B504480068044B03441B6851
:10988800DB69029309BD0000783507100400000069
:1098980009B504480068044B03441B685B6A0293DB
:1098A80009BD0000783507100400000009B5044818
:1098B8000068044B03441B68DB6A029309BD00007F
:1098C800783507100400000009B504480068044B07
:1098D80003441B681B6B029309BD00007835071011
:1098E8000400000009B504480068044B03441B68E1
:1098F800DB6B029309BD00007835071004000000F7
:1099080009B504480068044B03441B681B6C0293A8
:1099180009BD0000783507100400000009B50448A7
:109928000068044B03441B685B6C029309BD00008C
:10993800783507100400000009B504480068044B96
:1099480003441B68DB6C029309BD000078350710DF
:109958000400000009B504480068044B03441B6870
:109968009B6D029309BD00007835071004000000C4
:1099780009B504480068044B03441B68DB6D029377
:1099880009BD000078350710040000000022406877
:109998001146FFF765BE002240681146FFF798BEE2
:1099A80000224068FFF786BE0022406881F001016E
:1099B800FFF748BE002340681A461946FFF734BE31
:1099C800002340681A461946FFF720BE0022406867
:1099D8001146FFF70DBE002240681146FFF7ECBDA7
:1099E800002202214068FFF7F5BD002340681A46AF
:1099F800FFF7D4BD0322024B5A60024A1A6070472F
:109A08007CAE0710F0F83F020B6803604B684360B8
:109A180013B15A6801325A60704738B50468054670
:109A28007CB16368013B63605BB9236820469B682F
:109A38009847A368013BA3601BB923682046DB68ED
:109A48009847284638BD00000022024BC3E900228F
:109A58009A60704784AE071010B504460846217016
:109A6800FFF730FC00232046636010BD10B52024AA
:109A780088B022460021684602F0D3FD00216846DE
:109A8800ADF80040FFF726FA019808B010BD70B590
:109A98000446D0E9005305EB0316AE4204D028462D
:109AA80000F05CF81035F8E72068FFF7C7FE20469D
:109AB80070BD8842F8B504460D46164614D9904242
:109AC80013D2A2F11006751AA1F110072C44B7425F
:109AD80018D01CB13146204600F0BDF8304600F0E1
:109AE8003DF8103E103CF2E70CD0B5420AD01CB14C
:109AF8002946204600F0AFF8284600F02FF8103528
:109B08001034F2E7F8BD70B50E1E054611DD3001C0
:109B1800FFF786FE044658B1D5E9001201EB0212A0
:109B2800FFF7C7FF2868FFF789FE01202C60AE60A9
:109B380070BD0024F6E7000002220020044B1A60E2
:109B4800044B054AC3E900009A60FFF7A9BC00BFAF
:109B58009CAE071090AE07100000FFFF10B504463A
:109B68000068FFF76BFE204610BD10B5044600687C
:109B780008B1FFF763FE0023C4E90133236010BD79
:109B880038B504460D4600680131FFF765FE10B18F
:109B9800C4E90005012038BD10B50368044623B1A7
:109BA80043688B4201D3012010BD2046FFF7E8FF30
:109BB8000028F9D0A368002BF5D122681370F2E7CA
:109BC80037B50D46114601920446FFF7E5FF019AA5
:109BD80028B92046FFF7C9FF204603B030BD294603
:109BE800A260206802F0F6FC00212268A368D15424
:109BF800F2E7002313B50446C0E90033836003731A
:109C080041B108460191FCF705F901990246204641
:109C1800FFF7D6FF204602B010BD38B505460068EC
:109C28000C4670B16A688B689A4208D3096831B1EA
:109C380002F083FDA368AB600023A36038BDFFF783
:109C4800FDFD23682B6063686B60A368AB6000232D
:109C5800C4E90033F1E7002310B50446C0E9003336
:109C680083600373FFF7D9FF204610BD884210B503
:109C7800044605D00B682BB18A681946FFF7A0FF88
:109C8800204610BDFFF771FFFAE7002310B5044620
:109C9800C0E9003383600373FFF7E8FF204610BD77
:109CA80008B582683AB921B10878B0FA80F040095D
:109CB80000E0012008BD006809B90078F5E7FCF765
:109CC8009FF8F2E710B58368934206D90468A01894
:109CD80002F01CFD08B1001B10BD4FF0FF30FBE780
:109CE8000022FFF7EFBF0000F8B51D469A4288BF73
:109CF80013460F46144688BF2C460B4988BF1D469D
:109D08000646FFF776FFBB68A3420AD33968AB4221
:109D180094BFC4EB0302C4EB050230462144FFF7AD
:109D28004FFF3046F8BD00BF9EF93F0210B504460C
:109D38008B68FFF7D9FF204610BD38B50468054683
:109D48003CB1013C14F8010F18B103F02BFC207052
:109D5800F8E7284638BD2DE9F0410668054606B300
:109D68008468F4B1B046474618F8010B02F02AFCA3
:109D78000028F8D1013C3444207802F023FC18B1C3
:109D8800A74201D8013CF7E7621CD21BBE42AA6079
:109D980003D23946304602F01DFC00212A68AB6820
:109DA800D1542846BDE8F08110B543680446013B0C
:109DB800436063B903689B689847A368013BA36045
:109DC8002BB923682046BDE81040DB68184710BD52
:109DD80013B56C460B460246D0E9000184E803003F
:109DE80093E8030082E8030094E8030083E8030093
:109DF80002B010BD002302480360FFF721B900BF7D
:109E0800A0AE071010B5044680680368DB68984761
:109E1800E3681844E06010BDF8B506460D46002416
:109E28008F18BD420CD0336830469B6815F8011B6B
:109E38009847031E01DB1C44F3E7002C08BF1C46AF
:109E48002046F8BD704710B504461021FCF725F8E8
:109E5800204610BD13B50446084659B10191FBF7D9
:109E6800D9FF0246204623680199DB6802B0BDE8A5
:109E78001040184702B010BD03689B6818470023BC
:109E8800012A98BF0A2230B58BB08DF8243009AC6E
:109E98000D46B1FBF2F101FB125303F0FF03092B4E
:109EA80094BF30333733DBB2AA4204F8013DEFD90F
:109EB8002146FFF7CFFF0BB030BD10B50446FEF7C3
:109EC80099FFE060236820465B699847002808DA14
:109ED800FEF790FFE368C01AA3689842F2D34FF0E8
:109EE800FF3010BD2DE9F04107460C460D468E188F
:109EF800B542A5EB040807D03846FFF7DEFF031E7E
:109F080002DB05F8013BF3E74046BDE8F081704706
:109F1800084611B10B685B6818477047704770476F
:109F2800704738B504460D4600682E2102F0FBFB49
:109F38002368C31A2B6023B1037803B10130236867
:109F48002060184638BD10B504460421FBF7A5FF6C
:109F5800204610BD10B504460421FBF79EFF20469D
:109F680010BDFFF789B808B5FBF74AFFB0FA80F0D3
:109F7800400908BD704710B50C4601F073FC8442D7
:109F880005D101F06FFCBDE8104001F05DBC02F0A6
:109F9800E5F9844205D102F0E1F9BDE8104001F08D
:109FA800B6BE2CB123682046BDE810405B68184750
:109FB80010BD13B5044608460191FBF72BFF024676
:109FC8002046019902B0BDE8104001F037BE13B534
:109FD800044608460191FBF71DFF02462046236808
:109FE8000199DB6802B0BDE81040184707B503685F
:109FF8008DF807100122DB680DF10701984703B0BF
:10A008005DF804FB2DE9F74F4FF0140AD0E90084FE
:10A01800174645460AFB04F40093174BA4105C430B
:10A02800002C21DD66100AFB06F005EB0009B9F8E3
:10A0380004B03A465F4528BF5A462858019102F0B5
:10A04800A2FB00284FF0010301990BD15F4503D112
:10A05800009A13703446E3E7FCD9A61B09F11405EE
:10A06800013EF7E7F9DBF5E7A5EB08050248AD1077
:10A07800684303B0BDE8F08FCDCCCCCC7FB5036985
:10A08800057E019103B3F9B1002600F10C04039693
:10A0980003A901A8FFF745FF0146A8B10DF10B037D
:10A0A8002046039A8DF80B60FFF7ACFF9DF80B3044
:10A0B80053B12368142404FB0034B4F9063008347F
:10A0C800002BA8BFDDB2E3E7284604B070BD0EB48C
:10A0D800F0B58CB000AF07F1440555F8042B0446E1
:10A0E8002B46202107F110007A60FD60FFF7D0FBB6
:10A0F8001F287A681AD900F1080323F007036E466F
:10A10800ADEB030D411C2B466846FD60FFF7C0FB15
:10A11800021E04DD236869462046DB689847B54679
:10A128003037BD46BDE8F04003B070470028F7D08F
:10A1380023680246DB68204607F110019847EFE7DD
:10A1480010B5084CD4E88F3FDB0709D42046FFF749
:10A1580001FC28B12046FFF70BFC034802F018FA6F
:10A16800024810BDA8AE071095A43F028C35071011
:10A1780010B5084CD4E88F3FDB0709D42046FFF719
:10A18800E9FB28B12046FFF7F3FB034802F000FA89
:10A19800024810BDACAE0710EDA43F029035071081
:10A1A80038B500250446C0E90055C0E90455856066
:10A1B800856140F8245FFEF743FFFFF7C1FFE061C8
:10A1C800FFF7D6FF25732062204638BD10B50A4C2C
:10A1D800D4E88F3FDB070CD42046FFF7BBFB40B128
:10A1E8000648FFF7DDFF2046FFF7C2FB044802F0F0
:10A1F800CFF9024810BD00BFA4AE0710B4AE0710D7
:10A20800B9AC3F020023024A02490348FFF71EB9CE
:10A21800A1AA3F022DAA3F02ADA93F0200231A4678
:10A2280019461846FFF712B937B504468D686846CF
:10A23800FFF7EAFB6A462946204601F01FFC01A801
:10A24800FFF7EBFB204603B030BD37B50446CD68B9
:10A258006846FFF7D9FB6A462946204601F0EAFB23
:10A2680001A8FFF7DAFB204603B030BD37B5044636
:10A278000D696846FFF7C8FB6A462946204601F083
:10A2880082FB01A8FFF7C9FB204603B030BD0000E0
:10A2980070B58AB00D46014604A8FFF7C5FF144EF5
:10A2A80004A801F003FCE8B1684604A9FFF7CDFF54
:10A2B80031460298FFF757FE044610B12C1E18BF0E
:10A2C800012401A8FFF7A9FB002CE9D0684604A9DE
:10A2D800FFF7CCFF684601F08CFB286001A8FFF768
:10A2E8009CFBDDE705A8FFF798FB0AB070BD00BF2F
:10A2F80044F93F0237B50C46134920461546FBF78B
:10A308007FFD50B901F0AEFA4FF4165101F098FAFA
:10A3180003B0BDE8304001F0A5BA20460B49FBF771
:10A328006FFD78B94FF4165301A928460193FFF73A
:10A33800AFFF02F013F8019901F0E6FC02F00EF805
:10A3480003B030BD0020FBE749F93F0250F93F0256
:10A3580070B51426D0E90053044606FB0356AE42F6
:10A3680005D005F10800FFF7F3FF1435F7E720687B
:10A37800FFF764FA204670BD10B504460C30FFF7AD
:10A38800E7FF2046FFF783FB204610BD10B50446C3
:10A39800034B40F8043BFFF7EFFF204610BD00BF1A
:10A3A8007CF83F0210B50446FFF7F0FF2046242151
:10A3B800FBF773FD204610BD10B50446024B036041
:10A3C800FFF7E4FF204610BDD4F93F0210B504465C
:10A3D800FFF7F2FF20462421FBF75FFD204610BD62
:10A3E8000A6810B502604A6842600022C0E9022289
:10A3F80002618C688A608460CC68CA60C4600C6939
:10A408000A61046110BD0022C0E90022826010B513
:10A418000C680A6004604C684A6044608C688A6012
:10A42800846010BD10B5044603681868FEF732FE54
:10A43800204610BD2DE9F04F87B003931C4B804692
:10A448005B688946C3F3080316466BB9FFF7BEFE7F
:10A45800044600F12403406A0593FFF782FD237B3D
:10A468002BB105A8FFF7DEFF07B0BDE8F08F012389
:10A478005FFA89F92373D4E9005305EB830AAA45E7
:10A4880012D055F8047B3146381DFFF7F7FD81459A
:10A49800F5D3039A3B680092D3F808B04A4633468E
:10A4A80041463846D847EAE700232373D9E700BF77
:10A4B80000ED00E02DE9F74F9B461A4B80465B689C
:10A4C8008946C3F3080316466BB9FFF77FFE0446B7
:10A4D80000F12403406A0193FFF743FD237B2BB16E
:10A4E80001A8FFF79FFF03B0BDE8F08F0123F6B284
:10A4F8002373D4E9005305EB830A55450ED055F86C
:10A50800047B5946381DFFF7B9FD8642F5D33B68F1
:10A518004A4641463846DB689847EEE700232373EE
:10A52800DEE700BF00ED00E02DE9F341164B0546DC
:10A538005B680F46C3F308031BBBFFF747FE0446DF
:10A5480000F12403406A0193FFF70BFDD4E900638F
:10A55800462406EB8308B04509D101A8FFF762FF3E
:10A56800A542B4BF0020012002B0BDE8F08156F832
:10A57800040B39460430FFF781FD8442A8BF044626
:10A58800E9E70020F0E700BF00ED00E0F8B5D0E90A
:10A5980001539D4204460E460DDB6F1C002F0068D8
:10A5A80004DDB900FFF758F918B9F8BDFFF746F907
:10A5B80000202060A7602768626807EB8501920089
:10A5C800A2EB8502081D02F012F847F825606368BF
:10A5D800012001336360E8E737B5044600F124033E
:10A5E800406A01930D46FFF7BCFCD4E9003203EB47
:10A5F8008202934219460AD009680433A942F8D165
:10A6080001A8FFF70FFF0025284603B030BD2946F3
:10A618002046FFF7BBFF05460028F1D06368012BF1
:10A6280001D1FFF7EFFD01A8FFF7FCFEECE70B46B1
:10A6380070B50446D0E9000200EB820282420FD0D6
:10A6480001461D6851F8046BAE4207D1521A01F059
:10A65800CEFF01206368013B636070BD0846EDE7EB
:10A668000020FAE71FB5044600F12403406A01916F
:10A678000393FFF776FC204601A9FFF7D8FF18B12E
:10A6880063680BB9FFF7CAFD03A8FFF7CBFE04B058
:10A6980010BD182370B50446D0E9045603FB0656CE
:10A6A800AE4215D0204605F11001FFF7C0FF6368E0
:10A6B8000BB9FFF7B3FDE06929690368DB689847C0
:10A6C800696919B1206A0368DB6898471835E7E7B4
:10A6D8001826D4E9045306FB0356AE4204D0284694
:10A6E800FFF73CFA1835F8E70023636170BD73B5CE
:10A6F8000446FFF793FD04F12403606A0193FFF712
:10A7080030FC2046FFF7C5FF01A8FFF78BFE606A03
:10A7180008B1FEF7A3FCD4E90453182606FB035638
:10A72800AE4204D02846FFF719FA1835F8E7206931
:10A73800FFF784F82068FFF781F8204602B070BD63
:10A748000148FFF7D4BF00BFB4AE07108842F8B580
:10A7580004460D46164615D9904214D2A2F11406A5
:10A76800751AA1F114072C44B7421AD01CB131460E
:10A778002046FFF735FE06F10800FFF7E9FD143E15
:10A78800143CF1E70DD0B5420BD01CB12946204648
:10A79800FFF726FE05F10800FFF7DAFD143514343B
:10A7A800F1E7F8BD2DE9F04F90460023462295B019
:10A7B8000391D8F8041004469942C0E90033C0E96F
:10A7C8000233C0E90433CDE9083302760A9323DC67
:10A7D800D8E90057142303FB0757AF423BD029465B
:10A7E8000BA8FFF738FA0BA90FA8099EFFF733FA51
:10A7F800DDE9091399421BDA089B099A03EB06164F
:10A80800314603EB021206F11000FFF752F9EEB9D8
:10A81800099B0133099311E008A8FFF774F9002890
:10A82800D6D108A8FFF733F9204615B0BDE8F08F58
:10A83800013108A8FFF767F90028DDD10FA8FFF755
:10A848008DF90BA8FFF78AF91435C6E730460FA92A
:10A85800FFF701FADCE700264FF01409CDE90B6693
:10A868000D96DDE908239E427CDA3301D35806931E
:10A878000BB90136F5E70023079309FB06F30BAD87
:10A88800029307A906A8FFF74CFB82460028F0D0E0
:10A898004FF0000301468DF817302846079A0DF14E
:10A8A8001703FFF7AFFB9DF817700190002F4AD1EF
:10A8B800BDF81C30CDE91177ADF840304FF6FF7385
:10A8C800CDF83CA0ADF842301397D5E90132934258
:10A8D80017DB03F1010ABAF1000F30DD09FB0AF0BA
:10A8E800FEF79EFF834660B3D5E9001209FB02120A
:10A8F800FFF72CFF2868FEF7A1FFC5F800B0C5F8E0
:10A9080008A02B68019A09FB023A6A68514609FBBC
:10A9180002320AF11400FFF719FFBAF1000F03D051
:10A9280050460FA9FFF75CFD6B6801336B6011A8F7
:10A93800FFF70EFD3FB10BA8FFF70AFD71E7BB4615
:10A94800D8E70127F3E7019B2D6809FB0355069B10
:10A958001B782BB9D8F80030029A13441B7CEB8083
:10A9680008358EE72168226062686360A3680992EF
:10A978000A9A0A93E368A2600B9A0B932369E26030
:10A988000C9A0C93636922610D9A0D93039B0891AD
:10A9980062612376CFE70000F0B5044626461746E5
:10A9A80087B00D4668461946FDF742FC0B4B6946D1
:10A9B80046F8043B03A8FDF73BFC394603AA30469A
:10A9C800FFF7F0FE03A8FDF7C3F86846FDF7C0F8E7
:10A9D8002046034B2562236007B0F0BD7CF83F0298
:10A9E800BCF93F02F0B50F4685B038461C491646FB
:10A9F8001D460A9CFBF704FAC0B9A4B1294601A870
:10AA0800FFF701FD2420174901F08EFD054630B1FE
:10AA180001AB32462146FFF7BFFF134B2B6001A85D
:10AA2800FDF796F82C46204605B0F0BD38460F498C
:10AA3800FBF7E6F990B9002CF5D0294601A8FFF7F5
:10AA4800E2FC2420074901F06FFD05460028E6D006
:10AA58003246214601ABFFF79FFFE0E70024E2E71B
:10AA680058F93F02B4FB3F02D4F93F025CF93F02B8
:10AA7800014B024A1A607047B0AE07106DF93F02E9
:10AA88002DE9F047089DD0F8209004460E46174659
:10AA9800984600F0E7FE81454DD02B79190704D57B
:10AAA80020466A695449FFF712FBB8F1000F0DD030
:10AAB8005B212046FFF79AFA41462046FFF787FABE
:10AAC800236802222046DB684C4998472B79DA072D
