:040000000DEF00F010
:040008000BEF20F0EA
:06001800FF00E9EF1AF001
:10160000000057EF0BF0B7EC1FF00009D8A40BEF68
:101610000BF00DEF0BF016EF0BF00501BC51D8B439
:1016200014EF0BF016EF0BF047EF0EF00501BC6B5B
:10163000010EBE6F98EC20F006C578F507C579F568
:1016400008C57AF509C57BF5020E0501BF6F47EFA6
:101650000EF0BB51D8A42FEF0BF031EF0BF039EFA8
:101660000BF0BD51D8B437EF0BF039EF0BF03DEF75
:101670000BF00501BF6B47EF0EF078C50AF579C591
:101680000BF57AC50CF57BC50DF516EC1AF00D506F
:101690000C100BE1B80E0A5C0B0E0B58D8A053EFE0
:1016A0000BF055EF0BF047EF0EF039EF0BF00501A3
:1016B000BF51276E286A2850000AD8B462EF0BF099
:1016C00039EF0BF02750000AD8B403EF0BF0010AF2
:1016D000D8B424EF0BF0030AD8B429EF0BF039EF9C
:1016E0000BF0BB51D8B477EF0BF079EF0BF069EF4B
:1016F0000EF0BB6BB9EC20F006C5A4F507C5A5F547
:101700000501A651A45D276EA751A559286EE80EC4
:101710002724066E030E2820076E030E096EE80EBE
:10172000086ECEEC1BF006C5CAF507C5CBF547EC35
:1017300020F010C5F4F511C5F5F512C5F6F513C581
:10174000F7F58FEC20F006C5E3F507C5E4F508C50D
:10175000E5F509C5E6F5850E0501CA5D030ECB5911
:10176000D8A0B5EF0BF0B7EF0BF0D1EF0BF030ECEA
:1017700020F00009D8B4BFEF0BF0C1EF0BF0D1EFB0
:101780000BF00BEC1FF006C5A6F507C5A7F5E1ECBD
:101790001DF006C56CF607C56DF608C56EF609C5E1
:1017A0006FF605016851F45D746F6951F559756FF5
:1017B0006A51F659766F6B51F759776F6451E35D53
:1017C000706F6551E459716F6651E559726F6751D9
:1017D000E659736F06016C510501F45D6C6F0601EB
:1017E0006D510501F5596D6F06016E510501F659F0
:1017F0006E6F06016F510501F7596F6FA6C50BF5A6
:10180000A7C50CF5A4C50DF5A5C50EF576EC17F02A
:101810000BC59EF50CC59FF50501A651A45D276E6D
:10182000A751A559286EE80E2724066E030E28201E
:10183000076E030E096EE80E086ECEEC1BF006C5AF
:101840009CF507C59DF5F4C568F5F5C569F5F6C5C0
:101850006AF5F7C56BF5E3C564F5E4C565F5E5C55F
:1018600066F5E6C567F5F4C56CF6F5C56DF6F6C523
:101870006EF6F7C56FF60501A36B000EA26F58EC6C
:101880001FF0010E0501BD6F69EF0EF09CC5C6F596
:101890009DC5C7F5C86BC96B030EC603F3C427F516
:1018A000F4C428F5C703F3502826120E2724EC6F42
:1018B000000E2820ED6FAA0EE76F550EE86F810E1F
:1018C000E96FED51EA6FECC5EBF5DEEC20F0276E29
:1018D000050E27606EEF0CF070EF0CF072EF0CF05D
:1018E00069EF0EF0E1EC20F006C5A0F507C5A1F503
:1018F000A0C506F5A1C507F5E9C508F58AEC1CF0F9
:1019000006C5A0F507C5A1F5A0C506F5A1C507F553
:10191000EAC508F58AEC1CF006C5A0F507C5A1F5D7
:10192000A0C506F5A1C507F5EBC508F58AEC1CF0C6
:1019300006C5A0F507C5A1F5E70E076E050E086EF2
:10194000050E096E32EC1EF0020E0501BD6F69EF47
:101950000EF0F86BCC0EF825D96EDA6A050EDA2295
:1019600077C5DFF4F82BCC0EF825D96EDA6A050EB0
:10197000DA2276C5DFF4F82BCC0EF825D96EDA6AB8
:10198000050EDA2275C5DFF4F82BCC0EF825D96EDA
:10199000DA6A050EDA2274C5DFF4F82BCC0EF825CE
:1019A000D96EDA6A050EDA2273C5DFF4F82BCC0E95
:1019B000F825D96EDA6A050EDA2272C5DFF4F82B43
:1019C000CC0EF825D96EDA6A050EDA2271C5DFF47D
:1019D000F82BCC0EF825D96EDA6A050EDA2270C51E
:1019E000DFF4F82BCC0EF825D96EDA6A050EDA2270
:1019F0006FC5DFF4F82BCC0EF825D96EDA6A050E28
:101A0000DA226EC5DFF4F82BCC0EF825D96EDA6A2F
:101A1000050EDA226DC5DFF4F82BCC0EF825D96E51
:101A2000DA6A050EDA226CC5DFF4F82BCC0EF82545
:101A3000D96EDA6A050EDA229F51DF6EF82BCC0ED2
:101A4000F825D96EDA6A050EDA229EC5DFF4F82B86
:101A5000CC0EF825D96EDA6A050EDA229C51276E73
:101A60009D51286E296A2A6A190E3CEF0DF0D89014
:101A70002A32293228322732E82E37EF0DF027504C
:101A8000DF6EF82BCC0EF825D96EDA6A050EDA2255
:101A90009C51276E9D51286E296A2A6A110E56EFB5
:101AA0000DF0D8902A32293228322732E82E51EF11
:101AB0000DF02750DF6EF82BCC0EF825D96EDA6AC0
:101AC000050EDA229D51DF6EF82BCC0EF825D96E6B
:101AD000DA6A050EDA229CC5DFF4F82BDEEC20F082
:101AE000276E120E276077EF0DF079EF0DF07BEF88
:101AF0000DF069EF0EF00501F26B110EF26583EF48
:101B00000DF085EF0DF087EF0DF09DEF0DF0A0C506
:101B100006F5A1C507F5CC0EF225D96EDA6A050ED9
:101B2000DA22DF50086E8AEC1CF006C5A0F507C566
:101B3000A1F50501F22B7DEF0DF0CC0E076E050E21
:101B4000086E120E096E32EC1EF005019C519D11BB
:101B5000D8B4ADEF0DF0AFEF0DF0B3EF0DF0030E15
:101B6000BD6F69EF0EF0040EBD6F69EF0EF0A4516A
:101B7000A61907E1A551A719D8A4C1EF0DF0C3EF2D
:101B80000DF0C5EF0DF0B3EF0DF0A6C51FF5A7C51D
:101B900020F5EE0E216E050E226EB6EC1CF0A2C5ED
:101BA00006F5A3C507F5F0C508F5F1C509F5E00E82
:101BB0000A6E050E0B6E2BEC18F0DEEC20F0276E93
:101BC000030E2760E6EF0DF0E8EF0DF0EAEF0DF001
:101BD00069EF0EF00501F36B020EF365F2EF0DF005
:101BE000F4EF0DF0F6EF0DF00CEF0EF0A0C506F5DA
:101BF000A1C507F5E00EF325D96EDA6A050EDA22E3
:101C0000DF50086E8AEC1CF006C5A0F507C5A1F5EB
:101C10000501F32BECEF0DF0E00E076E050E086EDC
:101C2000030E096E32EC1EF0010E0501A625066EAC
:101C3000000EA721076E030E096EE80E086ECEECAB
:101C40001BF006C5A6F507C5A7F50501A24BA32BFA
:101C500069EF0EF0A151DE6FA0C5DFF5DEEC20F0DC
:101C6000276E020E276037EF0EF039EF0EF03BEFD4
:101C70000EF069EF0EF0DE0E076E050E086E020E16
:101C8000096E32EC1EF00501BD6B69EF0EF0050127
:101C9000BD51276E286A2850000AD8B452EF0EF0C2
:101CA00043EF0EF02750000AD8B471EF0BF0010A91
:101CB000D8B446EF0CF0030AD8B4A9EF0CF0010A2F
:101CC000D8B4B7EF0DF0070AD8B42AEF0EF043EFFF
:101CD0000EF0120098EC20F020EE12F00C50D926F5
:101CE0000D50DA2206C5DEF407C5DEF408C5DEF4C1
:101CF00009C5DEF42FEF10F0AA0E0E18D8A483EF5A
:101D00000EF085EF0EF060EF10F020EE16F00C50A4
:101D1000D9260D50DA22DF6A20EE17F00C50D926B2
:101D20000D50DA22DF6A0CC5D9F40DC5DAF4010EC4
:101D3000DF6E60EF10F0550E0E18D8A4A2EF0EF073
:101D4000A4EF0EF0ACEF0EF00CC5D9F40DC5DAF42B
:101D5000020EDF6E60EF10F0AA0E0E18D8A4B3EFDB
:101D60000EF0B5EF0EF0BDEF0EF00CC5D9F40DC5B9
:101D7000DAF4010EDF6E60EF10F00CC5D9F40DC57A
:101D8000DAF4DF6A60EF10F020EE01F00C50D92693
:101D90000D50DA220EC5DFF4E1EC20F020EE0EF05B
:101DA0000C50D9260D50DA2206C5DEF407C5DDF445
:101DB00020EE0EF00C50D9260D50DA22DEC406F5C6
:101DC000DDC407F50EC508F58AEC1CF020EE0EF018
:101DD0000C50D9260D50DA2206C5DEF407C5DDF415
:101DE0000CC5D9F40DC5DAF4030EDF6E60EF10F008
:101DF0000E50106E0F6A20EE02F00C50D9260D50D6
:101E0000DA220FC5DEF410C5DDF420EE0EF00C5022
:101E1000D9260D50DA22DEC406F5DDC407F50EC55D
:101E200008F58AEC1CF020EE0EF00C50D9260D506F
:101E3000DA2206C5DEF407C5DDF40CC5D9F40DC5FC
:101E4000DAF4040EDF6E60EF10F020EE02F00C50BA
:101E5000D9260D50DA220E50DE12000EDD1220EED1
:101E60000EF00C50D9260D50DA22DEC406F5DDC482
:101E700007F50EC508F58AEC1CF020EE0EF00C50AC
:101E8000D9260D50DA2206C5DEF407C5DDF420EEB2
:101E900004F00C50D9260D50DA22DE6ADD6A20EEFD
:101EA00002F00C50D9260D50DA22010EDB5009E168
:101EB000090EDE5CD8A05FEF0FF061EF0FF071EF5D
:101EC0000FF020EE16F00C50D9260D50DA22010E3C
:101ED000DF6E0CC506F50DC507F531EC1CF060EFA3
:101EE00010F020EE02F00C50D9260D50DA22DE5010
:101EF000DE10D8B47EEF0FF080EF0FF084EF0FF01C
:101F0000050E136E86EF0FF0060E136E0CC5D9F496
:101F10000DC5DAF413C5DFF460EF10F020EE04F025
:101F20000C50D9260D50DA22DEC40FF5DDC410F5B1
:101F30000F500C24116E10500D20126E060E11243D
:101F4000D96E000E1220DA6E0EC5DFF420EE04F01A
:101F50000C50D9260D50DA22DE2A000EDD2220EEAA
:101F60000EF00C50D9260D50DA22DEC406F5DDC481
:101F700007F50EC508F58AEC1CF020EE0EF00C50AB
:101F8000D9260D50DA2206C5DEF407C5DDF420EEB1
:101F900002F00C50D9260D50DA2210EE04F00C504D
:101FA000E1260D50E222DE50E65CDE50E658D8A075
:101FB000DCEF0FF0DEEF0FF060EF10F00CC5D9F49E
:101FC0000DC5DAF4060EDF6E60EF10F00E50106EE5
:101FD0000F6A20EE10F00C50D9260D50DA220FC5F2
:101FE000DEF410C5DDF40CC5D9F40DC5DAF4070E26
:101FF000DF6E60EF10F020EE10F00C50D9260D507F
:10200000DA220E50DE12000EDD120CC5D9F40DC519
:10201000DAF4DF6A20EE0EF00C50D9260D50DA22E9
:1020200010EE10F00C50E1260D50E222DE50E618C2
:1020300007E1DE50E618D8A420EF10F022EF10F0F0
:1020400025EF10F0010E61EF10F020EE17F00C50AC
:10205000D9260D50DA22010EDF6E60EF10F00CC5AC
:10206000D9F40DC5DAF4DF500F6E106A1050000A73
:10207000D8B43DEF10F069EF0FF00F50000AD8B45C
:102080007CEF0EF0010AD8B49BEF0EF0030AD8B42F
:10209000C4EF0EF0010AD8B4F8EF0EF0070AD8B476
:1020A00025EF0FF0010AD8B48EEF0FF0030AD8B471
:1020B000E6EF0FF0010AD8B4FBEF0FF069EF0FF075
:1020C000000E1200F0A867EF10F06AEF10F0010E9A
:1020D0006BEF10F0000E0601986FF0689851D8B4BD
:1020E00074EF10F077EF10F0010E78EF10F0000EA3
:1020F0000501FF6FCCEC1EF08CEC1DF09C0E066E03
:10210000410E076EAFEC20F0A9EC20F099EC1FF027
:10211000D5EC20F089EC1FF0D6EC18F0CDEC19F0DE
:1021200079EC1FF0700E066E060E076E31EC1CF097
:1021300085EC20F006019851D8B4A1EF10F0A4EF7F
:1021400010F0010EA5EF10F0000E69EC1FF0060173
:102150009851D8A4AEEF10F0B0EF10F0B2EF10F03D
:10216000E1EC1EF0D68CD68E33EC1FF000017881A6
:102170000400EAEC20F007EC17F063EC1BF0E0EC55
:102180001CF01DEC13F001EC0BF0A4EC1AF0D6EFF0
:1021900011F0FF51D8B4CFEF10F0D1EF10F0E3EF12
:1021A00010F06DEC1DF00009D8A4D9EF10F0DBEFB2
:1021B00010F0E3EF10F0E4EC20F0C2EC20F00501A9
:1021C000FF6BB8EF10F00501C451D8B4EAEF10F07E
:1021D000ECEF10F0FBEF10F098EC20F006C590F556
:1021E00007C591F508C592F509C593F5020E0501DD
:1021F000C56FB8EF10F06DEC1DF00009D8A403EF27
:1022000011F005EF11F0B8EF10F094C50AF595C57F
:102210000BF596C50CF597C50DF516EC1AF00D509B
:102220000DE1900E0A5C5F0E0B58010E0C58D8A001
:102230001CEF11F01EEF11F0B8EF10F0C2EC20F01F
:10224000B8EF10F0B7EC1EF00009D8B42AEF11F087
:102250002CEF11F036EF11F018EC20F00009D8B493
:1022600034EF11F036EF11F040EF11F098EC20F060
:1022700006C590F507C591F508C592F509C593F512
:102280006DEC1DF00009D8B448EF11F04AEF11F0E1
:102290004EEF11F00501C36BB8EF10F00501FF51CF
:1022A000D8B455EF11F057EF11F06DEF11F0B7EC16
:1022B0001EF00009D8B45FEF11F061EF11F0B8EF34
:1022C00010F018EC20F00009D8A469EF11F06BEFC2
:1022D00011F0B8EF10F0DBEF10F0C351D8A473EF9A
:1022E00011F075EF11F08DEF11F090C50AF591C561
:1022F0000BF592C50CF593C50DF516EC1AF00D50C3
:102300000C100BE1200E0A5C4E0E0B58D8A08BEF80
:1023100011F08DEF11F0B8EF10F0B7EC1EF00009DE
:10232000D8B495EF11F097EF11F0B8EF10F018EC6A
:1023300020F00009D8A49FEF11F0A1EF11F0B8EF41
:1023400010F01EEF11F0A8EC1FF00009D8B4ABEFAD
:1023500011F0ADEF11F0B1EF11F033EC1FF0B8EF69
:1023600010F06DEC1DF00009D8A4B9EF11F0BBEF2F
:1023700011F0B8EF10F0D8EC20F00009D8A4C3EFAA
:1023800011F0C5EF11F0B8EF10F0B7EC1EF0000936
:10239000D8B4CDEF11F0CFEF11F0B8EF10F0C09638
:1023A00026EC1BF0C6EC1FF0B8EF10F00501C5518C
:1023B000F96FFA6BFA51000AD8B4E1EF11F0A3EF0C
:1023C00011F0F951000AD8B4A3EF11F0010AD8B402
:1023D000C9EF10F0030AD8B422EF11F0A3EF11F007
:1023E0000DEF00F0E6EF12F0CAEC20F01CEF13F056
:1023F0002CEC1DF01CEF13F020EE02F0C851D92692
:10240000C951DA22080EDE18DE10D8A40AEF12F045
:102410000CEF12F067EF12F020EE07F0C851D9264A
:10242000C951DA22DF50CA6F20EE06F0C851D92612
:10243000C951DA22DF50CB6FCA51CF6FCBC5D0F56F
:1024400020EE09F0C851D926C951DA22DF50CA6FEF
:1024500020EE08F0C851D926C951DA22DF50CB6FDF
:10246000CA51D16FCBC5D2F520EE0BF0C851D92699
:10247000C951DA22DF50CA6F20EE0AF0C851D926BE
:10248000C951DA22DF50CB6FCA51D36FCBC5D4F517
:1024900020EE0DF0C851D926C951DA22DF50CA6F9B
:1024A00020EE0CF0C851D926C951DA22DF50CB6F8B
:1024B000CA51D56FCBC5D6F5CF0EC66F050EC76F07
:1024C000C5EC1DF0030EF0EC1FF01CEF13F0020E34
:1024D000E2EC1FF01CEF13F020EE02F0C851D926F9
:1024E000C951DA22020EDE18DE10D8A47AEF12F0FB
:1024F0007CEF12F09BEF12F020EE07F0C851D926C6
:10250000C951DA22DF50CA6F20EE06F0C851D92631
:10251000C951DA22DF50CB6FCA51CD6FCBC5CEF592
:10252000CDC506F5CEC507F507EC1DF00B0EF0EC9A
:102530001FF01CEF13F0020EE2EC1FF01CEF13F083
:10254000A9EC1DF01CEF13F020EE02F0C851D926C3
:10255000C951DA22DE04DE10D8A4B1EF12F0B3EFD5
:1025600012F0C1EF12F020EE06F0C851D926C95181
:10257000DA22DF508CEC1EF0050EF0EC1FF01CEFA1
:1025800013F0020EE2EC1FF01CEF13F0FF001CEF43
:1025900013F0010EC36F1CEF13F06DEC1DF000097A
:1025A000D8B4D5EF12F0D8EF12F0010ED9EF12F037
:1025B000000ED4EC1FF01CEF13F003EC16F01CEF30
:1025C00013F0030EE2EC1FF01CEF13F0050120EEF8
:1025D00001F0C851D926C951DA22DF50010AD8B416
:1025E000F4EF11F0030AD8B4F8EF11F0010AD8B4EF
:1025F000FCEF11F0070AD8B4A0EF12F0010AD8B42A
:10260000A4EF12F0030AD8B4C6EF12F0010AD8B44E
:10261000C9EF12F00F0AD8B4CDEF12F0010AD8B406
:10262000DDEF12F0030AD8B41CEF13F0010AD8B49E
:102630006CEF12F0E1EF12F0120088C60AF589C6BD
:102640000BF58AC60CF58BC60DF516EC1AF00D507D
:102650000C1009E1420E0A5C080E0B58D8B033EF9B
:1026600013F035EF13F037EF13F0FFEF13F098ECA2
:1026700020F006C588F607C589F608C58AF609C59B
:102680008BF647EC20F010C5D0F511C5D1F512C579
:10269000D2F513C5D3F50501FB51D05DCA6FFC51CE
:1026A000D159CB6FFD51D259CC6FFE51D359CD6F5B
:1026B000D0C5FBF5D1C5FCF5D2C5FDF5D3C5FEF5FA
:1026C000AEC506F5AFC507F5030E096EE80E086E38
:1026D000CEEC1BF006C5D4F507C5D5F50501CD51E7
:1026E000CC1109E1400ECB5DD8A079EF13F07BEF60
:1026F00013F088EF13F03F0ECF6FCE69D4C506F507
:10270000D5C507F5010E086E5EEC1AF094EF13F0D4
:10271000CAC5CEF5CBC5CFF5D4C506F5D5C507F5E9
:10272000000E086E5EEC1AF0010E05018427000E03
:10273000852386238723ACC506F5ADC507F5CEC531
:1027400008F5CFC509F5030ED403F3C4C8F5F4C4E6
:10275000C9F5D503F350C9277D0EC8250A6E070EAB
:10276000C9210B6E2BEC18F0010E0501AE25066E8B
:10277000000EAF21076E030E096EE80E086ECEEC58
:102780001BF006C5AEF507C5AFF50501AC4BAD2B8B
:10279000D00EAC5D020EAD59D8A0D1EF13F0D3EF3F
:1027A00013F0F9EF13F0AD6B000EAC6F010EC16FBB
:1027B00080C57CF581C57DF582C57EF583C57FF535
:1027C000AAC5A8F5ABC5A9F5D0C580F5D1C581F5D9
:1027D000D2C582F5D3C583F5AEC5AAF5AFC5ABF5B5
:1027E000020EC061F6EF13F0F8EF13F0F9EF13F0FB
:1027F000C02BCEC5C6F5CFC5C7F5E7EC20F012005B
:10280000386A000E376E8FEC20F006C53DF507C51F
:102810003EF508C53FF509C540F53D503E103F1057
:102820004010D8A416EF14F018EF14F031EF14F0A4
:1028300029502A10D8B41FEF14F021EF14F027EF1D
:1028400014F029C5D9F42AC5DAF4DE6ADD6A000E6F
:10285000276E000E286E000E296E000E2A6EBCEF49
:1028600014F027C539F528C53AF539502B6E3A5082
:102870002C6E2D6A2E6A2B503D5C2C503E582D50EC
:102880003F582E504058D8B048EF14F04AEF14F09B
:102890004EEF14F03DC539F53EC53AF5B9EC20F0E0
:1028A00006C52FF507C530F5000E336E000E346EE9
:1028B000000E356E000E366E3C6A000E3B6E98EFD1
:1028C00014F03B502F5C2B6E3C5030582C6EE70EB2
:1028D0002B24066E030E2C20076E030E096EE80EE5
:1028E000086ECEEC1BF006C531F507C532F531C5D3
:1028F0001FF532C520F5410E216E050E226EB6EC95
:102900001CF043504410D8A488EF14F08AEF14F060
:102910008CEF14F0A3EF14F04350332644503422CC
:10292000000E3522000E3622374A382A3B4A3C2A0E
:1029300039503B5C3A503C58D8A0A1EF14F0A3EFBB
:1029400014F061EF14F029502A10D8B4AAEF14F053
:10295000ACEF14F0B4EF14F029C5D9F42AC5DAF4B9
:1029600037C5DEF438C5DDF433C527F534C528F5A1
:1029700035C529F536C52AF512002F6E376A000EC7
:10298000366E155009E1110E145CD8A0CAEF14F090
:10299000CCEF14F0CEEF14F06AEF15F0AA0E186E1B
:1029A000364A372A180E3624D96E050E3720DA6ECD
:1029B000550EDF6E364A372A180E3624D96E050EAC
:1029C0003720DA6E2FC5DFF4364A372A180E362440
:1029D000D96E050E3720DA6E1550DF6E364A372A6B
:1029E000180E3624D96E050E3720DA6E14C5DFF4C2
:1029F000364A372A336A000E326E11EF15F0325024
:102A00001224D96E33501320DA6E180E3624E16E7C
:102A1000050E3720E26EDFC4E7F4364A372A324A21
:102A2000332A1450325C15503358D8A01AEF15F0E1
:102A30001CEF15F0FFEF14F01A0E0C6E050E0D6E64
:102A4000030E14240E6E000E15200F6E5EEC1CF0AB
:102A50000CC530F50DC531F5180E3624D96E050EAE
:102A60003720DA6E3150DF6E364A372A180E362498
:102A7000D96E050E3720DA6E30C5DFF4364A372AB4
:102A8000DEEC20F0166E176A3650165C3750175879
:102A9000D8A04DEF15F04FEF15F06AEF15F0356A3D
:102AA000000E346E5FEF15F0180E3424D96E050E4B
:102AB0003520DA6EDF5018EC1EF0344A352A3650D5
:102AC000345C37503558D8A068EF15F06AEF15F030
:102AD00054EF15F012000501B851D8A472EF15F0AB
:102AE00074EF15F0BBEF15F0526A000E516E9AC5E7
:102AF00027F59BC528F5510E296E050E2A6E00ECB0
:102B000014F027C549F528C54AF529C54BF52AC54E
:102B10004CF505019A51515C9B515258D8A093EF46
:102B200015F095EF15F0BBEF15F006019051456ECD
:102B30009151466E476A486A4550495C46504A582A
:102B400047504B5848504C58D8A0A9EF15F0ABEF60
:102B500015F0BBEF15F0010E0501B86F98EC20F0F1
:102B600006C564F607C565F608C566F609C567F6C5
:102B7000010E0501B66F0501B751D8A4C2EF15F0DB
:102B8000C4EF15F000EF16F0546A000E536E98C5AE
:102B900027F599C528F5530E296E050E2A6E00EC0F
:102BA00014F027C54DF528C54EF529C54FF52AC5A2
:102BB00050F505019851535C99515458D8A0E3EF52
:102BC00015F0E5EF15F000EF16F006019451456E93
:102BD0009551466E476A486A45504D5C46504E587E
:102BE00047504F5848505058D8A0F9EF15F0FBEF18
:102BF00015F000EF16F0010E0501B76F010EB56F6D
:102C00007CEC19F01200476A000E466E010E386E19
:102C1000464A472A380E4624D96E050E4720DA6EFA
:102C2000020EDF6E464A472A380E4624D96E050E3C
:102C30004720DA6EDF6A464A472A380E4624D96EA4
:102C4000050E4720DA6EDF6A464A472A380E4624C8
:102C5000D96E050E4720DA6E080EDF6E464A472A07
:102C6000380E4624D96E050E4720DA6E420EDF6E0E
:102C7000464A472A380E4624D96E050E4720DA6E9A
:102C8000020EDF6E464A472A380E4624D96E050EDC
:102C90004720DA6ED00EDF6E464A472A380E4624A9
:102CA000D96E050E4720DA6E180EDF6E464A472AA7
:102CB000380E4624D96E050E4720DA6EDF6A464A82
:102CC000472A380E4624D96E050E4720DA6E010ECB
:102CD000DF6E464A472A380E4624D96E050E472035
:102CE000DA6E010EDF6E464A472A380E4624D96E48
:102CF000050E4720DA6E0B0EDF6E464A472A380E65
:102D00004624D96E050E4720DA6EB80EDF6E464AAD
:102D1000472A380E126E050E136E46C514F547C5C8
:102D200015F5890EBDEC14F0120020EE01F00650EE
:102D3000D9260750DA22DF500C6E0CC50DF50E6A4D
:102D40000F6A106A0FC510F50EC50FF50DC50EF50B
:102D50000D6A06C5D9F407C5DAF4DF50116E11C546
:102D600012F5136A146A156A13C515F512C514F520
:102D7000136A126A0D501210166E0E501310176E51
:102D80000F501410186E10501510196E20EE02F02E
:102D90000650D9260750DA22DF501A6E1A50161044
:102DA0001B6E17501C6E18501D6E19501E6E1BC5E1
:102DB0000CF51CC50DF51DC50EF51EC50FF50F0E46
:102DC000E7EF16F0D8900F320E320D320C32E82EAB
:102DD000E2EF16F0FF0E0C14106E030E0D14116EC0
:102DE00008C5D9F409C5DAF410C5DEF411C5DDF45F
:102DF000FF0E1B140C6E3F0E1C140D6E0AC5D9F489
:102E00000BC5DAF40CC5DEF40DC5DDF412000501C6
:102E1000BA51D8A40EEF17F010EF17F035EF17F0F6
:102E200060C50AF561C50BF562C50CF563C50DF506
:102E300016EC1AF00D500C100BE1F40E0A5C010EAA
:102E40000B58D8A026EF17F028EF17F075EF17F002
:102E500098EC20F006C560F507C561F508C562F578
:102E600009C563F5C07675EF17F060C50AF561C551
:102E70000BF562C50CF563C50DF516EC1AF00D5097
:102E80000C100B1009E1640E0A5CD8A04AEF17F091
:102E90004CEF17F075EF17F098EC20F006C560F5D1
:102EA00007C561F508C562F509C563F5C07605017A
:102EB000B951D8B45EEF17F060EF17F061EF17F07B
:102EC000B907B951D8A467EF17F069EF17F075EF9C
:102ED00017F0C096BA6B98EC20F006C560F507C5F0
:102EE00061F508C562F509C563F51200156A000EA3
:102EF000146E0BC516F50CC517F5C2EF17F016C505
:102F00000FF517C510F5D89010320F32D890103247
:102F10000F32D89010320F320FC511F510C512F5CF
:102F200016C50FF5070E0F16010E106E0F2A9BEF38
:102F300017F0D89010360F2E99EF17F01050136E2F
:102F4000000E1124D96E070E1220DA6EDF50131412
:102F50000009D8B4AEEF17F0B0EF17F0B2EF17F0EA
:102F6000144A152A010E1624066E000E1720076E4D
:102F7000030E096EE80E086ECEEC1BF006C516F5C2
:102F800007C517F50D50161807E10E501718D8A4ED
:102F9000CCEF17F0CEEF17F07FEF17F014C50BF55D
:102FA00015C50CF512001FC506F520C507F5086A02
:102FB000096AE80E0A6E030E0B6E000E0C6E000E10
:102FC0000D6E99EC1BF006C512F507C513F508C583
:102FD00014F509C515F5420E166E080E176E000E93
:102FE000186E000E196E2AEC19F012C521F513C5E2
:102FF00022F514C523F515C524F5245023100BE143
:10300000E90E215C030E2258D8A009EF18F00BEF4F
:1030100018F013EF18F0E80E216E030E226E000E6A
:10302000236E000E246E2150221023102410D8A4E9
:103030001CEF18F01EEF18F026EF18F0010E216EAD
:10304000000E226E000E236E000E246E21C51FF5A9
:1030500022C520F51200040E075CD8B032EF18F03C
:1030600034EF18F03AEF18F006C510F507C511F562
:103070003DEF18F0030E116E1068400E095CD8B0D9
:1030800044EF18F046EF18F04CEF18F008C512F5B1
:1030900009C513F54FEF18F03F0E136E126810506C
:1030A0000C6E11500D6E0E6A0F6A0E0ED8900C3613
:1030B0000D360E360F36E82E56EF18F012500C1063
:1030C000146E13500D10156E000E0E10166E000EBD
:1030D0000F10176E0AC5D9F40BC5DAF416C5DFF464
:1030E00020EE01F00A50D9260B50DA2215C5DFF484
:1030F00020EE02F00A50D9260B50DA2214C5DFF474
:103100001200ACA086EF18F088EF18F0A9EF18F0C5
:10311000B7A08DEF18F08FEF18F0A9EF18F0A1C24B
:1031200003F506018E518F11D8B499EF18F09BEF7B
:1031300018F0A9EF18F003C502F502D8A9EF18F0AE
:103140000500FA6E8E51FD6E8F51FE6EFF6AFA50C9
:103150001200ACA2AEEF18F0B0EF18F0D5EF18F0F7
:10316000B7A2B5EF18F0B7EF18F0D5EF18F0585038
:10317000D8B4BDEF18F0BFEF18F0CCEF18F0000E88
:103180005924D96EDA6A060EDA22DF500201A36FE3
:1031900059283F0B596E58065850D8A4D2EF18F052
:1031A000D4EF18F0D5EF18F0AC9212000501AF6B18
:1031B000000EAE6FAD6B000EAC6F000E846F000E94
:1031C000856F000E866F000E876FC16B47EC20F095
:1031D00010C5FBF511C5FCF512C5FDF513C5FEF5CF
:1031E00098EC20F006C588F607C589F608C58AF66A
:1031F00009C58BF6156A000E146E000E1424D96EE4
:10320000070E1520DA6EDF6A144A152A155009E1F7
:103210007D0E145CD8A00FEF19F011EF19F0FDEF3F
:1032200018F0FBC580F5FCC581F5FDC582F5FEC52E
:1032300083F50501AB6B000EAA6FFBC57CF5FCC5E1
:103240007DF5FDC57EF5FEC57FF5A96B000EA86F67
:10325000C06B1200000E1A6E000E1B6E000E1C6E6C
:10326000000E1D6E1650171018101910D8B43BEF31
:1032700019F03DEF19F073EF19F0010E1E6E47EFD4
:1032800019F0D89016361736183619361E2A19AE88
:103290004CEF19F04EEF19F041EF19F0D8901A36B3
:1032A0001B361C361D361650125C1750135818501A
:1032B000145819501558D8A060EF19F062EF19F0A2
:1032C0006BEF19F01650125E1750135A1850145A1B
:1032D0001950155A1A80D8901932183217321632EE
:1032E0001E2E4EEF19F01AC512F51BC513F51CC59D
:1032F00014F51DC515F51200010E0A6E0501B85131
:10330000D8A485EF19F087EF19F090EF19F0B751B5
:10331000D8A48DEF19F08FEF19F090EF19F00A6A29
:103320000A50D8A496EF19F099EF19F0010E9AEF10
:1033300019F0000E0B6EB351D8A4A1EF19F0A3EF52
:1033400019F0B3EF19F00BC5B4F5010EB36F0B50C4
:10335000D8B4ADEF19F0AFEF19F0CCEF19F01FECC6
:103360001FF0CCEF19F0B4510B18D8B4BAEF19F024
:10337000BCEF19F0CCEF19F00B50D8B4C2EF19F034
:10338000C4EF19F0C8EF19F01FEC1FF0CAEF19F0E5
:10339000E1EC1EF00BC5B4F512000501BF6BBD6B6F
:1033A000A76B000EA66FA56B000EA46FA36B000E9B
:1033B000A26FBB6B47EC20F010C568F511C569F52D
:1033C00012C56AF513C56BF58FEC20F006C564F5E0
:1033D00007C565F508C566F509C567F568C56CF6E6
:1033E00069C56DF66AC56EF66BC56FF6000E050110
:1033F000746F000E756F000E766F000E776F000E03
:10340000706F000E716F000E726F000E736F000E02
:103410006C6F000E6D6F000E6E6F000E6F6F9F6B06
:10342000000E9E6F9D6B000E9C6F120098EC20F0BA
:1034300006C516F507C517F508C518F509C519F528
:103440000A50165C0B5017580C5018580D5019584C
:10345000D8B02DEF1AF02FEF1AF051EF1AF00A1C26
:103460000E6E0B1C0F6E0C1C106E0D1C116E165088
:103470000E24126E17500F20136E18501020146E69
:1034800019501120156E010E12240A6E000E132021
:103490000B6E000E14200C6E000E15200D6E5DEFED
:1034A0001AF00A50165C0A6E0B5017580B6E0C502F
:1034B00018580C6E0D5019580D6E120006C509F5FE
:1034C00007C50AF5D8900A320932D8900A32093273
:1034D000D8900A32093209C50CF50AC50DF506C5A2
:1034E00009F5070E0916010E0A6E092A7AEF1AF07D
:1034F000D8900A36092E78EF1AF00A500B6E085051
:10350000D8B485EF1AF087EF1AF091EF1AF0000E99
:103510000C24D96E070E0D20DA6E0B50DF12A3EFCC
:103520001AF0000E0C24D96E070E0D20DA6E000E74
:103530000C24E16E070E0D20E26EE750096E0B5071
:10354000FF0A0914DF6E1200700E1A6E060E1B6E53
:1035500000EC1CF0DAEF1AF0700E0C6E060E0D6E19
:1035600055C50EF56AEC0EF00009D8B4BAEF1AF0A2
:10357000BCEF1AF0DAEF1AF0010E0501C46F98ECF7
:1035800020F006C590F507C591F508C592F509C567
:1035900093F518EC20F00009D8A4D1EF1AF0D3EF7E
:1035A0001AF0DAEF1AF0700E0501C86F060EC96F37
:1035B000F2EC11F0550E066E050E076E4DEC1DF087
:1035C0000009D8A4E6EF1AF0E8EF1AF0ACEF1AF011
:1035D00012007C0EF66E410EF76E000EF86E01EED4
:1035E00090F210EE08F00900F5C4EEF4E550E15059
:1035F000FAE101EE7DF312EEB8F3EE6AE550E15028
:10360000FCE1E250FAE101EE00F37D0EEE6AE8061D
:10361000FDE101EE00F2880EEE6AE806FDE101EE42
:1036200060F1660EEE6AE806FDE15A6A596A586A68
:10363000576A566A0401080E5D6F000E5E6F000E39
:103640005F6F000EF86E000162EF10F003011E9F25
:10365000AB96B6961A9F9E0E1B6F020E196F186BD3
:10366000B69EAB8E800E1A6F24EC20F0D69EF29E92
:103670000001789103000000000178813CEC20F00B
:103680000009D8B446EF1BF048EF1BF048EF1BF0E1
:10369000B4EC20F0B6AE4FEF1BF051EF1BF05BEF38
:1036A0001BF0210E066E040E076E000E086E000E53
:1036B000096E7BEC20F003011A9FAB9EB69ED68E5E
:1036C000FEEC1FF012000501B151D8A46AEF1BF007
:1036D0006CEF1BF06EEF1BF098EF1BF060C60AF565
:1036E00061C60BF562C60CF563C60DF516EC1AF053
:1036F0000D500C100BE1100E0A5C270E0B58D8A0D1
:1037000084EF1BF086EF1BF098EF1BF0DBEC20F052
:103710000501B16BB051D8A490EF1BF092EF1BF0F4
:1037200096EF1BF0020EB26F98EF1BF0010EB26F16
:103730001200000E0E6E000E0F6E000E106E000EC8
:10374000116E06A0A6EF1BF0A8EF1BF0B0EF1BF068
:103750000A500E260B500F220C5010220D50112231
:10376000D8900A360B360C360D36D890093208320E
:10377000073206320650071008100910D8A4C3EF0C
:103780001BF0C5EF1BF0A1EF1BF00EC506F50FC532
:1037900007F510C508F511C509F512000850091004
:1037A000D8B4D5EF1BF0D7EF1BF0FBEF1BF0010EE9
:1037B0000A6EDFEF1BF0D890083609360A2A09AEE8
:1037C000E4EF1BF0E6EF1BF0DBEF1BF00850065CAC
:1037D00009500758D8A0EFEF1BF0F1EF1BF0F5EF01
:1037E0001BF00850065E0950075AD890093208327B
:1037F0000A2EE6EF1BF006C506F507C507F5120011
:103800001AC5D9F41BC5DAF4DF50D8B40AEF1CF09E
:103810000CEF1CF030EF1CF020EE12F01A50D926FD
:103820001B50DA22DEC40AF5DEC40BF5DEC40CF54B
:10383000DEC40DF516EC1AF00D500C100BE1E80E7D
:103840000A5C030E0B58D8A028EF1CF02AEF1CF0DE
:1038500030EF1CF01AC506F51BC507F531EC1CF05E
:10386000120006C5D9F407C5DAF4DF6A20EE01F0CC
:103870000650D9260750DA22DF6A20EE02F0065001
:10388000D9260750DA22DE6ADD6A20EE04F00650FF
:10389000D9260750DA22DE6ADD6A20EE0EF00650E5
:1038A000D9260750DA22DE6ADD6A20EE10F00650D3
:1038B000D9260750DA22DE6ADD6A1200E1EC20F038
:1038C00006C510F507C511F578EF1CF010C506F513
:1038D00011C507F50CC5D9F40DC5DAF4DF50086E33
:1038E0008AEC1CF006C510F507C511F50C4A0D2A27
:1038F0000E06D8A00F060E2806E10F28D8A483EFE5
:103900001CF085EF1CF066EF1CF010C50CF511C51E
:103910000DF512000850061A0B6A06A092EF1CF073
:1039200094EF1CF0A1EF1CF0D89007300A6E06301F
:10393000096E010E0918066EA00E0A18076EA8EF90
:103940001CF0D8900730096E0630066E09C507F5E1
:103950000B2A070E0B64AFEF1CF0B1EF1CF08DEFDC
:103960001CF006C506F507C507F512001FC506F5CC
:1039700020C507F5030E096EE80E086ECEEC1BF0AD
:1039800006C525F507C526F5030E2502F3C423F564
:10399000F4C424F52602F35024267D0E2324066E5B
:1039A000070E2420076E21C508F522C509F5020E71
:1039B00021240A6E000E22200B6E95EC16F01200E8
:1039C0000501B851D8B4E7EF1CF0E9EF1CF006EFA1
:1039D0001DF064C60AF565C60BF566C60CF567C62C
:1039E0000DF516EC1AF00D500DE1C00E0A5C270E15
:1039F0000B58090E0C58D8A000EF1DF002EF1DF077
:103A000006EF1DF00501B86B7CEC19F012000650B2
:103A10000710D8A40EEF1DF010EF1DF013EF1DF0EE
:103A2000076A010E066ED10E065C020E0758D8A07A
:103A30001CEF1DF01EEF1DF022EF1DF0020E076EB1
:103A4000D00E066E0650D0080501AC6F0750D8A006
:103A5000E82A0208AD6F1200400E066E050E076ED2
:103A6000A2EC1EF04150386E40C539F543503A6E15
:103A700042C53BF545503C6E44C53DF547503E6E52
:103A800046C53FF5380E126E050E136E156A080E08
:103A9000146E820EBDEC14F01200086AD69E050169
:103AA000C251D8B456EF1DF058EF1DF06AEF1DF06B
:103AB000400E5624D96EDA6A060EDA2206C5E1F403
:103AC00007C5E2F4DFC4E7F456281F0B566EC207A1
:103AD000010E086ED68E085012000A6A0501FF51C9
:103AE000D8B475EF1DF077EF1DF08AEF1DF098EC5C
:103AF00020F009500BE1200E065CBF0E0758020EA5
:103B00000858D8B086EF1DF088EF1DF08AEF1DF041
:103B1000010E0A6E0A50120004011091C890100E96
:103B20000201116F04011093C8821183110E02016A
:103B3000726FAB8FA00EAE6F010EAF6FF00EAB17B2
:103B4000AB8BAB89AC8F586A596A5A6AAC80AC921D
:103B500012005DEC20F0386E67EC20F0396ED2EC8C
:103B600020F03A6E76EC1EF03B6E60EC1EF03C6E80
:103B7000380E126E050E136E156A050E146E840E45
:103B8000BDEC14F0C6EC20F012000501C651C711BF
:103B9000D8A4CDEF1DF0CFEF1DF0D1EF1DF0E0EF79
:103BA0001DF0C6C5D9F4C7C5DAF411EE90F2070EC0
:103BB000DBC4E3F4E806FCE2F6EC1EF06BEC15F077
:103BC0001200020E0501C061E8EF1DF0EAEF1DF0E2
:103BD000F4EF1DF080C506F581C507F582C508F52F
:103BE00083C509F5FCEF1DF07CC506F57DC507F51D
:103BF0007EC508F57FC509F5120052EC20F006C518
:103C00000EF507C50FF506018C510E5C0C6E8D513B
:103C10000F580D6E0EC58CF60FC58DF60C500501B4
:103C200088270D508923000E8A23000E8B23120053
:103C3000066E3F0E58641FEF1EF021EF1EF023EFBB
:103C40001EF031EF1EF0AC92000E5A24D96EDA6AE3
:103C5000060EDA2206C5DFF45A283F0B5A6E582AA0
:103C6000AC8212000A6A3FEF1EF00A500724D96E98
:103C7000000E0820DA6EDF5018EC1EF00A2A0950F8
:103C80000A5CD8A046EF1EF048EF1EF035EF1EF09C
:103C90001200016E200E0501C26151EF1EF053EFBC
:103CA0001EF05FEF1EF0400E5724D96EDA6A060E42
:103CB000DA2201C5DFF457281F0B576EC22B120002
:103CC000066A0501B651D8B468EF1EF06AEF1EF01F
:103CD0006BEF1EF00680B551D8B471EF1EF073EF94
:103CE0001EF074EF1EF0068206501200066A0501EF
:103CF000B851D8B47EEF1EF080EF1EF081EF1EF0B9
:103D00000680B751D8B487EF1EF089EF1EF08AEF16
:103D10001EF00682065012000C6E0CA092EF1EF0F0
:103D200094EF1EF096EF1EF00501B86B0CA29BEF0E
:103D30001EF09DEF1EF09FEF1EF00501B76B7CECAF
:103D400019F0120006500710D8B4A9EF1EF0ABEF1F
:103D50001EF0B6EF1EF021EE90F206C5E1F407C5A5
:103D6000E2F4070EDBC4E3F4E806FCE21200066AA4
:103D70005850D8A4BEEF1EF0C0EF1EF0CAEF1EF0E0
:103D80000201B2AFC6EF1EF0C8EF1EF0CAEF1EF080
:103D9000010E066E0650120004011097C896009995
:103DA000C698009BC69A0095C6941095C894109921
:103DB000C088C898C096BE98BE9ABE94C094C08869
:103DC0001200C084BE84010E0501B16F010EB06FF8
:103DD00098EC20F006C560F607C561F608C562F6E6
:103DE00009C563F6030E0501B26F120092C61FF5F6
:103DF00093C620F5D3EC17F01FC59AF520C59BF5A7
:103E000096C61FF597C620F5D3EC17F01FC598F599
:103E100020C599F51200020E0501C06112EF1FF0D6
:103E200014EF1FF01AEF1FF0AAC506F5ABC507F592
:103E30001EEF1FF0A8C506F5A9C507F51200C0843E
:103E4000BE94010E0501B16FB06B98EC20F006C571
:103E500060F607C561F608C562F609C563F6040E8B
:103E60000501B26F1200C09898EC20F006C594F5D9
:103E700007C595F508C596F509C597F50501C46B05
:103E8000C36B010EC56FC6EC1FF01200ABA64BEF63
:103E90001FF04DEF1FF057EF1FF0B6A652EF1FF0C7
:103EA00054EF1FF057EF1FF0B696A1EC20F0120070
:103EB000010E0501BA6FC086050EB96F98EC20F0AF
:103EC00006C560F507C561F508C562F509C563F566
:103ED0001200DBEC20F00501B16B000E0601606FF3
:103EE000000E616F000E626F000E636F0501B26B12
:103EF00012000501BA6B98EC20F006C560F507C505
:103F000061F508C562F509C563F50501B96BC09691
:103F1000120052EC20F006C58CF607C58DF6000E97
:103F20000501886F000E896F000E8A6F000E8B6F7F
:103F300012000401109BC88A150E0201426F030192
:103F40001491156B176B060E146F136B126B120026
:103F50000501BE51D8B4AFEF1FF0B1EF1FF0B5EFC0
:103F60001FF0BE6B010EB6EF1FF0000E1200050130
:103F7000C151D8B4BEEF1FF0C0EF1FF0C4EF1FF067
:103F8000C16B010EC5EF1FF0000E12000501BA6BE8
:103F9000C08698EC20F006C560F507C561F508C538
:103FA00062F509C563F51200386E38C539F5390E6A
:103FB000126E050E136E156A010E146E880EBDEC9E
:103FC00014F01200386E38C539F5390E126E050E30
:103FD000136E156A010E146E8F0EBDEC14F01200F4
:103FE000386E38C539F5390E126E050E136E156A26
:103FF000010E146E8E0EBDEC14F0120003011E9F14
:10400000010E206F1F6BF90E1D6FE00E1E6FB6962E
:10401000AB861E8F1200FAC404F5FBC405F581ECD3
:1040200018F046EC1FF005C5FBF404C5FAF41100C6
:104030000501BD51D8A41FEF20F022EF20F0010EA2
:1040400023EF20F0000E12000201B0A72AEF20F0AB
:104050002CEF20F024EF20F0B19FAC86AC89120049
:104060000501C051D8A437EF20F03AEF20F0010E3F
:104070003BEF20F0000E12000201B1BF42EF20F032
:1040800045EF20F0010E46EF20F0000E1200FDEC8F
:104090001DF088C510F589C511F58AC512F58BC5C7
:1040A00013F5120012C30AF513C30BF50B50086E7B
:1040B0000A50066E08C507F51200C0B462EF20F082
:1040C00065EF20F0010E66EF20F0000E1200BEB486
:1040D0006CEF20F06FEF20F0010E70EF20F0000E7B
:1040E0001200000E05018C6F000E8D6F000E8E6F9A
:1040F000000E8F6F1200065005018C2707508D238C
:1041000008508E2309508F231200F6EC1EF0050193
:10411000B86BB76BB66BB56BB46BB36B120084C581
:1041200006F585C507F586C508F587C509F51200AA
:104130008CC506F58DC507F58EC508F58FC509F543
:104140001200010E05018C27000E8D238E238F2374
:104150001200000E71EC20F0FEEC1FF0120006C5FC
:104160008EF607C58FF612000201AC99B19FAC968E
:104170001200AEC506F5AFC507F512008813100E84
:104180009001B400C0880501C56B12000501B66B33
:10419000B56B1200010E0501BB6F1200025049EC15
:1041A0001EF012000501B251120003011481120029
:1041B0000501B1511200C094BE941200585040083D
:1041C00012000668076812000501BE6B12006BEC56
:0641D00015F012001200C0
:020000040030CA
:010000008C73
:04000200F7FFACFF59
:00000001FF
