:040000000DEF00F010
:040008000DEF20F0E8
:06001800FF00EBEF1AF0FF
:10160000000057EF0BF0B9EC1FF00009D8A40BEF66
:101610000BF00DEF0BF016EF0BF00501BC51D8B439
:1016200014EF0BF016EF0BF047EF0EF00501BC6B5B
:10163000010EBE6F9AEC20F006C578F507C579F566
:1016400008C57AF509C57BF5020E0501BF6F47EFA6
:101650000EF0BB51D8A42FEF0BF031EF0BF039EFA8
:101660000BF0BD51D8B437EF0BF039EF0BF03DEF75
:101670000BF00501BF6B47EF0EF078C50AF579C591
:101680000BF57AC50CF57BC50DF518EC1AF00D506D
:101690000C100BE1B80E0A5C0B0E0B58D8A053EFE0
:1016A0000BF055EF0BF047EF0EF039EF0BF00501A3
:1016B000BF51276E286A2850000AD8B462EF0BF099
:1016C00039EF0BF02750000AD8B403EF0BF0010AF2
:1016D000D8B424EF0BF0030AD8B429EF0BF039EF9C
:1016E0000BF0BB51D8B477EF0BF079EF0BF069EF4B
:1016F0000EF0BB6BBBEC20F006C5A4F507C5A5F545
:101700000501A651A45D276EA751A559286EE80EC4
:101710002724066E030E2820076E030E096EE80EBE
:10172000086ED0EC1BF006C5CAF507C5CBF549EC31
:1017300020F010C5F4F511C5F5F512C5F6F513C581
:10174000F7F591EC20F006C5E3F507C5E4F508C50B
:10175000E5F509C5E6F5850E0501CA5D030ECB5911
:10176000D8A0B5EF0BF0B7EF0BF0D1EF0BF032ECE8
:1017700020F00009D8B4BFEF0BF0C1EF0BF0D1EFB0
:101780000BF00DEC1FF006C5A6F507C5A7F5E3ECB9
:101790001DF006C56CF607C56DF608C56EF609C5E1
:1017A0006FF605016851F45D746F6951F559756FF5
:1017B0006A51F659766F6B51F759776F6451E35D53
:1017C000706F6551E459716F6651E559726F6751D9
:1017D000E659736F06016C510501F45D6C6F0601EB
:1017E0006D510501F5596D6F06016E510501F659F0
:1017F0006E6F06016F510501F7596F6FA6C50BF5A6
:10180000A7C50CF5A4C50DF5A5C50EF578EC17F028
:101810000BC59EF50CC59FF50501A651A45D276E6D
:10182000A751A559286EE80E2724066E030E28201E
:10183000076E030E096EE80E086ED0EC1BF006C5AD
:101840009CF507C59DF5F4C568F5F5C569F5F6C5C0
:101850006AF5F7C56BF5E3C564F5E4C565F5E5C55F
:1018600066F5E6C567F5F4C56CF6F5C56DF6F6C523
:101870006EF6F7C56FF60501A36B000EA26F5AEC6A
:101880001FF0010E0501BD6F69EF0EF09CC5C6F596
:101890009DC5C7F5C86BC96B030EC603F3C427F516
:1018A000F4C428F5C703F3502826120E2724EC6F42
:1018B000000E2820ED6FAA0EE76F550EE86F810E1F
:1018C000E96FED51EA6FECC5EBF5E0EC20F0276E27
:1018D000050E27606EEF0CF070EF0CF072EF0CF05D
:1018E00069EF0EF0E3EC20F006C5A0F507C5A1F501
:1018F000A0C506F5A1C507F5E9C508F58CEC1CF0F7
:1019000006C5A0F507C5A1F5A0C506F5A1C507F553
:10191000EAC508F58CEC1CF006C5A0F507C5A1F5D5
:10192000A0C506F5A1C507F5EBC508F58CEC1CF0C4
:1019300006C5A0F507C5A1F5E70E076E050E086EF2
:10194000050E096E34EC1EF0020E0501BD6F69EF45
:101950000EF0F86BCC0EF825D96EDA6A050EDA2295
:1019600077C5DFF4F82BCC0EF825D96EDA6A050EB0
:10197000DA2276C5DFF4F82BCC0EF825D96EDA6AB8
:10198000050EDA2275C5DFF4F82BCC0EF825D96EDA
:10199000DA6A050EDA2274C5DFF4F82BCC0EF825CE
:1019A000D96EDA6A050EDA2273C5DFF4F82BCC0E95
:1019B000F825D96EDA6A050EDA2272C5DFF4F82B43
:1019C000CC0EF825D96EDA6A050EDA2271C5DFF47D
:1019D000F82BCC0EF825D96EDA6A050EDA2270C51E
:1019E000DFF4F82BCC0EF825D96EDA6A050EDA2270
:1019F0006FC5DFF4F82BCC0EF825D96EDA6A050E28
:101A0000DA226EC5DFF4F82BCC0EF825D96EDA6A2F
:101A1000050EDA226DC5DFF4F82BCC0EF825D96E51
:101A2000DA6A050EDA226CC5DFF4F82BCC0EF82545
:101A3000D96EDA6A050EDA229F51DF6EF82BCC0ED2
:101A4000F825D96EDA6A050EDA229EC5DFF4F82B86
:101A5000CC0EF825D96EDA6A050EDA229C51276E73
:101A60009D51286E296A2A6A190E3CEF0DF0D89014
:101A70002A32293228322732E82E37EF0DF027504C
:101A8000DF6EF82BCC0EF825D96EDA6A050EDA2255
:101A90009C51276E9D51286E296A2A6A110E56EFB5
:101AA0000DF0D8902A32293228322732E82E51EF11
:101AB0000DF02750DF6EF82BCC0EF825D96EDA6AC0
:101AC000050EDA229D51DF6EF82BCC0EF825D96E6B
:101AD000DA6A050EDA229CC5DFF4F82BE0EC20F080
:101AE000276E120E276077EF0DF079EF0DF07BEF88
:101AF0000DF069EF0EF00501F26B110EF26583EF48
:101B00000DF085EF0DF087EF0DF09DEF0DF0A0C506
:101B100006F5A1C507F5CC0EF225D96EDA6A050ED9
:101B2000DA22DF50086E8CEC1CF006C5A0F507C564
:101B3000A1F50501F22B7DEF0DF0CC0E076E050E21
:101B4000086E120E096E34EC1EF005019C519D11B9
:101B5000D8B4ADEF0DF0AFEF0DF0B3EF0DF0030E15
:101B6000BD6F69EF0EF0040EBD6F69EF0EF0A4516A
:101B7000A61907E1A551A719D8A4C1EF0DF0C3EF2D
:101B80000DF0C5EF0DF0B3EF0DF0A6C51FF5A7C51D
:101B900020F5EE0E216E050E226EB8EC1CF0A2C5EB
:101BA00006F5A3C507F5F0C508F5F1C509F5E00E82
:101BB0000A6E050E0B6E2DEC18F0E0EC20F0276E8F
:101BC000030E2760E6EF0DF0E8EF0DF0EAEF0DF001
:101BD00069EF0EF00501F36B020EF365F2EF0DF005
:101BE000F4EF0DF0F6EF0DF00CEF0EF0A0C506F5DA
:101BF000A1C507F5E00EF325D96EDA6A050EDA22E3
:101C0000DF50086E8CEC1CF006C5A0F507C5A1F5E9
:101C10000501F32BECEF0DF0E00E076E050E086EDC
:101C2000030E096E34EC1EF0010E0501A625066EAA
:101C3000000EA721076E030E096EE80E086ED0ECA9
:101C40001BF006C5A6F507C5A7F50501A24BA32BFA
:101C500069EF0EF0A151DE6FA0C5DFF5E0EC20F0DA
:101C6000276E020E276037EF0EF039EF0EF03BEFD4
:101C70000EF069EF0EF0DE0E076E050E086E020E16
:101C8000096E34EC1EF00501BD6B69EF0EF0050125
:101C9000BD51276E286A2850000AD8B452EF0EF0C2
:101CA00043EF0EF02750000AD8B471EF0BF0010A91
:101CB000D8B446EF0CF0030AD8B4A9EF0CF0010A2F
:101CC000D8B4B7EF0DF0070AD8B42AEF0EF043EFFF
:101CD0000EF012009AEC20F020EE12F00C50D926F3
:101CE0000D50DA2206C5DEF407C5DEF408C5DEF4C1
:101CF00009C5DEF42FEF10F0AA0E0E18D8A483EF5A
:101D00000EF085EF0EF060EF10F020EE16F00C50A4
:101D1000D9260D50DA22DF6A20EE17F00C50D926B2
:101D20000D50DA22DF6A0CC5D9F40DC5DAF4010EC4
:101D3000DF6E60EF10F0550E0E18D8A4A2EF0EF073
:101D4000A4EF0EF0ACEF0EF00CC5D9F40DC5DAF42B
:101D5000020EDF6E60EF10F0AA0E0E18D8A4B3EFDB
:101D60000EF0B5EF0EF0BDEF0EF00CC5D9F40DC5B9
:101D7000DAF4010EDF6E60EF10F00CC5D9F40DC57A
:101D8000DAF4DF6A60EF10F020EE01F00C50D92693
:101D90000D50DA220EC5DFF4E3EC20F020EE0EF059
:101DA0000C50D9260D50DA2206C5DEF407C5DDF445
:101DB00020EE0EF00C50D9260D50DA22DEC406F5C6
:101DC000DDC407F50EC508F58CEC1CF020EE0EF016
:101DD0000C50D9260D50DA2206C5DEF407C5DDF415
:101DE0000CC5D9F40DC5DAF4030EDF6E60EF10F008
:101DF0000E50106E0F6A20EE02F00C50D9260D50D6
:101E0000DA220FC5DEF410C5DDF420EE0EF00C5022
:101E1000D9260D50DA22DEC406F5DDC407F50EC55D
:101E200008F58CEC1CF020EE0EF00C50D9260D506D
:101E3000DA2206C5DEF407C5DDF40CC5D9F40DC5FC
:101E4000DAF4040EDF6E60EF10F020EE02F00C50BA
:101E5000D9260D50DA220E50DE12000EDD1220EED1
:101E60000EF00C50D9260D50DA22DEC406F5DDC482
:101E700007F50EC508F58CEC1CF020EE0EF00C50AA
:101E8000D9260D50DA2206C5DEF407C5DDF420EEB2
:101E900004F00C50D9260D50DA22DE6ADD6A20EEFD
:101EA00002F00C50D9260D50DA22010EDB5009E168
:101EB000090EDE5CD8A05FEF0FF061EF0FF071EF5D
:101EC0000FF020EE16F00C50D9260D50DA22010E3C
:101ED000DF6E0CC506F50DC507F533EC1CF060EFA1
:101EE00010F020EE02F00C50D9260D50DA22DE5010
:101EF000DE10D8B47EEF0FF080EF0FF084EF0FF01C
:101F0000050E136E86EF0FF0060E136E0CC5D9F496
:101F10000DC5DAF413C5DFF460EF10F020EE04F025
:101F20000C50D9260D50DA22DEC40FF5DDC410F5B1
:101F30000F500C24116E10500D20126E060E11243D
:101F4000D96E000E1220DA6E0EC5DFF420EE04F01A
:101F50000C50D9260D50DA22DE2A000EDD2220EEAA
:101F60000EF00C50D9260D50DA22DEC406F5DDC481
:101F700007F50EC508F58CEC1CF020EE0EF00C50A9
:101F8000D9260D50DA2206C5DEF407C5DDF420EEB1
:101F900002F00C50D9260D50DA2210EE04F00C504D
:101FA000E1260D50E222DE50E65CDE50E658D8A075
:101FB000DCEF0FF0DEEF0FF060EF10F00CC5D9F49E
:101FC0000DC5DAF4060EDF6E60EF10F00E50106EE5
:101FD0000F6A20EE10F00C50D9260D50DA220FC5F2
:101FE000DEF410C5DDF40CC5D9F40DC5DAF4070E26
:101FF000DF6E60EF10F020EE10F00C50D9260D507F
:10200000DA220E50DE12000EDD120CC5D9F40DC519
:10201000DAF4DF6A20EE0EF00C50D9260D50DA22E9
:1020200010EE10F00C50E1260D50E222DE50E618C2
:1020300007E1DE50E618D8A420EF10F022EF10F0F0
:1020400025EF10F0010E61EF10F020EE17F00C50AC
:10205000D9260D50DA22010EDF6E60EF10F00CC5AC
:10206000D9F40DC5DAF4DF500F6E106A1050000A73
:10207000D8B43DEF10F069EF0FF00F50000AD8B45C
:102080007CEF0EF0010AD8B49BEF0EF0030AD8B42F
:10209000C4EF0EF0010AD8B4F8EF0EF0070AD8B476
:1020A00025EF0FF0010AD8B48EEF0FF0030AD8B471
:1020B000E6EF0FF0010AD8B4FBEF0FF069EF0FF075
:1020C000000E1200F0A867EF10F06AEF10F0010E9A
:1020D0006BEF10F0000E0601986FF0689851D8B4BD
:1020E00074EF10F077EF10F0010E78EF10F0000EA3
:1020F0000501FF6FCEEC1EF08EEC1DF0A00E066EFB
:10210000410E076EB1EC20F0ABEC20F09BEC1FF021
:10211000D7EC20F08BEC1FF0D8EC18F0CFEC19F0D6
:102120007BEC1FF0700E066E060E076E33EC1CF093
:1021300087EC20F006019851D8B4A1EF10F0A4EF7D
:1021400010F0010EA5EF10F0000E6BEC1FF0060171
:102150009851D8A4AEEF10F0B0EF10F0B2EF10F03D
:10216000E3EC1EF0D68CD68E35EC1FF000017881A2
:102170000400ECEC20F009EC17F065EC1BF0E2EC4D
:102180001CF01DEC13F001EC0BF0A6EC1AF0D6EFEE
:1021900011F0FF51D8B4CFEF10F0D1EF10F0E3EF12
:1021A00010F06FEC1DF00009D8A4D9EF10F0DBEFB0
:1021B00010F0E3EF10F0E6EC20F0C4EC20F00501A5
:1021C000FF6BB8EF10F00501C451D8B4EAEF10F07E
:1021D000ECEF10F0FBEF10F09AEC20F006C590F554
:1021E00007C591F508C592F509C593F5020E0501DD
:1021F000C56FB8EF10F06FEC1DF00009D8A403EF25
:1022000011F005EF11F0B8EF10F094C50AF595C57F
:102210000BF596C50CF597C50DF518EC1AF00D5099
:102220000DE1900E0A5C5F0E0B58010E0C58D8A001
:102230001CEF11F01EEF11F0B8EF10F0C4EC20F01D
:10224000B8EF10F0B9EC1EF00009D8B42AEF11F085
:102250002CEF11F036EF11F01AEC20F00009D8B491
:1022600034EF11F036EF11F040EF11F09AEC20F05E
:1022700006C590F507C591F508C592F509C593F512
:102280006FEC1DF00009D8B448EF11F04AEF11F0DF
:102290004EEF11F00501C36BB8EF10F00501FF51CF
:1022A000D8B455EF11F057EF11F06DEF11F0B9EC14
:1022B0001EF00009D8B45FEF11F061EF11F0B8EF34
:1022C00010F01AEC20F00009D8A469EF11F06BEFC0
:1022D00011F0B8EF10F0DBEF10F0C351D8A473EF9A
:1022E00011F075EF11F08DEF11F090C50AF591C561
:1022F0000BF592C50CF593C50DF518EC1AF00D50C1
:102300000C100BE1200E0A5C4E0E0B58D8A08BEF80
:1023100011F08DEF11F0B8EF10F0B9EC1EF00009DC
:10232000D8B495EF11F097EF11F0B8EF10F01AEC68
:1023300020F00009D8A49FEF11F0A1EF11F0B8EF41
:1023400010F01EEF11F0AAEC1FF00009D8B4ABEFAB
:1023500011F0ADEF11F0B1EF11F035EC1FF0B8EF67
:1023600010F06FEC1DF00009D8A4B9EF11F0BBEF2D
:1023700011F0B8EF10F0DAEC20F00009D8A4C3EFA8
:1023800011F0C5EF11F0B8EF10F0B9EC1EF0000934
:10239000D8B4CDEF11F0CFEF11F0B8EF10F0C09638
:1023A00028EC1BF0C8EC1FF0B8EF10F00501C55188
:1023B000F96FFA6BFA51000AD8B4E1EF11F0A3EF0C
:1023C00011F0F951000AD8B4A3EF11F0010AD8B402
:1023D000C9EF10F0030AD8B422EF11F0A3EF11F007
:1023E0000DEF00F0E6EF12F0CCEC20F01CEF13F054
:1023F0002EEC1DF01CEF13F020EE02F0C851D92690
:10240000C951DA22080EDE18DE10D8A40AEF12F045
:102410000CEF12F067EF12F020EE07F0C851D9264A
:10242000C951DA22DF50CA6F20EE06F0C851D92612
:10243000C951DA22DF50CB6FCA51CF6FCBC5D0F56F
:1024400020EE09F0C851D926C951DA22DF50CA6FEF
:1024500020EE08F0C851D926C951DA22DF50CB6FDF
:10246000CA51D16FCBC5D2F520EE0BF0C851D92699
:10247000C951DA22DF50CA6F20EE0AF0C851D926BE
:10248000C951DA22DF50CB6FCA51D36FCBC5D4F517
:1024900020EE0DF0C851D926C951DA22DF50CA6F9B
:1024A00020EE0CF0C851D926C951DA22DF50CB6F8B
:1024B000CA51D56FCBC5D6F5CF0EC66F050EC76F07
:1024C000C7EC1DF0030EF2EC1FF01CEF13F0020E30
:1024D000E4EC1FF01CEF13F020EE02F0C851D926F7
:1024E000C951DA22020EDE18DE10D8A47AEF12F0FB
:1024F0007CEF12F09BEF12F020EE07F0C851D926C6
:10250000C951DA22DF50CA6F20EE06F0C851D92631
:10251000C951DA22DF50CB6FCA51CD6FCBC5CEF592
:10252000CDC506F5CEC507F509EC1DF00B0EF2EC96
:102530001FF01CEF13F0020EE4EC1FF01CEF13F081
:10254000ABEC1DF01CEF13F020EE02F0C851D926C1
:10255000C951DA22DE04DE10D8A4B1EF12F0B3EFD5
:1025600012F0C1EF12F020EE06F0C851D926C95181
:10257000DA22DF508EEC1EF0050EF2EC1FF01CEF9D
:1025800013F0020EE4EC1FF01CEF13F0FF001CEF41
:1025900013F0010EC36F1CEF13F06FEC1DF0000978
:1025A000D8B4D5EF12F0D8EF12F0010ED9EF12F037
:1025B000000ED6EC1FF01CEF13F004EC16F01CEF2D
:1025C00013F0030EE4EC1FF01CEF13F0050120EEF6
:1025D00001F0C851D926C951DA22DF50010AD8B416
:1025E000F4EF11F0030AD8B4F8EF11F0010AD8B4EF
:1025F000FCEF11F0070AD8B4A0EF12F0010AD8B42A
:10260000A4EF12F0030AD8B4C6EF12F0010AD8B44E
:10261000C9EF12F00F0AD8B4CDEF12F0010AD8B406
:10262000DDEF12F0030AD8B41CEF13F0010AD8B49E
:102630006CEF12F0E1EF12F0120088C60AF589C6BD
:102640000BF58AC60CF58BC60DF518EC1AF00D507B
:102650000BE1B60E0A5CD60E0B58010E0C58D8B022
:1026600034EF13F036EF13F038EF13F000EF14F0FF
:102670009AEC20F006C588F607C589F608C58AF6E3
:1026800009C58BF649EC20F010C5D0F511C5D1F580
:1026900012C5D2F513C5D3F50501FB51D05DCA6F44
:1026A000FC51D159CB6FFD51D259CC6FFE51D3594A
:1026B000CD6FD0C5FBF5D1C5FCF5D2C5FDF5D3C5B1
:1026C000FEF5AEC506F5AFC507F5030E096EE80EBB
:1026D000086ED0EC1BF006C5D4F507C5D5F505018D
:1026E000CD51CC1109E1400ECB5DD8A07AEF13F0AB
:1026F0007CEF13F089EF13F03F0ECF6FCE69D4C596
:1027000006F5D5C507F5010E086E60EC1AF095EFD9
:1027100013F0CAC5CEF5CBC5CFF5D4C506F5D5C5E2
:1027200007F5000E086E60EC1AF0010E0501842713
:10273000000E852386238723ACC506F5ADC507F5B6
:10274000CEC508F5CFC509F5030ED403F3C4C8F50B
:10275000F4C4C9F5D503F350C9277D0EC8250A6E08
:10276000070EC9210B6E2DEC18F0010E0501AE25E8
:10277000066E000EAF21076E030E096EE80E086E9E
:10278000D0EC1BF006C5AEF507C5AFF50501AC4BA7
:10279000AD2BD00EAC5D020EAD59D8A0D2EF13F028
:1027A000D4EF13F0FAEF13F0AD6B000EAC6F010E27
:1027B000C16F80C57CF581C57DF582C57EF583C579
:1027C0007FF5AAC5A8F5ABC5A9F5D0C580F5D1C5DB
:1027D00081F5D2C582F5D3C583F5AEC5AAF5AFC5DF
:1027E000ABF5020EC061F7EF13F0F9EF13F0FAEF5B
:1027F00013F0C02BCEC5C6F5CFC5C7F5E9EC20F068
:102800001200386A000E376E91EC20F006C53DF5D7
:1028100007C53EF508C53FF509C540F53D503E10DA
:102820003F104010D8A417EF14F019EF14F032EF56
:1028300014F029502A10D8B420EF14F022EF14F02D
:1028400028EF14F029C5D9F42AC5DAF4DE6ADD6A66
:10285000000E276E000E286E000E296E000E2A6EE6
:10286000BDEF14F027C539F528C53AF539502B6E60
:102870003A502C6E2D6A2E6A2B503D5C2C503E58DF
:102880002D503F582E504058D8B049EF14F04BEF20
:1028900014F04FEF14F03DC539F53EC53AF5BBECE9
:1028A00020F006C52FF507C530F5000E336E000E7B
:1028B000346E000E356E000E366E3C6A000E3B6EB6
:1028C00099EF14F03B502F5C2B6E3C5030582C6E1F
:1028D000E70E2B24066E030E2C20076E030E096EE6
:1028E000E80E086ED0EC1BF006C531F507C532F5D1
:1028F00031C51FF532C520F5410E216E050E226E41
:10290000B8EC1CF043504410D8A489EF14F08BEFBE
:1029100014F08DEF14F0A4EF14F04350332644501C
:102920003422000E3522000E3622374A382A3B4A1E
:102930003C2A39503B5C3A503C58D8A0A2EF14F0E6
:10294000A4EF14F062EF14F029502A10D8B4ABEFC2
:1029500014F0ADEF14F0B5EF14F029C5D9F42AC581
:10296000DAF437C5DEF438C5DDF433C527F534C5F0
:1029700028F535C529F536C52AF512002F6E376AB8
:10298000000E366E155009E1110E145CD8A0CBEF85
:1029900014F0CDEF14F0CFEF14F06BEF15F0AA0E9A
:1029A000186E364A372A180E3624D96E050E37208F
:1029B000DA6E550EDF6E364A372A180E3624D96E77
:1029C000050E3720DA6E2FC5DFF4364A372A180E87
:1029D0003624D96E050E3720DA6E1550DF6E364A72
:1029E000372A180E3624D96E050E3720DA6E14C534
:1029F000DFF4364A372A336A000E326E12EF15F0D2
:102A000032501224D96E33501320DA6E180E362449
:102A1000E16E050E3720E26EDFC4E7F4364A372A4E
:102A2000324A332A1450325C15503358D8A01BEF69
:102A300015F01DEF15F000EF15F01A0E0C6E050ED7
:102A40000D6E030E14240E6E000E15200F6E60EC3A
:102A50001CF00CC530F50DC531F5180E3624D96EB5
:102A6000050E3720DA6E3150DF6E364A372A180EDF
:102A70003624D96E050E3720DA6E30C5DFF4364ABB
:102A8000372AE0EC20F0166E176A3650165C375085
:102A90001758D8A04EEF15F050EF15F06BEF15F06A
:102AA000356A000E346E60EF15F0180E3424D96EBE
:102AB000050E3520DA6EDF501AEC1EF0344A352A46
:102AC0003650345C37503558D8A069EF15F06BEFAD
:102AD00015F055EF15F012000501B851D8A473EFA9
:102AE00015F075EF15F0BCEF15F0526A000E516E3F
:102AF0009AC527F59BC528F5510E296E050E2A6E3D
:102B000001EC14F027C549F528C54AF529C54BF550
:102B10002AC54CF505019A51515C9B515258D8A0D9
:102B200094EF15F096EF15F0BCEF15F006019051FB
:102B3000456E9151466E476A486A4550495C465019
:102B40004A5847504B5848504C58D8A0AAEF15F057
:102B5000ACEF15F0BCEF15F0010E0501B86F9AEC63
:102B600020F006C564F607C565F608C566F609C512
:102B700067F6010E0501B66F0501B751D8A4C3EF82
:102B800015F0C5EF15F001EF16F0546A000E536E04
:102B900098C527F599C528F5530E296E050E2A6E9E
:102BA00001EC14F027C54DF528C54EF529C54FF5A4
:102BB0002AC550F505019851535C99515458D8A035
:102BC000E4EF15F0E6EF15F001EF16F00601945171
:102BD000456E9551466E476A486A45504D5C465071
:102BE0004E5847504F5848505058D8A0FAEF15F05B
:102BF000FCEF15F001EF16F0010E0501B76F010EA5
:102C0000B56F7EEC19F01200476A000E466E010E99
:102C1000386E464A472A380E4624D96E050E47209C
:102C2000DA6E020EDF6E464A472A380E4624D96E07
:102C3000050E4720DA6EDF6A464A472A380E4624D8
:102C4000D96E050E4720DA6E010EDF6E464A472A1E
:102C5000380E4624D96E050E4720DA6ED60EDF6E8A
:102C6000464A472A380E4624D96E050E4720DA6EAA
:102C7000B60EDF6E464A472A380E4624D96E050E38
:102C80004720DA6E020EDF6E464A472A380E462487
:102C9000D96E050E4720DA6ED00EDF6E464A472AFF
:102CA000380E4624D96E050E4720DA6E180EDF6EF8
:102CB000464A472A380E4624D96E050E4720DA6E5A
:102CC000DF6A464A472A380E4624D96E050E472049
:102CD000DA6E010EDF6E464A472A380E4624D96E58
:102CE000050E4720DA6E010EDF6E464A472A380E7F
:102CF0004624D96E050E4720DA6E0B0EDF6E464A6B
:102D0000472A380E4624D96E050E4720DA6EB80ED3
:102D1000DF6E464A472A380E126E050E136E46C500
:102D200014F547C515F5890EBEEC14F0120020EE1F
:102D300001F00650D9260750DA22DF500C6E0CC580
:102D40000DF50E6A0F6A106A0FC510F50EC50FF566
:102D50000DC50EF50D6A06C5D9F407C5DAF4DF50C6
:102D6000116E11C512F5136A146A156A13C515F5AB
:102D700012C514F5136A126A0D501210166E0E5019
:102D80001310176E0F501410186E10501510196E86
:102D900020EE02F00650D9260750DA22DF501A6ED4
:102DA0001A5016101B6E17501C6E18501D6E1950BD
:102DB0001E6E1BC50CF51CC50DF51DC50EF51EC5FB
:102DC0000FF50F0EE9EF16F0D8900F320E320D32DC
:102DD0000C32E82EE4EF16F0FF0E0C14106E030E0A
:102DE0000D14116E08C5D9F409C5DAF410C5DEF466
:102DF00011C5DDF4FF0E1B140C6E3F0E1C140D6E7E
:102E00000AC5D9F40BC5DAF40CC5DEF40DC5DDF442
:102E100012000501BA51D8A410EF17F012EF17F005
:102E200037EF17F060C50AF561C50BF562C50CF503
:102E300063C50DF518EC1AF00D500C100BE1F40EF3
:102E40000A5C010E0B58D8A028EF17F02AEF17F0F4
:102E500077EF17F09AEC20F006C560F507C561F52D
:102E600008C562F509C563F5C07677EF17F060C550
:102E70000AF561C50BF562C50CF563C50DF518ECD7
:102E80001AF00D500C100B1009E1640E0A5CD8A06A
:102E90004CEF17F04EEF17F077EF17F09AEC20F0A9
:102EA00006C560F507C561F508C562F509C563F596
:102EB000C0760501B951D8B460EF17F062EF17F092
:102EC00063EF17F0B907B951D8A469EF17F06BEFAA
:102ED00017F077EF17F0C096BA6B9AEC20F006C5A2
:102EE00060F507C561F508C562F509C563F512000F
:102EF000156A000E146E0BC516F50CC517F5C4EF58
:102F000017F016C50FF517C510F5D89010320F320F
:102F1000D89010320F32D89010320F320FC511F501
:102F200010C512F516C50FF5070E0F16010E106E1F
:102F30000F2A9DEF17F0D89010360F2E9BEF17F049
:102F40001050136E000E1124D96E070E1220DA6E87
:102F5000DF5013140009D8B4B0EF17F0B2EF17F038
:102F6000B4EF17F0144A152A010E1624066E000E4F
:102F70001720076E030E096EE80E086ED0EC1BF0EA
:102F800006C516F507C517F50D50161807E10E50C2
:102F90001718D8A4CEEF17F0D0EF17F081EF17F085
:102FA00014C50BF515C50CF512001FC506F520C597
:102FB00007F5086A096AE80E0A6E030E0B6E000E2A
:102FC0000C6E000E0D6E9BEC1BF006C512F507C5CE
:102FD00013F508C514F509C515F5B60E166ED60E0F
:102FE000176E010E186E000E196E2CEC19F012C53A
:102FF00021F513C522F514C523F515C524F5245074
:1030000023100BE1E90E215C030E2258D8A00BEF30
:1030100018F00DEF18F015EF18F0E80E216E030E02
:10302000226E000E236E000E246E215022102310FB
:103030002410D8A41EEF18F020EF18F028EF18F095
:10304000010E216E000E226E000E236E000E246E05
:1030500021C51FF522C520F51200040E075CD8B06B
:1030600034EF18F036EF18F03CEF18F006C510F505
:1030700007C511F53FEF18F0030E116E1068400EF2
:10308000095CD8B046EF18F048EF18F04EEF18F092
:1030900008C512F509C513F551EF18F03F0E136E70
:1030A000126810500C6E11500D6E0E6A0F6A0E0EE3
:1030B000D8900C360D360E360F36E82E58EF18F035
:1030C00012500C10146E13500D10156E000E0E10D1
:1030D000166E000E0F10176E0AC5D9F40BC5DAF480
:1030E00016C5DFF420EE01F00A50D9260B50DA2283
:1030F00015C5DFF420EE02F00A50D9260B50DA2273
:1031000014C5DFF41200ACA088EF18F08AEF18F0B5
:10311000ABEF18F0B7A08FEF18F091EF18F0ABEF0E
:1031200018F0A1C203F506018E518F11D8B49BEFA0
:1031300018F09DEF18F0ABEF18F003C502F502D8B8
:10314000ABEF18F00500FA6E8E51FD6E8F51FE6EDA
:10315000FF6AFA501200ACA2B0EF18F0B2EF18F00C
:10316000D7EF18F0B7A2B7EF18F0B9EF18F0D7EF14
:1031700018F05850D8B4BFEF18F0C1EF18F0CEEFE8
:1031800018F0000E5924D96EDA6A060EDA22DF50E2
:103190000201A36F59283F0B596E58065850D8A406
:1031A000D4EF18F0D6EF18F0D7EF18F0AC92120069
:1031B0000501AF6B000EAE6FAD6B000EAC6F000E75
:1031C000846F000E856F000E866F000E876FC16BD7
:1031D00049EC20F010C5FBF511C5FCF512C5FDF555
:1031E00013C5FEF59AEC20F006C588F607C589F6EA
:1031F00008C58AF609C58BF6156A000E146E000E16
:103200001424D96E070E1520DA6EDF6A144A152AC7
:10321000155009E17D0E145CD8A011EF19F013EFE1
:1032200019F0FFEF18F0FBC580F5FCC581F5FDC571
:1032300082F5FEC583F50501AB6B000EAA6FFBC5D9
:103240007CF5FCC57DF5FDC57EF5FEC57FF5A96B5A
:10325000000EA86FC06B1200000E1A6E000E1B6EDF
:10326000000E1C6E000E1D6E16501710181019104F
:10327000D8B43DEF19F03FEF19F075EF19F0010EDA
:103280001E6E49EF19F0D8901636173618361936D3
:103290001E2A19AE4EEF19F050EF19F043EF19F056
:1032A000D8901A361B361C361D361650125C175035
:1032B00013581850145819501558D8A062EF19F027
:1032C00064EF19F06DEF19F01650125E1750135A93
:1032D0001850145A1950155A1A80D89019321832A9
:1032E000173216321E2E50EF19F01AC512F51BC5F3
:1032F00013F51CC514F51DC515F51200010E0A6E57
:103300000501B851D8A487EF19F089EF19F092EFB1
:1033100019F0B751D8A48FEF19F091EF19F092EF8F
:1033200019F00A6A0A50D8A498EF19F09BEF19F027
:10333000010E9CEF19F0000E0B6EB351D8A4A3EF51
:1033400019F0A5EF19F0B5EF19F00BC5B4F5010EA2
:10335000B36F0B50D8B4AFEF19F0B1EF19F0CEEF57
:1033600019F021EC1FF0CEEF19F0B4510B18D8B4BE
:10337000BCEF19F0BEEF19F0CEEF19F00B50D8B436
:10338000C4EF19F0C6EF19F0CAEF19F021EC1FF0E5
:10339000CCEF19F0E3EC1EF00BC5B4F512000501FB
:1033A000BF6BBD6BA76B000EA66FA56B000EA46F65
:1033B000A36B000EA26FBB6B49EC20F010C568F543
:1033C00011C569F512C56AF513C56BF591EC20F0CE
:1033D00006C564F507C565F508C566F509C567F551
:1033E00068C56CF669C56DF66AC56EF66BC56FF695
:1033F000000E0501746F000E756F000E766F000EE3
:10340000776F000E706F000E716F000E726F000EFE
:10341000736F000E6C6F000E6D6F000E6E6F000EFE
:103420006F6F9F6B000E9E6F9D6B000E9C6F120066
:103430009AEC20F006C516F507C517F508C518F56E
:1034400009C519F50A50165C0B5017580C5018583E
:103450000D501958D8B02FEF1AF031EF1AF053EF82
:103460001AF00A1C0E6E0B1C0F6E0C1C106E0D1C3D
:10347000116E16500E24126E17500F20136E185036
:103480001020146E19501120156E010E12240A6EB0
:10349000000E13200B6E000E14200C6E000E152073
:1034A0000D6E5FEF1AF00A50165C0A6E0B5017583B
:1034B0000B6E0C5018580C6E0D5019580D6E1200F2
:1034C00006C509F507C50AF5D8900A320932D89021
:1034D0000A320932D8900A32093209C50CF50AC5F8
:1034E0000DF506C509F5070E0916010E0A6E092A23
:1034F0007CEF1AF0D8900A36092E7AEF1AF00A50AB
:103500000B6E0850D8B487EF1AF089EF1AF093EFDA
:103510001AF0000E0C24D96E070E0D20DA6E0B5037
:10352000DF12A5EF1AF0000E0C24D96E070E0D2045
:10353000DA6E000E0C24E16E070E0D20E26EE750ED
:10354000096E0B50FF0A0914DF6E1200700E1A6E1E
:10355000060E1B6E02EC1CF0DCEF1AF0700E0C6E07
:10356000060E0D6E55C50EF56AEC0EF00009D8B4C6
:10357000BCEF1AF0BEEF1AF0DCEF1AF0010E0501F5
:10358000C46F9AEC20F006C590F507C591F508C503
:1035900092F509C593F51AEC20F00009D8A4D3EFF1
:1035A0001AF0D5EF1AF0DCEF1AF0700E0501C86FB3
:1035B000060EC96FF2EC11F0550E066E050E076E81
:1035C0004FEC1DF00009D8A4E8EF1AF0EAEF1AF06A
:1035D000AEEF1AF01200800EF66E410EF76E000E7E
:1035E000F86E01EE90F210EE08F00900F5C4EEF46A
:1035F000E550E150FAE101EE7DF312EEB8F3EE6A28
:10360000E550E150FCE1E250FAE101EE00F37D0EFD
:10361000EE6AE806FDE101EE00F2880EEE6AE806C9
:10362000FDE101EE60F1660EEE6AE806FDE15A6A20
:10363000596A586A576A566A0401080E5D6F000E8F
:103640005E6F000E5F6F000EF86E000162EF10F00B
:1036500003011E9FAB96B6961A9F9E0E1B6F720EAD
:10366000196F186BB69EAB8E800E1A6F26EC20F089
:10367000D69EF29E0001789103000000000178813F
:103680003EEC20F00009D8B448EF1BF04AEF1BF0E5
:103690004AEF1BF0B6EC20F0B6AE51EF1BF053EF43
:1036A0001BF05DEF1BF05B0E066EEB0E076E000E5F
:1036B000086E000E096E7DEC20F003011A9FAB9E90
:1036C000B69ED68E00EC20F012000501B151D8A4B0
:1036D0006CEF1BF06EEF1BF070EF1BF09AEF1BF01E
:1036E00060C60AF561C60BF562C60CF563C60DF53A
:1036F00018EC1AF00D500C100BE1100E0A5C270E9E
:103700000B58D8A086EF1BF088EF1BF09AEF1BF048
:10371000DDEC20F00501B16BB051D8A492EF1BF0A5
:1037200094EF1BF098EF1BF0020EB26F9AEF1BF0B4
:10373000010EB26F1200000E0E6E000E0F6E000E24
:10374000106E000E116E06A0A8EF1BF0AAEF1BF082
:10375000B2EF1BF00A500E260B500F220C50102215
:103760000D501122D8900A360B360C360D36D890F3
:1037700009320832073206320650071008100910C5
:10378000D8A4C5EF1BF0C7EF1BF0A3EF1BF00EC5CD
:1037900006F50FC507F510C508F511C509F51200A6
:1037A00008500910D8B4D7EF1BF0D9EF1BF0FDEF8C
:1037B0001BF0010E0A6EE1EF1BF0D89008360936B7
:1037C0000A2A09AEE6EF1BF0E8EF1BF0DDEF1BF075
:1037D0000850065C09500758D8A0F1EF1BF0F3EF32
:1037E0001BF0F7EF1BF00850065E0950075AD890FF
:1037F000093208320A2EE8EF1BF006C506F507C5A8
:1038000007F512001AC5D9F41BC5DAF4DF50D8B495
:103810000CEF1CF00EEF1CF032EF1CF020EE12F05B
:103820001A50D9261B50DA22DEC40AF5DEC40BF585
:10383000DEC40CF5DEC40DF518EC1AF00D500C10BA
:103840000BE1E80E0A5C030E0B58D8A02AEF1CF01F
:103850002CEF1CF032EF1CF01AC506F51BC507F55E
:1038600033EC1CF0120006C5D9F407C5DAF4DF6AA0
:1038700020EE01F00650D9260750DA22DF6A20EE4A
:1038800002F00650D9260750DA22DE6ADD6A20EE01
:1038900004F00650D9260750DA22DE6ADD6A20EEEF
:1038A0000EF00650D9260750DA22DE6ADD6A20EED5
:1038B00010F00650D9260750DA22DE6ADD6A1200BF
:1038C000E3EC20F006C510F507C511F57AEF1CF002
:1038D00010C506F511C507F50CC5D9F40DC5DAF408
:1038E000DF50086E8CEC1CF006C510F507C511F50D
:1038F0000C4A0D2A0E06D8A00F060E2806E10F2846
:10390000D8A485EF1CF087EF1CF068EF1CF010C501
:103910000CF511C50DF512000850061A0B6A06A029
:1039200094EF1CF096EF1CF0A3EF1CF0D89007303A
:103930000A6E0630096E010E0918066EA00E0A18EE
:10394000076EAAEF1CF0D8900730096E0630066E9D
:1039500009C507F50B2A070E0B64B1EF1CF0B3EF96
:103960001CF08FEF1CF006C506F507C507F5120021
:103970001FC506F520C507F5030E096EE80E086E93
:10398000D0EC1BF006C525F507C526F5030E25026C
:10399000F3C423F5F4C424F52602F35024267D0E47
:1039A0002324066E070E2420076E21C508F522C5C4
:1039B00009F5020E21240A6E000E22200B6E97ECF0
:1039C00016F012000501B851D8B4E9EF1CF0EBEF86
:1039D0001CF008EF1DF064C60AF565C60BF566C657
:1039E0000CF567C60DF518EC1AF00D500DE1C00E80
:1039F0000A5C270E0B58090E0C58D8A002EF1DF0D8
:103A000004EF1DF008EF1DF00501B86B7EEC19F016
:103A1000120006500710D8A410EF1DF012EF1DF091
:103A200015EF1DF0076A010E066ED10E065C020E40
:103A30000758D8A01EEF1DF020EF1DF024EF1DF059
:103A4000020E076ED00E066E0650D0080501AC6F50
:103A50000750D8A0E82A0208AD6F1200400E066E8B
:103A6000050E076EA4EC1EF04150386E40C539F5C6
:103A700043503A6E42C53BF545503C6E44C53DF55A
:103A800047503E6E46C53FF5380E126E050E136E5A
:103A9000156A080E146E820EBEEC14F01200086A4D
:103AA000D69E0501C251D8B458EF1DF05AEF1DF053
:103AB0006CEF1DF0400E5624D96EDA6A060EDA223B
:103AC00006C5E1F407C5E2F4DFC4E7F456281F0B8E
:103AD000566EC207010E086ED68E085012000A6A92
:103AE0000501FF51D8B477EF1DF079EF1DF08CEF91
:103AF0001DF09AEC20F009500BE1200E065CBF0E81
:103B00000758020E0858D8B088EF1DF08AEF1DF054
:103B10008CEF1DF0010E0A6E0A5012000401109184
:103B2000C890100E0201116F04011093C882118316
:103B3000110E0201726FAB8FA00EAE6F010EAF6F50
:103B4000F00EAB17AB8BAB89AC8F586A596A5A6AC7
:103B5000AC80AC9212005FEC20F0386E69EC20F083
:103B6000396ED4EC20F03A6E78EC1EF03B6E62ECCD
:103B70001EF03C6E380E126E050E136E156A050EA1
:103B8000146E840EBEEC14F0C8EC20F01200050197
:103B9000C651C711D8A4CFEF1DF0D1EF1DF0D3EF60
:103BA0001DF0E2EF1DF0C6C5D9F4C7C5DAF411EE79
:103BB00090F2070EDBC4E3F4E806FCE2F8EC1EF03A
:103BC0006CEC15F01200020E0501C061EAEF1DF069
:103BD000ECEF1DF0F6EF1DF080C506F581C507F589
:103BE00082C508F583C509F5FEEF1DF07CC506F515
:103BF0007DC507F57EC508F57FC509F5120054ECB3
:103C000020F006C50EF507C50FF506018C510E5CB8
:103C10000C6E8D510F580D6E0EC58CF60FC58DF6BE
:103C20000C50050188270D508923000E8A23000EB1
:103C30008B231200066E3F0E586421EF1EF023EF17
:103C40001EF025EF1EF033EF1EF0AC92000E5A244A
:103C5000D96EDA6A060EDA2206C5DFF45A283F0B5F
:103C60005A6E582AAC8212000A6A41EF1EF00A50BE
:103C70000724D96E000E0820DA6EDF501AEC1EF011
:103C80000A2A09500A5CD8A048EF1EF04AEF1EF03D
:103C900037EF1EF01200016E200E0501C26153EFD6
:103CA0001EF055EF1EF061EF1EF0400E5724D96E46
:103CB000DA6A060EDA2201C5DFF457281F0B576EA9
:103CC000C22B1200066A0501B651D8B46AEF1EF085
:103CD0006CEF1EF06DEF1EF00680B551D8B473EF97
:103CE0001EF075EF1EF076EF1EF0068206501200F1
:103CF000066A0501B851D8B480EF1EF082EF1EF0BD
:103D000083EF1EF00680B751D8B489EF1EF08BEF19
:103D10001EF08CEF1EF00682065012000C6E0CA0F6
:103D200094EF1EF096EF1EF098EF1EF00501B86BB1
:103D30000CA29DEF1EF09FEF1EF0A1EF1EF00501FB
:103D4000B76B7EEC19F0120006500710D8B4ABEF39
:103D50001EF0ADEF1EF0B8EF1EF021EE90F206C59A
:103D6000E1F407C5E2F4070EDBC4E3F4E806FCE285
:103D70001200066A5850D8A4C0EF1EF0C2EF1EF021
:103D8000CCEF1EF00201B2AFC8EF1EF0CAEF1EF07A
:103D9000CCEF1EF0010E066E0650120004011097C3
:103DA000C8960099C698009BC69A0095C69410952F
:103DB000C8941099C088C898C096BE98BE9ABE9400
:103DC000C094C0881200C084BE84010E0501B16F8A
:103DD000010EB06F9AEC20F006C560F607C561F6DB
:103DE00008C562F609C563F6030E0501B26F12003D
:103DF00092C61FF593C620F5D5EC17F01FC59AF5AE
:103E000020C59BF596C61FF597C620F5D5EC17F093
:103E10001FC598F520C599F51200020E0501C06175
:103E200014EF1FF016EF1FF01CEF1FF0AAC506F5E8
:103E3000ABC507F520EF1FF0A8C506F5A9C507F526
:103E40001200C084BE94010E0501B16FB06B9AECF4
:103E500020F006C560F607C561F608C562F609C51B
:103E600063F6040E0501B26F1200C0989AEC20F0C0
:103E700006C594F507C595F508C596F509C597F5E6
:103E80000501C46BC36B010EC56FC8EC1FF01200B7
:103E9000ABA64DEF1FF04FEF1FF059EF1FF0B6A686
:103EA00054EF1FF056EF1FF059EF1FF0B696A3EC3A
:103EB00020F01200010E0501BA6FC086050EB96F21
:103EC0009AEC20F006C560F507C561F508C562F5F6
:103ED00009C563F51200DDEC20F00501B16B000EA1
:103EE0000601606F000E616F000E626F000E636F5F
:103EF0000501B26B12000501BA6B9AEC20F006C501
:103F000060F507C561F508C562F509C563F50501EA
:103F1000B96BC096120054EC20F006C58CF607C5AC
:103F20008DF6000E0501886F000E896F000E8A6FF6
:103F3000000E8B6F12000401109BC88A150E02013F
:103F4000426F03011491156B176B060E146F136B00
:103F5000126B12000501BE51D8B4B1EF1FF0B3EFE0
:103F60001FF0B7EF1FF0BE6B010EB8EF1FF0000E91
:103F700012000501C151D8B4C0EF1FF0C2EF1FF00D
:103F8000C6EF1FF0C16B010EC7EF1FF0000E12004D
:103F90000501BA6BC0869AEC20F006C560F507C52E
:103FA00061F508C562F509C563F51200386E38C5BC
:103FB00039F5390E126E050E136E156A010E146E68
:103FC000880EBEEC14F01200386E38C539F5390E83
:103FD000126E050E136E156A010E146E8F0EBEEC76
:103FE00014F01200386E38C539F5390E126E050E10
:103FF000136E156A010E146E8E0EBEEC14F01200D4
:1040000003011E9F010E206F1F6BF90E1D6FE00E46
:104010001E6FB696AB861E8F1200FAC404F5FBC461
:1040200005F583EC18F048EC1FF005C5FBF404C55A
:10403000FAF411000501BD51D8A421EF20F024EFBE
:1040400020F0010E25EF20F0000E12000201B0A7B3
:104050002CEF20F02EEF20F026EF20F0B19FAC8661
:10406000AC8912000501C051D8A439EF20F03CEF13
:1040700020F0010E3DEF20F0000E12000201B1BF52
:1040800044EF20F047EF20F0010E48EF20F0000E43
:104090001200FFEC1DF088C510F589C511F58AC521
:1040A00012F58BC513F5120012C30AF513C30BF5F5
:1040B0000B50086E0A50066E08C507F51200C0B412
:1040C00064EF20F067EF20F0010E68EF20F0000EA3
:1040D0001200BEB46EEF20F071EF20F0010E72EF0F
:1040E00020F0000E1200000E05018C6F000E8D6F87
:1040F000000E8E6F000E8F6F1200065005018C2788
:1041000007508D2308508E2309508F231200F8EC9E
:104110001EF00501B86BB76BB66BB56BB46BB36BC8
:10412000120084C506F585C507F586C508F587C55F
:1041300009F512008CC506F58DC507F58EC508F585
:104140008FC509F51200010E05018C27000E8D2385
:104150008E238F231200000E73EC20F000EC20F071
:10416000120006C58EF607C58FF612000201AC9943
:10417000B19FAC961200AEC506F5AFC507F51200AB
:104180008813100E9001B400C0880501C56B1200A1
:104190000501B66BB56B1200010E0501BB6F120075
:1041A00002504BEC1EF012000501B2511200030147
:1041B000148112000501B1511200C094BE94120086
:1041C0005850400812000668076812000501BE6BCF
:0A41D00012006CEC15F01200120052
:020000040030CA
:010000008C73
:04000200F7FFACFF59
:00000001FF
