:040000000DEF00F010
:0400080081EF11F083
:06001800FF0031EF10F0C3
:1016000000006FEF0BF04CEC11F00009D8A40BEFC9
:101610000BF00DEF0BF015EF0BF05450D8B413EFA7
:101620000BF015EF0BF05EEF0CF0546AC088CDECB8
:1016300011F005C53BF506C53CF507C53DF508C5E8
:101640003EF5010E566E5EEF0CF03BC509F53CC54C
:101650000AF53DC50BF53EC50CF502EC0FF00C503C
:101660000B100BE1F40E095C010E0A58D8A03BEFF9
:101670000BF03DEF0BF05EEF0CF0C098020E566ED3
:101680005EEF0CF05350D8A448EF0BF04AEF0BF08C
:1016900052EF0BF05550D8B450EF0BF052EF0BF067
:1016A00055EF0BF0566A5EEF0CF03BC509F53CC5F3
:1016B0000AF53DC50BF53EC50CF502EC0FF00C50DC
:1016C0000B100BE1B80E095C0B0E0A58D8A06BEF9B
:1016D0000BF06DEF0BF05EEF0CF052EF0BF056508D
:1016E000266E276A2750000AD8B479EF0BF052EF24
:1016F0000BF02650000AD8B403EF0BF0010AD8B45F
:1017000025EF0BF0030AD8B442EF0BF052EF0BF0C9
:101710005350D8B48EEF0BF090EF0BF077EF0CF046
:10172000536AEDEC11F005C549F506C54AF5486A5E
:10173000000E476E10EC11F0010E556E77EF0CF0B5
:101740004B50495C266E4C504A58276EE80E2624B2
:10175000056E030E2720066E030E086EE80E076E58
:101760008BEC0FF005C537F506C538F5396A3A6ACE
:10177000306A000E2F6E3AC52BF539C52CF538C5E9
:101780002DF537C52EF5040E2F26000E30222F50D2
:101790003010D8B4CEEF0BF0D0EF0BF0E1EF0BF040
:1017A000F8EC11F0266E276A2F50265C305027582F
:1017B000D8B0DDEF0BF0DFEF0BF0E1EF0BF077EFE0
:1017C0000CF02B0E066E050E076E040E086EBEECB6
:1017D00010F03750381039103A10D8B4F2EF0BF03F
:1017E000F4EF0BF0F8EF0BF0020E556E77EF0CF004
:1017F000556A77EF0CF049504B1807E14A504C18E6
:10180000D8A405EF0CF007EF0CF009EF0CF0F8EF9F
:101810000BF04BC51EF54CC51FF5330E206E050EA3
:10182000216EBDEC0FF047C505F548C506F535C579
:1018300007F536C508F5280E096E050E0A6E57EC39
:101840000EF0326A000E316E030E3126000E322287
:1018500031503210D8B42FEF0CF031EF0CF042EFD2
:101860000CF0F8EC11F0266E276A3150265C3250ED
:101870002758D8B03EEF0CF040EF0CF042EF0CF0E0
:1018800077EF0CF0280E066E050E076E030E086E3D
:10189000BEEC10F0010E4B24056E000E4C20066EBF
:1018A000030E086EE80E076E8BEC0FF005C54BF5C6
:1018B00006C54CF5474A482A77EF0CF05550266E7E
:1018C000276A2750000AD8B468EF0CF0F8EF0BF045
:1018D0002650000AD8B488EF0BF0010AD8B4A0EF64
:1018E0000BF0030AD8B4FBEF0BF0F8EF0BF012008B
:1018F000ACC509F5ADC50AF5AEC50BF5AFC50CF520
:1019000002EC0FF00C500B1009E1E80E095C030E1D
:101910000A58D8B08EEF0CF090EF0CF092EF0CF06C
:1019200004EF0DF0CDEC11F005C5ACF506C5ADF535
:1019300007C5AEF508C5AFF5A5EC11F00FC51FF54D
:1019400010C520F511C521F512C522F50501A851D4
:101950001F5C1B6EA95120581C6E1FC5A8F520C521
:10196000A9F521C5AAF522C5ABF5010EA027000EE9
:10197000A123A223A3234FC505F550C506F5030EE9
:10198000086EE80E076E8BEC0FF005C51DF506C559
:101990001EF54DC505F54EC506F51BC507F51CC55D
:1019A00008F5030E1D02F3C419F5F4C41AF51E025E
:1019B000F3501A26B90E1924096E050E1A200A6E64
:1019C00057EC0EF04D4A4E2A4E5009E1050E4D5C83
:1019D000D8A0EDEF0CF0EFEF0CF0F4EF0CF04E6A46
:1019E000000E4D6E010E576E010E4F24056E000E57
:1019F0005020066E030E086EE80E076E8BEC0FF09B
:101A000005C54FF506C550F51200EAEC10F053EC91
:101A100010F0480E056E210E066EE3EC11F0DDECC1
:101A200011F020EC11F0F2EC11F02FEC11F00CECB5
:101A300010F074EC11F03EEC11F002EC12F0D68CC8
:101A4000D68ECDEC11F005C5B4F506C5B5F507C5C4
:101A5000B6F508C5B7F500017881040003EC12F073
:101A6000EAEC0DF001EC12F078EC0CF001EC0BF06C
:101A7000E7EC0FF00009D8A440EF0DF042EF0DF0B5
:101A80002DEF0DF0D5EC10F00009D8B44AEF0DF0B1
:101A90004CEF0DF02DEF0DF0B4C509F5B5C50AF505
:101AA000B6C50BF5B7C50CF502EC0FF0C096BE94A9
:101AB000C0944AEC0FF00501B86F67EC11F0CDEC63
:101AC00011F005C5B4F506C5B5F507C5B6F508C5E9
:101AD000B7F50501B805D8A470EF0DF072EF0DF061
:101AE0002DEF0DF0F5EC11F02DEF0DF00DEF00F0F6
:101AF00020EE01F00550D9260650DA22DF500B6E99
:101B00000BC50CF50D6A0E6A0F6A0EC50FF50DC5F3
:101B10000EF50CC50DF50C6A05C5D9F406C5DAF449
:101B2000DF50106E10C511F5126A136A146A12C5DF
:101B300014F511C513F5126A116A0C501110156EC7
:101B40000D501210166E0E501310176E0F50141009
:101B5000186E20EE02F00550D9260650DA22DF502A
:101B6000196E195015101A6E16501B6E17501C6EF8
:101B700018501D6E1AC50BF51BC50CF51CC50DF5CF
:101B80001DC50EF50F0ECAEF0DF0D8900E320D32B6
:101B90000C320B32E82EC5EF0DF0FF0E0B140F6E5A
:101BA000030E0C14106E07C5D9F408C5DAF40FC57E
:101BB000DEF410C5DDF4FF0E1A140B6E3F0E1B147D
:101BC0000C6E09C5D9F40AC5DAF40BC5DEF40CC5F0
:101BD000DDF412005250D8A4F0EF0DF0F2EF0DF04A
:101BE00017EF0EF0A4C509F5A5C50AF5A6C50BF5B6
:101BF000A7C50CF502EC0FF00C500B100BE1F40E26
:101C0000095C010E0A58D8A008EF0EF00AEF0EF09A
:101C100056EF0EF0CDEC11F005C5A4F506C5A5F5FF
:101C200007C5A6F508C5A7F5C07656EF0EF0A4C502
:101C300009F5A5C50AF5A6C50BF5A7C50CF502EC77
:101C40000FF00C500B100A1009E1640E095CD8A0CB
:101C50002CEF0EF02EEF0EF056EF0EF0CDEC11F053
:101C600005C5A4F506C5A5F507C5A6F508C5A7F5DC
:101C7000C0765150D8B43FEF0EF041EF0EF042EF76
:101C80000EF051065150D8A448EF0EF04AEF0EF076
:101C900056EF0EF0C096526ACDEC11F005C5A4F5D2
:101CA00006C5A5F507C5A6F508C5A7F51200040EDB
:101CB000065CD8B05EEF0EF060EF0EF066EF0EF04F
:101CC00005C50FF506C510F569EF0EF0030E106E91
:101CD0000F68400E085CD8B070EF0EF072EF0EF097
:101CE00078EF0EF007C511F508C512F57BEF0EF081
:101CF0003F0E126E11680F500B6E10500C6E0D6A75
:101D00000E6A0E0ED8900B360C360D360E36E82EB7
:101D100082EF0EF011500B10136E12500C10146E57
:101D2000000E0D10156E000E0E10166E09C5D9F4BA
:101D30000AC5DAF415C5DFF420EE01F00950D92602
:101D40000A50DA2214C5DFF420EE02F00950D92639
:101D50000A50DA2213C5DFF41200ACA0B2EF0EF085
:101D6000B4EF0EF0D5EF0EF0B7A0B9EF0EF0BBEF69
:101D70000EF0D5EF0EF0A1C202F50501B251B3117C
:101D8000D8B4C5EF0EF0C7EF0EF0D5EF0EF002C5D8
:101D900001F502D8D5EF0EF00500FA6EB251FD6ED6
:101DA000B351FE6EFF6AFA501200ACA2DAEF0EF0E9
:101DB000DCEF0EF001EF0FF0B7A2E1EF0EF0E3EF72
:101DC0000EF001EF0FF05850D8B4E9EF0EF0EBEF42
:101DD0000EF0F8EF0EF0600E5924D96EDA6A050E97
:101DE000DA22DF500201A36F59283F0B596E5806C3
:101DF0005850D8A4FEEF0EF000EF0FF001EF0FF0F7
:101E0000AC921200CDEC11F005C515F506C516F51E
:101E100007C517F508C518F50950155C0A5016587E
:101E20000B5017580C501858D8B019EF0FF01BEF83
:101E30000FF03DEF0FF0091C0D6E0A1C0E6E0B1C0F
:101E40000F6E0C1C106E15500D24116E16500E20C6
:101E5000126E17500F20136E18501020146E010EC2
:101E60001124096E000E12200A6E000E13200B6E54
:101E7000000E14200C6E49EF0FF00950155C096E2E
:101E80000A5016580A6E0B5017580B6E0C50185803
:101E90000C6E1200096A03011E9FAB96B6961A9F3C
:101EA0009E0E1B6F020E196F186BB69EAB8E800EC6
:101EB0001A6F8EEC11F0D69EF29E0001789103000D
:101EC0000000000178819AEC11F00009D8B46BEFA2
:101ED0000FF06DEF0FF06FEF0FF0010E096EE8ECF1
:101EE00011F0B6AE76EF0FF078EF0FF082EF0FF053
:101EF000E80E056E030E066E000E076E000E086EED
:101F0000C4EC11F003011A9FAB9EB69ED68E5AEC1C
:101F100011F00950120007500810D8B492EF0FF0DA
:101F200094EF0FF0B8EF0FF0010E096E9CEF0FF079
:101F3000D89007360836092A08AEA1EF0FF0A3EFB4
:101F40000FF098EF0FF00750055C08500658D8A026
:101F5000ACEF0FF0AEEF0FF0B2EF0FF00750055EF1
:101F60000850065AD89008320732092EA3EF0FF016
:101F700005C505F506C506F512001EC505F51FC504
:101F800006F5030E086EE80E076E8BEC0FF005C524
:101F900024F506C525F5030E2402F3C422F5F4C486
:101FA00023F52502F3502326B90E2224056E050ED3
:101FB0002320066E20C507F521C508F5020E202452
:101FC000096E000E21200A6E78EC0DF01200010E51
:101FD000056E5650D8A4EFEF0FF0F1EF0FF00AEFB7
:101FE00010F05550D8A4F7EF0FF0F9EF0FF00AEF0B
:101FF00010F05350D8A4FFEF0FF001EF10F00AEFEC
:1020000010F05450D8A407EF10F009EF10F00AEFC9
:1020100010F0056A05501200506A000E4F6E4E6AAD
:10202000000E4D6E000E0501A06F000EA16F000E98
:10203000A26F000EA36F576AA5EC11F00FC5A8F5AB
:1020400010C5A9F511C5AAF512C5ABF5CDEC11F077
:1020500005C5ACF506C5ADF507C5AEF508C5AFF5C8
:10206000120001EEB9F112EEB8F3EE6AE550E1505C
:10207000FCE1E250FAE101EE60F1440EEE6AE8069E
:10208000FDE101EE3BF1200EEE6AE806FDE1040100
:10209000080E5D6F000E5E6F000E5F6F000EF86E33
:1020A000000105EF0DF004011091C890100E02011F
:1020B000116F04011093C8821183110E0201726F17
:1020C000AB8FA00EAE6F010EAF6FF00EAB17AB8BE8
:1020D000AB89AC8F586A596A5A6AAC80AC921200CC
:1020E000056E3F0E586477EF10F079EF10F07BEF3C
:1020F00010F089EF10F0AC92600E5A24D96EDA6AB3
:10210000050EDA2205C5DFF45A283F0B5A6E582A0D
:10211000AC821200B0EC11F005C50DF506C50EF548
:102120000501B0510D5C0B6EB1510E580C6E0DC512
:10213000B0F50EC5B1F50B503F260C504022000EF5
:102140004122000E42221200AA0E0118D8A4ABEFC1
:1021500010F0ADEF10F0B2EF10F0C076FEEC11F021
:10216000BDEF10F0F00E0118D8A4B9EF10F0BBEFDE
:1021700010F0BDEF10F0FBEC11F01200096ACBEF8C
:1021800010F009500624D96E000E0720DA6EDF50D9
:1021900070EC10F0092A0850095CD8A0D2EF10F0BA
:1021A000D4EF10F0C1EF10F01200056A5850D8A417
:1021B000DCEF10F0DEEF10F0E8EF10F00201B2AF4C
:1021C000E4EF10F0E6EF10F0E8EF10F0010E056E0E
:1021D0000550120004011097C8960099C698009BFC
:1021E000C69A0095C6941095C8941099C898C09640
:1021F000BE98BE9ABE94C094C0981200ABA603EFDE
:1022000011F005EF11F00FEF11F0B6A60AEF11F083
:102210000CEF11F00FEF11F0B696D6EC11F01200A2
:10222000010E526EC086050E516ECDEC11F005C543
:10223000A4F506C5A5F507C5A6F508C5A7F51200BE
:102240000401109BC88A150E0201426F030114910C
:10225000156B176B060E146F136B126B1200B0EC3C
:1022600011F005C5B0F506C5B1F5000E3F6E000EC4
:10227000406E000E416E000E426E1200526ACDECAE
:1022800011F005C5A4F506C5A5F507C5A6F508C551
:10229000A7F5516AC09612005750D8B452EF11F00A
:1022A00054EF11F058EF11F0576A010E59EF11F089
:1022B000000E120003011E9F010E206F1F6BF90E0E
:1022C0001D6FE00E1E6FB696AB861E8F1200526A0F
:1022D000C086CDEC11F005C5A4F506C5A5F507C56A
:1022E000A6F508C5A7F51200566A556A4C6A000E95
:1022F0004B6E4A6A000E496E486A000E476E536A7A
:102300001200FAC403F5FBC404F5ADEC0EF0FEECCC
:1023100010F004C5FBF403C5FAF411000201B0A7E4
:1023200094EF11F096EF11F08EEF11F0B19FAC86A3
:10233000AC8912000201B1BFA0EF11F0A3EF11F0C0
:10234000010EA4EF11F0000E12008AEC10F03FC550
:102350000FF540C510F541C511F542C512F5120043
:1023600012C309F513C30AF50A50076E0950056E2A
:1023700007C506F51200000E436E000E446E000EF7
:10238000456E000E466E120005504326065044224C
:102390000750452208504622120043C505F544C5A2
:1023A00006F545C507F546C508F51200010E43269A
:1023B000000E4422452246221200000EBBEC11F012
:1023C0005AEC11F0120005C5B2F506C5B3F51200BE
:1023D0000201AC99B19FAC9612004FC505F550C5EE
:1023E00006F51200030114811200010E546E120052
:1023F000585040081200010E546E1200010E536E28
:0824000012001200120012008C
:020000040030CA
:010000008C73
:04000200F7FFACFF59
:00000001FF
